{
  "contractName": "CIP20Test",
  "abi": [
    {
      "constant": true,
      "inputs": [
        {
          "internalType": "bytes",
          "name": "input",
          "type": "bytes"
        }
      ],
      "name": "sha3_256",
      "outputs": [
        {
          "internalType": "bytes",
          "name": "",
          "type": "bytes"
        }
      ],
      "payable": false,
      "stateMutability": "view",
      "type": "function"
    },
    {
      "constant": true,
      "inputs": [
        {
          "internalType": "bytes",
          "name": "input",
          "type": "bytes"
        }
      ],
      "name": "sha3_512",
      "outputs": [
        {
          "internalType": "bytes",
          "name": "",
          "type": "bytes"
        }
      ],
      "payable": false,
      "stateMutability": "view",
      "type": "function"
    },
    {
      "constant": true,
      "inputs": [
        {
          "internalType": "bytes",
          "name": "input",
          "type": "bytes"
        }
      ],
      "name": "keccak512",
      "outputs": [
        {
          "internalType": "bytes",
          "name": "",
          "type": "bytes"
        }
      ],
      "payable": false,
      "stateMutability": "view",
      "type": "function"
    },
    {
      "constant": true,
      "inputs": [
        {
          "internalType": "bytes",
          "name": "input",
          "type": "bytes"
        }
      ],
      "name": "sha2_512",
      "outputs": [
        {
          "internalType": "bytes",
          "name": "",
          "type": "bytes"
        }
      ],
      "payable": false,
      "stateMutability": "view",
      "type": "function"
    },
    {
      "constant": true,
      "inputs": [
        {
          "internalType": "bytes32",
          "name": "config",
          "type": "bytes32"
        },
        {
          "internalType": "bytes",
          "name": "key",
          "type": "bytes"
        },
        {
          "internalType": "bytes",
          "name": "preimage",
          "type": "bytes"
        }
      ],
      "name": "blake2sWithConfig",
      "outputs": [
        {
          "internalType": "bytes",
          "name": "",
          "type": "bytes"
        }
      ],
      "payable": false,
      "stateMutability": "view",
      "type": "function"
    },
    {
      "constant": true,
      "inputs": [
        {
          "internalType": "bytes",
          "name": "input",
          "type": "bytes"
        }
      ],
      "name": "blake2s",
      "outputs": [
        {
          "internalType": "bytes",
          "name": "",
          "type": "bytes"
        }
      ],
      "payable": false,
      "stateMutability": "view",
      "type": "function"
    }
  ],
  "bytecode": "0x608060405234801561001057600080fd5b50610bda806100206000396000f3fe608060405234801561001057600080fd5b50600436106100625760003560e01c80635a2ba2f7146100675780637dd820de146101595780639b0f02351461024b578063a399384e1461033d578063a5447aa61461042f578063d6ea3f5514610580575b600080fd5b6100de6004803603602081101561007d57600080fd5b810190808035906020019064010000000081111561009a57600080fd5b8201836020820111156100ac57600080fd5b803590602001918460018302840111640100000000831117156100ce57600080fd5b9091929391929390505050610672565b6040518080602001828103825283818151815260200191508051906020019080838360005b8381101561011e578082015181840152602081019050610103565b50505050905090810190601f16801561014b5780820380516001836020036101000a031916815260200191505b509250505060405180910390f35b6101d06004803603602081101561016f57600080fd5b810190808035906020019064010000000081111561018c57600080fd5b82018360208201111561019e57600080fd5b803590602001918460018302840111640100000000831117156101c057600080fd5b90919293919293905050506106c9565b6040518080602001828103825283818151815260200191508051906020019080838360005b838110156102105780820151818401526020810190506101f5565b50505050905090810190601f16801561023d5780820380516001836020036101000a031916815260200191505b509250505060405180910390f35b6102c26004803603602081101561026157600080fd5b810190808035906020019064010000000081111561027e57600080fd5b82018360208201111561029057600080fd5b803590602001918460018302840111640100000000831117156102b257600080fd5b9091929391929390505050610720565b6040518080602001828103825283818151815260200191508051906020019080838360005b838110156103025780820151818401526020810190506102e7565b50505050905090810190601f16801561032f5780820380516001836020036101000a031916815260200191505b509250505060405180910390f35b6103b46004803603602081101561035357600080fd5b810190808035906020019064010000000081111561037057600080fd5b82018360208201111561038257600080fd5b803590602001918460018302840111640100000000831117156103a457600080fd5b9091929391929390505050610777565b6040518080602001828103825283818151815260200191508051906020019080838360005b838110156103f45780820151818401526020810190506103d9565b50505050905090810190601f1680156104215780820380516001836020036101000a031916815260200191505b509250505060405180910390f35b6105056004803603606081101561044557600080fd5b81019080803590602001909291908035906020019064010000000081111561046c57600080fd5b82018360208201111561047e57600080fd5b803590602001918460018302840111640100000000831117156104a057600080fd5b9091929391929390803590602001906401000000008111156104c157600080fd5b8201836020820111156104d357600080fd5b803590602001918460018302840111640100000000831117156104f557600080fd5b90919293919293905050506107ce565b6040518080602001828103825283818151815260200191508051906020019080838360005b8381101561054557808201518184015260208101905061052a565b50505050905090810190601f1680156105725780820380516001836020036101000a031916815260200191505b509250505060405180910390f35b6105f76004803603602081101561059657600080fd5b81019080803590602001906401000000008111156105b357600080fd5b8201836020820111156105c557600080fd5b803590602001918460018302840111640100000000831117156105e757600080fd5b909192939192939050505061086e565b6040518080602001828103825283818151815260200191508051906020019080838360005b8381101561063757808201518184015260208101905061061c565b50505050905090810190601f1680156106645780820380516001836020036101000a031916815260200191505b509250505060405180910390f35b60606106c183838080601f016020809104026020016040519081016040528093929190818152602001838380828437600081840152601f19601f820116905080830192505050505050506108c5565b905092915050565b606061071883838080601f016020809104026020016040519081016040528093929190818152602001838380828437600081840152601f19601f820116905080830192505050505050506108db565b905092915050565b606061076f83838080601f016020809104026020016040519081016040528093929190818152602001838380828437600081840152601f19601f820116905080830192505050505050506108f1565b905092915050565b60606107c683838080601f016020809104026020016040519081016040528093929190818152602001838380828437600081840152601f19601f82011690508083019250505050505050610937565b905092915050565b60606108638686868080601f016020809104026020016040519081016040528093929190818152602001838380828437600081840152601f19601f8201169050808301925050505050505085858080601f016020809104026020016040519081016040528093929190818152602001838380828437600081840152601f19601f8201169050808301925050505050505061094d565b905095945050505050565b60606108bd83838080601f016020809104026020016040519081016040528093929190818152602001838380828437600081840152601f19601f82011690508083019250505050505050610a55565b905092915050565b60606108d48260026040610a6b565b9050919050565b60606108ea8260006020610a6b565b9050919050565b60606109307f200001010000000000000000000000000000000000000000000000000000000060001b604051806020016040528060008152508461094d565b9050919050565b60606109468260016040610a6b565b9050919050565b606060ff60f085901c60001c168351146109b2576040517f08c379a0000000000000000000000000000000000000000000000000000000008152600401808060200182810382526054815260200180610b526054913960600191505060405180910390fd5b606084836040516020018083815260200182805190602001908083835b602083106109f257805182526020820191506020810190506020830392506109cf565b6001836020036101000a038019825116818451168082178552505050505050905001925050506040516020818303038152906040529050610a4b81601087600060208110610a3c57fe5b1a60f81b60f81c60ff16610a6b565b9150509392505050565b6060610a648260036040610a6b565b9050919050565b6060600060e290506060836040519080825280601f01601f191660200182016040528015610aa85781602001600182028038833980820191505090505b509050600086519050600086885282516020840160018401601f8b01876107d05a03fa905081885280610b43576040517f08c379a00000000000000000000000000000000000000000000000000000000081526004018080602001828103825260158152602001807f4349502d32302068617368696e67206661696c6564000000000000000000000081525060200191505060405180910390fd5b82945050505050939250505056fe43495032304c69622f626c616b65327357697468436f6e666967202d2050726f7669646564206b6579206c656e67746820646f6573206e6f74206d61746368206b6579206c656e67746820696e20636f6e666967a265627a7a723158209967f8b1037dcac3ba82494abbcf95d2bf4678788480e9b32503ae468e549d3b64736f6c634300050d0032",
  "source": "pragma solidity ^0.5.13;\n\nimport \"../CIP20Lib.sol\";\n\ncontract CIP20Test {\n  using CIP20Lib for bytes;\n\n  function sha3_256(bytes calldata input) external view returns (bytes memory) {\n    return input.sha3_256();\n  }\n\n  function sha3_512(bytes calldata input) external view returns (bytes memory) {\n    return input.sha3_512();\n  }\n\n  function keccak512(bytes calldata input) external view returns (bytes memory) {\n    return input.keccak512();\n  }\n\n  function sha2_512(bytes calldata input) external view returns (bytes memory) {\n    return input.sha2_512();\n  }\n\n  function blake2sWithConfig(\n    bytes32 config,\n    bytes calldata key,\n    bytes calldata preimage\n  ) external view returns (bytes memory) {\n    return CIP20Lib.blake2sWithConfig(config, key, preimage);\n  }\n\n  function blake2s(bytes calldata input) external view returns (bytes memory) {\n    return input.blake2s();\n  }\n}\n",
  "sourcePath": "/Users/beaver/Development/temp/celo-monorepo/packages/protocol/contracts/common/libraries/test/CIP20Test.sol",
  "compiler": {
    "name": "solc",
    "version": "0.5.13+commit.5b0b510c.Emscripten.clang"
  },
  "schemaVersion": "3.4.13",
  "updatedAt": "2025-05-05T17:49:51.286Z",
  "devdoc": {
    "methods": {}
  },
  "userdoc": {
    "methods": {}
  }
}