{
  "contractName": "Common",
  "abi": [
    {
      "inputs": [],
      "payable": false,
      "stateMutability": "nonpayable",
      "type": "constructor"
    },
    {
      "anonymous": false,
      "inputs": [
        {
          "indexed": false,
          "internalType": "uint256",
          "name": "a",
          "type": "uint256"
        },
        {
          "indexed": false,
          "internalType": "uint256",
          "name": "b",
          "type": "uint256"
        },
        {
          "indexed": false,
          "internalType": "uint256",
          "name": "c",
          "type": "uint256"
        },
        {
          "indexed": false,
          "internalType": "uint256",
          "name": "d",
          "type": "uint256"
        }
      ],
      "name": "MEMDUMP",
      "type": "event"
    },
    {
      "constant": true,
      "inputs": [
        {
          "internalType": "uint256",
          "name": "a1",
          "type": "uint256"
        },
        {
          "internalType": "uint256",
          "name": "a2",
          "type": "uint256"
        },
        {
          "internalType": "uint256",
          "name": "b1",
          "type": "uint256"
        },
        {
          "internalType": "uint256",
          "name": "b2",
          "type": "uint256"
        }
      ],
      "name": "fpMulTest",
      "outputs": [
        {
          "internalType": "uint256",
          "name": "",
          "type": "uint256"
        },
        {
          "internalType": "uint256",
          "name": "",
          "type": "uint256"
        }
      ],
      "payable": false,
      "stateMutability": "view",
      "type": "function"
    },
    {
      "constant": true,
      "inputs": [
        {
          "internalType": "uint256",
          "name": "a1",
          "type": "uint256"
        },
        {
          "internalType": "uint256",
          "name": "a2",
          "type": "uint256"
        }
      ],
      "name": "fpNormalTest",
      "outputs": [
        {
          "internalType": "uint256",
          "name": "",
          "type": "uint256"
        },
        {
          "internalType": "uint256",
          "name": "",
          "type": "uint256"
        }
      ],
      "payable": false,
      "stateMutability": "view",
      "type": "function"
    },
    {
      "constant": true,
      "inputs": [
        {
          "internalType": "uint256",
          "name": "a",
          "type": "uint256"
        },
        {
          "internalType": "uint256",
          "name": "idx",
          "type": "uint256"
        }
      ],
      "name": "fpNormal2Test",
      "outputs": [
        {
          "internalType": "uint256",
          "name": "",
          "type": "uint256"
        },
        {
          "internalType": "uint256",
          "name": "",
          "type": "uint256"
        }
      ],
      "payable": false,
      "stateMutability": "view",
      "type": "function"
    },
    {
      "constant": true,
      "inputs": [
        {
          "internalType": "uint256[]",
          "name": "arr",
          "type": "uint256[]"
        }
      ],
      "name": "fp2MulTest",
      "outputs": [
        {
          "internalType": "uint256",
          "name": "",
          "type": "uint256"
        },
        {
          "internalType": "uint256",
          "name": "",
          "type": "uint256"
        },
        {
          "internalType": "uint256",
          "name": "",
          "type": "uint256"
        },
        {
          "internalType": "uint256",
          "name": "",
          "type": "uint256"
        }
      ],
      "payable": false,
      "stateMutability": "view",
      "type": "function"
    },
    {
      "constant": true,
      "inputs": [],
      "name": "testUncompress",
      "outputs": [
        {
          "internalType": "uint256",
          "name": "",
          "type": "uint256"
        },
        {
          "internalType": "uint256",
          "name": "",
          "type": "uint256"
        }
      ],
      "payable": false,
      "stateMutability": "view",
      "type": "function"
    },
    {
      "constant": true,
      "inputs": [
        {
          "internalType": "bytes",
          "name": "arg",
          "type": "bytes"
        }
      ],
      "name": "testParseG1",
      "outputs": [
        {
          "internalType": "uint256[4]",
          "name": "ret",
          "type": "uint256[4]"
        }
      ],
      "payable": false,
      "stateMutability": "pure",
      "type": "function"
    },
    {
      "constant": true,
      "inputs": [
        {
          "internalType": "uint256",
          "name": "w",
          "type": "uint256"
        },
        {
          "internalType": "uint256",
          "name": "x",
          "type": "uint256"
        },
        {
          "internalType": "uint256",
          "name": "y",
          "type": "uint256"
        },
        {
          "internalType": "uint256",
          "name": "z",
          "type": "uint256"
        }
      ],
      "name": "testSerializeG1",
      "outputs": [
        {
          "internalType": "bytes",
          "name": "",
          "type": "bytes"
        }
      ],
      "payable": false,
      "stateMutability": "pure",
      "type": "function"
    },
    {
      "constant": true,
      "inputs": [
        {
          "internalType": "bytes",
          "name": "arg",
          "type": "bytes"
        }
      ],
      "name": "testParseG2",
      "outputs": [
        {
          "internalType": "uint256[8]",
          "name": "ret",
          "type": "uint256[8]"
        }
      ],
      "payable": false,
      "stateMutability": "pure",
      "type": "function"
    },
    {
      "constant": true,
      "inputs": [
        {
          "internalType": "uint256",
          "name": "xaa",
          "type": "uint256"
        },
        {
          "internalType": "uint256",
          "name": "xab",
          "type": "uint256"
        },
        {
          "internalType": "uint256",
          "name": "xba",
          "type": "uint256"
        },
        {
          "internalType": "uint256",
          "name": "xbb",
          "type": "uint256"
        },
        {
          "internalType": "uint256",
          "name": "yaa",
          "type": "uint256"
        },
        {
          "internalType": "uint256",
          "name": "yab",
          "type": "uint256"
        },
        {
          "internalType": "uint256",
          "name": "yba",
          "type": "uint256"
        },
        {
          "internalType": "uint256",
          "name": "ybb",
          "type": "uint256"
        }
      ],
      "name": "testSerializeG2",
      "outputs": [
        {
          "internalType": "bytes",
          "name": "",
          "type": "bytes"
        }
      ],
      "payable": false,
      "stateMutability": "pure",
      "type": "function"
    },
    {
      "constant": true,
      "inputs": [
        {
          "internalType": "bytes",
          "name": "h",
          "type": "bytes"
        }
      ],
      "name": "testDeserialize",
      "outputs": [
        {
          "internalType": "uint256",
          "name": "",
          "type": "uint256"
        },
        {
          "internalType": "uint256",
          "name": "",
          "type": "uint256"
        },
        {
          "internalType": "bool",
          "name": "",
          "type": "bool"
        }
      ],
      "payable": false,
      "stateMutability": "pure",
      "type": "function"
    }
  ],
  "bytecode": "0x608060405234801561001057600080fd5b50612895806100206000396000f3fe608060405234801561001057600080fd5b506004361061009e5760003560e01c80636a0a20f4116100665780636a0a20f4146103e55780638c371936146104385780639548643d1461049f578063ad10955114610580578063beffe3ca146106225761009e565b806305c04092146100a3578063092176a714610191578063162ebd801461024657806323ab39c61461030b5780634de0f08d14610330575b600080fd5b61011660048036036101008110156100ba57600080fd5b810190808035906020019092919080359060200190929190803590602001909291908035906020019092919080359060200190929190803590602001909291908035906020019092919080359060200190929190505050610675565b6040518080602001828103825283818151815260200191508051906020019080838360005b8381101561015657808201518184015260208101905061013b565b50505050905090810190601f1680156101835780820380516001836020036101000a031916815260200191505b509250505060405180910390f35b610208600480360360208110156101a757600080fd5b81019080803590602001906401000000008111156101c457600080fd5b8201836020820111156101d657600080fd5b803590602001918460018302840111640100000000831117156101f857600080fd5b9091929391929390505050610727565b6040518082600860200280838360005b83811015610233578082015181840152602081019050610218565b5050505090500191505060405180910390f35b6102906004803603608081101561025c57600080fd5b81019080803590602001909291908035906020019092919080359060200190929190803590602001909291905050506108b0565b6040518080602001828103825283818151815260200191508051906020019080838360005b838110156102d05780820151818401526020810190506102b5565b50505050905090810190601f1680156102fd5780820380516001836020036101000a031916815260200191505b509250505060405180910390f35b610313610906565b604051808381526020018281526020019250505060405180910390f35b6103a76004803603602081101561034657600080fd5b810190808035906020019064010000000081111561036357600080fd5b82018360208201111561037557600080fd5b8035906020019184600183028401116401000000008311171561039757600080fd5b9091929391929390505050610a29565b6040518082600460200280838360005b838110156103d25780820151818401526020810190506103b7565b5050505090500191505060405180910390f35b61041b600480360360408110156103fb57600080fd5b810190808035906020019092919080359060200190929190505050610b16565b604051808381526020018281526020019250505060405180910390f35b6104826004803603608081101561044e57600080fd5b8101908080359060200190929190803590602001909291908035906020019092919080359060200190929190505050610b58565b604051808381526020018281526020019250505060405180910390f35b610558600480360360208110156104b557600080fd5b81019080803590602001906401000000008111156104d257600080fd5b8201836020820111156104e457600080fd5b8035906020019184600183028401116401000000008311171561050657600080fd5b91908080601f016020809104026020016040519081016040528093929190818152602001838380828437600081840152601f19601f820116905080830192505050505050509192919290505050610bc7565b6040518084815260200183815260200182151515158152602001935050505060405180910390f35b6105f76004803603602081101561059657600080fd5b81019080803590602001906401000000008111156105b357600080fd5b8201836020820111156105c557600080fd5b803590602001918460208302840111640100000000831117156105e757600080fd5b9091929391929390505050610bfd565b6040518085815260200184815260200183815260200182815260200194505050505060405180910390f35b6106586004803603604081101561063857600080fd5b810190808035906020019092919080359060200190929190505050610d75565b604051808381526020018281526020019250505060405180910390f35b606061067f6126bf565b89816000015160000151600001818152505088816000015160000151602001818152505087816000015160200151600001818152505086816000015160200151602001818152505085816020015160000151600001818152505084816020015160000151602001818152505083816020015160200151600001818152505082816020015160200151602001818152505061071881610dc1565b91505098975050505050505050565b61072f6126e5565b6107376126bf565b61078f600085858080601f016020809104026020016040519081016040528093929190818152602001838380828437600081840152601f19601f82011690508083019250505050505050610e8290919063ffffffff16565b905080600001516000015160000151826000600881106107ab57fe5b60200201818152505080600001516000015160200151826001600881106107ce57fe5b60200201818152505080600001516020015160000151826002600881106107f157fe5b602002018181525050806000015160200151602001518260036008811061081457fe5b602002018181525050806020015160000151600001518260046008811061083757fe5b602002018181525050806020015160000151602001518260056008811061085a57fe5b602002018181525050806020015160200151600001518260066008811061087d57fe5b60200201818152505080602001516020015160200151826007600881106108a057fe5b6020020181815250505092915050565b60606108ba612708565b85816000015160000181815250508481600001516020018181525050838160200151600001818152505082816020015160200181815250506108fb81611036565b915050949350505050565b60008061091161272e565b60405180604001604052806e8848defe740a67c8fc6225bf87ff5481526020017f85951e2caa9d41bb188282c8bd37cb5cd5481512ffcd394eeab9b16eb21be9ef815250905061095f61272e565b60405180604001604052806e1cefdc52b4e1eba6d3b6633bf15a7681526020017f5ca326aa36b6c0b5b1db375b6a5124fa540d200dfb56a6e58785e1aaaa63715b81525090506109ad61272e565b60405180604001604052806f01914a69c5102eff1f674f5d30afeec481526020017fbd7fb348ca3e52d96d182ad44fb82305c2fe3d3634a9591afd82de55559c8ea681525090506109fc612708565b610a098483856001611097565b905080602001516000015181602001516020015195509550505050509091565b610a31612748565b610a39612708565b610a91600085858080601f016020809104026020016040519081016040528093929190818152602001838380828437600081840152601f19601f8201169050808301925050505050505061137a90919063ffffffff16565b905080600001516000015182600060048110610aa957fe5b60200201818152505080600001516020015182600160048110610ac857fe5b60200201818152505080602001516000015182600260048110610ae757fe5b60200201818152505080602001516020015182600360048110610b0657fe5b6020020181815250505092915050565b600080610b2161272e565b610b406040518060400160405280600081526020018781525085611466565b90508060000151816020015192509250509250929050565b600080610b6361272e565b6040518060400160405280888152602001878152509050610b8261272e565b6040518060400160405280878152602001868152509050610ba161272e565b610bab83836114c7565b9050806000015181602001519450945050505094509492505050565b6000806000610bd461272e565b6000610bdf866116e5565b91509150816000015182602001518294509450945050509193909250565b600080600080610c0b61276a565b604051806040016040528060405180604001604052808a8a6000818110610c2e57fe5b9050602002013581526020018a8a6001818110610c4757fe5b90506020020135815250815260200160405180604001604052808a8a6002818110610c6e57fe5b9050602002013581526020018a8a6003818110610c8757fe5b905060200201358152508152509050610c9e61276a565b604051806040016040528060405180604001604052808b8b6004818110610cc157fe5b9050602002013581526020018b8b6005818110610cda57fe5b90506020020135815250815260200160405180604001604052808b8b6006818110610d0157fe5b9050602002013581526020018b8b6007818110610d1a57fe5b905060200201358152508152509050610d3161276a565b610d3b8383611703565b9050806000015160000151816000015160200151826020015160000151836020015160200151965096509650965050505092959194509250565b600080610d8061272e565b6040518060400160405280868152602001858152509050610d9f61272e565b610da882611822565b9050806000015181602001519350935050509250929050565b6060816000015160000151600001518260000151600001516020015183600001516020015160000151846000015160200151602001518560200151600001516000015186602001516000015160200151876020015160200151600001518860200151602001516020015160405160200180898152602001888152602001878152602001868152602001858152602001848152602001838152602001828152602001985050505050505050506040516020818303038152906040529050919050565b610e8a6126bf565b6000610ebe838551036000610ea960008861188190919063ffffffff16565b62ffffff19166118ac9092919063ffffffff16565b9050610edd600060208362ffffff19166118eb9092919063ffffffff16565b8260000151600001516000018181525050610f0a6020808362ffffff19166118eb9092919063ffffffff16565b8260000151600001516020018181525050610f38604060208362ffffff19166118eb9092919063ffffffff16565b8260000151602001516000018181525050610f66606060208362ffffff19166118eb9092919063ffffffff16565b8260000151602001516020018181525050610f94608060208362ffffff19166118eb9092919063ffffffff16565b8260200151600001516000018181525050610fc260a060208362ffffff19166118eb9092919063ffffffff16565b8260200151600001516020018181525050610ff060c060208362ffffff19166118eb9092919063ffffffff16565b826020015160200151600001818152505061101e60e060208362ffffff19166118eb9092919063ffffffff16565b82602001516020015160200181815250505092915050565b6060816000015160000151826000015160200151836020015160000151846020015160200151604051602001808581526020018481526020018381526020018281526020019450505050506040516020818303038152906040529050919050565b61109f612708565b6110a761272e565b604051806040016040528060008152602001600181525090506110c861272e565b61112161111b88600360405180604001604052806f01ae3a4617c510eac63b05c06ca1493b81526020017f1a22d9f300f5138f1ef3622fba094800170b5d44300000008508c00000000001815250611910565b83611a3f565b905061112b61272e565b61117b87600260405180604001604052806f01ae3a4617c510eac63b05c06ca1493b81526020017f1a22d9f300f5138f1ef3622fba094800170b5d44300000008508c00000000001815250611910565b905061118561272e565b6111d587600260405180604001604052806f01ae3a4617c510eac63b05c06ca1493b81526020017f1a22d9f300f5138f1ef3622fba094800170b5d44300000008508c00000000001815250611910565b90506111e18284611aae565b611253576040517f08c379a000000000000000000000000000000000000000000000000000000000815260040180806020018281038252600b8152602001807f7931206e6f74207371727400000000000000000000000000000000000000000081525060200191505060405180910390fd5b61125d8184611aae565b6112cf576040517f08c379a000000000000000000000000000000000000000000000000000000000815260040180806020018281038252600b8152602001807f7932206e6f74207371727400000000000000000000000000000000000000000081525060200191505060405180910390fd5b6112d98888611ad6565b61134b576040517f08c379a000000000000000000000000000000000000000000000000000000000815260040180806020018281038252600f8152602001807f7931206e6f74206772656174657374000000000000000000000000000000000081525060200191505060405180910390fd5b60405180604001604052808a8152602001876113675788611369565b895b815250945050505050949350505050565b611382612708565b60006113b68385510360006113a160008861188190919063ffffffff16565b62ffffff19166118ac9092919063ffffffff16565b90506113d5600060208362ffffff19166118eb9092919063ffffffff16565b826000015160000181815250506113fe6020808362ffffff19166118eb9092919063ffffffff16565b82600001516020018181525050611428604060208362ffffff19166118eb9092919063ffffffff16565b82602001516000018181525050611452606060208362ffffff19166118eb9092919063ffffffff16565b826020015160200181815250505092915050565b61146e61272e565b6114bf8383600160405180604001604052806f01ae3a4617c510eac63b05c06ca1493b81526020017f1a22d9f300f5138f1ef3622fba094800170b5d44300000008508c00000000001815250611b10565b905092915050565b6114cf61272e565b600083602001516fffffffffffffffffffffffffffffffff169050600060808560200151901c6fffffffffffffffffffffffffffffffff169050600085600001516fffffffffffffffffffffffffffffffff169050600060808760000151901c6fffffffffffffffffffffffffffffffff169050600086602001516fffffffffffffffffffffffffffffffff169050600060808860200151901c6fffffffffffffffffffffffffffffffff169050600088600001516fffffffffffffffffffffffffffffffff169050600060808a60000151901c6fffffffffffffffffffffffffffffffff1690506115bf61272e565b6115e1604051806040016040528060008152602001878c028152506000611466565b9050611604816115ff6115f8878d02898d02611c4b565b6010611466565b611a3f565b905061162a8161162561161e868d02888d028a8d02611c8f565b6020611466565b611a3f565b90506116538161164e611647858d02878d02898d028b8d02611cf2565b6030611466565b611a3f565b90506116798161167461166d858c02878c02898c02611c8f565b6040611466565b611a3f565b905061169c81611697611690858b02878b02611c4b565b6060611466565b611a3f565b90506116c9816116c4604051806040016040528060008152602001868b028152506080611466565b611a3f565b90506116d481611822565b995050505050505050505092915050565b6116ed61272e565b60006116fa836000611d74565b91509150915091565b61170b61276a565b61171361272e565b60405180604001604052806f01ae3a4617c510eac63b05c06ca1493b81526020017f1a22d9f300f5138f1ef3622fba094800170b5d44300000008508bffffffffffc815250905061176261272e565b611774856000015185600001516114c7565b905061177e61272e565b611790866020015186602001516114c7565b905061179a61272e565b6117ac87602001518860000151611a3f565b90506117c9816117c488600001518960200151611a3f565b6114c7565b90506117d58184611dcc565b90506117e18183611dcc565b90506117eb61272e565b6117fe846117f985886114c7565b611a3f565b90506040518060400160405280828152602001838152509550505050505092915050565b61182a61272e565b61187a82600160405180604001604052806f01ae3a4617c510eac63b05c06ca1493b81526020017f1a22d9f300f5138f1ef3622fba094800170b5d44300000008508c00000000001815250611910565b9050919050565b6000808351905060006020850190506118a28464ffffffffff168284611e84565b9250505092915050565b60006118e2846118db856118bf88611ef3565b6bffffffffffffffffffffffff16611f1990919063ffffffff16565b8585611f9c565b90509392505050565b60006008826020030260ff16611902858585612048565b60001c901c90509392505050565b61191861272e565b60008460000151905060008560200151905060008460000151905060008560200151905060606101006040519080825280601f01601f1916602001820160405280156119735781602001600182028038833980820191505090505b5090506060604080519080825280601f01601f1916602001820160405280156119ab5781602001600182028038833980820191505090505b5090506000806040602085015260206040850152604060608501528760808501528660a08501528a60c08501528560e0850152846101008501526040602084016101006020870160055afa8060008114611a12578460200151935084604001519250611a17565b600080fd5b5050604051806040016040528083815260200182815250985050505050505050509392505050565b611a4761272e565b600082602001518460200151019050600084602001518210158015611a70575083602001518210155b611a7b576001611a7e565b60005b60ff1684600001518660000151010190506040518060400160405280828152602001838152509250505092915050565b600081600001518360000151148015611ace575081602001518360200151145b905092915050565b6000816000015183600001511180611b08575081600001518360000151148015611b07575081602001518360200151115b5b905092915050565b611b1861272e565b60008560000151905060008660200151905060008460000151905060008560200151905060608860fe016040519080825280601f01601f191660200182016040528015611b745781602001600182028038833980820191505090505b5090506060604080519080825280601f01601f191660200182016040528015611bac5781602001600182028038833980820191505090505b5090506000808b604001602085015260206040850152604060608501528760808501528660a08501528a60c08d018501528560e08d01850152846101008d018501526040602084016101008e016020870160055afa8060008114611c1d578460200151935084604001519250611c22565b600080fd5b505060405180604001604052808381526020018281525098505050505050505050949350505050565b611c5361272e565b611c876040518060400160405280600081526020018581525060405180604001604052806000815260200185815250611a3f565b905092915050565b611c9761272e565b611ce960405180604001604052806000815260200186815250611ce46040518060400160405280600081526020018781525060405180604001604052806000815260200187815250611a3f565b611a3f565b90509392505050565b611cfa61272e565b611d6a60405180604001604052806000815260200187815250611d6560405180604001604052806000815260200188815250611d606040518060400160405280600081526020018981525060405180604001604052806000815260200189815250611a3f565b611a3f565b611a3f565b9050949350505050565b611d7c61272e565b600080600080611d8c878761220f565b9250925092506078607f8216901b83019250604051806040016040528084815260200183815250600060a083161415819150945094505050509250929050565b611dd461272e565b611ddc61272e565b611e2a8460405180604001604052806f01ae3a4617c510eac63b05c06ca1493b81526020017f1a22d9f300f5138f1ef3622fba094800170b5d44300000008508c00000000001815250611a3f565b905060008360200151826020015103905060008260200151821115611e50576001611e53565b60005b60ff168560000151846000015103039050604051806040016040528082815260200183815250935050505092915050565b600080611e9a83856122ea90919063ffffffff16565b9050604051811115611eab57600090505b6000811415611edd577fffffffffffffffffffffffffffffffffffffffffffffffffffffffffff000000915050611eec565b611ee8858585612370565b9150505b9392505050565b6000806bffffffffffffffffffffffff90506000601890508184821c1692505050919050565b600082821115611f91576040517f08c379a000000000000000000000000000000000000000000000000000000000815260040180806020018281038252601d8152602001807f556e646572666c6f7720647572696e67207375627472616374696f6e2e00000081525060200191505060405180910390fd5b818303905092915050565b600080611fa88661239b565b6bffffffffffffffffffffffff169050611fc1866123c4565b611fe685611fd888856122ea90919063ffffffff16565b6122ea90919063ffffffff16565b1115612015577fffffffffffffffffffffffffffffffffffffffffffffffffffffffffff000000915050612040565b61202885826122ea90919063ffffffff16565b905061203c8364ffffffffff168286611e84565b9150505b949350505050565b6000808260ff161415612060576000801b9050612208565b61206984611ef3565b6bffffffffffffffffffffffff1661208d8360ff16856122ea90919063ffffffff16565b111561216f576120ce61209f8561239b565b6bffffffffffffffffffffffff166120b686611ef3565b6bffffffffffffffffffffffff16858560ff166123ee565b6040517f08c379a00000000000000000000000000000000000000000000000000000000081526004018080602001828103825283818151815260200191508051906020019080838360005b83811015612134578082015181840152602081019050612119565b50505050905090810190601f1680156121615780820380516001836020036101000a031916815260200191505b509250505060405180910390fd5b60208260ff1611156121cc576040517f08c379a000000000000000000000000000000000000000000000000000000000815260040180806020018281038252603a8152602001806127f2603a913960400191505060405180910390fd5b600060088302905060006121df8661239b565b6bffffffffffffffffffffffff16905060006121fa83612548565b905080868301511693505050505b9392505050565b60008060008060009050600080905060008090505b6020811015612269576000888289018151811061223d57fe5b602001015160f81c60f81b60f81c60ff1690506008820281901b83019250508080600101915050612224565b5060008090505b600f8110156122b8576000886020838a01018151811061228c57fe5b602001015160f81c60f81b60f81c60ff1690506008820281901b84019350508080600101915050612270565b50818188602f8901815181106122ca57fe5b602001015160f81c60f81b60f81c60ff1694509450945050509250925092565b6000818301905082811015612367576040517f08c379a00000000000000000000000000000000000000000000000000000000081526004018080602001828103825260198152602001807f4f766572666c6f7720647572696e67206164646974696f6e2e0000000000000081525060200191505060405180910390fd5b80905092915050565b60008060609050600060189050858317821b9250848317821b9250838317811b925050509392505050565b6000806bffffffffffffffffffffffff90506000607860ff1690508184821c1692505050919050565b60006123cf82611ef3565b6123d88361239b565b016bffffffffffffffffffffffff169050919050565b606060006123fb86612577565b915050600061240986612577565b915050600061241786612577565b915050600061242586612577565b91505083838383604051602001808061282c603591396035018565ffffffffffff1665ffffffffffff1660d01b8152600601807f2077697468206c656e6774682030780000000000000000000000000000000000815250600f018465ffffffffffff1665ffffffffffff1660d01b8152600601806127d1602191396021018365ffffffffffff1665ffffffffffff1660d01b8152600601807f2077697468206c656e6774682030780000000000000000000000000000000000815250600f018265ffffffffffff1665ffffffffffff1660d01b8152600601807f2e00000000000000000000000000000000000000000000000000000000000000815250600101945050505050604051602081830303815290604052945050505050949350505050565b60007f8000000000000000000000000000000000000000000000000000000000000000600183031d9050919050565b6000806000601f90505b600f8160ff1611156125cb5760006008820260ff1685901c90506125a481612623565b61ffff168417935060108260ff16146125bf57601084901b93505b50600181039050612581565b506000600f90505b60ff8160ff16101561261d5760006008820260ff1685901c90506125f681612623565b61ffff168317925060008260ff161461261157601083901b92505b506001810390506125d3565b50915091565b600061263560048360ff16901c61265c565b60ff168117905060088161ffff16901b90506126508261265c565b60ff1681179050919050565b600080600f831690506040518060400160405280601081526020017f30313233343536373839616263646566000000000000000000000000000000008152508160ff16815181106126a957fe5b602001015160f81c60f81b60f81c915050919050565b60405180604001604052806126d2612790565b81526020016126df612790565b81525090565b604051806101000160405280600890602082028038833980820191505090505090565b604051806040016040528061271b6127b6565b81526020016127286127b6565b81525090565b604051806040016040528060008152602001600081525090565b6040518060800160405280600490602082028038833980820191505090505090565b604051806040016040528061277d6127b6565b815260200161278a6127b6565b81525090565b60405180604001604052806127a36127b6565b81526020016127b06127b6565b81525090565b60405180604001604052806000815260200160008152509056fe2e20417474656d7074656420746f20696e646578206174206f666673657420307854797065644d656d566965772f696e646578202d20417474656d7074656420746f20696e646578206d6f7265207468616e20333220627974657354797065644d656d566965772f696e646578202d204f76657272616e2074686520766965772e20536c696365206973206174203078a265627a7a72315820e120db28eb7a8e37dee51626c6bec60cc53adde5ea1f2c250507721b19b122ab64736f6c634300050d0032",
  "source": "pragma solidity ^0.5.13;\n\nimport { B12_377Lib, B12_381Lib, B12 } from \"../B12.sol\";\nimport { TypedMemView } from \"../TypedMemView.sol\";\n\ncontract Common {\n  using B12 for B12.G1Point;\n  using B12 for B12.G2Point;\n  using B12 for B12.Fp;\n  using B12 for B12.Fp2;\n  using B12 for bytes;\n\n  using TypedMemView for bytes;\n  using TypedMemView for bytes29;\n\n  event MEMDUMP(uint256 a, uint256 b, uint256 c, uint256 d);\n\n  constructor() public {}\n\n  function fpMulTest(\n    uint256 a1,\n    uint256 a2,\n    uint256 b1,\n    uint256 b2\n  ) external view returns (uint256, uint256) {\n    B12.Fp memory a = B12.Fp(a1, a2);\n    B12.Fp memory b = B12.Fp(b1, b2);\n    B12.Fp memory res = B12.fpMul(a, b);\n    return (res.a, res.b);\n  }\n\n  function fpNormalTest(uint256 a1, uint256 a2) external view returns (uint256, uint256) {\n    B12.Fp memory a = B12.Fp(a1, a2);\n    B12.Fp memory res = B12.fpNormal(a);\n    return (res.a, res.b);\n  }\n\n  function fpNormal2Test(uint256 a, uint256 idx) external view returns (uint256, uint256) {\n    B12.Fp memory res = B12.fpNormal2(B12.Fp(0, a), idx);\n    return (res.a, res.b);\n  }\n\n  function fp2MulTest(\n    uint256[] calldata arr\n  ) external view returns (uint256, uint256, uint256, uint256) {\n    B12.Fp2 memory x = B12.Fp2(B12.Fp(arr[0], arr[1]), B12.Fp(arr[2], arr[3]));\n    B12.Fp2 memory y = B12.Fp2(B12.Fp(arr[4], arr[5]), B12.Fp(arr[6], arr[7]));\n    B12.Fp2 memory res = B12.fp2Mul(x, y);\n    return (res.a.a, res.a.b, res.b.a, res.b.b);\n  }\n\n  function testUncompress() external view returns (uint256, uint256) {\n    B12.Fp memory x = B12.Fp(\n      0x008848defe740a67c8fc6225bf87ff54,\n      0x85951e2caa9d41bb188282c8bd37cb5cd5481512ffcd394eeab9b16eb21be9ef\n    );\n    B12.Fp memory y1 = B12.Fp(\n      0x001cefdc52b4e1eba6d3b6633bf15a76,\n      0x5ca326aa36b6c0b5b1db375b6a5124fa540d200dfb56a6e58785e1aaaa63715b\n    );\n    B12.Fp memory y2 = B12.Fp(\n      0x01914a69c5102eff1f674f5d30afeec4,\n      0xbd7fb348ca3e52d96d182ad44fb82305c2fe3d3634a9591afd82de55559c8ea6\n    );\n    B12.G1Point memory res = B12.mapToG1(x, y2, y1, true);\n    return (res.Y.a, res.Y.b);\n  }\n\n  function testParseG1(bytes calldata arg) external pure returns (uint256[4] memory ret) {\n    B12.G1Point memory a = arg.parseG1(0);\n    ret[0] = a.X.a;\n    ret[1] = a.X.b;\n    ret[2] = a.Y.a;\n    ret[3] = a.Y.b;\n  }\n\n  function testSerializeG1(\n    uint256 w,\n    uint256 x,\n    uint256 y,\n    uint256 z\n  ) external pure returns (bytes memory) {\n    B12.G1Point memory a;\n    a.X.a = w;\n    a.X.b = x;\n    a.Y.a = y;\n    a.Y.b = z;\n\n    return a.serializeG1();\n  }\n\n  function testParseG2(bytes calldata arg) external pure returns (uint256[8] memory ret) {\n    B12.G2Point memory a = arg.parseG2(0);\n    ret[0] = a.X.a.a;\n    ret[1] = a.X.a.b;\n    ret[2] = a.X.b.a;\n    ret[3] = a.X.b.b;\n    ret[4] = a.Y.a.a;\n    ret[5] = a.Y.a.b;\n    ret[6] = a.Y.b.a;\n    ret[7] = a.Y.b.b;\n  }\n\n  function testSerializeG2(\n    uint256 xaa,\n    uint256 xab,\n    uint256 xba,\n    uint256 xbb,\n    uint256 yaa,\n    uint256 yab,\n    uint256 yba,\n    uint256 ybb\n  ) external pure returns (bytes memory) {\n    B12.G2Point memory a;\n    a.X.a.a = xaa;\n    a.X.a.b = xab;\n    a.X.b.a = xba;\n    a.X.b.b = xbb;\n    a.Y.a.a = yaa;\n    a.Y.a.b = yab;\n    a.Y.b.a = yba;\n    a.Y.b.b = ybb;\n\n    return a.serializeG2();\n  }\n\n  function testDeserialize(bytes memory h) public pure returns (uint256, uint256, bool) {\n    (B12.Fp memory p, bool b) = B12.parsePoint(h);\n    return (p.a, p.b, b);\n  }\n\n  function dumpMem(uint256 idx) internal {\n    uint256 a;\n    uint256 b;\n    uint256 c;\n    uint256 d;\n\n    assembly {\n      a := mload(add(idx, 0x00))\n      b := mload(add(idx, 0x20))\n      c := mload(add(idx, 0x40))\n      d := mload(add(idx, 0x60))\n    }\n    emit MEMDUMP(a, b, c, d);\n  }\n\n  function executePrecompile(\n    bytes memory input,\n    uint8 addr,\n    uint256 output_len\n  ) internal view returns (bytes memory output) {\n    bool success;\n    assembly {\n      success := staticcall(\n        sub(gas, 2000),\n        addr,\n        add(input, 0x20), // location\n        mload(input), // length\n        add(output, 0x20), // location\n        output_len // length\n      )\n      mstore(output, output_len)\n    }\n\n    require(success, \"failed\");\n  }\n}\n\ncontract BLS12_381Passthrough is Common {\n  using B12_381Lib for B12.G1Point;\n  using B12_381Lib for B12.G2Point;\n  using B12_381Lib for B12.Fp;\n  using B12_381Lib for B12.Fp2;\n  using B12 for B12.G1Point;\n  using B12 for B12.G2Point;\n  using B12 for B12.Fp;\n  using B12 for B12.Fp2;\n  using B12_381Lib for bytes;\n  using B12 for bytes;\n\n  using TypedMemView for bytes;\n  using TypedMemView for bytes29;\n\n  constructor() public {}\n\n  function g1Add(bytes calldata args) external view returns (bytes memory) {\n    B12.G1Point memory a = args.parseG1(0);\n    B12.G1Point memory b = args.parseG1(4 * 32);\n    return a.g1Add(b).serializeG1();\n  }\n\n  function g1Mul(bytes calldata args) external view returns (bytes memory) {\n    B12.G1Point memory a = args.parseG1(0);\n    uint256 scalar = args.ref(0).indexUint(4 * 32, 32);\n    return a.g1Mul(scalar).serializeG1();\n  }\n\n  function g1MultiExp(bytes calldata args) external view returns (bytes memory) {\n    bytes29 ref = args.ref(0);\n\n    B12.G1MultiExpArg[] memory input = new B12.G1MultiExpArg[](args.length / 160);\n\n    for (uint256 i = 0; i < args.length / 160; i += 1) {\n      uint256 idx = i * 160;\n\n      input[i].point.X.a = ref.indexUint(idx + 0x00, 32);\n      input[i].point.X.b = ref.indexUint(idx + 0x20, 32);\n      input[i].point.Y.a = ref.indexUint(idx + 0x40, 32);\n      input[i].point.Y.b = ref.indexUint(idx + 0x60, 32);\n      input[i].scalar = ref.indexUint(idx + 0x80, 32);\n    }\n\n    return B12_381Lib.g1MultiExp(input).serializeG1();\n  }\n\n  function g2Add(bytes calldata args) external view returns (bytes memory) {\n    B12.G2Point memory a = args.parseG2(0);\n    B12.G2Point memory b = args.parseG2(8 * 32);\n    return a.g2Add(b).serializeG2();\n  }\n\n  function g2Mul(bytes calldata args) external view returns (bytes memory) {\n    B12.G2Point memory a = args.parseG2(0);\n    uint256 scalar = args.ref(0).indexUint(8 * 32, 32);\n    a.g2Mul(scalar);\n    return a.serializeG2();\n  }\n\n  function g2MultiExp(bytes calldata args) external view returns (bytes memory) {\n    bytes29 ref = args.ref(0);\n\n    B12.G2MultiExpArg[] memory input = new B12.G2MultiExpArg[](args.length / 288);\n\n    for (uint256 i = 0; i < args.length / 288; i += 1) {\n      uint256 idx = i * 288;\n\n      input[i].point.X.a.a = ref.indexUint(idx + 0x00, 32);\n      input[i].point.X.a.b = ref.indexUint(idx + 0x20, 32);\n      input[i].point.X.b.a = ref.indexUint(idx + 0x40, 32);\n      input[i].point.X.b.b = ref.indexUint(idx + 0x60, 32);\n      input[i].point.Y.a.a = ref.indexUint(idx + 0x80, 32);\n      input[i].point.Y.a.b = ref.indexUint(idx + 0xa0, 32);\n      input[i].point.Y.b.a = ref.indexUint(idx + 0xc0, 32);\n      input[i].point.Y.b.b = ref.indexUint(idx + 0xe0, 32);\n      input[i].scalar = ref.indexUint(idx + 0x100, 32);\n    }\n\n    return B12_381Lib.g2MultiExp(input).serializeG2();\n  }\n}\n\ncontract BLS12_377Passthrough is Common {\n  using B12_377Lib for B12.G1Point;\n  using B12_377Lib for B12.G2Point;\n  using B12_377Lib for B12.Fp;\n  using B12_377Lib for B12.Fp2;\n  using B12 for B12.G1Point;\n  using B12 for B12.G2Point;\n  using B12 for B12.Fp;\n  using B12 for B12.Fp2;\n  using B12_377Lib for bytes;\n  using B12 for bytes;\n\n  using TypedMemView for bytes;\n  using TypedMemView for bytes29;\n\n  constructor() public {}\n\n  function g1Add(bytes calldata args) external view returns (bytes memory) {\n    B12.G1Point memory a = args.parseG1(0);\n    B12.G1Point memory b = args.parseG1(4 * 32);\n    return a.g1Add(b).serializeG1();\n  }\n\n  function g1Mul(bytes calldata args) external view returns (bytes memory) {\n    B12.G1Point memory a = args.parseG1(0);\n    uint256 scalar = args.ref(0).indexUint(4 * 32, 32);\n    return a.g1Mul(scalar).serializeG1();\n  }\n\n  function g1MultiExp(bytes calldata args) external view returns (bytes memory) {\n    bytes29 ref = args.ref(0);\n\n    B12.G1MultiExpArg[] memory input = new B12.G1MultiExpArg[](args.length / 160);\n\n    for (uint256 i = 0; i < args.length / 160; i += 1) {\n      uint256 idx = i * 160;\n\n      input[i].point.X.a = ref.indexUint(idx + 0x00, 32);\n      input[i].point.X.b = ref.indexUint(idx + 0x20, 32);\n      input[i].point.Y.a = ref.indexUint(idx + 0x40, 32);\n      input[i].point.Y.b = ref.indexUint(idx + 0x60, 32);\n      input[i].scalar = ref.indexUint(idx + 0x80, 32);\n    }\n\n    return B12_377Lib.g1MultiExp(input).serializeG1();\n  }\n\n  function g2Add(bytes calldata args) external view returns (bytes memory) {\n    B12.G2Point memory a = args.parseG2(0);\n    B12.G2Point memory b = args.parseG2(8 * 32);\n    return a.g2Add(b).serializeG2();\n  }\n\n  function g2Mul(bytes calldata args) external view returns (bytes memory) {\n    B12.G2Point memory a = args.parseG2(0);\n    uint256 scalar = args.ref(0).indexUint(8 * 32, 32);\n    a.g2Mul(scalar);\n    return a.serializeG2();\n  }\n\n  function g2MultiExp(bytes calldata args) external view returns (bytes memory) {\n    bytes29 ref = args.ref(0);\n\n    B12.G2MultiExpArg[] memory input = new B12.G2MultiExpArg[](args.length / 288);\n\n    for (uint256 i = 0; i < args.length / 288; i += 1) {\n      uint256 idx = i * 288;\n\n      input[i].point.X.a.a = ref.indexUint(idx + 0x00, 32);\n      input[i].point.X.a.b = ref.indexUint(idx + 0x20, 32);\n      input[i].point.X.b.a = ref.indexUint(idx + 0x40, 32);\n      input[i].point.X.b.b = ref.indexUint(idx + 0x60, 32);\n      input[i].point.Y.a.a = ref.indexUint(idx + 0x80, 32);\n      input[i].point.Y.a.b = ref.indexUint(idx + 0xa0, 32);\n      input[i].point.Y.b.a = ref.indexUint(idx + 0xc0, 32);\n      input[i].point.Y.b.b = ref.indexUint(idx + 0xe0, 32);\n      input[i].scalar = ref.indexUint(idx + 0x100, 32);\n    }\n\n    return B12_377Lib.g2MultiExp(input).serializeG2();\n  }\n}\n",
  "sourcePath": "/Users/beaver/Development/temp/celo-monorepo/packages/protocol/contracts/common/libraries/test/BLS12Passthrough.sol",
  "compiler": {
    "name": "solc",
    "version": "0.5.13+commit.5b0b510c.Emscripten.clang"
  },
  "schemaVersion": "3.4.13",
  "updatedAt": "2025-05-05T17:49:51.274Z",
  "devdoc": {
    "methods": {}
  },
  "userdoc": {
    "methods": {}
  }
}