{
  "contractName": "ElectionTest",
  "abi": [
    {
      "anonymous": false,
      "inputs": [
        {
          "indexed": true,
          "internalType": "address",
          "name": "account",
          "type": "address"
        },
        {
          "indexed": false,
          "internalType": "bool",
          "name": "flag",
          "type": "bool"
        }
      ],
      "name": "AllowedToVoteOverMaxNumberOfGroups",
      "type": "event"
    },
    {
      "anonymous": false,
      "inputs": [
        {
          "indexed": true,
          "internalType": "address",
          "name": "_blockedBy",
          "type": "address"
        }
      ],
      "name": "BlockedBySet",
      "type": "event"
    },
    {
      "anonymous": false,
      "inputs": [
        {
          "indexed": false,
          "internalType": "uint256",
          "name": "electabilityThreshold",
          "type": "uint256"
        }
      ],
      "name": "ElectabilityThresholdSet",
      "type": "event"
    },
    {
      "anonymous": false,
      "inputs": [
        {
          "indexed": false,
          "internalType": "uint256",
          "name": "min",
          "type": "uint256"
        },
        {
          "indexed": false,
          "internalType": "uint256",
          "name": "max",
          "type": "uint256"
        }
      ],
      "name": "ElectableValidatorsSet",
      "type": "event"
    },
    {
      "anonymous": false,
      "inputs": [
        {
          "indexed": true,
          "internalType": "address",
          "name": "group",
          "type": "address"
        },
        {
          "indexed": false,
          "internalType": "uint256",
          "name": "value",
          "type": "uint256"
        }
      ],
      "name": "EpochRewardsDistributedToVoters",
      "type": "event"
    },
    {
      "anonymous": false,
      "inputs": [
        {
          "indexed": false,
          "internalType": "uint256",
          "name": "maxNumGroupsVotedFor",
          "type": "uint256"
        }
      ],
      "name": "MaxNumGroupsVotedForSet",
      "type": "event"
    },
    {
      "anonymous": false,
      "inputs": [
        {
          "indexed": true,
          "internalType": "address",
          "name": "previousOwner",
          "type": "address"
        },
        {
          "indexed": true,
          "internalType": "address",
          "name": "newOwner",
          "type": "address"
        }
      ],
      "name": "OwnershipTransferred",
      "type": "event"
    },
    {
      "anonymous": false,
      "inputs": [
        {
          "indexed": true,
          "internalType": "address",
          "name": "registryAddress",
          "type": "address"
        }
      ],
      "name": "RegistrySet",
      "type": "event"
    },
    {
      "anonymous": false,
      "inputs": [
        {
          "indexed": true,
          "internalType": "address",
          "name": "account",
          "type": "address"
        },
        {
          "indexed": true,
          "internalType": "address",
          "name": "group",
          "type": "address"
        },
        {
          "indexed": false,
          "internalType": "uint256",
          "name": "value",
          "type": "uint256"
        },
        {
          "indexed": false,
          "internalType": "uint256",
          "name": "units",
          "type": "uint256"
        }
      ],
      "name": "ValidatorGroupActiveVoteRevoked",
      "type": "event"
    },
    {
      "anonymous": false,
      "inputs": [
        {
          "indexed": true,
          "internalType": "address",
          "name": "group",
          "type": "address"
        }
      ],
      "name": "ValidatorGroupMarkedEligible",
      "type": "event"
    },
    {
      "anonymous": false,
      "inputs": [
        {
          "indexed": true,
          "internalType": "address",
          "name": "group",
          "type": "address"
        }
      ],
      "name": "ValidatorGroupMarkedIneligible",
      "type": "event"
    },
    {
      "anonymous": false,
      "inputs": [
        {
          "indexed": true,
          "internalType": "address",
          "name": "account",
          "type": "address"
        },
        {
          "indexed": true,
          "internalType": "address",
          "name": "group",
          "type": "address"
        },
        {
          "indexed": false,
          "internalType": "uint256",
          "name": "value",
          "type": "uint256"
        }
      ],
      "name": "ValidatorGroupPendingVoteRevoked",
      "type": "event"
    },
    {
      "anonymous": false,
      "inputs": [
        {
          "indexed": true,
          "internalType": "address",
          "name": "account",
          "type": "address"
        },
        {
          "indexed": true,
          "internalType": "address",
          "name": "group",
          "type": "address"
        },
        {
          "indexed": false,
          "internalType": "uint256",
          "name": "value",
          "type": "uint256"
        },
        {
          "indexed": false,
          "internalType": "uint256",
          "name": "units",
          "type": "uint256"
        }
      ],
      "name": "ValidatorGroupVoteActivated",
      "type": "event"
    },
    {
      "anonymous": false,
      "inputs": [
        {
          "indexed": true,
          "internalType": "address",
          "name": "account",
          "type": "address"
        },
        {
          "indexed": true,
          "internalType": "address",
          "name": "group",
          "type": "address"
        },
        {
          "indexed": false,
          "internalType": "uint256",
          "name": "value",
          "type": "uint256"
        }
      ],
      "name": "ValidatorGroupVoteCast",
      "type": "event"
    },
    {
      "constant": false,
      "inputs": [
        {
          "internalType": "address",
          "name": "group",
          "type": "address"
        }
      ],
      "name": "activate",
      "outputs": [
        {
          "internalType": "bool",
          "name": "",
          "type": "bool"
        }
      ],
      "payable": false,
      "stateMutability": "nonpayable",
      "type": "function"
    },
    {
      "constant": false,
      "inputs": [
        {
          "internalType": "address",
          "name": "group",
          "type": "address"
        },
        {
          "internalType": "address",
          "name": "account",
          "type": "address"
        }
      ],
      "name": "activateForAccount",
      "outputs": [
        {
          "internalType": "bool",
          "name": "",
          "type": "bool"
        }
      ],
      "payable": false,
      "stateMutability": "nonpayable",
      "type": "function"
    },
    {
      "constant": true,
      "inputs": [
        {
          "internalType": "address",
          "name": "",
          "type": "address"
        }
      ],
      "name": "allowedToVoteOverMaxNumberOfGroups",
      "outputs": [
        {
          "internalType": "bool",
          "name": "",
          "type": "bool"
        }
      ],
      "payable": false,
      "stateMutability": "view",
      "type": "function"
    },
    {
      "constant": true,
      "inputs": [
        {
          "internalType": "address",
          "name": "",
          "type": "address"
        }
      ],
      "name": "cachedVotesByAccount",
      "outputs": [
        {
          "internalType": "uint256",
          "name": "totalVotes",
          "type": "uint256"
        }
      ],
      "payable": false,
      "stateMutability": "view",
      "type": "function"
    },
    {
      "constant": true,
      "inputs": [
        {
          "internalType": "address",
          "name": "group",
          "type": "address"
        },
        {
          "internalType": "uint256",
          "name": "value",
          "type": "uint256"
        }
      ],
      "name": "canReceiveVotes",
      "outputs": [
        {
          "internalType": "bool",
          "name": "",
          "type": "bool"
        }
      ],
      "payable": false,
      "stateMutability": "view",
      "type": "function"
    },
    {
      "constant": true,
      "inputs": [
        {
          "internalType": "address",
          "name": "sender",
          "type": "address"
        },
        {
          "internalType": "bytes",
          "name": "blsKey",
          "type": "bytes"
        },
        {
          "internalType": "bytes",
          "name": "blsPop",
          "type": "bytes"
        }
      ],
      "name": "checkProofOfPossession",
      "outputs": [
        {
          "internalType": "bool",
          "name": "",
          "type": "bool"
        }
      ],
      "payable": false,
      "stateMutability": "view",
      "type": "function"
    },
    {
      "constant": true,
      "inputs": [
        {
          "internalType": "uint256",
          "name": "minElectableValidators",
          "type": "uint256"
        },
        {
          "internalType": "uint256",
          "name": "maxElectableValidators",
          "type": "uint256"
        }
      ],
      "name": "electNValidatorAccounts",
      "outputs": [
        {
          "internalType": "address[]",
          "name": "",
          "type": "address[]"
        }
      ],
      "payable": false,
      "stateMutability": "view",
      "type": "function"
    },
    {
      "constant": true,
      "inputs": [
        {
          "internalType": "uint256",
          "name": "minElectableValidators",
          "type": "uint256"
        },
        {
          "internalType": "uint256",
          "name": "maxElectableValidators",
          "type": "uint256"
        }
      ],
      "name": "electNValidatorSigners",
      "outputs": [
        {
          "internalType": "address[]",
          "name": "",
          "type": "address[]"
        }
      ],
      "payable": false,
      "stateMutability": "view",
      "type": "function"
    },
    {
      "constant": true,
      "inputs": [],
      "name": "electValidatorAccounts",
      "outputs": [
        {
          "internalType": "address[]",
          "name": "",
          "type": "address[]"
        }
      ],
      "payable": false,
      "stateMutability": "view",
      "type": "function"
    },
    {
      "constant": true,
      "inputs": [],
      "name": "electValidatorSigners",
      "outputs": [
        {
          "internalType": "address[]",
          "name": "",
          "type": "address[]"
        }
      ],
      "payable": false,
      "stateMutability": "view",
      "type": "function"
    },
    {
      "constant": true,
      "inputs": [],
      "name": "electabilityThreshold",
      "outputs": [
        {
          "internalType": "uint256",
          "name": "value",
          "type": "uint256"
        }
      ],
      "payable": false,
      "stateMutability": "view",
      "type": "function"
    },
    {
      "constant": true,
      "inputs": [],
      "name": "electableValidators",
      "outputs": [
        {
          "internalType": "uint256",
          "name": "min",
          "type": "uint256"
        },
        {
          "internalType": "uint256",
          "name": "max",
          "type": "uint256"
        }
      ],
      "payable": false,
      "stateMutability": "view",
      "type": "function"
    },
    {
      "constant": false,
      "inputs": [
        {
          "internalType": "address",
          "name": "account",
          "type": "address"
        },
        {
          "internalType": "uint256",
          "name": "value",
          "type": "uint256"
        },
        {
          "internalType": "address[]",
          "name": "lessers",
          "type": "address[]"
        },
        {
          "internalType": "address[]",
          "name": "greaters",
          "type": "address[]"
        },
        {
          "internalType": "uint256[]",
          "name": "indices",
          "type": "uint256[]"
        }
      ],
      "name": "forceDecrementVotes",
      "outputs": [
        {
          "internalType": "uint256",
          "name": "",
          "type": "uint256"
        }
      ],
      "payable": false,
      "stateMutability": "nonpayable",
      "type": "function"
    },
    {
      "constant": true,
      "inputs": [
        {
          "internalType": "uint256",
          "name": "aNumerator",
          "type": "uint256"
        },
        {
          "internalType": "uint256",
          "name": "aDenominator",
          "type": "uint256"
        },
        {
          "internalType": "uint256",
          "name": "bNumerator",
          "type": "uint256"
        },
        {
          "internalType": "uint256",
          "name": "bDenominator",
          "type": "uint256"
        },
        {
          "internalType": "uint256",
          "name": "exponent",
          "type": "uint256"
        },
        {
          "internalType": "uint256",
          "name": "_decimals",
          "type": "uint256"
        }
      ],
      "name": "fractionMulExp",
      "outputs": [
        {
          "internalType": "uint256",
          "name": "",
          "type": "uint256"
        },
        {
          "internalType": "uint256",
          "name": "",
          "type": "uint256"
        }
      ],
      "payable": false,
      "stateMutability": "view",
      "type": "function"
    },
    {
      "constant": true,
      "inputs": [
        {
          "internalType": "address",
          "name": "group",
          "type": "address"
        }
      ],
      "name": "getActiveVoteUnitsForGroup",
      "outputs": [
        {
          "internalType": "uint256",
          "name": "",
          "type": "uint256"
        }
      ],
      "payable": false,
      "stateMutability": "view",
      "type": "function"
    },
    {
      "constant": true,
      "inputs": [
        {
          "internalType": "address",
          "name": "group",
          "type": "address"
        },
        {
          "internalType": "address",
          "name": "account",
          "type": "address"
        }
      ],
      "name": "getActiveVoteUnitsForGroupByAccount",
      "outputs": [
        {
          "internalType": "uint256",
          "name": "",
          "type": "uint256"
        }
      ],
      "payable": false,
      "stateMutability": "view",
      "type": "function"
    },
    {
      "constant": true,
      "inputs": [],
      "name": "getActiveVotes",
      "outputs": [
        {
          "internalType": "uint256",
          "name": "",
          "type": "uint256"
        }
      ],
      "payable": false,
      "stateMutability": "view",
      "type": "function"
    },
    {
      "constant": true,
      "inputs": [
        {
          "internalType": "address",
          "name": "group",
          "type": "address"
        }
      ],
      "name": "getActiveVotesForGroup",
      "outputs": [
        {
          "internalType": "uint256",
          "name": "",
          "type": "uint256"
        }
      ],
      "payable": false,
      "stateMutability": "view",
      "type": "function"
    },
    {
      "constant": true,
      "inputs": [
        {
          "internalType": "address",
          "name": "group",
          "type": "address"
        },
        {
          "internalType": "address",
          "name": "account",
          "type": "address"
        }
      ],
      "name": "getActiveVotesForGroupByAccount",
      "outputs": [
        {
          "internalType": "uint256",
          "name": "",
          "type": "uint256"
        }
      ],
      "payable": false,
      "stateMutability": "view",
      "type": "function"
    },
    {
      "constant": true,
      "inputs": [
        {
          "internalType": "bytes",
          "name": "header",
          "type": "bytes"
        }
      ],
      "name": "getBlockNumberFromHeader",
      "outputs": [
        {
          "internalType": "uint256",
          "name": "",
          "type": "uint256"
        }
      ],
      "payable": false,
      "stateMutability": "view",
      "type": "function"
    },
    {
      "constant": true,
      "inputs": [],
      "name": "getBlockedByContract",
      "outputs": [
        {
          "internalType": "address",
          "name": "blockedBy",
          "type": "address"
        }
      ],
      "payable": false,
      "stateMutability": "view",
      "type": "function"
    },
    {
      "constant": true,
      "inputs": [],
      "name": "getCurrentValidatorSigners",
      "outputs": [
        {
          "internalType": "address[]",
          "name": "",
          "type": "address[]"
        }
      ],
      "payable": false,
      "stateMutability": "view",
      "type": "function"
    },
    {
      "constant": true,
      "inputs": [],
      "name": "getElectabilityThreshold",
      "outputs": [
        {
          "internalType": "uint256",
          "name": "",
          "type": "uint256"
        }
      ],
      "payable": false,
      "stateMutability": "view",
      "type": "function"
    },
    {
      "constant": true,
      "inputs": [],
      "name": "getElectableValidators",
      "outputs": [
        {
          "internalType": "uint256",
          "name": "",
          "type": "uint256"
        },
        {
          "internalType": "uint256",
          "name": "",
          "type": "uint256"
        }
      ],
      "payable": false,
      "stateMutability": "view",
      "type": "function"
    },
    {
      "constant": true,
      "inputs": [],
      "name": "getEligibleValidatorGroups",
      "outputs": [
        {
          "internalType": "address[]",
          "name": "",
          "type": "address[]"
        }
      ],
      "payable": false,
      "stateMutability": "view",
      "type": "function"
    },
    {
      "constant": true,
      "inputs": [],
      "name": "getEpochNumber",
      "outputs": [
        {
          "internalType": "uint256",
          "name": "",
          "type": "uint256"
        }
      ],
      "payable": false,
      "stateMutability": "view",
      "type": "function"
    },
    {
      "constant": true,
      "inputs": [
        {
          "internalType": "uint256",
          "name": "blockNumber",
          "type": "uint256"
        }
      ],
      "name": "getEpochNumberOfBlock",
      "outputs": [
        {
          "internalType": "uint256",
          "name": "",
          "type": "uint256"
        }
      ],
      "payable": false,
      "stateMutability": "view",
      "type": "function"
    },
    {
      "constant": true,
      "inputs": [],
      "name": "getEpochSize",
      "outputs": [
        {
          "internalType": "uint256",
          "name": "",
          "type": "uint256"
        }
      ],
      "payable": false,
      "stateMutability": "view",
      "type": "function"
    },
    {
      "constant": true,
      "inputs": [
        {
          "internalType": "address",
          "name": "group",
          "type": "address"
        }
      ],
      "name": "getGroupEligibility",
      "outputs": [
        {
          "internalType": "bool",
          "name": "",
          "type": "bool"
        }
      ],
      "payable": false,
      "stateMutability": "view",
      "type": "function"
    },
    {
      "constant": true,
      "inputs": [
        {
          "internalType": "address",
          "name": "group",
          "type": "address"
        },
        {
          "internalType": "uint256",
          "name": "totalEpochRewards",
          "type": "uint256"
        },
        {
          "internalType": "uint256[]",
          "name": "uptimes",
          "type": "uint256[]"
        }
      ],
      "name": "getGroupEpochRewards",
      "outputs": [
        {
          "internalType": "uint256",
          "name": "",
          "type": "uint256"
        }
      ],
      "payable": false,
      "stateMutability": "view",
      "type": "function"
    },
    {
      "constant": true,
      "inputs": [
        {
          "internalType": "address",
          "name": "group",
          "type": "address"
        },
        {
          "internalType": "uint256",
          "name": "totalEpochRewards",
          "type": "uint256"
        },
        {
          "internalType": "uint256",
          "name": "groupScore",
          "type": "uint256"
        }
      ],
      "name": "getGroupEpochRewardsBasedOnScore",
      "outputs": [
        {
          "internalType": "uint256",
          "name": "",
          "type": "uint256"
        }
      ],
      "payable": false,
      "stateMutability": "view",
      "type": "function"
    },
    {
      "constant": true,
      "inputs": [
        {
          "internalType": "address",
          "name": "account",
          "type": "address"
        }
      ],
      "name": "getGroupsVotedForByAccount",
      "outputs": [
        {
          "internalType": "address[]",
          "name": "",
          "type": "address[]"
        }
      ],
      "payable": false,
      "stateMutability": "view",
      "type": "function"
    },
    {
      "constant": true,
      "inputs": [
        {
          "internalType": "address",
          "name": "group",
          "type": "address"
        }
      ],
      "name": "getNumVotesReceivable",
      "outputs": [
        {
          "internalType": "uint256",
          "name": "",
          "type": "uint256"
        }
      ],
      "payable": false,
      "stateMutability": "view",
      "type": "function"
    },
    {
      "constant": true,
      "inputs": [
        {
          "internalType": "uint256",
          "name": "blockNumber",
          "type": "uint256"
        }
      ],
      "name": "getParentSealBitmap",
      "outputs": [
        {
          "internalType": "bytes32",
          "name": "",
          "type": "bytes32"
        }
      ],
      "payable": false,
      "stateMutability": "view",
      "type": "function"
    },
    {
      "constant": true,
      "inputs": [
        {
          "internalType": "address",
          "name": "group",
          "type": "address"
        }
      ],
      "name": "getPendingVotesForGroup",
      "outputs": [
        {
          "internalType": "uint256",
          "name": "",
          "type": "uint256"
        }
      ],
      "payable": false,
      "stateMutability": "view",
      "type": "function"
    },
    {
      "constant": true,
      "inputs": [
        {
          "internalType": "address",
          "name": "group",
          "type": "address"
        },
        {
          "internalType": "address",
          "name": "account",
          "type": "address"
        }
      ],
      "name": "getPendingVotesForGroupByAccount",
      "outputs": [
        {
          "internalType": "uint256",
          "name": "",
          "type": "uint256"
        }
      ],
      "payable": false,
      "stateMutability": "view",
      "type": "function"
    },
    {
      "constant": true,
      "inputs": [],
      "name": "getTotalVotes",
      "outputs": [
        {
          "internalType": "uint256",
          "name": "",
          "type": "uint256"
        }
      ],
      "payable": false,
      "stateMutability": "view",
      "type": "function"
    },
    {
      "constant": true,
      "inputs": [
        {
          "internalType": "address",
          "name": "account",
          "type": "address"
        }
      ],
      "name": "getTotalVotesByAccount",
      "outputs": [
        {
          "internalType": "uint256",
          "name": "",
          "type": "uint256"
        }
      ],
      "payable": false,
      "stateMutability": "view",
      "type": "function"
    },
    {
      "constant": true,
      "inputs": [],
      "name": "getTotalVotesForEligibleValidatorGroups",
      "outputs": [
        {
          "internalType": "address[]",
          "name": "groups",
          "type": "address[]"
        },
        {
          "internalType": "uint256[]",
          "name": "values",
          "type": "uint256[]"
        }
      ],
      "payable": false,
      "stateMutability": "view",
      "type": "function"
    },
    {
      "constant": true,
      "inputs": [
        {
          "internalType": "address",
          "name": "group",
          "type": "address"
        }
      ],
      "name": "getTotalVotesForGroup",
      "outputs": [
        {
          "internalType": "uint256",
          "name": "",
          "type": "uint256"
        }
      ],
      "payable": false,
      "stateMutability": "view",
      "type": "function"
    },
    {
      "constant": true,
      "inputs": [
        {
          "internalType": "address",
          "name": "group",
          "type": "address"
        },
        {
          "internalType": "address",
          "name": "account",
          "type": "address"
        }
      ],
      "name": "getTotalVotesForGroupByAccount",
      "outputs": [
        {
          "internalType": "uint256",
          "name": "",
          "type": "uint256"
        }
      ],
      "payable": false,
      "stateMutability": "view",
      "type": "function"
    },
    {
      "constant": true,
      "inputs": [
        {
          "internalType": "bytes",
          "name": "header",
          "type": "bytes"
        }
      ],
      "name": "getVerifiedSealBitmapFromHeader",
      "outputs": [
        {
          "internalType": "bytes32",
          "name": "",
          "type": "bytes32"
        }
      ],
      "payable": false,
      "stateMutability": "view",
      "type": "function"
    },
    {
      "constant": true,
      "inputs": [],
      "name": "getVersionNumber",
      "outputs": [
        {
          "internalType": "uint256",
          "name": "",
          "type": "uint256"
        },
        {
          "internalType": "uint256",
          "name": "",
          "type": "uint256"
        },
        {
          "internalType": "uint256",
          "name": "",
          "type": "uint256"
        },
        {
          "internalType": "uint256",
          "name": "",
          "type": "uint256"
        }
      ],
      "payable": false,
      "stateMutability": "pure",
      "type": "function"
    },
    {
      "constant": true,
      "inputs": [
        {
          "internalType": "address",
          "name": "account",
          "type": "address"
        },
        {
          "internalType": "address",
          "name": "group",
          "type": "address"
        }
      ],
      "name": "hasActivatablePendingVotes",
      "outputs": [
        {
          "internalType": "bool",
          "name": "",
          "type": "bool"
        }
      ],
      "payable": false,
      "stateMutability": "view",
      "type": "function"
    },
    {
      "constant": true,
      "inputs": [
        {
          "internalType": "bytes",
          "name": "header",
          "type": "bytes"
        }
      ],
      "name": "hashHeader",
      "outputs": [
        {
          "internalType": "bytes32",
          "name": "",
          "type": "bytes32"
        }
      ],
      "payable": false,
      "stateMutability": "view",
      "type": "function"
    },
    {
      "constant": false,
      "inputs": [
        {
          "internalType": "address",
          "name": "registryAddress",
          "type": "address"
        },
        {
          "internalType": "uint256",
          "name": "minElectableValidators",
          "type": "uint256"
        },
        {
          "internalType": "uint256",
          "name": "maxElectableValidators",
          "type": "uint256"
        },
        {
          "internalType": "uint256",
          "name": "_maxNumGroupsVotedFor",
          "type": "uint256"
        },
        {
          "internalType": "uint256",
          "name": "_electabilityThreshold",
          "type": "uint256"
        }
      ],
      "name": "initialize",
      "outputs": [],
      "payable": false,
      "stateMutability": "nonpayable",
      "type": "function"
    },
    {
      "constant": true,
      "inputs": [],
      "name": "initialized",
      "outputs": [
        {
          "internalType": "bool",
          "name": "",
          "type": "bool"
        }
      ],
      "payable": false,
      "stateMutability": "view",
      "type": "function"
    },
    {
      "constant": true,
      "inputs": [],
      "name": "isBlocked",
      "outputs": [
        {
          "internalType": "bool",
          "name": "",
          "type": "bool"
        }
      ],
      "payable": false,
      "stateMutability": "view",
      "type": "function"
    },
    {
      "constant": true,
      "inputs": [],
      "name": "isOwner",
      "outputs": [
        {
          "internalType": "bool",
          "name": "",
          "type": "bool"
        }
      ],
      "payable": false,
      "stateMutability": "view",
      "type": "function"
    },
    {
      "constant": false,
      "inputs": [
        {
          "internalType": "address",
          "name": "group",
          "type": "address"
        },
        {
          "internalType": "address",
          "name": "lesser",
          "type": "address"
        },
        {
          "internalType": "address",
          "name": "greater",
          "type": "address"
        }
      ],
      "name": "markGroupEligible",
      "outputs": [],
      "payable": false,
      "stateMutability": "nonpayable",
      "type": "function"
    },
    {
      "constant": false,
      "inputs": [
        {
          "internalType": "address",
          "name": "group",
          "type": "address"
        }
      ],
      "name": "markGroupIneligible",
      "outputs": [],
      "payable": false,
      "stateMutability": "nonpayable",
      "type": "function"
    },
    {
      "constant": true,
      "inputs": [],
      "name": "maxNumGroupsVotedFor",
      "outputs": [
        {
          "internalType": "uint256",
          "name": "",
          "type": "uint256"
        }
      ],
      "payable": false,
      "stateMutability": "view",
      "type": "function"
    },
    {
      "constant": true,
      "inputs": [
        {
          "internalType": "uint256",
          "name": "blockNumber",
          "type": "uint256"
        }
      ],
      "name": "minQuorumSize",
      "outputs": [
        {
          "internalType": "uint256",
          "name": "",
          "type": "uint256"
        }
      ],
      "payable": false,
      "stateMutability": "view",
      "type": "function"
    },
    {
      "constant": true,
      "inputs": [],
      "name": "minQuorumSizeInCurrentSet",
      "outputs": [
        {
          "internalType": "uint256",
          "name": "",
          "type": "uint256"
        }
      ],
      "payable": false,
      "stateMutability": "view",
      "type": "function"
    },
    {
      "constant": true,
      "inputs": [],
      "name": "numberValidatorsInCurrentSet",
      "outputs": [
        {
          "internalType": "uint256",
          "name": "",
          "type": "uint256"
        }
      ],
      "payable": false,
      "stateMutability": "view",
      "type": "function"
    },
    {
      "constant": true,
      "inputs": [
        {
          "internalType": "uint256",
          "name": "blockNumber",
          "type": "uint256"
        }
      ],
      "name": "numberValidatorsInSet",
      "outputs": [
        {
          "internalType": "uint256",
          "name": "",
          "type": "uint256"
        }
      ],
      "payable": false,
      "stateMutability": "view",
      "type": "function"
    },
    {
      "constant": true,
      "inputs": [],
      "name": "owner",
      "outputs": [
        {
          "internalType": "address",
          "name": "",
          "type": "address"
        }
      ],
      "payable": false,
      "stateMutability": "view",
      "type": "function"
    },
    {
      "constant": true,
      "inputs": [],
      "name": "registry",
      "outputs": [
        {
          "internalType": "contract IRegistry",
          "name": "",
          "type": "address"
        }
      ],
      "payable": false,
      "stateMutability": "view",
      "type": "function"
    },
    {
      "constant": false,
      "inputs": [],
      "name": "renounceOwnership",
      "outputs": [],
      "payable": false,
      "stateMutability": "nonpayable",
      "type": "function"
    },
    {
      "constant": false,
      "inputs": [
        {
          "internalType": "address",
          "name": "group",
          "type": "address"
        },
        {
          "internalType": "uint256",
          "name": "value",
          "type": "uint256"
        },
        {
          "internalType": "address",
          "name": "lesser",
          "type": "address"
        },
        {
          "internalType": "address",
          "name": "greater",
          "type": "address"
        },
        {
          "internalType": "uint256",
          "name": "index",
          "type": "uint256"
        }
      ],
      "name": "revokeActive",
      "outputs": [
        {
          "internalType": "bool",
          "name": "",
          "type": "bool"
        }
      ],
      "payable": false,
      "stateMutability": "nonpayable",
      "type": "function"
    },
    {
      "constant": false,
      "inputs": [
        {
          "internalType": "address",
          "name": "group",
          "type": "address"
        },
        {
          "internalType": "address",
          "name": "lesser",
          "type": "address"
        },
        {
          "internalType": "address",
          "name": "greater",
          "type": "address"
        },
        {
          "internalType": "uint256",
          "name": "index",
          "type": "uint256"
        }
      ],
      "name": "revokeAllActive",
      "outputs": [
        {
          "internalType": "bool",
          "name": "",
          "type": "bool"
        }
      ],
      "payable": false,
      "stateMutability": "nonpayable",
      "type": "function"
    },
    {
      "constant": false,
      "inputs": [
        {
          "internalType": "address",
          "name": "group",
          "type": "address"
        },
        {
          "internalType": "uint256",
          "name": "value",
          "type": "uint256"
        },
        {
          "internalType": "address",
          "name": "lesser",
          "type": "address"
        },
        {
          "internalType": "address",
          "name": "greater",
          "type": "address"
        },
        {
          "internalType": "uint256",
          "name": "index",
          "type": "uint256"
        }
      ],
      "name": "revokePending",
      "outputs": [
        {
          "internalType": "bool",
          "name": "",
          "type": "bool"
        }
      ],
      "payable": false,
      "stateMutability": "nonpayable",
      "type": "function"
    },
    {
      "constant": false,
      "inputs": [
        {
          "internalType": "bool",
          "name": "flag",
          "type": "bool"
        }
      ],
      "name": "setAllowedToVoteOverMaxNumberOfGroups",
      "outputs": [],
      "payable": false,
      "stateMutability": "nonpayable",
      "type": "function"
    },
    {
      "constant": false,
      "inputs": [
        {
          "internalType": "address",
          "name": "_blockedBy",
          "type": "address"
        }
      ],
      "name": "setBlockedByContract",
      "outputs": [],
      "payable": false,
      "stateMutability": "nonpayable",
      "type": "function"
    },
    {
      "constant": false,
      "inputs": [
        {
          "internalType": "uint256",
          "name": "threshold",
          "type": "uint256"
        }
      ],
      "name": "setElectabilityThreshold",
      "outputs": [
        {
          "internalType": "bool",
          "name": "",
          "type": "bool"
        }
      ],
      "payable": false,
      "stateMutability": "nonpayable",
      "type": "function"
    },
    {
      "constant": false,
      "inputs": [
        {
          "internalType": "uint256",
          "name": "min",
          "type": "uint256"
        },
        {
          "internalType": "uint256",
          "name": "max",
          "type": "uint256"
        }
      ],
      "name": "setElectableValidators",
      "outputs": [
        {
          "internalType": "bool",
          "name": "",
          "type": "bool"
        }
      ],
      "payable": false,
      "stateMutability": "nonpayable",
      "type": "function"
    },
    {
      "constant": false,
      "inputs": [
        {
          "internalType": "uint256",
          "name": "_maxNumGroupsVotedFor",
          "type": "uint256"
        }
      ],
      "name": "setMaxNumGroupsVotedFor",
      "outputs": [
        {
          "internalType": "bool",
          "name": "",
          "type": "bool"
        }
      ],
      "payable": false,
      "stateMutability": "nonpayable",
      "type": "function"
    },
    {
      "constant": false,
      "inputs": [
        {
          "internalType": "address",
          "name": "registryAddress",
          "type": "address"
        }
      ],
      "name": "setRegistry",
      "outputs": [],
      "payable": false,
      "stateMutability": "nonpayable",
      "type": "function"
    },
    {
      "constant": false,
      "inputs": [
        {
          "internalType": "address",
          "name": "newOwner",
          "type": "address"
        }
      ],
      "name": "transferOwnership",
      "outputs": [],
      "payable": false,
      "stateMutability": "nonpayable",
      "type": "function"
    },
    {
      "constant": false,
      "inputs": [
        {
          "internalType": "address",
          "name": "account",
          "type": "address"
        },
        {
          "internalType": "address",
          "name": "group",
          "type": "address"
        }
      ],
      "name": "updateTotalVotesByAccountForGroup",
      "outputs": [],
      "payable": false,
      "stateMutability": "nonpayable",
      "type": "function"
    },
    {
      "constant": true,
      "inputs": [
        {
          "internalType": "uint256",
          "name": "index",
          "type": "uint256"
        }
      ],
      "name": "validatorAddressFromCurrentSet",
      "outputs": [
        {
          "internalType": "address",
          "name": "",
          "type": "address"
        }
      ],
      "payable": false,
      "stateMutability": "view",
      "type": "function"
    },
    {
      "constant": true,
      "inputs": [
        {
          "internalType": "uint256",
          "name": "index",
          "type": "uint256"
        }
      ],
      "name": "validatorSignerAddressFromCurrentSet",
      "outputs": [
        {
          "internalType": "address",
          "name": "",
          "type": "address"
        }
      ],
      "payable": false,
      "stateMutability": "view",
      "type": "function"
    },
    {
      "constant": true,
      "inputs": [
        {
          "internalType": "uint256",
          "name": "index",
          "type": "uint256"
        },
        {
          "internalType": "uint256",
          "name": "blockNumber",
          "type": "uint256"
        }
      ],
      "name": "validatorSignerAddressFromSet",
      "outputs": [
        {
          "internalType": "address",
          "name": "",
          "type": "address"
        }
      ],
      "payable": false,
      "stateMutability": "view",
      "type": "function"
    },
    {
      "constant": false,
      "inputs": [
        {
          "internalType": "address",
          "name": "group",
          "type": "address"
        },
        {
          "internalType": "uint256",
          "name": "value",
          "type": "uint256"
        },
        {
          "internalType": "address",
          "name": "lesser",
          "type": "address"
        },
        {
          "internalType": "address",
          "name": "greater",
          "type": "address"
        }
      ],
      "name": "vote",
      "outputs": [
        {
          "internalType": "bool",
          "name": "",
          "type": "bool"
        }
      ],
      "payable": false,
      "stateMutability": "nonpayable",
      "type": "function"
    },
    {
      "constant": false,
      "inputs": [
        {
          "internalType": "address",
          "name": "group",
          "type": "address"
        },
        {
          "internalType": "uint256",
          "name": "value",
          "type": "uint256"
        },
        {
          "internalType": "address",
          "name": "lesser",
          "type": "address"
        },
        {
          "internalType": "address",
          "name": "greater",
          "type": "address"
        }
      ],
      "name": "distributeEpochRewards",
      "outputs": [],
      "payable": false,
      "stateMutability": "nonpayable",
      "type": "function"
    }
  ],
  "bytecode": "0x6080604052600180600062000019620000e860201b60201c565b9050806000806101000a81548173ffffffffffffffffffffffffffffffffffffffff021916908373ffffffffffffffffffffffffffffffffffffffff1602179055508073ffffffffffffffffffffffffffffffffffffffff16600073ffffffffffffffffffffffffffffffffffffffff167f8be0079c531659141344cd1fd0a4f28419497f9722a3daafe3b4186f6b6457e060405160405180910390a3506001808190555080620000e0576001600260006101000a81548160ff0219169083151502179055505b5050620000f0565b600033905090565b61bd4d80620001006000396000f3fe608060405234801561001057600080fd5b50600436106104495760003560e01c80638c66677511610241578063c14470c41161013b578063e50e652d116100c3578063f911f0b711610087578063f911f0b71461206b578063f92ad219146120bb578063f9d7daae14612127578063f9f41a7a1461214c578063fae8db0a1461217157610449565b8063e50e652d14611e4d578063e59ea3e814611e8f578063ec68307214611ef5578063f23263f914611f70578063f2fde38b1461202757610449565b8063d52758aa1161010a578063d52758aa14611cdf578063d75f0da714611d0f578063dedafeae14611d31578063df4da46114611d89578063e0a2ab5214611da757610449565b8063c14470c414611b37578063cb08c99314611bb3578063d190d58014611c0f578063d3e242a414611c6757610449565b80639b2b592f116101c9578063a5826ab21161018d578063a5826ab214611a14578063a8e4587114611a73578063a91ee0dc14611ab7578063ac839d6914611afb578063bdd1431814611b1957610449565b80639b2b592f146117ae5780639b95975f146117f05780639dfb608114611868578063a18fb2db14611918578063a2fb4ddf1461199c57610449565b806390a4dd5c1161021057806390a4dd5c14611635578063926d00ca146116c257806395128ce31461171a5780639a0e7d66146117725780639a7b3be71461179057610449565b80638c6667751461140c5780638da5cb5b146114685780638ef01def146114b25780638f32d59b1461161357610449565b8063457578a31161035257806364b730dc116102da578063715018a61161029e578063715018a6146112ad5780637385e5da146112b75780637b103999146112d557806387ee8a0f1461131f5780638a8836261461133d57610449565b806364b730dc14610fe557806367960e911461102f5780636c781a2c146110fe5780636e198475146111565780637046c96b1461120657610449565b8063580d747a11610321578063580d747a14610dca5780635bb5acfb14610e705780635d180adb14610ec857806361a6b50614610f40578063631db7e714610f9f57610449565b8063457578a314610c115780634b2c2f4414610caa5780634be8843b14610d7957806354255be014610d9757610449565b8063263ecf74116103d557806338617272116103a45780633861727214610a6e5780633b1eb4bf14610ae65780633c55a73c14610b2857806343e93f3814610b6e578063448144c814610bb257610449565b8063263ecf74146108d75780632ba38e69146109535780632c3b7916146109b257806335a8376b14610a0a57610449565b8063144b0a451161041c578063144b0a4514610624578063158ef93e146106b15780631c5a9d9c146106d35780631f6042431461072f57806323f0ab651461074d57610449565b806311fb9e841461044e57806312005c80146104bc578063123633ea1461052857806312541a6b14610596575b600080fd5b61047a6004803603602081101561046457600080fd5b81019080803590602001909291905050506121b3565b604051808273ffffffffffffffffffffffffffffffffffffffff1673ffffffffffffffffffffffffffffffffffffffff16815260200191505060405180910390f35b610512600480360360608110156104d257600080fd5b81019080803573ffffffffffffffffffffffffffffffffffffffff16906020019092919080359060200190929190803590602001909291905050506122ac565b6040518082815260200191505060405180910390f35b6105546004803603602081101561053e57600080fd5b8101908080359060200190929190505050612589565b604051808273ffffffffffffffffffffffffffffffffffffffff1673ffffffffffffffffffffffffffffffffffffffff16815260200191505060405180910390f35b610622600480360360808110156105ac57600080fd5b81019080803573ffffffffffffffffffffffffffffffffffffffff16906020019092919080359060200190929190803573ffffffffffffffffffffffffffffffffffffffff169060200190929190803573ffffffffffffffffffffffffffffffffffffffff169060200190929190505050612643565b005b61065a6004803603604081101561063a57600080fd5b810190808035906020019092919080359060200190929190505050612655565b6040518080602001828103825283818151815260200191508051906020019060200280838360005b8381101561069d578082015181840152602081019050610682565b505050509050019250505060405180910390f35b6106b9612671565b604051808215151515815260200191505060405180910390f35b610715600480360360208110156106e957600080fd5b81019080803573ffffffffffffffffffffffffffffffffffffffff169060200190929190505050612684565b604051808215151515815260200191505060405180910390f35b6107376127ea565b6040518082815260200191505060405180910390f35b6108bd6004803603606081101561076357600080fd5b81019080803573ffffffffffffffffffffffffffffffffffffffff169060200190929190803590602001906401000000008111156107a057600080fd5b8201836020820111156107b257600080fd5b803590602001918460018302840111640100000000831117156107d457600080fd5b91908080601f016020809104026020016040519081016040528093929190818152602001838380828437600081840152601f19601f8201169050808301925050505050505091929192908035906020019064010000000081111561083757600080fd5b82018360208201111561084957600080fd5b8035906020019184600183028401116401000000008311171561086b57600080fd5b91908080601f016020809104026020016040519081016040528093929190818152602001838380828437600081840152601f19601f8201169050808301925050505050505091929192905050506127fa565b604051808215151515815260200191505060405180910390f35b610939600480360360408110156108ed57600080fd5b81019080803573ffffffffffffffffffffffffffffffffffffffff169060200190929190803573ffffffffffffffffffffffffffffffffffffffff1690602001909291905050506129bc565b604051808215151515815260200191505060405180910390f35b61095b612a6d565b6040518080602001828103825283818151815260200191508051906020019060200280838360005b8381101561099e578082015181840152602081019050610983565b505050509050019250505060405180910390f35b6109f4600480360360208110156109c857600080fd5b81019080803573ffffffffffffffffffffffffffffffffffffffff169060200190929190505050612a88565b6040518082815260200191505060405180910390f35b610a6c60048036036040811015610a2057600080fd5b81019080803573ffffffffffffffffffffffffffffffffffffffff169060200190929190803573ffffffffffffffffffffffffffffffffffffffff169060200190929190505050612cae565b005b610ad060048036036040811015610a8457600080fd5b81019080803573ffffffffffffffffffffffffffffffffffffffff169060200190929190803573ffffffffffffffffffffffffffffffffffffffff169060200190929190505050612e64565b6040518082815260200191505060405180910390f35b610b1260048036036020811015610afc57600080fd5b8101908080359060200190929190505050612e9e565b6040518082815260200191505060405180910390f35b610b5460048036036020811015610b3e57600080fd5b8101908080359060200190929190505050612f60565b604051808215151515815260200191505060405180910390f35b610bb060048036036020811015610b8457600080fd5b81019080803573ffffffffffffffffffffffffffffffffffffffff16906020019092919050505061309b565b005b610bba613121565b6040518080602001828103825283818151815260200191508051906020019060200280838360005b83811015610bfd578082015181840152602081019050610be2565b505050509050019250505060405180910390f35b610c5360048036036020811015610c2757600080fd5b81019080803573ffffffffffffffffffffffffffffffffffffffff1690602001909291905050506131ec565b6040518080602001828103825283818151815260200191508051906020019060200280838360005b83811015610c96578082015181840152602081019050610c7b565b505050509050019250505060405180910390f35b610d6360048036036020811015610cc057600080fd5b8101908080359060200190640100000000811115610cdd57600080fd5b820183602082011115610cef57600080fd5b80359060200191846001830284011164010000000083111715610d1157600080fd5b91908080601f016020809104026020016040519081016040528093929190818152602001838380828437600081840152601f19601f8201169050808301925050505050505091929192905050506132bc565b6040518082815260200191505060405180910390f35b610d81613458565b6040518082815260200191505060405180910390f35b610d9f613464565b6040518085815260200184815260200183815260200182815260200194505050505060405180910390f35b610e5660048036036080811015610de057600080fd5b81019080803573ffffffffffffffffffffffffffffffffffffffff16906020019092919080359060200190929190803573ffffffffffffffffffffffffffffffffffffffff169060200190929190803573ffffffffffffffffffffffffffffffffffffffff16906020019092919050505061348b565b604051808215151515815260200191505060405180910390f35b610eb260048036036020811015610e8657600080fd5b81019080803573ffffffffffffffffffffffffffffffffffffffff169060200190929190505050613bbc565b6040518082815260200191505060405180910390f35b610efe60048036036040811015610ede57600080fd5b810190808035906020019092919080359060200190929190505050613c0e565b604051808273ffffffffffffffffffffffffffffffffffffffff1673ffffffffffffffffffffffffffffffffffffffff16815260200191505060405180910390f35b610f48613d68565b6040518080602001828103825283818151815260200191508051906020019060200280838360005b83811015610f8b578082015181840152602081019050610f70565b505050509050019250505060405180910390f35b610fcb60048036036020811015610fb557600080fd5b8101908080359060200190929190505050613d83565b604051808215151515815260200191505060405180910390f35b610fed613edc565b604051808273ffffffffffffffffffffffffffffffffffffffff1673ffffffffffffffffffffffffffffffffffffffff16815260200191505060405180910390f35b6110e86004803603602081101561104557600080fd5b810190808035906020019064010000000081111561106257600080fd5b82018360208201111561107457600080fd5b8035906020019184600183028401116401000000008311171561109657600080fd5b91908080601f016020809104026020016040519081016040528093929190818152602001838380828437600081840152601f19601f820116905080830192505050505050509192919290505050613f2b565b6040518082815260200191505060405180910390f35b6111406004803603602081101561111457600080fd5b81019080803573ffffffffffffffffffffffffffffffffffffffff1690602001909291905050506140c7565b6040518082815260200191505060405180910390f35b6111ec600480360360a081101561116c57600080fd5b81019080803573ffffffffffffffffffffffffffffffffffffffff16906020019092919080359060200190929190803573ffffffffffffffffffffffffffffffffffffffff169060200190929190803573ffffffffffffffffffffffffffffffffffffffff16906020019092919080359060200190929190505050614256565b604051808215151515815260200191505060405180910390f35b61120e6142ff565b604051808060200180602001838103835285818151815260200191508051906020019060200280838360005b8381101561125557808201518184015260208101905061123a565b50505050905001838103825284818151815260200191508051906020019060200280838360005b8381101561129757808201518184015260208101905061127c565b5050505090500194505050505060405180910390f35b6112b56144ca565b005b6112bf614603565b6040518082815260200191505060405180910390f35b6112dd61461b565b604051808273ffffffffffffffffffffffffffffffffffffffff1673ffffffffffffffffffffffffffffffffffffffff16815260200191505060405180910390f35b611327614641565b6040518082815260200191505060405180910390f35b6113f66004803603602081101561135357600080fd5b810190808035906020019064010000000081111561137057600080fd5b82018360208201111561138257600080fd5b803590602001918460018302840111640100000000831117156113a457600080fd5b91908080601f016020809104026020016040519081016040528093929190818152602001838380828437600081840152601f19601f8201169050808301925050505050505091929192905050506146ed565b6040518082815260200191505060405180910390f35b61144e6004803603602081101561142257600080fd5b81019080803573ffffffffffffffffffffffffffffffffffffffff169060200190929190505050614889565b604051808215151515815260200191505060405180910390f35b611470614959565b604051808273ffffffffffffffffffffffffffffffffffffffff1673ffffffffffffffffffffffffffffffffffffffff16815260200191505060405180910390f35b6115fd600480360360a08110156114c857600080fd5b81019080803573ffffffffffffffffffffffffffffffffffffffff169060200190929190803590602001909291908035906020019064010000000081111561150f57600080fd5b82018360208201111561152157600080fd5b8035906020019184602083028401116401000000008311171561154357600080fd5b90919293919293908035906020019064010000000081111561156457600080fd5b82018360208201111561157657600080fd5b8035906020019184602083028401116401000000008311171561159857600080fd5b9091929391929390803590602001906401000000008111156115b957600080fd5b8201836020820111156115cb57600080fd5b803590602001918460208302840111640100000000831117156115ed57600080fd5b9091929391929390505050614982565b6040518082815260200191505060405180910390f35b61161b614f2c565b604051808215151515815260200191505060405180910390f35b61166b6004803603604081101561164b57600080fd5b810190808035906020019092919080359060200190929190505050614f8a565b6040518080602001828103825283818151815260200191508051906020019060200280838360005b838110156116ae578082015181840152602081019050611693565b505050509050019250505060405180910390f35b611704600480360360208110156116d857600080fd5b81019080803573ffffffffffffffffffffffffffffffffffffffff169060200190929190505050614fa5565b6040518082815260200191505060405180910390f35b61175c6004803603602081101561173057600080fd5b81019080803573ffffffffffffffffffffffffffffffffffffffff169060200190929190505050614ff7565b6040518082815260200191505060405180910390f35b61177a615049565b6040518082815260200191505060405180910390f35b611798615073565b6040518082815260200191505060405180910390f35b6117da600480360360208110156117c457600080fd5b8101908080359060200190929190505050615083565b6040518082815260200191505060405180910390f35b6118526004803603604081101561180657600080fd5b81019080803573ffffffffffffffffffffffffffffffffffffffff169060200190929190803573ffffffffffffffffffffffffffffffffffffffff1690602001909291905050506151d4565b6040518082815260200191505060405180910390f35b6118fe600480360360a081101561187e57600080fd5b81019080803573ffffffffffffffffffffffffffffffffffffffff16906020019092919080359060200190929190803573ffffffffffffffffffffffffffffffffffffffff169060200190929190803573ffffffffffffffffffffffffffffffffffffffff16906020019092919080359060200190929190505050615267565b604051808215151515815260200191505060405180910390f35b61199a6004803603606081101561192e57600080fd5b81019080803573ffffffffffffffffffffffffffffffffffffffff169060200190929190803573ffffffffffffffffffffffffffffffffffffffff169060200190929190803573ffffffffffffffffffffffffffffffffffffffff1690602001909291905050506156c6565b005b6119fe600480360360408110156119b257600080fd5b81019080803573ffffffffffffffffffffffffffffffffffffffff169060200190929190803573ffffffffffffffffffffffffffffffffffffffff1690602001909291905050506159c6565b6040518082815260200191505060405180910390f35b611a1c615a56565b6040518080602001828103825283818151815260200191508051906020019060200280838360005b83811015611a5f578082015181840152602081019050611a44565b505050509050019250505060405180910390f35b611ab560048036036020811015611a8957600080fd5b81019080803573ffffffffffffffffffffffffffffffffffffffff169060200190929190505050615b8a565b005b611af960048036036020811015611acd57600080fd5b81019080803573ffffffffffffffffffffffffffffffffffffffff169060200190929190505050615e0a565b005b611b03615fae565b6040518082815260200191505060405180910390f35b611b21615fb4565b6040518082815260200191505060405180910390f35b611b9960048036036040811015611b4d57600080fd5b81019080803573ffffffffffffffffffffffffffffffffffffffff169060200190929190803573ffffffffffffffffffffffffffffffffffffffff169060200190929190505050615fda565b604051808215151515815260200191505060405180910390f35b611bf560048036036020811015611bc957600080fd5b81019080803573ffffffffffffffffffffffffffffffffffffffff16906020019092919050505061607d565b604051808215151515815260200191505060405180910390f35b611c5160048036036020811015611c2557600080fd5b81019080803573ffffffffffffffffffffffffffffffffffffffff16906020019092919050505061609d565b6040518082815260200191505060405180910390f35b611cc960048036036040811015611c7d57600080fd5b81019080803573ffffffffffffffffffffffffffffffffffffffff169060200190929190803573ffffffffffffffffffffffffffffffffffffffff1690602001909291905050506160bb565b6040518082815260200191505060405180910390f35b611d0d60048036036020811015611cf557600080fd5b81019080803515159060200190929190505050616154565b005b611d176165b0565b604051808215151515815260200191505060405180910390f35b611d7360048036036020811015611d4757600080fd5b81019080803573ffffffffffffffffffffffffffffffffffffffff1690602001909291905050506165bf565b6040518082815260200191505060405180910390f35b611d9161666b565b6040518082815260200191505060405180910390f35b611e3360048036036080811015611dbd57600080fd5b81019080803573ffffffffffffffffffffffffffffffffffffffff169060200190929190803573ffffffffffffffffffffffffffffffffffffffff169060200190929190803573ffffffffffffffffffffffffffffffffffffffff169060200190929190803590602001909291905050506167c2565b604051808215151515815260200191505060405180910390f35b611e7960048036036020811015611e6357600080fd5b810190808035906020019092919050505061693d565b6040518082815260200191505060405180910390f35b611edb60048036036040811015611ea557600080fd5b81019080803573ffffffffffffffffffffffffffffffffffffffff16906020019092919080359060200190929190505050616990565b604051808215151515815260200191505060405180910390f35b611f53600480360360c0811015611f0b57600080fd5b81019080803590602001909291908035906020019092919080359060200190929190803590602001909291908035906020019092919080359060200190929190505050616bda565b604051808381526020018281526020019250505060405180910390f35b61201160048036036060811015611f8657600080fd5b81019080803573ffffffffffffffffffffffffffffffffffffffff1690602001909291908035906020019092919080359060200190640100000000811115611fcd57600080fd5b820183602082011115611fdf57600080fd5b8035906020019184602083028401116401000000008311171561200157600080fd5b9091929391929390505050616df6565b6040518082815260200191505060405180910390f35b6120696004803603602081101561203d57600080fd5b81019080803573ffffffffffffffffffffffffffffffffffffffff169060200190929190505050617139565b005b6120a16004803603604081101561208157600080fd5b8101908080359060200190929190803590602001909291905050506171bf565b604051808215151515815260200191505060405180910390f35b612125600480360360a08110156120d157600080fd5b81019080803573ffffffffffffffffffffffffffffffffffffffff169060200190929190803590602001909291908035906020019092919080359060200190929190803590602001909291905050506173ef565b005b61212f6174c5565b604051808381526020018281526020019250505060405180910390f35b6121546174d7565b604051808381526020018281526020019250505060405180910390f35b61219d6004803603602081101561218757600080fd5b81019080803590602001909291905050506174ee565b6040518082815260200191505060405180910390f35b60006121bd61763f565b612212576040517f08c379a000000000000000000000000000000000000000000000000000000000815260040180806020018281038252602381526020018061bc196023913960400191505060405180910390fd5b61221a617670565b73ffffffffffffffffffffffffffffffffffffffff16638657f615836040518263ffffffff1660e01b81526004018082815260200191505060206040518083038186803b15801561226a57600080fd5b505afa15801561227e573d6000803e3d6000fd5b505050506040513d602081101561229457600080fd5b81019080805190602001909291905050509050919050565b60006122b661763f565b61230b576040517f08c379a000000000000000000000000000000000000000000000000000000000815260040180806020018281038252602381526020018061bc196023913960400191505060405180910390fd5b600061231561776b565b90508073ffffffffffffffffffffffffffffffffffffffff1663c54c1cd4866040518263ffffffff1660e01b8152600401808273ffffffffffffffffffffffffffffffffffffffff1673ffffffffffffffffffffffffffffffffffffffff16815260200191505060206040518083038186803b15801561239457600080fd5b505afa1580156123a8573d6000803e3d6000fd5b505050506040513d60208110156123be57600080fd5b810190808051906020019092919050505015806123e45750600060036002016000015411155b156123f3576000915050612582565b6123fb61b7f7565b612455600360020160010160008873ffffffffffffffffffffffffffffffffffffffff1673ffffffffffffffffffffffffffffffffffffffff16815260200190815260200160002060000154600360020160000154617866565b905061245f61b7f7565b61251f8373ffffffffffffffffffffffffffffffffffffffff1663dba94fcd896040518263ffffffff1660e01b8152600401808273ffffffffffffffffffffffffffffffffffffffff1673ffffffffffffffffffffffffffffffffffffffff16815260200191505060206040518083038186803b1580156124df57600080fd5b505afa1580156124f3573d6000803e3d6000fd5b505050506040513d602081101561250957600080fd5b81019080805190602001909291905050506178a8565b905061252961b7f7565b612532866178a8565b905061257b612576836125688461255a8861254c8e6178c6565b61795090919063ffffffff16565b61795090919063ffffffff16565b61795090919063ffffffff16565b617daf565b9450505050505b9392505050565b600061259361763f565b15612632576125a0617670565b73ffffffffffffffffffffffffffffffffffffffff16632ba47274836040518263ffffffff1660e01b81526004018082815260200191505060206040518083038186803b1580156125f057600080fd5b505afa158015612604573d6000803e3d6000fd5b505050506040513d602081101561261a57600080fd5b8101908080519060200190929190505050905061263e565b61263b82617dd0565b90505b919050565b61264f84848484617f29565b50505050565b606060006001905061266884848361830a565b91505092915050565b600260009054906101000a900460ff1681565b6000600180600082825401925050819055506000600154905060006126a7618f80565b73ffffffffffffffffffffffffffffffffffffffff16636642d594336040518263ffffffff1660e01b8152600401808273ffffffffffffffffffffffffffffffffffffffff1673ffffffffffffffffffffffffffffffffffffffff16815260200191505060206040518083038186803b15801561272357600080fd5b505afa158015612737573d6000803e3d6000fd5b505050506040513d602081101561274d57600080fd5b8101908080519060200190929190505050905061276a848261907b565b92505060015481146127e4576040517f08c379a000000000000000000000000000000000000000000000000000000000815260040180806020018281038252600e8152602001807f7265656e7472616e742063616c6c00000000000000000000000000000000000081525060200191505060405180910390fd5b50919050565b6000600360020160000154905090565b60006128046192f7565b600060fb73ffffffffffffffffffffffffffffffffffffffff16858585604051602001808473ffffffffffffffffffffffffffffffffffffffff1673ffffffffffffffffffffffffffffffffffffffff1660601b815260140183805190602001908083835b6020831061288c5780518252602082019150602081019050602083039250612869565b6001836020036101000a03801982511681845116808217855250505050505090500182805190602001908083835b602083106128dd57805182526020820191506020810190506020830392506128ba565b6001836020036101000a03801982511681845116808217855250505050505090500193505050506040516020818303038152906040526040518082805190602001908083835b602083106129465780518252602082019150602081019050602083039250612923565b6001836020036101000a038019825116818451168082178552505050505050905001915050600060405180830381855afa9150503d80600081146129a6576040519150601f19603f3d011682016040523d82523d6000602084013e6129ab565b606091505b505080915050809150509392505050565b600080600360000160010160008473ffffffffffffffffffffffffffffffffffffffff1673ffffffffffffffffffffffffffffffffffffffff16815260200190815260200160002060010160008573ffffffffffffffffffffffffffffffffffffffff1673ffffffffffffffffffffffffffffffffffffffff1681526020019081526020016000209050612a4e615073565b8160010154108015612a64575060008160000154115b91505092915050565b6060612a83600d60000154600d60010154614f8a565b905090565b600080612bf6612a96619357565b73ffffffffffffffffffffffffffffffffffffffff166330a61d596040518163ffffffff1660e01b815260040160206040518083038186803b158015612adb57600080fd5b505afa158015612aef573d6000803e3d6000fd5b505050506040513d6020811015612b0557600080fd5b8101908080519060200190929190505050612be86001612b2361776b565b73ffffffffffffffffffffffffffffffffffffffff166339e618e8886040518263ffffffff1660e01b8152600401808273ffffffffffffffffffffffffffffffffffffffff1673ffffffffffffffffffffffffffffffffffffffff16815260200191505060206040518083038186803b158015612b9f57600080fd5b505afa158015612bb3573d6000803e3d6000fd5b505050506040513d6020811015612bc957600080fd5b810190808051906020019092919050505061945290919063ffffffff16565b6194da90919063ffffffff16565b90506000612c90600d60010154612c0b61776b565b73ffffffffffffffffffffffffffffffffffffffff1663517f6d336040518163ffffffff1660e01b815260040160206040518083038186803b158015612c5057600080fd5b505afa158015612c64573d6000803e3d6000fd5b505050506040513d6020811015612c7a57600080fd5b8101908080519060200190929190505050619560565b9050612ca5818361957990919063ffffffff16565b92505050919050565b601260008373ffffffffffffffffffffffffffffffffffffffff1673ffffffffffffffffffffffffffffffffffffffff16815260200190815260200160002060000160008273ffffffffffffffffffffffffffffffffffffffff1673ffffffffffffffffffffffffffffffffffffffff16815260200190815260200160002054601260008473ffffffffffffffffffffffffffffffffffffffff1673ffffffffffffffffffffffffffffffffffffffff168152602001908152602001600020600101600082825403925050819055506000612d898284612e64565b905080601260008573ffffffffffffffffffffffffffffffffffffffff1673ffffffffffffffffffffffffffffffffffffffff16815260200190815260200160002060000160008473ffffffffffffffffffffffffffffffffffffffff1673ffffffffffffffffffffffffffffffffffffffff1681526020019081526020016000208190555080601260008573ffffffffffffffffffffffffffffffffffffffff1673ffffffffffffffffffffffffffffffffffffffff16815260200190815260200160002060010160008282540192505081905550505050565b600080612e7184846151d4565b90506000612e7f85856160bb565b9050612e94818361945290919063ffffffff16565b9250505092915050565b6000612ea861763f565b15612f4757612eb5617670565b73ffffffffffffffffffffffffffffffffffffffff16633b1eb4bf836040518263ffffffff1660e01b81526004018082815260200191505060206040518083038186803b158015612f0557600080fd5b505afa158015612f19573d6000803e3d6000fd5b505050506040513d6020811015612f2f57600080fd5b81019080805190602001909291905050509050612f5b565b612f5882612f5361666b565b6195c3565b90505b919050565b6000612f6a614f2c565b612fdc576040517f08c379a00000000000000000000000000000000000000000000000000000000081526004018080602001828103825260208152602001807f4f776e61626c653a2063616c6c6572206973206e6f7420746865206f776e657281525060200191505060405180910390fd5b600f54821415613054576040517f08c379a00000000000000000000000000000000000000000000000000000000081526004018080602001828103825260208152602001807f4d61782067726f75707320766f74656420666f72206e6f74206368616e67656481525060200191505060405180910390fd5b81600f819055507f1993a3864c31265ef86eec51d147eff697dee0466c92ac9abddcc4c4c6829348826040518082815260200191505060405180910390a160019050919050565b6130a3614f2c565b613115576040517f08c379a00000000000000000000000000000000000000000000000000000000081526004018080602001828103825260208152602001807f4f776e61626c653a2063616c6c6572206973206e6f7420746865206f776e657281525060200191505060405180910390fd5b61311e8161960b565b50565b606061312b6192f7565b6000613135614641565b90506060816040519080825280602002602001820160405280156131685781602001602082028038833980820191505090505b50905060008090505b828110156131e35761318281612589565b82828151811061318e57fe5b602002602001019073ffffffffffffffffffffffffffffffffffffffff16908173ffffffffffffffffffffffffffffffffffffffff16815250506131dc60018261945290919063ffffffff16565b9050613171565b50809250505090565b6060600360090160008373ffffffffffffffffffffffffffffffffffffffff1673ffffffffffffffffffffffffffffffffffffffff1681526020019081526020016000208054806020026020016040519081016040528092919081815260200182805480156132b057602002820191906000526020600020905b8160009054906101000a900473ffffffffffffffffffffffffffffffffffffffff1673ffffffffffffffffffffffffffffffffffffffff1681526020019060010190808311613266575b50505050509050919050565b60006132c66192f7565b6060600060f473ffffffffffffffffffffffffffffffffffffffff16846040516020018082805190602001908083835b6020831061331957805182526020820191506020810190506020830392506132f6565b6001836020036101000a0380198251168184511680821785525050505050509050019150506040516020818303038152906040526040518082805190602001908083835b60208310613380578051825260208201915060208101905060208303925061335d565b6001836020036101000a038019825116818451168082178552505050505050905001915050600060405180830381855afa9150503d80600081146133e0576040519150601f19603f3d011682016040523d82523d6000602084013e6133e5565b606091505b50809350819250505080613444576040517f08c379a000000000000000000000000000000000000000000000000000000000815260040180806020018281038252603881526020018061b9a66038913960400191505060405180910390fd5b61344f826000619698565b92505050919050565b60108060000154905081565b60008060008060018060046000839350829250819150809050935093509350935090919293565b600060018060008282540192505081905550600060015490506134ac619739565b15613502576040517f08c379a000000000000000000000000000000000000000000000000000000000815260040180806020018281038252602f81526020018061bc3c602f913960400191505060405180910390fd5b600360040160000173__AddressSortedLinkedList_______________6302f130289091886040518363ffffffff1660e01b8152600401808381526020018273ffffffffffffffffffffffffffffffffffffffff1673ffffffffffffffffffffffffffffffffffffffff1681526020019250505060206040518083038186803b15801561358e57600080fd5b505af41580156135a2573d6000803e3d6000fd5b505050506040513d60208110156135b857600080fd5b810190808051906020019092919050505061363b576040517f08c379a00000000000000000000000000000000000000000000000000000000081526004018080602001828103825260128152602001807f47726f7570206e6f7420656c696769626c65000000000000000000000000000081525060200191505060405180910390fd5b846000106136b1576040517f08c379a00000000000000000000000000000000000000000000000000000000081526004018080602001828103825260198152602001807f566f74652076616c75652063616e6e6f74206265207a65726f0000000000000081525060200191505060405180910390fd5b6136bb8686616990565b61372d576040517f08c379a000000000000000000000000000000000000000000000000000000000815260040180806020018281038252601a8152602001807f47726f75702063616e6e6f74207265636569766520766f74657300000000000081525060200191505060405180910390fd5b6000613737618f80565b73ffffffffffffffffffffffffffffffffffffffff16636642d594336040518263ffffffff1660e01b8152600401808273ffffffffffffffffffffffffffffffffffffffff1673ffffffffffffffffffffffffffffffffffffffff16815260200191505060206040518083038186803b1580156137b357600080fd5b505afa1580156137c7573d6000803e3d6000fd5b505050506040513d60208110156137dd57600080fd5b8101908080519060200190929190505050905060008090506000600360090160008473ffffffffffffffffffffffffffffffffffffffff1673ffffffffffffffffffffffffffffffffffffffff168152602001908152602001600020905060008090505b81805490508110156138d75782806138ba57508973ffffffffffffffffffffffffffffffffffffffff1682828154811061387757fe5b9060005260206000200160009054906101000a900473ffffffffffffffffffffffffffffffffffffffff1673ffffffffffffffffffffffffffffffffffffffff16145b92506138d060018261945290919063ffffffff16565b9050613841565b5081613a1257601160003373ffffffffffffffffffffffffffffffffffffffff1673ffffffffffffffffffffffffffffffffffffffff16815260200190815260200160002060009054906101000a900460ff168061393a5750600f548180549050105b6139ac576040517f08c379a00000000000000000000000000000000000000000000000000000000081526004018080602001828103825260198152602001807f566f74656420666f7220746f6f206d616e792067726f7570730000000000000081525060200191505060405180910390fd5b808990806001815401808255809150509060018203906000526020600020016000909192909190916101000a81548173ffffffffffffffffffffffffffffffffffffffff021916908373ffffffffffffffffffffffffffffffffffffffff160217905550505b613a1d89848a61980d565b613a2a838a8a8a8a619915565b613a32619357565b73ffffffffffffffffffffffffffffffffffffffff166318a4ff8c848a6040518363ffffffff1660e01b8152600401808373ffffffffffffffffffffffffffffffffffffffff1673ffffffffffffffffffffffffffffffffffffffff16815260200182815260200192505050600060405180830381600087803b158015613ab857600080fd5b505af1158015613acc573d6000803e3d6000fd5b505050508873ffffffffffffffffffffffffffffffffffffffff168373ffffffffffffffffffffffffffffffffffffffff167fd3532f70444893db82221041edb4dc26c94593aeb364b0b14dfc77d5ee9051528a6040518082815260200191505060405180910390a3600194505050506001548114613bb3576040517f08c379a000000000000000000000000000000000000000000000000000000000815260040180806020018281038252600e8152602001807f7265656e7472616e742063616c6c00000000000000000000000000000000000081525060200191505060405180910390fd5b50949350505050565b6000600360020160010160008373ffffffffffffffffffffffffffffffffffffffff1673ffffffffffffffffffffffffffffffffffffffff168152602001908152602001600020600101549050919050565b6000613c186192f7565b6060600060fa73ffffffffffffffffffffffffffffffffffffffff16858560405160200180838152602001828152602001925050506040516020818303038152906040526040518082805190602001908083835b60208310613c8f5780518252602082019150602081019050602083039250613c6c565b6001836020036101000a038019825116818451168082178552505050505050905001915050600060405180830381855afa9150503d8060008114613cef576040519150601f19603f3d011682016040523d82523d6000602084013e613cf4565b606091505b50809350819250505080613d53576040517f08c379a000000000000000000000000000000000000000000000000000000000815260040180806020018281038252603681526020018061bad26036913960400191505060405180910390fd5b613d5e826000619b6b565b9250505092915050565b6060613d7e600d60000154600d60010154612655565b905090565b6000613d8d614f2c565b613dff576040517f08c379a00000000000000000000000000000000000000000000000000000000081526004018080602001828103825260208152602001807f4f776e61626c653a2063616c6c6572206973206e6f7420746865206f776e657281525060200191505060405180910390fd5b613e08826178a8565b601060008201518160000155905050613e47613e22619b82565b6010604051806020016040529081600082015481525050619ba890919063ffffffff16565b613e9c576040517f08c379a000000000000000000000000000000000000000000000000000000000815260040180806020018281038252602e81526020018061b978602e913960400191505060405180910390fd5b7f9854be03126e38f9c318d8aabe1b150d09cb3a57059b21855b1e11d44e082c1a826040518082815260200191505060405180910390a160019050919050565b600080600160405180807f626c6f636b65645f62795f706f736974696f6e000000000000000000000000008152506013019050604051809103902060001c0360001b9050805491508191505090565b6000613f356192f7565b6060600060f673ffffffffffffffffffffffffffffffffffffffff16846040516020018082805190602001908083835b60208310613f885780518252602082019150602081019050602083039250613f65565b6001836020036101000a0380198251168184511680821785525050505050509050019150506040516020818303038152906040526040518082805190602001908083835b60208310613fef5780518252602082019150602081019050602083039250613fcc565b6001836020036101000a038019825116818451168082178552505050505050905001915050600060405180830381855afa9150503d806000811461404f576040519150601f19603f3d011682016040523d82523d6000602084013e614054565b606091505b508093508192505050806140b3576040517f08c379a000000000000000000000000000000000000000000000000000000000815260040180806020018281038252602381526020018061bcbd6023913960400191505060405180910390fd5b6140be826000619698565b92505050919050565b60006060600360090160008473ffffffffffffffffffffffffffffffffffffffff1673ffffffffffffffffffffffffffffffffffffffff16815260200190815260200160002080548060200260200160405190810160405280929190818152602001828054801561418d57602002820191906000526020600020905b8160009054906101000a900473ffffffffffffffffffffffffffffffffffffffff1673ffffffffffffffffffffffffffffffffffffffff1681526020019060010190808311614143575b50505050509050600f54815111156141ea57601260008473ffffffffffffffffffffffffffffffffffffffff1673ffffffffffffffffffffffffffffffffffffffff16815260200190815260200160002060010154915050614251565b600080905060008090505b825181101561424a5761422d61421e84838151811061421057fe5b602002602001015187612e64565b8361945290919063ffffffff16565b915061424360018261945290919063ffffffff16565b90506141f5565b5080925050505b919050565b6000600180600082825401925050819055506000600154905061427c8787878787619bbd565b915060015481146142f5576040517f08c379a000000000000000000000000000000000000000000000000000000000815260040180806020018281038252600e8152602001807f7265656e7472616e742063616c6c00000000000000000000000000000000000081525060200191505060405180910390fd5b5095945050505050565b606080600360040160000173__AddressSortedLinkedList_______________6369b317e390916040518263ffffffff1660e01b81526004018082815260200191505060006040518083038186803b15801561435a57600080fd5b505af415801561436e573d6000803e3d6000fd5b505050506040513d6000823e3d601f19601f82011682018060405250604081101561439857600080fd5b81019080805160405193929190846401000000008211156143b857600080fd5b838201915060208201858111156143ce57600080fd5b82518660208202830111640100000000821117156143eb57600080fd5b8083526020830192505050908051906020019060200280838360005b83811015614422578082015181840152602081019050614407565b505050509050016040526020018051604051939291908464010000000082111561444b57600080fd5b8382019150602082018581111561446157600080fd5b825186602082028301116401000000008211171561447e57600080fd5b8083526020830192505050908051906020019060200280838360005b838110156144b557808201518184015260208101905061449a565b50505050905001604052505050915091509091565b6144d2614f2c565b614544576040517f08c379a00000000000000000000000000000000000000000000000000000000081526004018080602001828103825260208152602001807f4f776e61626c653a2063616c6c6572206973206e6f7420746865206f776e657281525060200191505060405180910390fd5b600073ffffffffffffffffffffffffffffffffffffffff166000809054906101000a900473ffffffffffffffffffffffffffffffffffffffff1673ffffffffffffffffffffffffffffffffffffffff167f8be0079c531659141344cd1fd0a4f28419497f9722a3daafe3b4186f6b6457e060405160405180910390a360008060006101000a81548173ffffffffffffffffffffffffffffffffffffffff021916908373ffffffffffffffffffffffffffffffffffffffff160217905550565b600061460d6192f7565b6146164361693d565b905090565b600260019054906101000a900473ffffffffffffffffffffffffffffffffffffffff1681565b600061464b61763f565b156146df57614658617670565b73ffffffffffffffffffffffffffffffffffffffff1663639a84d36040518163ffffffff1660e01b815260040160206040518083038186803b15801561469d57600080fd5b505afa1580156146b1573d6000803e3d6000fd5b505050506040513d60208110156146c757600080fd5b810190808051906020019092919050505090506146ea565b6146e7619ff8565b90505b90565b60006146f76192f7565b6060600060f773ffffffffffffffffffffffffffffffffffffffff16846040516020018082805190602001908083835b6020831061474a5780518252602082019150602081019050602083039250614727565b6001836020036101000a0380198251168184511680821785525050505050509050019150506040516020818303038152906040526040518082805190602001908083835b602083106147b1578051825260208201915060208101905060208303925061478e565b6001836020036101000a038019825116818451168082178552505050505050905001915050600060405180830381855afa9150503d8060008114614811576040519150601f19603f3d011682016040523d82523d6000602084013e614816565b606091505b50809350819250505080614875576040517f08c379a000000000000000000000000000000000000000000000000000000000815260040180806020018281038252603181526020018061bbe86031913960400191505060405180910390fd5b614880826000619b6b565b92505050919050565b6000600360040160000173__AddressSortedLinkedList_______________6302f130289091846040518363ffffffff1660e01b8152600401808381526020018273ffffffffffffffffffffffffffffffffffffffff1673ffffffffffffffffffffffffffffffffffffffff1681526020019250505060206040518083038186803b15801561491757600080fd5b505af415801561492b573d6000803e3d6000fd5b505050506040513d602081101561494157600080fd5b81019080805190602001909291905050509050919050565b60008060009054906101000a900473ffffffffffffffffffffffffffffffffffffffff16905090565b6000600180600082825401925050819055506000600154905060405160200180807f4c6f636b6564476f6c6400000000000000000000000000000000000000000000815250600a019050604051602081830303815290604052805190602001203373ffffffffffffffffffffffffffffffffffffffff16600260019054906101000a900473ffffffffffffffffffffffffffffffffffffffff1673ffffffffffffffffffffffffffffffffffffffff1663dcf0aaed836040518263ffffffff1660e01b81526004018082815260200191505060206040518083038186803b158015614a6c57600080fd5b505afa158015614a80573d6000803e3d6000fd5b505050506040513d6020811015614a9657600080fd5b810190808051906020019092919050505073ffffffffffffffffffffffffffffffffffffffff1614614b30576040517f08c379a00000000000000000000000000000000000000000000000000000000081526004018080602001828103825260188152602001807f6f6e6c79207265676973746572656420636f6e7472616374000000000000000081525060200191505060405180910390fd5b60008a11614b89576040517f08c379a000000000000000000000000000000000000000000000000000000000815260040180806020018281038252602781526020018061bc966027913960400191505060405180910390fd5b614b9161b80a565b6040518060400160405280600360090160008f73ffffffffffffffffffffffffffffffffffffffff1673ffffffffffffffffffffffffffffffffffffffff168152602001908152602001600020805480602002602001604051908101604052809291908181526020018280548015614c5e57602002820191906000526020600020905b8160009054906101000a900473ffffffffffffffffffffffffffffffffffffffff1673ffffffffffffffffffffffffffffffffffffffff1681526020019060010190808311614c14575b505050505081526020018c81525090508060000151518a8a905011158015614c8b5750878790508a8a9050145b8015614c9c57508585905088889050145b614cf1576040517f08c379a000000000000000000000000000000000000000000000000000000000815260040180806020018281038252602181526020018061b9186021913960400191505060405180910390fd5b600081600001515190505b6000811115614e2857614df2614ddf8e8460000151614d2560018661a14790919063ffffffff16565b81518110614d2f57fe5b602002602001015185602001518f8f614d5260018961a14790919063ffffffff16565b818110614d5b57fe5b9050602002013573ffffffffffffffffffffffffffffffffffffffff168e8e614d8e60018a61a14790919063ffffffff16565b818110614d9757fe5b9050602002013573ffffffffffffffffffffffffffffffffffffffff168d8d614dca60018b61a14790919063ffffffff16565b818110614dd357fe5b9050602002013561a191565b836020015161a14790919063ffffffff16565b826020018181525050600082602001511415614e0d57614e28565b614e2160018261a14790919063ffffffff16565b9050614cfc565b506000816020015114614ea3576040517f08c379a000000000000000000000000000000000000000000000000000000000815260040180806020018281038252601f8152602001807f4661696c75726520746f2064656372656d656e7420616c6c20766f7465732e0081525060200191505060405180910390fd5b8a935050506001548114614f1f576040517f08c379a000000000000000000000000000000000000000000000000000000000815260040180806020018281038252600e8152602001807f7265656e7472616e742063616c6c00000000000000000000000000000000000081525060200191505060405180910390fd5b5098975050505050505050565b60008060009054906101000a900473ffffffffffffffffffffffffffffffffffffffff1673ffffffffffffffffffffffffffffffffffffffff16614f6e61a405565b73ffffffffffffffffffffffffffffffffffffffff1614905090565b60606000809050614f9c84848361830a565b91505092915050565b6000600360020160010160008373ffffffffffffffffffffffffffffffffffffffff1673ffffffffffffffffffffffffffffffffffffffff168152602001908152602001600020600001549050919050565b6000600360000160010160008373ffffffffffffffffffffffffffffffffffffffff1673ffffffffffffffffffffffffffffffffffffffff168152602001908152602001600020600001549050919050565b600061506e60036000016000015460036002016000015461945290919063ffffffff16565b905090565b600061507e43612e9e565b905090565b600061508d6192f7565b6060600060f973ffffffffffffffffffffffffffffffffffffffff1684604051602001808281526020019150506040516020818303038152906040526040518082805190602001908083835b602083106150fc57805182526020820191506020810190506020830392506150d9565b6001836020036101000a038019825116818451168082178552505050505050905001915050600060405180830381855afa9150503d806000811461515c576040519150601f19603f3d011682016040523d82523d6000602084013e615161565b606091505b508093508192505050806151c0576040517f08c379a000000000000000000000000000000000000000000000000000000000815260040180806020018281038252602e81526020018061b8c4602e913960400191505060405180910390fd5b6151cb826000619b6b565b92505050919050565b6000600360000160010160008473ffffffffffffffffffffffffffffffffffffffff1673ffffffffffffffffffffffffffffffffffffffff16815260200190815260200160002060010160008373ffffffffffffffffffffffffffffffffffffffff1673ffffffffffffffffffffffffffffffffffffffff16815260200190815260200160002060000154905092915050565b60006001806000828254019250508190555060006001549050600073ffffffffffffffffffffffffffffffffffffffff168773ffffffffffffffffffffffffffffffffffffffff161415615323576040517f08c379a00000000000000000000000000000000000000000000000000000000081526004018080602001828103825260128152602001807f47726f75702061646472657373207a65726f000000000000000000000000000081525060200191505060405180910390fd5b600061532d618f80565b73ffffffffffffffffffffffffffffffffffffffff16636642d594336040518263ffffffff1660e01b8152600401808273ffffffffffffffffffffffffffffffffffffffff1673ffffffffffffffffffffffffffffffffffffffff16815260200191505060206040518083038186803b1580156153a957600080fd5b505afa1580156153bd573d6000803e3d6000fd5b505050506040513d60208110156153d357600080fd5b810190808051906020019092919050505090508660001061545c576040517f08c379a00000000000000000000000000000000000000000000000000000000081526004018080602001828103825260198152602001807f566f74652076616c75652063616e6e6f74206265207a65726f0000000000000081525060200191505060405180910390fd5b61546688826151d4565b8711156154be576040517f08c379a000000000000000000000000000000000000000000000000000000000815260040180806020018281038252602481526020018061bb756024913960400191505060405180910390fd5b6154c988828961a40d565b6154d6818989898961a51d565b6154de619357565b73ffffffffffffffffffffffffffffffffffffffff16636edf77a582896040518363ffffffff1660e01b8152600401808373ffffffffffffffffffffffffffffffffffffffff1673ffffffffffffffffffffffffffffffffffffffff16815260200182815260200192505050600060405180830381600087803b15801561556457600080fd5b505af1158015615578573d6000803e3d6000fd5b5050505060006155888983612e64565b14156155db576155da600360090160008373ffffffffffffffffffffffffffffffffffffffff1673ffffffffffffffffffffffffffffffffffffffff168152602001908152602001600020898661a840565b5b8773ffffffffffffffffffffffffffffffffffffffff168173ffffffffffffffffffffffffffffffffffffffff167f148075455e24d5cf538793db3e917a157cbadac69dd6a304186daf11b23f76fe896040518082815260200191505060405180910390a3600192505060015481146156bc576040517f08c379a000000000000000000000000000000000000000000000000000000000815260040180806020018281038252600e8152602001807f7265656e7472616e742063616c6c00000000000000000000000000000000000081525060200191505060405180910390fd5b5095945050505050565b60405160200180807f56616c696461746f727300000000000000000000000000000000000000000000815250600a019050604051602081830303815290604052805190602001203373ffffffffffffffffffffffffffffffffffffffff16600260019054906101000a900473ffffffffffffffffffffffffffffffffffffffff1673ffffffffffffffffffffffffffffffffffffffff1663dcf0aaed836040518263ffffffff1660e01b81526004018082815260200191505060206040518083038186803b15801561579757600080fd5b505afa1580156157ab573d6000803e3d6000fd5b505050506040513d60208110156157c157600080fd5b810190808051906020019092919050505073ffffffffffffffffffffffffffffffffffffffff161461585b576040517f08c379a00000000000000000000000000000000000000000000000000000000081526004018080602001828103825260188152602001807f6f6e6c79207265676973746572656420636f6e7472616374000000000000000081525060200191505060405180910390fd5b6000615866856165bf565b9050600360040160000173__AddressSortedLinkedList_______________632dedbbf09091878488886040518663ffffffff1660e01b8152600401808681526020018573ffffffffffffffffffffffffffffffffffffffff1673ffffffffffffffffffffffffffffffffffffffff1681526020018481526020018373ffffffffffffffffffffffffffffffffffffffff1673ffffffffffffffffffffffffffffffffffffffff1681526020018273ffffffffffffffffffffffffffffffffffffffff1673ffffffffffffffffffffffffffffffffffffffff1681526020019550505050505060006040518083038186803b15801561596457600080fd5b505af4158015615978573d6000803e3d6000fd5b505050508473ffffffffffffffffffffffffffffffffffffffff167f8f21dc7ff6f55d73e4fca52a4ef4fcc14fbda43ac338d24922519d51455d39c160405160405180910390a25050505050565b6000600360020160010160008473ffffffffffffffffffffffffffffffffffffffff1673ffffffffffffffffffffffffffffffffffffffff16815260200190815260200160002060020160008373ffffffffffffffffffffffffffffffffffffffff1673ffffffffffffffffffffffffffffffffffffffff16815260200190815260200160002054905092915050565b6060600360040160000173__AddressSortedLinkedList_______________633a72e80290916040518263ffffffff1660e01b81526004018082815260200191505060006040518083038186803b158015615ab057600080fd5b505af4158015615ac4573d6000803e3d6000fd5b505050506040513d6000823e3d601f19601f820116820180604052506020811015615aee57600080fd5b8101908080516040519392919084640100000000821115615b0e57600080fd5b83820191506020820185811115615b2457600080fd5b8251866020820283011164010000000082111715615b4157600080fd5b8083526020830192505050908051906020019060200280838360005b83811015615b78578082015181840152602081019050615b5d565b50505050905001604052505050905090565b60405160200180807f56616c696461746f727300000000000000000000000000000000000000000000815250600a019050604051602081830303815290604052805190602001203373ffffffffffffffffffffffffffffffffffffffff16600260019054906101000a900473ffffffffffffffffffffffffffffffffffffffff1673ffffffffffffffffffffffffffffffffffffffff1663dcf0aaed836040518263ffffffff1660e01b81526004018082815260200191505060206040518083038186803b158015615c5b57600080fd5b505afa158015615c6f573d6000803e3d6000fd5b505050506040513d6020811015615c8557600080fd5b810190808051906020019092919050505073ffffffffffffffffffffffffffffffffffffffff1614615d1f576040517f08c379a00000000000000000000000000000000000000000000000000000000081526004018080602001828103825260188152602001807f6f6e6c79207265676973746572656420636f6e7472616374000000000000000081525060200191505060405180910390fd5b600360040160000173__AddressSortedLinkedList_______________63281359299091846040518363ffffffff1660e01b8152600401808381526020018273ffffffffffffffffffffffffffffffffffffffff1673ffffffffffffffffffffffffffffffffffffffff1681526020019250505060006040518083038186803b158015615dab57600080fd5b505af4158015615dbf573d6000803e3d6000fd5b505050508173ffffffffffffffffffffffffffffffffffffffff167f5c8cd4e832f3a7d79f9208c2acf25a412143aa3f751cfd3728c42a0fea4921a860405160405180910390a25050565b615e12614f2c565b615e84576040517f08c379a00000000000000000000000000000000000000000000000000000000081526004018080602001828103825260208152602001807f4f776e61626c653a2063616c6c6572206973206e6f7420746865206f776e657281525060200191505060405180910390fd5b600073ffffffffffffffffffffffffffffffffffffffff168173ffffffffffffffffffffffffffffffffffffffff161415615f27576040517f08c379a00000000000000000000000000000000000000000000000000000000081526004018080602001828103825260208152602001807f43616e6e6f7420726567697374657220746865206e756c6c206164647265737381525060200191505060405180910390fd5b80600260016101000a81548173ffffffffffffffffffffffffffffffffffffffff021916908373ffffffffffffffffffffffffffffffffffffffff1602179055508073ffffffffffffffffffffffffffffffffffffffff167f27fe5f0c1c3b1ed427cc63d0f05759ffdecf9aec9e18d31ef366fc8a6cb5dc3b60405160405180910390a250565b600f5481565b6000615fd5601060405180602001604052908160008201548152505061a9e1565b905090565b60006001806000828254019250508190555060006001549050615ffd848461907b565b91506001548114616076576040517f08c379a000000000000000000000000000000000000000000000000000000000815260040180806020018281038252600e8152602001807f7265656e7472616e742063616c6c00000000000000000000000000000000000081525060200191505060405180910390fd5b5092915050565b60116020528060005260406000206000915054906101000a900460ff1681565b60126020528060005260406000206000915090508060010154905081565b600061614c83600360020160010160008673ffffffffffffffffffffffffffffffffffffffff1673ffffffffffffffffffffffffffffffffffffffff16815260200190815260200160002060020160008573ffffffffffffffffffffffffffffffffffffffff1673ffffffffffffffffffffffffffffffffffffffff1681526020019081526020016000205461a9ef565b905092915050565b600061615e618f80565b73ffffffffffffffffffffffffffffffffffffffff16636642d594336040518263ffffffff1660e01b8152600401808273ffffffffffffffffffffffffffffffffffffffff1673ffffffffffffffffffffffffffffffffffffffff16815260200191505060206040518083038186803b1580156161da57600080fd5b505afa1580156161ee573d6000803e3d6000fd5b505050506040513d602081101561620457600080fd5b81019080805190602001909291905050509050600061622161776b565b90508073ffffffffffffffffffffffffffffffffffffffff1663facd743b836040518263ffffffff1660e01b8152600401808273ffffffffffffffffffffffffffffffffffffffff1673ffffffffffffffffffffffffffffffffffffffff16815260200191505060206040518083038186803b1580156162a057600080fd5b505afa1580156162b4573d6000803e3d6000fd5b505050506040513d60208110156162ca57600080fd5b810190808051906020019092919050505015616331576040517f08c379a000000000000000000000000000000000000000000000000000000000815260040180806020018281038252603981526020018061bce06039913960400191505060405180910390fd5b8073ffffffffffffffffffffffffffffffffffffffff166352f13a4e836040518263ffffffff1660e01b8152600401808273ffffffffffffffffffffffffffffffffffffffff1673ffffffffffffffffffffffffffffffffffffffff16815260200191505060206040518083038186803b1580156163ae57600080fd5b505afa1580156163c2573d6000803e3d6000fd5b505050506040513d60208110156163d857600080fd5b81019080805190602001909291905050501561643f576040517f08c379a000000000000000000000000000000000000000000000000000000000815260040180806020018281038252603f81526020018061b939603f913960400191505060405180910390fd5b8261650257600f54600360090160008473ffffffffffffffffffffffffffffffffffffffff1673ffffffffffffffffffffffffffffffffffffffff168152602001908152602001600020805490501115616501576040517f08c379a000000000000000000000000000000000000000000000000000000000815260040180806020018281038252601a8152602001807f546f6f206d616e792067726f75707320766f74656420666f722100000000000081525060200191505060405180910390fd5b5b82601160008473ffffffffffffffffffffffffffffffffffffffff1673ffffffffffffffffffffffffffffffffffffffff16815260200190815260200160002060006101000a81548160ff0219169083151502179055508173ffffffffffffffffffffffffffffffffffffffff167fd9ff9bf9c0aa22c57c14972fe77841756843243a74e331dabcb04a4d8dbf11ff84604051808215151515815260200191505060405180910390a2505050565b60006165ba619739565b905090565b6000616664600360020160010160008473ffffffffffffffffffffffffffffffffffffffff1673ffffffffffffffffffffffffffffffffffffffff16815260200190815260200160002060000154600360000160010160008573ffffffffffffffffffffffffffffffffffffffff1673ffffffffffffffffffffffffffffffffffffffff1681526020019081526020016000206000015461945290919063ffffffff16565b9050919050565b60006166756192f7565b6060600060f873ffffffffffffffffffffffffffffffffffffffff16600160405160200180821515151560f81b81526001019150506040516020818303038152906040526040518082805190602001908083835b602083106166ec57805182526020820191506020810190506020830392506166c9565b6001836020036101000a038019825116818451168082178552505050505050905001915050600060405180830381855afa9150503d806000811461674c576040519150601f19603f3d011682016040523d82523d6000602084013e616751565b606091505b508093508192505050806167b0576040517f08c379a000000000000000000000000000000000000000000000000000000000815260040180806020018281038252602581526020018061bb506025913960400191505060405180910390fd5b6167bb826000619b6b565b9250505090565b6000600180600082825401925050819055506000600154905060006167e5618f80565b73ffffffffffffffffffffffffffffffffffffffff16636642d594336040518263ffffffff1660e01b8152600401808273ffffffffffffffffffffffffffffffffffffffff1673ffffffffffffffffffffffffffffffffffffffff16815260200191505060206040518083038186803b15801561686157600080fd5b505afa158015616875573d6000803e3d6000fd5b505050506040513d602081101561688b57600080fd5b8101908080519060200190929190505050905060006168aa88836160bb565b90506168b98882898989619bbd565b935050506001548114616934576040517f08c379a000000000000000000000000000000000000000000000000000000000815260040180806020018281038252600e8152602001807f7265656e7472616e742063616c6c00000000000000000000000000000000000081525060200191505060405180910390fd5b50949350505050565b60006169476192f7565b616989600361697b600261696d600261695f88615083565b6194da90919063ffffffff16565b61945290919063ffffffff16565b61957990919063ffffffff16565b9050919050565b6000806169ae836169a0866165bf565b61945290919063ffffffff16565b90506000616a5a616a4b600d600101546169c661776b565b73ffffffffffffffffffffffffffffffffffffffff1663517f6d336040518163ffffffff1660e01b815260040160206040518083038186803b158015616a0b57600080fd5b505afa158015616a1f573d6000803e3d6000fd5b505050506040513d6020811015616a3557600080fd5b8101908080519060200190929190505050619560565b836194da90919063ffffffff16565b90506000616bc9616a69619357565b73ffffffffffffffffffffffffffffffffffffffff166330a61d596040518163ffffffff1660e01b815260040160206040518083038186803b158015616aae57600080fd5b505afa158015616ac2573d6000803e3d6000fd5b505050506040513d6020811015616ad857600080fd5b8101908080519060200190929190505050616bbb6001616af661776b565b73ffffffffffffffffffffffffffffffffffffffff166339e618e88b6040518263ffffffff1660e01b8152600401808273ffffffffffffffffffffffffffffffffffffffff1673ffffffffffffffffffffffffffffffffffffffff16815260200191505060206040518083038186803b158015616b7257600080fd5b505afa158015616b86573d6000803e3d6000fd5b505050506040513d6020811015616b9c57600080fd5b810190808051906020019092919050505061945290919063ffffffff16565b6194da90919063ffffffff16565b905080821115935050505092915050565b600080616be56192f7565b60008714158015616bf7575060008514155b616c69576040517f08c379a00000000000000000000000000000000000000000000000000000000081526004018080602001828103825260158152602001807f612064656e6f6d696e61746f72206973207a65726f000000000000000000000081525060200191505060405180910390fd5b6000806000606060fc73ffffffffffffffffffffffffffffffffffffffff168c8c8c8c8c8c6040516020018087815260200186815260200185815260200184815260200183815260200182815260200196505050505050506040516020818303038152906040526040518082805190602001908083835b60208310616d035780518252602082019150602081019050602083039250616ce0565b6001836020036101000a038019825116818451168082178552505050505050905001915050600060405180830381855afa9150503d8060008114616d63576040519150601f19603f3d011682016040523d82523d6000602084013e616d68565b606091505b50809250819350505081616dc7576040517f08c379a000000000000000000000000000000000000000000000000000000000815260040180806020018281038252602781526020018061bb296027913960400191505060405180910390fd5b616dd2816000619b6b565b9350616ddf816020619b6b565b925083839550955050505050965096945050505050565b6000616e006192f7565b6000616e0a61776b565b90508073ffffffffffffffffffffffffffffffffffffffff1663c54c1cd4876040518263ffffffff1660e01b8152600401808273ffffffffffffffffffffffffffffffffffffffff1673ffffffffffffffffffffffffffffffffffffffff16815260200191505060206040518083038186803b158015616e8957600080fd5b505afa158015616e9d573d6000803e3d6000fd5b505050506040513d6020811015616eb357600080fd5b81019080805190602001909291905050501580616ed95750600060036002016000015411155b15616ee8576000915050617131565b616ef061b7f7565b616f4a600360020160010160008973ffffffffffffffffffffffffffffffffffffffff1673ffffffffffffffffffffffffffffffffffffffff16815260200190815260200160002060000154600360020160000154617866565b9050616f5461b7f7565b6170178373ffffffffffffffffffffffffffffffffffffffff166376f7425d88886040518363ffffffff1660e01b815260040180806020018281038252848482818152602001925060200280828437600081840152601f19601f820116905080830192505050935050505060206040518083038186803b158015616fd757600080fd5b505afa158015616feb573d6000803e3d6000fd5b505050506040513d602081101561700157600080fd5b81019080805190602001909291905050506178a8565b905061702161b7f7565b6170e18473ffffffffffffffffffffffffffffffffffffffff1663dba94fcd8b6040518263ffffffff1660e01b8152600401808273ffffffffffffffffffffffffffffffffffffffff1673ffffffffffffffffffffffffffffffffffffffff16815260200191505060206040518083038186803b1580156170a157600080fd5b505afa1580156170b5573d6000803e3d6000fd5b505050506040513d60208110156170cb57600080fd5b81019080805190602001909291905050506178a8565b905061712a6171258261711785617109886170fb8f6178c6565b61795090919063ffffffff16565b61795090919063ffffffff16565b61795090919063ffffffff16565b617daf565b9450505050505b949350505050565b617141614f2c565b6171b3576040517f08c379a00000000000000000000000000000000000000000000000000000000081526004018080602001828103825260208152602001807f4f776e61626c653a2063616c6c6572206973206e6f7420746865206f776e657281525060200191505060405180910390fd5b6171bc8161ab08565b50565b60006171c9614f2c565b61723b576040517f08c379a00000000000000000000000000000000000000000000000000000000081526004018080602001828103825260208152602001807f4f776e61626c653a2063616c6c6572206973206e6f7420746865206f776e657281525060200191505060405180910390fd5b82600010617294576040517f08c379a000000000000000000000000000000000000000000000000000000000815260040180806020018281038252602b81526020018061bc6b602b913960400191505060405180910390fd5b818311156172ed576040517f08c379a000000000000000000000000000000000000000000000000000000000815260040180806020018281038252603b81526020018061b889603b913960400191505060405180910390fd5b600d60000154831415806173065750600d600101548214155b617378576040517f08c379a00000000000000000000000000000000000000000000000000000000081526004018080602001828103825260208152602001807f456c65637461626c652076616c696461746f7273206e6f74206368616e67656481525060200191505060405180910390fd5b604051806040016040528084815260200183815250600d60008201518160000155602082015181600101559050507fb3ae64819ff89f6136eb58b8563cb32c6550f17eaf97f9ecc32f23783229f6de8383604051808381526020018281526020019250505060405180910390a16001905092915050565b600260009054906101000a900460ff1615617472576040517f08c379a000000000000000000000000000000000000000000000000000000000815260040180806020018281038252601c8152602001807f636f6e747261637420616c726561647920696e697469616c697a65640000000081525060200191505060405180910390fd5b6001600260006101000a81548160ff0219169083151502179055506174963361ab08565b61749f85615e0a565b6174a984846171bf565b506174b382612f60565b506174bd81613d83565b505050505050565b600d8060000154908060010154905082565b600080600d60000154600d60010154915091509091565b60006174f86192f7565b6060600060f573ffffffffffffffffffffffffffffffffffffffff1684604051602001808281526020019150506040516020818303038152906040526040518082805190602001908083835b602083106175675780518252602082019150602081019050602083039250617544565b6001836020036101000a038019825116818451168082178552505050505050905001915050600060405180830381855afa9150503d80600081146175c7576040519150601f19603f3d011682016040523d82523d6000602084013e6175cc565b606091505b5080935081925050508061762b576040517f08c379a000000000000000000000000000000000000000000000000000000000815260040180806020018281038252602c81526020018061bbbc602c913960400191505060405180910390fd5b617636826000619698565b92505050919050565b60008060007342000000000000000000000000000000000000189050803b915060008263ffffffff16119250505090565b6000600260019054906101000a900473ffffffffffffffffffffffffffffffffffffffff1673ffffffffffffffffffffffffffffffffffffffff1663dcf0aaed60405160200180807f45706f63684d616e616765720000000000000000000000000000000000000000815250600c019050604051602081830303815290604052805190602001206040518263ffffffff1660e01b81526004018082815260200191505060206040518083038186803b15801561772b57600080fd5b505afa15801561773f573d6000803e3d6000fd5b505050506040513d602081101561775557600080fd5b8101908080519060200190929190505050905090565b6000600260019054906101000a900473ffffffffffffffffffffffffffffffffffffffff1673ffffffffffffffffffffffffffffffffffffffff1663dcf0aaed60405160200180807f56616c696461746f727300000000000000000000000000000000000000000000815250600a019050604051602081830303815290604052805190602001206040518263ffffffff1660e01b81526004018082815260200191505060206040518083038186803b15801561782657600080fd5b505afa15801561783a573d6000803e3d6000fd5b505050506040513d602081101561785057600080fd5b8101908080519060200190929190505050905090565b61786e61b7f7565b61787661b7f7565b61787f846178c6565b905061788961b7f7565b617892846178c6565b905061789e828261ac4c565b9250505092915050565b6178b061b7f7565b6040518060200160405280838152509050919050565b6178ce61b7f7565b6178d661ad95565b82111561792e576040517f08c379a000000000000000000000000000000000000000000000000000000000815260040180806020018281038252603681526020018061b9de6036913960400191505060405180910390fd5b604051806020016040528069d3c21bcecceda100000084028152509050919050565b61795861b7f7565b60008360000151148061796f575060008260000151145b1561798b57604051806020016040528060008152509050617da9565b69d3c21bcecceda1000000826000015114156179a957829050617da9565b69d3c21bcecceda1000000836000015114156179c757819050617da9565b600069d3c21bcecceda10000006179dd8561adb4565b60000151816179e857fe5b04905060006179f68561adeb565b600001519050600069d3c21bcecceda1000000617a128661adb4565b6000015181617a1d57fe5b0490506000617a2b8661adeb565b6000015190506000828502905060008514617abf5782858281617a4a57fe5b0414617abe576040517f08c379a00000000000000000000000000000000000000000000000000000000081526004018080602001828103825260168152602001807f6f766572666c6f7720783179312064657465637465640000000000000000000081525060200191505060405180910390fd5b5b600069d3c21bcecceda10000008202905060008214617b615769d3c21bcecceda1000000828281617aec57fe5b0414617b60576040517f08c379a000000000000000000000000000000000000000000000000000000000815260040180806020018281038252601f8152602001807f6f766572666c6f772078317931202a206669786564312064657465637465640081525060200191505060405180910390fd5b5b8091506000848602905060008614617bf25784868281617b7d57fe5b0414617bf1576040517f08c379a00000000000000000000000000000000000000000000000000000000081526004018080602001828103825260168152602001807f6f766572666c6f7720783279312064657465637465640000000000000000000081525060200191505060405180910390fd5b5b6000848802905060008814617c805784888281617c0b57fe5b0414617c7f576040517f08c379a00000000000000000000000000000000000000000000000000000000081526004018080602001828103825260168152602001807f6f766572666c6f7720783179322064657465637465640000000000000000000081525060200191505060405180910390fd5b5b617c8861ae28565b8781617c9057fe5b049650617c9b61ae28565b8581617ca357fe5b0494506000858802905060008814617d345785888281617cbf57fe5b0414617d33576040517f08c379a00000000000000000000000000000000000000000000000000000000081526004018080602001828103825260168152602001807f6f766572666c6f7720783279322064657465637465640000000000000000000081525060200191505060405180910390fd5b5b617d3c61b7f7565b6040518060200160405280878152509050617d658160405180602001604052808781525061ae35565b9050617d7f8160405180602001604052808681525061ae35565b9050617d998160405180602001604052808581525061ae35565b9050809a50505050505050505050505b92915050565b600069d3c21bcecceda1000000826000015181617dc857fe5b049050919050565b6000617dda6192f7565b6060600060fa73ffffffffffffffffffffffffffffffffffffffff16844360405160200180838152602001828152602001925050506040516020818303038152906040526040518082805190602001908083835b60208310617e515780518252602082019150602081019050602083039250617e2e565b6001836020036101000a038019825116818451168082178552505050505050905001915050600060405180830381855afa9150503d8060008114617eb1576040519150601f19603f3d011682016040523d82523d6000602084013e617eb6565b606091505b50809350819250505080617f15576040517f08c379a000000000000000000000000000000000000000000000000000000000815260040180806020018281038252603d81526020018061ba37603d913960400191505060405180910390fd5b617f20826000619b6b565b92505050919050565b600360040160000173__AddressSortedLinkedList_______________6302f130289091866040518363ffffffff1660e01b8152600401808381526020018273ffffffffffffffffffffffffffffffffffffffff1673ffffffffffffffffffffffffffffffffffffffff1681526020019250505060206040518083038186803b158015617fb557600080fd5b505af4158015617fc9573d6000803e3d6000fd5b505050506040513d6020811015617fdf57600080fd5b8101908080519060200190929190505050156181e85760006180d084600360040160000173__AddressSortedLinkedList_______________63e0fe44b39091896040518363ffffffff1660e01b8152600401808381526020018273ffffffffffffffffffffffffffffffffffffffff1673ffffffffffffffffffffffffffffffffffffffff1681526020019250505060206040518083038186803b15801561808757600080fd5b505af415801561809b573d6000803e3d6000fd5b505050506040513d60208110156180b157600080fd5b810190808051906020019092919050505061945290919063ffffffff16565b9050600360040160000173__AddressSortedLinkedList_______________63cab455ae9091878487876040518663ffffffff1660e01b8152600401808681526020018573ffffffffffffffffffffffffffffffffffffffff1673ffffffffffffffffffffffffffffffffffffffff1681526020018481526020018373ffffffffffffffffffffffffffffffffffffffff1673ffffffffffffffffffffffffffffffffffffffff1681526020018273ffffffffffffffffffffffffffffffffffffffff1673ffffffffffffffffffffffffffffffffffffffff1681526020019550505050505060006040518083038186803b1580156181ce57600080fd5b505af41580156181e2573d6000803e3d6000fd5b50505050505b61824383600360020160010160008773ffffffffffffffffffffffffffffffffffffffff1673ffffffffffffffffffffffffffffffffffffffff1681526020019081526020016000206000015461945290919063ffffffff16565b600360020160010160008673ffffffffffffffffffffffffffffffffffffffff1673ffffffffffffffffffffffffffffffffffffffff168152602001908152602001600020600001819055506182aa8360036002016000015461945290919063ffffffff16565b6003600201600001819055508373ffffffffffffffffffffffffffffffffffffffff167f91ba34d62474c14d6c623cd322f4256666c7a45b7fdaa3378e009d39dfcec2a7846040518082815260200191505060405180910390a250505050565b6060600061834e61834961832461831f615049565b6178c6565b601060405180602001604052908160008201548152505061795090919063ffffffff16565b617daf565b90506000600360040160000173__AddressSortedLinkedList_______________6342b6351a909184886040518463ffffffff1660e01b815260040180848152602001838152602001828152602001935050505060206040518083038186803b1580156183ba57600080fd5b505af41580156183ce573d6000803e3d6000fd5b505050506040513d60208110156183e457600080fd5b810190808051906020019092919050505090506060600360040160000173__AddressSortedLinkedList_______________63dcb2a4dd9091846040518363ffffffff1660e01b8152600401808381526020018281526020019250505060006040518083038186803b15801561845957600080fd5b505af415801561846d573d6000803e3d6000fd5b505050506040513d6000823e3d601f19601f82011682018060405250602081101561849757600080fd5b81019080805160405193929190846401000000008211156184b757600080fd5b838201915060208201858111156184cd57600080fd5b82518660208202830111640100000000821117156184ea57600080fd5b8083526020830192505050908051906020019060200280838360005b83811015618521578082015181840152602081019050618506565b505050509050016040525050509050606061853a61776b565b73ffffffffffffffffffffffffffffffffffffffff166370447754836040518263ffffffff1660e01b81526004018080602001828103825283818151815260200191508051906020019060200280838360005b838110156185a857808201518184015260208101905061858d565b505050509050019250505060006040518083038186803b1580156185cb57600080fd5b505afa1580156185df573d6000803e3d6000fd5b505050506040513d6000823e3d601f19601f82011682018060405250602081101561860957600080fd5b810190808051604051939291908464010000000082111561862957600080fd5b8382019150602082018581111561863f57600080fd5b825186602082028301116401000000008211171561865c57600080fd5b8083526020830192505050908051906020019060200280838360005b83811015618693578082015181840152602081019050618678565b505050509050016040525050509050606082516040519080825280602002602001820160405280156186d45781602001602082028038833980820191505090505b50905060008090506060845160405190808252806020026020018201604052801561870e5781602001602082028038833980820191505090505b5090506060855160405190808252806020026020018201604052801561874e57816020015b61873b61b824565b8152602001906001900390816187335790505b50905060008090505b865181101561888d578083828151811061876d57fe5b60200260200101818152505061885b600360040160000173__AddressSortedLinkedList_______________63e0fe44b390918a85815181106187ac57fe5b60200260200101516040518363ffffffff1660e01b8152600401808381526020018273ffffffffffffffffffffffffffffffffffffffff1673ffffffffffffffffffffffffffffffffffffffff1681526020019250505060206040518083038186803b15801561881b57600080fd5b505af415801561882f573d6000803e3d6000fd5b505050506040513d602081101561884557600080fd5b81019080805190602001909291905050506178c6565b82828151811061886757fe5b602002602001018190525061888660018261945290919063ffffffff16565b9050618757565b505b8a8310801561889f575060008651115b15618ad9576000826000815181106188b357fe5b6020026020010151905060006188db8383815181106188ce57fe5b602002602001015161a9e1565b14156188e75750618ad9565b8481815181106188f357fe5b602002602001015186828151811061890757fe5b60200260200101511161893a5761891e60006178a8565b82828151811061892a57fe5b6020026020010181905250618ac9565b618961600186838151811061894b57fe5b602002602001015161945290919063ffffffff16565b85828151811061896d57fe5b60200260200101818152505061898d60018561945290919063ffffffff16565b9350618ab16189c16189bc60018885815181106189a657fe5b602002602001015161945290919063ffffffff16565b6178c6565b618aa3600360040160000173__AddressSortedLinkedList_______________63e0fe44b390918c87815181106189f457fe5b60200260200101516040518363ffffffff1660e01b8152600401808381526020018273ffffffffffffffffffffffffffffffffffffffff1673ffffffffffffffffffffffffffffffffffffffff1681526020019250505060206040518083038186803b158015618a6357600080fd5b505af4158015618a77573d6000803e3d6000fd5b505050506040513d6020811015618a8d57600080fd5b81019080805190602001909291905050506178c6565b61ac4c90919063ffffffff16565b828281518110618abd57fe5b60200260200101819052505b618ad3838361aede565b5061888f565b8b831015618b4f576040517f08c379a000000000000000000000000000000000000000000000000000000000815260040180806020018281038252601d8152602001807f4e6f7420656e6f75676820656c65637465642076616c696461746f727300000081525060200191505060405180910390fd5b606083604051908082528060200260200182016040528015618b805781602001602082028038833980820191505090505b509050600093506000618b9161776b565b905060008090505b8851811015618f6b5760608d15618d31578273ffffffffffffffffffffffffffffffffffffffff1663e5880d9a8b8481518110618bd257fe5b60200260200101518a8581518110618be657fe5b60200260200101516040518363ffffffff1660e01b8152600401808373ffffffffffffffffffffffffffffffffffffffff1673ffffffffffffffffffffffffffffffffffffffff1681526020018281526020019250505060006040518083038186803b158015618c5557600080fd5b505afa158015618c69573d6000803e3d6000fd5b505050506040513d6000823e3d601f19601f820116820180604052506020811015618c9357600080fd5b8101908080516040519392919084640100000000821115618cb357600080fd5b83820191506020820185811115618cc957600080fd5b8251866020820283011164010000000082111715618ce657600080fd5b8083526020830192505050908051906020019060200280838360005b83811015618d1d578082015181840152602081019050618d02565b505050509050016040525050509050618eb4565b8273ffffffffffffffffffffffffffffffffffffffff16638dd31e398b8481518110618d5957fe5b60200260200101518a8581518110618d6d57fe5b60200260200101516040518363ffffffff1660e01b8152600401808373ffffffffffffffffffffffffffffffffffffffff1673ffffffffffffffffffffffffffffffffffffffff1681526020018281526020019250505060006040518083038186803b158015618ddc57600080fd5b505afa158015618df0573d6000803e3d6000fd5b505050506040513d6000823e3d601f19601f820116820180604052506020811015618e1a57600080fd5b8101908080516040519392919084640100000000821115618e3a57600080fd5b83820191506020820185811115618e5057600080fd5b8251866020820283011164010000000082111715618e6d57600080fd5b8083526020830192505050908051906020019060200280838360005b83811015618ea4578082015181840152602081019050618e89565b5050505090500160405250505090505b60008090505b8151811015618f4e57818181518110618ecf57fe5b6020026020010151858981518110618ee357fe5b602002602001019073ffffffffffffffffffffffffffffffffffffffff16908173ffffffffffffffffffffffffffffffffffffffff1681525050618f3160018961945290919063ffffffff16565b9750618f4760018261945290919063ffffffff16565b9050618eba565b5050618f6460018261945290919063ffffffff16565b9050618b99565b50819a50505050505050505050509392505050565b6000600260019054906101000a900473ffffffffffffffffffffffffffffffffffffffff1673ffffffffffffffffffffffffffffffffffffffff1663dcf0aaed60405160200180807f4163636f756e74730000000000000000000000000000000000000000000000008152506008019050604051602081830303815290604052805190602001206040518263ffffffff1660e01b81526004018082815260200191505060206040518083038186803b15801561903b57600080fd5b505afa15801561904f573d6000803e3d6000fd5b505050506040513d602081101561906557600080fd5b8101908080519060200190929190505050905090565b6000619085619739565b156190db576040517f08c379a000000000000000000000000000000000000000000000000000000000815260040180806020018281038252602f81526020018061bc3c602f913960400191505060405180910390fd5b6000600360000160010160008573ffffffffffffffffffffffffffffffffffffffff1673ffffffffffffffffffffffffffffffffffffffff16815260200190815260200160002060010160008473ffffffffffffffffffffffffffffffffffffffff1673ffffffffffffffffffffffffffffffffffffffff168152602001908152602001600020905061916c615073565b8160010154106191e4576040517f08c379a000000000000000000000000000000000000000000000000000000000815260040180806020018281038252601d8152602001807f50656e64696e6720766f74652065706f6368206e6f742070617373656400000081525060200191505060405180910390fd5b60008160000154905060008111619263576040517f08c379a00000000000000000000000000000000000000000000000000000000081526004018080602001828103825260198152602001807f566f74652076616c75652063616e6e6f74206265207a65726f0000000000000081525060200191505060405180910390fd5b61926e85858361a40d565b600061927b86868461aef0565b90508573ffffffffffffffffffffffffffffffffffffffff168573ffffffffffffffffffffffffffffffffffffffff167f45aac85f38083b18efe2d441a65b9c1ae177c78307cb5a5d4aec8f7dbcaeabfe8484604051808381526020018281526020019250505060405180910390a36001935050505092915050565b6192ff61763f565b15619355576040517f08c379a000000000000000000000000000000000000000000000000000000000815260040180806020018281038252602981526020018061baa96029913960400191505060405180910390fd5b565b6000600260019054906101000a900473ffffffffffffffffffffffffffffffffffffffff1673ffffffffffffffffffffffffffffffffffffffff1663dcf0aaed60405160200180807f4c6f636b6564476f6c6400000000000000000000000000000000000000000000815250600a019050604051602081830303815290604052805190602001206040518263ffffffff1660e01b81526004018082815260200191505060206040518083038186803b15801561941257600080fd5b505afa158015619426573d6000803e3d6000fd5b505050506040513d602081101561943c57600080fd5b8101908080519060200190929190505050905090565b6000808284019050838110156194d0576040517f08c379a000000000000000000000000000000000000000000000000000000000815260040180806020018281038252601b8152602001807f536166654d6174683a206164646974696f6e206f766572666c6f77000000000081525060200191505060405180910390fd5b8091505092915050565b6000808314156194ed576000905061955a565b60008284029050828482816194fe57fe5b0414619555576040517f08c379a000000000000000000000000000000000000000000000000000000000815260040180806020018281038252602181526020018061bb086021913960400191505060405180910390fd5b809150505b92915050565b600081831061956f5781619571565b825b905092915050565b60006195bb83836040518060400160405280601a81526020017f536166654d6174683a206469766973696f6e206279207a65726f00000000000081525061b050565b905092915050565b6000808284816195cf57fe5b04905060008385816195dd57fe5b0614156195ed5780915050619605565b61960160018261945290919063ffffffff16565b9150505b92915050565b6000600160405180807f626c6f636b65645f62795f706f736974696f6e000000000000000000000000008152506013019050604051809103902060001c0360001b90508181558173ffffffffffffffffffffffffffffffffffffffff167fcd0883919ba2dd6e8461890a91feb2b01a505e46ea6d7963d1ae20ca62afdddd60405160405180910390a25050565b60006196ae60208361945290919063ffffffff16565b83511015619724576040517f08c379a00000000000000000000000000000000000000000000000000000000081526004018080602001828103825260148152602001807f736c6963696e67206f7574206f662072616e676500000000000000000000000081525060200191505060405180910390fd5b60006020830184015190508091505092915050565b60008073ffffffffffffffffffffffffffffffffffffffff1661975a613edc565b73ffffffffffffffffffffffffffffffffffffffff16141561977f576000905061980a565b619787613edc565b73ffffffffffffffffffffffffffffffffffffffff1663d75f0da76040518163ffffffff1660e01b815260040160206040518083038186803b1580156197cc57600080fd5b505afa1580156197e0573d6000803e3d6000fd5b505050506040513d60208110156197f657600080fd5b810190808051906020019092919050505090505b90565b60006003600001905061982d82826000015461945290919063ffffffff16565b816000018190555060008160010160008673ffffffffffffffffffffffffffffffffffffffff1673ffffffffffffffffffffffffffffffffffffffff168152602001908152602001600020905061989183826000015461945290919063ffffffff16565b816000018190555060008160010160008673ffffffffffffffffffffffffffffffffffffffff1673ffffffffffffffffffffffffffffffffffffffff16815260200190815260200160002090506198f584826000015461945290919063ffffffff16565b8160000181905550619905615073565b8160010181905550505050505050565b60006199f084600360040160000173__AddressSortedLinkedList_______________63e0fe44b39091896040518363ffffffff1660e01b8152600401808381526020018273ffffffffffffffffffffffffffffffffffffffff1673ffffffffffffffffffffffffffffffffffffffff1681526020019250505060206040518083038186803b1580156199a757600080fd5b505af41580156199bb573d6000803e3d6000fd5b505050506040513d60208110156199d157600080fd5b810190808051906020019092919050505061945290919063ffffffff16565b9050600360040160000173__AddressSortedLinkedList_______________63cab455ae9091878487876040518663ffffffff1660e01b8152600401808681526020018573ffffffffffffffffffffffffffffffffffffffff1673ffffffffffffffffffffffffffffffffffffffff1681526020018481526020018373ffffffffffffffffffffffffffffffffffffffff1673ffffffffffffffffffffffffffffffffffffffff1681526020018273ffffffffffffffffffffffffffffffffffffffff1673ffffffffffffffffffffffffffffffffffffffff1681526020019550505050505060006040518083038186803b158015619aee57600080fd5b505af4158015619b02573d6000803e3d6000fd5b50505050601160008773ffffffffffffffffffffffffffffffffffffffff1673ffffffffffffffffffffffffffffffffffffffff16815260200190815260200160002060009054906101000a900460ff1615619b6357619b628686612cae565b5b505050505050565b6000619b778383619698565b60001c905092915050565b619b8a61b7f7565b604051806020016040528069d3c21bcecceda1000000815250905090565b60008160000151836000015110905092915050565b6000619bc7619739565b15619c1d576040517f08c379a000000000000000000000000000000000000000000000000000000000815260040180806020018281038252602f81526020018061bc3c602f913960400191505060405180910390fd5b600073ffffffffffffffffffffffffffffffffffffffff168673ffffffffffffffffffffffffffffffffffffffff161415619cc0576040517f08c379a00000000000000000000000000000000000000000000000000000000081526004018080602001828103825260128152602001807f47726f75702061646472657373207a65726f000000000000000000000000000081525060200191505060405180910390fd5b6000619cca618f80565b73ffffffffffffffffffffffffffffffffffffffff16636642d594336040518263ffffffff1660e01b8152600401808273ffffffffffffffffffffffffffffffffffffffff1673ffffffffffffffffffffffffffffffffffffffff16815260200191505060206040518083038186803b158015619d4657600080fd5b505afa158015619d5a573d6000803e3d6000fd5b505050506040513d6020811015619d7057600080fd5b8101908080519060200190929190505050905085600010619df9576040517f08c379a00000000000000000000000000000000000000000000000000000000081526004018080602001828103825260198152602001807f566f74652076616c75652063616e6e6f74206265207a65726f0000000000000081525060200191505060405180910390fd5b619e0387826160bb565b861115619e5b576040517f08c379a000000000000000000000000000000000000000000000000000000000815260040180806020018281038252602381526020018061ba146023913960400191505060405180910390fd5b6000619e6888838961b116565b9050619e77828989898961a51d565b619e7f619357565b73ffffffffffffffffffffffffffffffffffffffff16636edf77a583896040518363ffffffff1660e01b8152600401808373ffffffffffffffffffffffffffffffffffffffff1673ffffffffffffffffffffffffffffffffffffffff16815260200182815260200192505050600060405180830381600087803b158015619f0557600080fd5b505af1158015619f19573d6000803e3d6000fd5b505050506000619f298984612e64565b1415619f7c57619f7b600360090160008473ffffffffffffffffffffffffffffffffffffffff1673ffffffffffffffffffffffffffffffffffffffff168152602001908152602001600020898661a840565b5b8773ffffffffffffffffffffffffffffffffffffffff168273ffffffffffffffffffffffffffffffffffffffff167fae7458f8697a680da6be36406ea0b8f40164915ac9cc40c0dad05a2ff6e8c6a88984604051808381526020018281526020019250505060405180910390a360019250505095945050505050565b600061a0026192f7565b6060600060f973ffffffffffffffffffffffffffffffffffffffff1643604051602001808281526020019150506040516020818303038152906040526040518082805190602001908083835b6020831061a071578051825260208201915060208101905060208303925061a04e565b6001836020036101000a038019825116818451168082178552505050505050905001915050600060405180830381855afa9150503d806000811461a0d1576040519150601f19603f3d011682016040523d82523d6000602084013e61a0d6565b606091505b5080935081925050508061a135576040517f08c379a000000000000000000000000000000000000000000000000000000000815260040180806020018281038252603581526020018061ba746035913960400191505060405180910390fd5b61a140826000619b6b565b9250505090565b600061a18983836040518060400160405280601e81526020017f536166654d6174683a207375627472616374696f6e206f766572666c6f77000081525061b2da565b905092915050565b600061a19b619739565b1561a1f1576040517f08c379a000000000000000000000000000000000000000000000000000000000815260040180806020018281038252602f81526020018061bc3c602f913960400191505060405180910390fd5b6000859050600061a202888a6151d4565b9050600081111561a2a257600061a2198383619560565b905061a226898b8361a40d565b8873ffffffffffffffffffffffffffffffffffffffff168a73ffffffffffffffffffffffffffffffffffffffff167f148075455e24d5cf538793db3e917a157cbadac69dd6a304186daf11b23f76fe836040518082815260200191505060405180910390a361a29e818461a14790919063ffffffff16565b9250505b600061a2ae898b6160bb565b905060008111801561a2c05750600083115b1561a36757600061a2d18483619560565b9050600061a2e08b8d8461b116565b90508a73ffffffffffffffffffffffffffffffffffffffff168c73ffffffffffffffffffffffffffffffffffffffff167fae7458f8697a680da6be36406ea0b8f40164915ac9cc40c0dad05a2ff6e8c6a88484604051808381526020018281526020019250505060405180910390a361a362828661a14790919063ffffffff16565b945050505b600061a37c848a61a14790919063ffffffff16565b9050600081111561a3f45761a3948b8b838b8b61a51d565b600061a3a08b8d612e64565b141561a3f35761a3f2600360090160008d73ffffffffffffffffffffffffffffffffffffffff1673ffffffffffffffffffffffffffffffffffffffff1681526020019081526020016000208b8861a840565b5b5b809450505050509695505050505050565b600033905090565b60006003600001905061a42d82826000015461a14790919063ffffffff16565b816000018190555060008160010160008673ffffffffffffffffffffffffffffffffffffffff1673ffffffffffffffffffffffffffffffffffffffff168152602001908152602001600020905061a49183826000015461a14790919063ffffffff16565b816000018190555060008160010160008673ffffffffffffffffffffffffffffffffffffffff1673ffffffffffffffffffffffffffffffffffffffff168152602001908152602001600020905061a4f584826000015461a14790919063ffffffff16565b816000018190555060008160000154141561a51557600081600101819055505b505050505050565b600360040160000173__AddressSortedLinkedList_______________6302f130289091866040518363ffffffff1660e01b8152600401808381526020018273ffffffffffffffffffffffffffffffffffffffff1673ffffffffffffffffffffffffffffffffffffffff1681526020019250505060206040518083038186803b15801561a5a957600080fd5b505af415801561a5bd573d6000803e3d6000fd5b505050506040513d602081101561a5d357600080fd5b81019080805190602001909291905050501561a7dc57600061a6c484600360040160000173__AddressSortedLinkedList_______________63e0fe44b39091896040518363ffffffff1660e01b8152600401808381526020018273ffffffffffffffffffffffffffffffffffffffff1673ffffffffffffffffffffffffffffffffffffffff1681526020019250505060206040518083038186803b15801561a67b57600080fd5b505af415801561a68f573d6000803e3d6000fd5b505050506040513d602081101561a6a557600080fd5b810190808051906020019092919050505061a14790919063ffffffff16565b9050600360040160000173__AddressSortedLinkedList_______________63cab455ae9091878487876040518663ffffffff1660e01b8152600401808681526020018573ffffffffffffffffffffffffffffffffffffffff1673ffffffffffffffffffffffffffffffffffffffff1681526020018481526020018373ffffffffffffffffffffffffffffffffffffffff1673ffffffffffffffffffffffffffffffffffffffff1681526020018273ffffffffffffffffffffffffffffffffffffffff1673ffffffffffffffffffffffffffffffffffffffff1681526020019550505050505060006040518083038186803b15801561a7c257600080fd5b505af415801561a7d6573d6000803e3d6000fd5b50505050505b601160008673ffffffffffffffffffffffffffffffffffffffff1673ffffffffffffffffffffffffffffffffffffffff16815260200190815260200160002060009054906101000a900460ff161561a8395761a8388585612cae565b5b5050505050565b82805490508110801561a8b457508173ffffffffffffffffffffffffffffffffffffffff1683828154811061a87157fe5b9060005260206000200160009054906101000a900473ffffffffffffffffffffffffffffffffffffffff1673ffffffffffffffffffffffffffffffffffffffff16145b61a926576040517f08c379a00000000000000000000000000000000000000000000000000000000081526004018080602001828103825260098152602001807f42616420696e646578000000000000000000000000000000000000000000000081525060200191505060405180910390fd5b600061a9406001858054905061a14790919063ffffffff16565b905083818154811061a94e57fe5b9060005260206000200160009054906101000a900473ffffffffffffffffffffffffffffffffffffffff1684838154811061a98557fe5b9060005260206000200160006101000a81548173ffffffffffffffffffffffffffffffffffffffff021916908373ffffffffffffffffffffffffffffffffffffffff16021790555080848161a9da919061b837565b5050505050565b600081600001519050919050565b600080600360020160010160008573ffffffffffffffffffffffffffffffffffffffff1673ffffffffffffffffffffffffffffffffffffffff16815260200190815260200160002060010154141561aa4a576000905061ab02565b61aaff600360020160010160008573ffffffffffffffffffffffffffffffffffffffff1673ffffffffffffffffffffffffffffffffffffffff1681526020019081526020016000206001015461aaf1600360020160010160008773ffffffffffffffffffffffffffffffffffffffff1673ffffffffffffffffffffffffffffffffffffffff16815260200190815260200160002060000154856194da90919063ffffffff16565b61957990919063ffffffff16565b90505b92915050565b600073ffffffffffffffffffffffffffffffffffffffff168173ffffffffffffffffffffffffffffffffffffffff16141561ab8e576040517f08c379a000000000000000000000000000000000000000000000000000000000815260040180806020018281038252602681526020018061b8f26026913960400191505060405180910390fd5b8073ffffffffffffffffffffffffffffffffffffffff166000809054906101000a900473ffffffffffffffffffffffffffffffffffffffff1673ffffffffffffffffffffffffffffffffffffffff167f8be0079c531659141344cd1fd0a4f28419497f9722a3daafe3b4186f6b6457e060405160405180910390a3806000806101000a81548173ffffffffffffffffffffffffffffffffffffffff021916908373ffffffffffffffffffffffffffffffffffffffff16021790555050565b61ac5461b7f7565b60008260000151141561accf576040517f08c379a00000000000000000000000000000000000000000000000000000000081526004018080602001828103825260118152602001807f63616e277420646976696465206279203000000000000000000000000000000081525060200191505060405180910390fd5b600069d3c21bcecceda10000008460000151029050836000015169d3c21bcecceda1000000828161acfc57fe5b041461ad70576040517f08c379a00000000000000000000000000000000000000000000000000000000081526004018080602001828103825260128152602001807f6f766572666c6f7720617420646976696465000000000000000000000000000081525060200191505060405180910390fd5b60405180602001604052808460000151838161ad8857fe5b0481525091505092915050565b60007601357c299a88ea76a58924d52ce4f26a85af186c2b9e74905090565b61adbc61b7f7565b604051806020016040528069d3c21bcecceda10000008085600001518161addf57fe5b04028152509050919050565b61adf361b7f7565b604051806020016040528069d3c21bcecceda10000008085600001518161ae1657fe5b04028460000151038152509050919050565b600064e8d4a51000905090565b61ae3d61b7f7565b600082600001518460000151019050836000015181101561aec6576040517f08c379a00000000000000000000000000000000000000000000000000000000081526004018080602001828103825260158152602001807f616464206f766572666c6f77206465746563746564000000000000000000000081525060200191505060405180910390fd5b60405180602001604052808281525091505092915050565b61aeec82826000855161b39a565b5050565b6000806003600201905061af1183826000015461945290919063ffffffff16565b8160000181905550600061af25868561b6af565b905060008260010160008873ffffffffffffffffffffffffffffffffffffffff1673ffffffffffffffffffffffffffffffffffffffff168152602001908152602001600020905061af8385826000015461945290919063ffffffff16565b816000018190555061afa282826001015461945290919063ffffffff16565b816001018190555061affe828260020160008973ffffffffffffffffffffffffffffffffffffffff1673ffffffffffffffffffffffffffffffffffffffff1681526020019081526020016000205461945290919063ffffffff16565b8160020160008873ffffffffffffffffffffffffffffffffffffffff1673ffffffffffffffffffffffffffffffffffffffff168152602001908152602001600020819055508193505050509392505050565b6000808311829061b0fc576040517f08c379a00000000000000000000000000000000000000000000000000000000081526004018080602001828103825283818151815260200191508051906020019080838360005b8381101561b0c157808201518184015260208101905061b0a6565b50505050905090810190601f16801561b0ee5780820380516001836020036101000a031916815260200191505b509250505060405180910390fd5b50600083858161b10857fe5b049050809150509392505050565b6000806003600201905061b13783826000015461a14790919063ffffffff16565b81600001819055506000809050600061b15087876160bb565b905060008360010160008973ffffffffffffffffffffffffffffffffffffffff1673ffffffffffffffffffffffffffffffffffffffff16815260200190815260200160002090508582141561b1e8578060020160008873ffffffffffffffffffffffffffffffffffffffff1673ffffffffffffffffffffffffffffffffffffffff16815260200190815260200160002054925061b1f5565b61b1f2888761b6af565b92505b61b20c86826000015461a14790919063ffffffff16565b816000018190555061b22b83826001015461a14790919063ffffffff16565b816001018190555061b287838260020160008a73ffffffffffffffffffffffffffffffffffffffff1673ffffffffffffffffffffffffffffffffffffffff1681526020019081526020016000205461a14790919063ffffffff16565b8160020160008973ffffffffffffffffffffffffffffffffffffffff1673ffffffffffffffffffffffffffffffffffffffff16815260200190815260200160002081905550829450505050509392505050565b600083831115829061b387576040517f08c379a00000000000000000000000000000000000000000000000000000000081526004018080602001828103825283818151815260200191508051906020019080838360005b8381101561b34c57808201518184015260208101905061b331565b50505050905090810190601f16801561b3795780820380516001836020036101000a031916815260200191505b509250505060405180910390fd5b5060008385039050809150509392505050565b825184511461b3f4576040517f08c379a000000000000000000000000000000000000000000000000000000000815260040180806020018281038252602381526020018061bb996023913960400191505060405180910390fd5b8351821061b46a576040517f08c379a000000000000000000000000000000000000000000000000000000000815260040180806020018281038252601d8152602001807f6865617020737461727420696e646578206f7574206f662072616e676500000081525060200191505060405180910390fd5b835181111561b4e1576040517f08c379a00000000000000000000000000000000000000000000000000000000081526004018080602001828103825260188152602001807f68656170206c656e677468206f7574206f662072616e6765000000000000000081525060200191505060405180910390fd5b60008290505b60011561b6a857600061b517600161b5096002856194da90919063ffffffff16565b61945290919063ffffffff16565b9050600061b542600261b5346002866194da90919063ffffffff16565b61945290919063ffffffff16565b90506000839050848310801561b5b3575061b5b28789838151811061b56357fe5b60200260200101518151811061b57557fe5b6020026020010151888a868151811061b58a57fe5b60200260200101518151811061b59c57fe5b602002602001015161b7e290919063ffffffff16565b5b1561b5bc578290505b848210801561b626575061b6258789838151811061b5d657fe5b60200260200101518151811061b5e857fe5b6020026020010151888a858151811061b5fd57fe5b60200260200101518151811061b60f57fe5b602002602001015161b7e290919063ffffffff16565b5b1561b62f578190505b8381141561b63f5750505061b6a8565b600088858151811061b64d57fe5b6020026020010151905088828151811061b66357fe5b602002602001015189868151811061b67757fe5b6020026020010181815250508089838151811061b69057fe5b6020026020010181815250508194505050505061b4e7565b5050505050565b600080600360020160010160008573ffffffffffffffffffffffffffffffffffffffff1673ffffffffffffffffffffffffffffffffffffffff16815260200190815260200160002060010154141561b7245761b71d68056bc75e2d63100000836194da90919063ffffffff16565b905061b7dc565b61b7d9600360020160010160008573ffffffffffffffffffffffffffffffffffffffff1673ffffffffffffffffffffffffffffffffffffffff1681526020019081526020016000206000015461b7cb600360020160010160008773ffffffffffffffffffffffffffffffffffffffff1673ffffffffffffffffffffffffffffffffffffffff16815260200190815260200160002060010154856194da90919063ffffffff16565b61957990919063ffffffff16565b90505b92915050565b60008160000151836000015111905092915050565b6040518060200160405280600081525090565b604051806040016040528060608152602001600081525090565b6040518060200160405280600081525090565b81548183558181111561b85e5781836000526020600020918201910161b85d919061b863565b5b505050565b61b88591905b8082111561b88157600081600090555060010161b869565b5090565b9056fe4d6178696d756d20656c65637461626c652076616c696461746f72732063616e6e6f7420626520736d616c6c6572207468616e206d696e696d756d6572726f722063616c6c696e67206e756d62657256616c696461746f7273496e53657420707265636f6d70696c654f776e61626c653a206e6577206f776e657220697320746865207a65726f2061646472657373496e707574206c656e67746873206d75737420626520636f72726573706f6e642e56616c696461746f722067726f7570732063616e6e6f7420766f746520666f72206d6f7265207468616e206d6178206e756d626572206f662067726f757073456c6563746162696c697479207468726573686f6c64206d757374206265206c6f776572207468616e20313030256572726f722063616c6c696e672067657456657269666965645365616c4269746d617046726f6d48656164657220707265636f6d70696c6563616e277420637265617465206669786964697479206e756d626572206c6172676572207468616e206d61784e657746697865642829566f74652076616c7565206c6172676572207468616e2061637469766520766f7465736572726f722063616c6c696e672076616c696461746f725369676e65724164647265737346726f6d43757272656e7453657420707265636f6d70696c656572726f722063616c6c696e67206e756d62657256616c696461746f7273496e43757272656e7453657420707265636f6d70696c6554686973206d6574686f64206973206e6f206c6f6e67657220737570706f7274656420696e204c322e6572726f722063616c6c696e672076616c696461746f725369676e65724164647265737346726f6d53657420707265636f6d70696c65536166654d6174683a206d756c7469706c69636174696f6e206f766572666c6f776572726f722063616c6c696e67206672616374696f6e4d756c45787020707265636f6d70696c656572726f722063616c6c696e672067657445706f636853697a6520707265636f6d70696c65566f74652076616c7565206c6172676572207468616e2070656e64696e6720766f7465736b657920616e642076616c7565206172726179206c656e677468206d69736d617463686572726f722063616c6c696e6720676574506172656e745365616c4269746d617020707265636f6d70696c656572726f722063616c6c696e6720676574426c6f636b4e756d62657246726f6d48656164657220707265636f6d70696c6554686973206d6574686f64206973206e6f7420737570706f7274656420696e204c312e436f6e747261637420697320626c6f636b65642066726f6d20706572666f726d696e67207468697320616374696f6e4d696e696d756d20656c65637461626c652076616c696461746f72732063616e6e6f74206265207a65726f44656372656d656e742076616c7565206d7573742062652067726561746572207468616e20302e6572726f722063616c6c696e67206861736848656164657220707265636f6d70696c6556616c696461746f72732063616e6e6f7420766f746520666f72206d6f7265207468616e206d6178206e756d626572206f662067726f757073a265627a7a7231582054fb4c909c8c9789319fb42584bcda7fb46b365cc5218992d9f919b68f9a478364736f6c634300050d0032",
  "source": "pragma solidity ^0.5.13;\n\nimport \"../Election.sol\";\nimport \"../../common/FixidityLib.sol\";\n\n/**\n * @title A wrapper around Election that exposes onlyVm functions for testing.\n */\ncontract ElectionTest is Election(true) {\n  function distributeEpochRewards(\n    address group,\n    uint256 value,\n    address lesser,\n    address greater\n  ) external {\n    return _distributeEpochRewards(group, value, lesser, greater);\n  }\n}\n",
  "sourcePath": "/Users/beaver/Development/temp/celo-monorepo/packages/protocol/contracts/governance/test/ElectionTest.sol",
  "compiler": {
    "name": "solc",
    "version": "0.5.13+commit.5b0b510c.Emscripten.clang"
  },
  "schemaVersion": "3.4.13",
  "updatedAt": "2025-05-05T17:49:51.461Z",
  "devdoc": {
    "methods": {
      "activate(address)": {
        "details": "Pending votes cannot be activated until an election has been held.",
        "params": {
          "group": "The validator group to vote for."
        },
        "return": "True upon success."
      },
      "activateForAccount(address,address)": {
        "details": "Pending votes cannot be activated until an election has been held.",
        "params": {
          "account": "The validateor group account's pending votes to active votes",
          "group": "The validator group to vote for."
        },
        "return": "True upon success."
      },
      "canReceiveVotes(address,uint256)": {
        "details": "Votes are not allowed to be cast that would increase a group's proportion of locked gold  voting for it to greater than  (numGroupMembers + 1) / min(maxElectableValidators, numRegisteredValidators)Note that groups may still receive additional votes via rewards even if this function  returns false.",
        "params": {
          "group": "The address of the group.",
          "value": "The number of votes."
        },
        "return": "Whether or not a group can receive the specified number of votes."
      },
      "checkProofOfPossession(address,bytes,bytes)": {
        "details": "This function will be deprecated in L2.",
        "params": {
          "blsKey": "The BLS public key that the validator is using for consensus, should pass proof  of possession. 48 bytes.",
          "blsPop": "The BLS public key proof-of-possession, which consists of a signature on the  account address. 96 bytes.",
          "sender": "The address signed by the BLS key to generate the proof of possession."
        },
        "return": "True upon success."
      },
      "electValidatorAccounts()": {
        "return": "The list of elected validators."
      },
      "electValidatorSigners()": {
        "return": "The list of elected validator signers."
      },
      "forceDecrementVotes(address,uint256,address[],address[],uint256[])": {
        "params": {
          "account": "Address to revoke votes from.",
          "greaters": "The groups receivier more votes than the i'th `group`, or 0 if               the i'th `group` has the most votes of any validator group.",
          "indices": "The indices of the i'th group in the account's voting list.",
          "lessers": "The groups receiving fewer votes than the i'th `group`, or 0 if               the i'th `group` has the fewest votes of any validator group.",
          "value": "Maximum amount of votes to revoke."
        },
        "return": "Number of votes successfully decremented."
      },
      "fractionMulExp(uint256,uint256,uint256,uint256,uint256,uint256)": {
        "details": "This function will be deprecated in L2.",
        "params": {
          "_decimals": "precision",
          "aDenominator": "Denominator of first fraction",
          "aNumerator": "Numerator of first fraction",
          "bDenominator": "Denominator of exponentiated fraction",
          "bNumerator": "Numerator of exponentiated fraction",
          "exponent": "exponent to raise b to"
        },
        "return": "Numerator of the computed quantity (not reduced).Denominator of the computed quantity (not reduced)."
      },
      "getActiveVoteUnitsForGroup(address)": {
        "params": {
          "group": "The address of the validator group."
        },
        "return": "The total active vote units made for `group`."
      },
      "getActiveVoteUnitsForGroupByAccount(address,address)": {
        "params": {
          "account": "The address of the voting account.",
          "group": "The address of the validator group."
        },
        "return": "The active vote units for `group` made by `account`."
      },
      "getActiveVotes()": {
        "return": "The active votes received across all groups."
      },
      "getActiveVotesForGroup(address)": {
        "params": {
          "group": "The address of the validator group."
        },
        "return": "The active votes made for `group`."
      },
      "getActiveVotesForGroupByAccount(address,address)": {
        "params": {
          "account": "The address of the voting account.",
          "group": "The address of the validator group."
        },
        "return": "The active votes for `group` made by `account`."
      },
      "getBlockNumberFromHeader(bytes)": {
        "details": "This function will be deprecated in L2.",
        "params": {
          "header": "RLP encoded header"
        },
        "return": "Block number."
      },
      "getCurrentValidatorSigners()": {
        "return": "List of current validator signers."
      },
      "getElectabilityThreshold()": {
        "return": "Threshold value as unwrapped fraction."
      },
      "getElectableValidators()": {
        "return": "The minimum number of validators that can be elected.The maximum number of validators that can be elected."
      },
      "getEligibleValidatorGroups()": {
        "return": "The list of validator groups eligible to elect validators."
      },
      "getEpochNumber()": {
        "return": "Current epoch number."
      },
      "getEpochNumberOfBlock(uint256)": {
        "params": {
          "blockNumber": "Block number where epoch number is calculated."
        },
        "return": "Epoch number."
      },
      "getEpochSize()": {
        "details": "This function will be deprecated in L2.",
        "return": "The current epoch size in blocks."
      },
      "getGroupEligibility(address)": {
        "details": "Eligible groups that have received their maximum number of votes cannot receive more.",
        "return": "Whether or not a group is eligible to receive votes."
      },
      "getGroupEpochRewards(address,uint256,uint256[])": {
        "details": "Eligible groups that have received their maximum number of votes cannot receive more.",
        "params": {
          "group": "The group to calculate epoch rewards for.",
          "totalEpochRewards": "The total amount of rewards going to all voters.",
          "uptimes": "Array of Fixidity representations of the validators' uptimes, between 0 and 1."
        },
        "return": "The amount of rewards that voters for `group` are due at the end of an epoch."
      },
      "getGroupEpochRewardsBasedOnScore(address,uint256,uint256)": {
        "details": "Eligible groups that have received their maximum number of votes cannot receive more.",
        "params": {
          "group": "The group to calculate epoch rewards for.",
          "groupScore": "The score of the group.",
          "totalEpochRewards": "The total amount of rewards going to all voters."
        },
        "return": "The amount of rewards that voters for `group` are due at the end of an epoch."
      },
      "getGroupsVotedForByAccount(address)": {
        "params": {
          "account": "The address of the account casting votes."
        },
        "return": "The groups that `account` has voted for."
      },
      "getNumVotesReceivable(address)": {
        "details": "Votes are not allowed to be cast that would increase a group's proportion of locked gold  voting for it to greater than  (numGroupMembers + 1) / min(maxElectableValidators, numRegisteredValidators)Note that a group's vote total may exceed this number through rewards or config changes.",
        "params": {
          "group": "The address of the group."
        },
        "return": "The number of votes that a group can receive."
      },
      "getParentSealBitmap(uint256)": {
        "details": "This function will be deprecated in L2.",
        "params": {
          "blockNumber": "Block number to retrieve. Must be within 4 epochs of the current number."
        },
        "return": "Bitmap parent seal with set bits at indices corresponding to signing validators."
      },
      "getPendingVotesForGroup(address)": {
        "params": {
          "group": "The address of the validator group."
        },
        "return": "The pending votes made for `group`."
      },
      "getPendingVotesForGroupByAccount(address,address)": {
        "params": {
          "account": "The address of the voting account.",
          "group": "The address of the validator group."
        },
        "return": "The pending votes for `group` made by `account`."
      },
      "getTotalVotes()": {
        "return": "The total votes received across all groups."
      },
      "getTotalVotesByAccount(address)": {
        "params": {
          "account": "The address of the account."
        },
        "return": "The total number of votes cast by an account."
      },
      "getTotalVotesForEligibleValidatorGroups()": {
        "return": "List of all validator groupsNumber of votes each validator group received."
      },
      "getTotalVotesForGroup(address)": {
        "params": {
          "group": "The address of the validator group."
        },
        "return": "The total votes made for `group`."
      },
      "getTotalVotesForGroupByAccount(address,address)": {
        "params": {
          "account": "The address of the voting account.",
          "group": "The address of the validator group."
        },
        "return": "The total votes for `group` made by `account`."
      },
      "getVerifiedSealBitmapFromHeader(bytes)": {
        "details": "This function will be deprecated in L2.",
        "params": {
          "header": "RLP encoded header"
        },
        "return": "Bitmap parent seal with set bits at indices correspoinding to signing validators."
      },
      "getVersionNumber()": {
        "return": "Storage version of the contract.Major version of the contract.Minor version of the contract.Patch version of the contract."
      },
      "hasActivatablePendingVotes(address,address)": {
        "details": "Pending votes cannot be activated until an election has been held.",
        "params": {
          "account": "The account with pending votes.",
          "group": "The validator group that `account` has pending votes for."
        },
        "return": "Whether or not `account` has activatable votes for `group`."
      },
      "hashHeader(bytes)": {
        "details": "This function will be deprecated in L2.",
        "params": {
          "header": "RLP encoded header"
        },
        "return": "Header hash."
      },
      "initialize(address,uint256,uint256,uint256,uint256)": {
        "details": "Should be called only once.",
        "params": {
          "_electabilityThreshold": "The minimum ratio of votes a group needs before its members can  be elected.",
          "_maxNumGroupsVotedFor": "The maximum number of groups that an account can vote for at once.",
          "minElectableValidators": "The minimum number of validators that can be elected.",
          "registryAddress": "The address of the registry core smart contract."
        }
      },
      "isBlocked()": {
        "details": "The function returns false if no blocking contract has been set.",
        "return": "Returns true if the contract is blocked, otherwise false."
      },
      "isOwner()": {
        "details": "Returns true if the caller is the current owner."
      },
      "markGroupEligible(address,address,address)": {
        "params": {
          "greater": "The address of the group that has received more votes than this group.",
          "group": "The address of the validator group.",
          "lesser": "The address of the group that has received fewer votes than this group."
        }
      },
      "markGroupIneligible(address)": {
        "details": "Can only be called by the registered \"Validators\" contract.",
        "params": {
          "group": "The address of the validator group."
        }
      },
      "minQuorumSize(uint256)": {
        "details": "Computed in celo-blockchain as int(math.Ceil(float64(2*valSet.Size()) / 3))This function will be deprecated in L2."
      },
      "minQuorumSizeInCurrentSet()": {
        "details": "This function will be deprecated in L2.",
        "return": "Byzantine quorum of validators."
      },
      "numberValidatorsInCurrentSet()": {
        "return": "Size of the current elected validator set."
      },
      "numberValidatorsInSet(uint256)": {
        "details": "This function will be deprecated in L2.",
        "params": {
          "blockNumber": "Block number to retrieve the validator set from."
        },
        "return": "Size of the validator set."
      },
      "owner()": {
        "details": "Returns the address of the current owner."
      },
      "renounceOwnership()": {
        "details": "Leaves the contract without owner. It will not be possible to call `onlyOwner` functions anymore. Can only be called by the current owner.     * NOTE: Renouncing ownership will leave the contract without an owner, thereby removing any functionality that is only available to the owner."
      },
      "revokeActive(address,uint256,address,address,uint256)": {
        "details": "Fails if the account has not voted on a validator group.",
        "params": {
          "greater": "The group receiving more votes than the group for which the vote was revoked,  or 0 if that group has the most votes of any validator group.",
          "group": "The validator group to revoke votes from.",
          "index": "The index of the group in the account's voting list.",
          "lesser": "The group receiving fewer votes than the group for which the vote was revoked,  or 0 if that group has the fewest votes of any validator group.",
          "value": "The number of votes to revoke."
        },
        "return": "True upon success."
      },
      "revokeAllActive(address,address,address,uint256)": {
        "details": "Fails if the account has not voted on a validator group.",
        "params": {
          "greater": "The group receiving more votes than the group for which the vote was revoked,  or 0 if that group has the most votes of any validator group.",
          "group": "The validator group to revoke votes from.",
          "index": "The index of the group in the account's voting list.",
          "lesser": "The group receiving fewer votes than the group for which the vote was revoked,  or 0 if that group has the fewest votes of any validator group."
        },
        "return": "True upon success."
      },
      "revokePending(address,uint256,address,address,uint256)": {
        "details": "Fails if the account has not voted on a validator group.",
        "params": {
          "greater": "The group receiving more votes than the group for which the vote was revoked,  or 0 if that group has the most votes of any validator group.",
          "group": "The validator group to revoke votes from.",
          "index": "The index of the group in the account's voting list.",
          "lesser": "The group receiving fewer votes than the group for which the vote was revoked,  or 0 if that group has the fewest votes of any validator group.",
          "value": "The number of votes to revoke."
        },
        "return": "True upon success."
      },
      "setAllowedToVoteOverMaxNumberOfGroups(bool)": {
        "params": {
          "flag": "The on/off flag."
        }
      },
      "setBlockedByContract(address)": {
        "details": "Can only be called by the owner of the contract.",
        "params": {
          "_blockedBy": "The address of the contract that will determine if this contract is blocked."
        }
      },
      "setElectabilityThreshold(uint256)": {
        "params": {
          "threshold": "Electability threshold as unwrapped Fraction."
        },
        "return": "True upon success."
      },
      "setElectableValidators(uint256,uint256)": {
        "params": {
          "max": "The maximum number of validators that can be elected.",
          "min": "The minimum number of validators that can be elected."
        },
        "return": "True upon success."
      },
      "setMaxNumGroupsVotedFor(uint256)": {
        "params": {
          "_maxNumGroupsVotedFor": "The maximum number of groups an account can vote for."
        },
        "return": "True upon success."
      },
      "setRegistry(address)": {
        "params": {
          "registryAddress": "The address of a registry contract for routing to other contracts."
        }
      },
      "transferOwnership(address)": {
        "details": "Transfers ownership of the contract to a new account (`newOwner`). Can only be called by the current owner."
      },
      "updateTotalVotesByAccountForGroup(address,address)": {
        "params": {
          "account": "The address of the voting account.",
          "group": "The address of the validator group."
        }
      },
      "validatorAddressFromCurrentSet(uint256)": {
        "params": {
          "index": "Index of requested validator in the validator set."
        },
        "return": "Address of validator at the requested index."
      },
      "validatorSignerAddressFromCurrentSet(uint256)": {
        "params": {
          "index": "Index of requested validator in the validator set."
        },
        "return": "Address of validator signer at the requested index."
      },
      "validatorSignerAddressFromSet(uint256,uint256)": {
        "details": "This function will be deprecated in L2.",
        "params": {
          "blockNumber": "Block number to retrieve the validator set from.",
          "index": "Index of requested validator in the validator set."
        },
        "return": "Address of validator signer at the requested index."
      },
      "vote(address,uint256,address,address)": {
        "details": "Fails if `group` is empty or not a validator group.",
        "params": {
          "greater": "The group receiving more votes than `group`, or 0 if `group` has the  most votes of any validator group.",
          "group": "The validator group to vote for.",
          "lesser": "The group receiving fewer votes than `group`, or 0 if `group` has the  fewest votes of any validator group.",
          "value": "The amount of gold to use to vote."
        },
        "return": "True upon success."
      }
    },
    "title": "A wrapper around Election that exposes onlyVm functions for testing."
  },
  "userdoc": {
    "methods": {
      "activate(address)": {
        "notice": "Converts `account`'s pending votes for `group` to active votes."
      },
      "activateForAccount(address,address)": {
        "notice": "Converts `account`'s pending votes for `group` to active votes."
      },
      "canReceiveVotes(address,uint256)": {
        "notice": "Returns whether or not a group can receive the specified number of votes."
      },
      "checkProofOfPossession(address,bytes,bytes)": {
        "notice": "Checks a BLS proof of possession."
      },
      "electValidatorAccounts()": {
        "notice": "Returns a list of elected validators with seats allocated to groups via the D'Hondt  method."
      },
      "electValidatorSigners()": {
        "notice": "Returns a list of elected validator signers with seats allocated to groups via the D'Hondt  method."
      },
      "forceDecrementVotes(address,uint256,address[],address[],uint256[])": {
        "notice": "Reduces the total amount of `account`'s voting gold by `value` by        iterating over all groups voted for by account."
      },
      "fractionMulExp(uint256,uint256,uint256,uint256,uint256,uint256)": {
        "notice": "calculate a * b^x for fractions a, b to `decimals` precision"
      },
      "getActiveVoteUnitsForGroup(address)": {
        "notice": "Returns the total active vote units made for `group`."
      },
      "getActiveVoteUnitsForGroupByAccount(address,address)": {
        "notice": "Returns the active vote units for `group` made by `account`."
      },
      "getActiveVotes()": {
        "notice": "Returns the active votes received across all groups."
      },
      "getActiveVotesForGroup(address)": {
        "notice": "Returns the active votes made for `group`."
      },
      "getActiveVotesForGroupByAccount(address,address)": {
        "notice": "Returns the active votes for `group` made by `account`."
      },
      "getBlockNumberFromHeader(bytes)": {
        "notice": "Parses block number out of header."
      },
      "getBlockedByContract()": {
        "notice": "Returns the address of the contract imposing the block."
      },
      "getCurrentValidatorSigners()": {
        "notice": "Returns get current validator signers using the precompiles."
      },
      "getElectabilityThreshold()": {
        "notice": "Gets the election threshold."
      },
      "getElectableValidators()": {
        "notice": "Returns the minimum and maximum number of validators that can be elected."
      },
      "getEligibleValidatorGroups()": {
        "notice": "Returns the list of validator groups eligible to elect validators."
      },
      "getEpochNumber()": {
        "notice": "Returns the epoch number at a block."
      },
      "getEpochNumberOfBlock(uint256)": {
        "notice": "Returns the epoch number at a block."
      },
      "getEpochSize()": {
        "notice": "Returns the current epoch size in blocks."
      },
      "getGroupEligibility(address)": {
        "notice": "Returns whether or not a group is eligible to receive votes."
      },
      "getGroupEpochRewards(address,uint256,uint256[])": {
        "notice": "Returns the amount of rewards that voters for `group` are due at the end of an epoch."
      },
      "getGroupEpochRewardsBasedOnScore(address,uint256,uint256)": {
        "notice": "Returns the amount of rewards that voters for `group` are due at the end of an epoch."
      },
      "getGroupsVotedForByAccount(address)": {
        "notice": "Returns the groups that `account` has voted for."
      },
      "getNumVotesReceivable(address)": {
        "notice": "Returns the number of votes that a group can receive."
      },
      "getParentSealBitmap(uint256)": {
        "notice": "Gets the parent seal bitmap from the header at the given block number."
      },
      "getPendingVotesForGroup(address)": {
        "notice": "Returns the pending votes made for `group`."
      },
      "getPendingVotesForGroupByAccount(address,address)": {
        "notice": "Returns the pending votes for `group` made by `account`."
      },
      "getTotalVotes()": {
        "notice": "Returns the total votes received across all groups."
      },
      "getTotalVotesByAccount(address)": {
        "notice": "Returns the total number of votes cast by an account."
      },
      "getTotalVotesForEligibleValidatorGroups()": {
        "notice": "Returns list of all validator groups and the number of votes they've received."
      },
      "getTotalVotesForGroup(address)": {
        "notice": "Returns the total votes made for `group`."
      },
      "getTotalVotesForGroupByAccount(address,address)": {
        "notice": "Returns the total votes for `group` made by `account`."
      },
      "getVerifiedSealBitmapFromHeader(bytes)": {
        "notice": "Verifies the BLS signature on the header and returns the seal bitmap. The validator set used for verification is retrieved based on the parent hash field of the header.  If the parent hash is not in the blockchain, verification fails."
      },
      "getVersionNumber()": {
        "notice": "Returns the storage, major, minor, and patch version of the contract."
      },
      "hasActivatablePendingVotes(address,address)": {
        "notice": "Returns whether or not an account's votes for the specified group can be activated."
      },
      "hashHeader(bytes)": {
        "notice": "Computes hash of header."
      },
      "initialize(address,uint256,uint256,uint256,uint256)": {
        "notice": "Used in place of the constructor to allow the contract to be upgradable via proxy."
      },
      "isBlocked()": {
        "notice": "Checks if the contract is currently blocked."
      },
      "markGroupEligible(address,address,address)": {
        "notice": "Marks a group eligible for electing validators."
      },
      "markGroupIneligible(address)": {
        "notice": "Marks a group ineligible for electing validators."
      },
      "minQuorumSize(uint256)": {
        "notice": "Returns the minimum number of required signers for a given block number."
      },
      "minQuorumSizeInCurrentSet()": {
        "notice": "Computes byzantine quorum from current validator set size"
      },
      "numberValidatorsInCurrentSet()": {
        "notice": "Gets the size of the current elected validator set."
      },
      "numberValidatorsInSet(uint256)": {
        "notice": "Gets the size of the validator set that must sign the given block number."
      },
      "revokeActive(address,uint256,address,address,uint256)": {
        "notice": "Revokes `value` active votes for `group`"
      },
      "revokeAllActive(address,address,address,uint256)": {
        "notice": "Revokes all active votes for `group`"
      },
      "revokePending(address,uint256,address,address,uint256)": {
        "notice": "Revokes `value` pending votes for `group`"
      },
      "setAllowedToVoteOverMaxNumberOfGroups(bool)": {
        "notice": "Allows to turn on/off voting over maxNumGroupsVotedFor. Once this is turned on and account voted for more than maxNumGroupsVotedFor, it is account's obligation to run updateTotalVotesByAccountForGroup once a day. If not run, voting power of account will not reflect rewards awarded."
      },
      "setBlockedByContract(address)": {
        "notice": "Sets the address of the blocking contract."
      },
      "setElectabilityThreshold(uint256)": {
        "notice": "Sets the electability threshold."
      },
      "setElectableValidators(uint256,uint256)": {
        "notice": "Updates the minimum and maximum number of validators that can be elected."
      },
      "setMaxNumGroupsVotedFor(uint256)": {
        "notice": "Updates the maximum number of groups an account can be voting for at once."
      },
      "setRegistry(address)": {
        "notice": "Updates the address pointing to a Registry contract."
      },
      "updateTotalVotesByAccountForGroup(address,address)": {
        "notice": "Counts and caches account's votes for group."
      },
      "validatorAddressFromCurrentSet(uint256)": {
        "notice": "Gets a validator address from the current validator set."
      },
      "validatorSignerAddressFromCurrentSet(uint256)": {
        "notice": "Gets a validator signer address from the current validator set."
      },
      "validatorSignerAddressFromSet(uint256,uint256)": {
        "notice": "Gets a validator signer address from the validator set at the given block number."
      },
      "vote(address,uint256,address,address)": {
        "notice": "Increments the number of total and pending votes for `group`."
      }
    }
  }
}