{
  "contractName": "EpochRewardsMock",
  "abi": [
    {
      "anonymous": false,
      "inputs": [
        {
          "indexed": true,
          "internalType": "address",
          "name": "partner",
          "type": "address"
        },
        {
          "indexed": false,
          "internalType": "uint256",
          "name": "fraction",
          "type": "uint256"
        }
      ],
      "name": "CarbonOffsettingFundSet",
      "type": "event"
    },
    {
      "anonymous": false,
      "inputs": [
        {
          "indexed": false,
          "internalType": "uint256",
          "name": "fraction",
          "type": "uint256"
        }
      ],
      "name": "CommunityRewardFractionSet",
      "type": "event"
    },
    {
      "anonymous": false,
      "inputs": [
        {
          "indexed": true,
          "internalType": "address",
          "name": "previousOwner",
          "type": "address"
        },
        {
          "indexed": true,
          "internalType": "address",
          "name": "newOwner",
          "type": "address"
        }
      ],
      "name": "OwnershipTransferred",
      "type": "event"
    },
    {
      "anonymous": false,
      "inputs": [
        {
          "indexed": true,
          "internalType": "address",
          "name": "registryAddress",
          "type": "address"
        }
      ],
      "name": "RegistrySet",
      "type": "event"
    },
    {
      "anonymous": false,
      "inputs": [
        {
          "indexed": false,
          "internalType": "uint256",
          "name": "max",
          "type": "uint256"
        },
        {
          "indexed": false,
          "internalType": "uint256",
          "name": "underspendAdjustmentFactor",
          "type": "uint256"
        },
        {
          "indexed": false,
          "internalType": "uint256",
          "name": "overspendAdjustmentFactor",
          "type": "uint256"
        }
      ],
      "name": "RewardsMultiplierParametersSet",
      "type": "event"
    },
    {
      "anonymous": false,
      "inputs": [
        {
          "indexed": false,
          "internalType": "uint256",
          "name": "payment",
          "type": "uint256"
        }
      ],
      "name": "TargetValidatorEpochPaymentSet",
      "type": "event"
    },
    {
      "anonymous": false,
      "inputs": [
        {
          "indexed": false,
          "internalType": "uint256",
          "name": "fraction",
          "type": "uint256"
        }
      ],
      "name": "TargetVotingGoldFractionSet",
      "type": "event"
    },
    {
      "anonymous": false,
      "inputs": [
        {
          "indexed": false,
          "internalType": "uint256",
          "name": "max",
          "type": "uint256"
        },
        {
          "indexed": false,
          "internalType": "uint256",
          "name": "adjustmentFactor",
          "type": "uint256"
        }
      ],
      "name": "TargetVotingYieldParametersSet",
      "type": "event"
    },
    {
      "anonymous": false,
      "inputs": [
        {
          "indexed": false,
          "internalType": "uint256",
          "name": "target",
          "type": "uint256"
        }
      ],
      "name": "TargetVotingYieldSet",
      "type": "event"
    },
    {
      "anonymous": false,
      "inputs": [
        {
          "indexed": false,
          "internalType": "uint256",
          "name": "fraction",
          "type": "uint256"
        }
      ],
      "name": "TargetVotingYieldUpdated",
      "type": "event"
    },
    {
      "constant": true,
      "inputs": [],
      "name": "calculateTargetEpochRewards",
      "outputs": [
        {
          "internalType": "uint256",
          "name": "",
          "type": "uint256"
        },
        {
          "internalType": "uint256",
          "name": "",
          "type": "uint256"
        },
        {
          "internalType": "uint256",
          "name": "",
          "type": "uint256"
        },
        {
          "internalType": "uint256",
          "name": "",
          "type": "uint256"
        }
      ],
      "payable": false,
      "stateMutability": "view",
      "type": "function"
    },
    {
      "constant": true,
      "inputs": [],
      "name": "carbonOffsettingPartner",
      "outputs": [
        {
          "internalType": "address",
          "name": "",
          "type": "address"
        }
      ],
      "payable": false,
      "stateMutability": "view",
      "type": "function"
    },
    {
      "constant": true,
      "inputs": [
        {
          "internalType": "address",
          "name": "sender",
          "type": "address"
        },
        {
          "internalType": "bytes",
          "name": "blsKey",
          "type": "bytes"
        },
        {
          "internalType": "bytes",
          "name": "blsPop",
          "type": "bytes"
        }
      ],
      "name": "checkProofOfPossession",
      "outputs": [
        {
          "internalType": "bool",
          "name": "",
          "type": "bool"
        }
      ],
      "payable": false,
      "stateMutability": "view",
      "type": "function"
    },
    {
      "constant": true,
      "inputs": [
        {
          "internalType": "uint256",
          "name": "aNumerator",
          "type": "uint256"
        },
        {
          "internalType": "uint256",
          "name": "aDenominator",
          "type": "uint256"
        },
        {
          "internalType": "uint256",
          "name": "bNumerator",
          "type": "uint256"
        },
        {
          "internalType": "uint256",
          "name": "bDenominator",
          "type": "uint256"
        },
        {
          "internalType": "uint256",
          "name": "exponent",
          "type": "uint256"
        },
        {
          "internalType": "uint256",
          "name": "_decimals",
          "type": "uint256"
        }
      ],
      "name": "fractionMulExp",
      "outputs": [
        {
          "internalType": "uint256",
          "name": "",
          "type": "uint256"
        },
        {
          "internalType": "uint256",
          "name": "",
          "type": "uint256"
        }
      ],
      "payable": false,
      "stateMutability": "view",
      "type": "function"
    },
    {
      "constant": true,
      "inputs": [
        {
          "internalType": "bytes",
          "name": "header",
          "type": "bytes"
        }
      ],
      "name": "getBlockNumberFromHeader",
      "outputs": [
        {
          "internalType": "uint256",
          "name": "",
          "type": "uint256"
        }
      ],
      "payable": false,
      "stateMutability": "view",
      "type": "function"
    },
    {
      "constant": true,
      "inputs": [],
      "name": "getCarbonOffsettingFraction",
      "outputs": [
        {
          "internalType": "uint256",
          "name": "",
          "type": "uint256"
        }
      ],
      "payable": false,
      "stateMutability": "view",
      "type": "function"
    },
    {
      "constant": true,
      "inputs": [],
      "name": "getCommunityRewardFraction",
      "outputs": [
        {
          "internalType": "uint256",
          "name": "",
          "type": "uint256"
        }
      ],
      "payable": false,
      "stateMutability": "view",
      "type": "function"
    },
    {
      "constant": true,
      "inputs": [],
      "name": "getEpochNumber",
      "outputs": [
        {
          "internalType": "uint256",
          "name": "",
          "type": "uint256"
        }
      ],
      "payable": false,
      "stateMutability": "view",
      "type": "function"
    },
    {
      "constant": true,
      "inputs": [
        {
          "internalType": "uint256",
          "name": "blockNumber",
          "type": "uint256"
        }
      ],
      "name": "getEpochNumberOfBlock",
      "outputs": [
        {
          "internalType": "uint256",
          "name": "",
          "type": "uint256"
        }
      ],
      "payable": false,
      "stateMutability": "view",
      "type": "function"
    },
    {
      "constant": true,
      "inputs": [],
      "name": "getEpochSize",
      "outputs": [
        {
          "internalType": "uint256",
          "name": "",
          "type": "uint256"
        }
      ],
      "payable": false,
      "stateMutability": "view",
      "type": "function"
    },
    {
      "constant": true,
      "inputs": [
        {
          "internalType": "uint256",
          "name": "blockNumber",
          "type": "uint256"
        }
      ],
      "name": "getParentSealBitmap",
      "outputs": [
        {
          "internalType": "bytes32",
          "name": "",
          "type": "bytes32"
        }
      ],
      "payable": false,
      "stateMutability": "view",
      "type": "function"
    },
    {
      "constant": true,
      "inputs": [],
      "name": "getRewardsMultiplierParameters",
      "outputs": [
        {
          "internalType": "uint256",
          "name": "",
          "type": "uint256"
        },
        {
          "internalType": "uint256",
          "name": "",
          "type": "uint256"
        },
        {
          "internalType": "uint256",
          "name": "",
          "type": "uint256"
        }
      ],
      "payable": false,
      "stateMutability": "view",
      "type": "function"
    },
    {
      "constant": true,
      "inputs": [],
      "name": "getTargetGoldTotalSupply",
      "outputs": [
        {
          "internalType": "uint256",
          "name": "",
          "type": "uint256"
        }
      ],
      "payable": false,
      "stateMutability": "view",
      "type": "function"
    },
    {
      "constant": true,
      "inputs": [],
      "name": "getTargetTotalEpochPaymentsInGold",
      "outputs": [
        {
          "internalType": "uint256",
          "name": "",
          "type": "uint256"
        }
      ],
      "payable": false,
      "stateMutability": "view",
      "type": "function"
    },
    {
      "constant": true,
      "inputs": [],
      "name": "getTargetVoterRewards",
      "outputs": [
        {
          "internalType": "uint256",
          "name": "",
          "type": "uint256"
        }
      ],
      "payable": false,
      "stateMutability": "view",
      "type": "function"
    },
    {
      "constant": true,
      "inputs": [],
      "name": "getTargetVotingGoldFraction",
      "outputs": [
        {
          "internalType": "uint256",
          "name": "",
          "type": "uint256"
        }
      ],
      "payable": false,
      "stateMutability": "view",
      "type": "function"
    },
    {
      "constant": true,
      "inputs": [],
      "name": "getTargetVotingYieldParameters",
      "outputs": [
        {
          "internalType": "uint256",
          "name": "",
          "type": "uint256"
        },
        {
          "internalType": "uint256",
          "name": "",
          "type": "uint256"
        },
        {
          "internalType": "uint256",
          "name": "",
          "type": "uint256"
        }
      ],
      "payable": false,
      "stateMutability": "view",
      "type": "function"
    },
    {
      "constant": true,
      "inputs": [
        {
          "internalType": "bytes",
          "name": "header",
          "type": "bytes"
        }
      ],
      "name": "getVerifiedSealBitmapFromHeader",
      "outputs": [
        {
          "internalType": "bytes32",
          "name": "",
          "type": "bytes32"
        }
      ],
      "payable": false,
      "stateMutability": "view",
      "type": "function"
    },
    {
      "constant": true,
      "inputs": [],
      "name": "getVersionNumber",
      "outputs": [
        {
          "internalType": "uint256",
          "name": "",
          "type": "uint256"
        },
        {
          "internalType": "uint256",
          "name": "",
          "type": "uint256"
        },
        {
          "internalType": "uint256",
          "name": "",
          "type": "uint256"
        },
        {
          "internalType": "uint256",
          "name": "",
          "type": "uint256"
        }
      ],
      "payable": false,
      "stateMutability": "pure",
      "type": "function"
    },
    {
      "constant": true,
      "inputs": [],
      "name": "getVotingGoldFraction",
      "outputs": [
        {
          "internalType": "uint256",
          "name": "",
          "type": "uint256"
        }
      ],
      "payable": false,
      "stateMutability": "view",
      "type": "function"
    },
    {
      "constant": true,
      "inputs": [
        {
          "internalType": "bytes",
          "name": "header",
          "type": "bytes"
        }
      ],
      "name": "hashHeader",
      "outputs": [
        {
          "internalType": "bytes32",
          "name": "",
          "type": "bytes32"
        }
      ],
      "payable": false,
      "stateMutability": "view",
      "type": "function"
    },
    {
      "constant": false,
      "inputs": [
        {
          "internalType": "address",
          "name": "registryAddress",
          "type": "address"
        },
        {
          "internalType": "uint256",
          "name": "targetVotingYieldInitial",
          "type": "uint256"
        },
        {
          "internalType": "uint256",
          "name": "targetVotingYieldMax",
          "type": "uint256"
        },
        {
          "internalType": "uint256",
          "name": "targetVotingYieldAdjustmentFactor",
          "type": "uint256"
        },
        {
          "internalType": "uint256",
          "name": "rewardsMultiplierMax",
          "type": "uint256"
        },
        {
          "internalType": "uint256",
          "name": "rewardsMultiplierUnderspendAdjustmentFactor",
          "type": "uint256"
        },
        {
          "internalType": "uint256",
          "name": "rewardsMultiplierOverspendAdjustmentFactor",
          "type": "uint256"
        },
        {
          "internalType": "uint256",
          "name": "_targetVotingGoldFraction",
          "type": "uint256"
        },
        {
          "internalType": "uint256",
          "name": "_targetValidatorEpochPayment",
          "type": "uint256"
        },
        {
          "internalType": "uint256",
          "name": "_communityRewardFraction",
          "type": "uint256"
        },
        {
          "internalType": "address",
          "name": "_carbonOffsettingPartner",
          "type": "address"
        },
        {
          "internalType": "uint256",
          "name": "_carbonOffsettingFraction",
          "type": "uint256"
        }
      ],
      "name": "initialize",
      "outputs": [],
      "payable": false,
      "stateMutability": "nonpayable",
      "type": "function"
    },
    {
      "constant": true,
      "inputs": [],
      "name": "initialized",
      "outputs": [
        {
          "internalType": "bool",
          "name": "",
          "type": "bool"
        }
      ],
      "payable": false,
      "stateMutability": "view",
      "type": "function"
    },
    {
      "constant": true,
      "inputs": [],
      "name": "isOwner",
      "outputs": [
        {
          "internalType": "bool",
          "name": "",
          "type": "bool"
        }
      ],
      "payable": false,
      "stateMutability": "view",
      "type": "function"
    },
    {
      "constant": true,
      "inputs": [],
      "name": "isReserveLow",
      "outputs": [
        {
          "internalType": "bool",
          "name": "",
          "type": "bool"
        }
      ],
      "payable": false,
      "stateMutability": "view",
      "type": "function"
    },
    {
      "constant": true,
      "inputs": [
        {
          "internalType": "uint256",
          "name": "blockNumber",
          "type": "uint256"
        }
      ],
      "name": "minQuorumSize",
      "outputs": [
        {
          "internalType": "uint256",
          "name": "",
          "type": "uint256"
        }
      ],
      "payable": false,
      "stateMutability": "view",
      "type": "function"
    },
    {
      "constant": true,
      "inputs": [],
      "name": "minQuorumSizeInCurrentSet",
      "outputs": [
        {
          "internalType": "uint256",
          "name": "",
          "type": "uint256"
        }
      ],
      "payable": false,
      "stateMutability": "view",
      "type": "function"
    },
    {
      "constant": true,
      "inputs": [
        {
          "internalType": "uint256",
          "name": "blockNumber",
          "type": "uint256"
        }
      ],
      "name": "numberValidatorsInSet",
      "outputs": [
        {
          "internalType": "uint256",
          "name": "",
          "type": "uint256"
        }
      ],
      "payable": false,
      "stateMutability": "view",
      "type": "function"
    },
    {
      "constant": true,
      "inputs": [],
      "name": "owner",
      "outputs": [
        {
          "internalType": "address",
          "name": "",
          "type": "address"
        }
      ],
      "payable": false,
      "stateMutability": "view",
      "type": "function"
    },
    {
      "constant": true,
      "inputs": [],
      "name": "registry",
      "outputs": [
        {
          "internalType": "contract IRegistry",
          "name": "",
          "type": "address"
        }
      ],
      "payable": false,
      "stateMutability": "view",
      "type": "function"
    },
    {
      "constant": false,
      "inputs": [],
      "name": "renounceOwnership",
      "outputs": [],
      "payable": false,
      "stateMutability": "nonpayable",
      "type": "function"
    },
    {
      "constant": false,
      "inputs": [
        {
          "internalType": "address",
          "name": "partner",
          "type": "address"
        },
        {
          "internalType": "uint256",
          "name": "value",
          "type": "uint256"
        }
      ],
      "name": "setCarbonOffsettingFund",
      "outputs": [
        {
          "internalType": "bool",
          "name": "",
          "type": "bool"
        }
      ],
      "payable": false,
      "stateMutability": "nonpayable",
      "type": "function"
    },
    {
      "constant": false,
      "inputs": [
        {
          "internalType": "uint256",
          "name": "value",
          "type": "uint256"
        }
      ],
      "name": "setCommunityRewardFraction",
      "outputs": [
        {
          "internalType": "bool",
          "name": "",
          "type": "bool"
        }
      ],
      "payable": false,
      "stateMutability": "nonpayable",
      "type": "function"
    },
    {
      "constant": false,
      "inputs": [
        {
          "internalType": "address",
          "name": "registryAddress",
          "type": "address"
        }
      ],
      "name": "setRegistry",
      "outputs": [],
      "payable": false,
      "stateMutability": "nonpayable",
      "type": "function"
    },
    {
      "constant": false,
      "inputs": [
        {
          "internalType": "uint256",
          "name": "max",
          "type": "uint256"
        },
        {
          "internalType": "uint256",
          "name": "underspendAdjustmentFactor",
          "type": "uint256"
        },
        {
          "internalType": "uint256",
          "name": "overspendAdjustmentFactor",
          "type": "uint256"
        }
      ],
      "name": "setRewardsMultiplierParameters",
      "outputs": [
        {
          "internalType": "bool",
          "name": "",
          "type": "bool"
        }
      ],
      "payable": false,
      "stateMutability": "nonpayable",
      "type": "function"
    },
    {
      "constant": false,
      "inputs": [
        {
          "internalType": "uint256",
          "name": "value",
          "type": "uint256"
        }
      ],
      "name": "setTargetValidatorEpochPayment",
      "outputs": [
        {
          "internalType": "bool",
          "name": "",
          "type": "bool"
        }
      ],
      "payable": false,
      "stateMutability": "nonpayable",
      "type": "function"
    },
    {
      "constant": false,
      "inputs": [
        {
          "internalType": "uint256",
          "name": "value",
          "type": "uint256"
        }
      ],
      "name": "setTargetVotingGoldFraction",
      "outputs": [
        {
          "internalType": "bool",
          "name": "",
          "type": "bool"
        }
      ],
      "payable": false,
      "stateMutability": "nonpayable",
      "type": "function"
    },
    {
      "constant": false,
      "inputs": [
        {
          "internalType": "uint256",
          "name": "targetVotingYield",
          "type": "uint256"
        }
      ],
      "name": "setTargetVotingYield",
      "outputs": [
        {
          "internalType": "bool",
          "name": "",
          "type": "bool"
        }
      ],
      "payable": false,
      "stateMutability": "nonpayable",
      "type": "function"
    },
    {
      "constant": false,
      "inputs": [
        {
          "internalType": "uint256",
          "name": "max",
          "type": "uint256"
        },
        {
          "internalType": "uint256",
          "name": "adjustmentFactor",
          "type": "uint256"
        }
      ],
      "name": "setTargetVotingYieldParameters",
      "outputs": [
        {
          "internalType": "bool",
          "name": "",
          "type": "bool"
        }
      ],
      "payable": false,
      "stateMutability": "nonpayable",
      "type": "function"
    },
    {
      "constant": true,
      "inputs": [],
      "name": "startTime",
      "outputs": [
        {
          "internalType": "uint256",
          "name": "",
          "type": "uint256"
        }
      ],
      "payable": false,
      "stateMutability": "view",
      "type": "function"
    },
    {
      "constant": true,
      "inputs": [],
      "name": "targetValidatorEpochPayment",
      "outputs": [
        {
          "internalType": "uint256",
          "name": "",
          "type": "uint256"
        }
      ],
      "payable": false,
      "stateMutability": "view",
      "type": "function"
    },
    {
      "constant": false,
      "inputs": [
        {
          "internalType": "address",
          "name": "newOwner",
          "type": "address"
        }
      ],
      "name": "transferOwnership",
      "outputs": [],
      "payable": false,
      "stateMutability": "nonpayable",
      "type": "function"
    },
    {
      "constant": false,
      "inputs": [],
      "name": "updateTargetVotingYield",
      "outputs": [],
      "payable": false,
      "stateMutability": "nonpayable",
      "type": "function"
    },
    {
      "constant": true,
      "inputs": [
        {
          "internalType": "uint256",
          "name": "index",
          "type": "uint256"
        }
      ],
      "name": "validatorAddressFromCurrentSet",
      "outputs": [
        {
          "internalType": "address",
          "name": "",
          "type": "address"
        }
      ],
      "payable": false,
      "stateMutability": "view",
      "type": "function"
    },
    {
      "constant": true,
      "inputs": [
        {
          "internalType": "uint256",
          "name": "index",
          "type": "uint256"
        }
      ],
      "name": "validatorSignerAddressFromCurrentSet",
      "outputs": [
        {
          "internalType": "address",
          "name": "",
          "type": "address"
        }
      ],
      "payable": false,
      "stateMutability": "view",
      "type": "function"
    },
    {
      "constant": true,
      "inputs": [
        {
          "internalType": "uint256",
          "name": "index",
          "type": "uint256"
        },
        {
          "internalType": "uint256",
          "name": "blockNumber",
          "type": "uint256"
        }
      ],
      "name": "validatorSignerAddressFromSet",
      "outputs": [
        {
          "internalType": "address",
          "name": "",
          "type": "address"
        }
      ],
      "payable": false,
      "stateMutability": "view",
      "type": "function"
    },
    {
      "constant": false,
      "inputs": [
        {
          "internalType": "uint256",
          "name": "value",
          "type": "uint256"
        }
      ],
      "name": "setNumberValidatorsInCurrentSet",
      "outputs": [],
      "payable": false,
      "stateMutability": "nonpayable",
      "type": "function"
    },
    {
      "constant": true,
      "inputs": [],
      "name": "getRewardsMultiplier",
      "outputs": [
        {
          "internalType": "uint256",
          "name": "",
          "type": "uint256"
        }
      ],
      "payable": false,
      "stateMutability": "view",
      "type": "function"
    },
    {
      "constant": true,
      "inputs": [
        {
          "internalType": "uint256",
          "name": "targetGoldTotalSupplyIncrease",
          "type": "uint256"
        }
      ],
      "name": "getRewardsMultiplier",
      "outputs": [
        {
          "internalType": "uint256",
          "name": "",
          "type": "uint256"
        }
      ],
      "payable": false,
      "stateMutability": "view",
      "type": "function"
    },
    {
      "constant": true,
      "inputs": [],
      "name": "numberValidatorsInCurrentSet",
      "outputs": [
        {
          "internalType": "uint256",
          "name": "",
          "type": "uint256"
        }
      ],
      "payable": false,
      "stateMutability": "view",
      "type": "function"
    }
  ],
  "bytecode": "0x6080604052600060025560018060006200001e620000e660201b60201c565b9050806000806101000a81548173ffffffffffffffffffffffffffffffffffffffff021916908373ffffffffffffffffffffffffffffffffffffffff1602179055508073ffffffffffffffffffffffffffffffffffffffff16600073ffffffffffffffffffffffffffffffffffffffff167f8be0079c531659141344cd1fd0a4f28419497f9722a3daafe3b4186f6b6457e060405160405180910390a35080620000de576001600060146101000a81548160ff0219169083151502179055505b5050620000ee565b600033905090565b61654f80620000fe6000396000f3fe608060405234801561001057600080fd5b50600436106102d65760003560e01c80637d164125116101825780639b2b592f116100e9578063d632994c116100a2578063e50e652d1161007c578063e50e652d14611009578063ec6830721461104b578063f2fde38b146110c6578063fae8db0a1461110a576102d6565b8063d632994c14610f9f578063df4da46114610fcd578063e185aaa814610feb576102d6565b80639b2b592f14610e51578063a1b9596214610e93578063a91ee0dc14610eb1578063ae098de214610ef5578063b63b4a2314610f13578063cd52782e14610f59576102d6565b806392ecd7451161013b57806392ecd74514610d5d5780639402838414610d6757806396c3d2fd14610dad5780639917907f14610df35780639a7b3be714610e115780639ad0cce714610e2f576102d6565b80637d16412514610b8c5780638331c1d714610baa57806387ee8a0f14610c045780638a88362614610c225780638da5cb5b14610cf15780638f32d59b14610d3b576102d6565b80635049890f1161024157806367960e91116101fa57806376d92bd2116101d457806376d92bd214610a1957806378e9792514610a5b5780637b10399914610a795780637cca2a3c14610ac3576102d6565b806367960e9114610922578063715018a6146109f15780637385e5da146109fb576102d6565b80635049890f146107aa57806354255be0146107c85780635918bb58146107fb5780635d180adb1461084b5780635f396e48146108c357806364347043146108ef576102d6565b806323f0ab651161029357806323f0ab651461046d5780632848f9e3146105f75780633b1eb4bf14610615578063434c99c4146106575780634901c725146106bd5780634b2c2f44146106db576102d6565b80630203ab24146102db57806311fb9e84146102f9578063123633ea14610367578063158ef93e146103d5578063171af90f146103f757806322dae21f14610423575b600080fd5b6102e361114c565b6040518082815260200191505060405180910390f35b6103256004803603602081101561030f57600080fd5b810190808035906020019092919050505061116b565b604051808273ffffffffffffffffffffffffffffffffffffffff1673ffffffffffffffffffffffffffffffffffffffff16815260200191505060405180910390f35b6103936004803603602081101561037d57600080fd5b8101908080359060200190929190505050611264565b604051808273ffffffffffffffffffffffffffffffffffffffff1673ffffffffffffffffffffffffffffffffffffffff16815260200191505060405180910390f35b6103dd61131e565b604051808215151515815260200191505060405180910390f35b6103ff611331565b60405180848152602001838152602001828152602001935050505060405180910390f35b61042b6113aa565b604051808273ffffffffffffffffffffffffffffffffffffffff1673ffffffffffffffffffffffffffffffffffffffff16815260200191505060405180910390f35b6105dd6004803603606081101561048357600080fd5b81019080803573ffffffffffffffffffffffffffffffffffffffff169060200190929190803590602001906401000000008111156104c057600080fd5b8201836020820111156104d257600080fd5b803590602001918460018302840111640100000000831117156104f457600080fd5b91908080601f016020809104026020016040519081016040528093929190818152602001838380828437600081840152601f19601f8201169050808301925050505050505091929192908035906020019064010000000081111561055757600080fd5b82018360208201111561056957600080fd5b8035906020019184600183028401116401000000008311171561058b57600080fd5b91908080601f016020809104026020016040519081016040528093929190818152602001838380828437600081840152601f19601f8201169050808301925050505050505091929192905050506113d0565b604051808215151515815260200191505060405180910390f35b6105ff611592565b6040518082815260200191505060405180910390f35b6106416004803603602081101561062b57600080fd5b810190808035906020019092919050505061165c565b6040518082815260200191505060405180910390f35b6106a36004803603604081101561066d57600080fd5b81019080803573ffffffffffffffffffffffffffffffffffffffff1690602001909291908035906020019092919050505061171e565b604051808215151515815260200191505060405180910390f35b6106c561199f565b6040518082815260200191505060405180910390f35b610794600480360360208110156106f157600080fd5b810190808035906020019064010000000081111561070e57600080fd5b82018360208201111561072057600080fd5b8035906020019184600183028401116401000000008311171561074257600080fd5b91908080601f016020809104026020016040519081016040528093929190818152602001838380828437600081840152601f19601f820116905080830192505050505050509192919290505050611c87565b6040518082815260200191505060405180910390f35b6107b2611e23565b6040518082815260200191505060405180910390f35b6107d0611f4d565b6040518085815260200184815260200183815260200182815260200194505050505060405180910390f35b6108316004803603604081101561081157600080fd5b810190808035906020019092919080359060200190929190505050611f74565b604051808215151515815260200191505060405180910390f35b6108816004803603604081101561086157600080fd5b81019080803590602001909291908035906020019092919050505061219d565b604051808273ffffffffffffffffffffffffffffffffffffffff1673ffffffffffffffffffffffffffffffffffffffff16815260200191505060405180910390f35b6108cb6122f7565b60405180848152602001838152602001828152602001935050505060405180910390f35b6108f7612376565b6040518085815260200184815260200183815260200182815260200194505050505060405180910390f35b6109db6004803603602081101561093857600080fd5b810190808035906020019064010000000081111561095557600080fd5b82018360208201111561096757600080fd5b8035906020019184600183028401116401000000008311171561098957600080fd5b91908080601f016020809104026020016040519081016040528093929190818152602001838380828437600081840152601f19601f820116905080830192505050505050509192919290505050612496565b6040518082815260200191505060405180910390f35b6109f9612632565b005b610a0361276b565b6040518082815260200191505060405180910390f35b610a4560048036036020811015610a2f57600080fd5b8101908080359060200190929190505050612783565b6040518082815260200191505060405180910390f35b610a6361279d565b6040518082815260200191505060405180910390f35b610a816127a3565b604051808273ffffffffffffffffffffffffffffffffffffffff1673ffffffffffffffffffffffffffffffffffffffff16815260200191505060405180910390f35b610b8a6004803603610180811015610ada57600080fd5b81019080803573ffffffffffffffffffffffffffffffffffffffff169060200190929190803590602001909291908035906020019092919080359060200190929190803590602001909291908035906020019092919080359060200190929190803590602001909291908035906020019092919080359060200190929190803573ffffffffffffffffffffffffffffffffffffffff169060200190929190803590602001909291905050506127c9565b005b610b946128d8565b6040518082815260200191505060405180910390f35b610bea60048036036060811015610bc057600080fd5b810190808035906020019092919080359060200190929190803590602001909291905050506128fe565b604051808215151515815260200191505060405180910390f35b610c0c612b34565b6040518082815260200191505060405180910390f35b610cdb60048036036020811015610c3857600080fd5b8101908080359060200190640100000000811115610c5557600080fd5b820183602082011115610c6757600080fd5b80359060200191846001830284011164010000000083111715610c8957600080fd5b91908080601f016020809104026020016040519081016040528093929190818152602001838380828437600081840152601f19601f820116905080830192505050505050509192919290505050612b3e565b6040518082815260200191505060405180910390f35b610cf9612cda565b604051808273ffffffffffffffffffffffffffffffffffffffff1673ffffffffffffffffffffffffffffffffffffffff16815260200191505060405180910390f35b610d43612d03565b604051808215151515815260200191505060405180910390f35b610d65612d61565b005b610d9360048036036020811015610d7d57600080fd5b81019080803590602001909291905050506130cb565b604051808215151515815260200191505060405180910390f35b610dd960048036036020811015610dc357600080fd5b810190808035906020019092919050505061327d565b604051808215151515815260200191505060405180910390f35b610dfb61339b565b6040518082815260200191505060405180910390f35b610e196133c1565b6040518082815260200191505060405180910390f35b610e376133d1565b604051808215151515815260200191505060405180910390f35b610e7d60048036036020811015610e6757600080fd5b8101908080359060200190929190505050613533565b6040518082815260200191505060405180910390f35b610e9b613684565b6040518082815260200191505060405180910390f35b610ef360048036036020811015610ec757600080fd5b81019080803573ffffffffffffffffffffffffffffffffffffffff169060200190929190505050613868565b005b610efd613a0c565b6040518082815260200191505060405180910390f35b610f3f60048036036020811015610f2957600080fd5b8101908080359060200190929190505050613a32565b604051808215151515815260200191505060405180910390f35b610f8560048036036020811015610f6f57600080fd5b8101908080359060200190929190505050613b97565b604051808215151515815260200191505060405180910390f35b610fcb60048036036020811015610fb557600080fd5b8101908080359060200190929190505050613cfb565b005b610fd5613d05565b6040518082815260200191505060405180910390f35b610ff3613e5c565b6040518082815260200191505060405180910390f35b6110356004803603602081101561101f57600080fd5b8101908080359060200190929190505050613e62565b6040518082815260200191505060405180910390f35b6110a9600480360360c081101561106157600080fd5b81019080803590602001909291908035906020019092919080359060200190929190803590602001909291908035906020019092919080359060200190929190505050613eb5565b604051808381526020018281526020019250505060405180910390f35b611108600480360360208110156110dc57600080fd5b81019080803573ffffffffffffffffffffffffffffffffffffffff1690602001909291905050506140d1565b005b6111366004803603602081101561112057600080fd5b8101908080359060200190929190505050614157565b6040518082815260200191505060405180910390f35b600061116661116161115c6142a8565b61435f565b614664565b905090565b6000611175614672565b6111ca576040517f08c379a000000000000000000000000000000000000000000000000000000000815260040180806020018281038252602381526020018061645e6023913960400191505060405180910390fd5b6111d26146a3565b73ffffffffffffffffffffffffffffffffffffffff16638657f615836040518263ffffffff1660e01b81526004018082815260200191505060206040518083038186803b15801561122257600080fd5b505afa158015611236573d6000803e3d6000fd5b505050506040513d602081101561124c57600080fd5b81019080805190602001909291905050509050919050565b600061126e614672565b1561130d5761127b6146a3565b73ffffffffffffffffffffffffffffffffffffffff16632ba47274836040518263ffffffff1660e01b81526004018082815260200191505060206040518083038186803b1580156112cb57600080fd5b505afa1580156112df573d6000803e3d6000fd5b505050506040513d60208110156112f557600080fd5b81019080805190602001909291905050509050611319565b6113168261479e565b90505b919050565b600060149054906101000a900460ff1681565b6000806000806006905061135c81600001604051806020016040529081600082015481525050614664565b61137d82600201604051806020016040529081600082015481525050614664565b61139e83600101604051806020016040529081600082015481525050614664565b93509350935050909192565b600c60009054906101000a900473ffffffffffffffffffffffffffffffffffffffff1681565b60006113da6148f7565b600060fb73ffffffffffffffffffffffffffffffffffffffff16858585604051602001808473ffffffffffffffffffffffffffffffffffffffff1673ffffffffffffffffffffffffffffffffffffffff1660601b815260140183805190602001908083835b60208310611462578051825260208201915060208101905060208303925061143f565b6001836020036101000a03801982511681845116808217855250505050505090500182805190602001908083835b602083106114b35780518252602082019150602081019050602083039250611490565b6001836020036101000a03801982511681845116808217855250505050505090500193505050506040516020818303038152906040526040518082805190602001908083835b6020831061151c57805182526020820191506020810190506020830392506114f9565b6001836020036101000a038019825116818451168082178552505050505050905001915050600060405180830381855afa9150503d806000811461157c576040519150601f19603f3d011682016040523d82523d6000602084013e611581565b606091505b505080915050809150509392505050565b600061165761165260066000016040518060200160405290816000820154815250506116446115bf614957565b73ffffffffffffffffffffffffffffffffffffffff16631f6042436040518163ffffffff1660e01b815260040160206040518083038186803b15801561160457600080fd5b505afa158015611618573d6000803e3d6000fd5b505050506040513d602081101561162e57600080fd5b8101908080519060200190929190505050614a52565b614adc90919063ffffffff16565b614f3b565b905090565b6000611666614672565b15611705576116736146a3565b73ffffffffffffffffffffffffffffffffffffffff16633b1eb4bf836040518263ffffffff1660e01b81526004018082815260200191505060206040518083038186803b1580156116c357600080fd5b505afa1580156116d7573d6000803e3d6000fd5b505050506040513d60208110156116ed57600080fd5b81019080805190602001909291905050509050611719565b61171682611711613d05565b614f5c565b90505b919050565b6000611728612d03565b61179a576040517f08c379a00000000000000000000000000000000000000000000000000000000081526004018080602001828103825260208152602001807f4f776e61626c653a2063616c6c6572206973206e6f7420746865206f776e657281525060200191505060405180910390fd5b600c60009054906101000a900473ffffffffffffffffffffffffffffffffffffffff1673ffffffffffffffffffffffffffffffffffffffff168373ffffffffffffffffffffffffffffffffffffffff161415806118155750611811600b604051806020016040529081600082015481525050614664565b8214155b61186a576040517f08c379a00000000000000000000000000000000000000000000000000000000081526004018080602001828103825260488152602001806164b06048913960600191505060405180910390fd5b61187a611875614fa4565b614664565b82106118ee576040517f08c379a00000000000000000000000000000000000000000000000000000000081526004018080602001828103825260198152602001807f56616c7565206d757374206265206c657373207468616e20310000000000000081525060200191505060405180910390fd5b82600c60006101000a81548173ffffffffffffffffffffffffffffffffffffffff021916908373ffffffffffffffffffffffffffffffffffffffff16021790555061193882614fca565b600b600082015181600001559050508273ffffffffffffffffffffffffffffffffffffffff167fe296227209b47bb8f4a76768ebd564dcde1c44be325a5d262f27c1fd4fd4538b836040518082815260200191505060405180910390a26001905092915050565b600080600160009054906101000a900473ffffffffffffffffffffffffffffffffffffffff1673ffffffffffffffffffffffffffffffffffffffff1663dcf0aaed60405160200180807f537461626c65546f6b656e000000000000000000000000000000000000000000815250600b019050604051602081830303815290604052805190602001206040518263ffffffff1660e01b81526004018082815260200191505060206040518083038186803b158015611a5b57600080fd5b505afa158015611a6f573d6000803e3d6000fd5b505050506040513d6020811015611a8557600080fd5b81019080805190602001909291905050509050600080611aa3614fe8565b73ffffffffffffffffffffffffffffffffffffffff1663ef90e1b0846040518263ffffffff1660e01b8152600401808273ffffffffffffffffffffffffffffffffffffffff1673ffffffffffffffffffffffffffffffffffffffff168152602001915050604080518083038186803b158015611b1e57600080fd5b505afa158015611b32573d6000803e3d6000fd5b505050506040513d6040811015611b4857600080fd5b81019080805190602001909291908051906020019092919050505091509150611b6f614672565b15611c3e57611c3482611c2683611c18600d54611b8a6146a3565b73ffffffffffffffffffffffffffffffffffffffff1663639a84d36040518163ffffffff1660e01b815260040160206040518083038186803b158015611bcf57600080fd5b505afa158015611be3573d6000803e3d6000fd5b505050506040513d6020811015611bf957600080fd5b81019080805190602001909291905050506150e390919063ffffffff16565b6150e390919063ffffffff16565b61516990919063ffffffff16565b9350505050611c84565b611c7e82611c7083611c62600d54611c54612b34565b6150e390919063ffffffff16565b6150e390919063ffffffff16565b61516990919063ffffffff16565b93505050505b90565b6000611c916148f7565b6060600060f473ffffffffffffffffffffffffffffffffffffffff16846040516020018082805190602001908083835b60208310611ce45780518252602082019150602081019050602083039250611cc1565b6001836020036101000a0380198251168184511680821785525050505050509050019150506040516020818303038152906040526040518082805190602001908083835b60208310611d4b5780518252602082019150602081019050602083039250611d28565b6001836020036101000a038019825116818451168082178552505050505050905001915050600060405180830381855afa9150503d8060008114611dab576040519150601f19603f3d011682016040523d82523d6000602084013e611db0565b606091505b50809350819250505080611e0f576040517f08c379a00000000000000000000000000000000000000000000000000000000081526004018080602001828103825260388152602001806162116038913960400191505060405180910390fd5b611e1a8260006151b3565b92505050919050565b600080611e3b6002544261525490919063ffffffff16565b90506201518061016d600f0202811015611eed576000611e8f6002611e816b01f04ef12cb04cf1580000006b033b2e3c9fd0803ce800000061525490919063ffffffff16565b61516990919063ffffffff16565b90506000611ec26201518061016d600f0202611eb485856150e390919063ffffffff16565b61516990919063ffffffff16565b9050611ee36b01f04ef12cb04cf1580000008261529e90919063ffffffff16565b9350505050611f4a565b6000611f44576040517f08c379a00000000000000000000000000000000000000000000000000000000081526004018080602001828103825260368152602001806161db6036913960400191505060405180910390fd5b60009150505b90565b60008060008060018060026000839350829250819150809050935093509350935090919293565b6000611f7e612d03565b611ff0576040517f08c379a00000000000000000000000000000000000000000000000000000000081526004018080602001828103825260208152602001807f4f776e61626c653a2063616c6c6572206973206e6f7420746865206f776e657281525060200191505060405180910390fd5b6120126006600201604051806020016040529081600082015481525050614664565b83141580612041575061203d6006600101604051806020016040529081600082015481525050614664565b8214155b612096576040517f08c379a00000000000000000000000000000000000000000000000000000000081526004018080602001828103825260228152602001806162a16022913960400191505060405180910390fd5b61209f83614fca565b6006600201600082015181600001559050506120ba82614fca565b6006600101600082015181600001559050506120ff6120d7614fa4565b600660020160405180602001604052908160008201548152505061532690919063ffffffff16565b612154576040517f08c379a000000000000000000000000000000000000000000000000000000000815260040180806020018281038252602f815260200180616481602f913960400191505060405180910390fd5b7f1b76e38f3fdd1f284ed4d47c9d50ff407748c516ff9761616ff638c2331076258383604051808381526020018281526020019250505060405180910390a16001905092915050565b60006121a76148f7565b6060600060fa73ffffffffffffffffffffffffffffffffffffffff16858560405160200180838152602001828152602001925050506040516020818303038152906040526040518082805190602001908083835b6020831061221e57805182526020820191506020810190506020830392506121fb565b6001836020036101000a038019825116818451168082178552505050505050905001915050600060405180830381855afa9150503d806000811461227e576040519150601f19603f3d011682016040523d82523d6000602084013e612283565b606091505b508093508192505050806122e2576040517f08c379a000000000000000000000000000000000000000000000000000000000815260040180806020018281038252603681526020018061635e6036913960400191505060405180910390fd5b6122ed82600061533b565b9250505092915050565b6000806000806003905061232281600201604051806020016040529081600082015481525050614664565b61234682600001600001604051806020016040529081600082015481525050614664565b61236a83600001600101604051806020016040529081600082015481525050614664565b93509350935050909192565b6000806000806000612386611592565b905060006123926142a8565b905061239c616083565b6123a58261435f565b90506123cc6123c7826123b9600d54614a52565b614adc90919063ffffffff16565b614f3b565b6123ef6123ea836123dc87614a52565b614adc90919063ffffffff16565b614f3b565b61243a61243584612427600a60405180602001604052908160008201548152505061241989614a52565b614adc90919063ffffffff16565b614adc90919063ffffffff16565b614f3b565b61248561248085612472600b6040518060200160405290816000820154815250506124648a614a52565b614adc90919063ffffffff16565b614adc90919063ffffffff16565b614f3b565b965096509650965050505090919293565b60006124a06148f7565b6060600060f673ffffffffffffffffffffffffffffffffffffffff16846040516020018082805190602001908083835b602083106124f357805182526020820191506020810190506020830392506124d0565b6001836020036101000a0380198251168184511680821785525050505050509050019150506040516020818303038152906040526040518082805190602001908083835b6020831061255a5780518252602082019150602081019050602083039250612537565b6001836020036101000a038019825116818451168082178552505050505050905001915050600060405180830381855afa9150503d80600081146125ba576040519150601f19603f3d011682016040523d82523d6000602084013e6125bf565b606091505b5080935081925050508061261e576040517f08c379a00000000000000000000000000000000000000000000000000000000081526004018080602001828103825260238152602001806164f86023913960400191505060405180910390fd5b6126298260006151b3565b92505050919050565b61263a612d03565b6126ac576040517f08c379a00000000000000000000000000000000000000000000000000000000081526004018080602001828103825260208152602001807f4f776e61626c653a2063616c6c6572206973206e6f7420746865206f776e657281525060200191505060405180910390fd5b600073ffffffffffffffffffffffffffffffffffffffff166000809054906101000a900473ffffffffffffffffffffffffffffffffffffffff1673ffffffffffffffffffffffffffffffffffffffff167f8be0079c531659141344cd1fd0a4f28419497f9722a3daafe3b4186f6b6457e060405160405180910390a360008060006101000a81548173ffffffffffffffffffffffffffffffffffffffff021916908373ffffffffffffffffffffffffffffffffffffffff160217905550565b60006127756148f7565b61277e43613e62565b905090565b60006127966127918361435f565b614664565b9050919050565b60025481565b600160009054906101000a900473ffffffffffffffffffffffffffffffffffffffff1681565b600060149054906101000a900460ff161561284c576040517f08c379a000000000000000000000000000000000000000000000000000000000815260040180806020018281038252601c8152602001807f636f6e747261637420616c726561647920696e697469616c697a65640000000081525060200191505060405180910390fd5b6001600060146101000a81548160ff02191690831515021790555061287033615352565b6128798c613868565b6128838a8a611f74565b5061288f8888886128fe565b50612899856130cb565b506128a38461327d565b506128ad83613a32565b506128b8828261171e565b506128c28b613b97565b5042600281905550505050505050505050505050565b60006128f9600b604051806020016040529081600082015481525050614664565b905090565b6000612908612d03565b61297a576040517f08c379a00000000000000000000000000000000000000000000000000000000081526004018080602001828103825260208152602001807f4f776e61626c653a2063616c6c6572206973206e6f7420746865206f776e657281525060200191505060405180910390fd5b61299c6003600201604051806020016040529081600082015481525050614664565b841415806129ce57506129ca6003600001600101604051806020016040529081600082015481525050614664565b8214155b806129fd57506129f96003600001600001604051806020016040529081600082015481525050614664565b8314155b612a52576040517f08c379a000000000000000000000000000000000000000000000000000000000815260040180806020018281038252602181526020018061613c6021913960400191505060405180910390fd5b60405180604001604052806040518060400160405280612a7187614fca565b8152602001612a7f86614fca565b8152508152602001612a9086614fca565b815250600360008201518160000160008201518160000160008201518160000155505060208201518160010160008201518160000155505050506020820151816002016000820151816000015550509050507f191445ee0115396c9725b9c642b985d63820ca57d54e42e5eb38faec4022f05d84848460405180848152602001838152602001828152602001935050505060405180910390a1600190509392505050565b6000600e54905090565b6000612b486148f7565b6060600060f773ffffffffffffffffffffffffffffffffffffffff16846040516020018082805190602001908083835b60208310612b9b5780518252602082019150602081019050602083039250612b78565b6001836020036101000a0380198251168184511680821785525050505050509050019150506040516020818303038152906040526040518082805190602001908083835b60208310612c025780518252602082019150602081019050602083039250612bdf565b6001836020036101000a038019825116818451168082178552505050505050905001915050600060405180830381855afa9150503d8060008114612c62576040519150601f19603f3d011682016040523d82523d6000602084013e612c67565b606091505b50809350819250505080612cc6576040517f08c379a000000000000000000000000000000000000000000000000000000000815260040180806020018281038252603181526020018061642d6031913960400191505060405180910390fd5b612cd182600061533b565b92505050919050565b60008060009054906101000a900473ffffffffffffffffffffffffffffffffffffffff16905090565b60008060009054906101000a900473ffffffffffffffffffffffffffffffffffffffff1673ffffffffffffffffffffffffffffffffffffffff16612d45615496565b73ffffffffffffffffffffffffffffffffffffffff1614905090565b600160009054906101000a900473ffffffffffffffffffffffffffffffffffffffff1673ffffffffffffffffffffffffffffffffffffffff1663dd92723360405160200180807f45706f63684d616e616765720000000000000000000000000000000000000000815250600c019050604051602081830303815290604052805190602001206040518263ffffffff1660e01b81526004018082815260200191505060206040518083038186803b158015612e1a57600080fd5b505afa158015612e2e573d6000803e3d6000fd5b505050506040513d6020811015612e4457600080fd5b8101908080519060200190929190505050612e5d614672565b15612f08578073ffffffffffffffffffffffffffffffffffffffff163373ffffffffffffffffffffffffffffffffffffffff1614612f03576040517f08c379a000000000000000000000000000000000000000000000000000000000815260040180806020018281038252601f8152602001807f4f6e6c79207065726d697474656420616464726573732063616e2063616c6c0081525060200191505060405180910390fd5b612fab565b600073ffffffffffffffffffffffffffffffffffffffff163373ffffffffffffffffffffffffffffffffffffffff1614612faa576040517f08c379a00000000000000000000000000000000000000000000000000000000081526004018080602001828103825260108152602001807f4f6e6c7920564d2063616e2063616c6c0000000000000000000000000000000081525060200191505060405180910390fd5b5b612fb361549e565b73ffffffffffffffffffffffffffffffffffffffff1663e5839836306040518263ffffffff1660e01b8152600401808273ffffffffffffffffffffffffffffffffffffffff1673ffffffffffffffffffffffffffffffffffffffff16815260200191505060206040518083038186803b15801561302f57600080fd5b505afa158015613043573d6000803e3d6000fd5b505050506040513d602081101561305957600080fd5b8101908080519060200190929190505050156130c0576040517f08c379a00000000000000000000000000000000000000000000000000000000081526004018080602001828103825260228152602001806162496022913960400191505060405180910390fd5b6130c8615599565b50565b60006130d5612d03565b613147576040517f08c379a00000000000000000000000000000000000000000000000000000000081526004018080602001828103825260208152602001807f4f776e61626c653a2063616c6c6572206973206e6f7420746865206f776e657281525060200191505060405180910390fd5b6131666009604051806020016040529081600082015481525050614664565b8214156131be576040517f08c379a000000000000000000000000000000000000000000000000000000000815260040180806020018281038252602581526020018061615d6025913960400191505060405180910390fd5b6131ce6131c9614fa4565b614664565b8210613225576040517f08c379a00000000000000000000000000000000000000000000000000000000081526004018080602001828103825260338152602001806161a86033913960400191505060405180910390fd5b61322e82614fca565b6009600082015181600001559050507fbae2f33c70949fbc7325c98655f3039e5e1c7f774874c99fd4f31ec5f432b159826040518082815260200191505060405180910390a160019050919050565b6000613287612d03565b6132f9576040517f08c379a00000000000000000000000000000000000000000000000000000000081526004018080602001828103825260208152602001807f4f776e61626c653a2063616c6c6572206973206e6f7420746865206f776e657281525060200191505060405180910390fd5b600d54821415613354576040517f08c379a00000000000000000000000000000000000000000000000000000000081526004018080602001828103825260288152602001806160e66028913960400191505060405180910390fd5b81600d819055507fa21d141963bb2c1064b5376f762d22d3e9c4c51617edcf105bcec0f14e36800c826040518082815260200191505060405180910390a160019050919050565b60006133bc600a604051806020016040529081600082015481525050614664565b905090565b60006133cc4361165c565b905090565b60006133db616083565b6133f86133f36002544261525490919063ffffffff16565b614a52565b9050613402616083565b61340f632efe0780614a52565b9050613419616083565b6134236002614a52565b905061342d616083565b613440838561598d90919063ffffffff16565b156134545761344d614fa4565b905061347c565b61347961346a84866159a390919063ffffffff16565b83615aec90919063ffffffff16565b90505b613484616083565b61351461348f615b93565b73ffffffffffffffffffffffffffffffffffffffff166356b6d0d56040518163ffffffff1660e01b815260040160206040518083038186803b1580156134d457600080fd5b505afa1580156134e8573d6000803e3d6000fd5b505050506040513d60208110156134fe57600080fd5b8101908080519060200190929190505050614fca565b90506135298282615c8e90919063ffffffff16565b9550505050505090565b600061353d6148f7565b6060600060f973ffffffffffffffffffffffffffffffffffffffff1684604051602001808281526020019150506040516020818303038152906040526040518082805190602001908083835b602083106135ac5780518252602082019150602081019050602083039250613589565b6001836020036101000a038019825116818451168082178552505050505050905001915050600060405180830381855afa9150503d806000811461360c576040519150601f19603f3d011682016040523d82523d6000602084013e613611565b606091505b50809350819250505080613670576040517f08c379a000000000000000000000000000000000000000000000000000000000815260040180806020018281038252602e81526020018061610e602e913960400191505060405180910390fd5b61367b82600061533b565b92505050919050565b6000806137a8613692615b93565b73ffffffffffffffffffffffffffffffffffffffff16638d9a5e6f6040518163ffffffff1660e01b815260040160206040518083038186803b1580156136d757600080fd5b505afa1580156136eb573d6000803e3d6000fd5b505050506040513d602081101561370157600080fd5b810190808051906020019092919050505061371a615ca4565b73ffffffffffffffffffffffffffffffffffffffff16633a70a5ca6040518163ffffffff1660e01b815260040160206040518083038186803b15801561375f57600080fd5b505afa158015613773573d6000803e3d6000fd5b505050506040513d602081101561378957600080fd5b810190808051906020019092919050505061525490919063ffffffff16565b905060006137b4614957565b73ffffffffffffffffffffffffffffffffffffffff16639a0e7d666040518163ffffffff1660e01b815260040160206040518083038186803b1580156137f957600080fd5b505afa15801561380d573d6000803e3d6000fd5b505050506040513d602081101561382357600080fd5b8101908080519060200190929190505050905061386161385c61384584614a52565b61384e84614a52565b6159a390919063ffffffff16565b614664565b9250505090565b613870612d03565b6138e2576040517f08c379a00000000000000000000000000000000000000000000000000000000081526004018080602001828103825260208152602001807f4f776e61626c653a2063616c6c6572206973206e6f7420746865206f776e657281525060200191505060405180910390fd5b600073ffffffffffffffffffffffffffffffffffffffff168173ffffffffffffffffffffffffffffffffffffffff161415613985576040517f08c379a00000000000000000000000000000000000000000000000000000000081526004018080602001828103825260208152602001807f43616e6e6f7420726567697374657220746865206e756c6c206164647265737381525060200191505060405180910390fd5b80600160006101000a81548173ffffffffffffffffffffffffffffffffffffffff021916908373ffffffffffffffffffffffffffffffffffffffff1602179055508073ffffffffffffffffffffffffffffffffffffffff167f27fe5f0c1c3b1ed427cc63d0f05759ffdecf9aec9e18d31ef366fc8a6cb5dc3b60405160405180910390a250565b6000613a2d6009604051806020016040529081600082015481525050614664565b905090565b6000613a3c612d03565b613aae576040517f08c379a00000000000000000000000000000000000000000000000000000000081526004018080602001828103825260208152602001807f4f776e61626c653a2063616c6c6572206973206e6f7420746865206f776e657281525060200191505060405180910390fd5b613acd600a604051806020016040529081600082015481525050614664565b8214158015613aea5750613ae7613ae2614fa4565b614664565b82105b613b3f576040517f08c379a000000000000000000000000000000000000000000000000000000000815260040180806020018281038252604f815260200180616097604f913960600191505060405180910390fd5b613b4882614fca565b600a600082015181600001559050507fe6c1b64ad7e601924731051286b7b408b1a6f3ae96dcd6d2d9cd82578372ef9e826040518082815260200191505060405180910390a160019050919050565b6000613ba1612d03565b613c13576040517f08c379a00000000000000000000000000000000000000000000000000000000081526004018080602001828103825260208152602001807f4f776e61626c653a2063616c6c6572206973206e6f7420746865206f776e657281525060200191505060405180910390fd5b613c1b616083565b613c2483614fca565b9050613c52600660020160405180602001604052908160008201548152505082615c8e90919063ffffffff16565b613ca7576040517f08c379a00000000000000000000000000000000000000000000000000000000081526004018080602001828103825260358152602001806163006035913960400191505060405180910390fd5b806006600001600082015181600001559050507f152c3fc1e1cd415804bc9ae15876b37e62d8909358b940e6f4847ca927f46637836040518082815260200191505060405180910390a16001915050919050565b80600e8190555050565b6000613d0f6148f7565b6060600060f873ffffffffffffffffffffffffffffffffffffffff16600160405160200180821515151560f81b81526001019150506040516020818303038152906040526040518082805190602001908083835b60208310613d865780518252602082019150602081019050602083039250613d63565b6001836020036101000a038019825116818451168082178552505050505050905001915050600060405180830381855afa9150503d8060008114613de6576040519150601f19603f3d011682016040523d82523d6000602084013e613deb565b606091505b50809350819250505080613e4a576040517f08c379a00000000000000000000000000000000000000000000000000000000081526004018080602001828103825260258152602001806163dc6025913960400191505060405180910390fd5b613e5582600061533b565b9250505090565b600d5481565b6000613e6c6148f7565b613eae6003613ea06002613e926002613e8488613533565b6150e390919063ffffffff16565b61529e90919063ffffffff16565b61516990919063ffffffff16565b9050919050565b600080613ec06148f7565b60008714158015613ed2575060008514155b613f44576040517f08c379a00000000000000000000000000000000000000000000000000000000081526004018080602001828103825260158152602001807f612064656e6f6d696e61746f72206973207a65726f000000000000000000000081525060200191505060405180910390fd5b6000806000606060fc73ffffffffffffffffffffffffffffffffffffffff168c8c8c8c8c8c6040516020018087815260200186815260200185815260200184815260200183815260200182815260200196505050505050506040516020818303038152906040526040518082805190602001908083835b60208310613fde5780518252602082019150602081019050602083039250613fbb565b6001836020036101000a038019825116818451168082178552505050505050905001915050600060405180830381855afa9150503d806000811461403e576040519150601f19603f3d011682016040523d82523d6000602084013e614043565b606091505b508092508193505050816140a2576040517f08c379a00000000000000000000000000000000000000000000000000000000081526004018080602001828103825260278152602001806163b56027913960400191505060405180910390fd5b6140ad81600061533b565b93506140ba81602061533b565b925083839550955050505050965096945050505050565b6140d9612d03565b61414b576040517f08c379a00000000000000000000000000000000000000000000000000000000081526004018080602001828103825260208152602001807f4f776e61626c653a2063616c6c6572206973206e6f7420746865206f776e657281525060200191505060405180910390fd5b61415481615352565b50565b60006141616148f7565b6060600060f573ffffffffffffffffffffffffffffffffffffffff1684604051602001808281526020019150506040516020818303038152906040526040518082805190602001908083835b602083106141d057805182526020820191506020810190506020830392506141ad565b6001836020036101000a038019825116818451168082178552505050505050905001915050600060405180830381855afa9150503d8060008114614230576040519150601f19603f3d011682016040523d82523d6000602084013e614235565b606091505b50809350819250505080614294576040517f08c379a000000000000000000000000000000000000000000000000000000000815260040180806020018281038252602c815260200180616401602c913960400191505060405180910390fd5b61429f8260006151b3565b92505050919050565b6000806142b3611592565b905060006142bf61199f565b905060006142d6828461529e90919063ffffffff16565b905061435461434f614338600b60405180602001604052908160008201548152505061432a600a60405180602001604052908160008201548152505061431c6001614a52565b615aec90919063ffffffff16565b615aec90919063ffffffff16565b61434184614a52565b6159a390919063ffffffff16565b614f3b565b905080935050505090565b614367616083565b6000614371611e23565b9050600061437d615ca4565b73ffffffffffffffffffffffffffffffffffffffff16633a70a5ca6040518163ffffffff1660e01b815260040160206040518083038186803b1580156143c257600080fd5b505afa1580156143d6573d6000803e3d6000fd5b505050506040513d60208110156143ec57600080fd5b810190808051906020019092919050505090506000614432614417868461529e90919063ffffffff16565b6b033b2e3c9fd0803ce800000061525490919063ffffffff16565b90506000614455846b033b2e3c9fd0803ce800000061525490919063ffffffff16565b905061445f616083565b61448261446b83614a52565b61447485614a52565b6159a390919063ffffffff16565b905061449e61448f614fa4565b82615d9f90919063ffffffff16565b15614581576144ab616083565b6144f360036000016000016040518060200160405290816000820154815250506144e56144d6614fa4565b85615aec90919063ffffffff16565b614adc90919063ffffffff16565b90506144fd616083565b61451782614509614fa4565b615db490919063ffffffff16565b905061454560036002016040518060200160405290816000820154815250508261532690919063ffffffff16565b15614559578097505050505050505061465f565b600360020160405180602001604052908160008201548152505097505050505050505061465f565b61459b61458c614fa4565b8261532690919063ffffffff16565b1561464f576145a8616083565b6145f060036000016001016040518060200160405290816000820154815250506145e2846145d4614fa4565b615aec90919063ffffffff16565b614adc90919063ffffffff16565b905061460c6145fd614fa4565b8261532690919063ffffffff16565b156146385761462b8161461d614fa4565b615aec90919063ffffffff16565b965050505050505061465f565b6146426000614fca565b965050505050505061465f565b614657614fa4565b955050505050505b919050565b600081600001519050919050565b60008060007342000000000000000000000000000000000000189050803b915060008263ffffffff16119250505090565b6000600160009054906101000a900473ffffffffffffffffffffffffffffffffffffffff1673ffffffffffffffffffffffffffffffffffffffff1663dcf0aaed60405160200180807f45706f63684d616e616765720000000000000000000000000000000000000000815250600c019050604051602081830303815290604052805190602001206040518263ffffffff1660e01b81526004018082815260200191505060206040518083038186803b15801561475e57600080fd5b505afa158015614772573d6000803e3d6000fd5b505050506040513d602081101561478857600080fd5b8101908080519060200190929190505050905090565b60006147a86148f7565b6060600060fa73ffffffffffffffffffffffffffffffffffffffff16844360405160200180838152602001828152602001925050506040516020818303038152906040526040518082805190602001908083835b6020831061481f57805182526020820191506020810190506020830392506147fc565b6001836020036101000a038019825116818451168082178552505050505050905001915050600060405180830381855afa9150503d806000811461487f576040519150601f19603f3d011682016040523d82523d6000602084013e614884565b606091505b508093508192505050806148e3576040517f08c379a000000000000000000000000000000000000000000000000000000000815260040180806020018281038252603d8152602001806162c3603d913960400191505060405180910390fd5b6148ee82600061533b565b92505050919050565b6148ff614672565b15614955576040517f08c379a00000000000000000000000000000000000000000000000000000000081526004018080602001828103825260298152602001806163356029913960400191505060405180910390fd5b565b6000600160009054906101000a900473ffffffffffffffffffffffffffffffffffffffff1673ffffffffffffffffffffffffffffffffffffffff1663dcf0aaed60405160200180807f456c656374696f6e0000000000000000000000000000000000000000000000008152506008019050604051602081830303815290604052805190602001206040518263ffffffff1660e01b81526004018082815260200191505060206040518083038186803b158015614a1257600080fd5b505afa158015614a26573d6000803e3d6000fd5b505050506040513d6020811015614a3c57600080fd5b8101908080519060200190929190505050905090565b614a5a616083565b614a62615e5d565b821115614aba576040517f08c379a000000000000000000000000000000000000000000000000000000000815260040180806020018281038252603681526020018061626b6036913960400191505060405180910390fd5b604051806020016040528069d3c21bcecceda100000084028152509050919050565b614ae4616083565b600083600001511480614afb575060008260000151145b15614b1757604051806020016040528060008152509050614f35565b69d3c21bcecceda100000082600001511415614b3557829050614f35565b69d3c21bcecceda100000083600001511415614b5357819050614f35565b600069d3c21bcecceda1000000614b6985615e7c565b6000015181614b7457fe5b0490506000614b8285615eb3565b600001519050600069d3c21bcecceda1000000614b9e86615e7c565b6000015181614ba957fe5b0490506000614bb786615eb3565b6000015190506000828502905060008514614c4b5782858281614bd657fe5b0414614c4a576040517f08c379a00000000000000000000000000000000000000000000000000000000081526004018080602001828103825260168152602001807f6f766572666c6f7720783179312064657465637465640000000000000000000081525060200191505060405180910390fd5b5b600069d3c21bcecceda10000008202905060008214614ced5769d3c21bcecceda1000000828281614c7857fe5b0414614cec576040517f08c379a000000000000000000000000000000000000000000000000000000000815260040180806020018281038252601f8152602001807f6f766572666c6f772078317931202a206669786564312064657465637465640081525060200191505060405180910390fd5b5b8091506000848602905060008614614d7e5784868281614d0957fe5b0414614d7d576040517f08c379a00000000000000000000000000000000000000000000000000000000081526004018080602001828103825260168152602001807f6f766572666c6f7720783279312064657465637465640000000000000000000081525060200191505060405180910390fd5b5b6000848802905060008814614e0c5784888281614d9757fe5b0414614e0b576040517f08c379a00000000000000000000000000000000000000000000000000000000081526004018080602001828103825260168152602001807f6f766572666c6f7720783179322064657465637465640000000000000000000081525060200191505060405180910390fd5b5b614e14615ef0565b8781614e1c57fe5b049650614e27615ef0565b8581614e2f57fe5b0494506000858802905060008814614ec05785888281614e4b57fe5b0414614ebf576040517f08c379a00000000000000000000000000000000000000000000000000000000081526004018080602001828103825260168152602001807f6f766572666c6f7720783279322064657465637465640000000000000000000081525060200191505060405180910390fd5b5b614ec8616083565b6040518060200160405280878152509050614ef181604051806020016040528087815250615db4565b9050614f0b81604051806020016040528086815250615db4565b9050614f2581604051806020016040528085815250615db4565b9050809a50505050505050505050505b92915050565b600069d3c21bcecceda1000000826000015181614f5457fe5b049050919050565b600080828481614f6857fe5b0490506000838581614f7657fe5b061415614f865780915050614f9e565b614f9a60018261529e90919063ffffffff16565b9150505b92915050565b614fac616083565b604051806020016040528069d3c21bcecceda1000000815250905090565b614fd2616083565b6040518060200160405280838152509050919050565b6000600160009054906101000a900473ffffffffffffffffffffffffffffffffffffffff1673ffffffffffffffffffffffffffffffffffffffff1663dcf0aaed60405160200180807f536f727465644f7261636c657300000000000000000000000000000000000000815250600d019050604051602081830303815290604052805190602001206040518263ffffffff1660e01b81526004018082815260200191505060206040518083038186803b1580156150a357600080fd5b505afa1580156150b7573d6000803e3d6000fd5b505050506040513d60208110156150cd57600080fd5b8101908080519060200190929190505050905090565b6000808314156150f65760009050615163565b600082840290508284828161510757fe5b041461515e576040517f08c379a00000000000000000000000000000000000000000000000000000000081526004018080602001828103825260218152602001806163946021913960400191505060405180910390fd5b809150505b92915050565b60006151ab83836040518060400160405280601a81526020017f536166654d6174683a206469766973696f6e206279207a65726f000000000000815250615efd565b905092915050565b60006151c960208361529e90919063ffffffff16565b8351101561523f576040517f08c379a00000000000000000000000000000000000000000000000000000000081526004018080602001828103825260148152602001807f736c6963696e67206f7574206f662072616e676500000000000000000000000081525060200191505060405180910390fd5b60006020830184015190508091505092915050565b600061529683836040518060400160405280601e81526020017f536166654d6174683a207375627472616374696f6e206f766572666c6f770000815250615fc3565b905092915050565b60008082840190508381101561531c576040517f08c379a000000000000000000000000000000000000000000000000000000000815260040180806020018281038252601b8152602001807f536166654d6174683a206164646974696f6e206f766572666c6f77000000000081525060200191505060405180910390fd5b8091505092915050565b60008160000151836000015110905092915050565b600061534783836151b3565b60001c905092915050565b600073ffffffffffffffffffffffffffffffffffffffff168173ffffffffffffffffffffffffffffffffffffffff1614156153d8576040517f08c379a00000000000000000000000000000000000000000000000000000000081526004018080602001828103825260268152602001806161826026913960400191505060405180910390fd5b8073ffffffffffffffffffffffffffffffffffffffff166000809054906101000a900473ffffffffffffffffffffffffffffffffffffffff1673ffffffffffffffffffffffffffffffffffffffff167f8be0079c531659141344cd1fd0a4f28419497f9722a3daafe3b4186f6b6457e060405160405180910390a3806000806101000a81548173ffffffffffffffffffffffffffffffffffffffff021916908373ffffffffffffffffffffffffffffffffffffffff16021790555050565b600033905090565b6000600160009054906101000a900473ffffffffffffffffffffffffffffffffffffffff1673ffffffffffffffffffffffffffffffffffffffff1663dcf0aaed60405160200180807f467265657a6572000000000000000000000000000000000000000000000000008152506007019050604051602081830303815290604052805190602001206040518263ffffffff1660e01b81526004018082815260200191505060206040518083038186803b15801561555957600080fd5b505afa15801561556d573d6000803e3d6000fd5b505050506040513d602081101561558357600080fd5b8101908080519060200190929190505050905090565b6155a161549e565b73ffffffffffffffffffffffffffffffffffffffff1663e5839836306040518263ffffffff1660e01b8152600401808273ffffffffffffffffffffffffffffffffffffffff1673ffffffffffffffffffffffffffffffffffffffff16815260200191505060206040518083038186803b15801561561d57600080fd5b505afa158015615631573d6000803e3d6000fd5b505050506040513d602081101561564757600080fd5b8101908080519060200190929190505050156156ae576040517f08c379a00000000000000000000000000000000000000000000000000000000081526004018080602001828103825260228152602001806162496022913960400191505060405180910390fd5b6156b6616083565b6156c66156c1613684565b614fca565b90506156f1600960405180602001604052908160008201548152505082615d9f90919063ffffffff16565b156157f7576156fe616083565b615727600960405180602001604052908160008201548152505083615aec90919063ffffffff16565b9050615731616083565b61575d600660010160405180602001604052908160008201548152505083614adc90919063ffffffff16565b905061578b60066000016040518060200160405290816000820154815250508261598d90919063ffffffff16565b156157b15761579a6000614a52565b6006600001600082015181600001559050506157f0565b6157dd816006600001604051806020016040529081600082015481525050615aec90919063ffffffff16565b6006600001600082015181600001559050505b5050615932565b61582060096040518060200160405290816000820154815250508261532690919063ffffffff16565b156159315761582d616083565b615856826009604051806020016040529081600082015481525050615aec90919063ffffffff16565b9050615860616083565b61588c600660010160405180602001604052908160008201548152505083614adc90919063ffffffff16565b90506158ba816006600001604051806020016040529081600082015481525050615db490919063ffffffff16565b60066000016000820151816000015590505061591160066002016040518060200160405290816000820154815250506006600001604051806020016040529081600082015481525050615d9f90919063ffffffff16565b1561592e5760066002016006600001600082015481600001559050505b50505b5b7f49d8cdfe05bae61517c234f65f4088454013bafe561115126a8fe0074dc7700e6159756006600001604051806020016040529081600082015481525050614664565b6040518082815260200191505060405180910390a150565b6000816000015183600001511015905092915050565b6159ab616083565b600082600001511415615a26576040517f08c379a00000000000000000000000000000000000000000000000000000000081526004018080602001828103825260118152602001807f63616e277420646976696465206279203000000000000000000000000000000081525060200191505060405180910390fd5b600069d3c21bcecceda10000008460000151029050836000015169d3c21bcecceda10000008281615a5357fe5b0414615ac7576040517f08c379a00000000000000000000000000000000000000000000000000000000081526004018080602001828103825260128152602001807f6f766572666c6f7720617420646976696465000000000000000000000000000081525060200191505060405180910390fd5b604051806020016040528084600001518381615adf57fe5b0481525091505092915050565b615af4616083565b816000015183600001511015615b72576040517f08c379a000000000000000000000000000000000000000000000000000000000815260040180806020018281038252601f8152602001807f737562737472616374696f6e20756e646572666c6f772064657465637465640081525060200191505060405180910390fd5b60405180602001604052808360000151856000015103815250905092915050565b6000600160009054906101000a900473ffffffffffffffffffffffffffffffffffffffff1673ffffffffffffffffffffffffffffffffffffffff1663dcf0aaed60405160200180807f52657365727665000000000000000000000000000000000000000000000000008152506007019050604051602081830303815290604052805190602001206040518263ffffffff1660e01b81526004018082815260200191505060206040518083038186803b158015615c4e57600080fd5b505afa158015615c62573d6000803e3d6000fd5b505050506040513d6020811015615c7857600080fd5b8101908080519060200190929190505050905090565b6000816000015183600001511115905092915050565b6000600160009054906101000a900473ffffffffffffffffffffffffffffffffffffffff1673ffffffffffffffffffffffffffffffffffffffff1663dcf0aaed60405160200180807f43656c6f546f6b656e00000000000000000000000000000000000000000000008152506009019050604051602081830303815290604052805190602001206040518263ffffffff1660e01b81526004018082815260200191505060206040518083038186803b158015615d5f57600080fd5b505afa158015615d73573d6000803e3d6000fd5b505050506040513d6020811015615d8957600080fd5b8101908080519060200190929190505050905090565b60008160000151836000015111905092915050565b615dbc616083565b6000826000015184600001510190508360000151811015615e45576040517f08c379a00000000000000000000000000000000000000000000000000000000081526004018080602001828103825260158152602001807f616464206f766572666c6f77206465746563746564000000000000000000000081525060200191505060405180910390fd5b60405180602001604052808281525091505092915050565b60007601357c299a88ea76a58924d52ce4f26a85af186c2b9e74905090565b615e84616083565b604051806020016040528069d3c21bcecceda100000080856000015181615ea757fe5b04028152509050919050565b615ebb616083565b604051806020016040528069d3c21bcecceda100000080856000015181615ede57fe5b04028460000151038152509050919050565b600064e8d4a51000905090565b60008083118290615fa9576040517f08c379a00000000000000000000000000000000000000000000000000000000081526004018080602001828103825283818151815260200191508051906020019080838360005b83811015615f6e578082015181840152602081019050615f53565b50505050905090810190601f168015615f9b5780820380516001836020036101000a031916815260200191505b509250505060405180910390fd5b506000838581615fb557fe5b049050809150509392505050565b6000838311158290616070576040517f08c379a00000000000000000000000000000000000000000000000000000000081526004018080602001828103825283818151815260200191508051906020019080838360005b8381101561603557808201518184015260208101905061601a565b50505050905090810190601f1680156160625780820380516001836020036101000a031916815260200191505b509250505060405180910390fd5b5060008385039050809150509392505050565b604051806020016040528060008152509056fe56616c7565206d75737420626520646966666572656e742066726f6d206578697374696e6720636f6d6d756e69747920726577617264206672616374696f6e20616e64206c657373207468616e20315461726765742076616c696461746f722065706f6368207061796d656e7420756e6368616e6765646572726f722063616c6c696e67206e756d62657256616c696461746f7273496e53657420707265636f6d70696c654261642072657761726473206d756c7469706c69657220706172616d657465727354617267657420766f74696e6720676f6c64206672616374696f6e20756e6368616e6765644f776e61626c653a206e6577206f776e657220697320746865207a65726f206164647265737354617267657420766f74696e6720676f6c64206672616374696f6e2063616e6e6f74206265206c6172676572207468616e2031426c6f636b207265776172642063616c63756c6174696f6e20666f722079656172732031352d333020756e696d706c656d656e7465646572726f722063616c6c696e672067657456657269666965645365616c4269746d617046726f6d48656164657220707265636f6d70696c6563616e27742063616c6c207768656e20636f6e74726163742069732066726f7a656e63616e277420637265617465206669786964697479206e756d626572206c6172676572207468616e206d61784e6577466978656428294261642074617267657420766f74696e67207969656c6420706172616d65746572736572726f722063616c6c696e672076616c696461746f725369676e65724164647265737346726f6d43757272656e7453657420707265636f6d70696c6554617267657420766f74696e67207969656c64206d757374206265206c657373207468616e206f7220657175616c20746f206d617854686973206d6574686f64206973206e6f206c6f6e67657220737570706f7274656420696e204c322e6572726f722063616c6c696e672076616c696461746f725369676e65724164647265737346726f6d53657420707265636f6d70696c65536166654d6174683a206d756c7469706c69636174696f6e206f766572666c6f776572726f722063616c6c696e67206672616374696f6e4d756c45787020707265636f6d70696c656572726f722063616c6c696e672067657445706f636853697a6520707265636f6d70696c656572726f722063616c6c696e6720676574506172656e745365616c4269746d617020707265636f6d70696c656572726f722063616c6c696e6720676574426c6f636b4e756d62657246726f6d48656164657220707265636f6d70696c6554686973206d6574686f64206973206e6f7420737570706f7274656420696e204c312e4d61782074617267657420766f74696e67207969656c64206d757374206265206c6f776572207468616e2031303025506172746e657220616e642076616c7565206d75737420626520646966666572656e742066726f6d206578697374696e6720636172626f6e206f666673657474696e672066756e646572726f722063616c6c696e67206861736848656164657220707265636f6d70696c65a265627a7a723158203c4b26dc3bf7fd1d39f7579b5dca69c4f5eabfa012424233011f683dc9b87ab864736f6c634300050d0032",
  "source": "pragma solidity ^0.5.13;\n\nimport \"../EpochRewards.sol\";\n\n/**\n * @title A wrapper around EpochRewards that exposes internal functions for testing.\n */\ncontract EpochRewardsMock is EpochRewards(true) {\n  uint256 private numValidatorsInCurrentSet;\n\n  function setNumberValidatorsInCurrentSet(uint256 value) external {\n    numValidatorsInCurrentSet = value;\n  }\n\n  function getRewardsMultiplier(\n    uint256 targetGoldTotalSupplyIncrease\n  ) external view returns (uint256) {\n    return _getRewardsMultiplier(targetGoldTotalSupplyIncrease).unwrap();\n  }\n\n  // mocks the precompile\n  function numberValidatorsInCurrentSet() public view returns (uint256) {\n    return numValidatorsInCurrentSet;\n  }\n}\n",
  "sourcePath": "/Users/beaver/Development/temp/celo-monorepo/packages/protocol/contracts/governance/test/EpochRewardsMock.sol",
  "compiler": {
    "name": "solc",
    "version": "0.5.13+commit.5b0b510c.Emscripten.clang"
  },
  "schemaVersion": "3.4.13",
  "updatedAt": "2025-05-05T17:49:51.464Z",
  "devdoc": {
    "methods": {
      "calculateTargetEpochRewards()": {
        "return": "The per validator epoch reward.The total rewards to voters.The total community reward.The total carbon offsetting partner reward."
      },
      "checkProofOfPossession(address,bytes,bytes)": {
        "details": "This function will be deprecated in L2.",
        "params": {
          "blsKey": "The BLS public key that the validator is using for consensus, should pass proof  of possession. 48 bytes.",
          "blsPop": "The BLS public key proof-of-possession, which consists of a signature on the  account address. 96 bytes.",
          "sender": "The address signed by the BLS key to generate the proof of possession."
        },
        "return": "True upon success."
      },
      "fractionMulExp(uint256,uint256,uint256,uint256,uint256,uint256)": {
        "details": "This function will be deprecated in L2.",
        "params": {
          "_decimals": "precision",
          "aDenominator": "Denominator of first fraction",
          "aNumerator": "Numerator of first fraction",
          "bDenominator": "Denominator of exponentiated fraction",
          "bNumerator": "Numerator of exponentiated fraction",
          "exponent": "exponent to raise b to"
        },
        "return": "Numerator of the computed quantity (not reduced).Denominator of the computed quantity (not reduced)."
      },
      "getBlockNumberFromHeader(bytes)": {
        "details": "This function will be deprecated in L2.",
        "params": {
          "header": "RLP encoded header"
        },
        "return": "Block number."
      },
      "getCarbonOffsettingFraction()": {
        "return": "The percentage of total reward which goes to the carbon offsetting partner."
      },
      "getCommunityRewardFraction()": {
        "return": "The percentage of total reward which goes to the community funds."
      },
      "getEpochNumber()": {
        "return": "Current epoch number."
      },
      "getEpochNumberOfBlock(uint256)": {
        "params": {
          "blockNumber": "Block number where epoch number is calculated."
        },
        "return": "Epoch number."
      },
      "getEpochSize()": {
        "details": "This function will be deprecated in L2.",
        "return": "The current epoch size in blocks."
      },
      "getParentSealBitmap(uint256)": {
        "details": "This function will be deprecated in L2.",
        "params": {
          "blockNumber": "Block number to retrieve. Must be within 4 epochs of the current number."
        },
        "return": "Bitmap parent seal with set bits at indices corresponding to signing validators."
      },
      "getRewardsMultiplier()": {
        "return": "The rewards multiplier based on the current and target Gold supplies."
      },
      "getRewardsMultiplierParameters()": {
        "return": "The max multiplier.The underspend adjustment factors.The overspend adjustment factors."
      },
      "getTargetGoldTotalSupply()": {
        "return": "The target Gold supply according to the epoch rewards target schedule."
      },
      "getTargetTotalEpochPaymentsInGold()": {
        "return": "The total target epoch payments to validators, converted to Gold."
      },
      "getTargetVoterRewards()": {
        "return": "the total target epoch rewards for voters."
      },
      "getTargetVotingGoldFraction()": {
        "return": "The percentage of floating Gold voting to target."
      },
      "getTargetVotingYieldParameters()": {
        "return": "The target factor for target voting yield.The max factor for target voting yield.The adjustment factor for target voting yield."
      },
      "getVerifiedSealBitmapFromHeader(bytes)": {
        "details": "This function will be deprecated in L2.",
        "params": {
          "header": "RLP encoded header"
        },
        "return": "Bitmap parent seal with set bits at indices correspoinding to signing validators."
      },
      "getVersionNumber()": {
        "return": "Storage version of the contract.Major version of the contract.Minor version of the contract.Patch version of the contract."
      },
      "getVotingGoldFraction()": {
        "return": "The fraction of floating Gold being used for voting in validator elections."
      },
      "hashHeader(bytes)": {
        "details": "This function will be deprecated in L2.",
        "params": {
          "header": "RLP encoded header"
        },
        "return": "Header hash."
      },
      "initialize(address,uint256,uint256,uint256,uint256,uint256,uint256,uint256,uint256,uint256,address,uint256)": {
        "details": "Should be called only once.",
        "params": {
          "_carbonOffsettingFraction": "The percentage of rewards going to carbon offsetting partner.",
          "_carbonOffsettingPartner": "The address of the carbon offsetting partner.",
          "_communityRewardFraction": "The percentage of rewards that go the community funds.",
          "_targetValidatorEpochPayment": "The target validator epoch payment.",
          "_targetVotingGoldFraction": "The percentage of floating Gold voting to target.",
          "registryAddress": "The address of the registry contract.",
          "rewardsMultiplierMax": "The max multiplier on target epoch rewards.",
          "rewardsMultiplierOverspendAdjustmentFactor": "Adjusts the multiplier on target epoch  rewards when the protocol is running ahead of the target Gold supply.",
          "rewardsMultiplierUnderspendAdjustmentFactor": "Adjusts the multiplier on target epoch  rewards when the protocol is running behind the target Gold supply.",
          "targetVotingYieldAdjustmentFactor": "The target block reward adjustment factor for voters.",
          "targetVotingYieldInitial": "The initial relative target block reward for voters.",
          "targetVotingYieldMax": "The max relative target block reward for voters."
        }
      },
      "isOwner()": {
        "details": "Returns true if the caller is the current owner."
      },
      "minQuorumSize(uint256)": {
        "details": "Computed in celo-blockchain as int(math.Ceil(float64(2*valSet.Size()) / 3))This function will be deprecated in L2."
      },
      "minQuorumSizeInCurrentSet()": {
        "details": "This function will be deprecated in L2.",
        "return": "Byzantine quorum of validators."
      },
      "numberValidatorsInSet(uint256)": {
        "details": "This function will be deprecated in L2.",
        "params": {
          "blockNumber": "Block number to retrieve the validator set from."
        },
        "return": "Size of the validator set."
      },
      "owner()": {
        "details": "Returns the address of the current owner."
      },
      "renounceOwnership()": {
        "details": "Leaves the contract without owner. It will not be possible to call `onlyOwner` functions anymore. Can only be called by the current owner.     * NOTE: Renouncing ownership will leave the contract without an owner, thereby removing any functionality that is only available to the owner."
      },
      "setCarbonOffsettingFund(address,uint256)": {
        "params": {
          "partner": "The address of the carbon offsetting partner.",
          "value": "The percentage of the total reward to be sent to the carbon offsetting partner."
        },
        "return": "True upon success."
      },
      "setCommunityRewardFraction(uint256)": {
        "params": {
          "value": "The percentage of the total reward to be sent to the community funds."
        },
        "return": "True upon success."
      },
      "setRegistry(address)": {
        "params": {
          "registryAddress": "The address of a registry contract for routing to other contracts."
        }
      },
      "setRewardsMultiplierParameters(uint256,uint256,uint256)": {
        "params": {
          "max": "The max multiplier on target epoch rewards.",
          "overspendAdjustmentFactor": "Adjusts the multiplier on target epoch rewards when the  protocol is running ahead of the target Gold supply.",
          "underspendAdjustmentFactor": "Adjusts the multiplier on target epoch rewards when the  protocol is running behind the target Gold supply."
        },
        "return": "True upon success."
      },
      "setTargetValidatorEpochPayment(uint256)": {
        "params": {
          "value": "The value in Celo Dollars."
        },
        "return": "True upon success."
      },
      "setTargetVotingGoldFraction(uint256)": {
        "params": {
          "value": "The percentage of floating Gold voting to target."
        },
        "return": "True upon success."
      },
      "setTargetVotingYield(uint256)": {
        "params": {
          "targetVotingYield": "The relative target block reward for voters."
        },
        "return": "True upon success."
      },
      "setTargetVotingYieldParameters(uint256,uint256)": {
        "params": {
          "adjustmentFactor": "The target block reward adjustment factor for voters.",
          "max": "The max relative target block reward for voters."
        },
        "return": "True upon success."
      },
      "transferOwnership(address)": {
        "details": "Transfers ownership of the contract to a new account (`newOwner`). Can only be called by the current owner."
      },
      "updateTargetVotingYield()": {
        "details": "Only called directly by the protocol."
      },
      "validatorAddressFromCurrentSet(uint256)": {
        "params": {
          "index": "Index of requested validator in the validator set."
        },
        "return": "Address of validator at the requested index."
      },
      "validatorSignerAddressFromCurrentSet(uint256)": {
        "params": {
          "index": "Index of requested validator in the validator set."
        },
        "return": "Address of validator signer at the requested index."
      },
      "validatorSignerAddressFromSet(uint256,uint256)": {
        "details": "This function will be deprecated in L2.",
        "params": {
          "blockNumber": "Block number to retrieve the validator set from.",
          "index": "Index of requested validator in the validator set."
        },
        "return": "Address of validator signer at the requested index."
      }
    },
    "title": "A wrapper around EpochRewards that exposes internal functions for testing."
  },
  "userdoc": {
    "methods": {
      "calculateTargetEpochRewards()": {
        "notice": "Calculates the per validator epoch payment and the total rewards to voters."
      },
      "checkProofOfPossession(address,bytes,bytes)": {
        "notice": "Checks a BLS proof of possession."
      },
      "fractionMulExp(uint256,uint256,uint256,uint256,uint256,uint256)": {
        "notice": "calculate a * b^x for fractions a, b to `decimals` precision"
      },
      "getBlockNumberFromHeader(bytes)": {
        "notice": "Parses block number out of header."
      },
      "getCarbonOffsettingFraction()": {
        "notice": "Returns the carbon offsetting partner reward fraction."
      },
      "getCommunityRewardFraction()": {
        "notice": "Returns the community reward fraction."
      },
      "getEpochNumber()": {
        "notice": "Returns the epoch number at a block."
      },
      "getEpochNumberOfBlock(uint256)": {
        "notice": "Returns the epoch number at a block."
      },
      "getEpochSize()": {
        "notice": "Returns the current epoch size in blocks."
      },
      "getParentSealBitmap(uint256)": {
        "notice": "Gets the parent seal bitmap from the header at the given block number."
      },
      "getRewardsMultiplier()": {
        "notice": "Returns the rewards multiplier based on the current and target Gold supplies."
      },
      "getRewardsMultiplierParameters()": {
        "notice": "Returns the rewards multiplier parameters."
      },
      "getTargetGoldTotalSupply()": {
        "notice": "Returns the target Gold supply according to the epoch rewards target schedule."
      },
      "getTargetTotalEpochPaymentsInGold()": {
        "notice": "Returns the total target epoch payments to validators, converted to Gold."
      },
      "getTargetVoterRewards()": {
        "notice": "Returns the total target epoch rewards for voters."
      },
      "getTargetVotingGoldFraction()": {
        "notice": "Returns the target voting Gold fraction."
      },
      "getTargetVotingYieldParameters()": {
        "notice": "Returns the target voting yield parameters."
      },
      "getVerifiedSealBitmapFromHeader(bytes)": {
        "notice": "Verifies the BLS signature on the header and returns the seal bitmap. The validator set used for verification is retrieved based on the parent hash field of the header.  If the parent hash is not in the blockchain, verification fails."
      },
      "getVersionNumber()": {
        "notice": "Returns the storage, major, minor, and patch version of the contract."
      },
      "getVotingGoldFraction()": {
        "notice": "Returns the fraction of floating Gold being used for voting in validator elections."
      },
      "hashHeader(bytes)": {
        "notice": "Computes hash of header."
      },
      "initialize(address,uint256,uint256,uint256,uint256,uint256,uint256,uint256,uint256,uint256,address,uint256)": {
        "notice": "Used in place of the constructor to allow the contract to be upgradable via proxy."
      },
      "isReserveLow()": {
        "notice": "Determines if the reserve is low enough to demand a diversion from   the community reward. Targets initial critical ratio of 2 with a linear   decline until 25 years have passed where the critical ratio will be 1."
      },
      "minQuorumSize(uint256)": {
        "notice": "Returns the minimum number of required signers for a given block number."
      },
      "minQuorumSizeInCurrentSet()": {
        "notice": "Computes byzantine quorum from current validator set size"
      },
      "numberValidatorsInSet(uint256)": {
        "notice": "Gets the size of the validator set that must sign the given block number."
      },
      "setCarbonOffsettingFund(address,uint256)": {
        "notice": "Sets the carbon offsetting fund."
      },
      "setCommunityRewardFraction(uint256)": {
        "notice": "Sets the community reward percentage"
      },
      "setRegistry(address)": {
        "notice": "Updates the address pointing to a Registry contract."
      },
      "setRewardsMultiplierParameters(uint256,uint256,uint256)": {
        "notice": "Sets the rewards multiplier parameters."
      },
      "setTargetValidatorEpochPayment(uint256)": {
        "notice": "Sets the target per-epoch payment in Celo Dollars for validators."
      },
      "setTargetVotingGoldFraction(uint256)": {
        "notice": "Sets the target voting Gold fraction."
      },
      "setTargetVotingYield(uint256)": {
        "notice": "Sets the target voting yield.  Uses fixed point arithmetic for protection against overflow."
      },
      "setTargetVotingYieldParameters(uint256,uint256)": {
        "notice": "Sets the target voting yield parameters."
      },
      "updateTargetVotingYield()": {
        "notice": "Updates the target voting yield based on the difference between the target and current  voting Gold fraction."
      },
      "validatorAddressFromCurrentSet(uint256)": {
        "notice": "Gets a validator address from the current validator set."
      },
      "validatorSignerAddressFromCurrentSet(uint256)": {
        "notice": "Gets a validator signer address from the current validator set."
      },
      "validatorSignerAddressFromSet(uint256,uint256)": {
        "notice": "Gets a validator signer address from the validator set at the given block number."
      }
    }
  }
}