{
  "contractName": "GovernanceSlasher",
  "abi": [
    {
      "inputs": [
        {
          "internalType": "bool",
          "name": "test",
          "type": "bool"
        }
      ],
      "payable": false,
      "stateMutability": "nonpayable",
      "type": "constructor"
    },
    {
      "anonymous": false,
      "inputs": [
        {
          "indexed": true,
          "internalType": "address",
          "name": "account",
          "type": "address"
        },
        {
          "indexed": true,
          "internalType": "address",
          "name": "group",
          "type": "address"
        },
        {
          "indexed": false,
          "internalType": "uint256",
          "name": "amount",
          "type": "uint256"
        }
      ],
      "name": "GovernanceSlashL2Performed",
      "type": "event"
    },
    {
      "anonymous": false,
      "inputs": [
        {
          "indexed": true,
          "internalType": "address",
          "name": "account",
          "type": "address"
        },
        {
          "indexed": false,
          "internalType": "uint256",
          "name": "amount",
          "type": "uint256"
        }
      ],
      "name": "GovernanceSlashPerformed",
      "type": "event"
    },
    {
      "anonymous": false,
      "inputs": [
        {
          "indexed": true,
          "internalType": "address",
          "name": "previousOwner",
          "type": "address"
        },
        {
          "indexed": true,
          "internalType": "address",
          "name": "newOwner",
          "type": "address"
        }
      ],
      "name": "OwnershipTransferred",
      "type": "event"
    },
    {
      "anonymous": false,
      "inputs": [
        {
          "indexed": true,
          "internalType": "address",
          "name": "registryAddress",
          "type": "address"
        }
      ],
      "name": "RegistrySet",
      "type": "event"
    },
    {
      "anonymous": false,
      "inputs": [
        {
          "indexed": false,
          "internalType": "address",
          "name": "slasherExecuter",
          "type": "address"
        }
      ],
      "name": "SlasherExecuterSet",
      "type": "event"
    },
    {
      "anonymous": false,
      "inputs": [
        {
          "indexed": true,
          "internalType": "address",
          "name": "account",
          "type": "address"
        },
        {
          "indexed": false,
          "internalType": "uint256",
          "name": "amount",
          "type": "uint256"
        }
      ],
      "name": "SlashingApproved",
      "type": "event"
    },
    {
      "constant": true,
      "inputs": [],
      "name": "initialized",
      "outputs": [
        {
          "internalType": "bool",
          "name": "",
          "type": "bool"
        }
      ],
      "payable": false,
      "stateMutability": "view",
      "type": "function"
    },
    {
      "constant": true,
      "inputs": [],
      "name": "isOwner",
      "outputs": [
        {
          "internalType": "bool",
          "name": "",
          "type": "bool"
        }
      ],
      "payable": false,
      "stateMutability": "view",
      "type": "function"
    },
    {
      "constant": true,
      "inputs": [],
      "name": "owner",
      "outputs": [
        {
          "internalType": "address",
          "name": "",
          "type": "address"
        }
      ],
      "payable": false,
      "stateMutability": "view",
      "type": "function"
    },
    {
      "constant": true,
      "inputs": [],
      "name": "registry",
      "outputs": [
        {
          "internalType": "contract IRegistry",
          "name": "",
          "type": "address"
        }
      ],
      "payable": false,
      "stateMutability": "view",
      "type": "function"
    },
    {
      "constant": false,
      "inputs": [],
      "name": "renounceOwnership",
      "outputs": [],
      "payable": false,
      "stateMutability": "nonpayable",
      "type": "function"
    },
    {
      "constant": false,
      "inputs": [
        {
          "internalType": "address",
          "name": "registryAddress",
          "type": "address"
        }
      ],
      "name": "setRegistry",
      "outputs": [],
      "payable": false,
      "stateMutability": "nonpayable",
      "type": "function"
    },
    {
      "constant": false,
      "inputs": [
        {
          "internalType": "address",
          "name": "newOwner",
          "type": "address"
        }
      ],
      "name": "transferOwnership",
      "outputs": [],
      "payable": false,
      "stateMutability": "nonpayable",
      "type": "function"
    },
    {
      "constant": false,
      "inputs": [
        {
          "internalType": "address",
          "name": "registryAddress",
          "type": "address"
        }
      ],
      "name": "initialize",
      "outputs": [],
      "payable": false,
      "stateMutability": "nonpayable",
      "type": "function"
    },
    {
      "constant": true,
      "inputs": [],
      "name": "getVersionNumber",
      "outputs": [
        {
          "internalType": "uint256",
          "name": "",
          "type": "uint256"
        },
        {
          "internalType": "uint256",
          "name": "",
          "type": "uint256"
        },
        {
          "internalType": "uint256",
          "name": "",
          "type": "uint256"
        },
        {
          "internalType": "uint256",
          "name": "",
          "type": "uint256"
        }
      ],
      "payable": false,
      "stateMutability": "pure",
      "type": "function"
    },
    {
      "constant": false,
      "inputs": [
        {
          "internalType": "address",
          "name": "_slasherExecuter",
          "type": "address"
        }
      ],
      "name": "setSlasherExecuter",
      "outputs": [],
      "payable": false,
      "stateMutability": "nonpayable",
      "type": "function"
    },
    {
      "constant": false,
      "inputs": [
        {
          "internalType": "address",
          "name": "account",
          "type": "address"
        },
        {
          "internalType": "uint256",
          "name": "penalty",
          "type": "uint256"
        }
      ],
      "name": "approveSlashing",
      "outputs": [],
      "payable": false,
      "stateMutability": "nonpayable",
      "type": "function"
    },
    {
      "constant": false,
      "inputs": [
        {
          "internalType": "address",
          "name": "account",
          "type": "address"
        },
        {
          "internalType": "address[]",
          "name": "electionLessers",
          "type": "address[]"
        },
        {
          "internalType": "address[]",
          "name": "electionGreaters",
          "type": "address[]"
        },
        {
          "internalType": "uint256[]",
          "name": "electionIndices",
          "type": "uint256[]"
        }
      ],
      "name": "slash",
      "outputs": [
        {
          "internalType": "bool",
          "name": "",
          "type": "bool"
        }
      ],
      "payable": false,
      "stateMutability": "nonpayable",
      "type": "function"
    },
    {
      "constant": false,
      "inputs": [
        {
          "internalType": "address",
          "name": "account",
          "type": "address"
        },
        {
          "internalType": "address",
          "name": "group",
          "type": "address"
        },
        {
          "internalType": "address[]",
          "name": "electionLessers",
          "type": "address[]"
        },
        {
          "internalType": "address[]",
          "name": "electionGreaters",
          "type": "address[]"
        },
        {
          "internalType": "uint256[]",
          "name": "electionIndices",
          "type": "uint256[]"
        }
      ],
      "name": "slashL2",
      "outputs": [
        {
          "internalType": "bool",
          "name": "",
          "type": "bool"
        }
      ],
      "payable": false,
      "stateMutability": "nonpayable",
      "type": "function"
    },
    {
      "constant": true,
      "inputs": [
        {
          "internalType": "address",
          "name": "account",
          "type": "address"
        }
      ],
      "name": "getApprovedSlashing",
      "outputs": [
        {
          "internalType": "uint256",
          "name": "",
          "type": "uint256"
        }
      ],
      "payable": false,
      "stateMutability": "view",
      "type": "function"
    },
    {
      "constant": true,
      "inputs": [],
      "name": "getSlasherExecuter",
      "outputs": [
        {
          "internalType": "address",
          "name": "",
          "type": "address"
        }
      ],
      "payable": false,
      "stateMutability": "view",
      "type": "function"
    }
  ],
  "bytecode": "0x608060405234801561001057600080fd5b50604051611fd3380380611fd38339818101604052602081101561003357600080fd5b810190808051906020019092919050505080600061005561011b60201b60201c565b9050806000806101000a81548173ffffffffffffffffffffffffffffffffffffffff021916908373ffffffffffffffffffffffffffffffffffffffff1602179055508073ffffffffffffffffffffffffffffffffffffffff16600073ffffffffffffffffffffffffffffffffffffffff167f8be0079c531659141344cd1fd0a4f28419497f9722a3daafe3b4186f6b6457e060405160405180910390a35080610114576001600060146101000a81548160ff0219169083151502179055505b5050610123565b600033905090565b611ea1806101326000396000f3fe608060405234801561001057600080fd5b50600436106100f55760003560e01c80638da5cb5b11610097578063d6cbae0211610066578063d6cbae02146104a4578063d7c7d52b146105ff578063da853aed14610649578063f2fde38b146106a1576100f5565b80638da5cb5b146103b05780638f32d59b146103fa578063a91ee0dc1461041c578063c4d66de814610460576100f5565b806354255be0116100d357806354255be0146102e5578063715018a6146103185780637b1039991461032257806387fd38d31461036c576100f5565b8063158ef93e146100fa5780631c75f5c21461011c5780633a0dd69f1461016a575b600080fd5b6101026106e5565b604051808215151515815260200191505060405180910390f35b6101686004803603604081101561013257600080fd5b81019080803573ffffffffffffffffffffffffffffffffffffffff169060200190929190803590602001909291905050506106f8565b005b6102cb600480360360a081101561018057600080fd5b81019080803573ffffffffffffffffffffffffffffffffffffffff169060200190929190803573ffffffffffffffffffffffffffffffffffffffff169060200190929190803590602001906401000000008111156101dd57600080fd5b8201836020820111156101ef57600080fd5b8035906020019184602083028401116401000000008311171561021157600080fd5b90919293919293908035906020019064010000000081111561023257600080fd5b82018360208201111561024457600080fd5b8035906020019184602083028401116401000000008311171561026657600080fd5b90919293919293908035906020019064010000000081111561028757600080fd5b82018360208201111561029957600080fd5b803590602001918460208302840111640100000000831117156102bb57600080fd5b90919293919293905050506108df565b604051808215151515815260200191505060405180910390f35b6102ed611032565b6040518085815260200184815260200183815260200182815260200194505050505060405180910390f35b610320611059565b005b61032a611192565b604051808273ffffffffffffffffffffffffffffffffffffffff1673ffffffffffffffffffffffffffffffffffffffff16815260200191505060405180910390f35b6103ae6004803603602081101561038257600080fd5b81019080803573ffffffffffffffffffffffffffffffffffffffff1690602001909291905050506111b8565b005b6103b86112d9565b604051808273ffffffffffffffffffffffffffffffffffffffff1673ffffffffffffffffffffffffffffffffffffffff16815260200191505060405180910390f35b610402611302565b604051808215151515815260200191505060405180910390f35b61045e6004803603602081101561043257600080fd5b81019080803573ffffffffffffffffffffffffffffffffffffffff169060200190929190505050611360565b005b6104a26004803603602081101561047657600080fd5b81019080803573ffffffffffffffffffffffffffffffffffffffff169060200190929190505050611504565b005b6105e5600480360360808110156104ba57600080fd5b81019080803573ffffffffffffffffffffffffffffffffffffffff169060200190929190803590602001906401000000008111156104f757600080fd5b82018360208201111561050957600080fd5b8035906020019184602083028401116401000000008311171561052b57600080fd5b90919293919293908035906020019064010000000081111561054c57600080fd5b82018360208201111561055e57600080fd5b8035906020019184602083028401116401000000008311171561058057600080fd5b9091929391929390803590602001906401000000008111156105a157600080fd5b8201836020820111156105b357600080fd5b803590602001918460208302840111640100000000831117156105d557600080fd5b90919293919293905050506115b7565b604051808215151515815260200191505060405180910390f35b6106076118a6565b604051808273ffffffffffffffffffffffffffffffffffffffff1673ffffffffffffffffffffffffffffffffffffffff16815260200191505060405180910390f35b61068b6004803603602081101561065f57600080fd5b81019080803573ffffffffffffffffffffffffffffffffffffffff1690602001909291905050506118d0565b6040518082815260200191505060405180910390f35b6106e3600480360360208110156106b757600080fd5b81019080803573ffffffffffffffffffffffffffffffffffffffff169060200190929190505050611919565b005b600060149054906101000a900460ff1681565b6107006112d9565b73ffffffffffffffffffffffffffffffffffffffff163373ffffffffffffffffffffffffffffffffffffffff16148061078657503373ffffffffffffffffffffffffffffffffffffffff16600360009054906101000a900473ffffffffffffffffffffffffffffffffffffffff1673ffffffffffffffffffffffffffffffffffffffff16145b6107f8576040517f08c379a000000000000000000000000000000000000000000000000000000000815260040180806020018281038252601e8152602001807f53656e646572206e6f7420617574686f72697a656420746f20736c617368000081525060200191505060405180910390fd5b61084a81600260008573ffffffffffffffffffffffffffffffffffffffff1673ffffffffffffffffffffffffffffffffffffffff1681526020019081526020016000205461199f90919063ffffffff16565b600260008473ffffffffffffffffffffffffffffffffffffffff1673ffffffffffffffffffffffffffffffffffffffff168152602001908152602001600020819055508173ffffffffffffffffffffffffffffffffffffffff167f031b4696d0f74746e384670f56dacc22f2565b5637b797d8cf861dd5dfe73ed5826040518082815260200191505060405180910390a25050565b60006108e9611a27565b61093e576040517f08c379a0000000000000000000000000000000000000000000000000000000008152600401808060200182810382526023815260200180611e4a6023913960400191505060405180910390fd5b6109466112d9565b73ffffffffffffffffffffffffffffffffffffffff163373ffffffffffffffffffffffffffffffffffffffff1614806109cc57503373ffffffffffffffffffffffffffffffffffffffff16600360009054906101000a900473ffffffffffffffffffffffffffffffffffffffff1673ffffffffffffffffffffffffffffffffffffffff16145b610a3e576040517f08c379a000000000000000000000000000000000000000000000000000000000815260040180806020018281038252601e8152602001807f53656e646572206e6f7420617574686f72697a656420746f20736c617368000081525060200191505060405180910390fd5b6000600260008b73ffffffffffffffffffffffffffffffffffffffff1673ffffffffffffffffffffffffffffffffffffffff16815260200190815260200160002054905060008111610af8576040517f08c379a000000000000000000000000000000000000000000000000000000000815260040180806020018281038252601e8152602001807f4e6f2070656e616c747920676976656e20627920676f7665726e616e6365000081525060200191505060405180910390fd5b6000600260008c73ffffffffffffffffffffffffffffffffffffffff1673ffffffffffffffffffffffffffffffffffffffff168152602001908152602001600020819055506000610b47611a58565b90508073ffffffffffffffffffffffffffffffffffffffff166331993fc98c846000808e8e8e8e8e8e6040518b63ffffffff1660e01b8152600401808b73ffffffffffffffffffffffffffffffffffffffff1673ffffffffffffffffffffffffffffffffffffffff1681526020018a81526020018973ffffffffffffffffffffffffffffffffffffffff1673ffffffffffffffffffffffffffffffffffffffff16815260200188815260200180602001806020018060200184810384528a8a82818152602001925060200280828437600081840152601f19601f8201169050808301925050508481038352888882818152602001925060200280828437600081840152601f19601f8201169050808301925050508481038252868682818152602001925060200280828437600081840152601f19601f8201169050808301925050509d5050505050505050505050505050600060405180830381600087803b158015610cb257600080fd5b505af1158015610cc6573d6000803e3d6000fd5b50505050600073ffffffffffffffffffffffffffffffffffffffff168a73ffffffffffffffffffffffffffffffffffffffff1614610fbb578073ffffffffffffffffffffffffffffffffffffffff166331993fc98b846000808e8e8e8e8e8e6040518b63ffffffff1660e01b8152600401808b73ffffffffffffffffffffffffffffffffffffffff1673ffffffffffffffffffffffffffffffffffffffff1681526020018a81526020018973ffffffffffffffffffffffffffffffffffffffff1673ffffffffffffffffffffffffffffffffffffffff16815260200188815260200180602001806020018060200184810384528a8a82818152602001925060200280828437600081840152601f19601f8201169050808301925050508481038352888882818152602001925060200280828437600081840152601f19601f8201169050808301925050508481038252868682818152602001925060200280828437600081840152601f19601f8201169050808301925050509d5050505050505050505050505050600060405180830381600087803b158015610e6757600080fd5b505af1158015610e7b573d6000803e3d6000fd5b505050506000610e89611b53565b90508073ffffffffffffffffffffffffffffffffffffffff1663e33301aa8d6040518263ffffffff1660e01b8152600401808273ffffffffffffffffffffffffffffffffffffffff1673ffffffffffffffffffffffffffffffffffffffff168152602001915050600060405180830381600087803b158015610f0a57600080fd5b505af1158015610f1e573d6000803e3d6000fd5b505050508073ffffffffffffffffffffffffffffffffffffffff1663c22d3bba8c6040518263ffffffff1660e01b8152600401808273ffffffffffffffffffffffffffffffffffffffff1673ffffffffffffffffffffffffffffffffffffffff168152602001915050600060405180830381600087803b158015610fa157600080fd5b505af1158015610fb5573d6000803e3d6000fd5b50505050505b8973ffffffffffffffffffffffffffffffffffffffff168b73ffffffffffffffffffffffffffffffffffffffff167f855603bfff3f1f2bfd2964e9477a3248969cc3c637781b944b457ca85bdbfa98846040518082815260200191505060405180910390a360019250505098975050505050505050565b60008060008060018060016000839350829250819150809050935093509350935090919293565b611061611302565b6110d3576040517f08c379a00000000000000000000000000000000000000000000000000000000081526004018080602001828103825260208152602001807f4f776e61626c653a2063616c6c6572206973206e6f7420746865206f776e657281525060200191505060405180910390fd5b600073ffffffffffffffffffffffffffffffffffffffff166000809054906101000a900473ffffffffffffffffffffffffffffffffffffffff1673ffffffffffffffffffffffffffffffffffffffff167f8be0079c531659141344cd1fd0a4f28419497f9722a3daafe3b4186f6b6457e060405160405180910390a360008060006101000a81548173ffffffffffffffffffffffffffffffffffffffff021916908373ffffffffffffffffffffffffffffffffffffffff160217905550565b600160009054906101000a900473ffffffffffffffffffffffffffffffffffffffff1681565b6111c0611302565b611232576040517f08c379a00000000000000000000000000000000000000000000000000000000081526004018080602001828103825260208152602001807f4f776e61626c653a2063616c6c6572206973206e6f7420746865206f776e657281525060200191505060405180910390fd5b80600360006101000a81548173ffffffffffffffffffffffffffffffffffffffff021916908373ffffffffffffffffffffffffffffffffffffffff1602179055507f292cc7addbd51b7795a11887072cd03aa9dae7d9ec22738ce33d47c972e084c781604051808273ffffffffffffffffffffffffffffffffffffffff1673ffffffffffffffffffffffffffffffffffffffff16815260200191505060405180910390a150565b60008060009054906101000a900473ffffffffffffffffffffffffffffffffffffffff16905090565b60008060009054906101000a900473ffffffffffffffffffffffffffffffffffffffff1673ffffffffffffffffffffffffffffffffffffffff16611344611c4e565b73ffffffffffffffffffffffffffffffffffffffff1614905090565b611368611302565b6113da576040517f08c379a00000000000000000000000000000000000000000000000000000000081526004018080602001828103825260208152602001807f4f776e61626c653a2063616c6c6572206973206e6f7420746865206f776e657281525060200191505060405180910390fd5b600073ffffffffffffffffffffffffffffffffffffffff168173ffffffffffffffffffffffffffffffffffffffff16141561147d576040517f08c379a00000000000000000000000000000000000000000000000000000000081526004018080602001828103825260208152602001807f43616e6e6f7420726567697374657220746865206e756c6c206164647265737381525060200191505060405180910390fd5b80600160006101000a81548173ffffffffffffffffffffffffffffffffffffffff021916908373ffffffffffffffffffffffffffffffffffffffff1602179055508073ffffffffffffffffffffffffffffffffffffffff167f27fe5f0c1c3b1ed427cc63d0f05759ffdecf9aec9e18d31ef366fc8a6cb5dc3b60405160405180910390a250565b600060149054906101000a900460ff1615611587576040517f08c379a000000000000000000000000000000000000000000000000000000000815260040180806020018281038252601c8152602001807f636f6e747261637420616c726561647920696e697469616c697a65640000000081525060200191505060405180910390fd5b6001600060146101000a81548160ff0219169083151502179055506115ab33611c56565b6115b481611360565b50565b60006115c1611d9a565b6000600260008a73ffffffffffffffffffffffffffffffffffffffff1673ffffffffffffffffffffffffffffffffffffffff1681526020019081526020016000205490506000811161167b576040517f08c379a000000000000000000000000000000000000000000000000000000000815260040180806020018281038252601e8152602001807f4e6f2070656e616c747920676976656e20627920676f7665726e616e6365000081525060200191505060405180910390fd5b6000600260008b73ffffffffffffffffffffffffffffffffffffffff1673ffffffffffffffffffffffffffffffffffffffff168152602001908152602001600020819055506116c8611a58565b73ffffffffffffffffffffffffffffffffffffffff166331993fc98a836000808d8d8d8d8d8d6040518b63ffffffff1660e01b8152600401808b73ffffffffffffffffffffffffffffffffffffffff1673ffffffffffffffffffffffffffffffffffffffff1681526020018a81526020018973ffffffffffffffffffffffffffffffffffffffff1673ffffffffffffffffffffffffffffffffffffffff16815260200188815260200180602001806020018060200184810384528a8a82818152602001925060200280828437600081840152601f19601f8201169050808301925050508481038352888882818152602001925060200280828437600081840152601f19601f8201169050808301925050508481038252868682818152602001925060200280828437600081840152601f19601f8201169050808301925050509d5050505050505050505050505050600060405180830381600087803b15801561183057600080fd5b505af1158015611844573d6000803e3d6000fd5b505050508873ffffffffffffffffffffffffffffffffffffffff167fd2b041bb62d3ac9e704aadbea1d3a21b6f5b4677d0766e204c2d30dfc1a022f9826040518082815260200191505060405180910390a26001915050979650505050505050565b6000600360009054906101000a900473ffffffffffffffffffffffffffffffffffffffff16905090565b6000600260008373ffffffffffffffffffffffffffffffffffffffff1673ffffffffffffffffffffffffffffffffffffffff168152602001908152602001600020549050919050565b611921611302565b611993576040517f08c379a00000000000000000000000000000000000000000000000000000000081526004018080602001828103825260208152602001807f4f776e61626c653a2063616c6c6572206973206e6f7420746865206f776e657281525060200191505060405180910390fd5b61199c81611c56565b50565b600080828401905083811015611a1d576040517f08c379a000000000000000000000000000000000000000000000000000000000815260040180806020018281038252601b8152602001807f536166654d6174683a206164646974696f6e206f766572666c6f77000000000081525060200191505060405180910390fd5b8091505092915050565b60008060007342000000000000000000000000000000000000189050803b915060008263ffffffff16119250505090565b6000600160009054906101000a900473ffffffffffffffffffffffffffffffffffffffff1673ffffffffffffffffffffffffffffffffffffffff1663dcf0aaed60405160200180807f4c6f636b6564476f6c6400000000000000000000000000000000000000000000815250600a019050604051602081830303815290604052805190602001206040518263ffffffff1660e01b81526004018082815260200191505060206040518083038186803b158015611b1357600080fd5b505afa158015611b27573d6000803e3d6000fd5b505050506040513d6020811015611b3d57600080fd5b8101908080519060200190929190505050905090565b6000600160009054906101000a900473ffffffffffffffffffffffffffffffffffffffff1673ffffffffffffffffffffffffffffffffffffffff1663dcf0aaed60405160200180807f56616c696461746f727300000000000000000000000000000000000000000000815250600a019050604051602081830303815290604052805190602001206040518263ffffffff1660e01b81526004018082815260200191505060206040518083038186803b158015611c0e57600080fd5b505afa158015611c22573d6000803e3d6000fd5b505050506040513d6020811015611c3857600080fd5b8101908080519060200190929190505050905090565b600033905090565b600073ffffffffffffffffffffffffffffffffffffffff168173ffffffffffffffffffffffffffffffffffffffff161415611cdc576040517f08c379a0000000000000000000000000000000000000000000000000000000008152600401808060200182810382526026815260200180611dfb6026913960400191505060405180910390fd5b8073ffffffffffffffffffffffffffffffffffffffff166000809054906101000a900473ffffffffffffffffffffffffffffffffffffffff1673ffffffffffffffffffffffffffffffffffffffff167f8be0079c531659141344cd1fd0a4f28419497f9722a3daafe3b4186f6b6457e060405160405180910390a3806000806101000a81548173ffffffffffffffffffffffffffffffffffffffff021916908373ffffffffffffffffffffffffffffffffffffffff16021790555050565b611da2611a27565b15611df8576040517f08c379a0000000000000000000000000000000000000000000000000000000008152600401808060200182810382526029815260200180611e216029913960400191505060405180910390fd5b56fe4f776e61626c653a206e6577206f776e657220697320746865207a65726f206164647265737354686973206d6574686f64206973206e6f206c6f6e67657220737570706f7274656420696e204c322e54686973206d6574686f64206973206e6f7420737570706f7274656420696e204c312ea265627a7a72315820453a6f6350b6b7debbcfde16b426f7750e4a72dc81b707869a3bc72ba5a68b7264736f6c634300050d0032",
  "source": "pragma solidity ^0.5.13;\n\nimport \"openzeppelin-solidity/contracts/ownership/Ownable.sol\";\nimport \"openzeppelin-solidity/contracts/math/SafeMath.sol\";\n\nimport \"../common/Initializable.sol\";\nimport \"../common/UsingRegistry.sol\";\nimport \"./interfaces/IValidators.sol\";\nimport \"../../contracts-0.8/common/IsL2Check.sol\";\nimport \"../common/interfaces/ICeloVersionedContract.sol\";\n\ncontract GovernanceSlasher is\n  Ownable,\n  Initializable,\n  UsingRegistry,\n  ICeloVersionedContract,\n  IsL2Check\n{\n  using SafeMath for uint256;\n  // Maps a slashed address to the amount to be slashed.\n  // Note that there is no reward paid when slashing via governance.\n  mapping(address => uint256) slashed;\n  address internal slasherExecuter;\n\n  event SlashingApproved(address indexed account, uint256 amount);\n  event GovernanceSlashPerformed(address indexed account, uint256 amount);\n  event GovernanceSlashL2Performed(address indexed account, address indexed group, uint256 amount);\n  event SlasherExecuterSet(address slasherExecuter);\n\n  modifier onlyAuthorizedToSlash() {\n    require(\n      msg.sender == owner() || slasherExecuter == msg.sender,\n      \"Sender not authorized to slash\"\n    );\n    _;\n  }\n\n  /**\n   * @notice Sets initialized == true on implementation contracts\n   * @param test Set to true to skip implementation initialization\n   */\n  constructor(bool test) public Initializable(test) {}\n\n  /**\n   * @notice Used in place of the constructor to allow the contract to be upgradable via proxy.\n   * @param registryAddress The address of the registry core smart contract.\n   */\n  function initialize(address registryAddress) external initializer {\n    _transferOwnership(msg.sender);\n    setRegistry(registryAddress);\n  }\n\n  /**\n   * @notice Returns the storage, major, minor, and patch version of the contract.\n   * @return Storage version of the contract.\n   * @return Major version of the contract.\n   * @return Minor version of the contract.\n   * @return Patch version of the contract.\n   */\n  function getVersionNumber() external pure returns (uint256, uint256, uint256, uint256) {\n    return (1, 1, 1, 0);\n  }\n\n  function setSlasherExecuter(address _slasherExecuter) external onlyOwner {\n    slasherExecuter = _slasherExecuter;\n    emit SlasherExecuterSet(_slasherExecuter);\n  }\n\n  /**\n   * @notice Sets account penalty.\n   * @param account Address that is punished.\n   * @param penalty Amount of penalty in wei.\n   * @dev Only callable by governance.\n   */\n  function approveSlashing(address account, uint256 penalty) external onlyAuthorizedToSlash {\n    slashed[account] = slashed[account].add(penalty);\n    emit SlashingApproved(account, penalty);\n  }\n\n  /**\n   * @notice Calls `LockedGold.slash` on `account` if `account` has an entry in `slashed`.\n   * @param account Account to slash\n   * @param electionLessers Lesser pointers for slashing locked election gold.\n   * @param electionGreaters Greater pointers for slashing locked election gold.\n   * @param electionIndices Indices of groups voted by slashed account.\n   */\n  function slash(\n    address account,\n    address[] calldata electionLessers,\n    address[] calldata electionGreaters,\n    uint256[] calldata electionIndices\n  ) external onlyL1 returns (bool) {\n    uint256 penalty = slashed[account];\n    require(penalty > 0, \"No penalty given by governance\");\n    slashed[account] = 0;\n    getLockedGold().slash(\n      account,\n      penalty,\n      address(0),\n      0,\n      electionLessers,\n      electionGreaters,\n      electionIndices\n    );\n    emit GovernanceSlashPerformed(account, penalty);\n    return true;\n  }\n\n  /**\n   * @notice Calls `LockedGold.slash` on `account` if `account` has an entry in `slashed`.\n   * @param account Account to slash\n   * @param electionLessers Lesser pointers for slashing locked election gold.\n   * @param electionGreaters Greater pointers for slashing locked election gold.\n   * @param electionIndices Indices of groups voted by slashed account.\n   */\n  function slashL2(\n    address account,\n    address group,\n    address[] calldata electionLessers,\n    address[] calldata electionGreaters,\n    uint256[] calldata electionIndices\n  ) external onlyL2 onlyAuthorizedToSlash returns (bool) {\n    uint256 penalty = slashed[account];\n    require(penalty > 0, \"No penalty given by governance\");\n    slashed[account] = 0;\n\n    ILockedGold lockedGold = getLockedGold();\n\n    lockedGold.slash(\n      account,\n      penalty,\n      address(0),\n      0,\n      electionLessers,\n      electionGreaters,\n      electionIndices\n    );\n\n    if (group != address(0)) {\n      lockedGold.slash(\n        group,\n        penalty,\n        address(0),\n        0,\n        electionLessers,\n        electionGreaters,\n        electionIndices\n      );\n      IValidators validators = getValidators();\n      validators.forceDeaffiliateIfValidator(account);\n      validators.halveSlashingMultiplier(group);\n    }\n\n    emit GovernanceSlashL2Performed(account, group, penalty);\n    return true;\n  }\n\n  /**\n   * @notice Gets account penalty.\n   * @param account Address that is punished.\n   * @return Amount slashed.\n   */\n  function getApprovedSlashing(address account) external view returns (uint256) {\n    return slashed[account];\n  }\n\n  function getSlasherExecuter() external view returns (address) {\n    return slasherExecuter;\n  }\n}\n",
  "sourcePath": "/Users/beaver/Development/temp/celo-monorepo/packages/protocol/contracts/governance/GovernanceSlasher.sol",
  "compiler": {
    "name": "solc",
    "version": "0.5.13+commit.5b0b510c.Emscripten.clang"
  },
  "schemaVersion": "3.4.13",
  "updatedAt": "2025-05-05T17:49:51.404Z",
  "devdoc": {
    "methods": {
      "approveSlashing(address,uint256)": {
        "details": "Only callable by governance.",
        "params": {
          "account": "Address that is punished.",
          "penalty": "Amount of penalty in wei."
        }
      },
      "constructor": {
        "params": {
          "test": "Set to true to skip implementation initialization"
        }
      },
      "getApprovedSlashing(address)": {
        "params": {
          "account": "Address that is punished."
        },
        "return": "Amount slashed."
      },
      "getVersionNumber()": {
        "return": "Storage version of the contract.Major version of the contract.Minor version of the contract.Patch version of the contract."
      },
      "initialize(address)": {
        "params": {
          "registryAddress": "The address of the registry core smart contract."
        }
      },
      "isOwner()": {
        "details": "Returns true if the caller is the current owner."
      },
      "owner()": {
        "details": "Returns the address of the current owner."
      },
      "renounceOwnership()": {
        "details": "Leaves the contract without owner. It will not be possible to call `onlyOwner` functions anymore. Can only be called by the current owner.     * NOTE: Renouncing ownership will leave the contract without an owner, thereby removing any functionality that is only available to the owner."
      },
      "setRegistry(address)": {
        "params": {
          "registryAddress": "The address of a registry contract for routing to other contracts."
        }
      },
      "slash(address,address[],address[],uint256[])": {
        "params": {
          "account": "Account to slash",
          "electionGreaters": "Greater pointers for slashing locked election gold.",
          "electionIndices": "Indices of groups voted by slashed account.",
          "electionLessers": "Lesser pointers for slashing locked election gold."
        }
      },
      "slashL2(address,address,address[],address[],uint256[])": {
        "params": {
          "account": "Account to slash",
          "electionGreaters": "Greater pointers for slashing locked election gold.",
          "electionIndices": "Indices of groups voted by slashed account.",
          "electionLessers": "Lesser pointers for slashing locked election gold."
        }
      },
      "transferOwnership(address)": {
        "details": "Transfers ownership of the contract to a new account (`newOwner`). Can only be called by the current owner."
      }
    }
  },
  "userdoc": {
    "methods": {
      "approveSlashing(address,uint256)": {
        "notice": "Sets account penalty."
      },
      "constructor": "Sets initialized == true on implementation contracts",
      "getApprovedSlashing(address)": {
        "notice": "Gets account penalty."
      },
      "getVersionNumber()": {
        "notice": "Returns the storage, major, minor, and patch version of the contract."
      },
      "initialize(address)": {
        "notice": "Used in place of the constructor to allow the contract to be upgradable via proxy."
      },
      "setRegistry(address)": {
        "notice": "Updates the address pointing to a Registry contract."
      },
      "slash(address,address[],address[],uint256[])": {
        "notice": "Calls `LockedGold.slash` on `account` if `account` has an entry in `slashed`."
      },
      "slashL2(address,address,address[],address[],uint256[])": {
        "notice": "Calls `LockedGold.slash` on `account` if `account` has an entry in `slashed`."
      }
    }
  }
}