{
  "contractName": "HasInitializer",
  "abi": [
    {
      "constant": true,
      "inputs": [],
      "name": "initialized",
      "outputs": [
        {
          "internalType": "bool",
          "name": "",
          "type": "bool"
        }
      ],
      "payable": false,
      "stateMutability": "view",
      "type": "function"
    },
    {
      "constant": true,
      "inputs": [],
      "name": "x",
      "outputs": [
        {
          "internalType": "uint256",
          "name": "",
          "type": "uint256"
        }
      ],
      "payable": false,
      "stateMutability": "view",
      "type": "function"
    },
    {
      "constant": false,
      "inputs": [
        {
          "internalType": "uint256",
          "name": "_x",
          "type": "uint256"
        }
      ],
      "name": "initialize",
      "outputs": [],
      "payable": false,
      "stateMutability": "nonpayable",
      "type": "function"
    }
  ],
  "bytecode": "0x60806040526001806100265760016000806101000a81548160ff0219169083151502179055505b506101a7806100366000396000f3fe608060405234801561001057600080fd5b50600436106100415760003560e01c80630c55699c14610046578063158ef93e14610064578063fe4b84df14610086575b600080fd5b61004e6100b4565b6040518082815260200191505060405180910390f35b61006c6100ba565b604051808215151515815260200191505060405180910390f35b6100b26004803603602081101561009c57600080fd5b81019080803590602001909291905050506100cc565b005b60015481565b6000809054906101000a900460ff1681565b6000809054906101000a900460ff161561014e576040517f08c379a000000000000000000000000000000000000000000000000000000000815260040180806020018281038252601c8152602001807f636f6e747261637420616c726561647920696e697469616c697a65640000000081525060200191505060405180910390fd5b60016000806101000a81548160ff021916908315150217905550806001819055505056fea265627a7a7231582056a065534e248f75a5f334bdc437afbb3919d05e2fb4cc246d430bfd649da62764736f6c634300050d0032",
  "source": "pragma solidity ^0.5.13;\n\nimport \"../Initializable.sol\";\n\ncontract HasInitializer is Initializable(true) {\n  uint256 public x;\n\n  function initialize(uint256 _x) external initializer {\n    x = _x;\n  }\n}\n",
  "sourcePath": "/Users/beaver/Development/temp/celo-monorepo/packages/protocol/contracts/common/test/HasInitializer.sol",
  "compiler": {
    "name": "solc",
    "version": "0.5.13+commit.5b0b510c.Emscripten.clang"
  },
  "schemaVersion": "3.4.13",
  "updatedAt": "2025-05-05T17:49:51.320Z",
  "devdoc": {
    "methods": {}
  },
  "userdoc": {
    "methods": {}
  }
}