{
  "contractName": "IdentityProxyHub",
  "abi": [
    {
      "anonymous": false,
      "inputs": [
        {
          "indexed": true,
          "internalType": "address",
          "name": "previousOwner",
          "type": "address"
        },
        {
          "indexed": true,
          "internalType": "address",
          "name": "newOwner",
          "type": "address"
        }
      ],
      "name": "OwnershipTransferred",
      "type": "event"
    },
    {
      "anonymous": false,
      "inputs": [
        {
          "indexed": true,
          "internalType": "address",
          "name": "registryAddress",
          "type": "address"
        }
      ],
      "name": "RegistrySet",
      "type": "event"
    },
    {
      "constant": true,
      "inputs": [],
      "name": "identityProxyCodeHash",
      "outputs": [
        {
          "internalType": "bytes32",
          "name": "",
          "type": "bytes32"
        }
      ],
      "payable": false,
      "stateMutability": "view",
      "type": "function"
    },
    {
      "constant": true,
      "inputs": [],
      "name": "isOwner",
      "outputs": [
        {
          "internalType": "bool",
          "name": "",
          "type": "bool"
        }
      ],
      "payable": false,
      "stateMutability": "view",
      "type": "function"
    },
    {
      "constant": true,
      "inputs": [],
      "name": "owner",
      "outputs": [
        {
          "internalType": "address",
          "name": "",
          "type": "address"
        }
      ],
      "payable": false,
      "stateMutability": "view",
      "type": "function"
    },
    {
      "constant": true,
      "inputs": [],
      "name": "registry",
      "outputs": [
        {
          "internalType": "contract IRegistry",
          "name": "",
          "type": "address"
        }
      ],
      "payable": false,
      "stateMutability": "view",
      "type": "function"
    },
    {
      "constant": false,
      "inputs": [],
      "name": "renounceOwnership",
      "outputs": [],
      "payable": false,
      "stateMutability": "nonpayable",
      "type": "function"
    },
    {
      "constant": false,
      "inputs": [
        {
          "internalType": "address",
          "name": "registryAddress",
          "type": "address"
        }
      ],
      "name": "setRegistry",
      "outputs": [],
      "payable": false,
      "stateMutability": "nonpayable",
      "type": "function"
    },
    {
      "constant": false,
      "inputs": [
        {
          "internalType": "address",
          "name": "newOwner",
          "type": "address"
        }
      ],
      "name": "transferOwnership",
      "outputs": [],
      "payable": false,
      "stateMutability": "nonpayable",
      "type": "function"
    },
    {
      "constant": false,
      "inputs": [
        {
          "internalType": "bytes32",
          "name": "identifier",
          "type": "bytes32"
        },
        {
          "internalType": "address",
          "name": "destination",
          "type": "address"
        },
        {
          "internalType": "bytes",
          "name": "data",
          "type": "bytes"
        }
      ],
      "name": "makeCall",
      "outputs": [
        {
          "internalType": "bytes",
          "name": "",
          "type": "bytes"
        }
      ],
      "payable": true,
      "stateMutability": "payable",
      "type": "function"
    },
    {
      "constant": true,
      "inputs": [],
      "name": "getVersionNumber",
      "outputs": [
        {
          "internalType": "uint256",
          "name": "",
          "type": "uint256"
        },
        {
          "internalType": "uint256",
          "name": "",
          "type": "uint256"
        },
        {
          "internalType": "uint256",
          "name": "",
          "type": "uint256"
        },
        {
          "internalType": "uint256",
          "name": "",
          "type": "uint256"
        }
      ],
      "payable": false,
      "stateMutability": "pure",
      "type": "function"
    },
    {
      "constant": false,
      "inputs": [
        {
          "internalType": "bytes32",
          "name": "identifier",
          "type": "bytes32"
        }
      ],
      "name": "getOrDeployIdentityProxy",
      "outputs": [
        {
          "internalType": "contract IdentityProxy",
          "name": "",
          "type": "address"
        }
      ],
      "payable": false,
      "stateMutability": "nonpayable",
      "type": "function"
    },
    {
      "constant": true,
      "inputs": [
        {
          "internalType": "bytes32",
          "name": "identifier",
          "type": "bytes32"
        }
      ],
      "name": "getIdentityProxy",
      "outputs": [
        {
          "internalType": "contract IdentityProxy",
          "name": "",
          "type": "address"
        }
      ],
      "payable": false,
      "stateMutability": "view",
      "type": "function"
    },
    {
      "constant": true,
      "inputs": [
        {
          "internalType": "address",
          "name": "addr",
          "type": "address"
        },
        {
          "internalType": "bytes32",
          "name": "identifier",
          "type": "bytes32"
        }
      ],
      "name": "passesIdentityHeuristic",
      "outputs": [
        {
          "internalType": "bool",
          "name": "",
          "type": "bool"
        }
      ],
      "payable": false,
      "stateMutability": "view",
      "type": "function"
    }
  ],
  "bytecode": "0x608060405260006100146100b760201b60201c565b9050806000806101000a81548173ffffffffffffffffffffffffffffffffffffffff021916908373ffffffffffffffffffffffffffffffffffffffff1602179055508073ffffffffffffffffffffffffffffffffffffffff16600073ffffffffffffffffffffffffffffffffffffffff167f8be0079c531659141344cd1fd0a4f28419497f9722a3daafe3b4186f6b6457e060405160405180910390a3506100bf565b600033905090565b611a31806100ce6000396000f3fe6080604052600436106100a75760003560e01c80637b103999116100645780637b103999146103385780638da5cb5b1461038f5780638f32d59b146103e6578063a91ee0dc14610415578063ddecbfe814610466578063f2fde38b146104e1576100a7565b806342b9356f146100ac57806346fa85d5146100d757806354255be0146101525780635f75912b14610192578063632b7ea514610205578063715018a614610321575b600080fd5b3480156100b857600080fd5b506100c1610532565b6040518082815260200191505060405180910390f35b3480156100e357600080fd5b50610110600480360360208110156100fa57600080fd5b81019080803590602001909291905050506105ca565b604051808273ffffffffffffffffffffffffffffffffffffffff1673ffffffffffffffffffffffffffffffffffffffff16815260200191505060405180910390f35b34801561015e57600080fd5b50610167610672565b6040518085815260200184815260200183815260200182815260200194505050505060405180910390f35b34801561019e57600080fd5b506101eb600480360360408110156101b557600080fd5b81019080803573ffffffffffffffffffffffffffffffffffffffff16906020019092919080359060200190929190505050610699565b604051808215151515815260200191505060405180910390f35b6102a66004803603606081101561021b57600080fd5b8101908080359060200190929190803573ffffffffffffffffffffffffffffffffffffffff1690602001909291908035906020019064010000000081111561026257600080fd5b82018360208201111561027457600080fd5b8035906020019184600183028401116401000000008311171561029657600080fd5b9091929391929390505050610a61565b6040518080602001828103825283818151815260200191508051906020019080838360005b838110156102e65780820151818401526020810190506102cb565b50505050905090810190601f1680156103135780820380516001836020036101000a031916815260200191505b509250505060405180910390f35b34801561032d57600080fd5b50610336610c9e565b005b34801561034457600080fd5b5061034d610dd7565b604051808273ffffffffffffffffffffffffffffffffffffffff1673ffffffffffffffffffffffffffffffffffffffff16815260200191505060405180910390f35b34801561039b57600080fd5b506103a4610dfd565b604051808273ffffffffffffffffffffffffffffffffffffffff1673ffffffffffffffffffffffffffffffffffffffff16815260200191505060405180910390f35b3480156103f257600080fd5b506103fb610e26565b604051808215151515815260200191505060405180910390f35b34801561042157600080fd5b506104646004803603602081101561043857600080fd5b81019080803573ffffffffffffffffffffffffffffffffffffffff169060200190929190505050610e84565b005b34801561047257600080fd5b5061049f6004803603602081101561048957600080fd5b8101908080359060200190929190505050611028565b604051808273ffffffffffffffffffffffffffffffffffffffff1673ffffffffffffffffffffffffffffffffffffffff16815260200191505060405180910390f35b3480156104ed57600080fd5b506105306004803603602081101561050457600080fd5b81019080803573ffffffffffffffffffffffffffffffffffffffff16906020019092919050505061105a565b005b6040518060200161054290611445565b6020820181038252601f19601f820116604052506040516020018082805190602001908083835b6020831061058c5780518252602082019150602081019050602083039250610569565b6001836020036101000a0380198251168184511680821785525050505050509050019150506040516020818303038152906040528051906020012081565b600061066b3083604051806020016105e190611445565b6020820181038252601f19601f820116604052506040516020018082805190602001908083835b6020831061062b5780518252602082019150602081019050602083039250610608565b6001836020036101000a038019825116818451168082178552505050505050905001915050604051602081830303815290604052805190602001206110e0565b9050919050565b60008060008060016000806001839350829250819150809050935093509350935090919293565b6000806106a46111a4565b90506000808273ffffffffffffffffffffffffffffffffffffffff1663596abea586886040518363ffffffff1660e01b8152600401808381526020018273ffffffffffffffffffffffffffffffffffffffff1673ffffffffffffffffffffffffffffffffffffffff16815260200192505050604080518083038186803b15801561072d57600080fd5b505afa158015610741573d6000803e3d6000fd5b505050506040513d604081101561075757600080fd5b81019080805190602001909291908051906020019092919050505091509150600060038363ffffffff1610159050600080905060008463ffffffff1611156107bb5760028463ffffffff168463ffffffff16816107b057fe5b0463ffffffff161090505b60006001905060608673ffffffffffffffffffffffffffffffffffffffff166303cc1aff8a6040518263ffffffff1660e01b81526004018082815260200191505060006040518083038186803b15801561081457600080fd5b505afa158015610828573d6000803e3d6000fd5b505050506040513d6000823e3d601f19601f82011682018060405250602081101561085257600080fd5b810190808051604051939291908464010000000082111561087257600080fd5b8382019150602082018581111561088857600080fd5b82518660208202830111640100000000821117156108a557600080fd5b8083526020830192505050908051906020019060200280838360005b838110156108dc5780820151818401526020810190506108c1565b50505050905001604052505050905060008090505b8151811015610a3e57600082828151811061090857fe5b602002602001015190508b73ffffffffffffffffffffffffffffffffffffffff168173ffffffffffffffffffffffffffffffffffffffff1614610a305760008973ffffffffffffffffffffffffffffffffffffffff1663596abea58d846040518363ffffffff1660e01b8152600401808381526020018273ffffffffffffffffffffffffffffffffffffffff1673ffffffffffffffffffffffffffffffffffffffff16815260200192505050604080518083038186803b1580156109cb57600080fd5b505afa1580156109df573d6000803e3d6000fd5b505050506040513d60408110156109f557600080fd5b810190808051906020019092919080519060200190929190505050509050848015610a2c57508863ffffffff168163ffffffff1611155b9450505b5080806001019150506108f1565b50838015610a495750825b8015610a525750815b97505050505050505092915050565b6060610a6d3386610699565b610adf576040517f08c379a00000000000000000000000000000000000000000000000000000000081526004018080602001828103825260208152602001807f646f6573206e6f742070617373206964656e746974792068657572697374696381525060200191505060405180910390fd5b610ae885611028565b73ffffffffffffffffffffffffffffffffffffffff16631cb9ce63348686866040518563ffffffff1660e01b8152600401808473ffffffffffffffffffffffffffffffffffffffff1673ffffffffffffffffffffffffffffffffffffffff168152602001806020018281038252848482818152602001925080828437600081840152601f19601f8201169050808301925050509450505050506000604051808303818588803b158015610b9a57600080fd5b505af1158015610bae573d6000803e3d6000fd5b50505050506040513d6000823e3d601f19601f820116820180604052506020811015610bd957600080fd5b8101908080516040519392919084640100000000821115610bf957600080fd5b83820191506020820185811115610c0f57600080fd5b8251866001820283011164010000000082111715610c2c57600080fd5b8083526020830192505050908051906020019080838360005b83811015610c60578082015181840152602081019050610c45565b50505050905090810190601f168015610c8d5780820380516001836020036101000a031916815260200191505b506040525050509050949350505050565b610ca6610e26565b610d18576040517f08c379a00000000000000000000000000000000000000000000000000000000081526004018080602001828103825260208152602001807f4f776e61626c653a2063616c6c6572206973206e6f7420746865206f776e657281525060200191505060405180910390fd5b600073ffffffffffffffffffffffffffffffffffffffff166000809054906101000a900473ffffffffffffffffffffffffffffffffffffffff1673ffffffffffffffffffffffffffffffffffffffff167f8be0079c531659141344cd1fd0a4f28419497f9722a3daafe3b4186f6b6457e060405160405180910390a360008060006101000a81548173ffffffffffffffffffffffffffffffffffffffff021916908373ffffffffffffffffffffffffffffffffffffffff160217905550565b600160009054906101000a900473ffffffffffffffffffffffffffffffffffffffff1681565b60008060009054906101000a900473ffffffffffffffffffffffffffffffffffffffff16905090565b60008060009054906101000a900473ffffffffffffffffffffffffffffffffffffffff1673ffffffffffffffffffffffffffffffffffffffff16610e6861129f565b73ffffffffffffffffffffffffffffffffffffffff1614905090565b610e8c610e26565b610efe576040517f08c379a00000000000000000000000000000000000000000000000000000000081526004018080602001828103825260208152602001807f4f776e61626c653a2063616c6c6572206973206e6f7420746865206f776e657281525060200191505060405180910390fd5b600073ffffffffffffffffffffffffffffffffffffffff168173ffffffffffffffffffffffffffffffffffffffff161415610fa1576040517f08c379a00000000000000000000000000000000000000000000000000000000081526004018080602001828103825260208152602001807f43616e6e6f7420726567697374657220746865206e756c6c206164647265737381525060200191505060405180910390fd5b80600160006101000a81548173ffffffffffffffffffffffffffffffffffffffff021916908373ffffffffffffffffffffffffffffffffffffffff1602179055508073ffffffffffffffffffffffffffffffffffffffff167f27fe5f0c1c3b1ed427cc63d0f05759ffdecf9aec9e18d31ef366fc8a6cb5dc3b60405160405180910390a250565b600080611034836105ca565b90506000813b905060008114156110505761104e846112a7565b505b8192505050919050565b611062610e26565b6110d4576040517f08c379a00000000000000000000000000000000000000000000000000000000081526004018080602001828103825260208152602001807f4f776e61626c653a2063616c6c6572206973206e6f7420746865206f776e657281525060200191505060405180910390fd5b6110dd816112dd565b50565b600060ff60f81b84848460405160200180857effffffffffffffffffffffffffffffffffffffffffffffffffffffffffffff19167effffffffffffffffffffffffffffffffffffffffffffffffffffffffffffff191681526001018473ffffffffffffffffffffffffffffffffffffffff1673ffffffffffffffffffffffffffffffffffffffff1660601b81526014018381526020018281526020019450505050506040516020818303038152906040528051906020012060001c90509392505050565b6000600160009054906101000a900473ffffffffffffffffffffffffffffffffffffffff1673ffffffffffffffffffffffffffffffffffffffff1663dcf0aaed60405160200180807f4174746573746174696f6e730000000000000000000000000000000000000000815250600c019050604051602081830303815290604052805190602001206040518263ffffffff1660e01b81526004018082815260200191505060206040518083038186803b15801561125f57600080fd5b505afa158015611273573d6000803e3d6000fd5b505050506040513d602081101561128957600080fd5b8101908080519060200190929190505050905090565b600033905090565b60006112d682604051806020016112bd90611445565b6020820181038252601f19601f82011660405250611421565b9050919050565b600073ffffffffffffffffffffffffffffffffffffffff168173ffffffffffffffffffffffffffffffffffffffff161415611363576040517f08c379a00000000000000000000000000000000000000000000000000000000081526004018080602001828103825260268152602001806119d76026913960400191505060405180910390fd5b8073ffffffffffffffffffffffffffffffffffffffff166000809054906101000a900473ffffffffffffffffffffffffffffffffffffffff1673ffffffffffffffffffffffffffffffffffffffff167f8be0079c531659141344cd1fd0a4f28419497f9722a3daafe3b4186f6b6457e060405160405180910390a3806000806101000a81548173ffffffffffffffffffffffffffffffffffffffff021916908373ffffffffffffffffffffffffffffffffffffffff16021790555050565b600080838351602085016000f59050803b61143b57600080fd5b8091505092915050565b610584806114538339019056fe608060405234801561001057600080fd5b50336000806101000a81548173ffffffffffffffffffffffffffffffffffffffff021916908373ffffffffffffffffffffffffffffffffffffffff160217905550610524806100606000396000f3fe6080604052600436106100295760003560e01c80631cb9ce631461002e578063d5f3948814610140575b600080fd5b6100c56004803603604081101561004457600080fd5b81019080803573ffffffffffffffffffffffffffffffffffffffff1690602001909291908035906020019064010000000081111561008157600080fd5b82018360208201111561009357600080fd5b803590602001918460018302840111640100000000831117156100b557600080fd5b9091929391929390505050610197565b6040518080602001828103825283818151815260200191508051906020019080838360005b838110156101055780820151818401526020810190506100ea565b50505050905090810190601f1680156101325780820380516001836020036101000a031916815260200191505b509250505060405180910390f35b34801561014c57600080fd5b50610155610296565b604051808273ffffffffffffffffffffffffffffffffffffffff1673ffffffffffffffffffffffffffffffffffffffff16815260200191505060405180910390f35b60606000809054906101000a900473ffffffffffffffffffffffffffffffffffffffff1673ffffffffffffffffffffffffffffffffffffffff163373ffffffffffffffffffffffffffffffffffffffff161461023e576040517f08c379a00000000000000000000000000000000000000000000000000000000081526004018080602001828103825260228152602001806104ce6022913960400191505060405180910390fd5b61028d843485858080601f016020809104026020016040519081016040528093929190818152602001838380828437600081840152601f19601f820116905080830192505050505050506102bb565b90509392505050565b6000809054906101000a900473ffffffffffffffffffffffffffffffffffffffff1681565b6060600082511115610343576102d084610482565b610342576040517f08c379a00000000000000000000000000000000000000000000000000000000081526004018080602001828103825260188152602001807f496e76616c696420636f6e74726163742061646472657373000000000000000081525060200191505060405180910390fd5b5b600060608573ffffffffffffffffffffffffffffffffffffffff1685856040518082805190602001908083835b602083106103935780518252602082019150602081019050602083039250610370565b6001836020036101000a03801982511681845116808217855250505050505090500191505060006040518083038185875af1925050503d80600081146103f5576040519150601f19603f3d011682016040523d82523d6000602084013e6103fa565b606091505b50809250819350505081610476576040517f08c379a000000000000000000000000000000000000000000000000000000000815260040180806020018281038252601d8152602001807f5472616e73616374696f6e20657865637574696f6e206661696c65642e00000081525060200191505060405180910390fd5b80925050509392505050565b60008060007fc5d2460186f7233c927e7db2dcc703c0e500b653ca82273b7bfad8045d85a47060001b9050833f91508082141580156104c457506000801b8214155b9250505091905056fe4f6e6c792063616c6c61626c65206279206f726967696e616c206465706c6f796572a265627a7a72315820796e51776349bb2b3e4dcb41346aa3bf42360e48d1cc096de34492628cb3f13164736f6c634300050d00324f776e61626c653a206e6577206f776e657220697320746865207a65726f2061646472657373a265627a7a72315820e41ef86626839f7c1f5f93488c47172340327a93f3bf59f43f7295d348a8665064736f6c634300050d0032",
  "source": "pragma solidity ^0.5.13;\n\nimport \"../common/Create2.sol\";\nimport \"../common/interfaces/ICeloVersionedContract.sol\";\nimport \"../common/UsingRegistry.sol\";\nimport \"./IdentityProxy.sol\";\n\ncontract IdentityProxyHub is UsingRegistry, ICeloVersionedContract {\n  bytes32 public constant identityProxyCodeHash =\n    keccak256(\n      // solhint-disable-next-line indent\n      abi.encodePacked(type(IdentityProxy).creationCode)\n    );\n\n  /**\n   * @notice Performs an arbitrary call through the identifier's IdentityProxy,\n   * assuming msg.sender passes the identity heuristic.\n   * @param identifier The identifier whose IdentityProxy to call through.\n   * @param destination The address the IdentityProxy should call.\n   * @param data The calldata the IdentityProxy should send with the call.\n   * @return The return value of the external call.\n   */\n  function makeCall(\n    bytes32 identifier,\n    address destination,\n    bytes calldata data\n  ) external payable returns (bytes memory) {\n    require(passesIdentityHeuristic(msg.sender, identifier), \"does not pass identity heuristic\");\n    return getOrDeployIdentityProxy(identifier).makeCall.value(msg.value)(destination, data);\n  }\n\n  /**\n   * @notice Returns the storage, major, minor, and patch version of the contract.\n   * @return Storage version of the contract.\n   * @return Major version of the contract.\n   * @return Minor version of the contract.\n   * @return Patch version of the contract.\n   */\n  function getVersionNumber() external pure returns (uint256, uint256, uint256, uint256) {\n    return (1, 0, 0, 1);\n  }\n\n  /**\n   * @notice Returns the IdentityProxy address corresponding to the identifier,\n   * deploying an IdentityProxy if one hasn't already been deployed for this\n   * identifier.\n   * @param identifier The identifier whose proxy address is returned.\n   * @return The identifier's IdentityProxy address.\n   */\n  function getOrDeployIdentityProxy(bytes32 identifier) public returns (IdentityProxy) {\n    IdentityProxy identityProxy = getIdentityProxy(identifier);\n    uint256 codeSize;\n    assembly {\n      codeSize := extcodesize(identityProxy)\n    }\n    if (codeSize == 0) {\n      deployIdentityProxy(identifier);\n    }\n\n    return identityProxy;\n  }\n\n  /**\n   * @notice Returns the IdentityProxy address corresponding to the identifier.\n   * @param identifier The identifier whose proxy address is computed.\n   * @return The identifier's IdentityProxy address.\n   * @dev This function will return a correct address whether or not the\n   * corresponding IdentityProxy has been deployed. IdentityProxies are deployed\n   * using CREATE2 and this computes a CREATE2 address.\n   */\n  function getIdentityProxy(bytes32 identifier) public view returns (IdentityProxy) {\n    return IdentityProxy(Create2.computeAddress(address(this), identifier, identityProxyCodeHash));\n  }\n\n  /**\n   * @notice Returns true if the given address is the likely owner of the given\n   * identifier.\n   * @param addr The address to check.\n   * @param identifier The identifier to check.\n   * @return True if the given address is the likely owner of the given\n   * identifier, false otherwise.\n   * @dev Heuristic for ownership checks that the given account:\n   *   1. Has at least 3 completed attestations on the given identifier.\n   *   2. Completed strictly more than half of requested attestations.\n   *   3. Has at least as many completed attestations as any other account.\n   */\n  function passesIdentityHeuristic(address addr, bytes32 identifier) public view returns (bool) {\n    IAttestations attestations = getAttestations();\n    (uint32 completed, uint32 requested) = attestations.getAttestationStats(identifier, addr);\n\n    // 1. Check that the account has at least 3 completed attestations on the given identifier.\n    bool hasEnoughCompletions = completed >= 3;\n\n    // 2. Check that the account Completed strictly more than half of requested attestations.\n    bool completedOverHalfRequests = false;\n    if (completed > 0) {\n      completedOverHalfRequests = requested / completed < 2;\n    }\n\n    // 3. Check that the account has at least as many completed attestations as any other account.\n    bool hasMostCompletions = true;\n    address[] memory addresses = attestations.lookupAccountsForIdentifier(identifier);\n    for (uint256 i = 0; i < addresses.length; i++) {\n      address otherAddr = addresses[i];\n      if (otherAddr != addr) {\n        (uint32 otherCompleted, ) = attestations.getAttestationStats(identifier, otherAddr);\n        hasMostCompletions = hasMostCompletions && otherCompleted <= completed;\n      }\n    }\n\n    // Return true if the account passed all three checks above.\n    // Note: We do not return early on failures as we are optimizing for the passing case.\n    return hasEnoughCompletions && completedOverHalfRequests && hasMostCompletions;\n  }\n\n  function deployIdentityProxy(bytes32 identifier) internal returns (IdentityProxy) {\n    // solhint-disable-next-line indent\n    return IdentityProxy(Create2.deploy(identifier, type(IdentityProxy).creationCode));\n  }\n}\n",
  "sourcePath": "/Users/beaver/Development/temp/celo-monorepo/packages/protocol/contracts/identity/IdentityProxyHub.sol",
  "compiler": {
    "name": "solc",
    "version": "0.5.13+commit.5b0b510c.Emscripten.clang"
  },
  "schemaVersion": "3.4.13",
  "updatedAt": "2025-05-05T17:49:51.507Z",
  "devdoc": {
    "methods": {
      "getIdentityProxy(bytes32)": {
        "details": "This function will return a correct address whether or not the corresponding IdentityProxy has been deployed. IdentityProxies are deployed using CREATE2 and this computes a CREATE2 address.",
        "params": {
          "identifier": "The identifier whose proxy address is computed."
        },
        "return": "The identifier's IdentityProxy address."
      },
      "getOrDeployIdentityProxy(bytes32)": {
        "params": {
          "identifier": "The identifier whose proxy address is returned."
        },
        "return": "The identifier's IdentityProxy address."
      },
      "getVersionNumber()": {
        "return": "Storage version of the contract.Major version of the contract.Minor version of the contract.Patch version of the contract."
      },
      "isOwner()": {
        "details": "Returns true if the caller is the current owner."
      },
      "makeCall(bytes32,address,bytes)": {
        "params": {
          "data": "The calldata the IdentityProxy should send with the call.",
          "destination": "The address the IdentityProxy should call.",
          "identifier": "The identifier whose IdentityProxy to call through."
        },
        "return": "The return value of the external call."
      },
      "owner()": {
        "details": "Returns the address of the current owner."
      },
      "passesIdentityHeuristic(address,bytes32)": {
        "details": "Heuristic for ownership checks that the given account:  1. Has at least 3 completed attestations on the given identifier.  2. Completed strictly more than half of requested attestations.  3. Has at least as many completed attestations as any other account.",
        "params": {
          "addr": "The address to check.",
          "identifier": "The identifier to check."
        },
        "return": "True if the given address is the likely owner of the given identifier, false otherwise."
      },
      "renounceOwnership()": {
        "details": "Leaves the contract without owner. It will not be possible to call `onlyOwner` functions anymore. Can only be called by the current owner.     * NOTE: Renouncing ownership will leave the contract without an owner, thereby removing any functionality that is only available to the owner."
      },
      "setRegistry(address)": {
        "params": {
          "registryAddress": "The address of a registry contract for routing to other contracts."
        }
      },
      "transferOwnership(address)": {
        "details": "Transfers ownership of the contract to a new account (`newOwner`). Can only be called by the current owner."
      }
    }
  },
  "userdoc": {
    "methods": {
      "getIdentityProxy(bytes32)": {
        "notice": "Returns the IdentityProxy address corresponding to the identifier."
      },
      "getOrDeployIdentityProxy(bytes32)": {
        "notice": "Returns the IdentityProxy address corresponding to the identifier, deploying an IdentityProxy if one hasn't already been deployed for this identifier."
      },
      "getVersionNumber()": {
        "notice": "Returns the storage, major, minor, and patch version of the contract."
      },
      "makeCall(bytes32,address,bytes)": {
        "notice": "Performs an arbitrary call through the identifier's IdentityProxy, assuming msg.sender passes the identity heuristic."
      },
      "passesIdentityHeuristic(address,bytes32)": {
        "notice": "Returns true if the given address is the likely owner of the given identifier."
      },
      "setRegistry(address)": {
        "notice": "Updates the address pointing to a Registry contract."
      }
    }
  }
}