{
  "contractName": "LockedGold",
  "abi": [
    {
      "inputs": [
        {
          "internalType": "bool",
          "name": "test",
          "type": "bool"
        }
      ],
      "payable": false,
      "stateMutability": "nonpayable",
      "type": "constructor"
    },
    {
      "anonymous": false,
      "inputs": [
        {
          "indexed": true,
          "internalType": "address",
          "name": "slashed",
          "type": "address"
        },
        {
          "indexed": false,
          "internalType": "uint256",
          "name": "penalty",
          "type": "uint256"
        },
        {
          "indexed": true,
          "internalType": "address",
          "name": "reporter",
          "type": "address"
        },
        {
          "indexed": false,
          "internalType": "uint256",
          "name": "reward",
          "type": "uint256"
        }
      ],
      "name": "AccountSlashed",
      "type": "event"
    },
    {
      "anonymous": false,
      "inputs": [
        {
          "indexed": true,
          "internalType": "address",
          "name": "_blockedBy",
          "type": "address"
        }
      ],
      "name": "BlockedBySet",
      "type": "event"
    },
    {
      "anonymous": false,
      "inputs": [
        {
          "indexed": true,
          "internalType": "address",
          "name": "delegator",
          "type": "address"
        },
        {
          "indexed": true,
          "internalType": "address",
          "name": "delegatee",
          "type": "address"
        },
        {
          "indexed": false,
          "internalType": "uint256",
          "name": "percent",
          "type": "uint256"
        },
        {
          "indexed": false,
          "internalType": "uint256",
          "name": "amount",
          "type": "uint256"
        }
      ],
      "name": "CeloDelegated",
      "type": "event"
    },
    {
      "anonymous": false,
      "inputs": [
        {
          "indexed": true,
          "internalType": "address",
          "name": "delegator",
          "type": "address"
        },
        {
          "indexed": true,
          "internalType": "address",
          "name": "delegatee",
          "type": "address"
        },
        {
          "indexed": false,
          "internalType": "uint256",
          "name": "percent",
          "type": "uint256"
        },
        {
          "indexed": false,
          "internalType": "uint256",
          "name": "amount",
          "type": "uint256"
        }
      ],
      "name": "DelegatedCeloRevoked",
      "type": "event"
    },
    {
      "anonymous": false,
      "inputs": [
        {
          "indexed": true,
          "internalType": "address",
          "name": "account",
          "type": "address"
        },
        {
          "indexed": false,
          "internalType": "uint256",
          "name": "value",
          "type": "uint256"
        }
      ],
      "name": "GoldLocked",
      "type": "event"
    },
    {
      "anonymous": false,
      "inputs": [
        {
          "indexed": true,
          "internalType": "address",
          "name": "account",
          "type": "address"
        },
        {
          "indexed": false,
          "internalType": "uint256",
          "name": "value",
          "type": "uint256"
        }
      ],
      "name": "GoldRelocked",
      "type": "event"
    },
    {
      "anonymous": false,
      "inputs": [
        {
          "indexed": true,
          "internalType": "address",
          "name": "account",
          "type": "address"
        },
        {
          "indexed": false,
          "internalType": "uint256",
          "name": "value",
          "type": "uint256"
        },
        {
          "indexed": false,
          "internalType": "uint256",
          "name": "available",
          "type": "uint256"
        }
      ],
      "name": "GoldUnlocked",
      "type": "event"
    },
    {
      "anonymous": false,
      "inputs": [
        {
          "indexed": true,
          "internalType": "address",
          "name": "account",
          "type": "address"
        },
        {
          "indexed": false,
          "internalType": "uint256",
          "name": "value",
          "type": "uint256"
        }
      ],
      "name": "GoldWithdrawn",
      "type": "event"
    },
    {
      "anonymous": false,
      "inputs": [
        {
          "indexed": false,
          "internalType": "uint256",
          "name": "value",
          "type": "uint256"
        }
      ],
      "name": "MaxDelegateesCountSet",
      "type": "event"
    },
    {
      "anonymous": false,
      "inputs": [
        {
          "indexed": true,
          "internalType": "address",
          "name": "previousOwner",
          "type": "address"
        },
        {
          "indexed": true,
          "internalType": "address",
          "name": "newOwner",
          "type": "address"
        }
      ],
      "name": "OwnershipTransferred",
      "type": "event"
    },
    {
      "anonymous": false,
      "inputs": [
        {
          "indexed": true,
          "internalType": "address",
          "name": "registryAddress",
          "type": "address"
        }
      ],
      "name": "RegistrySet",
      "type": "event"
    },
    {
      "anonymous": false,
      "inputs": [
        {
          "indexed": true,
          "internalType": "string",
          "name": "slasherIdentifier",
          "type": "string"
        }
      ],
      "name": "SlasherWhitelistAdded",
      "type": "event"
    },
    {
      "anonymous": false,
      "inputs": [
        {
          "indexed": true,
          "internalType": "string",
          "name": "slasherIdentifier",
          "type": "string"
        }
      ],
      "name": "SlasherWhitelistRemoved",
      "type": "event"
    },
    {
      "anonymous": false,
      "inputs": [
        {
          "indexed": false,
          "internalType": "uint256",
          "name": "period",
          "type": "uint256"
        }
      ],
      "name": "UnlockingPeriodSet",
      "type": "event"
    },
    {
      "constant": true,
      "inputs": [],
      "name": "getBlockedByContract",
      "outputs": [
        {
          "internalType": "address",
          "name": "blockedBy",
          "type": "address"
        }
      ],
      "payable": false,
      "stateMutability": "view",
      "type": "function"
    },
    {
      "constant": true,
      "inputs": [],
      "name": "initialized",
      "outputs": [
        {
          "internalType": "bool",
          "name": "",
          "type": "bool"
        }
      ],
      "payable": false,
      "stateMutability": "view",
      "type": "function"
    },
    {
      "constant": true,
      "inputs": [],
      "name": "isBlocked",
      "outputs": [
        {
          "internalType": "bool",
          "name": "",
          "type": "bool"
        }
      ],
      "payable": false,
      "stateMutability": "view",
      "type": "function"
    },
    {
      "constant": true,
      "inputs": [],
      "name": "isOwner",
      "outputs": [
        {
          "internalType": "bool",
          "name": "",
          "type": "bool"
        }
      ],
      "payable": false,
      "stateMutability": "view",
      "type": "function"
    },
    {
      "constant": true,
      "inputs": [],
      "name": "owner",
      "outputs": [
        {
          "internalType": "address",
          "name": "",
          "type": "address"
        }
      ],
      "payable": false,
      "stateMutability": "view",
      "type": "function"
    },
    {
      "constant": true,
      "inputs": [],
      "name": "registry",
      "outputs": [
        {
          "internalType": "contract IRegistry",
          "name": "",
          "type": "address"
        }
      ],
      "payable": false,
      "stateMutability": "view",
      "type": "function"
    },
    {
      "constant": false,
      "inputs": [],
      "name": "renounceOwnership",
      "outputs": [],
      "payable": false,
      "stateMutability": "nonpayable",
      "type": "function"
    },
    {
      "constant": false,
      "inputs": [
        {
          "internalType": "address",
          "name": "registryAddress",
          "type": "address"
        }
      ],
      "name": "setRegistry",
      "outputs": [],
      "payable": false,
      "stateMutability": "nonpayable",
      "type": "function"
    },
    {
      "constant": true,
      "inputs": [
        {
          "internalType": "uint256",
          "name": "",
          "type": "uint256"
        }
      ],
      "name": "slashingWhitelist",
      "outputs": [
        {
          "internalType": "bytes32",
          "name": "",
          "type": "bytes32"
        }
      ],
      "payable": false,
      "stateMutability": "view",
      "type": "function"
    },
    {
      "constant": true,
      "inputs": [
        {
          "internalType": "address",
          "name": "",
          "type": "address"
        }
      ],
      "name": "totalDelegatedCelo",
      "outputs": [
        {
          "internalType": "uint256",
          "name": "",
          "type": "uint256"
        }
      ],
      "payable": false,
      "stateMutability": "view",
      "type": "function"
    },
    {
      "constant": true,
      "inputs": [],
      "name": "totalNonvoting",
      "outputs": [
        {
          "internalType": "uint256",
          "name": "",
          "type": "uint256"
        }
      ],
      "payable": false,
      "stateMutability": "view",
      "type": "function"
    },
    {
      "constant": false,
      "inputs": [
        {
          "internalType": "address",
          "name": "newOwner",
          "type": "address"
        }
      ],
      "name": "transferOwnership",
      "outputs": [],
      "payable": false,
      "stateMutability": "nonpayable",
      "type": "function"
    },
    {
      "constant": true,
      "inputs": [],
      "name": "unlockingPeriod",
      "outputs": [
        {
          "internalType": "uint256",
          "name": "",
          "type": "uint256"
        }
      ],
      "payable": false,
      "stateMutability": "view",
      "type": "function"
    },
    {
      "constant": false,
      "inputs": [
        {
          "internalType": "address",
          "name": "registryAddress",
          "type": "address"
        },
        {
          "internalType": "uint256",
          "name": "_unlockingPeriod",
          "type": "uint256"
        }
      ],
      "name": "initialize",
      "outputs": [],
      "payable": false,
      "stateMutability": "nonpayable",
      "type": "function"
    },
    {
      "constant": false,
      "inputs": [],
      "name": "lock",
      "outputs": [],
      "payable": true,
      "stateMutability": "payable",
      "type": "function"
    },
    {
      "constant": false,
      "inputs": [
        {
          "internalType": "address",
          "name": "account",
          "type": "address"
        },
        {
          "internalType": "uint256",
          "name": "value",
          "type": "uint256"
        }
      ],
      "name": "incrementNonvotingAccountBalance",
      "outputs": [],
      "payable": false,
      "stateMutability": "nonpayable",
      "type": "function"
    },
    {
      "constant": false,
      "inputs": [
        {
          "internalType": "address",
          "name": "account",
          "type": "address"
        },
        {
          "internalType": "uint256",
          "name": "value",
          "type": "uint256"
        }
      ],
      "name": "decrementNonvotingAccountBalance",
      "outputs": [],
      "payable": false,
      "stateMutability": "nonpayable",
      "type": "function"
    },
    {
      "constant": false,
      "inputs": [
        {
          "internalType": "uint256",
          "name": "value",
          "type": "uint256"
        }
      ],
      "name": "unlock",
      "outputs": [],
      "payable": false,
      "stateMutability": "nonpayable",
      "type": "function"
    },
    {
      "constant": false,
      "inputs": [
        {
          "internalType": "uint256",
          "name": "index",
          "type": "uint256"
        },
        {
          "internalType": "uint256",
          "name": "value",
          "type": "uint256"
        }
      ],
      "name": "relock",
      "outputs": [],
      "payable": false,
      "stateMutability": "nonpayable",
      "type": "function"
    },
    {
      "constant": false,
      "inputs": [
        {
          "internalType": "uint256",
          "name": "index",
          "type": "uint256"
        }
      ],
      "name": "withdraw",
      "outputs": [],
      "payable": false,
      "stateMutability": "nonpayable",
      "type": "function"
    },
    {
      "constant": false,
      "inputs": [
        {
          "internalType": "address",
          "name": "delegatee",
          "type": "address"
        },
        {
          "internalType": "uint256",
          "name": "delegateFraction",
          "type": "uint256"
        }
      ],
      "name": "delegateGovernanceVotes",
      "outputs": [],
      "payable": false,
      "stateMutability": "nonpayable",
      "type": "function"
    },
    {
      "constant": false,
      "inputs": [
        {
          "internalType": "address",
          "name": "delegatee",
          "type": "address"
        },
        {
          "internalType": "uint256",
          "name": "revokeFraction",
          "type": "uint256"
        }
      ],
      "name": "revokeDelegatedGovernanceVotes",
      "outputs": [],
      "payable": false,
      "stateMutability": "nonpayable",
      "type": "function"
    },
    {
      "constant": false,
      "inputs": [
        {
          "internalType": "string",
          "name": "slasherIdentifier",
          "type": "string"
        }
      ],
      "name": "addSlasher",
      "outputs": [],
      "payable": false,
      "stateMutability": "nonpayable",
      "type": "function"
    },
    {
      "constant": false,
      "inputs": [
        {
          "internalType": "string",
          "name": "slasherIdentifier",
          "type": "string"
        },
        {
          "internalType": "uint256",
          "name": "index",
          "type": "uint256"
        }
      ],
      "name": "removeSlasher",
      "outputs": [],
      "payable": false,
      "stateMutability": "nonpayable",
      "type": "function"
    },
    {
      "constant": false,
      "inputs": [
        {
          "internalType": "address",
          "name": "account",
          "type": "address"
        },
        {
          "internalType": "uint256",
          "name": "penalty",
          "type": "uint256"
        },
        {
          "internalType": "address",
          "name": "reporter",
          "type": "address"
        },
        {
          "internalType": "uint256",
          "name": "reward",
          "type": "uint256"
        },
        {
          "internalType": "address[]",
          "name": "lessers",
          "type": "address[]"
        },
        {
          "internalType": "address[]",
          "name": "greaters",
          "type": "address[]"
        },
        {
          "internalType": "uint256[]",
          "name": "indices",
          "type": "uint256[]"
        }
      ],
      "name": "slash",
      "outputs": [],
      "payable": false,
      "stateMutability": "nonpayable",
      "type": "function"
    },
    {
      "constant": false,
      "inputs": [
        {
          "internalType": "address",
          "name": "_blockedBy",
          "type": "address"
        }
      ],
      "name": "setBlockedByContract",
      "outputs": [],
      "payable": false,
      "stateMutability": "nonpayable",
      "type": "function"
    },
    {
      "constant": true,
      "inputs": [],
      "name": "getTotalLockedGold",
      "outputs": [
        {
          "internalType": "uint256",
          "name": "",
          "type": "uint256"
        }
      ],
      "payable": false,
      "stateMutability": "view",
      "type": "function"
    },
    {
      "constant": true,
      "inputs": [],
      "name": "getNonvotingLockedGold",
      "outputs": [
        {
          "internalType": "uint256",
          "name": "",
          "type": "uint256"
        }
      ],
      "payable": false,
      "stateMutability": "view",
      "type": "function"
    },
    {
      "constant": true,
      "inputs": [
        {
          "internalType": "address",
          "name": "slasher",
          "type": "address"
        }
      ],
      "name": "isSlasher",
      "outputs": [
        {
          "internalType": "bool",
          "name": "",
          "type": "bool"
        }
      ],
      "payable": false,
      "stateMutability": "view",
      "type": "function"
    },
    {
      "constant": true,
      "inputs": [
        {
          "internalType": "address",
          "name": "delegator",
          "type": "address"
        },
        {
          "internalType": "address",
          "name": "delegatee",
          "type": "address"
        }
      ],
      "name": "getDelegatorDelegateeInfo",
      "outputs": [
        {
          "internalType": "uint256",
          "name": "fraction",
          "type": "uint256"
        },
        {
          "internalType": "uint256",
          "name": "currentAmount",
          "type": "uint256"
        }
      ],
      "payable": false,
      "stateMutability": "view",
      "type": "function"
    },
    {
      "constant": true,
      "inputs": [
        {
          "internalType": "address",
          "name": "account",
          "type": "address"
        }
      ],
      "name": "getAccountNonvotingLockedGold",
      "outputs": [
        {
          "internalType": "uint256",
          "name": "",
          "type": "uint256"
        }
      ],
      "payable": false,
      "stateMutability": "view",
      "type": "function"
    },
    {
      "constant": true,
      "inputs": [
        {
          "internalType": "address",
          "name": "account",
          "type": "address"
        }
      ],
      "name": "getTotalPendingWithdrawals",
      "outputs": [
        {
          "internalType": "uint256",
          "name": "",
          "type": "uint256"
        }
      ],
      "payable": false,
      "stateMutability": "view",
      "type": "function"
    },
    {
      "constant": true,
      "inputs": [],
      "name": "getSlashingWhitelist",
      "outputs": [
        {
          "internalType": "bytes32[]",
          "name": "",
          "type": "bytes32[]"
        }
      ],
      "payable": false,
      "stateMutability": "view",
      "type": "function"
    },
    {
      "constant": true,
      "inputs": [
        {
          "internalType": "address",
          "name": "account",
          "type": "address"
        }
      ],
      "name": "getPendingWithdrawals",
      "outputs": [
        {
          "internalType": "uint256[]",
          "name": "",
          "type": "uint256[]"
        },
        {
          "internalType": "uint256[]",
          "name": "",
          "type": "uint256[]"
        }
      ],
      "payable": false,
      "stateMutability": "view",
      "type": "function"
    },
    {
      "constant": true,
      "inputs": [
        {
          "internalType": "address",
          "name": "account",
          "type": "address"
        },
        {
          "internalType": "uint256",
          "name": "index",
          "type": "uint256"
        }
      ],
      "name": "getPendingWithdrawal",
      "outputs": [
        {
          "internalType": "uint256",
          "name": "",
          "type": "uint256"
        },
        {
          "internalType": "uint256",
          "name": "",
          "type": "uint256"
        }
      ],
      "payable": false,
      "stateMutability": "view",
      "type": "function"
    },
    {
      "constant": true,
      "inputs": [],
      "name": "getVersionNumber",
      "outputs": [
        {
          "internalType": "uint256",
          "name": "",
          "type": "uint256"
        },
        {
          "internalType": "uint256",
          "name": "",
          "type": "uint256"
        },
        {
          "internalType": "uint256",
          "name": "",
          "type": "uint256"
        },
        {
          "internalType": "uint256",
          "name": "",
          "type": "uint256"
        }
      ],
      "payable": false,
      "stateMutability": "pure",
      "type": "function"
    },
    {
      "constant": false,
      "inputs": [
        {
          "internalType": "uint256",
          "name": "value",
          "type": "uint256"
        }
      ],
      "name": "setUnlockingPeriod",
      "outputs": [],
      "payable": false,
      "stateMutability": "nonpayable",
      "type": "function"
    },
    {
      "constant": false,
      "inputs": [
        {
          "internalType": "uint256",
          "name": "value",
          "type": "uint256"
        }
      ],
      "name": "setMaxDelegateesCount",
      "outputs": [],
      "payable": false,
      "stateMutability": "nonpayable",
      "type": "function"
    },
    {
      "constant": false,
      "inputs": [
        {
          "internalType": "address",
          "name": "delegator",
          "type": "address"
        },
        {
          "internalType": "address",
          "name": "delegatee",
          "type": "address"
        }
      ],
      "name": "updateDelegatedAmount",
      "outputs": [
        {
          "internalType": "uint256",
          "name": "",
          "type": "uint256"
        }
      ],
      "payable": false,
      "stateMutability": "nonpayable",
      "type": "function"
    },
    {
      "constant": false,
      "inputs": [
        {
          "internalType": "address",
          "name": "delegator",
          "type": "address"
        }
      ],
      "name": "updateDelegatedAmount",
      "outputs": [],
      "payable": false,
      "stateMutability": "nonpayable",
      "type": "function"
    },
    {
      "constant": true,
      "inputs": [
        {
          "internalType": "address",
          "name": "account",
          "type": "address"
        }
      ],
      "name": "getTotalPendingWithdrawalsCount",
      "outputs": [
        {
          "internalType": "uint256",
          "name": "",
          "type": "uint256"
        }
      ],
      "payable": false,
      "stateMutability": "view",
      "type": "function"
    },
    {
      "constant": true,
      "inputs": [
        {
          "internalType": "address",
          "name": "delegator",
          "type": "address"
        }
      ],
      "name": "getDelegateesOfDelegator",
      "outputs": [
        {
          "internalType": "address[]",
          "name": "",
          "type": "address[]"
        }
      ],
      "payable": false,
      "stateMutability": "view",
      "type": "function"
    },
    {
      "constant": true,
      "inputs": [
        {
          "internalType": "address",
          "name": "account",
          "type": "address"
        },
        {
          "internalType": "uint256",
          "name": "from",
          "type": "uint256"
        },
        {
          "internalType": "uint256",
          "name": "to",
          "type": "uint256"
        }
      ],
      "name": "getPendingWithdrawalsInBatch",
      "outputs": [
        {
          "internalType": "uint256[]",
          "name": "",
          "type": "uint256[]"
        },
        {
          "internalType": "uint256[]",
          "name": "",
          "type": "uint256[]"
        }
      ],
      "payable": false,
      "stateMutability": "view",
      "type": "function"
    },
    {
      "constant": true,
      "inputs": [
        {
          "internalType": "address",
          "name": "account",
          "type": "address"
        }
      ],
      "name": "getAccountTotalDelegatedFraction",
      "outputs": [
        {
          "internalType": "uint256",
          "name": "",
          "type": "uint256"
        }
      ],
      "payable": false,
      "stateMutability": "view",
      "type": "function"
    },
    {
      "constant": true,
      "inputs": [
        {
          "internalType": "address",
          "name": "account",
          "type": "address"
        }
      ],
      "name": "getAccountTotalLockedGold",
      "outputs": [
        {
          "internalType": "uint256",
          "name": "",
          "type": "uint256"
        }
      ],
      "payable": false,
      "stateMutability": "view",
      "type": "function"
    },
    {
      "constant": true,
      "inputs": [
        {
          "internalType": "address",
          "name": "account",
          "type": "address"
        }
      ],
      "name": "getAccountTotalGovernanceVotingPower",
      "outputs": [
        {
          "internalType": "uint256",
          "name": "",
          "type": "uint256"
        }
      ],
      "payable": false,
      "stateMutability": "view",
      "type": "function"
    },
    {
      "constant": true,
      "inputs": [
        {
          "internalType": "address",
          "name": "delegator",
          "type": "address"
        },
        {
          "internalType": "address",
          "name": "delegatee",
          "type": "address"
        }
      ],
      "name": "getDelegatorDelegateeExpectedAndRealAmount",
      "outputs": [
        {
          "internalType": "uint256",
          "name": "expected",
          "type": "uint256"
        },
        {
          "internalType": "uint256",
          "name": "real",
          "type": "uint256"
        }
      ],
      "payable": false,
      "stateMutability": "view",
      "type": "function"
    }
  ],
  "bytecode": "0x60806040523480156200001157600080fd5b50604051620086ea380380620086ea833981810160405260208110156200003757600080fd5b810190808051906020019092919050505080600160008190555080620000725760018060006101000a81548160ff0219169083151502179055505b506000620000856200012a60201b60201c565b9050806001806101000a81548173ffffffffffffffffffffffffffffffffffffffff021916908373ffffffffffffffffffffffffffffffffffffffff1602179055508073ffffffffffffffffffffffffffffffffffffffff16600073ffffffffffffffffffffffffffffffffffffffff167f8be0079c531659141344cd1fd0a4f28419497f9722a3daafe3b4186f6b6457e060405160405180910390a3505062000132565b600033905090565b6185a880620001426000396000f3fe6080604052600436106102885760003560e01c806364b730dc1161015a578063b6e1e49d116100c1578063d15ca4ed1161007a578063d15ca4ed14611253578063d75f0da7146112c9578063f24b39fc146112f8578063f2fde38b14611349578063f340c0d01461139a578063f83d08ba1461148857610288565b8063b6e1e49d14610f9c578063c1867f6d14611001578063c6e7b00e1461102c578063c70f35ea1461112e578063c95b241b14611193578063cd6dc687146111f857610288565b8063807876b711610113578063807876b714610daf5780638a9c2bbe14610dda5780638da5cb5b14610e805780638f32d59b14610ed7578063a91ee0dc14610f06578063b2fb30cb14610f5757610288565b806364b730dc14610c0557806366f0633b14610c5c5780636adcc93814610c975780636edf77a514610ce6578063715018a614610d415780637b10399914610d5857610288565b80632e1a7d4d116101fe57806354255be0116101b757806354255be0146109db57806357601c5d14610a1b57806358f84a7814610a845780636198e33914610adf57806361d5c57014610b1a5780636489119814610b7f57610288565b80632e1a7d4d146106d657806330a61d591461071157806330ec70f51461073c57806331993fc9146107a15780633f199b401461092557806343e93f381461098a57610288565b806318a4ff8c1161025057806318a4ff8c146104745780631d1dd1a7146104cf5780631fe2dfda1461050a57806320637d8e1461059a578063227320a7146105c5578063296673a91461064a57610288565b806308764ee21461028d5780630cdbac28146102f9578063158ef93e1461038557806315952ae7146103b457806318629a9214610419575b600080fd5b34801561029957600080fd5b506102a2611492565b6040518080602001828103825283818151815260200191508051906020019060200280838360005b838110156102e55780820151818401526020810190506102ca565b505050509050019250505060405180910390f35b34801561030557600080fd5b506103686004803603604081101561031c57600080fd5b81019080803573ffffffffffffffffffffffffffffffffffffffff169060200190929190803573ffffffffffffffffffffffffffffffffffffffff1690602001909291905050506114ea565b604051808381526020018281526020019250505060405180910390f35b34801561039157600080fd5b5061039a61168e565b604051808215151515815260200191505060405180910390f35b3480156103c057600080fd5b50610403600480360360208110156103d757600080fd5b81019080803573ffffffffffffffffffffffffffffffffffffffff1690602001909291905050506116a1565b6040518082815260200191505060405180910390f35b34801561042557600080fd5b506104726004803603604081101561043c57600080fd5b81019080803573ffffffffffffffffffffffffffffffffffffffff1690602001909291908035906020019092919050505061170e565b005b34801561048057600080fd5b506104cd6004803603604081101561049757600080fd5b81019080803573ffffffffffffffffffffffffffffffffffffffff16906020019092919080359060200190929190505050611c62565b005b3480156104db57600080fd5b50610508600480360360208110156104f257600080fd5b8101908080359060200190929190505050611e06565b005b34801561051657600080fd5b506105986004803603604081101561052d57600080fd5b810190808035906020019064010000000081111561054a57600080fd5b82018360208201111561055c57600080fd5b8035906020019184600183028401116401000000008311171561057e57600080fd5b909192939192939080359060200190929190505050611ec1565b005b3480156105a657600080fd5b506105af6121a7565b6040518082815260200191505060405180910390f35b3480156105d157600080fd5b50610634600480360360408110156105e857600080fd5b81019080803573ffffffffffffffffffffffffffffffffffffffff169060200190929190803573ffffffffffffffffffffffffffffffffffffffff1690602001909291905050506121ad565b6040518082815260200191505060405180910390f35b34801561065657600080fd5b506106b96004803603604081101561066d57600080fd5b81019080803573ffffffffffffffffffffffffffffffffffffffff169060200190929190803573ffffffffffffffffffffffffffffffffffffffff169060200190929190505050612348565b604051808381526020018281526020019250505060405180910390f35b3480156106e257600080fd5b5061070f600480360360208110156106f957600080fd5b8101908080359060200190929190505050612400565b005b34801561071d57600080fd5b50610726612805565b6040518082815260200191505060405180910390f35b34801561074857600080fd5b5061078b6004803603602081101561075f57600080fd5b81019080803573ffffffffffffffffffffffffffffffffffffffff1690602001909291905050506128a8565b6040518082815260200191505060405180910390f35b3480156107ad57600080fd5b50610923600480360360e08110156107c457600080fd5b81019080803573ffffffffffffffffffffffffffffffffffffffff16906020019092919080359060200190929190803573ffffffffffffffffffffffffffffffffffffffff169060200190929190803590602001909291908035906020019064010000000081111561083557600080fd5b82018360208201111561084757600080fd5b8035906020019184602083028401116401000000008311171561086957600080fd5b90919293919293908035906020019064010000000081111561088a57600080fd5b82018360208201111561089c57600080fd5b803590602001918460208302840111640100000000831117156108be57600080fd5b9091929391929390803590602001906401000000008111156108df57600080fd5b8201836020820111156108f157600080fd5b8035906020019184602083028401116401000000008311171561091357600080fd5b90919293919293905050506129c9565b005b34801561093157600080fd5b506109746004803603602081101561094857600080fd5b81019080803573ffffffffffffffffffffffffffffffffffffffff1690602001909291905050506131bb565b6040518082815260200191505060405180910390f35b34801561099657600080fd5b506109d9600480360360208110156109ad57600080fd5b81019080803573ffffffffffffffffffffffffffffffffffffffff169060200190929190505050613207565b005b3480156109e757600080fd5b506109f061328d565b6040518085815260200184815260200183815260200182815260200194505050505060405180910390f35b348015610a2757600080fd5b50610a6a60048036036020811015610a3e57600080fd5b81019080803573ffffffffffffffffffffffffffffffffffffffff1690602001909291905050506132b4565b604051808215151515815260200191505060405180910390f35b348015610a9057600080fd5b50610add60048036036040811015610aa757600080fd5b81019080803573ffffffffffffffffffffffffffffffffffffffff169060200190929190803590602001909291905050506133de565b005b348015610aeb57600080fd5b50610b1860048036036020811015610b0257600080fd5b8101908080359060200190929190505050613ee6565b005b348015610b2657600080fd5b50610b6960048036036020811015610b3d57600080fd5b81019080803573ffffffffffffffffffffffffffffffffffffffff169060200190929190505050614494565b6040518082815260200191505060405180910390f35b348015610b8b57600080fd5b50610c0360048036036020811015610ba257600080fd5b8101908080359060200190640100000000811115610bbf57600080fd5b820183602082011115610bd157600080fd5b80359060200191846001830284011164010000000083111715610bf357600080fd5b909192939192939050505061455a565b005b348015610c1157600080fd5b50610c1a614894565b604051808273ffffffffffffffffffffffffffffffffffffffff1673ffffffffffffffffffffffffffffffffffffffff16815260200191505060405180910390f35b348015610c6857600080fd5b50610c9560048036036020811015610c7f57600080fd5b81019080803590602001909291905050506148e3565b005b348015610ca357600080fd5b50610cd060048036036020811015610cba57600080fd5b8101908080359060200190929190505050614a16565b6040518082815260200191505060405180910390f35b348015610cf257600080fd5b50610d3f60048036036040811015610d0957600080fd5b81019080803573ffffffffffffffffffffffffffffffffffffffff16906020019092919080359060200190929190505050614a37565b005b348015610d4d57600080fd5b50610d56614bdb565b005b348015610d6457600080fd5b50610d6d614d14565b604051808273ffffffffffffffffffffffffffffffffffffffff1673ffffffffffffffffffffffffffffffffffffffff16815260200191505060405180910390f35b348015610dbb57600080fd5b50610dc4614d3a565b6040518082815260200191505060405180910390f35b348015610de657600080fd5b50610e2960048036036020811015610dfd57600080fd5b81019080803573ffffffffffffffffffffffffffffffffffffffff169060200190929190505050614d44565b6040518080602001828103825283818151815260200191508051906020019060200280838360005b83811015610e6c578082015181840152602081019050610e51565b505050509050019250505060405180910390f35b348015610e8c57600080fd5b50610e95614d9c565b604051808273ffffffffffffffffffffffffffffffffffffffff1673ffffffffffffffffffffffffffffffffffffffff16815260200191505060405180910390f35b348015610ee357600080fd5b50610eec614dc5565b604051808215151515815260200191505060405180910390f35b348015610f1257600080fd5b50610f5560048036036020811015610f2957600080fd5b81019080803573ffffffffffffffffffffffffffffffffffffffff169060200190929190505050614e23565b005b348015610f6357600080fd5b50610f9a60048036036040811015610f7a57600080fd5b810190808035906020019092919080359060200190929190505050614fc7565b005b348015610fa857600080fd5b50610feb60048036036020811015610fbf57600080fd5b81019080803573ffffffffffffffffffffffffffffffffffffffff16906020019092919050505061534b565b6040518082815260200191505060405180910390f35b34801561100d57600080fd5b50611016615463565b6040518082815260200191505060405180910390f35b34801561103857600080fd5b5061108f6004803603606081101561104f57600080fd5b81019080803573ffffffffffffffffffffffffffffffffffffffff1690602001909291908035906020019092919080359060200190929190505050615469565b604051808060200180602001838103835285818151815260200191508051906020019060200280838360005b838110156110d65780820151818401526020810190506110bb565b50505050905001838103825284818151815260200191508051906020019060200280838360005b838110156111185780820151818401526020810190506110fd565b5050505090500194505050505060405180910390f35b34801561113a57600080fd5b5061117d6004803603602081101561115157600080fd5b81019080803573ffffffffffffffffffffffffffffffffffffffff1690602001909291905050506156ed565b6040518082815260200191505060405180910390f35b34801561119f57600080fd5b506111e2600480360360208110156111b657600080fd5b81019080803573ffffffffffffffffffffffffffffffffffffffff169060200190929190505050615705565b6040518082815260200191505060405180910390f35b34801561120457600080fd5b506112516004803603604081101561121b57600080fd5b81019080803573ffffffffffffffffffffffffffffffffffffffff16906020019092919080359060200190929190505050615754565b005b34801561125f57600080fd5b506112ac6004803603604081101561127657600080fd5b81019080803573ffffffffffffffffffffffffffffffffffffffff16906020019092919080359060200190929190505050615817565b604051808381526020018281526020019250505060405180910390f35b3480156112d557600080fd5b506112de615a82565b604051808215151515815260200191505060405180910390f35b34801561130457600080fd5b506113476004803603602081101561131b57600080fd5b81019080803573ffffffffffffffffffffffffffffffffffffffff169060200190929190505050615a91565b005b34801561135557600080fd5b506113986004803603602081101561136c57600080fd5b81019080803573ffffffffffffffffffffffffffffffffffffffff169060200190929190505050615b61565b005b3480156113a657600080fd5b506113e9600480360360208110156113bd57600080fd5b81019080803573ffffffffffffffffffffffffffffffffffffffff169060200190929190505050615be7565b604051808060200180602001838103835285818151815260200191508051906020019060200280838360005b83811015611430578082015181840152602081019050611415565b50505050905001838103825284818151815260200191508051906020019060200280838360005b83811015611472578082015181840152602081019050611457565b5050505090500194505050505060405180910390f35b611490615c47565b005b606060058054806020026020016040519081016040528092919081815260200182805480156114e057602002820191906000526020600020905b8154815260200190600101908083116114cc575b5050505050905090565b60008060006114f7615e4c565b73ffffffffffffffffffffffffffffffffffffffff16636642d594866040518263ffffffff1660e01b8152600401808273ffffffffffffffffffffffffffffffffffffffff1673ffffffffffffffffffffffffffffffffffffffff16815260200191505060206040518083038186803b15801561157357600080fd5b505afa158015611587573d6000803e3d6000fd5b505050506040513d602081101561159d57600080fd5b8101908080519060200190929190505050905060006115ba615e4c565b73ffffffffffffffffffffffffffffffffffffffff16636642d594866040518263ffffffff1660e01b8152600401808273ffffffffffffffffffffffffffffffffffffffff1673ffffffffffffffffffffffffffffffffffffffff16815260200191505060206040518083038186803b15801561163657600080fd5b505afa15801561164a573d6000803e3d6000fd5b505050506040513d602081101561166057600080fd5b8101908080519060200190929190505050905061167d8282615f47565b809450819550505050509250929050565b600160009054906101000a900460ff1681565b600080600860008473ffffffffffffffffffffffffffffffffffffffff1673ffffffffffffffffffffffffffffffffffffffff168152602001908152602001600020905061170681600301604051806020016040529081600082015481525050616027565b915050919050565b611716618026565b61171f82616035565b90506117328161172d616053565b616079565b611787576040517f08c379a000000000000000000000000000000000000000000000000000000000815260040180806020018281038252602f81526020018061842a602f913960400191505060405180910390fd5b6000611791615e4c565b73ffffffffffffffffffffffffffffffffffffffff16636642d594336040518263ffffffff1660e01b8152600401808273ffffffffffffffffffffffffffffffffffffffff1673ffffffffffffffffffffffffffffffffffffffff16815260200191505060206040518083038186803b15801561180d57600080fd5b505afa158015611821573d6000803e3d6000fd5b505050506040513d602081101561183757600080fd5b810190808051906020019092919050505090506000600860008373ffffffffffffffffffffffffffffffffffffffff1673ffffffffffffffffffffffffffffffffffffffff16815260200190815260200160002090506118af816003016040518060200160405290816000820154815250508461608f565b611904576040517f08c379a000000000000000000000000000000000000000000000000000000000815260040180806020018281038252602381526020018061819c6023913960400191505060405180910390fd5b600061190e615e4c565b73ffffffffffffffffffffffffffffffffffffffff16636642d594876040518263ffffffff1660e01b8152600401808273ffffffffffffffffffffffffffffffffffffffff1673ffffffffffffffffffffffffffffffffffffffff16815260200191505060206040518083038186803b15801561198a57600080fd5b505afa15801561199e573d6000803e3d6000fd5b505050506040513d60208110156119b457600080fd5b810190808051906020019092919050505090506119d183826160a5565b5060008260020160008373ffffffffffffffffffffffffffffffffffffffff1673ffffffffffffffffffffffffffffffffffffffff1681526020019081526020016000209050611a39816000016040518060200160405290816000820154815250508661608f565b611aab576040517f08c379a000000000000000000000000000000000000000000000000000000000815260040180806020018281038252601d8152602001807f4e6f7420656e6f7567682064656c6567617465642070657263656e747300000081525060200191505060405180910390fd5b611ad6858260000160405180602001604052908160008201548152505061630d90919063ffffffff16565b81600001600082015181600001559050506000611af2856128a8565b9050600080611b1884600001604051806020016040529081600082015481525050616027565b14611b5257611b4d611b43611b3e89611b30866163b4565b61643e90919063ffffffff16565b61689d565b84600101546168be565b611b58565b82600101545b9050611b658482856168d7565b611b90878660030160405180602001604052908160008201548152505061630d90919063ffffffff16565b85600301600082015181600001559050506000611bc484600001604051806020016040529081600082015481525050616027565b1415611be257611be08486600001616b3b90919063ffffffff16565b505b8373ffffffffffffffffffffffffffffffffffffffff168673ffffffffffffffffffffffffffffffffffffffff167fc27c2c089d7c6709b0a8e68031ecc1c43dd5e4146d5d3aadad05f72a90bbf8ba611c3a8a616027565b84604051808381526020018281526020019250505060405180910390a3505050505050505050565b60405160200180807f456c656374696f6e0000000000000000000000000000000000000000000000008152506008019050604051602081830303815290604052805190602001203373ffffffffffffffffffffffffffffffffffffffff16600260009054906101000a900473ffffffffffffffffffffffffffffffffffffffff1673ffffffffffffffffffffffffffffffffffffffff1663dcf0aaed836040518263ffffffff1660e01b81526004018082815260200191505060206040518083038186803b158015611d3357600080fd5b505afa158015611d47573d6000803e3d6000fd5b505050506040513d6020811015611d5d57600080fd5b810190808051906020019092919050505073ffffffffffffffffffffffffffffffffffffffff1614611df7576040517f08c379a00000000000000000000000000000000000000000000000000000000081526004018080602001828103825260188152602001807f6f6e6c79207265676973746572656420636f6e7472616374000000000000000081525060200191505060405180910390fd5b611e018383616d29565b505050565b611e0e614dc5565b611e80576040517f08c379a00000000000000000000000000000000000000000000000000000000081526004018080602001828103825260208152602001807f4f776e61626c653a2063616c6c6572206973206e6f7420746865206f776e657281525060200191505060405180910390fd5b80600a819055507f7e524139f5fe281f1ed40d0f650ab4edfb555978755a170ceda325e8968641b0816040518082815260200191505060405180910390a150565b611ec9614dc5565b611f3b576040517f08c379a00000000000000000000000000000000000000000000000000000000081526004018080602001828103825260208152602001807f4f776e61626c653a2063616c6c6572206973206e6f7420746865206f776e657281525060200191505060405180910390fd5b600083836040516020018083838082843780830192505050925050506040516020818303038152906040528051906020012090506004600082815260200190815260200160002060009054906101000a900460ff16611fe5576040517f08c379a00000000000000000000000000000000000000000000000000000000081526004018080602001828103825260278152602001806184036027913960400191505060405180910390fd5b6005805490508210612042576040517f08c379a00000000000000000000000000000000000000000000000000000000081526004018080602001828103825260288152602001806183a86028913960400191505060405180910390fd5b806005838154811061205057fe5b9060005260206000200154146120ce576040517f08c379a000000000000000000000000000000000000000000000000000000000815260040180806020018281038252601e8152602001807f496e64657820646f65736e2774206d61746368206964656e746966696572000081525060200191505060405180910390fd5b6005600160058054905003815481106120e357fe5b9060005260206000200154600583815481106120fb57fe5b9060005260206000200181905550600580548061211457fe5b6001900381819060005260206000200160009055905560006004600083815260200190815260200160002060006101000a81548160ff021916908315150217905550838360405180838380828437808301925050509250505060405180910390207faee8df56d95b5766042c2ff4dcb39a120f0a09dd21bb9c143f86a314eff4b71460405160405180910390a250505050565b60075481565b6000806121b8615e4c565b73ffffffffffffffffffffffffffffffffffffffff16636642d594856040518263ffffffff1660e01b8152600401808273ffffffffffffffffffffffffffffffffffffffff1673ffffffffffffffffffffffffffffffffffffffff16815260200191505060206040518083038186803b15801561223457600080fd5b505afa158015612248573d6000803e3d6000fd5b505050506040513d602081101561225e57600080fd5b81019080805190602001909291905050509050600061227b615e4c565b73ffffffffffffffffffffffffffffffffffffffff16636642d594856040518263ffffffff1660e01b8152600401808273ffffffffffffffffffffffffffffffffffffffff1673ffffffffffffffffffffffffffffffffffffffff16815260200191505060206040518083038186803b1580156122f757600080fd5b505afa15801561230b573d6000803e3d6000fd5b505050506040513d602081101561232157600080fd5b8101908080519060200190929190505050905061233e82826160a5565b9250505092915050565b6000806000600860008673ffffffffffffffffffffffffffffffffffffffff1673ffffffffffffffffffffffffffffffffffffffff16815260200190815260200160002060020160008573ffffffffffffffffffffffffffffffffffffffff1673ffffffffffffffffffffffffffffffffffffffff16815260200190815260200160002090506123ef81600001604051806020016040529081600082015481525050616027565b925080600101549150509250929050565b6001600080828254019250508190555060008054905061241e615e4c565b73ffffffffffffffffffffffffffffffffffffffff166325ca4c9c336040518263ffffffff1660e01b8152600401808273ffffffffffffffffffffffffffffffffffffffff1673ffffffffffffffffffffffffffffffffffffffff16815260200191505060206040518083038186803b15801561249a57600080fd5b505afa1580156124ae573d6000803e3d6000fd5b505050506040513d60208110156124c457600080fd5b810190808051906020019092919050505061252a576040517f08c379a00000000000000000000000000000000000000000000000000000000081526004018080602001828103825260408152602001806182b76040913960400191505060405180910390fd5b6000600360003373ffffffffffffffffffffffffffffffffffffffff1673ffffffffffffffffffffffffffffffffffffffff1681526020019081526020016000209050806001018054905083106125e9576040517f08c379a000000000000000000000000000000000000000000000000000000000815260040180806020018281038252601c8152602001807f4261642070656e64696e67207769746864726177616c20696e6465780000000081525060200191505060405180910390fd5b60008160010184815481106125fa57fe5b906000526020600020906002020190508060010154421015612684576040517f08c379a00000000000000000000000000000000000000000000000000000000081526004018080602001828103825260208152602001807f50656e64696e67207769746864726177616c206e6f7420617661696c61626c6581525060200191505060405180910390fd5b60008160000154905061269a8360010186616de3565b47811115612710576040517f08c379a00000000000000000000000000000000000000000000000000000000081526004018080602001828103825260148152602001807f496e636f6e73697374656e742062616c616e636500000000000000000000000081525060200191505060405180910390fd5b612739813373ffffffffffffffffffffffffffffffffffffffff16616e5d90919063ffffffff16565b3373ffffffffffffffffffffffffffffffffffffffff167f292d39ba701489b7f640c83806d3eeabe0a32c9f0a61b49e95612ebad42211cd826040518082815260200191505060405180910390a25050506000548114612801576040517f08c379a000000000000000000000000000000000000000000000000000000000815260040180806020018281038252600e8152602001807f7265656e7472616e742063616c6c00000000000000000000000000000000000081525060200191505060405180910390fd5b5050565b60006128a3612812616f97565b73ffffffffffffffffffffffffffffffffffffffff16639a0e7d666040518163ffffffff1660e01b815260040160206040518083038186803b15801561285757600080fd5b505afa15801561286b573d6000803e3d6000fd5b505050506040513d602081101561288157600080fd5b810190808051906020019092919050505060065461709290919063ffffffff16565b905090565b600080600360008473ffffffffffffffffffffffffffffffffffffffff1673ffffffffffffffffffffffffffffffffffffffff1681526020019081526020016000206000015490506129c16128fb616f97565b73ffffffffffffffffffffffffffffffffffffffff16636c781a2c856040518263ffffffff1660e01b8152600401808273ffffffffffffffffffffffffffffffffffffffff1673ffffffffffffffffffffffffffffffffffffffff16815260200191505060206040518083038186803b15801561297757600080fd5b505afa15801561298b573d6000803e3d6000fd5b505050506040513d60208110156129a157600080fd5b81019080805190602001909291905050508261709290919063ffffffff16565b915050919050565b600260009054906101000a900473ffffffffffffffffffffffffffffffffffffffff1673ffffffffffffffffffffffffffffffffffffffff166317c508186005336040518363ffffffff1660e01b815260040180806020018373ffffffffffffffffffffffffffffffffffffffff1673ffffffffffffffffffffffffffffffffffffffff1681526020018281038252848181548152602001915080548015612a9057602002820191906000526020600020905b815481526020019060010190808311612a7c575b5050935050505060206040518083038186803b158015612aaf57600080fd5b505afa158015612ac3573d6000803e3d6000fd5b505050506040513d6020811015612ad957600080fd5b8101908080519060200190929190505050612b3f576040517f08c379a00000000000000000000000000000000000000000000000000000000081526004018080602001828103825260248152602001806181526024913960400191505060405180910390fd5b612b4761711a565b15612b9d576040517f08c379a000000000000000000000000000000000000000000000000000000000815260040180806020018281038252602f815260200180618524602f913960400191505060405180910390fd5b6000612bb18a612bac8d6128a8565b6168be565b905087811015612c29576040517f08c379a000000000000000000000000000000000000000000000000000000000815260040180806020018281038252601d8152602001807f7265776172642063616e6e6f74206578636565642070656e616c74792e00000081525060200191505060405180910390fd5b600073ffffffffffffffffffffffffffffffffffffffff168973ffffffffffffffffffffffffffffffffffffffff1614612d1f57612c65615e4c565b73ffffffffffffffffffffffffffffffffffffffff166393c5c4878a6040518263ffffffff1660e01b8152600401808273ffffffffffffffffffffffffffffffffffffffff1673ffffffffffffffffffffffffffffffffffffffff16815260200191505060206040518083038186803b158015612ce157600080fd5b505afa158015612cf5573d6000803e3d6000fd5b505050506040513d6020811015612d0b57600080fd5b810190808051906020019092919050505098505b6000600360008d73ffffffffffffffffffffffffffffffffffffffff1673ffffffffffffffffffffffffffffffffffffffff168152602001908152602001600020600001549050600080905082821015612f4e57612d8682846171ee90919063ffffffff16565b905080612d91616f97565b73ffffffffffffffffffffffffffffffffffffffff16638ef01def8f848d8d8d8d8d8d6040518963ffffffff1660e01b8152600401808973ffffffffffffffffffffffffffffffffffffffff1673ffffffffffffffffffffffffffffffffffffffff16815260200188815260200180602001806020018060200184810384528a8a82818152602001925060200280828437600081840152601f19601f8201169050808301925050508481038352888882818152602001925060200280828437600081840152601f19601f8201169050808301925050508481038252868682818152602001925060200280828437600081840152601f19601f8201169050808301925050509b505050505050505050505050602060405180830381600087803b158015612ebc57600080fd5b505af1158015612ed0573d6000803e3d6000fd5b505050506040513d6020811015612ee657600080fd5b810190808051906020019092919050505014612f4d576040517f08c379a00000000000000000000000000000000000000000000000000000000081526004018080602001828103825260218152602001806185536021913960400191505060405180910390fd5b5b612f6a8d612f6583866171ee90919063ffffffff16565b616d29565b612f748b8b617238565b5050612f7f8b6172f2565b6000600260009054906101000a900473ffffffffffffffffffffffffffffffffffffffff1673ffffffffffffffffffffffffffffffffffffffff1663dcf0aaed60405160200180807f476f7665726e616e636500000000000000000000000000000000000000000000815250600a019050604051602081830303815290604052805190602001206040518263ffffffff1660e01b81526004018082815260200191505060206040518083038186803b15801561303a57600080fd5b505afa15801561304e573d6000803e3d6000fd5b505050506040513d602081101561306457600080fd5b810190808051906020019092919050505090506000819050476130908b856171ee90919063ffffffff16565b1115613104576040517f08c379a00000000000000000000000000000000000000000000000000000000081526004018080602001828103825260148152602001807f496e636f6e73697374656e742062616c616e636500000000000000000000000081525060200191505060405180910390fd5b61313f61311a8b856171ee90919063ffffffff16565b8273ffffffffffffffffffffffffffffffffffffffff16616e5d90919063ffffffff16565b8a73ffffffffffffffffffffffffffffffffffffffff168d73ffffffffffffffffffffffffffffffffffffffff167f7abcb995a115c34a67528d58d5fc5ce02c22cb835ce1685046163f7d366d7111858d604051808381526020018281526020019250505060405180910390a350505050505050505050505050565b6000600360008373ffffffffffffffffffffffffffffffffffffffff1673ffffffffffffffffffffffffffffffffffffffff168152602001908152602001600020600001549050919050565b61320f614dc5565b613281576040517f08c379a00000000000000000000000000000000000000000000000000000000081526004018080602001828103825260208152602001807f4f776e61626c653a2063616c6c6572206973206e6f7420746865206f776e657281525060200191505060405180910390fd5b61328a8161744f565b50565b60008060008060018060056000839350829250819150809050935093509350935090919293565b6000600260009054906101000a900473ffffffffffffffffffffffffffffffffffffffff1673ffffffffffffffffffffffffffffffffffffffff166317c508186005846040518363ffffffff1660e01b815260040180806020018373ffffffffffffffffffffffffffffffffffffffff1673ffffffffffffffffffffffffffffffffffffffff168152602001828103825284818154815260200191508054801561337d57602002820191906000526020600020905b815481526020019060010190808311613369575b5050935050505060206040518083038186803b15801561339c57600080fd5b505afa1580156133b0573d6000803e3d6000fd5b505050506040513d60208110156133c657600080fd5b81019080805190602001909291905050509050919050565b6133e6618026565b6133ef82616035565b9050613402816133fd616053565b616079565b613457576040517f08c379a000000000000000000000000000000000000000000000000000000000815260040180806020018281038252603181526020018061834e6031913960400191505060405180910390fd5b6000613461615e4c565b73ffffffffffffffffffffffffffffffffffffffff16636642d594336040518263ffffffff1660e01b8152600401808273ffffffffffffffffffffffffffffffffffffffff1673ffffffffffffffffffffffffffffffffffffffff16815260200191505060206040518083038186803b1580156134dd57600080fd5b505afa1580156134f1573d6000803e3d6000fd5b505050506040513d602081101561350757600080fd5b810190808051906020019092919050505090506000613524615e4c565b73ffffffffffffffffffffffffffffffffffffffff16636642d594866040518263ffffffff1660e01b8152600401808273ffffffffffffffffffffffffffffffffffffffff1673ffffffffffffffffffffffffffffffffffffffff16815260200191505060206040518083038186803b1580156135a057600080fd5b505afa1580156135b4573d6000803e3d6000fd5b505050506040513d60208110156135ca57600080fd5b8101908080519060200190929190505050905060006135e76174dc565b90508073ffffffffffffffffffffffffffffffffffffffff1663facd743b846040518263ffffffff1660e01b8152600401808273ffffffffffffffffffffffffffffffffffffffff1673ffffffffffffffffffffffffffffffffffffffff16815260200191505060206040518083038186803b15801561366657600080fd5b505afa15801561367a573d6000803e3d6000fd5b505050506040513d602081101561369057600080fd5b8101908080519060200190929190505050156136f7576040517f08c379a00000000000000000000000000000000000000000000000000000000081526004018080602001828103825260218152602001806181316021913960400191505060405180910390fd5b8073ffffffffffffffffffffffffffffffffffffffff166352f13a4e846040518263ffffffff1660e01b8152600401808273ffffffffffffffffffffffffffffffffffffffff1673ffffffffffffffffffffffffffffffffffffffff16815260200191505060206040518083038186803b15801561377457600080fd5b505afa158015613788573d6000803e3d6000fd5b505050506040513d602081101561379e57600080fd5b810190808051906020019092919050505015613805576040517f08c379a000000000000000000000000000000000000000000000000000000000815260040180806020018281038252602781526020018061849f6027913960400191505060405180910390fd5b6000600860008573ffffffffffffffffffffffffffffffffffffffff1673ffffffffffffffffffffffffffffffffffffffff168152602001908152602001600020905061385e83826000016175d790919063ffffffff16565b50600a5461386e826000016176a7565b11156138e2576040517f08c379a00000000000000000000000000000000000000000000000000000000081526004018080602001828103825260138152602001807f546f6f206d616e792064656c656761746565730000000000000000000000000081525060200191505060405180910390fd5b60008160020160008573ffffffffffffffffffffffffffffffffffffffff1673ffffffffffffffffffffffffffffffffffffffff1681526020019081526020016000209050613949868260000160405180602001604052908160008201548152505061608f565b61399e576040517f08c379a00000000000000000000000000000000000000000000000000000000081526004018080602001828103825260468152602001806180eb6046913960600191505060405180910390fd5b6139a6618026565b6139fb876139ed846000016040518060200160405290816000820154815250508660030160405180602001604052908160008201548152505061630d90919063ffffffff16565b6176b890919063ffffffff16565b9050613a0e81613a09616053565b616079565b613a80576040517f08c379a000000000000000000000000000000000000000000000000000000000815260040180806020018281038252601e8152602001807f43616e6e6f742064656c6567617465206d6f7265207468616e2031303025000081525060200191505060405180910390fd5b6000613a8b876128a8565b90506000811415613b9457613aeb88613add856000016040518060200160405290816000820154815250508760030160405180602001604052908160008201548152505061630d90919063ffffffff16565b6176b890919063ffffffff16565b84600301600082015181600001559050508783600001600082015181600001559050508573ffffffffffffffffffffffffffffffffffffffff168773ffffffffffffffffffffffffffffffffffffffff167fc4ed9e859cb808c8bf287ad013d5178069b5e94d91819c335ba2e407fbed9044613b668b616027565b8660010154604051808381526020018281526020019250505060405180910390a35050505050505050613ee2565b6000613b9e617761565b73ffffffffffffffffffffffffffffffffffffffff166366547163896040518263ffffffff1660e01b8152600401808273ffffffffffffffffffffffffffffffffffffffff1673ffffffffffffffffffffffffffffffffffffffff16815260200191505060206040518083038186803b158015613c1a57600080fd5b505afa158015613c2e573d6000803e3d6000fd5b505050506040513d6020811015613c4457600080fd5b8101908080519060200190929190505050905060008114613ced57613c67618026565b613c71828461785c565b9050613c96613c8985836176b890919063ffffffff16565b613c91616053565b616079565b613ceb576040517f08c379a00000000000000000000000000000000000000000000000000000000081526004018080602001828103825260338152602001806183d06033913960400191505060405180910390fd5b505b6000613d30613d2b613d0287600101546163b4565b613d1d8d613d0f886163b4565b61643e90919063ffffffff16565b61630d90919063ffffffff16565b61689d565b9050613d878a613d79876000016040518060200160405290816000820154815250508960030160405180602001604052908160008201548152505061630d90919063ffffffff16565b6176b890919063ffffffff16565b8660030160008201518160000155905050898560000160008201518160000155905050613dc181866001015461709290919063ffffffff16565b8560010181905550613e1b81600960008b73ffffffffffffffffffffffffffffffffffffffff1673ffffffffffffffffffffffffffffffffffffffff1681526020019081526020016000205461709290919063ffffffff16565b600960008a73ffffffffffffffffffffffffffffffffffffffff1673ffffffffffffffffffffffffffffffffffffffff168152602001908152602001600020819055508773ffffffffffffffffffffffffffffffffffffffff168973ffffffffffffffffffffffffffffffffffffffff167fc4ed9e859cb808c8bf287ad013d5178069b5e94d91819c335ba2e407fbed9044613eb68d616027565b8860010154604051808381526020018281526020019250505060405180910390a3505050505050505050505b5050565b60016000808282540192505081905550600080549050613f04615e4c565b73ffffffffffffffffffffffffffffffffffffffff166325ca4c9c336040518263ffffffff1660e01b8152600401808273ffffffffffffffffffffffffffffffffffffffff1673ffffffffffffffffffffffffffffffffffffffff16815260200191505060206040518083038186803b158015613f8057600080fd5b505afa158015613f94573d6000803e3d6000fd5b505050506040513d6020811015613faa57600080fd5b8101908080519060200190929190505050614010576040517f08c379a00000000000000000000000000000000000000000000000000000000081526004018080602001828103825260468152602001806184596046913960600191505060405180910390fd5b6000600360003373ffffffffffffffffffffffffffffffffffffffff1673ffffffffffffffffffffffffffffffffffffffff1681526020019081526020016000209050600061405e336128a8565b9050600061407585836171ee90919063ffffffff16565b90506000614081617761565b73ffffffffffffffffffffffffffffffffffffffff166366547163336040518263ffffffff1660e01b8152600401808273ffffffffffffffffffffffffffffffffffffffff1673ffffffffffffffffffffffffffffffffffffffff16815260200191505060206040518083038186803b1580156140fd57600080fd5b505afa158015614111573d6000803e3d6000fd5b505050506040513d602081101561412757600080fd5b8101908080519060200190929190505050905080821015614193576040517f08c379a00000000000000000000000000000000000000000000000000000000081526004018080602001828103825260358152602001806184ef6035913960400191505060405180910390fd5b61419b618026565b600860003373ffffffffffffffffffffffffffffffffffffffff1673ffffffffffffffffffffffffffffffffffffffff16815260200190815260200160002060030160405180602001604052908160008201548152505090506142078161420260006163b4565b61789e565b156142175761421633886178b3565b5b60006142216174dc565b73ffffffffffffffffffffffffffffffffffffffff1663dcff4cf6336040518263ffffffff1660e01b8152600401808273ffffffffffffffffffffffffffffffffffffffff1673ffffffffffffffffffffffffffffffffffffffff16815260200191505060206040518083038186803b15801561429d57600080fd5b505afa1580156142b1573d6000803e3d6000fd5b505050506040513d60208110156142c757600080fd5b8101908080519060200190929190505050905060008114806142e95750838111155b61433e576040517f08c379a00000000000000000000000000000000000000000000000000000000081526004018080602001828103825260578152602001806182f76057913960600191505060405180910390fd5b6143483389616d29565b600061435f6007544261709290919063ffffffff16565b90508660010160405180604001604052808b8152602001838152509080600181540180825580915050906001820390600052602060002090600202016000909192909190915060008201518160000155602082015181600101555050503373ffffffffffffffffffffffffffffffffffffffff167fb1a3aef2a332070da206ad1868a5e327f5aa5144e00e9a7b40717c153158a5888a83604051808381526020018281526020019250505060405180910390a2505050505050506000548114614490576040517f08c379a000000000000000000000000000000000000000000000000000000000815260040180806020018281038252600e8152602001807f7265656e7472616e742063616c6c00000000000000000000000000000000000081525060200191505060405180910390fd5b5050565b600061449e618026565b6144c86144b26144ad856116a1565b616035565b6144ba616053565b61630d90919063ffffffff16565b905060006144d5846128a8565b905060006144fc6144f7846144e9856163b4565b61643e90919063ffffffff16565b61689d565b9050614550600960008773ffffffffffffffffffffffffffffffffffffffff1673ffffffffffffffffffffffffffffffffffffffff168152602001908152602001600020548261709290919063ffffffff16565b9350505050919050565b614562614dc5565b6145d4576040517f08c379a00000000000000000000000000000000000000000000000000000000081526004018080602001828103825260208152602001807f4f776e61626c653a2063616c6c6572206973206e6f7420746865206f776e657281525060200191505060405180910390fd5b60008282604051602001808383808284378083019250505092505050604051602081830303815290604052805190602001209050600073ffffffffffffffffffffffffffffffffffffffff16600260009054906101000a900473ffffffffffffffffffffffffffffffffffffffff1673ffffffffffffffffffffffffffffffffffffffff1663dd927233836040518263ffffffff1660e01b81526004018082815260200191505060206040518083038186803b15801561469357600080fd5b505afa1580156146a7573d6000803e3d6000fd5b505050506040513d60208110156146bd57600080fd5b810190808051906020019092919050505073ffffffffffffffffffffffffffffffffffffffff161415614758576040517f08c379a000000000000000000000000000000000000000000000000000000000815260040180806020018281038252601c8152602001807f4964656e746966696572206973206e6f7420726567697374657265640000000081525060200191505060405180910390fd5b6004600082815260200190815260200160002060009054906101000a900460ff16156147ec576040517f08c379a000000000000000000000000000000000000000000000000000000000815260040180806020018281038252601c8152602001807f43616e6e6f742061646420736c61736865722049442074776963652e0000000081525060200191505060405180910390fd5b600581908060018154018082558091505090600182039060005260206000200160009091929091909150555060016004600083815260200190815260200160002060006101000a81548160ff021916908315150217905550828260405180838380828437808301925050509250505060405180910390207f92a16cb9e1846d175c3007fc61953d186452c9ea1aa34183eb4b7f88cd3f07bb60405160405180910390a2505050565b600080600160405180807f626c6f636b65645f62795f706f736974696f6e000000000000000000000000008152506013019050604051809103902060001c0360001b9050805491508191505090565b6148eb614dc5565b61495d576040517f08c379a00000000000000000000000000000000000000000000000000000000081526004018080602001828103825260208152602001807f4f776e61626c653a2063616c6c6572206973206e6f7420746865206f776e657281525060200191505060405180910390fd5b6007548114156149d5576040517f08c379a000000000000000000000000000000000000000000000000000000000815260040180806020018281038252601c8152602001807f556e6c6f636b696e6720706572696f64206e6f74206368616e6765640000000081525060200191505060405180910390fd5b806007819055507fd9274a7c98edc7c66931fc71872764091e7023fe3867358f8504d4c21b161fc5816040518082815260200191505060405180910390a150565b60058181548110614a2357fe5b906000526020600020016000915090505481565b60405160200180807f456c656374696f6e0000000000000000000000000000000000000000000000008152506008019050604051602081830303815290604052805190602001203373ffffffffffffffffffffffffffffffffffffffff16600260009054906101000a900473ffffffffffffffffffffffffffffffffffffffff1673ffffffffffffffffffffffffffffffffffffffff1663dcf0aaed836040518263ffffffff1660e01b81526004018082815260200191505060206040518083038186803b158015614b0857600080fd5b505afa158015614b1c573d6000803e3d6000fd5b505050506040513d6020811015614b3257600080fd5b810190808051906020019092919050505073ffffffffffffffffffffffffffffffffffffffff1614614bcc576040517f08c379a00000000000000000000000000000000000000000000000000000000081526004018080602001828103825260188152602001807f6f6e6c79207265676973746572656420636f6e7472616374000000000000000081525060200191505060405180910390fd5b614bd68383617238565b505050565b614be3614dc5565b614c55576040517f08c379a00000000000000000000000000000000000000000000000000000000081526004018080602001828103825260208152602001807f4f776e61626c653a2063616c6c6572206973206e6f7420746865206f776e657281525060200191505060405180910390fd5b600073ffffffffffffffffffffffffffffffffffffffff166001809054906101000a900473ffffffffffffffffffffffffffffffffffffffff1673ffffffffffffffffffffffffffffffffffffffff167f8be0079c531659141344cd1fd0a4f28419497f9722a3daafe3b4186f6b6457e060405160405180910390a360006001806101000a81548173ffffffffffffffffffffffffffffffffffffffff021916908373ffffffffffffffffffffffffffffffffffffffff160217905550565b600260009054906101000a900473ffffffffffffffffffffffffffffffffffffffff1681565b6000600654905090565b606080614d91600860008573ffffffffffffffffffffffffffffffffffffffff1673ffffffffffffffffffffffffffffffffffffffff168152602001908152602001600020600001617ab9565b905080915050919050565b60006001809054906101000a900473ffffffffffffffffffffffffffffffffffffffff16905090565b60006001809054906101000a900473ffffffffffffffffffffffffffffffffffffffff1673ffffffffffffffffffffffffffffffffffffffff16614e07617b9e565b73ffffffffffffffffffffffffffffffffffffffff1614905090565b614e2b614dc5565b614e9d576040517f08c379a00000000000000000000000000000000000000000000000000000000081526004018080602001828103825260208152602001807f4f776e61626c653a2063616c6c6572206973206e6f7420746865206f776e657281525060200191505060405180910390fd5b600073ffffffffffffffffffffffffffffffffffffffff168173ffffffffffffffffffffffffffffffffffffffff161415614f40576040517f08c379a00000000000000000000000000000000000000000000000000000000081526004018080602001828103825260208152602001807f43616e6e6f7420726567697374657220746865206e756c6c206164647265737381525060200191505060405180910390fd5b80600260006101000a81548173ffffffffffffffffffffffffffffffffffffffff021916908373ffffffffffffffffffffffffffffffffffffffff1602179055508073ffffffffffffffffffffffffffffffffffffffff167f27fe5f0c1c3b1ed427cc63d0f05759ffdecf9aec9e18d31ef366fc8a6cb5dc3b60405160405180910390a250565b60016000808282540192505081905550600080549050614fe5615e4c565b73ffffffffffffffffffffffffffffffffffffffff166325ca4c9c336040518263ffffffff1660e01b8152600401808273ffffffffffffffffffffffffffffffffffffffff1673ffffffffffffffffffffffffffffffffffffffff16815260200191505060206040518083038186803b15801561506157600080fd5b505afa158015615075573d6000803e3d6000fd5b505050506040513d602081101561508b57600080fd5b81019080805190602001909291905050506150f1576040517f08c379a00000000000000000000000000000000000000000000000000000000081526004018080602001828103825260468152602001806182016046913960600191505060405180910390fd5b6000600360003373ffffffffffffffffffffffffffffffffffffffff1673ffffffffffffffffffffffffffffffffffffffff1681526020019081526020016000209050806001018054905084106151b0576040517f08c379a000000000000000000000000000000000000000000000000000000000815260040180806020018281038252601c8152602001807f4261642070656e64696e67207769746864726177616c20696e6465780000000081525060200191505060405180910390fd5b60008160010185815481106151c157fe5b90600052602060002090600202019050806000015484111561522e576040517f08c379a000000000000000000000000000000000000000000000000000000000815260040180806020018281038252602981526020018061837f6029913960400191505060405180910390fd5b806000015484141561524c576152478260010186616de3565b61526c565b6152638482600001546171ee90919063ffffffff16565b81600001819055505b6152763385617238565b61527f336172f2565b3373ffffffffffffffffffffffffffffffffffffffff167fa823fc38a01c2f76d7057a79bb5c317710f26f7dbdea78634598d5519d0f7cb0856040518082815260200191505060405180910390a250506000548114615346576040517f08c379a000000000000000000000000000000000000000000000000000000000815260040180806020018281038252600e8152602001807f7265656e7472616e742063616c6c00000000000000000000000000000000000081525060200191505060405180910390fd5b505050565b600080600090506060600360008573ffffffffffffffffffffffffffffffffffffffff1673ffffffffffffffffffffffffffffffffffffffff168152602001908152602001600020600101805480602002602001604051908101604052809291908181526020016000905b828210156153fc578382906000526020600020906002020160405180604001604052908160008201548152602001600182015481525050815260200190600101906153b6565b50505050905060008090505b81518110156154585761543b82828151811061542057fe5b6020026020010151600001518461709290919063ffffffff16565b925061545160018261709290919063ffffffff16565b9050615408565b508192505050919050565b60065481565b606080600061547786615705565b905060008114156154f45760006040519080825280602002602001820160405280156154b25781602001602082028038833980820191505090505b5060006040519080825280602002602001820160405280156154e35781602001602082028038833980820191505090505b5081915080905092509250506156e5565b8385111561556a576040517f08c379a000000000000000000000000000000000000000000000000000000000815260040180806020018281038252600d8152602001807f496e76616c69642072616e67650000000000000000000000000000000000000081525060200191505060405180910390fd5b600061557985600184036168be565b9050600060018783030190506060816040519080825280602002602001820160405280156155b65781602001602082028038833980820191505090505b5090506060826040519080825280602002602001820160405280156155ea5781602001602082028038833980820191505090505b50905060008990505b8481116156d857615602618039565b600360008d73ffffffffffffffffffffffffffffffffffffffff1673ffffffffffffffffffffffffffffffffffffffff168152602001908152602001600020600101828154811061564f57fe5b90600052602060002090600202016040518060400160405290816000820154815260200160018201548152505090508060000151848c84038151811061569157fe5b6020026020010181815250508060200151838c8403815181106156b057fe5b602002602001018181525050506156d160018261709290919063ffffffff16565b90506155f3565b5081819650965050505050505b935093915050565b60096020528060005260406000206000915090505481565b6000600360008373ffffffffffffffffffffffffffffffffffffffff1673ffffffffffffffffffffffffffffffffffffffff168152602001908152602001600020600101805490509050919050565b600160009054906101000a900460ff16156157d7576040517f08c379a000000000000000000000000000000000000000000000000000000000815260040180806020018281038252601c8152602001807f636f6e747261637420616c726561647920696e697469616c697a65640000000081525060200191505060405180910390fd5b60018060006101000a81548160ff0219169083151502179055506157fa33617ba6565b61580382614e23565b61580c816148e3565b600a80819055505050565b600080615822615e4c565b73ffffffffffffffffffffffffffffffffffffffff166325ca4c9c856040518263ffffffff1660e01b8152600401808273ffffffffffffffffffffffffffffffffffffffff1673ffffffffffffffffffffffffffffffffffffffff16815260200191505060206040518083038186803b15801561589e57600080fd5b505afa1580156158b2573d6000803e3d6000fd5b505050506040513d60208110156158c857600080fd5b810190808051906020019092919050505061592e576040517f08c379a00000000000000000000000000000000000000000000000000000000081526004018080602001828103825260428152602001806181bf6042913960600191505060405180910390fd5b600360008573ffffffffffffffffffffffffffffffffffffffff1673ffffffffffffffffffffffffffffffffffffffff1681526020019081526020016000206001018054905083106159e8576040517f08c379a000000000000000000000000000000000000000000000000000000000815260040180806020018281038252601c8152602001807f4261642070656e64696e67207769746864726177616c20696e6465780000000081525060200191505060405180910390fd5b6159f0618039565b600360008673ffffffffffffffffffffffffffffffffffffffff1673ffffffffffffffffffffffffffffffffffffffff1681526020019081526020016000206001018481548110615a3d57fe5b90600052602060002090600202016040518060400160405290816000820154815260200160018201548152505090508060000151816020015192509250509250929050565b6000615a8c61711a565b905090565b6000615a9b615e4c565b73ffffffffffffffffffffffffffffffffffffffff16636642d594836040518263ffffffff1660e01b8152600401808273ffffffffffffffffffffffffffffffffffffffff1673ffffffffffffffffffffffffffffffffffffffff16815260200191505060206040518083038186803b158015615b1757600080fd5b505afa158015615b2b573d6000803e3d6000fd5b505050506040513d6020811015615b4157600080fd5b81019080805190602001909291905050509050615b5d816172f2565b5050565b615b69614dc5565b615bdb576040517f08c379a00000000000000000000000000000000000000000000000000000000081526004018080602001828103825260208152602001807f4f776e61626c653a2063616c6c6572206973206e6f7420746865206f776e657281525060200191505060405180910390fd5b615be481617ba6565b50565b606080615c3e8360006001600360008873ffffffffffffffffffffffffffffffffffffffff1673ffffffffffffffffffffffffffffffffffffffff1681526020019081526020016000206001018054905003615469565b91509150915091565b60016000808282540192505081905550600080549050615c65615e4c565b73ffffffffffffffffffffffffffffffffffffffff166325ca4c9c336040518263ffffffff1660e01b8152600401808273ffffffffffffffffffffffffffffffffffffffff1673ffffffffffffffffffffffffffffffffffffffff16815260200191505060206040518083038186803b158015615ce157600080fd5b505afa158015615cf5573d6000803e3d6000fd5b505050506040513d6020811015615d0b57600080fd5b8101908080519060200190929190505050615d71576040517f08c379a00000000000000000000000000000000000000000000000000000000081526004018080602001828103825260368152602001806180b56036913960400191505060405180910390fd5b615d7b3334617238565b615d84336172f2565b3373ffffffffffffffffffffffffffffffffffffffff167f0f0f2fc5b4c987a49e1663ce2c2d65de12f3b701ff02b4d09461421e63e609e7346040518082815260200191505060405180910390a26000548114615e49576040517f08c379a000000000000000000000000000000000000000000000000000000000815260040180806020018281038252600e8152602001807f7265656e7472616e742063616c6c00000000000000000000000000000000000081525060200191505060405180910390fd5b50565b6000600260009054906101000a900473ffffffffffffffffffffffffffffffffffffffff1673ffffffffffffffffffffffffffffffffffffffff1663dcf0aaed60405160200180807f4163636f756e74730000000000000000000000000000000000000000000000008152506008019050604051602081830303815290604052805190602001206040518263ffffffff1660e01b81526004018082815260200191505060206040518083038186803b158015615f0757600080fd5b505afa158015615f1b573d6000803e3d6000fd5b505050506040513d6020811015615f3157600080fd5b8101908080519060200190929190505050905090565b6000806000600860008673ffffffffffffffffffffffffffffffffffffffff1673ffffffffffffffffffffffffffffffffffffffff16815260200190815260200160002060020160008573ffffffffffffffffffffffffffffffffffffffff1673ffffffffffffffffffffffffffffffffffffffff1681526020019081526020016000209050600061601261600d83600001604051806020016040529081600082015481525050615fff615ffa8a6128a8565b6163b4565b61643e90919063ffffffff16565b61689d565b90508093508160010154925050509250929050565b600081600001519050919050565b61603d618026565b6040518060200160405280838152509050919050565b61605b618026565b604051806020016040528069d3c21bcecceda1000000815250905090565b6000816000015183600001511115905092915050565b6000816000015183600001511015905092915050565b600080600860008573ffffffffffffffffffffffffffffffffffffffff1673ffffffffffffffffffffffffffffffffffffffff1681526020019081526020016000209050600061610c82600301604051806020016040529081600082015481525050616027565b1415616180576040517f08c379a000000000000000000000000000000000000000000000000000000000815260040180806020018281038252601b8152602001807f64656c656761746f72206973206e6f742064656c65676174696e67000000000081525060200191505060405180910390fd5b60008160020160008573ffffffffffffffffffffffffffffffffffffffff1673ffffffffffffffffffffffffffffffffffffffff168152602001908152602001600020905060006161e882600001604051806020016040529081600082015481525050616027565b141561623f576040517f08c379a00000000000000000000000000000000000000000000000000000000081526004018080602001828103825260298152602001806184c66029913960400191505060405180910390fd5b60008061624c87876114ea565b915091508183600101819055506162bd826162af83600960008b73ffffffffffffffffffffffffffffffffffffffff1673ffffffffffffffffffffffffffffffffffffffff168152602001908152602001600020546171ee90919063ffffffff16565b61709290919063ffffffff16565b600960008873ffffffffffffffffffffffffffffffffffffffff1673ffffffffffffffffffffffffffffffffffffffff168152602001908152602001600020819055508194505050505092915050565b616315618026565b816000015183600001511015616393576040517f08c379a000000000000000000000000000000000000000000000000000000000815260040180806020018281038252601f8152602001807f737562737472616374696f6e20756e646572666c6f772064657465637465640081525060200191505060405180910390fd5b60405180602001604052808360000151856000015103815250905092915050565b6163bc618026565b6163c4617cea565b82111561641c576040517f08c379a00000000000000000000000000000000000000000000000000000000081526004018080602001828103825260368152602001806182816036913960400191505060405180910390fd5b604051806020016040528069d3c21bcecceda100000084028152509050919050565b616446618026565b60008360000151148061645d575060008260000151145b1561647957604051806020016040528060008152509050616897565b69d3c21bcecceda10000008260000151141561649757829050616897565b69d3c21bcecceda1000000836000015114156164b557819050616897565b600069d3c21bcecceda10000006164cb85617d09565b60000151816164d657fe5b04905060006164e485617d40565b600001519050600069d3c21bcecceda100000061650086617d09565b600001518161650b57fe5b049050600061651986617d40565b60000151905060008285029050600085146165ad578285828161653857fe5b04146165ac576040517f08c379a00000000000000000000000000000000000000000000000000000000081526004018080602001828103825260168152602001807f6f766572666c6f7720783179312064657465637465640000000000000000000081525060200191505060405180910390fd5b5b600069d3c21bcecceda1000000820290506000821461664f5769d3c21bcecceda10000008282816165da57fe5b041461664e576040517f08c379a000000000000000000000000000000000000000000000000000000000815260040180806020018281038252601f8152602001807f6f766572666c6f772078317931202a206669786564312064657465637465640081525060200191505060405180910390fd5b5b80915060008486029050600086146166e0578486828161666b57fe5b04146166df576040517f08c379a00000000000000000000000000000000000000000000000000000000081526004018080602001828103825260168152602001807f6f766572666c6f7720783279312064657465637465640000000000000000000081525060200191505060405180910390fd5b5b600084880290506000881461676e57848882816166f957fe5b041461676d576040517f08c379a00000000000000000000000000000000000000000000000000000000081526004018080602001828103825260168152602001807f6f766572666c6f7720783179322064657465637465640000000000000000000081525060200191505060405180910390fd5b5b616776617d7d565b878161677e57fe5b049650616789617d7d565b858161679157fe5b049450600085880290506000881461682257858882816167ad57fe5b0414616821576040517f08c379a00000000000000000000000000000000000000000000000000000000081526004018080602001828103825260168152602001807f6f766572666c6f7720783279322064657465637465640000000000000000000081525060200191505060405180910390fd5b5b61682a618026565b6040518060200160405280878152509050616853816040518060200160405280878152506176b8565b905061686d816040518060200160405280868152506176b8565b9050616887816040518060200160405280858152506176b8565b9050809a50505050505050505050505b92915050565b600069d3c21bcecceda10000008260000151816168b657fe5b049050919050565b60008183106168cd57816168cf565b825b905092915050565b60006168e284614494565b905060006168ee617761565b73ffffffffffffffffffffffffffffffffffffffff166366547163866040518263ffffffff1660e01b8152600401808273ffffffffffffffffffffffffffffffffffffffff1673ffffffffffffffffffffffffffffffffffffffff16815260200191505060206040518083038186803b15801561696a57600080fd5b505afa15801561697e573d6000803e3d6000fd5b505050506040513d602081101561699457600080fd5b8101908080519060200190929190505050905060006169bc82846171ee90919063ffffffff16565b905084811015616a7f576169ce617761565b73ffffffffffffffffffffffffffffffffffffffff1663f3f6da2c876169fd88876171ee90919063ffffffff16565b6040518363ffffffff1660e01b8152600401808373ffffffffffffffffffffffffffffffffffffffff1673ffffffffffffffffffffffffffffffffffffffff16815260200182815260200192505050600060405180830381600087803b158015616a6657600080fd5b505af1158015616a7a573d6000803e3d6000fd5b505050505b616a968585600101546171ee90919063ffffffff16565b8460010181905550616af085600960008973ffffffffffffffffffffffffffffffffffffffff1673ffffffffffffffffffffffffffffffffffffffff168152602001908152602001600020546171ee90919063ffffffff16565b600960008873ffffffffffffffffffffffffffffffffffffffff1673ffffffffffffffffffffffffffffffffffffffff16815260200190815260200160002081905550505050505050565b6000616b478383617d8a565b15616d1e57600060018460000160008573ffffffffffffffffffffffffffffffffffffffff1673ffffffffffffffffffffffffffffffffffffffff16815260200190815260200160002054039050600060018560010180549050039050818114616c8c576000856001018281548110616bbc57fe5b9060005260206000200160009054906101000a900473ffffffffffffffffffffffffffffffffffffffff16905080866001018481548110616bf957fe5b9060005260206000200160006101000a81548173ffffffffffffffffffffffffffffffffffffffff021916908373ffffffffffffffffffffffffffffffffffffffff160217905550600183018660000160008373ffffffffffffffffffffffffffffffffffffffff1673ffffffffffffffffffffffffffffffffffffffff16815260200190815260200160002081905550505b8460000160008573ffffffffffffffffffffffffffffffffffffffff1673ffffffffffffffffffffffffffffffffffffffff1681526020019081526020016000206000905584600101805480616cde57fe5b6001900381819060005260206000200160006101000a81549073ffffffffffffffffffffffffffffffffffffffff02191690559055600192505050616d23565b600090505b92915050565b616d7e81600360008573ffffffffffffffffffffffffffffffffffffffff1673ffffffffffffffffffffffffffffffffffffffff168152602001908152602001600020600001546171ee90919063ffffffff16565b600360008473ffffffffffffffffffffffffffffffffffffffff1673ffffffffffffffffffffffffffffffffffffffff16815260200190815260200160002060000181905550616dd9816006546171ee90919063ffffffff16565b6006819055505050565b6000616dfd600184805490506171ee90919063ffffffff16565b9050828181548110616e0b57fe5b9060005260206000209060020201838381548110616e2557fe5b90600052602060002090600202016000820154816000015560018201548160010155905050808381616e579190618053565b50505050565b80471015616ed3576040517f08c379a000000000000000000000000000000000000000000000000000000000815260040180806020018281038252601d8152602001807f416464726573733a20696e73756666696369656e742062616c616e636500000081525060200191505060405180910390fd5b60008273ffffffffffffffffffffffffffffffffffffffff168260405180600001905060006040518083038185875af1925050503d8060008114616f33576040519150601f19603f3d011682016040523d82523d6000602084013e616f38565b606091505b5050905080616f92576040517f08c379a000000000000000000000000000000000000000000000000000000000815260040180806020018281038252603a815260200180618247603a913960400191505060405180910390fd5b505050565b6000600260009054906101000a900473ffffffffffffffffffffffffffffffffffffffff1673ffffffffffffffffffffffffffffffffffffffff1663dcf0aaed60405160200180807f456c656374696f6e0000000000000000000000000000000000000000000000008152506008019050604051602081830303815290604052805190602001206040518263ffffffff1660e01b81526004018082815260200191505060206040518083038186803b15801561705257600080fd5b505afa158015617066573d6000803e3d6000fd5b505050506040513d602081101561707c57600080fd5b8101908080519060200190929190505050905090565b600080828401905083811015617110576040517f08c379a000000000000000000000000000000000000000000000000000000000815260040180806020018281038252601b8152602001807f536166654d6174683a206164646974696f6e206f766572666c6f77000000000081525060200191505060405180910390fd5b8091505092915050565b60008073ffffffffffffffffffffffffffffffffffffffff1661713b614894565b73ffffffffffffffffffffffffffffffffffffffff16141561716057600090506171eb565b617168614894565b73ffffffffffffffffffffffffffffffffffffffff1663d75f0da76040518163ffffffff1660e01b815260040160206040518083038186803b1580156171ad57600080fd5b505afa1580156171c1573d6000803e3d6000fd5b505050506040513d60208110156171d757600080fd5b810190808051906020019092919050505090505b90565b600061723083836040518060400160405280601e81526020017f536166654d6174683a207375627472616374696f6e206f766572666c6f770000815250617dd9565b905092915050565b61728d81600360008573ffffffffffffffffffffffffffffffffffffffff1673ffffffffffffffffffffffffffffffffffffffff1681526020019081526020016000206000015461709290919063ffffffff16565b600360008473ffffffffffffffffffffffffffffffffffffffff1673ffffffffffffffffffffffffffffffffffffffff168152602001908152602001600020600001819055506172e88160065461709290919063ffffffff16565b6006819055505050565b60006172fc615e4c565b73ffffffffffffffffffffffffffffffffffffffff16636642d594836040518263ffffffff1660e01b8152600401808273ffffffffffffffffffffffffffffffffffffffff1673ffffffffffffffffffffffffffffffffffffffff16815260200191505060206040518083038186803b15801561737857600080fd5b505afa15801561738c573d6000803e3d6000fd5b505050506040513d60208110156173a257600080fd5b810190808051906020019092919050505090506000600860008373ffffffffffffffffffffffffffffffffffffffff1673ffffffffffffffffffffffffffffffffffffffff168152602001908152602001600020600001905060008090505b61740a826176a7565b8110156174495761742d836174288385617e9990919063ffffffff16565b6160a5565b5061744260018261709290919063ffffffff16565b9050617401565b50505050565b6000600160405180807f626c6f636b65645f62795f706f736974696f6e000000000000000000000000008152506013019050604051809103902060001c0360001b90508181558173ffffffffffffffffffffffffffffffffffffffff167fcd0883919ba2dd6e8461890a91feb2b01a505e46ea6d7963d1ae20ca62afdddd60405160405180910390a25050565b6000600260009054906101000a900473ffffffffffffffffffffffffffffffffffffffff1673ffffffffffffffffffffffffffffffffffffffff1663dcf0aaed60405160200180807f56616c696461746f727300000000000000000000000000000000000000000000815250600a019050604051602081830303815290604052805190602001206040518263ffffffff1660e01b81526004018082815260200191505060206040518083038186803b15801561759757600080fd5b505afa1580156175ab573d6000803e3d6000fd5b505050506040513d60208110156175c157600080fd5b8101908080519060200190929190505050905090565b60006175e38383617d8a565b61769c57826001018290806001815401808255809150509060018203906000526020600020016000909192909190916101000a81548173ffffffffffffffffffffffffffffffffffffffff021916908373ffffffffffffffffffffffffffffffffffffffff1602179055508360000160008473ffffffffffffffffffffffffffffffffffffffff1673ffffffffffffffffffffffffffffffffffffffff16815260200190815260200160002081905550600190506176a1565b600090505b92915050565b600081600101805490509050919050565b6176c0618026565b6000826000015184600001510190508360000151811015617749576040517f08c379a00000000000000000000000000000000000000000000000000000000081526004018080602001828103825260158152602001807f616464206f766572666c6f77206465746563746564000000000000000000000081525060200191505060405180910390fd5b60405180602001604052808281525091505092915050565b6000600260009054906101000a900473ffffffffffffffffffffffffffffffffffffffff1673ffffffffffffffffffffffffffffffffffffffff1663dcf0aaed60405160200180807f476f7665726e616e636500000000000000000000000000000000000000000000815250600a019050604051602081830303815290604052805190602001206040518263ffffffff1660e01b81526004018082815260200191505060206040518083038186803b15801561781c57600080fd5b505afa158015617830573d6000803e3d6000fd5b505050506040513d602081101561784657600080fd5b8101908080519060200190929190505050905090565b617864618026565b61786c618026565b617875846163b4565b905061787f618026565b617888846163b4565b90506178948282617edd565b9250505092915050565b60008160000151836000015111905092915050565b60606178be83614d44565b90506000600860008573ffffffffffffffffffffffffffffffffffffffff1673ffffffffffffffffffffffffffffffffffffffff168152602001908152602001600020905060008090505b8251811015617ab257600082600201600085848151811061792657fe5b602002602001015173ffffffffffffffffffffffffffffffffffffffff1673ffffffffffffffffffffffffffffffffffffffff168152602001908152602001600020905060008061798a8887868151811061797d57fe5b6020026020010151615f47565b9150915060006179cb6179c6856000016040518060200160405290816000820154815250506179b88b6163b4565b61643e90919063ffffffff16565b61689d565b90506179f26179e383856171ee90919063ffffffff16565b826171ee90919063ffffffff16565b9050617a12878681518110617a0357fe5b602002602001015182866168d7565b868581518110617a1e57fe5b602002602001015173ffffffffffffffffffffffffffffffffffffffff168973ffffffffffffffffffffffffffffffffffffffff167fc27c2c089d7c6709b0a8e68031ecc1c43dd5e4146d5d3aadad05f72a90bbf8ba600084604051808381526020018281526020019250505060405180910390a350505050617aab60018261709290919063ffffffff16565b9050617909565b5050505050565b6060808260010180549050604051908082528060200260200182016040528015617af25781602001602082028038833980820191505090505b50905060005b8360010180549050811015617b9457836001018181548110617b1657fe5b9060005260206000200160009054906101000a900473ffffffffffffffffffffffffffffffffffffffff16828281518110617b4d57fe5b602002602001019073ffffffffffffffffffffffffffffffffffffffff16908173ffffffffffffffffffffffffffffffffffffffff16815250508080600101915050617af8565b5080915050919050565b600033905090565b600073ffffffffffffffffffffffffffffffffffffffff168173ffffffffffffffffffffffffffffffffffffffff161415617c2c576040517f08c379a00000000000000000000000000000000000000000000000000000000081526004018080602001828103825260268152602001806181766026913960400191505060405180910390fd5b8073ffffffffffffffffffffffffffffffffffffffff166001809054906101000a900473ffffffffffffffffffffffffffffffffffffffff1673ffffffffffffffffffffffffffffffffffffffff167f8be0079c531659141344cd1fd0a4f28419497f9722a3daafe3b4186f6b6457e060405160405180910390a3806001806101000a81548173ffffffffffffffffffffffffffffffffffffffff021916908373ffffffffffffffffffffffffffffffffffffffff16021790555050565b60007601357c299a88ea76a58924d52ce4f26a85af186c2b9e74905090565b617d11618026565b604051806020016040528069d3c21bcecceda100000080856000015181617d3457fe5b04028152509050919050565b617d48618026565b604051806020016040528069d3c21bcecceda100000080856000015181617d6b57fe5b04028460000151038152509050919050565b600064e8d4a51000905090565b6000808360000160008473ffffffffffffffffffffffffffffffffffffffff1673ffffffffffffffffffffffffffffffffffffffff168152602001908152602001600020541415905092915050565b6000838311158290617e86576040517f08c379a00000000000000000000000000000000000000000000000000000000081526004018080602001828103825283818151815260200191508051906020019080838360005b83811015617e4b578082015181840152602081019050617e30565b50505050905090810190601f168015617e785780820380516001836020036101000a031916815260200191505b509250505060405180910390fd5b5060008385039050809150509392505050565b6000826001018281548110617eaa57fe5b9060005260206000200160009054906101000a900473ffffffffffffffffffffffffffffffffffffffff16905092915050565b617ee5618026565b600082600001511415617f60576040517f08c379a00000000000000000000000000000000000000000000000000000000081526004018080602001828103825260118152602001807f63616e277420646976696465206279203000000000000000000000000000000081525060200191505060405180910390fd5b600069d3c21bcecceda10000008460000151029050836000015169d3c21bcecceda10000008281617f8d57fe5b0414618001576040517f08c379a00000000000000000000000000000000000000000000000000000000081526004018080602001828103825260128152602001807f6f766572666c6f7720617420646976696465000000000000000000000000000081525060200191505060405180910390fd5b60405180602001604052808460000151838161801957fe5b0481525091505092915050565b6040518060200160405280600081525090565b604051806040016040528060008152602001600081525090565b8154818355818111156180805760020281600202836000526020600020918201910161807f9190618085565b5b505050565b6180b191905b808211156180ad5760008082016000905560018201600090555060020161808b565b5090565b9056fe4d75737420666972737420726567697374657220616464726573732077697468204163636f756e742e6372656174654163636f756e7443616e6e6f742064656372656173652064656c65676174656420616d6f756e74202d20757365207265766f6b6544656c656761746564476f7665726e616e6365566f7465732e56616c696461746f72732063616e6e6f742064656c656761746520766f7465732e43616c6c6572206973206e6f7420612077686974656c697374656420736c61736865722e4f776e61626c653a206e6577206f776e657220697320746865207a65726f20616464726573734e6f7420656e6f75676820746f74616c2064656c6567617465642070657263656e7473556e6b6e6f776e206163636f756e743a206f6e6c792072656769737465726564206163636f756e747320686176652070656e64696e67207769746864726177616c7353656e646572206d75737420626520726567697374657265642077697468204163636f756e742e6372656174654163636f756e7420746f206c6f636b206f722072656c6f636b416464726573733a20756e61626c6520746f2073656e642076616c75652c20726563697069656e74206d6179206861766520726576657274656463616e277420637265617465206669786964697479206e756d626572206c6172676572207468616e206d61784e65774669786564282953656e646572206d75737420626520726567697374657265642077697468204163636f756e742e6372656174654163636f756e7420746f207769746864726177456974686572206163636f756e7420646f65736e2774206861766520656e6f756768206c6f636b65642043656c6f206f72206c6f636b65642043656c6f206973206265696e67207573656420666f7220766f74696e672e44656c6567617465206672616374696f6e206d757374206265206c657373207468616e206f7220657175616c20746f20315265717565737465642076616c7565206c6172676572207468616e2070656e64696e672076616c756550726f766964656420696e64657820657863656564732077686974656c69737420626f756e64732e43616e6e6f742064656c656761746520766f74657320746861742061726520766f74696e6720696e207265666572656e64756d43616e6e6f742072656d6f766520736c6173686572204944206e6f74207965742061646465642e5265766f6b65206672616374696f6e206d757374206265206c657373207468616e206f7220657175616c20746f203153656e646572206d75737420626520726567697374657265642077697468204163636f756e742e6372656174654163636f756e7420746f206c6f636b206f7220756e6c6f636b56616c696461746f722067726f7570732063616e6e6f742064656c656761746520766f7465732e64656c656761746f72206973206e6f742064656c65676174696e6720666f722064656c6567617465654e6f7420656e6f75676820756e6c6f636b61626c652063656c6f2e2043656c6f206973206c6f636b656420696e20766f74696e672e436f6e747261637420697320626c6f636b65642066726f6d20706572666f726d696e67207468697320616374696f6e43616e6e6f74207265766f6b6520656e6f75676820766f74696e672043454c4f2ea265627a7a72315820cb9c9263ec4836c7752af7b6bda7714cc4a3cf8f0dcbe4958a7b4298589cd65164736f6c634300050d0032",
  "source": "pragma solidity ^0.5.13;\n\nimport \"openzeppelin-solidity/contracts/math/Math.sol\";\nimport \"openzeppelin-solidity/contracts/math/SafeMath.sol\";\nimport \"openzeppelin-solidity/contracts/ownership/Ownable.sol\";\nimport \"openzeppelin-solidity/contracts/utils/Address.sol\";\nimport \"openzeppelin-solidity/contracts/utils/EnumerableSet.sol\";\n\nimport \"./interfaces/ILockedGold.sol\";\nimport \"./interfaces/ILockedGoldInitializer.sol\";\n\nimport \"../common/FixidityLib.sol\";\nimport \"../common/Initializable.sol\";\nimport \"../common/Signatures.sol\";\nimport \"../common/UsingRegistry.sol\";\nimport \"../common/interfaces/ICeloVersionedContract.sol\";\nimport \"../common/libraries/ReentrancyGuard.sol\";\nimport \"../common/Blockable.sol\";\n\n/**\n * @title Manages the CELO locked for use in Celo governance, election, and\n * staking systems.\n */\ncontract LockedGold is\n  ILockedGold,\n  ILockedGoldInitializer,\n  ICeloVersionedContract,\n  ReentrancyGuard,\n  Initializable,\n  UsingRegistry,\n  Blockable\n{\n  using SafeMath for uint256;\n  using Address for address payable; // prettier-ignore\n  using FixidityLib for FixidityLib.Fraction;\n  using EnumerableSet for EnumerableSet.AddressSet;\n\n  struct PendingWithdrawal {\n    // The value of the pending withdrawal.\n    uint256 value;\n    // The timestamp at which the pending withdrawal becomes available.\n    uint256 timestamp;\n  }\n\n  // NOTE: This contract does not store an account's locked CELO that is being used in electing\n  // validators.\n  struct Balances {\n    // The amount of locked CELO that this account has that is not currently participating in\n    // validator elections.\n    uint256 nonvoting;\n    // CELO that has been unlocked and will become available for withdrawal.\n    PendingWithdrawal[] pendingWithdrawals;\n  }\n\n  struct DelegatedInfo {\n    FixidityLib.Fraction percentage;\n    uint256 currentAmount;\n  }\n\n  struct Delegated {\n    EnumerableSet.AddressSet delegatees;\n    // delegatees with how much percent delegatees are getting\n    // Celo at the time of delegation/latest update\n    mapping(address => DelegatedInfo) delegateesWithPercentagesAndAmount;\n    FixidityLib.Fraction totalDelegatedCeloFraction;\n  }\n\n  mapping(address => Balances) internal balances;\n\n  // Iterable map to store whitelisted identifiers.\n  // Necessary to allow iterating over whitelisted IDs to check ID's address at runtime.\n  mapping(bytes32 => bool) internal slashingMap;\n  bytes32[] public slashingWhitelist;\n\n  uint256 public totalNonvoting;\n  uint256 public unlockingPeriod;\n\n  // Info about delegator\n  mapping(address => Delegated) delegatorInfo;\n  // Celo that was delegated to this particular address\n  mapping(address => uint256) public totalDelegatedCelo;\n\n  // maximum amount of allowed delegatees\n  uint256 maxDelegateesCount;\n\n  event UnlockingPeriodSet(uint256 period);\n  event GoldLocked(address indexed account, uint256 value);\n  event GoldUnlocked(address indexed account, uint256 value, uint256 available);\n  event GoldRelocked(address indexed account, uint256 value);\n  event GoldWithdrawn(address indexed account, uint256 value);\n  event SlasherWhitelistAdded(string indexed slasherIdentifier);\n  event SlasherWhitelistRemoved(string indexed slasherIdentifier);\n  event AccountSlashed(\n    address indexed slashed,\n    uint256 penalty,\n    address indexed reporter,\n    uint256 reward\n  );\n  event CeloDelegated(\n    address indexed delegator,\n    address indexed delegatee,\n    uint256 percent,\n    uint256 amount\n  );\n  event DelegatedCeloRevoked(\n    address indexed delegator,\n    address indexed delegatee,\n    uint256 percent,\n    uint256 amount\n  );\n  event MaxDelegateesCountSet(uint256 value);\n\n  /**\n   * @notice Ensures a function can only be called by an authorized slasher.\n   */\n  modifier onlySlasher() {\n    require(\n      registry.isOneOf(slashingWhitelist, msg.sender),\n      \"Caller is not a whitelisted slasher.\"\n    );\n    _;\n  }\n\n  /**\n   * @notice Sets initialized == true on implementation contracts\n   * @param test Set to true to skip implementation initialization\n   */\n  constructor(bool test) public Initializable(test) {}\n\n  /**\n   * @notice Used in place of the constructor to allow the contract to be upgradable via proxy.\n   * @param registryAddress The address of the registry core smart contract.\n   * @param _unlockingPeriod The unlocking period in seconds.\n   */\n  function initialize(address registryAddress, uint256 _unlockingPeriod) external initializer {\n    _transferOwnership(msg.sender);\n    setRegistry(registryAddress);\n    setUnlockingPeriod(_unlockingPeriod);\n    maxDelegateesCount = 10;\n  }\n\n  /**\n   * @notice Locks CELO to be used for voting.\n   */\n  function lock() external payable nonReentrant {\n    require(\n      getAccounts().isAccount(msg.sender),\n      \"Must first register address with Account.createAccount\"\n    );\n    _incrementNonvotingAccountBalance(msg.sender, msg.value);\n    _updateDelegatedAmount(msg.sender);\n    emit GoldLocked(msg.sender, msg.value);\n  }\n\n  /**\n   * @notice Increments the non-voting balance for an account.\n   * @param account The account whose non-voting balance should be incremented.\n   * @param value The amount by which to increment.\n   * @dev Can only be called by the registered Election smart contract.\n   */\n  function incrementNonvotingAccountBalance(\n    address account,\n    uint256 value\n  ) external onlyRegisteredContract(ELECTION_REGISTRY_ID) {\n    _incrementNonvotingAccountBalance(account, value);\n  }\n\n  /**\n   * @notice Decrements the non-voting balance for an account.\n   * @param account The account whose non-voting balance should be decremented.\n   * @param value The amount by which to decrement.\n   * @dev Can only be called by the registered \"Election\" smart contract.\n   */\n  function decrementNonvotingAccountBalance(\n    address account,\n    uint256 value\n  ) external onlyRegisteredContract(ELECTION_REGISTRY_ID) {\n    _decrementNonvotingAccountBalance(account, value);\n  }\n\n  /**\n   * @notice Unlocks CELO that becomes withdrawable after the unlocking period.\n   * @param value The amount of CELO to unlock.\n   */\n  function unlock(uint256 value) external nonReentrant {\n    require(\n      getAccounts().isAccount(msg.sender),\n      \"Sender must be registered with Account.createAccount to lock or unlock\"\n    );\n    Balances storage account = balances[msg.sender];\n\n    uint256 totalLockedGold = getAccountTotalLockedGold(msg.sender);\n    // Prevent unlocking CELO when voting on governance proposals so that the CELO cannot be\n    // used to vote more than once.\n    uint256 remainingLockedGold = totalLockedGold.sub(value);\n\n    uint256 totalReferendumVotes = getGovernance().getAmountOfGoldUsedForVoting(msg.sender);\n    require(\n      remainingLockedGold >= totalReferendumVotes,\n      \"Not enough unlockable celo. Celo is locked in voting.\"\n    );\n\n    FixidityLib.Fraction memory delegatedPercentage = delegatorInfo[msg.sender]\n      .totalDelegatedCeloFraction;\n\n    if (FixidityLib.gt(delegatedPercentage, FixidityLib.newFixed(0))) {\n      revokeFromDelegatedWhenUnlocking(msg.sender, value);\n    }\n\n    uint256 balanceRequirement = getValidators().getAccountLockedGoldRequirement(msg.sender);\n    require(\n      balanceRequirement == 0 || balanceRequirement <= remainingLockedGold,\n      \"Either account doesn't have enough locked Celo or locked Celo is being used for voting.\"\n    );\n    _decrementNonvotingAccountBalance(msg.sender, value);\n    uint256 available = now.add(unlockingPeriod);\n    // CERTORA: the slot containing the length could be MAX_UINT\n    account.pendingWithdrawals.push(PendingWithdrawal(value, available));\n    emit GoldUnlocked(msg.sender, value, available);\n  }\n\n  /**\n   * @notice Relocks CELO that has been unlocked but not withdrawn.\n   * @param index The index of the pending withdrawal to relock from.\n   * @param value The value to relock from the specified pending withdrawal.\n   */\n  function relock(uint256 index, uint256 value) external nonReentrant {\n    require(\n      getAccounts().isAccount(msg.sender),\n      \"Sender must be registered with Account.createAccount to lock or relock\"\n    );\n    Balances storage account = balances[msg.sender];\n    require(index < account.pendingWithdrawals.length, \"Bad pending withdrawal index\");\n    PendingWithdrawal storage pendingWithdrawal = account.pendingWithdrawals[index];\n    require(value <= pendingWithdrawal.value, \"Requested value larger than pending value\");\n    if (value == pendingWithdrawal.value) {\n      deletePendingWithdrawal(account.pendingWithdrawals, index);\n    } else {\n      pendingWithdrawal.value = pendingWithdrawal.value.sub(value);\n    }\n    _incrementNonvotingAccountBalance(msg.sender, value);\n    _updateDelegatedAmount(msg.sender);\n    emit GoldRelocked(msg.sender, value);\n  }\n\n  /**\n   * @notice Withdraws CELO that has been unlocked after the unlocking period has passed.\n   * @param index The index of the pending withdrawal to withdraw.\n   */\n  function withdraw(uint256 index) external nonReentrant {\n    require(\n      getAccounts().isAccount(msg.sender),\n      \"Sender must be registered with Account.createAccount to withdraw\"\n    );\n    Balances storage account = balances[msg.sender];\n    require(index < account.pendingWithdrawals.length, \"Bad pending withdrawal index\");\n    PendingWithdrawal storage pendingWithdrawal = account.pendingWithdrawals[index];\n    require(now >= pendingWithdrawal.timestamp, \"Pending withdrawal not available\");\n    uint256 value = pendingWithdrawal.value;\n    deletePendingWithdrawal(account.pendingWithdrawals, index);\n    require(value <= address(this).balance, \"Inconsistent balance\");\n    msg.sender.sendValue(value);\n    emit GoldWithdrawn(msg.sender, value);\n  }\n\n  /**\n   * @notice Delegates CELO to delegatee.\n   * @param delegatee The delegatee account.\n   * @param delegateFraction Fraction of total CELO that will be delegated from delegatee. Fixidity fraction\n   */\n  function delegateGovernanceVotes(address delegatee, uint256 delegateFraction) external {\n    FixidityLib.Fraction memory percentageToDelegate = FixidityLib.wrap(delegateFraction);\n    require(\n      FixidityLib.lte(percentageToDelegate, FixidityLib.fixed1()),\n      \"Delegate fraction must be less than or equal to 1\"\n    );\n    address delegatorAccount = getAccounts().voteSignerToAccount(msg.sender);\n    address delegateeAccount = getAccounts().voteSignerToAccount(delegatee);\n\n    IValidators validators = getValidators();\n    require(!validators.isValidator(delegatorAccount), \"Validators cannot delegate votes.\");\n    require(\n      !validators.isValidatorGroup(delegatorAccount),\n      \"Validator groups cannot delegate votes.\"\n    );\n\n    Delegated storage delegated = delegatorInfo[delegatorAccount];\n    delegated.delegatees.add(delegateeAccount);\n    require(delegated.delegatees.length() <= maxDelegateesCount, \"Too many delegatees\");\n\n    DelegatedInfo storage currentDelegateeInfo = delegated.delegateesWithPercentagesAndAmount[\n      delegateeAccount\n    ];\n\n    require(\n      FixidityLib.gte(percentageToDelegate, currentDelegateeInfo.percentage),\n      \"Cannot decrease delegated amount - use revokeDelegatedGovernanceVotes.\"\n    );\n\n    FixidityLib.Fraction memory requestedToDelegate = delegated\n      .totalDelegatedCeloFraction\n      .subtract(currentDelegateeInfo.percentage)\n      .add(percentageToDelegate);\n\n    require(\n      FixidityLib.lte(requestedToDelegate, FixidityLib.fixed1()),\n      \"Cannot delegate more than 100%\"\n    );\n\n    uint256 totalLockedGold = getAccountTotalLockedGold(delegatorAccount);\n    if (totalLockedGold == 0) {\n      delegated.totalDelegatedCeloFraction = delegated\n        .totalDelegatedCeloFraction\n        .subtract(currentDelegateeInfo.percentage)\n        .add(percentageToDelegate);\n      currentDelegateeInfo.percentage = percentageToDelegate;\n\n      emit CeloDelegated(\n        delegatorAccount,\n        delegateeAccount,\n        FixidityLib.unwrap(percentageToDelegate),\n        currentDelegateeInfo.currentAmount\n      );\n      return;\n    }\n\n    uint256 totalReferendumVotes = getGovernance().getAmountOfGoldUsedForVoting(delegatorAccount);\n\n    if (totalReferendumVotes != 0) {\n      FixidityLib.Fraction memory referendumVotesInPercents = FixidityLib.newFixedFraction(\n        totalReferendumVotes,\n        totalLockedGold\n      );\n      require(\n        FixidityLib.lte(referendumVotesInPercents.add(requestedToDelegate), FixidityLib.fixed1()),\n        \"Cannot delegate votes that are voting in referendum\"\n      );\n    }\n\n    // amount that will really be delegated - whatever is already\n    // delegated to this particular delagatee is already subracted from this\n    uint256 amountToDelegate = FixidityLib\n      .newFixed(totalLockedGold)\n      .multiply(percentageToDelegate)\n      .subtract(FixidityLib.newFixed(currentDelegateeInfo.currentAmount))\n      .fromFixed();\n\n    delegated.totalDelegatedCeloFraction = delegated\n      .totalDelegatedCeloFraction\n      .subtract(currentDelegateeInfo.percentage)\n      .add(percentageToDelegate);\n    currentDelegateeInfo.percentage = percentageToDelegate;\n\n    currentDelegateeInfo.currentAmount = currentDelegateeInfo.currentAmount.add(amountToDelegate);\n    totalDelegatedCelo[delegateeAccount] = totalDelegatedCelo[delegateeAccount].add(\n      amountToDelegate\n    );\n\n    emit CeloDelegated(\n      delegatorAccount,\n      delegateeAccount,\n      FixidityLib.unwrap(percentageToDelegate),\n      currentDelegateeInfo.currentAmount\n    );\n  }\n\n  /**\n   * @notice Revokes delegated CELO.\n   * @param delegatee The delegatee acount.\n   * @param revokeFraction Fraction of total CELO that will be revoked from delegatee. Fixidity fraction\n   */\n  function revokeDelegatedGovernanceVotes(address delegatee, uint256 revokeFraction) external {\n    FixidityLib.Fraction memory percentageToRevoke = FixidityLib.wrap(revokeFraction);\n\n    require(\n      FixidityLib.lte(percentageToRevoke, FixidityLib.fixed1()),\n      \"Revoke fraction must be less than or equal to 1\"\n    );\n\n    address delegatorAccount = getAccounts().voteSignerToAccount(msg.sender);\n    Delegated storage delegated = delegatorInfo[delegatorAccount];\n    require(\n      FixidityLib.gte(delegated.totalDelegatedCeloFraction, percentageToRevoke),\n      \"Not enough total delegated percents\"\n    );\n\n    address delegateeAccount = getAccounts().voteSignerToAccount(delegatee);\n    _updateDelegatedAmount(delegatorAccount, delegateeAccount);\n\n    DelegatedInfo storage currentDelegateeInfo = delegated.delegateesWithPercentagesAndAmount[\n      delegateeAccount\n    ];\n\n    require(\n      FixidityLib.gte(currentDelegateeInfo.percentage, percentageToRevoke),\n      \"Not enough delegated percents\"\n    );\n\n    currentDelegateeInfo.percentage = currentDelegateeInfo.percentage.subtract(percentageToRevoke);\n\n    uint256 totalLockedGold = getAccountTotalLockedGold(delegatorAccount);\n\n    uint256 amountToRevoke = FixidityLib.unwrap(currentDelegateeInfo.percentage) == 0\n      ? currentDelegateeInfo.currentAmount\n      : Math.min(\n        FixidityLib.newFixed(totalLockedGold).multiply(percentageToRevoke).fromFixed(),\n        currentDelegateeInfo.currentAmount\n      );\n\n    _decreaseDelegateeVotingPower(delegateeAccount, amountToRevoke, currentDelegateeInfo);\n\n    delegated.totalDelegatedCeloFraction = delegated.totalDelegatedCeloFraction.subtract(\n      percentageToRevoke\n    );\n\n    if (FixidityLib.unwrap(currentDelegateeInfo.percentage) == 0) {\n      delegated.delegatees.remove(delegateeAccount);\n    }\n\n    emit DelegatedCeloRevoked(\n      delegatorAccount,\n      delegateeAccount,\n      FixidityLib.unwrap(percentageToRevoke),\n      amountToRevoke\n    );\n  }\n\n  /**\n   * @notice Adds `slasher` to whitelist of approved slashing addresses.\n   * @param slasherIdentifier Identifier to whitelist.\n   */\n  function addSlasher(string calldata slasherIdentifier) external onlyOwner {\n    bytes32 keyBytes = keccak256(abi.encodePacked(slasherIdentifier));\n    require(registry.getAddressFor(keyBytes) != address(0), \"Identifier is not registered\");\n    require(!slashingMap[keyBytes], \"Cannot add slasher ID twice.\");\n    slashingWhitelist.push(keyBytes);\n    slashingMap[keyBytes] = true;\n    emit SlasherWhitelistAdded(slasherIdentifier);\n  }\n\n  /**\n   * @notice Removes `slasher` from whitelist of approved slashing addresses.\n   * @param slasherIdentifier Identifier to remove from whitelist.\n   * @param index Index of the provided identifier in slashingWhiteList array.\n   */\n  function removeSlasher(string calldata slasherIdentifier, uint256 index) external onlyOwner {\n    bytes32 keyBytes = keccak256(abi.encodePacked(slasherIdentifier));\n    require(slashingMap[keyBytes], \"Cannot remove slasher ID not yet added.\");\n    require(index < slashingWhitelist.length, \"Provided index exceeds whitelist bounds.\");\n    require(slashingWhitelist[index] == keyBytes, \"Index doesn't match identifier\");\n    slashingWhitelist[index] = slashingWhitelist[slashingWhitelist.length - 1];\n    slashingWhitelist.pop();\n    slashingMap[keyBytes] = false;\n    emit SlasherWhitelistRemoved(slasherIdentifier);\n  }\n\n  /**\n   * @notice Slashes `account` by reducing its nonvoting locked CELO by `penalty`.\n   *         If there is not enough nonvoting locked CELO to slash, calls into\n   *         `Election.slashVotes` to slash the remaining CELO. If `account` does not have\n   *         `penalty` worth of locked CELO, slashes `account`'s total locked CELO.\n   *         Also sends `reward` CELO to the reporter, and penalty-reward to the Community Fund.\n   * @param account Address of account being slashed.\n   * @param penalty Amount to slash account.\n   * @param reporter Address of account reporting the slasher.\n   * @param reward Reward to give reporter.\n   * @param lessers The groups receiving fewer votes than i'th group, or 0 if the i'th group has\n   *                the fewest votes of any validator group.\n   * @param greaters The groups receiving more votes than the i'th group, or 0 if the i'th group\n   *                 has the most votes of any validator group.\n   * @param indices The indices of the i'th group in `account`'s voting list.\n   * @dev Fails if `reward` is greater than `account`'s total locked CELO.\n   */\n  function slash(\n    address account,\n    uint256 penalty,\n    address reporter,\n    uint256 reward,\n    address[] calldata lessers,\n    address[] calldata greaters,\n    uint256[] calldata indices\n  ) external onlySlasher onlyWhenNotBlocked {\n    uint256 maxSlash = Math.min(penalty, getAccountTotalLockedGold(account));\n    require(maxSlash >= reward, \"reward cannot exceed penalty.\");\n    // `reporter` receives the reward in locked CELO, so it must be given to an account\n    // There is no reward for slashing via the GovernanceSlasher, and `reporter`\n    // is set to 0x0.\n    if (reporter != address(0)) {\n      reporter = getAccounts().signerToAccount(reporter);\n    }\n    // Local scoping is required to avoid Solc \"stack too deep\" error from too many locals.\n    {\n      uint256 nonvotingBalance = balances[account].nonvoting;\n      uint256 difference = 0;\n      // If not enough nonvoting, revoke the difference\n      if (nonvotingBalance < maxSlash) {\n        difference = maxSlash.sub(nonvotingBalance);\n        require(\n          getElection().forceDecrementVotes(account, difference, lessers, greaters, indices) ==\n            difference,\n          \"Cannot revoke enough voting CELO.\"\n        );\n      }\n      // forceDecrementVotes does not increment nonvoting account balance, so we can't double count\n      _decrementNonvotingAccountBalance(account, maxSlash.sub(difference));\n      _incrementNonvotingAccountBalance(reporter, reward);\n    }\n\n    _updateDelegatedAmount(account);\n\n    address communityFund = registry.getAddressForOrDie(GOVERNANCE_REGISTRY_ID);\n    address payable communityFundPayable = address(uint160(communityFund));\n    require(maxSlash.sub(reward) <= address(this).balance, \"Inconsistent balance\");\n    communityFundPayable.sendValue(maxSlash.sub(reward));\n    emit AccountSlashed(account, maxSlash, reporter, reward);\n  }\n\n  /**\n   * @notice Sets the address of the blocking contract.\n   * @param _blockedBy The address of the contract that will determine if this contract is blocked.\n   * @dev Can only be called by the owner of the contract.\n   */\n  function setBlockedByContract(address _blockedBy) external onlyOwner {\n    _setBlockedBy(_blockedBy);\n  }\n\n  /**\n   * @notice Returns the total amount of locked CELO in the system. Note that this does not include\n   *   CELO that has been unlocked but not yet withdrawn.\n   * @return The total amount of locked CELO in the system.\n   */\n  function getTotalLockedGold() external view returns (uint256) {\n    return totalNonvoting.add(getElection().getTotalVotes());\n  }\n\n  /**\n   * @notice Returns the total amount of locked CELO not being used to vote in elections.\n   * @return The total amount of locked CELO not being used to vote in elections.\n   */\n  function getNonvotingLockedGold() external view returns (uint256) {\n    return totalNonvoting;\n  }\n\n  /**\n   * @notice Queries if the given address is an approved slasher.\n   * @param slasher The address to check.\n   * @return Whether or not the address is an approved slasher.\n   */\n  function isSlasher(address slasher) external view returns (bool) {\n    return (registry.isOneOf(slashingWhitelist, slasher));\n  }\n\n  /**\n   * @notice Return percentage and amount that delegator assigned to delegateee.\n   * Please note that amount doesn't have to be up to date.\n   * In such case please use `updateDelegatedBalance`.\n   * @param delegator The delegator address.\n   * @param delegatee The delegatee address.\n   * @return fraction The fraction that is delegator asigning to delegatee.\n   * @return currentAmount The current actual Celo amount that is assigned to delegatee.\n   */\n  function getDelegatorDelegateeInfo(\n    address delegator,\n    address delegatee\n  ) external view returns (uint256 fraction, uint256 currentAmount) {\n    DelegatedInfo storage currentDelegateeInfo = delegatorInfo[delegator]\n      .delegateesWithPercentagesAndAmount[delegatee];\n\n    fraction = FixidityLib.unwrap(currentDelegateeInfo.percentage);\n    currentAmount = currentDelegateeInfo.currentAmount;\n  }\n\n  /**\n   * @notice Returns the total amount of non-voting locked CELO for an account.\n   * @param account The account.\n   * @return The total amount of non-voting locked CELO for an account.\n   */\n  function getAccountNonvotingLockedGold(address account) external view returns (uint256) {\n    return balances[account].nonvoting;\n  }\n\n  /**\n   * @notice Returns the total amount to withdraw from unlocked CELO for an account.\n   * @param account The address of the account.\n   * @return Total amount to withdraw.\n   */\n  function getTotalPendingWithdrawals(address account) external view returns (uint256) {\n    uint256 pendingWithdrawalSum = 0;\n    PendingWithdrawal[] memory withdrawals = balances[account].pendingWithdrawals;\n    for (uint256 i = 0; i < withdrawals.length; i = i.add(1)) {\n      pendingWithdrawalSum = pendingWithdrawalSum.add(withdrawals[i].value);\n    }\n    return pendingWithdrawalSum;\n  }\n\n  /**\n   * @notice Returns the list of approved slashers.\n   * @return List of Registry identifiers for the approved slashers.\n   */\n  function getSlashingWhitelist() external view returns (bytes32[] memory) {\n    return slashingWhitelist;\n  }\n\n  /**\n   * @notice Returns the pending withdrawals from unlocked CELO for an account.\n   * @param account The address of the account.\n   * @return The value for each pending withdrawal.\n   * @return The timestamp for each pending withdrawal.\n   */\n  function getPendingWithdrawals(\n    address account\n  ) external view returns (uint256[] memory, uint256[] memory) {\n    return\n      getPendingWithdrawalsInBatch(account, 0, balances[account].pendingWithdrawals.length - 1);\n  }\n\n  /**\n   * @notice Returns the pending withdrawal at a given index for a given account.\n   * @param account The address of the account.\n   * @param index The index of the pending withdrawal.\n   * @return The value of the pending withdrawal.\n   * @return The timestamp of the pending withdrawal.\n   */\n  function getPendingWithdrawal(\n    address account,\n    uint256 index\n  ) external view returns (uint256, uint256) {\n    require(\n      getAccounts().isAccount(account),\n      \"Unknown account: only registered accounts have pending withdrawals\"\n    );\n    require(index < balances[account].pendingWithdrawals.length, \"Bad pending withdrawal index\");\n    PendingWithdrawal memory pendingWithdrawal = (balances[account].pendingWithdrawals[index]);\n\n    return (pendingWithdrawal.value, pendingWithdrawal.timestamp);\n  }\n\n  /**\n   * @notice Returns the storage, major, minor, and patch version of the contract.\n   * @return Storage version of the contract.\n   * @return Major version of the contract.\n   * @return Minor version of the contract.\n   * @return Patch version of the contract.\n   */\n  function getVersionNumber() external pure returns (uint256, uint256, uint256, uint256) {\n    return (1, 1, 5, 0);\n  }\n\n  /**\n   * @notice Sets the duration in seconds users must wait before withdrawing CELO after unlocking.\n   * @param value The unlocking period in seconds.\n   */\n  function setUnlockingPeriod(uint256 value) public onlyOwner {\n    require(value != unlockingPeriod, \"Unlocking period not changed\");\n    unlockingPeriod = value;\n    emit UnlockingPeriodSet(value);\n  }\n\n  /**\n   * @notice Sets max delegatees count.\n   * @param value The max delegatees count.\n   */\n  function setMaxDelegateesCount(uint256 value) public onlyOwner {\n    maxDelegateesCount = value;\n    emit MaxDelegateesCountSet(value);\n  }\n\n  /**\n   * @notice Updates real delegated amount to delegatee.\n   * There might be discrepancy because of validator rewards or extra locked CELO.\n   * Voting power will always be smaller or equal to what it is supposed to be.\n   * @param delegator The delegator address.\n   * @param delegatee The delegatee address.\n   */\n  function updateDelegatedAmount(address delegator, address delegatee) public returns (uint256) {\n    address delegatorAccount = getAccounts().voteSignerToAccount(delegator);\n    address delegateeAccount = getAccounts().voteSignerToAccount(delegatee);\n\n    return _updateDelegatedAmount(delegatorAccount, delegateeAccount);\n  }\n\n  /**\n   * @notice Updates real delegated amount to all delegator's delegatees.\n   * There might be discrepancy because of validator rewards or extra locked CELO.\n   * @param delegator The delegator address.\n   */\n  function updateDelegatedAmount(address delegator) public {\n    address delegatorAccount = getAccounts().voteSignerToAccount(delegator);\n    _updateDelegatedAmount(delegatorAccount);\n  }\n\n  /**\n   * @notice Returns the number of pending withdrawals for the specified account.\n   * @param account The address of the account.\n   * @return The count of pending withdrawals.\n   */\n  function getTotalPendingWithdrawalsCount(address account) public view returns (uint256) {\n    return balances[account].pendingWithdrawals.length;\n  }\n\n  /**\n   * @notice Retuns all delegatees of delegator\n   * @param delegator The delegator address.\n   */\n  function getDelegateesOfDelegator(address delegator) public view returns (address[] memory) {\n    address[] memory values = delegatorInfo[delegator].delegatees.enumerate();\n    return values;\n  }\n\n  /**\n   * @notice Returns the pending withdrawals from unlocked CELO for an account in a given range.\n   * @param account The address of the account.\n   * @param from The start index of the pending withdrawals.\n   * @param to The end index of the pending withdrawals.\n   * @return The value for each pending withdrawal.\n   * @return The timestamp for each pending withdrawal.\n   */\n  function getPendingWithdrawalsInBatch(\n    address account,\n    uint256 from,\n    uint256 to\n  ) public view returns (uint256[] memory, uint256[] memory) {\n    uint256 pendingWithdrawalsLength = getTotalPendingWithdrawalsCount(account);\n\n    if (pendingWithdrawalsLength == 0) {\n      return (new uint256[](0), new uint256[](0));\n    }\n    require(from <= to, \"Invalid range\");\n    uint256 _to = Math.min(to, pendingWithdrawalsLength - 1);\n    uint256 length = _to - from + 1;\n    uint256[] memory values = new uint256[](length);\n    uint256[] memory timestamps = new uint256[](length);\n    for (uint256 i = from; i <= _to; i = i.add(1)) {\n      PendingWithdrawal memory pendingWithdrawal = balances[account].pendingWithdrawals[i];\n      values[i - from] = pendingWithdrawal.value;\n      timestamps[i - from] = pendingWithdrawal.timestamp;\n    }\n    return (values, timestamps);\n  }\n\n  /**\n   * @notice Returns how many percents of CELO is account delegating.\n   * @param account The account address.\n   */\n  function getAccountTotalDelegatedFraction(address account) public view returns (uint256) {\n    Delegated storage delegated = delegatorInfo[account];\n    return FixidityLib.unwrap(delegated.totalDelegatedCeloFraction);\n  }\n\n  /**\n   * @notice Returns the total amount of locked CELO for an account.\n   * @param account The account.\n   * @return The total amount of locked CELO for an account.\n   */\n  function getAccountTotalLockedGold(address account) public view returns (uint256) {\n    uint256 total = balances[account].nonvoting;\n    return total.add(getElection().getTotalVotesByAccount(account));\n  }\n\n  /**\n   * @notice Returns the total amount of locked CELO + delegated CELO for an account.\n   * @param account The account.\n   * @return The total amount of locked CELO + delegated CELO for an account.\n   */\n  function getAccountTotalGovernanceVotingPower(address account) public view returns (uint256) {\n    FixidityLib.Fraction memory availableUndelegatedPercents = FixidityLib.fixed1().subtract(\n      FixidityLib.wrap(getAccountTotalDelegatedFraction(account))\n    );\n    uint256 totalLockedGold = getAccountTotalLockedGold(account);\n\n    uint256 availableForVoting = FixidityLib\n      .newFixed(totalLockedGold)\n      .multiply(availableUndelegatedPercents)\n      .fromFixed();\n\n    return availableForVoting.add(totalDelegatedCelo[account]);\n  }\n\n  /**\n   * @notice Returns expected and real delegated amount.\n   * If there is a discrepancy it can be fixed by calling `updateDelegatedAmount` function.\n   * @param delegator The delegator address.\n   * @param delegatee The delegatee address.\n   * @return expected The expected amount.\n   * @return real The real amount.\n   */\n  function getDelegatorDelegateeExpectedAndRealAmount(\n    address delegator,\n    address delegatee\n  ) public view returns (uint256 expected, uint256 real) {\n    address delegatorAccount = getAccounts().voteSignerToAccount(delegator);\n    address delegateeAccount = getAccounts().voteSignerToAccount(delegatee);\n\n    (expected, real) = _getDelegatorDelegateeExpectedAndRealAmount(\n      delegatorAccount,\n      delegateeAccount\n    );\n  }\n\n  /**\n   * @notice Updates real delegated amount to delegatee.\n   * There might be discrepancy because of validator rewards or extra locked CELO.\n   * Voting power will always be smaller or equal to what it is supposed to be.\n   * @param delegator The delegator address.\n   * @param delegatee The delegatee address.\n   */\n  function _updateDelegatedAmount(address delegator, address delegatee) internal returns (uint256) {\n    Delegated storage delegated = delegatorInfo[delegator];\n    require(\n      FixidityLib.unwrap(delegated.totalDelegatedCeloFraction) != 0,\n      \"delegator is not delegating\"\n    );\n    DelegatedInfo storage currentDelegateeInfo = delegated.delegateesWithPercentagesAndAmount[\n      delegatee\n    ];\n    require(\n      FixidityLib.unwrap(currentDelegateeInfo.percentage) != 0,\n      \"delegator is not delegating for delegatee\"\n    );\n\n    (uint256 expected, uint256 real) = getDelegatorDelegateeExpectedAndRealAmount(\n      delegator,\n      delegatee\n    );\n\n    currentDelegateeInfo.currentAmount = expected;\n    totalDelegatedCelo[delegatee] = totalDelegatedCelo[delegatee].sub(real).add(expected);\n\n    return expected;\n  }\n\n  /**\n   * @notice Increments the non-voting balance for an account.\n   * @param account The account whose non-voting balance should be incremented.\n   * @param value The amount by which to increment.\n   */\n  function _incrementNonvotingAccountBalance(address account, uint256 value) private {\n    balances[account].nonvoting = balances[account].nonvoting.add(value);\n    totalNonvoting = totalNonvoting.add(value);\n  }\n\n  /**\n   * @notice Decrements the non-voting balance for an account.\n   * @param account The account whose non-voting balance should be decremented.\n   * @param value The amount by which to decrement.\n   */\n  function _decrementNonvotingAccountBalance(address account, uint256 value) private {\n    balances[account].nonvoting = balances[account].nonvoting.sub(value);\n    totalNonvoting = totalNonvoting.sub(value);\n  }\n\n  /**\n   * @notice Revokes amount during unlocking. It will revoke votes from voted proposals if necessary.\n   * @param delegator The delegator account.\n   * @param amountToRevoke The amount to revoke.\n   */\n  function revokeFromDelegatedWhenUnlocking(address delegator, uint256 amountToRevoke) private {\n    address[] memory delegatees = getDelegateesOfDelegator(delegator);\n\n    Delegated storage delegated = delegatorInfo[delegator];\n\n    for (uint256 i = 0; i < delegatees.length; i = i.add(1)) {\n      DelegatedInfo storage currentDelegateeInfo = delegated.delegateesWithPercentagesAndAmount[\n        delegatees[i]\n      ];\n      (uint256 expected, uint256 real) = _getDelegatorDelegateeExpectedAndRealAmount(\n        delegator,\n        delegatees[i]\n      );\n      uint256 delegateeAmountToRevoke = FixidityLib\n        .newFixed(amountToRevoke)\n        .multiply(currentDelegateeInfo.percentage)\n        .fromFixed();\n      delegateeAmountToRevoke = delegateeAmountToRevoke.sub(expected.sub(real));\n      _decreaseDelegateeVotingPower(delegatees[i], delegateeAmountToRevoke, currentDelegateeInfo);\n      emit DelegatedCeloRevoked(delegator, delegatees[i], 0, delegateeAmountToRevoke);\n    }\n  }\n\n  /**\n   * @notice Decreases delegatee voting power when removing or unlocking delegated votes.\n   * @param delegatee The delegatee.\n   * @param amountToRevoke Amount to revoke.\n   * @param delegateeInfo Delegatee info.\n   */\n  function _decreaseDelegateeVotingPower(\n    address delegatee,\n    uint256 amountToRevoke,\n    DelegatedInfo storage delegateeInfo\n  ) private {\n    uint256 delegateeTotalVotingPower = getAccountTotalGovernanceVotingPower(delegatee);\n    uint256 totalReferendumVotes = getGovernance().getAmountOfGoldUsedForVoting(delegatee);\n    uint256 unusedReferendumVotes = delegateeTotalVotingPower.sub(totalReferendumVotes);\n    if (unusedReferendumVotes < amountToRevoke) {\n      getGovernance().removeVotesWhenRevokingDelegatedVotes(\n        delegatee,\n        delegateeTotalVotingPower.sub(amountToRevoke)\n      );\n    }\n    delegateeInfo.currentAmount = delegateeInfo.currentAmount.sub(amountToRevoke);\n    totalDelegatedCelo[delegatee] = totalDelegatedCelo[delegatee].sub(amountToRevoke);\n  }\n\n  function _updateDelegatedAmount(address delegator) private {\n    address delegatorAccount = getAccounts().voteSignerToAccount(delegator);\n    EnumerableSet.AddressSet storage delegatees = delegatorInfo[delegatorAccount].delegatees;\n    for (uint256 i = 0; i < delegatees.length(); i = i.add(1)) {\n      _updateDelegatedAmount(delegatorAccount, delegatees.get(i));\n    }\n  }\n\n  /**\n   * @notice Deletes a pending withdrawal.\n   * @param list The list of pending withdrawals from which to delete.\n   * @param index The index of the pending withdrawal to delete.\n   */\n  function deletePendingWithdrawal(PendingWithdrawal[] storage list, uint256 index) private {\n    uint256 lastIndex = list.length.sub(1);\n    list[index] = list[lastIndex];\n    list.length = lastIndex;\n  }\n\n  /**\n   * @notice Returns expected and real delegated amount.\n   * If there is a discrepancy it can be fixed by calling `updateDelegatedAmount` function.\n   * @param delegator The delegator address.\n   * @param delegatee The delegatee address.\n   * @return expected The expected amount.\n   * @return real The real amount.\n   */\n  function _getDelegatorDelegateeExpectedAndRealAmount(\n    address delegator,\n    address delegatee\n  ) private view returns (uint256 expected, uint256 real) {\n    DelegatedInfo storage currentDelegateeInfo = delegatorInfo[delegator]\n      .delegateesWithPercentagesAndAmount[delegatee];\n\n    uint256 amountToDelegate = FixidityLib\n      .newFixed(getAccountTotalLockedGold(delegator))\n      .multiply(currentDelegateeInfo.percentage)\n      .fromFixed();\n\n    expected = amountToDelegate;\n    real = currentDelegateeInfo.currentAmount;\n  }\n}\n",
  "sourcePath": "/Users/beaver/Development/temp/celo-monorepo/packages/protocol/contracts/governance/LockedGold.sol",
  "compiler": {
    "name": "solc",
    "version": "0.5.13+commit.5b0b510c.Emscripten.clang"
  },
  "schemaVersion": "3.4.13",
  "updatedAt": "2025-05-05T17:49:51.407Z",
  "devdoc": {
    "methods": {
      "addSlasher(string)": {
        "params": {
          "slasherIdentifier": "Identifier to whitelist."
        }
      },
      "constructor": {
        "params": {
          "test": "Set to true to skip implementation initialization"
        }
      },
      "decrementNonvotingAccountBalance(address,uint256)": {
        "details": "Can only be called by the registered \"Election\" smart contract.",
        "params": {
          "account": "The account whose non-voting balance should be decremented.",
          "value": "The amount by which to decrement."
        }
      },
      "delegateGovernanceVotes(address,uint256)": {
        "params": {
          "delegateFraction": "Fraction of total CELO that will be delegated from delegatee. Fixidity fraction",
          "delegatee": "The delegatee account."
        }
      },
      "getAccountNonvotingLockedGold(address)": {
        "params": {
          "account": "The account."
        },
        "return": "The total amount of non-voting locked CELO for an account."
      },
      "getAccountTotalDelegatedFraction(address)": {
        "params": {
          "account": "The account address."
        }
      },
      "getAccountTotalGovernanceVotingPower(address)": {
        "params": {
          "account": "The account."
        },
        "return": "The total amount of locked CELO + delegated CELO for an account."
      },
      "getAccountTotalLockedGold(address)": {
        "params": {
          "account": "The account."
        },
        "return": "The total amount of locked CELO for an account."
      },
      "getDelegateesOfDelegator(address)": {
        "params": {
          "delegator": "The delegator address."
        }
      },
      "getDelegatorDelegateeExpectedAndRealAmount(address,address)": {
        "params": {
          "delegatee": "The delegatee address.",
          "delegator": "The delegator address."
        },
        "return": "expected The expected amount.real The real amount."
      },
      "getDelegatorDelegateeInfo(address,address)": {
        "params": {
          "delegatee": "The delegatee address.",
          "delegator": "The delegator address."
        },
        "return": "fraction The fraction that is delegator asigning to delegatee.currentAmount The current actual Celo amount that is assigned to delegatee."
      },
      "getNonvotingLockedGold()": {
        "return": "The total amount of locked CELO not being used to vote in elections."
      },
      "getPendingWithdrawal(address,uint256)": {
        "params": {
          "account": "The address of the account.",
          "index": "The index of the pending withdrawal."
        },
        "return": "The value of the pending withdrawal.The timestamp of the pending withdrawal."
      },
      "getPendingWithdrawals(address)": {
        "params": {
          "account": "The address of the account."
        },
        "return": "The value for each pending withdrawal.The timestamp for each pending withdrawal."
      },
      "getPendingWithdrawalsInBatch(address,uint256,uint256)": {
        "params": {
          "account": "The address of the account.",
          "from": "The start index of the pending withdrawals.",
          "to": "The end index of the pending withdrawals."
        },
        "return": "The value for each pending withdrawal.The timestamp for each pending withdrawal."
      },
      "getSlashingWhitelist()": {
        "return": "List of Registry identifiers for the approved slashers."
      },
      "getTotalLockedGold()": {
        "return": "The total amount of locked CELO in the system."
      },
      "getTotalPendingWithdrawals(address)": {
        "params": {
          "account": "The address of the account."
        },
        "return": "Total amount to withdraw."
      },
      "getTotalPendingWithdrawalsCount(address)": {
        "params": {
          "account": "The address of the account."
        },
        "return": "The count of pending withdrawals."
      },
      "getVersionNumber()": {
        "return": "Storage version of the contract.Major version of the contract.Minor version of the contract.Patch version of the contract."
      },
      "incrementNonvotingAccountBalance(address,uint256)": {
        "details": "Can only be called by the registered Election smart contract.",
        "params": {
          "account": "The account whose non-voting balance should be incremented.",
          "value": "The amount by which to increment."
        }
      },
      "initialize(address,uint256)": {
        "params": {
          "_unlockingPeriod": "The unlocking period in seconds.",
          "registryAddress": "The address of the registry core smart contract."
        }
      },
      "isBlocked()": {
        "details": "The function returns false if no blocking contract has been set.",
        "return": "Returns true if the contract is blocked, otherwise false."
      },
      "isOwner()": {
        "details": "Returns true if the caller is the current owner."
      },
      "isSlasher(address)": {
        "params": {
          "slasher": "The address to check."
        },
        "return": "Whether or not the address is an approved slasher."
      },
      "owner()": {
        "details": "Returns the address of the current owner."
      },
      "relock(uint256,uint256)": {
        "params": {
          "index": "The index of the pending withdrawal to relock from.",
          "value": "The value to relock from the specified pending withdrawal."
        }
      },
      "removeSlasher(string,uint256)": {
        "params": {
          "index": "Index of the provided identifier in slashingWhiteList array.",
          "slasherIdentifier": "Identifier to remove from whitelist."
        }
      },
      "renounceOwnership()": {
        "details": "Leaves the contract without owner. It will not be possible to call `onlyOwner` functions anymore. Can only be called by the current owner.     * NOTE: Renouncing ownership will leave the contract without an owner, thereby removing any functionality that is only available to the owner."
      },
      "revokeDelegatedGovernanceVotes(address,uint256)": {
        "params": {
          "delegatee": "The delegatee acount.",
          "revokeFraction": "Fraction of total CELO that will be revoked from delegatee. Fixidity fraction"
        }
      },
      "setBlockedByContract(address)": {
        "details": "Can only be called by the owner of the contract.",
        "params": {
          "_blockedBy": "The address of the contract that will determine if this contract is blocked."
        }
      },
      "setMaxDelegateesCount(uint256)": {
        "params": {
          "value": "The max delegatees count."
        }
      },
      "setRegistry(address)": {
        "params": {
          "registryAddress": "The address of a registry contract for routing to other contracts."
        }
      },
      "setUnlockingPeriod(uint256)": {
        "params": {
          "value": "The unlocking period in seconds."
        }
      },
      "slash(address,uint256,address,uint256,address[],address[],uint256[])": {
        "details": "Fails if `reward` is greater than `account`'s total locked CELO.",
        "params": {
          "account": "Address of account being slashed.",
          "greaters": "The groups receiving more votes than the i'th group, or 0 if the i'th group                has the most votes of any validator group.",
          "indices": "The indices of the i'th group in `account`'s voting list.",
          "lessers": "The groups receiving fewer votes than i'th group, or 0 if the i'th group has               the fewest votes of any validator group.",
          "penalty": "Amount to slash account.",
          "reporter": "Address of account reporting the slasher.",
          "reward": "Reward to give reporter."
        }
      },
      "transferOwnership(address)": {
        "details": "Transfers ownership of the contract to a new account (`newOwner`). Can only be called by the current owner."
      },
      "unlock(uint256)": {
        "params": {
          "value": "The amount of CELO to unlock."
        }
      },
      "updateDelegatedAmount(address)": {
        "params": {
          "delegator": "The delegator address."
        }
      },
      "updateDelegatedAmount(address,address)": {
        "params": {
          "delegatee": "The delegatee address.",
          "delegator": "The delegator address."
        }
      },
      "withdraw(uint256)": {
        "params": {
          "index": "The index of the pending withdrawal to withdraw."
        }
      }
    },
    "title": "Manages the CELO locked for use in Celo governance, election, and staking systems."
  },
  "userdoc": {
    "methods": {
      "addSlasher(string)": {
        "notice": "Adds `slasher` to whitelist of approved slashing addresses."
      },
      "constructor": "Sets initialized == true on implementation contracts",
      "decrementNonvotingAccountBalance(address,uint256)": {
        "notice": "Decrements the non-voting balance for an account."
      },
      "delegateGovernanceVotes(address,uint256)": {
        "notice": "Delegates CELO to delegatee."
      },
      "getAccountNonvotingLockedGold(address)": {
        "notice": "Returns the total amount of non-voting locked CELO for an account."
      },
      "getAccountTotalDelegatedFraction(address)": {
        "notice": "Returns how many percents of CELO is account delegating."
      },
      "getAccountTotalGovernanceVotingPower(address)": {
        "notice": "Returns the total amount of locked CELO + delegated CELO for an account."
      },
      "getAccountTotalLockedGold(address)": {
        "notice": "Returns the total amount of locked CELO for an account."
      },
      "getBlockedByContract()": {
        "notice": "Returns the address of the contract imposing the block."
      },
      "getDelegateesOfDelegator(address)": {
        "notice": "Retuns all delegatees of delegator"
      },
      "getDelegatorDelegateeExpectedAndRealAmount(address,address)": {
        "notice": "Returns expected and real delegated amount. If there is a discrepancy it can be fixed by calling `updateDelegatedAmount` function."
      },
      "getDelegatorDelegateeInfo(address,address)": {
        "notice": "Return percentage and amount that delegator assigned to delegateee. Please note that amount doesn't have to be up to date. In such case please use `updateDelegatedBalance`."
      },
      "getNonvotingLockedGold()": {
        "notice": "Returns the total amount of locked CELO not being used to vote in elections."
      },
      "getPendingWithdrawal(address,uint256)": {
        "notice": "Returns the pending withdrawal at a given index for a given account."
      },
      "getPendingWithdrawals(address)": {
        "notice": "Returns the pending withdrawals from unlocked CELO for an account."
      },
      "getPendingWithdrawalsInBatch(address,uint256,uint256)": {
        "notice": "Returns the pending withdrawals from unlocked CELO for an account in a given range."
      },
      "getSlashingWhitelist()": {
        "notice": "Returns the list of approved slashers."
      },
      "getTotalLockedGold()": {
        "notice": "Returns the total amount of locked CELO in the system. Note that this does not include  CELO that has been unlocked but not yet withdrawn."
      },
      "getTotalPendingWithdrawals(address)": {
        "notice": "Returns the total amount to withdraw from unlocked CELO for an account."
      },
      "getTotalPendingWithdrawalsCount(address)": {
        "notice": "Returns the number of pending withdrawals for the specified account."
      },
      "getVersionNumber()": {
        "notice": "Returns the storage, major, minor, and patch version of the contract."
      },
      "incrementNonvotingAccountBalance(address,uint256)": {
        "notice": "Increments the non-voting balance for an account."
      },
      "initialize(address,uint256)": {
        "notice": "Used in place of the constructor to allow the contract to be upgradable via proxy."
      },
      "isBlocked()": {
        "notice": "Checks if the contract is currently blocked."
      },
      "isSlasher(address)": {
        "notice": "Queries if the given address is an approved slasher."
      },
      "lock()": {
        "notice": "Locks CELO to be used for voting."
      },
      "relock(uint256,uint256)": {
        "notice": "Relocks CELO that has been unlocked but not withdrawn."
      },
      "removeSlasher(string,uint256)": {
        "notice": "Removes `slasher` from whitelist of approved slashing addresses."
      },
      "revokeDelegatedGovernanceVotes(address,uint256)": {
        "notice": "Revokes delegated CELO."
      },
      "setBlockedByContract(address)": {
        "notice": "Sets the address of the blocking contract."
      },
      "setMaxDelegateesCount(uint256)": {
        "notice": "Sets max delegatees count."
      },
      "setRegistry(address)": {
        "notice": "Updates the address pointing to a Registry contract."
      },
      "setUnlockingPeriod(uint256)": {
        "notice": "Sets the duration in seconds users must wait before withdrawing CELO after unlocking."
      },
      "slash(address,uint256,address,uint256,address[],address[],uint256[])": {
        "notice": "Slashes `account` by reducing its nonvoting locked CELO by `penalty`.        If there is not enough nonvoting locked CELO to slash, calls into        `Election.slashVotes` to slash the remaining CELO. If `account` does not have        `penalty` worth of locked CELO, slashes `account`'s total locked CELO.        Also sends `reward` CELO to the reporter, and penalty-reward to the Community Fund."
      },
      "unlock(uint256)": {
        "notice": "Unlocks CELO that becomes withdrawable after the unlocking period."
      },
      "updateDelegatedAmount(address)": {
        "notice": "Updates real delegated amount to all delegator's delegatees. There might be discrepancy because of validator rewards or extra locked CELO."
      },
      "updateDelegatedAmount(address,address)": {
        "notice": "Updates real delegated amount to delegatee. There might be discrepancy because of validator rewards or extra locked CELO. Voting power will always be smaller or equal to what it is supposed to be."
      },
      "withdraw(uint256)": {
        "notice": "Withdraws CELO that has been unlocked after the unlocking period has passed."
      }
    }
  }
}