{
  "contractName": "MockUsingPrecompiles",
  "abi": [
    {
      "constant": false,
      "inputs": [
        {
          "internalType": "bytes",
          "name": "header",
          "type": "bytes"
        },
        {
          "internalType": "bytes32",
          "name": "bitmap",
          "type": "bytes32"
        }
      ],
      "name": "setVerifiedSealBitmap",
      "outputs": [],
      "payable": false,
      "stateMutability": "nonpayable",
      "type": "function"
    },
    {
      "constant": false,
      "inputs": [
        {
          "internalType": "uint256",
          "name": "blockNumber",
          "type": "uint256"
        },
        {
          "internalType": "bytes32",
          "name": "bitmap",
          "type": "bytes32"
        }
      ],
      "name": "setParentSealBitmap",
      "outputs": [],
      "payable": false,
      "stateMutability": "nonpayable",
      "type": "function"
    },
    {
      "constant": false,
      "inputs": [
        {
          "internalType": "uint256",
          "name": "epoch",
          "type": "uint256"
        },
        {
          "internalType": "uint256",
          "name": "index",
          "type": "uint256"
        },
        {
          "internalType": "address",
          "name": "signer",
          "type": "address"
        }
      ],
      "name": "setEpochSigner",
      "outputs": [],
      "payable": false,
      "stateMutability": "nonpayable",
      "type": "function"
    },
    {
      "constant": false,
      "inputs": [
        {
          "internalType": "uint256",
          "name": "num",
          "type": "uint256"
        }
      ],
      "name": "setNumberValidators",
      "outputs": [],
      "payable": false,
      "stateMutability": "nonpayable",
      "type": "function"
    },
    {
      "constant": false,
      "inputs": [
        {
          "internalType": "bytes",
          "name": "header",
          "type": "bytes"
        },
        {
          "internalType": "uint256",
          "name": "number",
          "type": "uint256"
        }
      ],
      "name": "setBlockNumber",
      "outputs": [
        {
          "internalType": "uint256",
          "name": "",
          "type": "uint256"
        }
      ],
      "payable": false,
      "stateMutability": "nonpayable",
      "type": "function"
    },
    {
      "constant": true,
      "inputs": [
        {
          "internalType": "uint256",
          "name": "",
          "type": "uint256"
        }
      ],
      "name": "numberValidatorsInSet",
      "outputs": [
        {
          "internalType": "uint256",
          "name": "",
          "type": "uint256"
        }
      ],
      "payable": false,
      "stateMutability": "view",
      "type": "function"
    },
    {
      "constant": true,
      "inputs": [
        {
          "internalType": "bytes",
          "name": "header",
          "type": "bytes"
        }
      ],
      "name": "getBlockNumberFromHeader",
      "outputs": [
        {
          "internalType": "uint256",
          "name": "",
          "type": "uint256"
        }
      ],
      "payable": false,
      "stateMutability": "view",
      "type": "function"
    },
    {
      "constant": true,
      "inputs": [
        {
          "internalType": "bytes",
          "name": "header",
          "type": "bytes"
        }
      ],
      "name": "hashHeader",
      "outputs": [
        {
          "internalType": "bytes32",
          "name": "",
          "type": "bytes32"
        }
      ],
      "payable": false,
      "stateMutability": "view",
      "type": "function"
    },
    {
      "constant": true,
      "inputs": [
        {
          "internalType": "bytes",
          "name": "header",
          "type": "bytes"
        }
      ],
      "name": "getVerifiedSealBitmapFromHeader",
      "outputs": [
        {
          "internalType": "bytes32",
          "name": "",
          "type": "bytes32"
        }
      ],
      "payable": false,
      "stateMutability": "view",
      "type": "function"
    },
    {
      "constant": true,
      "inputs": [
        {
          "internalType": "uint256",
          "name": "blockNumber",
          "type": "uint256"
        }
      ],
      "name": "getParentSealBitmap",
      "outputs": [
        {
          "internalType": "bytes32",
          "name": "",
          "type": "bytes32"
        }
      ],
      "payable": false,
      "stateMutability": "view",
      "type": "function"
    }
  ],
  "bytecode": "0x608060405234801561001057600080fd5b50610942806100206000396000f3fe608060405234801561001057600080fd5b506004361061009e5760003560e01c80637a3aebe4116100665780637a3aebe41461036c5780638a883626146104455780639b2b592f14610514578063d041d18a14610556578063fae8db0a146105ae5761009e565b806329d24b64146100a3578063462450c4146100d15780634b2c2f441461019657806367960e91146102655780636c56c16d14610334575b600080fd5b6100cf600480360360208110156100b957600080fd5b81019080803590602001909291905050506105f0565b005b610194600480360360408110156100e757600080fd5b810190808035906020019064010000000081111561010457600080fd5b82018360208201111561011657600080fd5b8035906020019184600183028401116401000000008311171561013857600080fd5b91908080601f016020809104026020016040519081016040528093929190818152602001838380828437600081840152601f19601f820116905080830192505050505050509192919290803590602001909291905050506105fa565b005b61024f600480360360208110156101ac57600080fd5b81019080803590602001906401000000008111156101c957600080fd5b8201836020820111156101db57600080fd5b803590602001918460018302840111640100000000831117156101fd57600080fd5b91908080601f016020809104026020016040519081016040528093929190818152602001838380828437600081840152601f19601f820116905080830192505050505050509192919290505050610686565b6040518082815260200191505060405180910390f35b61031e6004803603602081101561027b57600080fd5b810190808035906020019064010000000081111561029857600080fd5b8201836020820111156102aa57600080fd5b803590602001918460018302840111640100000000831117156102cc57600080fd5b91908080601f016020809104026020016040519081016040528093929190818152602001838380828437600081840152601f19601f820116905080830192505050505050509192919290505050610713565b6040518082815260200191505060405180910390f35b61036a6004803603604081101561034a57600080fd5b810190808035906020019092919080359060200190929190505050610724565b005b61042f6004803603604081101561038257600080fd5b810190808035906020019064010000000081111561039f57600080fd5b8201836020820111156103b157600080fd5b803590602001918460018302840111640100000000831117156103d357600080fd5b91908080601f016020809104026020016040519081016040528093929190818152602001838380828437600081840152601f19601f82011690508083019250505050505050919291929080359060200190929190505050610740565b6040518082815260200191505060405180910390f35b6104fe6004803603602081101561045b57600080fd5b810190808035906020019064010000000081111561047857600080fd5b82018360208201111561048a57600080fd5b803590602001918460018302840111640100000000831117156104ac57600080fd5b91908080601f016020809104026020016040519081016040528093929190818152602001838380828437600081840152601f19601f8201169050808301925050505050505091929192905050506107d1565b6040518082815260200191505060405180910390f35b6105406004803603602081101561052a57600080fd5b810190808035906020019092919050505061085f565b6040518082815260200191505060405180910390f35b6105ac6004803603606081101561056c57600080fd5b810190808035906020019092919080359060200190929190803573ffffffffffffffffffffffffffffffffffffffff16906020019092919050505061086b565b005b6105da600480360360208110156105c457600080fd5b81019080803590602001909291905050506108f0565b6040518082815260200191505060405180910390f35b8060038190555050565b80600080846040516020018082805190602001908083835b602083106106355780518252602082019150602081019050602083039250610612565b6001836020036101000a038019825116818451168082178552505050505050905001915050604051602081830303815290604052805190602001208152602001908152602001600020819055505050565b6000806000836040516020018082805190602001908083835b602083106106c2578051825260208201915060208101905060208303925061069f565b6001836020036101000a038019825116818451168082178552505050505050905001915050604051602081830303815290604052805190602001208152602001908152602001600020549050919050565b600081805190602001209050919050565b8060016000848152602001908152602001600020819055505050565b60008160046000856040516020018082805190602001908083835b6020831061077e578051825260208201915060208101905060208303925061075b565b6001836020036101000a0380198251168184511680821785525050505050509050019150506040516020818303038152906040528051906020012081526020019081526020016000208190555092915050565b600060046000836040516020018082805190602001908083835b6020831061080e57805182526020820191506020810190506020830392506107eb565b6001836020036101000a038019825116818451168082178552505050505050905001915050604051602081830303815290604052805190602001208152602001908152602001600020549050919050565b60006003549050919050565b80600260008585604051602001808381526020018281526020019250505060405160208183030381529060405280519060200120815260200190815260200160002060006101000a81548173ffffffffffffffffffffffffffffffffffffffff021916908373ffffffffffffffffffffffffffffffffffffffff160217905550505050565b60006001600083815260200190815260200160002054905091905056fea265627a7a7231582089f26a1ee9d7b092bc0c713dcab69fe315f874f96b1b1a6eb86352d33907807c64736f6c634300050d0032",
  "source": "pragma solidity ^0.5.13;\n\ncontract MockUsingPrecompiles {\n  mapping(bytes32 => bytes32) verifiedSealBitmap;\n  mapping(uint256 => bytes32) parentSealBitmap;\n  mapping(bytes32 => address) epochSigner;\n\n  uint256 numValidators;\n\n  mapping(bytes32 => uint256) blockNumbers;\n\n  function setVerifiedSealBitmap(bytes memory header, bytes32 bitmap) public {\n    verifiedSealBitmap[keccak256(abi.encodePacked(header))] = bitmap;\n  }\n\n  function setParentSealBitmap(uint256 blockNumber, bytes32 bitmap) public {\n    parentSealBitmap[blockNumber] = bitmap;\n  }\n\n  function setEpochSigner(uint256 epoch, uint256 index, address signer) public {\n    epochSigner[keccak256(abi.encodePacked(epoch, index))] = signer;\n  }\n\n  function setNumberValidators(uint256 num) public {\n    numValidators = num;\n  }\n\n  function setBlockNumber(bytes memory header, uint256 number) public returns (uint256) {\n    blockNumbers[keccak256(abi.encodePacked(header))] = number;\n  }\n\n  function numberValidatorsInSet(uint256) public view returns (uint256) {\n    return numValidators;\n  }\n\n  function getBlockNumberFromHeader(bytes memory header) public view returns (uint256) {\n    return blockNumbers[keccak256(abi.encodePacked(header))];\n  }\n\n  function hashHeader(bytes memory header) public view returns (bytes32) {\n    return keccak256(header);\n  }\n\n  function getVerifiedSealBitmapFromHeader(bytes memory header) public view returns (bytes32) {\n    return verifiedSealBitmap[keccak256(abi.encodePacked(header))];\n  }\n\n  function getParentSealBitmap(uint256 blockNumber) public view returns (bytes32) {\n    return parentSealBitmap[blockNumber];\n  }\n}\n",
  "sourcePath": "/Users/beaver/Development/temp/celo-monorepo/packages/protocol/contracts/governance/test/MockUsingPrecompiles.sol",
  "compiler": {
    "name": "solc",
    "version": "0.5.13+commit.5b0b510c.Emscripten.clang"
  },
  "schemaVersion": "3.4.13",
  "updatedAt": "2025-05-05T17:49:51.472Z",
  "devdoc": {
    "methods": {}
  },
  "userdoc": {
    "methods": {}
  }
}