{
  "contractName": "MockGovernance",
  "abi": [
    {
      "payable": true,
      "stateMutability": "payable",
      "type": "fallback"
    },
    {
      "constant": true,
      "inputs": [
        {
          "internalType": "address",
          "name": "",
          "type": "address"
        }
      ],
      "name": "isVoting",
      "outputs": [
        {
          "internalType": "bool",
          "name": "",
          "type": "bool"
        }
      ],
      "payable": false,
      "stateMutability": "view",
      "type": "function"
    },
    {
      "constant": true,
      "inputs": [
        {
          "internalType": "address",
          "name": "",
          "type": "address"
        }
      ],
      "name": "removeVotesCalledFor",
      "outputs": [
        {
          "internalType": "uint256",
          "name": "",
          "type": "uint256"
        }
      ],
      "payable": false,
      "stateMutability": "view",
      "type": "function"
    },
    {
      "constant": true,
      "inputs": [
        {
          "internalType": "address",
          "name": "",
          "type": "address"
        }
      ],
      "name": "totalVotes",
      "outputs": [
        {
          "internalType": "uint256",
          "name": "",
          "type": "uint256"
        }
      ],
      "payable": false,
      "stateMutability": "view",
      "type": "function"
    },
    {
      "constant": false,
      "inputs": [
        {
          "internalType": "address",
          "name": "voter",
          "type": "address"
        }
      ],
      "name": "setVoting",
      "outputs": [],
      "payable": false,
      "stateMutability": "nonpayable",
      "type": "function"
    },
    {
      "constant": false,
      "inputs": [
        {
          "internalType": "address",
          "name": "voter",
          "type": "address"
        },
        {
          "internalType": "uint256",
          "name": "votes",
          "type": "uint256"
        }
      ],
      "name": "setTotalVotes",
      "outputs": [],
      "payable": false,
      "stateMutability": "nonpayable",
      "type": "function"
    },
    {
      "constant": false,
      "inputs": [
        {
          "internalType": "address",
          "name": "account",
          "type": "address"
        },
        {
          "internalType": "uint256",
          "name": "maxAmountAllowed",
          "type": "uint256"
        }
      ],
      "name": "removeVotesWhenRevokingDelegatedVotes",
      "outputs": [],
      "payable": false,
      "stateMutability": "nonpayable",
      "type": "function"
    },
    {
      "constant": false,
      "inputs": [
        {
          "internalType": "address",
          "name": "",
          "type": "address"
        },
        {
          "internalType": "bytes4",
          "name": "",
          "type": "bytes4"
        },
        {
          "internalType": "uint256",
          "name": "",
          "type": "uint256"
        }
      ],
      "name": "setConstitution",
      "outputs": [],
      "payable": false,
      "stateMutability": "nonpayable",
      "type": "function"
    },
    {
      "constant": false,
      "inputs": [
        {
          "internalType": "uint256",
          "name": "",
          "type": "uint256"
        },
        {
          "internalType": "uint256",
          "name": "",
          "type": "uint256"
        },
        {
          "internalType": "uint256",
          "name": "",
          "type": "uint256"
        },
        {
          "internalType": "uint256",
          "name": "",
          "type": "uint256"
        },
        {
          "internalType": "uint256",
          "name": "",
          "type": "uint256"
        }
      ],
      "name": "votePartially",
      "outputs": [
        {
          "internalType": "bool",
          "name": "",
          "type": "bool"
        }
      ],
      "payable": false,
      "stateMutability": "nonpayable",
      "type": "function"
    },
    {
      "constant": true,
      "inputs": [
        {
          "internalType": "uint256",
          "name": "",
          "type": "uint256"
        }
      ],
      "name": "getProposal",
      "outputs": [
        {
          "internalType": "address",
          "name": "",
          "type": "address"
        },
        {
          "internalType": "uint256",
          "name": "",
          "type": "uint256"
        },
        {
          "internalType": "uint256",
          "name": "",
          "type": "uint256"
        },
        {
          "internalType": "uint256",
          "name": "",
          "type": "uint256"
        },
        {
          "internalType": "string",
          "name": "",
          "type": "string"
        },
        {
          "internalType": "uint256",
          "name": "",
          "type": "uint256"
        },
        {
          "internalType": "bool",
          "name": "",
          "type": "bool"
        }
      ],
      "payable": false,
      "stateMutability": "view",
      "type": "function"
    },
    {
      "constant": true,
      "inputs": [
        {
          "internalType": "address",
          "name": "account",
          "type": "address"
        }
      ],
      "name": "getAmountOfGoldUsedForVoting",
      "outputs": [
        {
          "internalType": "uint256",
          "name": "",
          "type": "uint256"
        }
      ],
      "payable": false,
      "stateMutability": "view",
      "type": "function"
    },
    {
      "constant": true,
      "inputs": [],
      "name": "getReferendumStageDuration",
      "outputs": [
        {
          "internalType": "uint256",
          "name": "",
          "type": "uint256"
        }
      ],
      "payable": false,
      "stateMutability": "view",
      "type": "function"
    }
  ],
  "bytecode": "0x608060405234801561001057600080fd5b50610800806100206000396000f3fe60806040526004361061009c5760003560e01c8063ad78c10911610064578063ad78c109146102b1578063af04b8ff146102dc578063c4d0795114610337578063c7f758a814610388578063ed38527414610496578063f3f6da2c1461051a5761009c565b806314b7af211461009e5780632edfd12e146101035780635f8dd6491461017e57806366547163146101e7578063a4fe662f1461024c575b005b3480156100aa57600080fd5b506100ed600480360360208110156100c157600080fd5b81019080803573ffffffffffffffffffffffffffffffffffffffff169060200190929190505050610575565b6040518082815260200191505060405180910390f35b34801561010f57600080fd5b50610164600480360360a081101561012657600080fd5b81019080803590602001909291908035906020019092919080359060200190929190803590602001909291908035906020019092919050505061058d565b604051808215151515815260200191505060405180910390f35b34801561018a57600080fd5b506101cd600480360360208110156101a157600080fd5b81019080803573ffffffffffffffffffffffffffffffffffffffff16906020019092919050505061059c565b604051808215151515815260200191505060405180910390f35b3480156101f357600080fd5b506102366004803603602081101561020a57600080fd5b81019080803573ffffffffffffffffffffffffffffffffffffffff1690602001909291905050506105bc565b6040518082815260200191505060405180910390f35b34801561025857600080fd5b5061029b6004803603602081101561026f57600080fd5b81019080803573ffffffffffffffffffffffffffffffffffffffff169060200190929190505050610605565b6040518082815260200191505060405180910390f35b3480156102bd57600080fd5b506102c661061d565b6040518082815260200191505060405180910390f35b3480156102e857600080fd5b50610335600480360360408110156102ff57600080fd5b81019080803573ffffffffffffffffffffffffffffffffffffffff16906020019092919080359060200190929190505050610625565b005b34801561034357600080fd5b506103866004803603602081101561035a57600080fd5b81019080803573ffffffffffffffffffffffffffffffffffffffff16906020019092919050505061066d565b005b34801561039457600080fd5b506103c1600480360360208110156103ab57600080fd5b81019080803590602001909291905050506106c7565b604051808873ffffffffffffffffffffffffffffffffffffffff1673ffffffffffffffffffffffffffffffffffffffff1681526020018781526020018681526020018581526020018060200184815260200183151515158152602001828103825285818151815260200191508051906020019080838360005b8381101561045557808201518184015260208101905061043a565b50505050905090810190601f1680156104825780820380516001836020036101000a031916815260200191505b509850505050505050505060405180910390f35b3480156104a257600080fd5b50610518600480360360608110156104b957600080fd5b81019080803573ffffffffffffffffffffffffffffffffffffffff16906020019092919080357bffffffffffffffffffffffffffffffffffffffffffffffffffffffff1916906020019092919080359060200190929190505050610715565b005b34801561052657600080fd5b506105736004803603604081101561053d57600080fd5b81019080803573ffffffffffffffffffffffffffffffffffffffff16906020019092919080359060200190929190505050610783565b005b60026020528060005260406000206000915090505481565b60006001905095945050505050565b60006020528060005260406000206000915054906101000a900460ff1681565b6000600160008373ffffffffffffffffffffffffffffffffffffffff1673ffffffffffffffffffffffffffffffffffffffff168152602001908152602001600020549050919050565b60016020528060005260406000206000915090505481565b600080905090565b80600160008473ffffffffffffffffffffffffffffffffffffffff1673ffffffffffffffffffffffffffffffffffffffff168152602001908152602001600020819055505050565b60016000808373ffffffffffffffffffffffffffffffffffffffff1673ffffffffffffffffffffffffffffffffffffffff16815260200190815260200160002060006101000a81548160ff02191690831515021790555050565b60008060008060606000806000806000806000808595508494508393508292506040518060200160405280600081525091908191509650965096509650965096509650919395979092949650565b6040517f08c379a000000000000000000000000000000000000000000000000000000000815260040180806020018281038252600f8152602001807f6e6f7420696d706c656d656e746564000000000000000000000000000000000081525060200191505060405180910390fd5b80600260008473ffffffffffffffffffffffffffffffffffffffff1673ffffffffffffffffffffffffffffffffffffffff16815260200190815260200160002081905550505056fea265627a7a7231582082fb5e69497b427700d222e3bc5d578459702b83e983cc551f1e4d843613f81964736f6c634300050d0032",
  "source": "pragma solidity ^0.5.13;\n\nimport \"../interfaces/IGovernance.sol\";\n\n/**\n * @title A mock Governance for testing.\n */\ncontract MockGovernance is IGovernance {\n  mapping(address => bool) public isVoting;\n  mapping(address => uint256) public totalVotes;\n  mapping(address => uint256) public removeVotesCalledFor;\n\n  function() external payable {} // solhint-disable no-empty-blocks\n\n  function setVoting(address voter) external {\n    isVoting[voter] = true;\n  }\n\n  function setTotalVotes(address voter, uint256 votes) external {\n    totalVotes[voter] = votes;\n  }\n\n  function removeVotesWhenRevokingDelegatedVotes(\n    address account,\n    uint256 maxAmountAllowed\n  ) external {\n    removeVotesCalledFor[account] = maxAmountAllowed;\n  }\n\n  function setConstitution(address, bytes4, uint256) external {\n    revert(\"not implemented\");\n  }\n\n  function votePartially(uint256, uint256, uint256, uint256, uint256) external returns (bool) {\n    return true;\n  }\n\n  function getProposal(\n    uint256\n  ) external view returns (address, uint256, uint256, uint256, string memory, uint256, bool) {\n    return (address(0), 0, 0, 0, \"\", 0, false);\n  }\n\n  function getAmountOfGoldUsedForVoting(address account) external view returns (uint256) {\n    return totalVotes[account];\n  }\n\n  function getReferendumStageDuration() external view returns (uint256) {\n    return 0;\n  }\n}\n",
  "sourcePath": "/Users/beaver/Development/temp/celo-monorepo/packages/protocol/contracts/governance/test/MockGovernance.sol",
  "compiler": {
    "name": "solc",
    "version": "0.5.13+commit.5b0b510c.Emscripten.clang"
  },
  "schemaVersion": "3.4.13",
  "updatedAt": "2025-05-05T17:49:51.468Z",
  "devdoc": {
    "methods": {},
    "title": "A mock Governance for testing."
  },
  "userdoc": {
    "methods": {}
  }
}