{
  "contractName": "ProxyFactory",
  "abi": [
    {
      "constant": false,
      "inputs": [],
      "name": "deployProxy",
      "outputs": [
        {
          "internalType": "address",
          "name": "",
          "type": "address"
        }
      ],
      "payable": false,
      "stateMutability": "nonpayable",
      "type": "function"
    },
    {
      "constant": false,
      "inputs": [
        {
          "internalType": "address",
          "name": "owner",
          "type": "address"
        }
      ],
      "name": "deployProxy",
      "outputs": [
        {
          "internalType": "address",
          "name": "",
          "type": "address"
        }
      ],
      "payable": false,
      "stateMutability": "nonpayable",
      "type": "function"
    }
  ],
  "bytecode": "0x608060405234801561001057600080fd5b50610daf806100206000396000f3fe608060405234801561001057600080fd5b50600436106100365760003560e01c806344882b951461003b578063cbd433f414610085575b600080fd5b610043610109565b604051808273ffffffffffffffffffffffffffffffffffffffff1673ffffffffffffffffffffffffffffffffffffffff16815260200191505060405180910390f35b6100c76004803603602081101561009b57600080fd5b81019080803573ffffffffffffffffffffffffffffffffffffffff169060200190929190505050610119565b604051808273ffffffffffffffffffffffffffffffffffffffff1673ffffffffffffffffffffffffffffffffffffffff16815260200191505060405180910390f35b600061011433610119565b905090565b600080604051610128906101e7565b604051809103906000f080158015610144573d6000803e3d6000fd5b5090508073ffffffffffffffffffffffffffffffffffffffff1663d29d44ee846040518263ffffffff1660e01b8152600401808273ffffffffffffffffffffffffffffffffffffffff1673ffffffffffffffffffffffffffffffffffffffff168152602001915050600060405180830381600087803b1580156101c657600080fd5b505af11580156101da573d6000803e3d6000fd5b5050505080915050919050565b610b86806101f58339019056fe608060405234801561001057600080fd5b506100203361002560201b60201c565b610155565b600073ffffffffffffffffffffffffffffffffffffffff168173ffffffffffffffffffffffffffffffffffffffff1614156100c8576040517f08c379a00000000000000000000000000000000000000000000000000000000081526004018080602001828103825260118152602001807f6f776e65722063616e6e6f74206265203000000000000000000000000000000081525060200191505060405180910390fd5b6000600160405180807f656970313936372e70726f78792e61646d696e000000000000000000000000008152506013019050604051809103902060001c0360001b90508181558173ffffffffffffffffffffffffffffffffffffffff167f50146d0e3c60aa1d17a70635b05494f864e86144a2201275021014fbf08bafe260405160405180910390a25050565b610a22806101646000396000f3fe60806040526004361061004a5760003560e01c806303386ba3146101e757806342404e0714610280578063bb913f41146102d7578063d29d44ee14610328578063f7e6af8014610379575b6000600160405180807f656970313936372e70726f78792e696d706c656d656e746174696f6e00000000815250601c019050604051809103902060001c0360001b9050600081549050600073ffffffffffffffffffffffffffffffffffffffff168173ffffffffffffffffffffffffffffffffffffffff161415610136576040517f08c379a00000000000000000000000000000000000000000000000000000000081526004018080602001828103825260158152602001807f4e6f20496d706c656d656e746174696f6e20736574000000000000000000000081525060200191505060405180910390fd5b61013f816103d0565b6101b1576040517f08c379a00000000000000000000000000000000000000000000000000000000081526004018080602001828103825260188152602001807f496e76616c696420636f6e74726163742061646472657373000000000000000081525060200191505060405180910390fd5b60405136810160405236600082376000803683855af43d604051818101604052816000823e82600081146101e3578282f35b8282fd5b61027e600480360360408110156101fd57600080fd5b81019080803573ffffffffffffffffffffffffffffffffffffffff1690602001909291908035906020019064010000000081111561023a57600080fd5b82018360208201111561024c57600080fd5b8035906020019184600183028401116401000000008311171561026e57600080fd5b909192939192939050505061041b565b005b34801561028c57600080fd5b506102956105c1565b604051808273ffffffffffffffffffffffffffffffffffffffff1673ffffffffffffffffffffffffffffffffffffffff16815260200191505060405180910390f35b3480156102e357600080fd5b50610326600480360360208110156102fa57600080fd5b81019080803573ffffffffffffffffffffffffffffffffffffffff16906020019092919050505061060d565b005b34801561033457600080fd5b506103776004803603602081101561034b57600080fd5b81019080803573ffffffffffffffffffffffffffffffffffffffff1690602001909291905050506107bd565b005b34801561038557600080fd5b5061038e610871565b604051808273ffffffffffffffffffffffffffffffffffffffff1673ffffffffffffffffffffffffffffffffffffffff16815260200191505060405180910390f35b60008060007fc5d2460186f7233c927e7db2dcc703c0e500b653ca82273b7bfad8045d85a47060001b9050833f915080821415801561041257506000801b8214155b92505050919050565b610423610871565b73ffffffffffffffffffffffffffffffffffffffff163373ffffffffffffffffffffffffffffffffffffffff16146104c3576040517f08c379a00000000000000000000000000000000000000000000000000000000081526004018080602001828103825260148152602001807f73656e64657220776173206e6f74206f776e657200000000000000000000000081525060200191505060405180910390fd5b6104cc8361060d565b600060608473ffffffffffffffffffffffffffffffffffffffff168484604051808383808284378083019250505092505050600060405180830381855af49150503d8060008114610539576040519150601f19603f3d011682016040523d82523d6000602084013e61053e565b606091505b508092508193505050816105ba576040517f08c379a000000000000000000000000000000000000000000000000000000000815260040180806020018281038252601e8152602001807f696e697469616c697a6174696f6e2063616c6c6261636b206661696c6564000081525060200191505060405180910390fd5b5050505050565b600080600160405180807f656970313936372e70726f78792e696d706c656d656e746174696f6e00000000815250601c019050604051809103902060001c0360001b9050805491505090565b610615610871565b73ffffffffffffffffffffffffffffffffffffffff163373ffffffffffffffffffffffffffffffffffffffff16146106b5576040517f08c379a00000000000000000000000000000000000000000000000000000000081526004018080602001828103825260148152602001807f73656e64657220776173206e6f74206f776e657200000000000000000000000081525060200191505060405180910390fd5b6000600160405180807f656970313936372e70726f78792e696d706c656d656e746174696f6e00000000815250601c019050604051809103902060001c0360001b9050610701826103d0565b610773576040517f08c379a00000000000000000000000000000000000000000000000000000000081526004018080602001828103825260188152602001807f496e76616c696420636f6e74726163742061646472657373000000000000000081525060200191505060405180910390fd5b8181558173ffffffffffffffffffffffffffffffffffffffff167fab64f92ab780ecbf4f3866f57cee465ff36c89450dcce20237ca7a8d81fb7d1360405160405180910390a25050565b6107c5610871565b73ffffffffffffffffffffffffffffffffffffffff163373ffffffffffffffffffffffffffffffffffffffff1614610865576040517f08c379a00000000000000000000000000000000000000000000000000000000081526004018080602001828103825260148152602001807f73656e64657220776173206e6f74206f776e657200000000000000000000000081525060200191505060405180910390fd5b61086e816108bd565b50565b600080600160405180807f656970313936372e70726f78792e61646d696e000000000000000000000000008152506013019050604051809103902060001c0360001b9050805491505090565b600073ffffffffffffffffffffffffffffffffffffffff168173ffffffffffffffffffffffffffffffffffffffff161415610960576040517f08c379a00000000000000000000000000000000000000000000000000000000081526004018080602001828103825260118152602001807f6f776e65722063616e6e6f74206265203000000000000000000000000000000081525060200191505060405180910390fd5b6000600160405180807f656970313936372e70726f78792e61646d696e000000000000000000000000008152506013019050604051809103902060001c0360001b90508181558173ffffffffffffffffffffffffffffffffffffffff167f50146d0e3c60aa1d17a70635b05494f864e86144a2201275021014fbf08bafe260405160405180910390a2505056fea265627a7a72315820886193872a8b7c9ad71b6a637a5c499e118cfe609e81c5354bf4555396fea19064736f6c634300050d0032a265627a7a723158208b956ebd99c9fb48dfacc08fc37388c78217194ebf995fd9cbe1cbfa5c8294b564736f6c634300050d0032",
  "source": "pragma solidity ^0.5.13;\n\nimport \"./Proxy.sol\";\nimport \"./interfaces/IProxyFactory.sol\";\n\n/**\n * @title Used for deploying Proxy contracts.\n */\ncontract ProxyFactory is IProxyFactory {\n  /**\n   * @notice Deploys a new proxy contract and transfers ownership to the sender\n   * @return Address of the deployed proxy.\n   */\n  function deployProxy() external returns (address) {\n    return deployProxy(msg.sender);\n  }\n\n  /**\n   * @notice Deploys a new proxy contract and transfers ownership to the provided address\n   * @param owner The address to transfer ownership to.\n   * @return Address of the deployed proxy.\n   */\n  function deployProxy(address owner) public returns (address) {\n    Proxy proxy = new Proxy();\n    proxy._transferOwnership(owner);\n    return address(proxy);\n  }\n}\n",
  "sourcePath": "/Users/beaver/Development/temp/celo-monorepo/packages/protocol/contracts/common/ProxyFactory.sol",
  "compiler": {
    "name": "solc",
    "version": "0.5.13+commit.5b0b510c.Emscripten.clang"
  },
  "schemaVersion": "3.4.13",
  "updatedAt": "2025-05-05T17:49:51.128Z",
  "devdoc": {
    "methods": {
      "deployProxy()": {
        "return": "Address of the deployed proxy."
      },
      "deployProxy(address)": {
        "params": {
          "owner": "The address to transfer ownership to."
        },
        "return": "Address of the deployed proxy."
      }
    },
    "title": "Used for deploying Proxy contracts."
  },
  "userdoc": {
    "methods": {
      "deployProxy()": {
        "notice": "Deploys a new proxy contract and transfers ownership to the sender"
      },
      "deployProxy(address)": {
        "notice": "Deploys a new proxy contract and transfers ownership to the provided address"
      }
    }
  }
}