{
  "contractName": "Random",
  "abi": [
    {
      "inputs": [
        {
          "internalType": "bool",
          "name": "test",
          "type": "bool"
        }
      ],
      "payable": false,
      "stateMutability": "nonpayable",
      "type": "constructor"
    },
    {
      "anonymous": false,
      "inputs": [
        {
          "indexed": true,
          "internalType": "address",
          "name": "previousOwner",
          "type": "address"
        },
        {
          "indexed": true,
          "internalType": "address",
          "name": "newOwner",
          "type": "address"
        }
      ],
      "name": "OwnershipTransferred",
      "type": "event"
    },
    {
      "anonymous": false,
      "inputs": [
        {
          "indexed": false,
          "internalType": "uint256",
          "name": "value",
          "type": "uint256"
        }
      ],
      "name": "RandomnessBlockRetentionWindowSet",
      "type": "event"
    },
    {
      "constant": true,
      "inputs": [
        {
          "internalType": "address",
          "name": "sender",
          "type": "address"
        },
        {
          "internalType": "bytes",
          "name": "blsKey",
          "type": "bytes"
        },
        {
          "internalType": "bytes",
          "name": "blsPop",
          "type": "bytes"
        }
      ],
      "name": "checkProofOfPossession",
      "outputs": [
        {
          "internalType": "bool",
          "name": "",
          "type": "bool"
        }
      ],
      "payable": false,
      "stateMutability": "view",
      "type": "function"
    },
    {
      "constant": true,
      "inputs": [
        {
          "internalType": "uint256",
          "name": "aNumerator",
          "type": "uint256"
        },
        {
          "internalType": "uint256",
          "name": "aDenominator",
          "type": "uint256"
        },
        {
          "internalType": "uint256",
          "name": "bNumerator",
          "type": "uint256"
        },
        {
          "internalType": "uint256",
          "name": "bDenominator",
          "type": "uint256"
        },
        {
          "internalType": "uint256",
          "name": "exponent",
          "type": "uint256"
        },
        {
          "internalType": "uint256",
          "name": "_decimals",
          "type": "uint256"
        }
      ],
      "name": "fractionMulExp",
      "outputs": [
        {
          "internalType": "uint256",
          "name": "",
          "type": "uint256"
        },
        {
          "internalType": "uint256",
          "name": "",
          "type": "uint256"
        }
      ],
      "payable": false,
      "stateMutability": "view",
      "type": "function"
    },
    {
      "constant": true,
      "inputs": [
        {
          "internalType": "bytes",
          "name": "header",
          "type": "bytes"
        }
      ],
      "name": "getBlockNumberFromHeader",
      "outputs": [
        {
          "internalType": "uint256",
          "name": "",
          "type": "uint256"
        }
      ],
      "payable": false,
      "stateMutability": "view",
      "type": "function"
    },
    {
      "constant": true,
      "inputs": [],
      "name": "getEpochNumber",
      "outputs": [
        {
          "internalType": "uint256",
          "name": "",
          "type": "uint256"
        }
      ],
      "payable": false,
      "stateMutability": "view",
      "type": "function"
    },
    {
      "constant": true,
      "inputs": [
        {
          "internalType": "uint256",
          "name": "blockNumber",
          "type": "uint256"
        }
      ],
      "name": "getEpochNumberOfBlock",
      "outputs": [
        {
          "internalType": "uint256",
          "name": "",
          "type": "uint256"
        }
      ],
      "payable": false,
      "stateMutability": "view",
      "type": "function"
    },
    {
      "constant": true,
      "inputs": [],
      "name": "getEpochSize",
      "outputs": [
        {
          "internalType": "uint256",
          "name": "",
          "type": "uint256"
        }
      ],
      "payable": false,
      "stateMutability": "view",
      "type": "function"
    },
    {
      "constant": true,
      "inputs": [
        {
          "internalType": "uint256",
          "name": "blockNumber",
          "type": "uint256"
        }
      ],
      "name": "getParentSealBitmap",
      "outputs": [
        {
          "internalType": "bytes32",
          "name": "",
          "type": "bytes32"
        }
      ],
      "payable": false,
      "stateMutability": "view",
      "type": "function"
    },
    {
      "constant": true,
      "inputs": [
        {
          "internalType": "bytes",
          "name": "header",
          "type": "bytes"
        }
      ],
      "name": "getVerifiedSealBitmapFromHeader",
      "outputs": [
        {
          "internalType": "bytes32",
          "name": "",
          "type": "bytes32"
        }
      ],
      "payable": false,
      "stateMutability": "view",
      "type": "function"
    },
    {
      "constant": true,
      "inputs": [
        {
          "internalType": "bytes",
          "name": "header",
          "type": "bytes"
        }
      ],
      "name": "hashHeader",
      "outputs": [
        {
          "internalType": "bytes32",
          "name": "",
          "type": "bytes32"
        }
      ],
      "payable": false,
      "stateMutability": "view",
      "type": "function"
    },
    {
      "constant": true,
      "inputs": [],
      "name": "initialized",
      "outputs": [
        {
          "internalType": "bool",
          "name": "",
          "type": "bool"
        }
      ],
      "payable": false,
      "stateMutability": "view",
      "type": "function"
    },
    {
      "constant": true,
      "inputs": [],
      "name": "isOwner",
      "outputs": [
        {
          "internalType": "bool",
          "name": "",
          "type": "bool"
        }
      ],
      "payable": false,
      "stateMutability": "view",
      "type": "function"
    },
    {
      "constant": true,
      "inputs": [
        {
          "internalType": "uint256",
          "name": "blockNumber",
          "type": "uint256"
        }
      ],
      "name": "minQuorumSize",
      "outputs": [
        {
          "internalType": "uint256",
          "name": "",
          "type": "uint256"
        }
      ],
      "payable": false,
      "stateMutability": "view",
      "type": "function"
    },
    {
      "constant": true,
      "inputs": [],
      "name": "minQuorumSizeInCurrentSet",
      "outputs": [
        {
          "internalType": "uint256",
          "name": "",
          "type": "uint256"
        }
      ],
      "payable": false,
      "stateMutability": "view",
      "type": "function"
    },
    {
      "constant": true,
      "inputs": [],
      "name": "numberValidatorsInCurrentSet",
      "outputs": [
        {
          "internalType": "uint256",
          "name": "",
          "type": "uint256"
        }
      ],
      "payable": false,
      "stateMutability": "view",
      "type": "function"
    },
    {
      "constant": true,
      "inputs": [
        {
          "internalType": "uint256",
          "name": "blockNumber",
          "type": "uint256"
        }
      ],
      "name": "numberValidatorsInSet",
      "outputs": [
        {
          "internalType": "uint256",
          "name": "",
          "type": "uint256"
        }
      ],
      "payable": false,
      "stateMutability": "view",
      "type": "function"
    },
    {
      "constant": true,
      "inputs": [],
      "name": "owner",
      "outputs": [
        {
          "internalType": "address",
          "name": "",
          "type": "address"
        }
      ],
      "payable": false,
      "stateMutability": "view",
      "type": "function"
    },
    {
      "constant": false,
      "inputs": [],
      "name": "renounceOwnership",
      "outputs": [],
      "payable": false,
      "stateMutability": "nonpayable",
      "type": "function"
    },
    {
      "constant": false,
      "inputs": [
        {
          "internalType": "address",
          "name": "newOwner",
          "type": "address"
        }
      ],
      "name": "transferOwnership",
      "outputs": [],
      "payable": false,
      "stateMutability": "nonpayable",
      "type": "function"
    },
    {
      "constant": true,
      "inputs": [
        {
          "internalType": "uint256",
          "name": "index",
          "type": "uint256"
        }
      ],
      "name": "validatorSignerAddressFromCurrentSet",
      "outputs": [
        {
          "internalType": "address",
          "name": "",
          "type": "address"
        }
      ],
      "payable": false,
      "stateMutability": "view",
      "type": "function"
    },
    {
      "constant": true,
      "inputs": [
        {
          "internalType": "uint256",
          "name": "index",
          "type": "uint256"
        },
        {
          "internalType": "uint256",
          "name": "blockNumber",
          "type": "uint256"
        }
      ],
      "name": "validatorSignerAddressFromSet",
      "outputs": [
        {
          "internalType": "address",
          "name": "",
          "type": "address"
        }
      ],
      "payable": false,
      "stateMutability": "view",
      "type": "function"
    },
    {
      "constant": false,
      "inputs": [
        {
          "internalType": "uint256",
          "name": "_randomnessBlockRetentionWindow",
          "type": "uint256"
        }
      ],
      "name": "initialize",
      "outputs": [],
      "payable": false,
      "stateMutability": "nonpayable",
      "type": "function"
    },
    {
      "constant": false,
      "inputs": [
        {
          "internalType": "bytes32",
          "name": "randomness",
          "type": "bytes32"
        },
        {
          "internalType": "bytes32",
          "name": "newCommitment",
          "type": "bytes32"
        },
        {
          "internalType": "address",
          "name": "proposer",
          "type": "address"
        }
      ],
      "name": "revealAndCommit",
      "outputs": [],
      "payable": false,
      "stateMutability": "nonpayable",
      "type": "function"
    },
    {
      "constant": true,
      "inputs": [],
      "name": "random",
      "outputs": [
        {
          "internalType": "bytes32",
          "name": "",
          "type": "bytes32"
        }
      ],
      "payable": false,
      "stateMutability": "view",
      "type": "function"
    },
    {
      "constant": true,
      "inputs": [
        {
          "internalType": "address",
          "name": "addr",
          "type": "address"
        }
      ],
      "name": "commitments",
      "outputs": [
        {
          "internalType": "bytes32",
          "name": "",
          "type": "bytes32"
        }
      ],
      "payable": false,
      "stateMutability": "view",
      "type": "function"
    },
    {
      "constant": true,
      "inputs": [],
      "name": "randomnessBlockRetentionWindow",
      "outputs": [
        {
          "internalType": "uint256",
          "name": "",
          "type": "uint256"
        }
      ],
      "payable": false,
      "stateMutability": "view",
      "type": "function"
    },
    {
      "constant": true,
      "inputs": [
        {
          "internalType": "uint256",
          "name": "blockNumber",
          "type": "uint256"
        }
      ],
      "name": "getBlockRandomness",
      "outputs": [
        {
          "internalType": "bytes32",
          "name": "",
          "type": "bytes32"
        }
      ],
      "payable": false,
      "stateMutability": "view",
      "type": "function"
    },
    {
      "constant": true,
      "inputs": [],
      "name": "getVersionNumber",
      "outputs": [
        {
          "internalType": "uint256",
          "name": "",
          "type": "uint256"
        },
        {
          "internalType": "uint256",
          "name": "",
          "type": "uint256"
        },
        {
          "internalType": "uint256",
          "name": "",
          "type": "uint256"
        },
        {
          "internalType": "uint256",
          "name": "",
          "type": "uint256"
        }
      ],
      "payable": false,
      "stateMutability": "pure",
      "type": "function"
    },
    {
      "constant": false,
      "inputs": [
        {
          "internalType": "uint256",
          "name": "value",
          "type": "uint256"
        }
      ],
      "name": "setRandomnessBlockRetentionWindow",
      "outputs": [],
      "payable": false,
      "stateMutability": "nonpayable",
      "type": "function"
    },
    {
      "constant": true,
      "inputs": [
        {
          "internalType": "bytes32",
          "name": "randomness",
          "type": "bytes32"
        }
      ],
      "name": "computeCommitment",
      "outputs": [
        {
          "internalType": "bytes32",
          "name": "",
          "type": "bytes32"
        }
      ],
      "payable": false,
      "stateMutability": "pure",
      "type": "function"
    }
  ],
  "bytecode": "0x60806040523480156200001157600080fd5b506040516200332438038062003324833981810160405260208110156200003757600080fd5b81019080805190602001909291905050508060006200005b6200012360201b60201c565b9050806000806101000a81548173ffffffffffffffffffffffffffffffffffffffff021916908373ffffffffffffffffffffffffffffffffffffffff1602179055508073ffffffffffffffffffffffffffffffffffffffff16600073ffffffffffffffffffffffffffffffffffffffff167f8be0079c531659141344cd1fd0a4f28419497f9722a3daafe3b4186f6b6457e060405160405180910390a350806200011b576001600060146101000a81548160ff0219169083151502179055505b50506200012b565b600033905090565b6131e9806200013b6000396000f3fe608060405234801561001057600080fd5b50600436106101cf5760003560e01c80638da5cb5b11610104578063e45def95116100a2578063f2fde38b11610071578063f2fde38b14610a91578063fae8db0a14610ad5578063fc48472614610b17578063fe4b84df14610b59576101cf565b8063e45def951461095e578063e50e652d1461097c578063e8fcf723146109be578063ec68307214610a16576101cf565b80639a7b3be7116100de5780639a7b3be71461089e5780639b2b592f146108bc578063c387742b146108fe578063df4da46114610940576101cf565b80638da5cb5b146108045780638f32d59b1461084e57806392e5d98f14610870576101cf565b80635ec01e4d116101715780637385e5da1161014b5780637385e5da146106a157806375832efc146106bf57806387ee8a0f146107175780638a88362614610735576101cf565b80635ec01e4d146105aa57806367960e91146105c8578063715018a614610697576101cf565b80633b1eb4bf116101ad5780633b1eb4bf146103ee5780634b2c2f441461043057806354255be0146104ff5780635d180adb14610532576101cf565b8063123633ea146101d4578063158ef93e1461024257806323f0ab6514610264575b600080fd5b610200600480360360208110156101ea57600080fd5b8101908080359060200190929190505050610b87565b604051808273ffffffffffffffffffffffffffffffffffffffff1673ffffffffffffffffffffffffffffffffffffffff16815260200191505060405180910390f35b61024a610ce0565b604051808215151515815260200191505060405180910390f35b6103d46004803603606081101561027a57600080fd5b81019080803573ffffffffffffffffffffffffffffffffffffffff169060200190929190803590602001906401000000008111156102b757600080fd5b8201836020820111156102c957600080fd5b803590602001918460018302840111640100000000831117156102eb57600080fd5b91908080601f016020809104026020016040519081016040528093929190818152602001838380828437600081840152601f19601f8201169050808301925050505050505091929192908035906020019064010000000081111561034e57600080fd5b82018360208201111561036057600080fd5b8035906020019184600183028401116401000000008311171561038257600080fd5b91908080601f016020809104026020016040519081016040528093929190818152602001838380828437600081840152601f19601f820116905080830192505050505050509192919290505050610cf3565b604051808215151515815260200191505060405180910390f35b61041a6004803603602081101561040457600080fd5b8101908080359060200190929190505050610eb5565b6040518082815260200191505060405180910390f35b6104e96004803603602081101561044657600080fd5b810190808035906020019064010000000081111561046357600080fd5b82018360208201111561047557600080fd5b8035906020019184600183028401116401000000008311171561049757600080fd5b91908080601f016020809104026020016040519081016040528093929190818152602001838380828437600081840152601f19601f820116905080830192505050505050509192919290505050610ed7565b6040518082815260200191505060405180910390f35b610507611073565b6040518085815260200184815260200183815260200182815260200194505050505060405180910390f35b6105686004803603604081101561054857600080fd5b81019080803590602001909291908035906020019092919050505061109a565b604051808273ffffffffffffffffffffffffffffffffffffffff1673ffffffffffffffffffffffffffffffffffffffff16815260200191505060405180910390f35b6105b26111f4565b6040518082815260200191505060405180910390f35b610681600480360360208110156105de57600080fd5b81019080803590602001906401000000008111156105fb57600080fd5b82018360208201111561060d57600080fd5b8035906020019184600183028401116401000000008311171561062f57600080fd5b91908080601f016020809104026020016040519081016040528093929190818152602001838380828437600081840152601f19601f82011690508083019250505050505050919291929050505061120d565b6040518082815260200191505060405180910390f35b61069f6113a9565b005b6106a96114e2565b6040518082815260200191505060405180910390f35b610715600480360360608110156106d557600080fd5b810190808035906020019092919080359060200190929190803573ffffffffffffffffffffffffffffffffffffffff1690602001909291905050506114fa565b005b61071f6115b4565b6040518082815260200191505060405180910390f35b6107ee6004803603602081101561074b57600080fd5b810190808035906020019064010000000081111561076857600080fd5b82018360208201111561077a57600080fd5b8035906020019184600183028401116401000000008311171561079c57600080fd5b91908080601f016020809104026020016040519081016040528093929190818152602001838380828437600081840152601f19601f820116905080830192505050505050509192919290505050611703565b6040518082815260200191505060405180910390f35b61080c61189f565b604051808273ffffffffffffffffffffffffffffffffffffffff1673ffffffffffffffffffffffffffffffffffffffff16815260200191505060405180910390f35b6108566118c8565b604051808215151515815260200191505060405180910390f35b61089c6004803603602081101561088657600080fd5b8101908080359060200190929190505050611926565b005b6108a6611a42565b6040518082815260200191505060405180910390f35b6108e8600480360360208110156108d257600080fd5b8101908080359060200190929190505050611a5a565b6040518082815260200191505060405180910390f35b61092a6004803603602081101561091457600080fd5b8101908080359060200190929190505050611bab565b6040518082815260200191505060405180910390f35b610948611bdb565b6040518082815260200191505060405180910390f35b610966611d32565b6040518082815260200191505060405180910390f35b6109a86004803603602081101561099257600080fd5b8101908080359060200190929190505050611d44565b6040518082815260200191505060405180910390f35b610a00600480360360208110156109d457600080fd5b81019080803573ffffffffffffffffffffffffffffffffffffffff169060200190929190505050611d97565b6040518082815260200191505060405180910390f35b610a74600480360360c0811015610a2c57600080fd5b81019080803590602001909291908035906020019092919080359060200190929190803590602001909291908035906020019092919080359060200190929190505050611de8565b604051808381526020018281526020019250505060405180910390f35b610ad360048036036020811015610aa757600080fd5b81019080803573ffffffffffffffffffffffffffffffffffffffff169060200190929190505050612004565b005b610b0160048036036020811015610aeb57600080fd5b810190808035906020019092919050505061208a565b6040518082815260200191505060405180910390f35b610b4360048036036020811015610b2d57600080fd5b81019080803590602001909291905050506121db565b6040518082815260200191505060405180910390f35b610b8560048036036020811015610b6f57600080fd5b81019080803590602001909291905050506121f6565b005b6000610b916122a9565b6060600060fa73ffffffffffffffffffffffffffffffffffffffff16844360405160200180838152602001828152602001925050506040516020818303038152906040526040518082805190602001908083835b60208310610c085780518252602082019150602081019050602083039250610be5565b6001836020036101000a038019825116818451168082178552505050505050905001915050600060405180830381855afa9150503d8060008114610c68576040519150601f19603f3d011682016040523d82523d6000602084013e610c6d565b606091505b50809350819250505080610ccc576040517f08c379a000000000000000000000000000000000000000000000000000000000815260040180806020018281038252603d815260200180612f5f603d913960400191505060405180910390fd5b610cd7826000612309565b92505050919050565b600060149054906101000a900460ff1681565b6000610cfd6122a9565b600060fb73ffffffffffffffffffffffffffffffffffffffff16858585604051602001808473ffffffffffffffffffffffffffffffffffffffff1673ffffffffffffffffffffffffffffffffffffffff1660601b815260140183805190602001908083835b60208310610d855780518252602082019150602081019050602083039250610d62565b6001836020036101000a03801982511681845116808217855250505050505090500182805190602001908083835b60208310610dd65780518252602082019150602081019050602083039250610db3565b6001836020036101000a03801982511681845116808217855250505050505090500193505050506040516020818303038152906040526040518082805190602001908083835b60208310610e3f5780518252602082019150602081019050602083039250610e1c565b6001836020036101000a038019825116818451168082178552505050505050905001915050600060405180830381855afa9150503d8060008114610e9f576040519150601f19603f3d011682016040523d82523d6000602084013e610ea4565b606091505b505080915050809150509392505050565b6000610ebf6122a9565b610ed082610ecb611bdb565b612320565b9050919050565b6000610ee16122a9565b6060600060f473ffffffffffffffffffffffffffffffffffffffff16846040516020018082805190602001908083835b60208310610f345780518252602082019150602081019050602083039250610f11565b6001836020036101000a0380198251168184511680821785525050505050509050019150506040516020818303038152906040526040518082805190602001908083835b60208310610f9b5780518252602082019150602081019050602083039250610f78565b6001836020036101000a038019825116818451168082178552505050505050905001915050600060405180830381855afa9150503d8060008114610ffb576040519150601f19603f3d011682016040523d82523d6000602084013e611000565b606091505b5080935081925050508061105f576040517f08c379a0000000000000000000000000000000000000000000000000000000008152600401808060200182810382526038815260200180612f276038913960400191505060405180910390fd5b61106a826000612368565b92505050919050565b60008060008060018060026000839350829250819150809050935093509350935090919293565b60006110a46122a9565b6060600060fa73ffffffffffffffffffffffffffffffffffffffff16858560405160200180838152602001828152602001925050506040516020818303038152906040526040518082805190602001908083835b6020831061111b57805182526020820191506020810190506020830392506110f8565b6001836020036101000a038019825116818451168082178552505050505050905001915050600060405180830381855afa9150503d806000811461117b576040519150601f19603f3d011682016040523d82523d6000602084013e611180565b606091505b508093508192505050806111df576040517f08c379a0000000000000000000000000000000000000000000000000000000008152600401808060200182810382526036815260200180612ffa6036913960400191505060405180910390fd5b6111ea826000612309565b9250505092915050565b60006111fe6122a9565b6112084343612409565b905090565b60006112176122a9565b6060600060f673ffffffffffffffffffffffffffffffffffffffff16846040516020018082805190602001908083835b6020831061126a5780518252602082019150602081019050602083039250611247565b6001836020036101000a0380198251168184511680821785525050505050509050019150506040516020818303038152906040526040518082805190602001908083835b602083106112d157805182526020820191506020810190506020830392506112ae565b6001836020036101000a038019825116818451168082178552505050505050905001915050600060405180830381855afa9150503d8060008114611331576040519150601f19603f3d011682016040523d82523d6000602084013e611336565b606091505b50809350819250505080611395576040517f08c379a000000000000000000000000000000000000000000000000000000000815260040180806020018281038252602381526020018061315d6023913960400191505060405180910390fd5b6113a0826000612368565b92505050919050565b6113b16118c8565b611423576040517f08c379a00000000000000000000000000000000000000000000000000000000081526004018080602001828103825260208152602001807f4f776e61626c653a2063616c6c6572206973206e6f7420746865206f776e657281525060200191505060405180910390fd5b600073ffffffffffffffffffffffffffffffffffffffff166000809054906101000a900473ffffffffffffffffffffffffffffffffffffffff1673ffffffffffffffffffffffffffffffffffffffff167f8be0079c531659141344cd1fd0a4f28419497f9722a3daafe3b4186f6b6457e060405160405180910390a360008060006101000a81548173ffffffffffffffffffffffffffffffffffffffff021916908373ffffffffffffffffffffffffffffffffffffffff160217905550565b60006114ec6122a9565b6114f543611d44565b905090565b6115026122a9565b600073ffffffffffffffffffffffffffffffffffffffff163373ffffffffffffffffffffffffffffffffffffffff16146115a4576040517f08c379a00000000000000000000000000000000000000000000000000000000081526004018080602001828103825260108152602001807f4f6e6c7920564d2063616e2063616c6c0000000000000000000000000000000081525060200191505060405180910390fd5b6115af83838361252c565b505050565b60006115be6122a9565b6060600060f973ffffffffffffffffffffffffffffffffffffffff1643604051602001808281526020019150506040516020818303038152906040526040518082805190602001908083835b6020831061162d578051825260208201915060208101905060208303925061160a565b6001836020036101000a038019825116818451168082178552505050505050905001915050600060405180830381855afa9150503d806000811461168d576040519150601f19603f3d011682016040523d82523d6000602084013e611692565b606091505b508093508192505050806116f1576040517f08c379a0000000000000000000000000000000000000000000000000000000008152600401808060200182810382526035815260200180612f9c6035913960400191505060405180910390fd5b6116fc826000612309565b9250505090565b600061170d6122a9565b6060600060f773ffffffffffffffffffffffffffffffffffffffff16846040516020018082805190602001908083835b60208310611760578051825260208201915060208101905060208303925061173d565b6001836020036101000a0380198251168184511680821785525050505050509050019150506040516020818303038152906040526040518082805190602001908083835b602083106117c757805182526020820191506020810190506020830392506117a4565b6001836020036101000a038019825116818451168082178552505050505050905001915050600060405180830381855afa9150503d8060008114611827576040519150601f19603f3d011682016040523d82523d6000602084013e61182c565b606091505b5080935081925050508061188b576040517f08c379a000000000000000000000000000000000000000000000000000000000815260040180806020018281038252603181526020018061312c6031913960400191505060405180910390fd5b611896826000612309565b92505050919050565b60008060009054906101000a900473ffffffffffffffffffffffffffffffffffffffff16905090565b60008060009054906101000a900473ffffffffffffffffffffffffffffffffffffffff1673ffffffffffffffffffffffffffffffffffffffff1661190a61281c565b73ffffffffffffffffffffffffffffffffffffffff1614905090565b61192e6122a9565b6119366118c8565b6119a8576040517f08c379a00000000000000000000000000000000000000000000000000000000081526004018080602001828103825260208152602001807f4f776e61626c653a2063616c6c6572206973206e6f7420746865206f776e657281525060200191505060405180910390fd5b60008111611a01576040517f08c379a000000000000000000000000000000000000000000000000000000000815260040180806020018281038252602c815260200180612ece602c913960400191505060405180910390fd5b806002819055507f337b24e614d34558109f3dee80fbcb3c5a4b08a6611bee45581772f64d1681e5816040518082815260200191505060405180910390a150565b6000611a4c6122a9565b611a5543610eb5565b905090565b6000611a646122a9565b6060600060f973ffffffffffffffffffffffffffffffffffffffff1684604051602001808281526020019150506040516020818303038152906040526040518082805190602001908083835b60208310611ad35780518252602082019150602081019050602083039250611ab0565b6001836020036101000a038019825116818451168082178552505050505050905001915050600060405180830381855afa9150503d8060008114611b33576040519150601f19603f3d011682016040523d82523d6000602084013e611b38565b606091505b50809350819250505080611b97576040517f08c379a000000000000000000000000000000000000000000000000000000000815260040180806020018281038252602e815260200180612e7a602e913960400191505060405180910390fd5b611ba2826000612309565b92505050919050565b60008160405160200180828152602001915050604051602081830303815290604052805190602001209050919050565b6000611be56122a9565b6060600060f873ffffffffffffffffffffffffffffffffffffffff16600160405160200180821515151560f81b81526001019150506040516020818303038152906040526040518082805190602001908083835b60208310611c5c5780518252602082019150602081019050602083039250611c39565b6001836020036101000a038019825116818451168082178552505050505050905001915050600060405180830381855afa9150503d8060008114611cbc576040519150601f19603f3d011682016040523d82523d6000602084013e611cc1565b606091505b50809350819250505080611d20576040517f08c379a00000000000000000000000000000000000000000000000000000000081526004018080602001828103825260258152602001806130a06025913960400191505060405180910390fd5b611d2b826000612309565b9250505090565b6000611d3c6122a9565b600254905090565b6000611d4e6122a9565b611d906003611d826002611d746002611d6688611a5a565b61282490919063ffffffff16565b6128aa90919063ffffffff16565b61293290919063ffffffff16565b9050919050565b6000611da16122a9565b600160008373ffffffffffffffffffffffffffffffffffffffff1673ffffffffffffffffffffffffffffffffffffffff168152602001908152602001600020549050919050565b600080611df36122a9565b60008714158015611e05575060008514155b611e77576040517f08c379a00000000000000000000000000000000000000000000000000000000081526004018080602001828103825260158152602001807f612064656e6f6d696e61746f72206973207a65726f000000000000000000000081525060200191505060405180910390fd5b6000806000606060fc73ffffffffffffffffffffffffffffffffffffffff168c8c8c8c8c8c6040516020018087815260200186815260200185815260200184815260200183815260200182815260200196505050505050506040516020818303038152906040526040518082805190602001908083835b60208310611f115780518252602082019150602081019050602083039250611eee565b6001836020036101000a038019825116818451168082178552505050505050905001915050600060405180830381855afa9150503d8060008114611f71576040519150601f19603f3d011682016040523d82523d6000602084013e611f76565b606091505b50809250819350505081611fd5576040517f08c379a00000000000000000000000000000000000000000000000000000000081526004018080602001828103825260278152602001806130796027913960400191505060405180910390fd5b611fe0816000612309565b9350611fed816020612309565b925083839550955050505050965096945050505050565b61200c6118c8565b61207e576040517f08c379a00000000000000000000000000000000000000000000000000000000081526004018080602001828103825260208152602001807f4f776e61626c653a2063616c6c6572206973206e6f7420746865206f776e657281525060200191505060405180910390fd5b6120878161297c565b50565b60006120946122a9565b6060600060f573ffffffffffffffffffffffffffffffffffffffff1684604051602001808281526020019150506040516020818303038152906040526040518082805190602001908083835b6020831061210357805182526020820191506020810190506020830392506120e0565b6001836020036101000a038019825116818451168082178552505050505050905001915050600060405180830381855afa9150503d8060008114612163576040519150601f19603f3d011682016040523d82523d6000602084013e612168565b606091505b508093508192505050806121c7576040517f08c379a000000000000000000000000000000000000000000000000000000000815260040180806020018281038252602c815260200180613100602c913960400191505060405180910390fd5b6121d2826000612368565b92505050919050565b60006121e56122a9565b6121ef8243612409565b9050919050565b600060149054906101000a900460ff1615612279576040517f08c379a000000000000000000000000000000000000000000000000000000000815260040180806020018281038252601c8152602001807f636f6e747261637420616c726561647920696e697469616c697a65640000000081525060200191505060405180910390fd5b6001600060146101000a81548160ff02191690831515021790555061229d3361297c565b6122a681611926565b50565b6122b1612ac0565b15612307576040517f08c379a0000000000000000000000000000000000000000000000000000000008152600401808060200182810382526029815260200180612fd16029913960400191505060405180910390fd5b565b60006123158383612368565b60001c905092915050565b60008082848161232c57fe5b049050600083858161233a57fe5b06141561234a5780915050612362565b61235e6001826128aa90919063ffffffff16565b9150505b92915050565b600061237e6020836128aa90919063ffffffff16565b835110156123f4576040517f08c379a00000000000000000000000000000000000000000000000000000000081526004018080602001828103825260148152602001807f736c6963696e67206f7574206f662072616e676500000000000000000000000081525060200191505060405180910390fd5b60006020830184015190508091505092915050565b60006124136122a9565b8183111561246c576040517f08c379a00000000000000000000000000000000000000000000000000000000081526004018080602001828103825260288152602001806130516028913960400191505060405180910390fd5b6006548314806124bb575061248c60055483612af190919063ffffffff16565b831180156124ba5750816002541015806124b957506124b660025483612af190919063ffffffff16565b83115b5b5b612510576040517f08c379a00000000000000000000000000000000000000000000000000000000081526004018080602001828103825260358152602001806131806035913960400191505060405180910390fd5b6003600084815260200190815260200160002054905092915050565b6125346122a9565b6125406000801b611bab565b8214156125b5576040517f08c379a000000000000000000000000000000000000000000000000000000000815260040180806020018281038252601d8152602001807f63616e6e6f7420636f6d6d6974207a65726f2072616e646f6d6e65737300000081525060200191505060405180910390fd5b6000801b600160008373ffffffffffffffffffffffffffffffffffffffff1673ffffffffffffffffffffffffffffffffffffffff1681526020019081526020016000205414612704576000801b83141561265a576040517f08c379a000000000000000000000000000000000000000000000000000000000815260040180806020018281038252603b8152602001806130c5603b913960400191505060405180910390fd5b600061266584611bab565b9050600160008373ffffffffffffffffffffffffffffffffffffffff1673ffffffffffffffffffffffffffffffffffffffff1681526020019081526020016000205481146126fe576040517f08c379a000000000000000000000000000000000000000000000000000000000815260040180806020018281038252602d815260200180612efa602d913960400191505060405180910390fd5b50612760565b6000801b831461275f576040517f08c379a000000000000000000000000000000000000000000000000000000000815260040180806020018281038252603c815260200180612e3e603c913960400191505060405180910390fd5b5b60008043146127825761277d600143612af190919063ffffffff16565b612785565b60005b90506127d243600360008481526020019081526020016000205486604051602001808381526020018281526020019250505060405160208183030381529060405280519060200120612b3b565b82600160008473ffffffffffffffffffffffffffffffffffffffff1673ffffffffffffffffffffffffffffffffffffffff1681526020019081526020016000208190555050505050565b600033905090565b60008083141561283757600090506128a4565b600082840290508284828161284857fe5b041461289f576040517f08c379a00000000000000000000000000000000000000000000000000000000081526004018080602001828103825260218152602001806130306021913960400191505060405180910390fd5b809150505b92915050565b600080828401905083811015612928576040517f08c379a000000000000000000000000000000000000000000000000000000000815260040180806020018281038252601b8152602001807f536166654d6174683a206164646974696f6e206f766572666c6f77000000000081525060200191505060405180910390fd5b8091505092915050565b600061297483836040518060400160405280601a81526020017f536166654d6174683a206469766973696f6e206279207a65726f000000000000815250612c93565b905092915050565b600073ffffffffffffffffffffffffffffffffffffffff168173ffffffffffffffffffffffffffffffffffffffff161415612a02576040517f08c379a0000000000000000000000000000000000000000000000000000000008152600401808060200182810382526026815260200180612ea86026913960400191505060405180910390fd5b8073ffffffffffffffffffffffffffffffffffffffff166000809054906101000a900473ffffffffffffffffffffffffffffffffffffffff1673ffffffffffffffffffffffffffffffffffffffff167f8be0079c531659141344cd1fd0a4f28419497f9722a3daafe3b4186f6b6457e060405160405180910390a3806000806101000a81548173ffffffffffffffffffffffffffffffffffffffff021916908373ffffffffffffffffffffffffffffffffffffffff16021790555050565b60008060007342000000000000000000000000000000000000189050803b915060008263ffffffff16119250505090565b6000612b3383836040518060400160405280601e81526020017f536166654d6174683a207375627472616374696f6e206f766572666c6f770000815250612d59565b905092915050565b612b436122a9565b8060036000848152602001908152602001600020819055506000612b65611bdb565b8381612b6d57fe5b061415612ba6576004546006541015612b9a57600360006006548152602001908152602001600020600090555b81600681905550612c8f565b60006005541415612bc557816004819055506001600581905550612c8e565b6002546005541115612c3757612bdc600454612e19565b612bfa612bf560016004546128aa90919063ffffffff16565b612e19565b612c1060026004546128aa90919063ffffffff16565b600481905550612c2c6001600554612af190919063ffffffff16565b600581905550612c8d565b6002546005541415612c6f57612c4e600454612e19565b612c6460016004546128aa90919063ffffffff16565b600481905550612c8c565b612c8560016005546128aa90919063ffffffff16565b6005819055505b5b5b5b5050565b60008083118290612d3f576040517f08c379a00000000000000000000000000000000000000000000000000000000081526004018080602001828103825283818151815260200191508051906020019080838360005b83811015612d04578082015181840152602081019050612ce9565b50505050905090810190601f168015612d315780820380516001836020036101000a031916815260200191505b509250505060405180910390fd5b506000838581612d4b57fe5b049050809150509392505050565b6000838311158290612e06576040517f08c379a00000000000000000000000000000000000000000000000000000000081526004018080602001828103825283818151815260200191508051906020019080838360005b83811015612dcb578082015181840152602081019050612db0565b50505050905090810190601f168015612df85780820380516001836020036101000a031916815260200191505b509250505060405180910390fd5b5060008385039050809150509392505050565b6006548114612e3a5760036000828152602001908152602001600020600090555b5056fe72616e646f6d6e6573732073686f756c64206265207a65726f206966207468657265206973206e6f2070726576696f757320636f6d6d69746d656e746572726f722063616c6c696e67206e756d62657256616c696461746f7273496e53657420707265636f6d70696c654f776e61626c653a206e6577206f776e657220697320746865207a65726f206164647265737372616e646f6d6e657373426c6f636b5265746574696f6e57696e646f772063616e6e6f74206265207a65726f636f6d6d69746d656e74206469646e2774206d617463682074686520706f737465642072616e646f6d6e6573736572726f722063616c6c696e672067657456657269666965645365616c4269746d617046726f6d48656164657220707265636f6d70696c656572726f722063616c6c696e672076616c696461746f725369676e65724164647265737346726f6d43757272656e7453657420707265636f6d70696c656572726f722063616c6c696e67206e756d62657256616c696461746f7273496e43757272656e7453657420707265636f6d70696c6554686973206d6574686f64206973206e6f206c6f6e67657220737570706f7274656420696e204c322e6572726f722063616c6c696e672076616c696461746f725369676e65724164647265737346726f6d53657420707265636f6d70696c65536166654d6174683a206d756c7469706c69636174696f6e206f766572666c6f7743616e6e6f742071756572792072616e646f6d6e657373206f662066757475726520626c6f636b736572726f722063616c6c696e67206672616374696f6e4d756c45787020707265636f6d70696c656572726f722063616c6c696e672067657445706f636853697a6520707265636f6d70696c6572616e646f6d6e6573732063616e6e6f74206265207a65726f20696620746865726520697320612070726576696f757320636f6d6d69746d656e746572726f722063616c6c696e6720676574506172656e745365616c4269746d617020707265636f6d70696c656572726f722063616c6c696e6720676574426c6f636b4e756d62657246726f6d48656164657220707265636f6d70696c656572726f722063616c6c696e67206861736848656164657220707265636f6d70696c6543616e6e6f742071756572792072616e646f6d6e657373206f6c646572207468616e207468652073746f72656420686973746f7279a265627a7a72315820404f3b18ee126a7cf9c1bd5e7fbe4341388e692207d1771641ff75054424b95264736f6c634300050d0032",
  "source": "pragma solidity ^0.5.13;\n\nimport \"./interfaces/IRandom.sol\";\nimport \"openzeppelin-solidity/contracts/math/SafeMath.sol\";\nimport \"openzeppelin-solidity/contracts/ownership/Ownable.sol\";\n\nimport \"../common/CalledByVm.sol\";\nimport \"../common/Initializable.sol\";\nimport \"../common/UsingPrecompiles.sol\";\nimport \"../common/interfaces/ICeloVersionedContract.sol\";\n\n/**\n * @title Provides randomness for verifier selection\n */\ncontract Random is\n  IRandom,\n  ICeloVersionedContract,\n  Ownable,\n  Initializable,\n  UsingPrecompiles,\n  CalledByVm\n{\n  using SafeMath for uint256;\n\n  /* Stores most recent commitment per address */\n  mapping(address => bytes32) private deprecated_commitments;\n\n  uint256 private deprecated_randomnessBlockRetentionWindow;\n\n  mapping(uint256 => bytes32) private history;\n  uint256 private historyFirst;\n  uint256 private historySize;\n  uint256 private lastEpochBlock;\n\n  event RandomnessBlockRetentionWindowSet(uint256 value);\n\n  /**\n   * @notice Sets initialized == true on implementation contracts\n   * @param test Set to true to skip implementation initialization\n   */\n  constructor(bool test) public Initializable(test) {}\n\n  /**\n   * @notice Used in place of the constructor to allow the contract to be upgradable via proxy.\n   * @param _randomnessBlockRetentionWindow Number of old random blocks whose randomness\n   * values can be queried.\n   */\n  function initialize(uint256 _randomnessBlockRetentionWindow) external initializer {\n    _transferOwnership(msg.sender);\n    setRandomnessBlockRetentionWindow(_randomnessBlockRetentionWindow);\n  }\n\n  /**\n   * @notice Implements step of the randomness protocol.\n   * @param randomness Bytes that will be added to the entropy pool.\n   * @param newCommitment The hash of randomness that will be revealed in the future.\n   * @param proposer Address of the block proposer.\n   * @dev If the Random contract is pointed to by the Registry, the first transaction in a block\n   * should be a special transaction to address 0x0 with 64 bytes of data - the concatenated\n   * `randomness` and `newCommitment`. Before running regular transactions, this function should be\n   * called.\n   */\n  function revealAndCommit(\n    bytes32 randomness,\n    bytes32 newCommitment,\n    address proposer\n  ) external onlyL1 onlyVm {\n    _revealAndCommit(randomness, newCommitment, proposer);\n  }\n\n  /**\n   * @notice Querying the current randomness value.\n   * @return Returns the current randomness value.\n   * @dev Only available on L1.\n   */\n  function random() external view onlyL1 returns (bytes32) {\n    return _getBlockRandomness(block.number, block.number);\n  }\n\n  /**\n   * @notice Returns the most recent commitment by a validator.\n   * @param addr Address of the validator.\n   * @return The validator's most recent commitment.\n   * @dev The Random system will be deprecated once Celo becomes an L2.\n   */\n  function commitments(address addr) external view onlyL1 returns (bytes32) {\n    return deprecated_commitments[addr];\n  }\n\n  function randomnessBlockRetentionWindow() external view onlyL1 returns (uint256) {\n    return deprecated_randomnessBlockRetentionWindow;\n  }\n\n  /**\n   * @notice Get randomness values of previous blocks.\n   * @param blockNumber The number of block whose randomness value we want to know.\n   * @return The associated randomness value.\n   * @dev Only available on L1.\n   */\n  function getBlockRandomness(uint256 blockNumber) external view onlyL1 returns (bytes32) {\n    return _getBlockRandomness(blockNumber, block.number);\n  }\n\n  /**\n   * @notice Returns the storage, major, minor, and patch version of the contract.\n   * @return Storage version of the contract.\n   * @return Major version of the contract.\n   * @return Minor version of the contract.\n   * @return Patch version of the contract.\n   */\n  function getVersionNumber() external pure returns (uint256, uint256, uint256, uint256) {\n    return (1, 1, 2, 0);\n  }\n\n  /**\n   * @notice Sets the number of old random blocks whose randomness values can be queried.\n   * @param value Number of old random blocks whose randomness values can be queried.\n   * @dev Only available on L1.\n   */\n  function setRandomnessBlockRetentionWindow(uint256 value) public onlyL1 onlyOwner {\n    require(value > 0, \"randomnessBlockRetetionWindow cannot be zero\");\n    deprecated_randomnessBlockRetentionWindow = value;\n    emit RandomnessBlockRetentionWindowSet(value);\n  }\n\n  /**\n   * @notice Compute the commitment hash for a given randomness value.\n   * @param randomness The value for which the commitment hash is computed.\n   * @return Commitment parameter.\n   */\n  function computeCommitment(bytes32 randomness) public pure returns (bytes32) {\n    return keccak256(abi.encodePacked(randomness));\n  }\n\n  /**\n   * @notice Implements step of the randomness protocol.\n   * @param randomness Bytes that will be added to the entropy pool.\n   * @param newCommitment The hash of randomness that will be revealed in the future.\n   * @param proposer Address of the block proposer.\n   * @dev Only available on L1.\n   */\n  function _revealAndCommit(\n    bytes32 randomness,\n    bytes32 newCommitment,\n    address proposer\n  ) internal onlyL1 {\n    require(newCommitment != computeCommitment(0), \"cannot commit zero randomness\");\n\n    // ensure revealed randomness matches previous commitment\n    if (deprecated_commitments[proposer] != 0) {\n      require(randomness != 0, \"randomness cannot be zero if there is a previous commitment\");\n      bytes32 expectedCommitment = computeCommitment(randomness);\n      require(\n        expectedCommitment == deprecated_commitments[proposer],\n        \"commitment didn't match the posted randomness\"\n      );\n    } else {\n      require(randomness == 0, \"randomness should be zero if there is no previous commitment\");\n    }\n\n    // add entropy\n    uint256 blockNumber = block.number == 0 ? 0 : block.number.sub(1);\n    addRandomness(block.number, keccak256(abi.encodePacked(history[blockNumber], randomness)));\n\n    deprecated_commitments[proposer] = newCommitment;\n  }\n\n  /**\n   * @notice Add a value to the randomness history.\n   * @param blockNumber Current block number.\n   * @param randomness The new randomness added to history.\n   * @dev The calls to this function should be made so that on the next call, blockNumber will\n   * be the previous one, incremented by one.\n   * @dev Only available on L1.\n   */\n  function addRandomness(uint256 blockNumber, bytes32 randomness) internal onlyL1 {\n    history[blockNumber] = randomness;\n    if (blockNumber % getEpochSize() == 0) {\n      if (lastEpochBlock < historyFirst) {\n        delete history[lastEpochBlock];\n      }\n      lastEpochBlock = blockNumber;\n    } else {\n      if (historySize == 0) {\n        historyFirst = blockNumber;\n        historySize = 1;\n      } else if (historySize > deprecated_randomnessBlockRetentionWindow) {\n        deleteHistoryIfNotLastEpochBlock(historyFirst);\n        deleteHistoryIfNotLastEpochBlock(historyFirst.add(1));\n        historyFirst = historyFirst.add(2);\n        historySize = historySize.sub(1);\n      } else if (historySize == deprecated_randomnessBlockRetentionWindow) {\n        deleteHistoryIfNotLastEpochBlock(historyFirst);\n        historyFirst = historyFirst.add(1);\n      } else {\n        // historySize < deprecated_randomnessBlockRetentionWindow\n        historySize = historySize.add(1);\n      }\n    }\n  }\n\n  function deleteHistoryIfNotLastEpochBlock(uint256 blockNumber) internal {\n    if (blockNumber != lastEpochBlock) {\n      delete history[blockNumber];\n    }\n  }\n\n  /**\n   * @notice Get randomness values of previous blocks.\n   * @param blockNumber The number of block whose randomness value we want to know.\n   * @param cur Number of the current block.\n   * @return The associated randomness value.\n   * @dev Only available on L1.\n   */\n  function _getBlockRandomness(\n    uint256 blockNumber,\n    uint256 cur\n  ) internal view onlyL1 returns (bytes32) {\n    require(blockNumber <= cur, \"Cannot query randomness of future blocks\");\n    require(\n      blockNumber == lastEpochBlock ||\n        (blockNumber > cur.sub(historySize) &&\n          (deprecated_randomnessBlockRetentionWindow >= cur ||\n            blockNumber > cur.sub(deprecated_randomnessBlockRetentionWindow))),\n      \"Cannot query randomness older than the stored history\"\n    );\n    return history[blockNumber];\n  }\n}\n",
  "sourcePath": "/Users/beaver/Development/temp/celo-monorepo/packages/protocol/contracts/identity/Random.sol",
  "compiler": {
    "name": "solc",
    "version": "0.5.13+commit.5b0b510c.Emscripten.clang"
  },
  "schemaVersion": "3.4.13",
  "updatedAt": "2025-05-05T17:49:51.511Z",
  "devdoc": {
    "methods": {
      "checkProofOfPossession(address,bytes,bytes)": {
        "details": "This function will be deprecated in L2.",
        "params": {
          "blsKey": "The BLS public key that the validator is using for consensus, should pass proof  of possession. 48 bytes.",
          "blsPop": "The BLS public key proof-of-possession, which consists of a signature on the  account address. 96 bytes.",
          "sender": "The address signed by the BLS key to generate the proof of possession."
        },
        "return": "True upon success."
      },
      "commitments(address)": {
        "details": "The Random system will be deprecated once Celo becomes an L2.",
        "params": {
          "addr": "Address of the validator."
        },
        "return": "The validator's most recent commitment."
      },
      "computeCommitment(bytes32)": {
        "params": {
          "randomness": "The value for which the commitment hash is computed."
        },
        "return": "Commitment parameter."
      },
      "constructor": {
        "params": {
          "test": "Set to true to skip implementation initialization"
        }
      },
      "fractionMulExp(uint256,uint256,uint256,uint256,uint256,uint256)": {
        "details": "This function will be deprecated in L2.",
        "params": {
          "_decimals": "precision",
          "aDenominator": "Denominator of first fraction",
          "aNumerator": "Numerator of first fraction",
          "bDenominator": "Denominator of exponentiated fraction",
          "bNumerator": "Numerator of exponentiated fraction",
          "exponent": "exponent to raise b to"
        },
        "return": "Numerator of the computed quantity (not reduced).Denominator of the computed quantity (not reduced)."
      },
      "getBlockNumberFromHeader(bytes)": {
        "details": "This function will be deprecated in L2.",
        "params": {
          "header": "RLP encoded header"
        },
        "return": "Block number."
      },
      "getBlockRandomness(uint256)": {
        "details": "Only available on L1.",
        "params": {
          "blockNumber": "The number of block whose randomness value we want to know."
        },
        "return": "The associated randomness value."
      },
      "getEpochNumber()": {
        "details": "This function will be deprecated in L2.",
        "return": "Current epoch number."
      },
      "getEpochNumberOfBlock(uint256)": {
        "details": "This function will be deprecated in L2.",
        "params": {
          "blockNumber": "Block number where epoch number is calculated."
        },
        "return": "Epoch number."
      },
      "getEpochSize()": {
        "details": "This function will be deprecated in L2.",
        "return": "The current epoch size in blocks."
      },
      "getParentSealBitmap(uint256)": {
        "details": "This function will be deprecated in L2.",
        "params": {
          "blockNumber": "Block number to retrieve. Must be within 4 epochs of the current number."
        },
        "return": "Bitmap parent seal with set bits at indices corresponding to signing validators."
      },
      "getVerifiedSealBitmapFromHeader(bytes)": {
        "details": "This function will be deprecated in L2.",
        "params": {
          "header": "RLP encoded header"
        },
        "return": "Bitmap parent seal with set bits at indices correspoinding to signing validators."
      },
      "getVersionNumber()": {
        "return": "Storage version of the contract.Major version of the contract.Minor version of the contract.Patch version of the contract."
      },
      "hashHeader(bytes)": {
        "details": "This function will be deprecated in L2.",
        "params": {
          "header": "RLP encoded header"
        },
        "return": "Header hash."
      },
      "initialize(uint256)": {
        "params": {
          "_randomnessBlockRetentionWindow": "Number of old random blocks whose randomness values can be queried."
        }
      },
      "isOwner()": {
        "details": "Returns true if the caller is the current owner."
      },
      "minQuorumSize(uint256)": {
        "details": "Computed in celo-blockchain as int(math.Ceil(float64(2*valSet.Size()) / 3))This function will be deprecated in L2."
      },
      "minQuorumSizeInCurrentSet()": {
        "details": "This function will be deprecated in L2.",
        "return": "Byzantine quorum of validators."
      },
      "numberValidatorsInCurrentSet()": {
        "details": "This function will be deprecated in L2.",
        "return": "Size of the current elected validator set."
      },
      "numberValidatorsInSet(uint256)": {
        "details": "This function will be deprecated in L2.",
        "params": {
          "blockNumber": "Block number to retrieve the validator set from."
        },
        "return": "Size of the validator set."
      },
      "owner()": {
        "details": "Returns the address of the current owner."
      },
      "random()": {
        "details": "Only available on L1.",
        "return": "Returns the current randomness value."
      },
      "renounceOwnership()": {
        "details": "Leaves the contract without owner. It will not be possible to call `onlyOwner` functions anymore. Can only be called by the current owner.     * NOTE: Renouncing ownership will leave the contract without an owner, thereby removing any functionality that is only available to the owner."
      },
      "revealAndCommit(bytes32,bytes32,address)": {
        "details": "If the Random contract is pointed to by the Registry, the first transaction in a block should be a special transaction to address 0x0 with 64 bytes of data - the concatenated `randomness` and `newCommitment`. Before running regular transactions, this function should be called.",
        "params": {
          "newCommitment": "The hash of randomness that will be revealed in the future.",
          "proposer": "Address of the block proposer.",
          "randomness": "Bytes that will be added to the entropy pool."
        }
      },
      "setRandomnessBlockRetentionWindow(uint256)": {
        "details": "Only available on L1.",
        "params": {
          "value": "Number of old random blocks whose randomness values can be queried."
        }
      },
      "transferOwnership(address)": {
        "details": "Transfers ownership of the contract to a new account (`newOwner`). Can only be called by the current owner."
      },
      "validatorSignerAddressFromCurrentSet(uint256)": {
        "details": "This function will be deprecated in L2.",
        "params": {
          "index": "Index of requested validator in the validator set."
        },
        "return": "Address of validator signer at the requested index."
      },
      "validatorSignerAddressFromSet(uint256,uint256)": {
        "details": "This function will be deprecated in L2.",
        "params": {
          "blockNumber": "Block number to retrieve the validator set from.",
          "index": "Index of requested validator in the validator set."
        },
        "return": "Address of validator signer at the requested index."
      }
    },
    "title": "Provides randomness for verifier selection"
  },
  "userdoc": {
    "methods": {
      "checkProofOfPossession(address,bytes,bytes)": {
        "notice": "Checks a BLS proof of possession."
      },
      "commitments(address)": {
        "notice": "Returns the most recent commitment by a validator."
      },
      "computeCommitment(bytes32)": {
        "notice": "Compute the commitment hash for a given randomness value."
      },
      "constructor": "Sets initialized == true on implementation contracts",
      "fractionMulExp(uint256,uint256,uint256,uint256,uint256,uint256)": {
        "notice": "calculate a * b^x for fractions a, b to `decimals` precision"
      },
      "getBlockNumberFromHeader(bytes)": {
        "notice": "Parses block number out of header."
      },
      "getBlockRandomness(uint256)": {
        "notice": "Get randomness values of previous blocks."
      },
      "getEpochNumber()": {
        "notice": "Returns the epoch number at a block."
      },
      "getEpochNumberOfBlock(uint256)": {
        "notice": "Returns the epoch number at a block."
      },
      "getEpochSize()": {
        "notice": "Returns the current epoch size in blocks."
      },
      "getParentSealBitmap(uint256)": {
        "notice": "Gets the parent seal bitmap from the header at the given block number."
      },
      "getVerifiedSealBitmapFromHeader(bytes)": {
        "notice": "Verifies the BLS signature on the header and returns the seal bitmap. The validator set used for verification is retrieved based on the parent hash field of the header.  If the parent hash is not in the blockchain, verification fails."
      },
      "getVersionNumber()": {
        "notice": "Returns the storage, major, minor, and patch version of the contract."
      },
      "hashHeader(bytes)": {
        "notice": "Computes hash of header."
      },
      "initialize(uint256)": {
        "notice": "Used in place of the constructor to allow the contract to be upgradable via proxy."
      },
      "minQuorumSize(uint256)": {
        "notice": "Returns the minimum number of required signers for a given block number."
      },
      "minQuorumSizeInCurrentSet()": {
        "notice": "Computes byzantine quorum from current validator set size"
      },
      "numberValidatorsInCurrentSet()": {
        "notice": "Gets the size of the current elected validator set."
      },
      "numberValidatorsInSet(uint256)": {
        "notice": "Gets the size of the validator set that must sign the given block number."
      },
      "random()": {
        "notice": "Querying the current randomness value."
      },
      "revealAndCommit(bytes32,bytes32,address)": {
        "notice": "Implements step of the randomness protocol."
      },
      "setRandomnessBlockRetentionWindow(uint256)": {
        "notice": "Sets the number of old random blocks whose randomness values can be queried."
      },
      "validatorSignerAddressFromCurrentSet(uint256)": {
        "notice": "Gets a validator signer address from the current validator set."
      },
      "validatorSignerAddressFromSet(uint256,uint256)": {
        "notice": "Gets a validator signer address from the validator set at the given block number."
      }
    }
  }
}