{
  "contractName": "UsingRegistryV2BackwardsCompatible",
  "abi": [
    {
      "constant": true,
      "inputs": [],
      "name": "registry",
      "outputs": [
        {
          "internalType": "contract IRegistry",
          "name": "",
          "type": "address"
        }
      ],
      "payable": false,
      "stateMutability": "view",
      "type": "function"
    },
    {
      "constant": true,
      "inputs": [],
      "name": "registryContract",
      "outputs": [
        {
          "internalType": "contract IRegistry",
          "name": "",
          "type": "address"
        }
      ],
      "payable": false,
      "stateMutability": "view",
      "type": "function"
    }
  ],
  "bytecode": "0x608060405234801561001057600080fd5b50610127806100206000396000f3fe6080604052348015600f57600080fd5b506004361060325760003560e01c806328c1f99b1460375780637b10399914607f575b600080fd5b603d60c7565b604051808273ffffffffffffffffffffffffffffffffffffffff1673ffffffffffffffffffffffffffffffffffffffff16815260200191505060405180910390f35b608560cd565b604051808273ffffffffffffffffffffffffffffffffffffffff1673ffffffffffffffffffffffffffffffffffffffff16815260200191505060405180910390f35b61ce1081565b6000809054906101000a900473ffffffffffffffffffffffffffffffffffffffff168156fea265627a7a7231582073aa1437ebf396db828faacbabe129e82aaa06ce8257b648d7f359d713f5ad4864736f6c634300050d0032",
  "source": "pragma solidity ^0.5.13;\n\nimport \"./UsingRegistryV2.sol\";\n\ncontract UsingRegistryV2BackwardsCompatible is UsingRegistryV2 {\n  // Placeholder for registry storage var in UsingRegistry and cannot be renamed\n  // without breaking release tooling.\n  // Use `registryContract` (in UsingRegistryV2) for the actual registry address.\n  IRegistry public registry;\n}\n",
  "sourcePath": "/Users/beaver/Development/temp/celo-monorepo/packages/protocol/contracts/common/UsingRegistryV2BackwardsCompatible.sol",
  "compiler": {
    "name": "solc",
    "version": "0.5.13+commit.5b0b510c.Emscripten.clang"
  },
  "schemaVersion": "3.4.13",
  "updatedAt": "2025-05-05T17:49:51.149Z",
  "devdoc": {
    "methods": {}
  },
  "userdoc": {
    "methods": {}
  }
}