{
  "contractName": "AddressLinkedList",
  "abi": [
    {
      "inputs": [
        {
          "internalType": "address",
          "name": "a",
          "type": "address"
        }
      ],
      "name": "toBytes",
      "outputs": [
        {
          "internalType": "bytes32",
          "name": "",
          "type": "bytes32"
        }
      ],
      "stateMutability": "pure",
      "type": "function"
    },
    {
      "inputs": [
        {
          "internalType": "bytes32",
          "name": "b",
          "type": "bytes32"
        }
      ],
      "name": "toAddress",
      "outputs": [
        {
          "internalType": "address",
          "name": "",
          "type": "address"
        }
      ],
      "stateMutability": "pure",
      "type": "function"
    }
  ],
  "bytecode": "0x610bba61003a600b82828239805160001a60731461002d57634e487b7160e01b600052600060045260246000fd5b30600052607381538281f3fe730000000000000000000000000000000000000000301460806040526004361061009d5760003560e01c8063593b79fe11610070578063593b79fe14610138578063b1cfea4314610159578063b2f8fe9614610179578063e2c0c56a14610199578063fe3c7a8e146101b957600080fd5b806307debf7c146100a257806326afac49146100c4578063341f6623146100e4578063542424fb14610115575b600080fd5b8180156100ae57600080fd5b506100c26100bd3660046109b9565b6101cc565b005b8180156100d057600080fd5b506100c26100df366004610a06565b6101f9565b6100f86100f2366004610a32565b60601c90565b6040516001600160a01b0390911681526020015b60405180910390f35b610128610123366004610a06565b610219565b604051901515815260200161010c565b61014b610146366004610a4b565b61024a565b60405190815260200161010c565b61016c610167366004610a66565b61025f565b60405161010c9190610a88565b81801561018557600080fd5b506100c26101943660046109b9565b610329565b8180156101a557600080fd5b506100c26101b4366004610a06565b610350565b61016c6101c7366004610a32565b610363565b6101f36101d88461024a565b6101e18461024a565b6101ea8461024a565b87929190610373565b50505050565b6102156102058261024a565b6001840154849190600090610373565b5050565b600082600301600061022a8461024a565b815260208101919091526040016000206002015460ff1690505b92915050565b60601b6bffffffffffffffffffffffff191690565b6060600061026d84846106ef565b905060008367ffffffffffffffff81111561028a5761028a610ad5565b6040519080825280602002602001820160405280156102b3578160200160208202803683370190505b50905060005b84811015610320576102e48382815181106102d6576102d6610aeb565b602002602001015160601c90565b8282815181106102f6576102f6610aeb565b6001600160a01b03909216602092830291909101909101526103198160016107e0565b90506102b9565b50949350505050565b6101f36103358461024a565b61033e8461024a565b6103478461024a565b879291906107f3565b61021561035c8261024a565b8390610880565b606061024482836002015461025f565b826103bb5760405162461bcd60e51b815260206004820152601360248201527212d95e481b5d5cdd081899481919599a5b9959606a1b60448201526064015b60405180910390fd5b600083815260038501602052604090206002015460ff161561041f5760405162461bcd60e51b815260206004820181905260248201527f43616e277420696e7365727420616e206578697374696e6720656c656d656e7460448201526064016103b2565b82821415801561042f5750828114155b6104945760405162461bcd60e51b815260206004820152603060248201527f4b65792063616e6e6f74206265207468652073616d652061732070726576696f60448201526f75734b6579206f72206e6578744b657960801b60648201526084016103b2565b600083815260038501602052604081206002808201805460ff191660011790558601549091036104cd57600185018490558385556106d0565b821515806104da57508115155b61053c5760405162461bcd60e51b815260206004820152602d60248201527f4569746865722070726576696f75734b6579206f72206e6578744b6579206d7560448201526c1cdd081899481919599a5b9959609a1b60648201526084016103b2565b82815560018101829055821561060a57600083815260038601602052604090206002015460ff166105cc5760405162461bcd60e51b815260206004820152603460248201527f49662070726576696f75734b657920697320646566696e65642c206974206d756044820152731cdd08195e1a5cdd081a5b881d1a19481b1a5cdd60621b60648201526084016103b2565b60008381526003860160205260409020600181015483146105ff5760405162461bcd60e51b81526004016103b290610b01565b600101849055610612565b600185018490555b81156106cc57600082815260038601602052604090206002015460ff166106945760405162461bcd60e51b815260206004820152603060248201527f4966206e6578744b657920697320646566696e65642c206974206d757374206560448201526f1e1a5cdd081a5b881d1a19481b1a5cdd60821b60648201526084016103b2565b60008281526003860160205260409020805484146106c45760405162461bcd60e51b81526004016103b290610b01565b8490556106d0565b8385555b60028501546106e09060016107e0565b85600201819055505050505050565b6060826002015482111561073b5760405162461bcd60e51b81526020600482015260136024820152726e6f7420656e6f75676820656c656d656e747360681b60448201526064016103b2565b60008267ffffffffffffffff81111561075657610756610ad5565b60405190808252806020026020018201604052801561077f578160200160208202803683370190505b50845490915060005b848110156107d657818382815181106107a3576107a3610aeb565b6020908102919091018101919091526000928352600387019052604090912054906107cf8160016107e0565b9050610788565b5090949350505050565b60006107ec8284610b5e565b9392505050565b82158015906108025750818314155b801561080e5750808314155b801561082d5750600083815260038501602052604090206002015460ff165b61086a5760405162461bcd60e51b815260206004820152600e60248201526d1ad95e481bdb881a5b881b1a5cdd60921b60448201526064016103b2565b6108748484610880565b6101f384848484610373565b6000818152600383016020526040902081158015906108b25750600082815260038401602052604090206002015460ff165b6108f05760405162461bcd60e51b815260206004820152600f60248201526e1ad95e481b9bdd081a5b881b1a5cdd608a1b60448201526064016103b2565b80541561091757805460009081526003840160205260409020600180830154910155610922565b600180820154908401555b60018101541561094a576001810154600090815260038401602052604090208154905561094f565b805483555b600082815260038401602052604081208181556001808201929092556002908101805460ff1916905584015461098491610991565b8360020181905550505050565b60006107ec8284610b71565b80356001600160a01b03811681146109b457600080fd5b919050565b600080600080608085870312156109cf57600080fd5b843593506109df6020860161099d565b92506109ed6040860161099d565b91506109fb6060860161099d565b905092959194509250565b60008060408385031215610a1957600080fd5b82359150610a296020840161099d565b90509250929050565b600060208284031215610a4457600080fd5b5035919050565b600060208284031215610a5d57600080fd5b6107ec8261099d565b60008060408385031215610a7957600080fd5b50508035926020909101359150565b6020808252825182820181905260009190848201906040850190845b81811015610ac95783516001600160a01b031683529284019291840191600101610aa4565b50909695505050505050565b634e487b7160e01b600052604160045260246000fd5b634e487b7160e01b600052603260045260246000fd5b60208082526027908201527f70726576696f75734b6579206d7573742062652061646a6163656e7420746f206040820152666e6578744b657960c81b606082015260800190565b634e487b7160e01b600052601160045260246000fd5b8082018082111561024457610244610b48565b8181038181111561024457610244610b4856fea26469706673582212208155efc00661b742ba6fd8e26dcd9aeabe5628ad5c48f5356dbf7f60fd00f8fd64736f6c63430008130033",
  "immutableReferences": {},
  "source": "// SPDX-License-Identifier: LGPL-3.0-only\npragma solidity >=0.8.0 <0.8.20;\n\nimport \"@openzeppelin/contracts8/utils/math/SafeMath.sol\";\n\nimport \"./LinkedList.sol\";\n\n/**\n * @title Maintains a doubly linked list keyed by address.\n * @dev Following the `next` pointers will lead you to the head, rather than the tail.\n */\nlibrary AddressLinkedList {\n  using LinkedList for LinkedList.List;\n  using SafeMath for uint256;\n  /**\n   * @notice Inserts an element into a doubly linked list.\n   * @param list A storage pointer to the underlying list.\n   * @param key The key of the element to insert.\n   * @param previousKey The key of the element that comes before the element to insert.\n   * @param nextKey The key of the element that comes after the element to insert.\n   */\n  function insert(\n    LinkedList.List storage list,\n    address key,\n    address previousKey,\n    address nextKey\n  ) public {\n    list.insert(toBytes(key), toBytes(previousKey), toBytes(nextKey));\n  }\n\n  /**\n   * @notice Inserts an element at the end of the doubly linked list.\n   * @param list A storage pointer to the underlying list.\n   * @param key The key of the element to insert.\n   */\n  function push(LinkedList.List storage list, address key) public {\n    list.insert(toBytes(key), bytes32(0), list.tail);\n  }\n\n  /**\n   * @notice Removes an element from the doubly linked list.\n   * @param list A storage pointer to the underlying list.\n   * @param key The key of the element to remove.\n   */\n  function remove(LinkedList.List storage list, address key) public {\n    list.remove(toBytes(key));\n  }\n\n  /**\n   * @notice Updates an element in the list.\n   * @param list A storage pointer to the underlying list.\n   * @param key The element key.\n   * @param previousKey The key of the element that comes before the updated element.\n   * @param nextKey The key of the element that comes after the updated element.\n   */\n  function update(\n    LinkedList.List storage list,\n    address key,\n    address previousKey,\n    address nextKey\n  ) public {\n    list.update(toBytes(key), toBytes(previousKey), toBytes(nextKey));\n  }\n\n  /**\n   * @notice Returns whether or not a particular key is present in the sorted list.\n   * @param list A storage pointer to the underlying list.\n   * @param key The element key.\n   * @return Whether or not the key is in the sorted list.\n   */\n  function contains(LinkedList.List storage list, address key) public view returns (bool) {\n    return list.elements[toBytes(key)].exists;\n  }\n\n  /**\n   * @notice Returns the N greatest elements of the list.\n   * @param list A storage pointer to the underlying list.\n   * @param n The number of elements to return.\n   * @return The keys of the greatest elements.\n   * @dev Reverts if n is greater than the number of elements in the list.\n   */\n  function headN(LinkedList.List storage list, uint256 n) public view returns (address[] memory) {\n    bytes32[] memory byteKeys = list.headN(n);\n    address[] memory keys = new address[](n);\n    for (uint256 i = 0; i < n; i = i.add(1)) {\n      keys[i] = toAddress(byteKeys[i]);\n    }\n    return keys;\n  }\n\n  /**\n   * @notice Gets all element keys from the doubly linked list.\n   * @param list A storage pointer to the underlying list.\n   * @return All element keys from head to tail.\n   */\n  function getKeys(LinkedList.List storage list) public view returns (address[] memory) {\n    return headN(list, list.numElements);\n  }\n\n  function toBytes(address a) public pure returns (bytes32) {\n    return bytes32(uint256(uint160(a)) << 96);\n  }\n\n  function toAddress(bytes32 b) public pure returns (address) {\n    return address(uint160(uint256(b) >> 96));\n  }\n}\n",
  "sourcePath": "/Users/beaver/Development/temp/celo-monorepo/packages/protocol/contracts-0.8/common/linkedlists/AddressLinkedList.sol",
  "compiler": {
    "name": "solc",
    "version": "0.8.19+commit.7dd6d404.Emscripten.clang"
  },
  "schemaVersion": "3.4.13",
  "updatedAt": "2025-05-05T17:49:34.166Z",
  "devdoc": {
    "details": "Following the `next` pointers will lead you to the head, rather than the tail.",
    "kind": "dev",
    "methods": {
      "contains(LinkedList.List storage,address)": {
        "params": {
          "key": "The element key.",
          "list": "A storage pointer to the underlying list."
        },
        "returns": {
          "_0": "Whether or not the key is in the sorted list."
        }
      },
      "getKeys(LinkedList.List storage)": {
        "params": {
          "list": "A storage pointer to the underlying list."
        },
        "returns": {
          "_0": "All element keys from head to tail."
        }
      },
      "headN(LinkedList.List storage,uint256)": {
        "details": "Reverts if n is greater than the number of elements in the list.",
        "params": {
          "list": "A storage pointer to the underlying list.",
          "n": "The number of elements to return."
        },
        "returns": {
          "_0": "The keys of the greatest elements."
        }
      },
      "insert(LinkedList.List storage,address,address,address)": {
        "params": {
          "key": "The key of the element to insert.",
          "list": "A storage pointer to the underlying list.",
          "nextKey": "The key of the element that comes after the element to insert.",
          "previousKey": "The key of the element that comes before the element to insert."
        }
      },
      "push(LinkedList.List storage,address)": {
        "params": {
          "key": "The key of the element to insert.",
          "list": "A storage pointer to the underlying list."
        }
      },
      "remove(LinkedList.List storage,address)": {
        "params": {
          "key": "The key of the element to remove.",
          "list": "A storage pointer to the underlying list."
        }
      },
      "update(LinkedList.List storage,address,address,address)": {
        "params": {
          "key": "The element key.",
          "list": "A storage pointer to the underlying list.",
          "nextKey": "The key of the element that comes after the updated element.",
          "previousKey": "The key of the element that comes before the updated element."
        }
      }
    },
    "title": "Maintains a doubly linked list keyed by address.",
    "version": 1
  },
  "userdoc": {
    "kind": "user",
    "methods": {
      "contains(LinkedList.List storage,address)": {
        "notice": "Returns whether or not a particular key is present in the sorted list."
      },
      "getKeys(LinkedList.List storage)": {
        "notice": "Gets all element keys from the doubly linked list."
      },
      "headN(LinkedList.List storage,uint256)": {
        "notice": "Returns the N greatest elements of the list."
      },
      "insert(LinkedList.List storage,address,address,address)": {
        "notice": "Inserts an element into a doubly linked list."
      },
      "push(LinkedList.List storage,address)": {
        "notice": "Inserts an element at the end of the doubly linked list."
      },
      "remove(LinkedList.List storage,address)": {
        "notice": "Removes an element from the doubly linked list."
      },
      "update(LinkedList.List storage,address,address,address)": {
        "notice": "Updates an element in the list."
      }
    },
    "version": 1
  }
}