{
  "contractName": "CeloUnreleasedTreasury",
  "abi": [
    {
      "inputs": [
        {
          "internalType": "bool",
          "name": "test",
          "type": "bool"
        }
      ],
      "stateMutability": "nonpayable",
      "type": "constructor"
    },
    {
      "anonymous": false,
      "inputs": [
        {
          "indexed": true,
          "internalType": "address",
          "name": "previousOwner",
          "type": "address"
        },
        {
          "indexed": true,
          "internalType": "address",
          "name": "newOwner",
          "type": "address"
        }
      ],
      "name": "OwnershipTransferred",
      "type": "event"
    },
    {
      "anonymous": false,
      "inputs": [
        {
          "indexed": true,
          "internalType": "address",
          "name": "registryAddress",
          "type": "address"
        }
      ],
      "name": "RegistrySet",
      "type": "event"
    },
    {
      "anonymous": false,
      "inputs": [
        {
          "indexed": true,
          "internalType": "address",
          "name": "to",
          "type": "address"
        },
        {
          "indexed": false,
          "internalType": "uint256",
          "name": "amount",
          "type": "uint256"
        }
      ],
      "name": "Released",
      "type": "event"
    },
    {
      "inputs": [],
      "name": "initialized",
      "outputs": [
        {
          "internalType": "bool",
          "name": "",
          "type": "bool"
        }
      ],
      "stateMutability": "view",
      "type": "function"
    },
    {
      "inputs": [],
      "name": "owner",
      "outputs": [
        {
          "internalType": "address",
          "name": "",
          "type": "address"
        }
      ],
      "stateMutability": "view",
      "type": "function"
    },
    {
      "inputs": [],
      "name": "registry",
      "outputs": [
        {
          "internalType": "contract IRegistry",
          "name": "",
          "type": "address"
        }
      ],
      "stateMutability": "view",
      "type": "function"
    },
    {
      "inputs": [],
      "name": "renounceOwnership",
      "outputs": [],
      "stateMutability": "nonpayable",
      "type": "function"
    },
    {
      "inputs": [
        {
          "internalType": "address",
          "name": "registryAddress",
          "type": "address"
        }
      ],
      "name": "setRegistry",
      "outputs": [],
      "stateMutability": "nonpayable",
      "type": "function"
    },
    {
      "inputs": [
        {
          "internalType": "address",
          "name": "newOwner",
          "type": "address"
        }
      ],
      "name": "transferOwnership",
      "outputs": [],
      "stateMutability": "nonpayable",
      "type": "function"
    },
    {
      "inputs": [
        {
          "internalType": "address",
          "name": "registryAddress",
          "type": "address"
        }
      ],
      "name": "initialize",
      "outputs": [],
      "stateMutability": "nonpayable",
      "type": "function"
    },
    {
      "inputs": [
        {
          "internalType": "address",
          "name": "to",
          "type": "address"
        },
        {
          "internalType": "uint256",
          "name": "amount",
          "type": "uint256"
        }
      ],
      "name": "release",
      "outputs": [],
      "stateMutability": "nonpayable",
      "type": "function"
    },
    {
      "inputs": [],
      "name": "getRemainingBalanceToRelease",
      "outputs": [
        {
          "internalType": "uint256",
          "name": "",
          "type": "uint256"
        }
      ],
      "stateMutability": "view",
      "type": "function"
    },
    {
      "inputs": [],
      "name": "getVersionNumber",
      "outputs": [
        {
          "internalType": "uint256",
          "name": "",
          "type": "uint256"
        },
        {
          "internalType": "uint256",
          "name": "",
          "type": "uint256"
        },
        {
          "internalType": "uint256",
          "name": "",
          "type": "uint256"
        },
        {
          "internalType": "uint256",
          "name": "",
          "type": "uint256"
        }
      ],
      "stateMutability": "pure",
      "type": "function"
    }
  ],
  "bytecode": "0x608060405234801561001057600080fd5b5060405161094138038061094183398101604081905261002f916100a8565b8061003933610058565b600160025580610051576003805460ff191660011790555b50506100d1565b600080546001600160a01b038381166001600160a01b0319831681178455604051919092169283917f8be0079c531659141344cd1fd0a4f28419497f9722a3daafe3b4186f6b6457e09190a35050565b6000602082840312156100ba57600080fd5b815180151581146100ca57600080fd5b9392505050565b610861806100e06000396000f3fe608060405234801561001057600080fd5b506004361061009e5760003560e01c80638da5cb5b116100665780638da5cb5b14610133578063a91ee0dc14610144578063c4d66de814610157578063c791630f1461016a578063f2fde38b1461018057600080fd5b80630357371d146100a3578063158ef93e146100b857806354255be0146100da578063715018a6146101005780637b10399914610108575b600080fd5b6100b66100b1366004610775565b610193565b005b6003546100c59060ff1681565b60405190151581526020015b60405180910390f35b6001806000806040805194855260208501939093529183015260608201526080016100d1565b6100b6610449565b60015461011b906001600160a01b031681565b6040516001600160a01b0390911681526020016100d1565b6000546001600160a01b031661011b565b6100b66101523660046107a1565b61045d565b6100b66101653660046107a1565b610505565b61017261057a565b6040519081526020016100d1565b6100b661018e3660046107a1565b610598565b6001546040516b22b837b1b426b0b730b3b2b960a11b60208201526001600160a01b039091169063dcf0aaed90602c01604051602081830303815290604052805190602001206040518263ffffffff1660e01b81526004016101f791815260200190565b602060405180830381865afa158015610214573d6000803e3d6000fd5b505050506040513d601f19601f8201168201806040525081019061023891906107c5565b6001600160a01b0316336001600160a01b0316146102bc5760405162461bcd60e51b815260206004820152603660248201527f4f6e6c79207468652045706f63684d616e6167657220636f6e7472616374206360448201527530b71031b0b636103a3434b990333ab731ba34b7b71760511b60648201526084015b60405180910390fd5b600354610100900460ff166102df57476004556003805461ff0019166101001790555b8060045410156103295760405162461bcd60e51b815260206004820152601560248201527424b739bab33334b1b4b2b73a103130b630b731b29760591b60448201526064016102b3565b806004600082825461033b91906107e2565b90915550610349905061060e565b60405163a9059cbb60e01b81526001600160a01b03848116600483015260248201849052919091169063a9059cbb906044016020604051808303816000875af115801561039a573d6000803e3d6000fd5b505050506040513d601f19601f820116820180604052508101906103be9190610809565b6104025760405162461bcd60e51b815260206004820152601560248201527421a2a627903a3930b739b332b9103330b4b632b21760591b60448201526064016102b3565b816001600160a01b03167fb21fb52d5749b80f3182f8c6992236b5e5576681880914484d7f4c9b062e619e8260405161043d91815260200190565b60405180910390a25050565b6104516106b6565b61045b6000610710565b565b6104656106b6565b6001600160a01b0381166104bb5760405162461bcd60e51b815260206004820181905260248201527f43616e6e6f7420726567697374657220746865206e756c6c206164647265737360448201526064016102b3565b600180546001600160a01b0319166001600160a01b0383169081179091556040517f27fe5f0c1c3b1ed427cc63d0f05759ffdecf9aec9e18d31ef366fc8a6cb5dc3b90600090a250565b60035460ff16156105585760405162461bcd60e51b815260206004820152601c60248201527f636f6e747261637420616c726561647920696e697469616c697a65640000000060448201526064016102b3565b6003805460ff1916600117905561056e33610710565b6105778161045d565b50565b600354600090610100900460ff1661059157504790565b5060045490565b6105a06106b6565b6001600160a01b0381166106055760405162461bcd60e51b815260206004820152602660248201527f4f776e61626c653a206e6577206f776e657220697320746865207a65726f206160448201526564647265737360d01b60648201526084016102b3565b61057781610710565b6001546040516821b2b637aa37b5b2b760b91b60208201526000916001600160a01b03169063dcf0aaed90602901604051602081830303815290604052805190602001206040518263ffffffff1660e01b815260040161067091815260200190565b602060405180830381865afa15801561068d573d6000803e3d6000fd5b505050506040513d601f19601f820116820180604052508101906106b191906107c5565b905090565b6000546001600160a01b0316331461045b5760405162461bcd60e51b815260206004820181905260248201527f4f776e61626c653a2063616c6c6572206973206e6f7420746865206f776e657260448201526064016102b3565b600080546001600160a01b038381166001600160a01b0319831681178455604051919092169283917f8be0079c531659141344cd1fd0a4f28419497f9722a3daafe3b4186f6b6457e09190a35050565b6001600160a01b038116811461057757600080fd5b6000806040838503121561078857600080fd5b823561079381610760565b946020939093013593505050565b6000602082840312156107b357600080fd5b81356107be81610760565b9392505050565b6000602082840312156107d757600080fd5b81516107be81610760565b8181038181111561080357634e487b7160e01b600052601160045260246000fd5b92915050565b60006020828403121561081b57600080fd5b815180151581146107be57600080fdfea2646970667358221220876aaf22f4401ed7239b0b1380cfbbb4ce9837c59b6f54eb677e647952ae2ede64736f6c63430008130033",
  "immutableReferences": {},
  "source": "// SPDX-License-Identifier: UNLICENSED\npragma solidity >=0.8.7 <0.8.20;\n\nimport \"@openzeppelin/contracts8/utils/math/Math.sol\";\n\nimport \"./UsingRegistry.sol\";\n\nimport \"../../contracts/common/Initializable.sol\";\nimport \"./interfaces/ICeloUnreleasedTreasuryInitializer.sol\";\nimport \"./libraries/ReentrancyGuard08.sol\";\n\n/**\n * @title Contract for unreleased Celo tokens.\n * @notice This contract is not allowed to receive transfers of CELO,\n * to avoid miscalculating the epoch rewards and to prevent any malicious actor\n * from routing stolen fund through the epoch reward distribution.\n */\ncontract CeloUnreleasedTreasury is\n  ICeloUnreleasedTreasuryInitializer,\n  UsingRegistry,\n  ReentrancyGuard08,\n  Initializable\n{\n  bool internal hasAlreadyReleased;\n\n  // Remaining epoch rewards to distribute.\n  uint256 internal remainingBalanceToRelease;\n\n  event Released(address indexed to, uint256 amount);\n\n  /**\n   * @notice Only allows EpochManager to call.\n   */\n  modifier onlyEpochManager() {\n    require(\n      msg.sender == registry.getAddressForOrDie(EPOCH_MANAGER_REGISTRY_ID),\n      \"Only the EpochManager contract can call this function.\"\n    );\n    _;\n  }\n\n  /**\n   * @notice Sets initialized == true on implementation contracts\n   * @param test Set to true to skip implementation initialization\n   */\n  constructor(bool test) Initializable(test) {}\n\n  /**\n   * @notice A constructor for initialising a new instance of a CeloUnreleasedTreasury contract.\n   * @param registryAddress The address of the registry core smart contract.\n   */\n  function initialize(address registryAddress) external initializer {\n    _transferOwnership(msg.sender);\n    setRegistry(registryAddress);\n  }\n\n  /**\n   * @notice Releases the Celo to the specified address.\n   * @param to The address to release the amount to.\n   * @param amount The amount to release.\n   */\n  function release(address to, uint256 amount) external onlyEpochManager {\n    if (!hasAlreadyReleased) {\n      remainingBalanceToRelease = address(this).balance;\n      hasAlreadyReleased = true;\n    }\n\n    require(remainingBalanceToRelease >= amount, \"Insufficient balance.\");\n    remainingBalanceToRelease -= amount;\n    require(getCeloToken().transfer(to, amount), \"CELO transfer failed.\");\n\n    emit Released(to, amount);\n  }\n\n  /**\n   * @notice Returns the remaining balance this contract has left to release.\n   * @dev This uses internal accounting of the released balance,\n   * to avoid recounting CELO that was transferred back to this contract.\n   */\n  function getRemainingBalanceToRelease() external view returns (uint256) {\n    if (!hasAlreadyReleased) {\n      return address(this).balance;\n    } else {\n      return remainingBalanceToRelease;\n    }\n  }\n\n  /**\n   * @notice Returns the storage, major, minor, and patch version of the contract.\n   * @return Storage version of the contract.\n   * @return Major version of the contract.\n   * @return Minor version of the contract.\n   * @return Patch version of the contract.\n   */\n  function getVersionNumber() external pure returns (uint256, uint256, uint256, uint256) {\n    return (1, 1, 0, 0);\n  }\n}\n",
  "sourcePath": "/Users/beaver/Development/temp/celo-monorepo/packages/protocol/contracts-0.8/common/CeloUnreleasedTreasury.sol",
  "compiler": {
    "name": "solc",
    "version": "0.8.19+commit.7dd6d404.Emscripten.clang"
  },
  "schemaVersion": "3.4.13",
  "updatedAt": "2025-05-05T17:49:34.120Z",
  "devdoc": {
    "kind": "dev",
    "methods": {
      "constructor": {
        "params": {
          "test": "Set to true to skip implementation initialization"
        }
      },
      "getRemainingBalanceToRelease()": {
        "details": "This uses internal accounting of the released balance, to avoid recounting CELO that was transferred back to this contract."
      },
      "getVersionNumber()": {
        "returns": {
          "_0": "Storage version of the contract.",
          "_1": "Major version of the contract.",
          "_2": "Minor version of the contract.",
          "_3": "Patch version of the contract."
        }
      },
      "initialize(address)": {
        "params": {
          "registryAddress": "The address of the registry core smart contract."
        }
      },
      "owner()": {
        "details": "Returns the address of the current owner."
      },
      "release(address,uint256)": {
        "params": {
          "amount": "The amount to release.",
          "to": "The address to release the amount to."
        }
      },
      "renounceOwnership()": {
        "details": "Leaves the contract without owner. It will not be possible to call `onlyOwner` functions. Can only be called by the current owner. NOTE: Renouncing ownership will leave the contract without an owner, thereby disabling any functionality that is only available to the owner."
      },
      "setRegistry(address)": {
        "params": {
          "registryAddress": "The address of a registry contract for routing to other contracts."
        }
      },
      "transferOwnership(address)": {
        "details": "Transfers ownership of the contract to a new account (`newOwner`). Can only be called by the current owner."
      }
    },
    "title": "Contract for unreleased Celo tokens.",
    "version": 1
  },
  "userdoc": {
    "kind": "user",
    "methods": {
      "constructor": {
        "notice": "Sets initialized == true on implementation contracts"
      },
      "getRemainingBalanceToRelease()": {
        "notice": "Returns the remaining balance this contract has left to release."
      },
      "getVersionNumber()": {
        "notice": "Returns the storage, major, minor, and patch version of the contract."
      },
      "initialize(address)": {
        "notice": "A constructor for initialising a new instance of a CeloUnreleasedTreasury contract."
      },
      "release(address,uint256)": {
        "notice": "Releases the Celo to the specified address."
      },
      "setRegistry(address)": {
        "notice": "Updates the address pointing to a Registry contract."
      }
    },
    "notice": "This contract is not allowed to receive transfers of CELO, to avoid miscalculating the epoch rewards and to prevent any malicious actor from routing stolen fund through the epoch reward distribution.",
    "version": 1
  }
}