{
  "contractName": "CeloFeeCurrencyAdapterOwnable",
  "abi": [
    {
      "inputs": [
        {
          "internalType": "bool",
          "name": "test",
          "type": "bool"
        }
      ],
      "stateMutability": "nonpayable",
      "type": "constructor"
    },
    {
      "anonymous": false,
      "inputs": [
        {
          "indexed": true,
          "internalType": "address",
          "name": "previousOwner",
          "type": "address"
        },
        {
          "indexed": true,
          "internalType": "address",
          "name": "newOwner",
          "type": "address"
        }
      ],
      "name": "OwnershipTransferred",
      "type": "event"
    },
    {
      "inputs": [],
      "name": "adaptedToken",
      "outputs": [
        {
          "internalType": "contract IFeeCurrency",
          "name": "",
          "type": "address"
        }
      ],
      "stateMutability": "view",
      "type": "function"
    },
    {
      "inputs": [
        {
          "internalType": "address",
          "name": "account",
          "type": "address"
        }
      ],
      "name": "balanceOf",
      "outputs": [
        {
          "internalType": "uint256",
          "name": "",
          "type": "uint256"
        }
      ],
      "stateMutability": "view",
      "type": "function"
    },
    {
      "inputs": [
        {
          "internalType": "address",
          "name": "refundRecipient",
          "type": "address"
        },
        {
          "internalType": "address",
          "name": "tipRecipient",
          "type": "address"
        },
        {
          "internalType": "address",
          "name": "_gatewayFeeRecipient",
          "type": "address"
        },
        {
          "internalType": "address",
          "name": "baseFeeRecipient",
          "type": "address"
        },
        {
          "internalType": "uint256",
          "name": "refundAmount",
          "type": "uint256"
        },
        {
          "internalType": "uint256",
          "name": "tipAmount",
          "type": "uint256"
        },
        {
          "internalType": "uint256",
          "name": "_gatewayFeeAmount",
          "type": "uint256"
        },
        {
          "internalType": "uint256",
          "name": "baseFeeAmount",
          "type": "uint256"
        }
      ],
      "name": "creditGasFees",
      "outputs": [],
      "stateMutability": "nonpayable",
      "type": "function"
    },
    {
      "inputs": [
        {
          "internalType": "address",
          "name": "from",
          "type": "address"
        },
        {
          "internalType": "uint256",
          "name": "value",
          "type": "uint256"
        }
      ],
      "name": "debitGasFees",
      "outputs": [],
      "stateMutability": "nonpayable",
      "type": "function"
    },
    {
      "inputs": [],
      "name": "debited",
      "outputs": [
        {
          "internalType": "uint256",
          "name": "",
          "type": "uint256"
        }
      ],
      "stateMutability": "view",
      "type": "function"
    },
    {
      "inputs": [],
      "name": "decimals",
      "outputs": [
        {
          "internalType": "uint8",
          "name": "",
          "type": "uint8"
        }
      ],
      "stateMutability": "view",
      "type": "function"
    },
    {
      "inputs": [],
      "name": "digitDifference",
      "outputs": [
        {
          "internalType": "uint96",
          "name": "",
          "type": "uint96"
        }
      ],
      "stateMutability": "view",
      "type": "function"
    },
    {
      "inputs": [],
      "name": "expectedDecimals",
      "outputs": [
        {
          "internalType": "uint8",
          "name": "",
          "type": "uint8"
        }
      ],
      "stateMutability": "view",
      "type": "function"
    },
    {
      "inputs": [],
      "name": "getAdaptedToken",
      "outputs": [
        {
          "internalType": "address",
          "name": "",
          "type": "address"
        }
      ],
      "stateMutability": "view",
      "type": "function"
    },
    {
      "inputs": [
        {
          "internalType": "address",
          "name": "_adaptedToken",
          "type": "address"
        },
        {
          "internalType": "string",
          "name": "_name",
          "type": "string"
        },
        {
          "internalType": "string",
          "name": "_symbol",
          "type": "string"
        },
        {
          "internalType": "uint8",
          "name": "_expectedDecimals",
          "type": "uint8"
        }
      ],
      "name": "initialize",
      "outputs": [],
      "stateMutability": "nonpayable",
      "type": "function"
    },
    {
      "inputs": [],
      "name": "initialized",
      "outputs": [
        {
          "internalType": "bool",
          "name": "",
          "type": "bool"
        }
      ],
      "stateMutability": "view",
      "type": "function"
    },
    {
      "inputs": [],
      "name": "name",
      "outputs": [
        {
          "internalType": "string",
          "name": "",
          "type": "string"
        }
      ],
      "stateMutability": "view",
      "type": "function"
    },
    {
      "inputs": [],
      "name": "owner",
      "outputs": [
        {
          "internalType": "address",
          "name": "",
          "type": "address"
        }
      ],
      "stateMutability": "view",
      "type": "function"
    },
    {
      "inputs": [],
      "name": "renounceOwnership",
      "outputs": [],
      "stateMutability": "nonpayable",
      "type": "function"
    },
    {
      "inputs": [
        {
          "internalType": "address",
          "name": "_adaptedToken",
          "type": "address"
        }
      ],
      "name": "setAdaptedToken",
      "outputs": [],
      "stateMutability": "nonpayable",
      "type": "function"
    },
    {
      "inputs": [],
      "name": "symbol",
      "outputs": [
        {
          "internalType": "string",
          "name": "",
          "type": "string"
        }
      ],
      "stateMutability": "view",
      "type": "function"
    },
    {
      "inputs": [],
      "name": "totalSupply",
      "outputs": [
        {
          "internalType": "uint256",
          "name": "",
          "type": "uint256"
        }
      ],
      "stateMutability": "view",
      "type": "function"
    },
    {
      "inputs": [
        {
          "internalType": "address",
          "name": "newOwner",
          "type": "address"
        }
      ],
      "name": "transferOwnership",
      "outputs": [],
      "stateMutability": "nonpayable",
      "type": "function"
    },
    {
      "inputs": [],
      "name": "getVersionNumber",
      "outputs": [
        {
          "internalType": "uint256",
          "name": "",
          "type": "uint256"
        },
        {
          "internalType": "uint256",
          "name": "",
          "type": "uint256"
        },
        {
          "internalType": "uint256",
          "name": "",
          "type": "uint256"
        },
        {
          "internalType": "uint256",
          "name": "",
          "type": "uint256"
        }
      ],
      "stateMutability": "pure",
      "type": "function"
    }
  ],
  "bytecode": "0x6080604052600060025534801561001557600080fd5b5060405161112b38038061112b833981016040819052610034916100af565b8080808061004a576000805460ff191660011790555b5061005690503361005d565b50506100d8565b603280546001600160a01b038381166001600160a01b0319831681179093556040519116919082907f8be0079c531659141344cd1fd0a4f28419497f9722a3daafe3b4186f6b6457e090600090a35050565b6000602082840312156100c157600080fd5b815180151581146100d157600080fd5b9392505050565b611044806100e76000396000f3fe608060405234801561001057600080fd5b50600436106101215760003560e01c806370a08231116100ad578063cc23a4a311610071578063cc23a4a314610272578063eeee9dc21461027f578063f2fde38b14610295578063f6d2ee86146102a8578063fadbb859146102bb57600080fd5b806370a0823114610212578063715018a6146102255780638da5cb5b1461022d57806395d89b4114610252578063989516db1461025a57600080fd5b80633cf03412116100f45780633cf034121461019057806354255be01461019957806358cf9672146101bf5780635ee5c82a146101d45780636a30b253146101ff57600080fd5b806306fdde0314610126578063158ef93e1461014457806318160ddd14610161578063313ce56714610177575b600080fd5b61012e6102ce565b60405161013b9190610aa7565b60405180910390f35b6000546101519060ff1681565b604051901515815260200161013b565b61016961035c565b60405190815260200161013b565b60055460ff165b60405160ff909116815260200161013b565b61016960025481565b60018060008060408051948552602085019390935291830152606082015260800161013b565b6101d26101cd366004610b11565b6103e2565b005b6001546101e7906001600160601b031681565b6040516001600160601b03909116815260200161013b565b6101d261020d366004610b3b565b6104fb565b610169610220366004610bb3565b6106ba565b6101d2610712565b6032546001600160a01b03165b6040516001600160a01b03909116815260200161013b565b61012e610726565b60005461023a9061010090046001600160a01b031681565b60055461017e9060ff1681565b60005461010090046001600160a01b031661023a565b6101d26102a3366004610bb3565b610733565b6101d26102b6366004610c87565b6107ac565b6101d26102c9366004610bb3565b6107c7565b600380546102db90610d0e565b80601f016020809104026020016040519081016040528092919081815260200182805461030790610d0e565b80156103545780601f1061032957610100808354040283529160200191610354565b820191906000526020600020905b81548152906001019060200180831161033757829003601f168201915b505050505081565b60006103dd600060019054906101000a90046001600160a01b03166001600160a01b03166318160ddd6040518163ffffffff1660e01b8152600401602060405180830381865afa1580156103b4573d6000803e3d6000fd5b505050506040513d601f19601f820116820180604052508101906103d89190610d48565b6107d8565b905090565b33156104285760405162461bcd60e51b815260206004820152601060248201526f13db9b1e4815934818d85b8818d85b1b60821b60448201526064015b60405180910390fd5b6000610433826107f1565b9050600081116104855760405162461bcd60e51b815260206004820152601f60248201527f5363616c65642064656269742076616c7565206d757374206265203e20302e00604482015260640161041f565b6002819055600054604051632c67cb3960e11b81526001600160a01b03858116600483015260248201849052610100909204909116906358cf967290604401600060405180830381600087803b1580156104de57600080fd5b505af11580156104f2573d6000803e3d6000fd5b50505050505050565b331561053c5760405162461bcd60e51b815260206004820152601060248201526f13db9b1e4815934818d85b8818d85b1b60821b604482015260640161041f565b600254156106b057600061054f856107f1565b9050600061055c856107f1565b90506000610569846107f1565b6002549091508161057a8486610d77565b6105849190610d77565b11156105d25760405162461bcd60e51b815260206004820181905260248201527f43616e6e6f7420637265646974206d6f7265207468616e20646562697465642e604482015260640161041f565b6000816105df8486610d77565b6105e99190610d77565b6002546105f69190610d8a565b9050801561060b576106088183610d77565b91505b60008054604051636a30b25360e01b81526001600160a01b038f811660048301528e81166024830152604482018490528c811660648301526084820188905260a4820187905260c482019390935260e4810185905261010090910490911690636a30b2539061010401600060405180830381600087803b15801561068e57600080fd5b505af11580156106a2573d6000803e3d6000fd5b505060006002555050505050505b5050505050505050565b600080546040516370a0823160e01b81526001600160a01b03848116600483015261070c92610100900416906370a0823190602401602060405180830381865afa1580156103b4573d6000803e3d6000fd5b92915050565b61071a610822565b610724600061087c565b565b600480546102db90610d0e565b61073b610822565b6001600160a01b0381166107a05760405162461bcd60e51b815260206004820152602660248201527f4f776e61626c653a206e6577206f776e657220697320746865207a65726f206160448201526564647265737360d01b606482015260840161041f565b6107a98161087c565b50565b6107b53361087c565b6107c1848484846108ce565b50505050565b6107cf610822565b6107a981610a7f565b60015460009061070c906001600160601b031683610d9d565b600180546000916001600160601b039091169061080e8285610d77565b6108189190610d8a565b61070c9190610db4565b6032546001600160a01b031633146107245760405162461bcd60e51b815260206004820181905260248201527f4f776e61626c653a2063616c6c6572206973206e6f7420746865206f776e6572604482015260640161041f565b603280546001600160a01b038381166001600160a01b0319831681179093556040519116919082907f8be0079c531659141344cd1fd0a4f28419497f9722a3daafe3b4186f6b6457e090600090a35050565b60005460ff16156109215760405162461bcd60e51b815260206004820152601c60248201527f636f6e747261637420616c726561647920696e697469616c697a656400000000604482015260640161041f565b6000805460ff1916600117905561093784610a7f565b60036109438482610e25565b5060046109508382610e25565b506000846001600160a01b031663313ce5676040518163ffffffff1660e01b8152600401602060405180830381865afa158015610991573d6000803e3d6000fd5b505050506040513d601f19601f820116820180604052508101906109b59190610ee5565b90508160ff168160ff1610610a2b5760405162461bcd60e51b815260206004820152603660248201527f446563696d616c73206f66206164617074656420746f6b656e206d757374206260448201527532901e1032bc3832b1ba32b2103232b1b4b6b0b6399760511b606482015260840161041f565b610a358183610f02565b610a4090600a610fff565b600180546bffffffffffffffffffffffff19166001600160601b0392909216919091179055506005805460ff191660ff92909216919091179055505050565b600080546001600160a01b0390921661010002610100600160a81b0319909216919091179055565b600060208083528351808285015260005b81811015610ad457858101830151858201604001528201610ab8565b506000604082860101526040601f19601f8301168501019250505092915050565b80356001600160a01b0381168114610b0c57600080fd5b919050565b60008060408385031215610b2457600080fd5b610b2d83610af5565b946020939093013593505050565b600080600080600080600080610100898b031215610b5857600080fd5b610b6189610af5565b9750610b6f60208a01610af5565b9650610b7d60408a01610af5565b9550610b8b60608a01610af5565b979a969950949760808101359660a0820135965060c0820135955060e0909101359350915050565b600060208284031215610bc557600080fd5b610bce82610af5565b9392505050565b634e487b7160e01b600052604160045260246000fd5b600082601f830112610bfc57600080fd5b813567ffffffffffffffff80821115610c1757610c17610bd5565b604051601f8301601f19908116603f01168101908282118183101715610c3f57610c3f610bd5565b81604052838152866020858801011115610c5857600080fd5b836020870160208301376000602085830101528094505050505092915050565b60ff811681146107a957600080fd5b60008060008060808587031215610c9d57600080fd5b610ca685610af5565b9350602085013567ffffffffffffffff80821115610cc357600080fd5b610ccf88838901610beb565b94506040870135915080821115610ce557600080fd5b50610cf287828801610beb565b9250506060850135610d0381610c78565b939692955090935050565b600181811c90821680610d2257607f821691505b602082108103610d4257634e487b7160e01b600052602260045260246000fd5b50919050565b600060208284031215610d5a57600080fd5b5051919050565b634e487b7160e01b600052601160045260246000fd5b8082018082111561070c5761070c610d61565b8181038181111561070c5761070c610d61565b808202811582820484141761070c5761070c610d61565b600082610dd157634e487b7160e01b600052601260045260246000fd5b500490565b601f821115610e2057600081815260208120601f850160051c81016020861015610dfd5750805b601f850160051c820191505b81811015610e1c57828155600101610e09565b5050505b505050565b815167ffffffffffffffff811115610e3f57610e3f610bd5565b610e5381610e4d8454610d0e565b84610dd6565b602080601f831160018114610e885760008415610e705750858301515b600019600386901b1c1916600185901b178555610e1c565b600085815260208120601f198616915b82811015610eb757888601518255948401946001909101908401610e98565b5085821015610ed55787850151600019600388901b60f8161c191681555b5050505050600190811b01905550565b600060208284031215610ef757600080fd5b8151610bce81610c78565b60ff828116828216039081111561070c5761070c610d61565b600181815b80851115610f56578160001904821115610f3c57610f3c610d61565b80851615610f4957918102915b93841c9390800290610f20565b509250929050565b600082610f6d5750600161070c565b81610f7a5750600061070c565b8160018114610f905760028114610f9a57610fb6565b600191505061070c565b60ff841115610fab57610fab610d61565b50506001821b61070c565b5060208310610133831016604e8410600b8410161715610fd9575081810a61070c565b610fe38383610f1b565b8060001904821115610ff757610ff7610d61565b029392505050565b6000610bce60ff841683610f5e56fea264697066735822122066445e3a9f9d3a18f3c7a666da828f2d03f7a04d019ea30928c2e68e26234c7164736f6c63430008130033",
  "immutableReferences": {},
  "source": "// SPDX-License-Identifier: LGPL-3.0-only\npragma solidity >=0.8.7 <0.8.20;\n\nimport \"./FeeCurrencyAdapterOwnable.sol\";\n\ncontract CeloFeeCurrencyAdapterOwnable is FeeCurrencyAdapterOwnable {\n  /**\n   * @notice Sets initialized == true on implementation contracts\n   * @param test Set to true to skip implementation initialization\n   */\n  constructor(bool test) FeeCurrencyAdapterOwnable(test) {}\n\n  /**\n   * @notice Returns the storage, major, minor, and patch version of the contract.\n   * @return Storage version of the contract.\n   * @return Major version of the contract.\n   * @return Minor version of the contract.\n   * @return Patch version of the contract.\n   */\n  function getVersionNumber() external pure returns (uint256, uint256, uint256, uint256) {\n    return (1, 1, 0, 0);\n  }\n}\n",
  "sourcePath": "/Users/beaver/Development/temp/celo-monorepo/packages/protocol/contracts-0.8/stability/CeloFeeCurrencyAdapterOwnable.sol",
  "compiler": {
    "name": "solc",
    "version": "0.8.19+commit.7dd6d404.Emscripten.clang"
  },
  "schemaVersion": "3.4.13",
  "updatedAt": "2025-05-05T17:49:34.214Z",
  "devdoc": {
    "kind": "dev",
    "methods": {
      "balanceOf(address)": {
        "params": {
          "account": "The address to query the balance of."
        },
        "returns": {
          "_0": "The balance of the specified address."
        }
      },
      "constructor": {
        "params": {
          "test": "Set to true to skip implementation initialization"
        }
      },
      "creditGasFees(address,address,address,address,uint256,uint256,uint256,uint256)": {
        "params": {
          "_gatewayFeeAmount": "The amount of the gateway fee (in adapted token digits). Unused.",
          "_gatewayFeeRecipient": "The recipient of the gateway fee. Unused.",
          "baseFeeAmount": "The amount of the base fee (in adapted token digits).",
          "baseFeeRecipient": "The recipient of the base fee.",
          "refundAmount": "The amount to refund (in adapted token digits).",
          "refundRecipient": "The recipient of the refund.",
          "tipAmount": "The amount to tip (in adapted token digits).",
          "tipRecipient": "The recipient of the tip."
        }
      },
      "debitGasFees(address,uint256)": {
        "params": {
          "from": "from address",
          "value": "Debited value in the adapted digits."
        }
      },
      "decimals()": {
        "returns": {
          "_0": "The total supply."
        }
      },
      "getAdaptedToken()": {
        "returns": {
          "_0": "The adapted token address."
        }
      },
      "getVersionNumber()": {
        "returns": {
          "_0": "Storage version of the contract.",
          "_1": "Major version of the contract.",
          "_2": "Minor version of the contract.",
          "_3": "Patch version of the contract."
        }
      },
      "initialize(address,string,string,uint8)": {
        "params": {
          "_adaptedToken": "The address of the adapted token.",
          "_expectedDecimals": "The expected number of decimals of the adapted token.",
          "_name": "The name of the adapted token.",
          "_symbol": "The symbol of the adapted token."
        }
      },
      "owner()": {
        "details": "Returns the address of the current owner."
      },
      "renounceOwnership()": {
        "details": "Leaves the contract without owner. It will not be possible to call `onlyOwner` functions. Can only be called by the current owner. NOTE: Renouncing ownership will leave the contract without an owner, thereby disabling any functionality that is only available to the owner."
      },
      "setAdaptedToken(address)": {
        "params": {
          "_adaptedToken": "The address of the adapted token."
        }
      },
      "totalSupply()": {
        "returns": {
          "_0": "The total supply."
        }
      },
      "transferOwnership(address)": {
        "details": "Transfers ownership of the contract to a new account (`newOwner`). Can only be called by the current owner."
      }
    },
    "version": 1
  },
  "userdoc": {
    "kind": "user",
    "methods": {
      "balanceOf(address)": {
        "notice": "Gets the balance of the specified address with correct digits."
      },
      "constructor": {
        "notice": "Sets initialized == true on implementation contracts"
      },
      "creditGasFees(address,address,address,address,uint256,uint256,uint256,uint256)": {
        "notice": "Downscales value to the adapted token's native digits and credits it."
      },
      "debitGasFees(address,uint256)": {
        "notice": "Downscales value to the adapted token's native digits and debits it."
      },
      "decimals()": {
        "notice": "Gets the total supply with correct digits."
      },
      "getAdaptedToken()": {
        "notice": "Returns adapted token address."
      },
      "getVersionNumber()": {
        "notice": "Returns the storage, major, minor, and patch version of the contract."
      },
      "initialize(address,string,string,uint8)": {
        "notice": "Used in place of the constructor to allow the contract to be upgradable via proxy."
      },
      "setAdaptedToken(address)": {
        "notice": "Sets adapted token address."
      },
      "totalSupply()": {
        "notice": "Gets the total supply with correct digits."
      }
    },
    "version": 1
  }
}