{
  "contractName": "EpochRewardsMock08",
  "abi": [
    {
      "inputs": [],
      "name": "carbonOffsettingPartner",
      "outputs": [
        {
          "internalType": "address",
          "name": "",
          "type": "address"
        }
      ],
      "stateMutability": "view",
      "type": "function"
    },
    {
      "inputs": [],
      "name": "perValidatorReward",
      "outputs": [
        {
          "internalType": "uint256",
          "name": "",
          "type": "uint256"
        }
      ],
      "stateMutability": "view",
      "type": "function"
    },
    {
      "inputs": [],
      "name": "totalRewardsCarbonFund",
      "outputs": [
        {
          "internalType": "uint256",
          "name": "",
          "type": "uint256"
        }
      ],
      "stateMutability": "view",
      "type": "function"
    },
    {
      "inputs": [],
      "name": "totalRewardsCommunity",
      "outputs": [
        {
          "internalType": "uint256",
          "name": "",
          "type": "uint256"
        }
      ],
      "stateMutability": "view",
      "type": "function"
    },
    {
      "inputs": [],
      "name": "totalRewardsVoter",
      "outputs": [
        {
          "internalType": "uint256",
          "name": "",
          "type": "uint256"
        }
      ],
      "stateMutability": "view",
      "type": "function"
    },
    {
      "inputs": [
        {
          "internalType": "uint256",
          "name": "value",
          "type": "uint256"
        }
      ],
      "name": "setNumberValidatorsInCurrentSet",
      "outputs": [],
      "stateMutability": "nonpayable",
      "type": "function"
    },
    {
      "inputs": [],
      "name": "updateTargetVotingYield",
      "outputs": [],
      "stateMutability": "nonpayable",
      "type": "function"
    },
    {
      "inputs": [],
      "name": "isReserveLow",
      "outputs": [
        {
          "internalType": "bool",
          "name": "",
          "type": "bool"
        }
      ],
      "stateMutability": "pure",
      "type": "function"
    },
    {
      "inputs": [],
      "name": "calculateTargetEpochRewards",
      "outputs": [
        {
          "internalType": "uint256",
          "name": "",
          "type": "uint256"
        },
        {
          "internalType": "uint256",
          "name": "",
          "type": "uint256"
        },
        {
          "internalType": "uint256",
          "name": "",
          "type": "uint256"
        },
        {
          "internalType": "uint256",
          "name": "",
          "type": "uint256"
        }
      ],
      "stateMutability": "view",
      "type": "function"
    },
    {
      "inputs": [],
      "name": "getTargetVotingYieldParameters",
      "outputs": [
        {
          "internalType": "uint256",
          "name": "",
          "type": "uint256"
        },
        {
          "internalType": "uint256",
          "name": "",
          "type": "uint256"
        },
        {
          "internalType": "uint256",
          "name": "",
          "type": "uint256"
        }
      ],
      "stateMutability": "pure",
      "type": "function"
    },
    {
      "inputs": [],
      "name": "getRewardsMultiplierParameters",
      "outputs": [
        {
          "internalType": "uint256",
          "name": "",
          "type": "uint256"
        },
        {
          "internalType": "uint256",
          "name": "",
          "type": "uint256"
        },
        {
          "internalType": "uint256",
          "name": "",
          "type": "uint256"
        }
      ],
      "stateMutability": "pure",
      "type": "function"
    },
    {
      "inputs": [],
      "name": "getCommunityRewardFraction",
      "outputs": [
        {
          "internalType": "uint256",
          "name": "",
          "type": "uint256"
        }
      ],
      "stateMutability": "pure",
      "type": "function"
    },
    {
      "inputs": [],
      "name": "getCarbonOffsettingFraction",
      "outputs": [
        {
          "internalType": "uint256",
          "name": "",
          "type": "uint256"
        }
      ],
      "stateMutability": "pure",
      "type": "function"
    },
    {
      "inputs": [],
      "name": "getTargetVotingGoldFraction",
      "outputs": [
        {
          "internalType": "uint256",
          "name": "",
          "type": "uint256"
        }
      ],
      "stateMutability": "pure",
      "type": "function"
    },
    {
      "inputs": [],
      "name": "getRewardsMultiplier",
      "outputs": [
        {
          "internalType": "uint256",
          "name": "",
          "type": "uint256"
        }
      ],
      "stateMutability": "pure",
      "type": "function"
    },
    {
      "inputs": [
        {
          "internalType": "uint256",
          "name": "",
          "type": "uint256"
        }
      ],
      "name": "getRewardsMultiplier",
      "outputs": [
        {
          "internalType": "uint256",
          "name": "",
          "type": "uint256"
        }
      ],
      "stateMutability": "pure",
      "type": "function"
    },
    {
      "inputs": [],
      "name": "numberValidatorsInCurrentSet",
      "outputs": [
        {
          "internalType": "uint256",
          "name": "",
          "type": "uint256"
        }
      ],
      "stateMutability": "view",
      "type": "function"
    },
    {
      "inputs": [
        {
          "internalType": "address",
          "name": "partner",
          "type": "address"
        }
      ],
      "name": "setCarbonOffsettingPartner",
      "outputs": [],
      "stateMutability": "nonpayable",
      "type": "function"
    }
  ],
  "bytecode": "0x6080604052600560025560066003556007600455600860055534801561002457600080fd5b506102ba806100346000396000f3fe608060405234801561001057600080fd5b50600436106101165760003560e01c806387ee8a0f116100a25780639ed376fd116100715780639ed376fd146101e6578063a4f7d924146101ef578063ae098de21461011b578063aea40462146101f8578063d632994c1461022857600080fd5b806387ee8a0f146101cd57806392ecd745146101d55780639917907f1461011b5780639ad0cce7146101d757600080fd5b80635f396e48116100e95780635f396e481461013a57806364347043146101845780636eb92ecc146101b057806376d92bd2146101b95780637d1641251461011b57600080fd5b80630203ab241461011b57806305d01ebc14610131578063171af90f1461013a57806322dae21f14610159575b600080fd5b60005b6040519081526020015b60405180910390f35b61011e60035481565b6000808060408051938452602084019290925290820152606001610128565b60015461016c906001600160a01b031681565b6040516001600160a01b039091168152602001610128565b600254600354600454600554604080519485526020850193909352918301526060820152608001610128565b61011e60055481565b61011e6101c736600461023b565b50600090565b60005461011e565b005b60405160008152602001610128565b61011e60025481565b61011e60045481565b6101d5610206366004610254565b600180546001600160a01b0319166001600160a01b0392909216919091179055565b6101d561023636600461023b565b600055565b60006020828403121561024d57600080fd5b5035919050565b60006020828403121561026657600080fd5b81356001600160a01b038116811461027d57600080fd5b939250505056fea2646970667358221220b1719d7e608f140d5fb6fcce15d9490ad2ee488bd973f565b0da32da63fe504364736f6c63430008130033",
  "immutableReferences": {},
  "source": "// SPDX-License-Identifier: UNLICENSED\npragma solidity >=0.8.7 <0.8.20;\n\nimport \"../../../contracts/governance/interfaces/IEpochRewards.sol\";\n\n/**\n * @title A wrapper around EpochRewards that exposes internal functions for testing.\n */\ncontract EpochRewardsMock08 is IEpochRewards {\n  uint256 private numValidatorsInCurrentSet;\n  address public carbonOffsettingPartner;\n\n  uint256 public perValidatorReward = 5;\n  uint256 public totalRewardsVoter = 6;\n  uint256 public totalRewardsCommunity = 7;\n  uint256 public totalRewardsCarbonFund = 8;\n\n  function setNumberValidatorsInCurrentSet(uint256 value) external {\n    numValidatorsInCurrentSet = value;\n  }\n\n  function updateTargetVotingYield() external {}\n\n  function getRewardsMultiplier(uint256) external pure returns (uint256) {\n    return 0;\n  }\n\n  function isReserveLow() external pure returns (bool) {\n    return false;\n  }\n  function calculateTargetEpochRewards()\n    external\n    view\n    returns (uint256, uint256, uint256, uint256)\n  {\n    return (perValidatorReward, totalRewardsVoter, totalRewardsCommunity, totalRewardsCarbonFund);\n  }\n  function getTargetVotingYieldParameters() external pure returns (uint256, uint256, uint256) {\n    return (0, 0, 0);\n  }\n  function getRewardsMultiplierParameters() external pure returns (uint256, uint256, uint256) {\n    return (0, 0, 0);\n  }\n  function getCommunityRewardFraction() external pure returns (uint256) {\n    return 0;\n  }\n  function getCarbonOffsettingFraction() external pure returns (uint256) {\n    return 0;\n  }\n  function getTargetVotingGoldFraction() external pure returns (uint256) {\n    return 0;\n  }\n  function getRewardsMultiplier() external pure returns (uint256) {\n    return 0;\n  }\n\n  // mocks the precompile\n  function numberValidatorsInCurrentSet() public view returns (uint256) {\n    return numValidatorsInCurrentSet;\n  }\n\n  function setCarbonOffsettingPartner(address partner) external {\n    carbonOffsettingPartner = partner;\n  }\n}\n",
  "sourcePath": "/Users/beaver/Development/temp/celo-monorepo/packages/protocol/contracts-0.8/governance/test/EpochRewardsMock.sol",
  "compiler": {
    "name": "solc",
    "version": "0.8.19+commit.7dd6d404.Emscripten.clang"
  },
  "schemaVersion": "3.4.13",
  "updatedAt": "2025-05-05T17:49:34.213Z",
  "devdoc": {
    "kind": "dev",
    "methods": {},
    "title": "A wrapper around EpochRewards that exposes internal functions for testing.",
    "version": 1
  },
  "userdoc": {
    "kind": "user",
    "methods": {},
    "version": 1
  }
}