{
  "contractName": "EpochManager_WithMocks",
  "abi": [
    {
      "anonymous": false,
      "inputs": [
        {
          "indexed": true,
          "internalType": "uint256",
          "name": "newEpochDuration",
          "type": "uint256"
        }
      ],
      "name": "EpochDurationSet",
      "type": "event"
    },
    {
      "anonymous": false,
      "inputs": [
        {
          "indexed": true,
          "internalType": "uint256",
          "name": "epochNumber",
          "type": "uint256"
        }
      ],
      "name": "EpochProcessingEnded",
      "type": "event"
    },
    {
      "anonymous": false,
      "inputs": [
        {
          "indexed": true,
          "internalType": "uint256",
          "name": "epochNumber",
          "type": "uint256"
        }
      ],
      "name": "EpochProcessingStarted",
      "type": "event"
    },
    {
      "anonymous": false,
      "inputs": [
        {
          "indexed": true,
          "internalType": "address",
          "name": "group",
          "type": "address"
        },
        {
          "indexed": true,
          "internalType": "uint256",
          "name": "epochNumber",
          "type": "uint256"
        }
      ],
      "name": "GroupMarkedForProcessing",
      "type": "event"
    },
    {
      "anonymous": false,
      "inputs": [
        {
          "indexed": true,
          "internalType": "address",
          "name": "group",
          "type": "address"
        },
        {
          "indexed": true,
          "internalType": "uint256",
          "name": "epochNumber",
          "type": "uint256"
        }
      ],
      "name": "GroupProcessed",
      "type": "event"
    },
    {
      "anonymous": false,
      "inputs": [
        {
          "indexed": true,
          "internalType": "address",
          "name": "newOracleAddress",
          "type": "address"
        }
      ],
      "name": "OracleAddressSet",
      "type": "event"
    },
    {
      "anonymous": false,
      "inputs": [
        {
          "indexed": true,
          "internalType": "address",
          "name": "previousOwner",
          "type": "address"
        },
        {
          "indexed": true,
          "internalType": "address",
          "name": "newOwner",
          "type": "address"
        }
      ],
      "name": "OwnershipTransferred",
      "type": "event"
    },
    {
      "anonymous": false,
      "inputs": [
        {
          "indexed": true,
          "internalType": "address",
          "name": "registryAddress",
          "type": "address"
        }
      ],
      "name": "RegistrySet",
      "type": "event"
    },
    {
      "anonymous": false,
      "inputs": [
        {
          "indexed": true,
          "internalType": "address",
          "name": "validator",
          "type": "address"
        },
        {
          "indexed": false,
          "internalType": "uint256",
          "name": "validatorPayment",
          "type": "uint256"
        },
        {
          "indexed": true,
          "internalType": "address",
          "name": "group",
          "type": "address"
        },
        {
          "indexed": false,
          "internalType": "uint256",
          "name": "groupPayment",
          "type": "uint256"
        },
        {
          "indexed": true,
          "internalType": "address",
          "name": "beneficiary",
          "type": "address"
        },
        {
          "indexed": false,
          "internalType": "uint256",
          "name": "delegatedPayment",
          "type": "uint256"
        }
      ],
      "name": "ValidatorEpochPaymentDistributed",
      "type": "event"
    },
    {
      "inputs": [
        {
          "internalType": "uint256",
          "name": "",
          "type": "uint256"
        }
      ],
      "name": "electedAccounts",
      "outputs": [
        {
          "internalType": "address",
          "name": "",
          "type": "address"
        }
      ],
      "stateMutability": "view",
      "type": "function"
    },
    {
      "inputs": [
        {
          "internalType": "uint256",
          "name": "",
          "type": "uint256"
        }
      ],
      "name": "electedSigners",
      "outputs": [
        {
          "internalType": "address",
          "name": "",
          "type": "address"
        }
      ],
      "stateMutability": "view",
      "type": "function"
    },
    {
      "inputs": [],
      "name": "epochDuration",
      "outputs": [
        {
          "internalType": "uint256",
          "name": "",
          "type": "uint256"
        }
      ],
      "stateMutability": "view",
      "type": "function"
    },
    {
      "inputs": [],
      "name": "epochProcessing",
      "outputs": [
        {
          "internalType": "enum EpochManager.EpochProcessStatus",
          "name": "status",
          "type": "uint8"
        },
        {
          "internalType": "uint256",
          "name": "perValidatorReward",
          "type": "uint256"
        },
        {
          "internalType": "uint256",
          "name": "totalRewardsVoter",
          "type": "uint256"
        },
        {
          "internalType": "uint256",
          "name": "totalRewardsCommunity",
          "type": "uint256"
        },
        {
          "internalType": "uint256",
          "name": "totalRewardsCarbonFund",
          "type": "uint256"
        }
      ],
      "stateMutability": "view",
      "type": "function"
    },
    {
      "inputs": [
        {
          "internalType": "address[]",
          "name": "groups",
          "type": "address[]"
        },
        {
          "internalType": "address[]",
          "name": "lessers",
          "type": "address[]"
        },
        {
          "internalType": "address[]",
          "name": "greaters",
          "type": "address[]"
        }
      ],
      "name": "finishNextEpochProcess",
      "outputs": [],
      "stateMutability": "nonpayable",
      "type": "function"
    },
    {
      "inputs": [],
      "name": "firstKnownEpoch",
      "outputs": [
        {
          "internalType": "uint256",
          "name": "",
          "type": "uint256"
        }
      ],
      "stateMutability": "view",
      "type": "function"
    },
    {
      "inputs": [],
      "name": "getCurrentEpoch",
      "outputs": [
        {
          "internalType": "uint256",
          "name": "",
          "type": "uint256"
        },
        {
          "internalType": "uint256",
          "name": "",
          "type": "uint256"
        },
        {
          "internalType": "uint256",
          "name": "",
          "type": "uint256"
        },
        {
          "internalType": "uint256",
          "name": "",
          "type": "uint256"
        }
      ],
      "stateMutability": "view",
      "type": "function"
    },
    {
      "inputs": [],
      "name": "getCurrentEpochNumber",
      "outputs": [
        {
          "internalType": "uint256",
          "name": "",
          "type": "uint256"
        }
      ],
      "stateMutability": "view",
      "type": "function"
    },
    {
      "inputs": [
        {
          "internalType": "uint256",
          "name": "index",
          "type": "uint256"
        }
      ],
      "name": "getElectedAccountByIndex",
      "outputs": [
        {
          "internalType": "address",
          "name": "",
          "type": "address"
        }
      ],
      "stateMutability": "view",
      "type": "function"
    },
    {
      "inputs": [],
      "name": "getElectedAccounts",
      "outputs": [
        {
          "internalType": "address[]",
          "name": "",
          "type": "address[]"
        }
      ],
      "stateMutability": "view",
      "type": "function"
    },
    {
      "inputs": [
        {
          "internalType": "uint256",
          "name": "index",
          "type": "uint256"
        }
      ],
      "name": "getElectedSignerByIndex",
      "outputs": [
        {
          "internalType": "address",
          "name": "",
          "type": "address"
        }
      ],
      "stateMutability": "view",
      "type": "function"
    },
    {
      "inputs": [],
      "name": "getElectedSigners",
      "outputs": [
        {
          "internalType": "address[]",
          "name": "",
          "type": "address[]"
        }
      ],
      "stateMutability": "view",
      "type": "function"
    },
    {
      "inputs": [
        {
          "internalType": "uint256",
          "name": "_blockNumber",
          "type": "uint256"
        }
      ],
      "name": "getEpochByBlockNumber",
      "outputs": [
        {
          "internalType": "uint256",
          "name": "",
          "type": "uint256"
        },
        {
          "internalType": "uint256",
          "name": "",
          "type": "uint256"
        },
        {
          "internalType": "uint256",
          "name": "",
          "type": "uint256"
        },
        {
          "internalType": "uint256",
          "name": "",
          "type": "uint256"
        }
      ],
      "stateMutability": "view",
      "type": "function"
    },
    {
      "inputs": [
        {
          "internalType": "uint256",
          "name": "epochNumber",
          "type": "uint256"
        }
      ],
      "name": "getEpochByNumber",
      "outputs": [
        {
          "internalType": "uint256",
          "name": "",
          "type": "uint256"
        },
        {
          "internalType": "uint256",
          "name": "",
          "type": "uint256"
        },
        {
          "internalType": "uint256",
          "name": "",
          "type": "uint256"
        },
        {
          "internalType": "uint256",
          "name": "",
          "type": "uint256"
        }
      ],
      "stateMutability": "view",
      "type": "function"
    },
    {
      "inputs": [
        {
          "internalType": "uint256",
          "name": "_blockNumber",
          "type": "uint256"
        }
      ],
      "name": "getEpochNumberOfBlock",
      "outputs": [
        {
          "internalType": "uint256",
          "name": "",
          "type": "uint256"
        }
      ],
      "stateMutability": "view",
      "type": "function"
    },
    {
      "inputs": [],
      "name": "getEpochProcessingState",
      "outputs": [
        {
          "internalType": "uint256",
          "name": "",
          "type": "uint256"
        },
        {
          "internalType": "uint256",
          "name": "",
          "type": "uint256"
        },
        {
          "internalType": "uint256",
          "name": "",
          "type": "uint256"
        },
        {
          "internalType": "uint256",
          "name": "",
          "type": "uint256"
        },
        {
          "internalType": "uint256",
          "name": "",
          "type": "uint256"
        }
      ],
      "stateMutability": "view",
      "type": "function"
    },
    {
      "inputs": [
        {
          "internalType": "uint256",
          "name": "epoch",
          "type": "uint256"
        }
      ],
      "name": "getFirstBlockAtEpoch",
      "outputs": [
        {
          "internalType": "uint256",
          "name": "",
          "type": "uint256"
        }
      ],
      "stateMutability": "view",
      "type": "function"
    },
    {
      "inputs": [
        {
          "internalType": "uint256",
          "name": "epoch",
          "type": "uint256"
        }
      ],
      "name": "getLastBlockAtEpoch",
      "outputs": [
        {
          "internalType": "uint256",
          "name": "",
          "type": "uint256"
        }
      ],
      "stateMutability": "view",
      "type": "function"
    },
    {
      "inputs": [],
      "name": "getVersionNumber",
      "outputs": [
        {
          "internalType": "uint256",
          "name": "",
          "type": "uint256"
        },
        {
          "internalType": "uint256",
          "name": "",
          "type": "uint256"
        },
        {
          "internalType": "uint256",
          "name": "",
          "type": "uint256"
        },
        {
          "internalType": "uint256",
          "name": "",
          "type": "uint256"
        }
      ],
      "stateMutability": "pure",
      "type": "function"
    },
    {
      "inputs": [
        {
          "internalType": "address",
          "name": "registryAddress",
          "type": "address"
        },
        {
          "internalType": "uint256",
          "name": "newEpochDuration",
          "type": "uint256"
        }
      ],
      "name": "initialize",
      "outputs": [],
      "stateMutability": "nonpayable",
      "type": "function"
    },
    {
      "inputs": [
        {
          "internalType": "uint256",
          "name": "firstEpochNumber",
          "type": "uint256"
        },
        {
          "internalType": "uint256",
          "name": "firstEpochBlock",
          "type": "uint256"
        },
        {
          "internalType": "address[]",
          "name": "firstElected",
          "type": "address[]"
        }
      ],
      "name": "initializeSystem",
      "outputs": [],
      "stateMutability": "nonpayable",
      "type": "function"
    },
    {
      "inputs": [],
      "name": "initialized",
      "outputs": [
        {
          "internalType": "bool",
          "name": "",
          "type": "bool"
        }
      ],
      "stateMutability": "view",
      "type": "function"
    },
    {
      "inputs": [],
      "name": "isBlocked",
      "outputs": [
        {
          "internalType": "bool",
          "name": "",
          "type": "bool"
        }
      ],
      "stateMutability": "view",
      "type": "function"
    },
    {
      "inputs": [],
      "name": "isEpochProcessingStarted",
      "outputs": [
        {
          "internalType": "bool",
          "name": "",
          "type": "bool"
        }
      ],
      "stateMutability": "view",
      "type": "function"
    },
    {
      "inputs": [],
      "name": "isIndividualProcessing",
      "outputs": [
        {
          "internalType": "bool",
          "name": "",
          "type": "bool"
        }
      ],
      "stateMutability": "view",
      "type": "function"
    },
    {
      "inputs": [],
      "name": "isOnEpochProcess",
      "outputs": [
        {
          "internalType": "bool",
          "name": "",
          "type": "bool"
        }
      ],
      "stateMutability": "view",
      "type": "function"
    },
    {
      "inputs": [],
      "name": "isSystemInitialized",
      "outputs": [
        {
          "internalType": "bool",
          "name": "",
          "type": "bool"
        }
      ],
      "stateMutability": "view",
      "type": "function"
    },
    {
      "inputs": [],
      "name": "isTimeForNextEpoch",
      "outputs": [
        {
          "internalType": "bool",
          "name": "",
          "type": "bool"
        }
      ],
      "stateMutability": "view",
      "type": "function"
    },
    {
      "inputs": [],
      "name": "numberOfElectedInCurrentSet",
      "outputs": [
        {
          "internalType": "uint256",
          "name": "",
          "type": "uint256"
        }
      ],
      "stateMutability": "view",
      "type": "function"
    },
    {
      "inputs": [],
      "name": "oracleAddress",
      "outputs": [
        {
          "internalType": "address",
          "name": "",
          "type": "address"
        }
      ],
      "stateMutability": "view",
      "type": "function"
    },
    {
      "inputs": [],
      "name": "owner",
      "outputs": [
        {
          "internalType": "address",
          "name": "",
          "type": "address"
        }
      ],
      "stateMutability": "view",
      "type": "function"
    },
    {
      "inputs": [
        {
          "internalType": "address",
          "name": "group",
          "type": "address"
        },
        {
          "internalType": "address",
          "name": "lesser",
          "type": "address"
        },
        {
          "internalType": "address",
          "name": "greater",
          "type": "address"
        }
      ],
      "name": "processGroup",
      "outputs": [],
      "stateMutability": "nonpayable",
      "type": "function"
    },
    {
      "inputs": [
        {
          "internalType": "address[]",
          "name": "groups",
          "type": "address[]"
        },
        {
          "internalType": "address[]",
          "name": "lessers",
          "type": "address[]"
        },
        {
          "internalType": "address[]",
          "name": "greaters",
          "type": "address[]"
        }
      ],
      "name": "processGroups",
      "outputs": [],
      "stateMutability": "nonpayable",
      "type": "function"
    },
    {
      "inputs": [
        {
          "internalType": "address",
          "name": "",
          "type": "address"
        }
      ],
      "name": "processedGroups",
      "outputs": [
        {
          "internalType": "uint256",
          "name": "",
          "type": "uint256"
        }
      ],
      "stateMutability": "view",
      "type": "function"
    },
    {
      "inputs": [],
      "name": "registry",
      "outputs": [
        {
          "internalType": "contract IRegistry",
          "name": "",
          "type": "address"
        }
      ],
      "stateMutability": "view",
      "type": "function"
    },
    {
      "inputs": [],
      "name": "renounceOwnership",
      "outputs": [],
      "stateMutability": "nonpayable",
      "type": "function"
    },
    {
      "inputs": [
        {
          "internalType": "address",
          "name": "validator",
          "type": "address"
        }
      ],
      "name": "sendValidatorPayment",
      "outputs": [],
      "stateMutability": "nonpayable",
      "type": "function"
    },
    {
      "inputs": [
        {
          "internalType": "uint256",
          "name": "newEpochDuration",
          "type": "uint256"
        }
      ],
      "name": "setEpochDuration",
      "outputs": [],
      "stateMutability": "nonpayable",
      "type": "function"
    },
    {
      "inputs": [
        {
          "internalType": "address",
          "name": "newOracleAddress",
          "type": "address"
        }
      ],
      "name": "setOracleAddress",
      "outputs": [],
      "stateMutability": "nonpayable",
      "type": "function"
    },
    {
      "inputs": [
        {
          "internalType": "address",
          "name": "registryAddress",
          "type": "address"
        }
      ],
      "name": "setRegistry",
      "outputs": [],
      "stateMutability": "nonpayable",
      "type": "function"
    },
    {
      "inputs": [],
      "name": "setToProcessGroups",
      "outputs": [],
      "stateMutability": "nonpayable",
      "type": "function"
    },
    {
      "inputs": [],
      "name": "startNextEpochProcess",
      "outputs": [],
      "stateMutability": "nonpayable",
      "type": "function"
    },
    {
      "inputs": [],
      "name": "systemAlreadyInitialized",
      "outputs": [
        {
          "internalType": "bool",
          "name": "",
          "type": "bool"
        }
      ],
      "stateMutability": "view",
      "type": "function"
    },
    {
      "inputs": [],
      "name": "toProcessGroups",
      "outputs": [
        {
          "internalType": "uint256",
          "name": "",
          "type": "uint256"
        }
      ],
      "stateMutability": "view",
      "type": "function"
    },
    {
      "inputs": [
        {
          "internalType": "address",
          "name": "newOwner",
          "type": "address"
        }
      ],
      "name": "transferOwnership",
      "outputs": [],
      "stateMutability": "nonpayable",
      "type": "function"
    },
    {
      "inputs": [
        {
          "internalType": "address",
          "name": "",
          "type": "address"
        }
      ],
      "name": "validatorPendingPayments",
      "outputs": [
        {
          "internalType": "uint256",
          "name": "",
          "type": "uint256"
        }
      ],
      "stateMutability": "view",
      "type": "function"
    },
    {
      "inputs": [
        {
          "internalType": "address",
          "name": "validator",
          "type": "address"
        },
        {
          "internalType": "uint256",
          "name": "amount",
          "type": "uint256"
        }
      ],
      "name": "_setPaymentAllocation",
      "outputs": [],
      "stateMutability": "nonpayable",
      "type": "function"
    }
  ],
  "bytecode": "0x608060405260006012553480156200001657600080fd5b506001620000243362000030565b50600160025562000089565b600080546001600160a01b03838116610100818102610100600160a81b0319851617855560405193049190911692909183917f8be0079c531659141344cd1fd0a4f28419497f9722a3daafe3b4186f6b6457e091a35050565b61457880620000996000396000f3fe608060405234801561001057600080fd5b50600436106102955760003560e01c80638657f61511610167578063b97dd9e2116100ce578063e0bdfd3211610087578063e0bdfd3214610581578063ebf52c51146105ab578063ef0551d1146105db578063f1542de5146105ee578063f1fcbab114610601578063f2fde38b1461060a57600080fd5b8063b97dd9e214610546578063ba18ee4d1461054e578063bd5a0a3514610556578063cd6dc6871461055e578063d02cfcf314610571578063d75f0da71461057957600080fd5b80639b217558116101205780639b217558146104f55780639f3bf7a0146104fd578063a0fa0d5614610505578063a89ae4ba1461050d578063a91ee0dc14610520578063b5a842cd1461053357600080fd5b80638657f61514610462578063891c48fb146104755780638c25656e1461047e5780638da5cb5b1461049157806398b50905146104a757806398f6c760146104d557600080fd5b806351ccd8f01161020b57806364c2c255116101c457806364c2c255146103ff578063653c356f1461040c578063667f331b1461041f5780636857f6a114610432578063715018a6146104475780637b1039991461044f57600080fd5b806351ccd8f01461038f57806352ba6262146103a257806354255be0146103b557806354454b48146103dc5780635915e077146103e4578063639a84d3146103f757600080fd5b80633a65c4991161025d5780633a65c4991461033d5780633b1eb4bf146103505780634406d661146103635780634408d2ba1461036b5780634c69c00f146103735780634ff0876a1461038657600080fd5b8063158ef93e1461029a578063186b978d146102bc578063210b315b146102ea5780632ba47274146102ff57806330024dfe1461032a575b600080fd5b6000546102a79060ff1681565b60405190151581526020015b60405180910390f35b6102dc6102ca366004613de6565b60096020526000908152604090205481565b6040519081526020016102b3565b6102fd6102f8366004613e0a565b61061d565b005b61031261030d366004613e55565b610819565b6040516001600160a01b0390911681526020016102b3565b6102fd610338366004613e55565b61086d565b61031261034b366004613e55565b61097b565b6102dc61035e366004613e55565b6109a5565b6102a76109e2565b6102dc6109ff565b6102fd610381366004613de6565b610a2c565b6102dc60045481565b6102fd61039d366004613ed9565b610bbf565b6102fd6103b0366004613fd9565b61109b565b6001806000805b6040805194855260208501939093529183015260608201526080016102b3565b6102a7611139565b6102fd6103f2366004613de6565b61115b565b6102dc611698565b6003546102a79060ff1681565b6103bc61041a366004613e55565b6116c5565b6102fd61042d366004613fd9565b611712565b61043a611d85565b6040516102b39190614073565b6102fd611e0b565b600154610312906001600160a01b031681565b610312610470366004613e55565b611e1f565b6102dc60055481565b61031261048c366004613e55565b611e58565b60005461010090046001600160a01b0316610312565b600a54600b54600c54600d54600e546104c49460ff169392919085565b6040516102b39594939291906140d6565b6102dc6104e3366004613de6565b60106020526000908152604090205481565b6102a7611e68565b6102fd611e80565b6102a7612153565b600754610312906001600160a01b031681565b6102fd61052e366004613de6565b61217e565b6102dc610541366004613e55565b612226565b6103bc6122cc565b6102a761230f565b61043a612318565b6102fd61056c366004614119565b61239c565b6102fd6124c3565b6102a76127ae565b6102fd61058f366004614119565b6001600160a01b03909116600090815260106020526040902055565b6105b36127b8565b604080519586526020860194909452928401919091526060830152608082015260a0016102b3565b6102dc6105e9366004613e55565b612801565b6103bc6105fc366004613e55565b6128a4565b6102dc60125481565b6102fd610618366004613de6565b61291c565b600a610627611139565b6106885760405162461bcd60e51b815260206004820152602760248201527f496e646976756475616c2065706f63682070726f63657373206973206e6f74206044820152661cdd185c9d195960ca1b60648201526084015b60405180910390fd5b6000601254116106da5760405162461bcd60e51b815260206004820152601960248201527f6e6f206d6f72652067726f75707320746f2070726f6365737300000000000000604482015260640161067f565b6001600160a01b038416600090815260096020526040902054806107105760405162461bcd60e51b815260040161067f90614145565b600061071a612995565b90506000198214610798576040516312541a6b60e01b81526001600160a01b03878116600483015260248201849052868116604483015285811660648301528216906312541a6b90608401600060405180830381600087803b15801561077f57600080fd5b505af1158015610793573d6000803e3d6000fd5b505050505b6001600160a01b038616600090815260096020526040812081905560128054916107c18361419d565b90915550506006546040516001600160a01b038816907f15ff42ed3ffc7d45600460c399f3a885b3c25e0c4f613266e5fbd5dc80ea14c790600090a3601254600003610811576108118382612a38565b505050505050565b6000610823611e68565b61083f5760405162461bcd60e51b815260040161067f906141b4565b60118281548110610852576108526141eb565b6000918252602090912001546001600160a01b031692915050565b610875612d80565b600081116108db5760405162461bcd60e51b815260206004820152602d60248201527f4e65772065706f6368206475726174696f6e206d75737420626520677265617460448201526c32b9103a3430b7103d32b9379760991b606482015260840161067f565b6108e361230f565b156109485760405162461bcd60e51b815260206004820152602f60248201527f43616e6e6f74206368616e67652065706f6368206475726174696f6e2064757260448201526e34b73390383937b1b2b9b9b4b7339760891b606482015260840161067f565b600481905560405181907fe018a3a09e27f3987d8cbe7e32e55899996a50099fb79f333c0030831842eeb090600090a250565b6011818154811061098b57600080fd5b6000918252602090912001546001600160a01b0316905081565b60006109af611e68565b6109cb5760405162461bcd60e51b815260040161067f906141b4565b60006109d683612de0565b50929695505050505050565b60006109ec61230f565b806109fa57506109fa611139565b905090565b6000610a09611e68565b610a255760405162461bcd60e51b815260040161067f906141b4565b5060065490565b610a34612d80565b6001600160a01b038116610a995760405162461bcd60e51b815260206004820152602660248201527f43616e6e6f74207365742061646472657373207a65726f20617320746865204f6044820152653930b1b6329760d11b606482015260840161067f565b6007546001600160a01b0390811690821603610b025760405162461bcd60e51b815260206004820152602260248201527f4f7261636c6520616464726573732063616e6e6f74206265207468652073616d604482015261329760f11b606482015260840161067f565b610b0a61230f565b15610b755760405162461bcd60e51b815260206004820152603560248201527f43616e6e6f74206368616e6765206f7261636c6520616464726573732064757260448201527434b7339032b837b1b410383937b1b2b9b9b4b7339760591b606482015260840161067f565b600780546001600160a01b0319166001600160a01b0383169081179091556040517fdd82bdfc28fcc826c53263dc2a2b6083e27e92699ebfee617227e08e21c202f090600090a250565b6001546040517222b837b1b426b0b730b3b2b922b730b13632b960691b60208201526001600160a01b039091169063dcf0aaed90603301604051602081830303815290604052805190602001206040518263ffffffff1660e01b8152600401610c2a91815260200190565b602060405180830381865afa158015610c47573d6000803e3d6000fd5b505050506040513d601f19601f82011682018060405250810190610c6b9190614201565b6001600160a01b0316336001600160a01b031614610ccb5760405162461bcd60e51b815260206004820152601960248201527f6d73672e73656e646572206973206e6f7420456e61626c657200000000000000604482015260640161067f565b6000610cd5613078565b6001546040517543656c6f556e72656c6561736564547265617375727960501b60208201526001600160a01b03928316926370a0823192169063dcf0aaed90603601604051602081830303815290604052805190602001206040518263ffffffff1660e01b8152600401610d4b91815260200190565b602060405180830381865afa158015610d68573d6000803e3d6000fd5b505050506040513d601f19601f82011682018060405250810190610d8c9190614201565b6040516001600160e01b031960e084901b1681526001600160a01b039091166004820152602401602060405180830381865afa158015610dd0573d6000803e3d6000fd5b505050506040513d601f19601f82011682018060405250810190610df4919061421e565b11610e505760405162461bcd60e51b815260206004820152602660248201527f43656c6f556e72656c65617365645472656173757279206e6f742079657420666044820152653ab73232b21760d11b606482015260840161067f565b610e58611e68565b15610ea55760405162461bcd60e51b815260206004820181905260248201527f45706f63682073797374656d20616c726561647920696e697469616c697a6564604482015260640161067f565b60008311610f075760405162461bcd60e51b815260206004820152602960248201527f46697273742065706f6368206e756d626572206d75737420626520677265617460448201526806572207468616e20360bc1b606482015260840161067f565b60008211610f685760405162461bcd60e51b815260206004820152602860248201527f46697273742065706f636820626c6f636b206d75737420626520677265617465604482015267072207468616e20360c41b606482015260840161067f565b43821115610fde5760405162461bcd60e51b815260206004820152603a60248201527f46697273742065706f636820626c6f636b206d757374206265206c657373206f60448201527f7220657175616c207468616e2063757272656e7420626c6f636b000000000000606482015260840161067f565b60008151116110475760405162461bcd60e51b815260206004820152602f60248201527f466972737420656c65637465642076616c696461746f7273206d75737420626560448201526e02067726561746572207468616e203608c1b606482015260840161067f565b6003805460ff19166001179055600583905560068390556000838152600f602090815260409091208381554260028201558251909161108b91600891850190613d57565b50611095826130ab565b50505050565b60005b858110156111305761111e8787838181106110bb576110bb6141eb565b90506020020160208101906110d09190613de6565b8686848181106110e2576110e26141eb565b90506020020160208101906110f79190613de6565b858585818110611109576111096141eb565b90506020020160208101906102f89190613de6565b8061112881614237565b91505061109e565b50505050505050565b600060025b600a5460ff166002811115611155576111556140c0565b14905090565b611163611e68565b61117f5760405162461bcd60e51b815260040161067f906141b4565b6001600160a01b0381166000908152601060205260408120546111a19061325f565b6001600160a01b03831660009081526010602052604081208190559091506111c761331d565b60405163bb0f1fa560e01b81526001600160a01b03858116600483015291925060009183169063bb0f1fa590602401602060405180830381865afa158015611213573d6000803e3d6000fd5b505050506040513d601f19601f820116820180604052508101906112379190614201565b604051639b9d516160e01b81526001600160a01b038083166004830152919250600091841690639b9d516190602401600060405180830381865afa158015611283573d6000803e3d6000fd5b505050506040513d6000823e601f3d908101601f191682016040526112ab91908101906142bf565b505050505091505060006112e96112e46112dd8460408051602080820183526000909152815190810190915290815290565b8790613351565b6136c2565b90506000611309826112fa886136c2565b61130491906143aa565b61325f565b90506000806113166136dc565b604051639f024f4b60e01b81526001600160a01b038b811660048301529190911690639f024f4b906024016040805180830381865afa15801561135d573d6000803e3d6000fd5b505050506040513d601f19601f8201168201806040525081019061138191906143bd565b9150915060006113b66112e46113af8460408051602080820183526000909152815190810190915290815290565b8690613351565b90506000816113c4866136c2565b6113ce91906143aa565b905060006113da61370e565b905081156114a15760405163a9059cbb60e01b81526001600160a01b038d811660048301526024820184905282169063a9059cbb906044016020604051808303816000875af1158015611431573d6000803e3d6000fd5b505050506040513d601f19601f8201168201806040525081019061145591906143eb565b6114a15760405162461bcd60e51b815260206004820152601c60248201527f7472616e73666572206661696c656420746f2076616c696461746f7200000000604482015260640161067f565b86156115715760405163a9059cbb60e01b81526001600160a01b038a811660048301526024820189905282169063a9059cbb906044016020604051808303816000875af11580156114f6573d6000803e3d6000fd5b505050506040513d601f19601f8201168201806040525081019061151a91906143eb565b6115715760405162461bcd60e51b815260206004820152602260248201527f7472616e73666572206661696c656420746f2076616c696461746f722067726f604482015261075760f41b606482015260840161067f565b82156116365760405163a9059cbb60e01b81526001600160a01b0386811660048301526024820185905282169063a9059cbb906044016020604051808303816000875af11580156115c6573d6000803e3d6000fd5b505050506040513d601f19601f820116820180604052508101906115ea91906143eb565b6116365760405162461bcd60e51b815260206004820152601c60248201527f7472616e73666572206661696c656420746f2064656c65676174656500000000604482015260640161067f565b60408051838152602081018990529081018490526001600160a01b03808716918b8216918f16907fee2788e7abedfc61d9608e143b172de1a608a4298b06ed8c84838aa0ad6bd1369060600160405180910390a4505050505050505050505050565b60006116a2611e68565b6116be5760405162461bcd60e51b815260040161067f906141b4565b5060085490565b6000806000806116d3611e68565b6116ef5760405162461bcd60e51b815260040161067f906141b4565b6000806000806116fe89612de0565b929d919c509a509098509650505050505050565b60028054036117635760405162461bcd60e51b815260206004820152601f60248201527f5265656e7472616e637947756172643a207265656e7472616e742063616c6c00604482015260640161067f565b6002805561176f61230f565b6117bb5760405162461bcd60e51b815260206004820152601c60248201527f45706f63682070726f63657373206973206e6f74207374617274656400000000604482015260640161067f565b601254156118315760405162461bcd60e51b815260206004820152603e60248201527f43616e27742066696e6973682065706f6368207768696c6520696e646976696460448201527f75616c2067726f75707320617265206265696e672070726f6365737365640000606482015260840161067f565b600a60008061183e61331d565b9050600061184a612995565b90506000611856613743565b6011546008549192501461187c5760405162461bcd60e51b815260040161067f9061440d565b60005b600854811015611adc576000846001600160a01b031663bb0f1fa5600884815481106118ad576118ad6141eb565b60009182526020909120015460405160e083901b6001600160e01b03191681526001600160a01b039091166004820152602401602060405180830381865afa1580156118fd573d6000803e3d6000fd5b505050506040513d601f19601f820116820180604052508101906119219190614201565b6001600160a01b03811660009081526009602052604081205491925003611a70578561194c81614237565b6040516310e0415560e11b81526001600160a01b03848116600483015291985060009250908516906321c082aa90602401602060405180830381865afa15801561199a573d6000803e3d6000fd5b505050506040513d601f19601f820116820180604052508101906119be919061421e565b6002890154604051622400b960e71b81526001600160a01b038581166004830152602482019290925260448101839052919250600091908716906312005c8090606401602060405180830381865afa158015611a1e573d6000803e3d6000fd5b505050506040513d601f19601f82011682018060405250810190611a42919061421e565b90508015611a505780611a54565b6000195b6001600160a01b03841660009081526009602052604090205550505b60088281548110611a8357611a836141eb565b600091825260209091200180546001600160a01b03191690556011805483908110611ab057611ab06141eb565b600091825260209091200180546001600160a01b03191690555080611ad481614237565b91505061187f565b50838a14611b2c5760405162461bcd60e51b815260206004820152601f60248201527f6e756d626572206f662067726f75707320646f6573206e6f74206d6174636800604482015260640161067f565b60005b8a811015611d68576000600960008e8e85818110611b4f57611b4f6141eb565b9050602002016020810190611b649190613de6565b6001600160a01b03166001600160a01b0316815260200190815260200160002054905060008111611ba75760405162461bcd60e51b815260040161067f90614145565b6000198114611ca757836001600160a01b03166312541a6b8e8e85818110611bd157611bd16141eb565b9050602002016020810190611be69190613de6565b838e8e87818110611bf957611bf96141eb565b9050602002016020810190611c0e9190613de6565b8d8d88818110611c2057611c206141eb565b9050602002016020810190611c359190613de6565b60405160e086901b6001600160e01b03191681526001600160a01b039485166004820152602481019390935290831660448301529091166064820152608401600060405180830381600087803b158015611c8e57600080fd5b505af1158015611ca2573d6000803e3d6000fd5b505050505b600960008e8e85818110611cbd57611cbd6141eb565b9050602002016020810190611cd29190613de6565b6001600160a01b03166001600160a01b03168152602001908152602001600020600090556006548d8d84818110611d0b57611d0b6141eb565b9050602002016020810190611d209190613de6565b6001600160a01b03167f15ff42ed3ffc7d45600460c399f3a885b3c25e0c4f613266e5fbd5dc80ea14c760405160405180910390a35080611d6081614237565b915050611b2f565b50611d738583612a38565b50506001600255505050505050505050565b6060611d8f611e68565b611dab5760405162461bcd60e51b815260040161067f906141b4565b6008805480602002602001604051908101604052809291908181526020018280548015611e0157602002820191906000526020600020905b81546001600160a01b03168152600190910190602001808311611de3575b5050505050905090565b611e13612d80565b611e1d6000613779565b565b6000611e29611e68565b611e455760405162461bcd60e51b815260040161067f906141b4565b60088281548110610852576108526141eb565b6008818154811061098b57600080fd5b6000805460ff1680156109fa57505060035460ff1690565b6002805403611ed15760405162461bcd60e51b815260206004820152601f60248201527f5265656e7472616e637947756172643a207265656e7472616e742063616c6c00604482015260640161067f565b60028055611edd611e68565b611ef95760405162461bcd60e51b815260040161067f906141b4565b611f01612153565b611f4d5760405162461bcd60e51b815260206004820152601b60248201527f45706f6368206973206e6f7420726561647920746f2073746172740000000000604482015260640161067f565b6000600a5460ff166002811115611f6657611f666140c0565b14611fb35760405162461bcd60e51b815260206004820181905260248201527f45706f63682070726f6365737320697320616c72656164792073746172746564604482015260640161067f565b611fbb6109e2565b156120085760405162461bcd60e51b815260206004820181905260248201527f45706f63682070726f6365737320697320616c72656164792073746172746564604482015260640161067f565b600a805460ff191660011790556006546000908152600f60205260409020436003909101556120356137d2565b6001600160a01b03166392ecd7456040518163ffffffff1660e01b8152600401600060405180830381600087803b15801561206f57600080fd5b505af1158015612083573d6000803e3d6000fd5b505050506000806000806120956137d2565b6001600160a01b031663643470436040518163ffffffff1660e01b8152600401608060405180830381865afa1580156120d2573d6000803e3d6000fd5b505050506040513d601f19601f820116820180604052508101906120f6919061445f565b600b849055600c839055600d829055600e8190559296509094509250905061211c613808565b6006546040517fae58a33f8b8d696bcbaca9fa29d9fdc336c140e982196c2580db3d46f3e6d4b690600090a2505060016002555050565b6004546006546000908152600f6020526040812060020154909161217691614495565b421015905090565b612186612d80565b6001600160a01b0381166121dc5760405162461bcd60e51b815260206004820181905260248201527f43616e6e6f7420726567697374657220746865206e756c6c2061646472657373604482015260640161067f565b600180546001600160a01b0319166001600160a01b0383169081179091556040517f27fe5f0c1c3b1ed427cc63d0f05759ffdecf9aec9e18d31ef366fc8a6cb5dc3b90600090a250565b600060055482101561226c5760405162461bcd60e51b815260206004820152600f60248201526e22b837b1b4103737ba1035b737bbb760891b604482015260640161067f565b60065482106122b65760405162461bcd60e51b8152602060048201526016602482015275115c1bd8da081b9bdd08199a5b9a5cda1959081e595d60521b604482015260640161067f565b506000908152600f602052604090206001015490565b6000806000806122da611e68565b6122f65760405162461bcd60e51b815260040161067f906141b4565b6123016006546128a4565b935093509350935090919293565b6000600161113e565b6060612322611e68565b61233e5760405162461bcd60e51b815260040161067f906141b4565b6011805480602002602001604051908101604052809291908181526020018280548015611e01576020028201919060005260206000209081546001600160a01b03168152600190910190602001808311611de3575050505050905090565b60005460ff16156123ef5760405162461bcd60e51b815260206004820152601c60248201527f636f6e747261637420616c726561647920696e697469616c697a656400000000604482015260640161067f565b6000805460ff1916600117905561240533613779565b61240e8261217e565b6124178161086d565b6001546040516c536f727465644f7261636c657360981b60208201526124bf916001600160a01b03169063dcf0aaed90602d01604051602081830303815290604052805190602001206040518263ffffffff1660e01b815260040161247e91815260200190565b602060405180830381865afa15801561249b573d6000803e3d6000fd5b505050506040513d601f19601f820116820180604052508101906103819190614201565b5050565b6124cb61230f565b6125175760405162461bcd60e51b815260206004820152601c60248201527f45706f63682070726f63657373206973206e6f74207374617274656400000000604482015260640161067f565b600a805460ff19166002178155600061252e61331d565b9050600061253a612995565b90506000612546613743565b6011546008549192501461256c5760405162461bcd60e51b815260040161067f9061440d565b60005b6008548110156127a7576000846001600160a01b031663bb0f1fa56008848154811061259d5761259d6141eb565b60009182526020909120015460405160e083901b6001600160e01b03191681526001600160a01b039091166004820152602401602060405180830381865afa1580156125ed573d6000803e3d6000fd5b505050506040513d601f19601f820116820180604052508101906126119190614201565b6001600160a01b03811660009081526009602052604081205491925003612794576012805490600061264283614237565b90915550506040516310e0415560e11b81526001600160a01b038281166004830152600091908516906321c082aa90602401602060405180830381865afa158015612691573d6000803e3d6000fd5b505050506040513d601f19601f820116820180604052508101906126b5919061421e565b6002880154604051622400b960e71b81526001600160a01b038581166004830152602482019290925260448101839052919250600091908716906312005c8090606401602060405180830381865afa158015612715573d6000803e3d6000fd5b505050506040513d601f19601f82011682018060405250810190612739919061421e565b90508015612747578061274b565b6000195b6001600160a01b0384166000818152600960205260408082209390935560065492517f3ec722331926c18d5406855ed1fea4cd09f6bebb788160c5f43b107525d4b3329190a350505b508061279f81614237565b91505061256f565b5050505050565b60006109fa6109e2565b600a805460009182918291829182919060ff1660028111156127dc576127dc6140c0565b6001820154600283015460038401546004909401549299919850965091945092509050565b60006005548210156128475760405162461bcd60e51b815260206004820152600f60248201526e22b837b1b4103737ba1035b737bbb760891b604482015260640161067f565b6006548211156128915760405162461bcd60e51b8152602060048201526015602482015274115c1bd8da081b9bdd0818dc99585d1959081e595d605a1b604482015260640161067f565b506000908152600f602052604090205490565b6000806000806128b2611e68565b6128ce5760405162461bcd60e51b815260040161067f906141b4565b505050600091825250600f6020908152604091829020825160808101845281548082526001830154938201849052600283015494820185905260039092015460609091018190529093919291565b612924612d80565b6001600160a01b0381166129895760405162461bcd60e51b815260206004820152602660248201527f4f776e61626c653a206e6577206f776e657220697320746865207a65726f206160448201526564647265737360d01b606482015260840161067f565b61299281613779565b50565b6001546040516722b632b1ba34b7b760c11b60208201526000916001600160a01b03169063dcf0aaed906028015b604051602081830303815290604052805190602001206040518263ffffffff1660e01b81526004016129f791815260200190565b602060405180830381865afa158015612a14573d6000803e3d6000fd5b505050506040513d601f19601f820116820180604052508101906109fa9190614201565b612a436001436143aa565b600680546000908152600f6020526040812060010192909255805491612a6883614237565b9091555050600680546000908152600f6020526040808220439055915481528181204260029091015581516330d35a8360e11b8152915190916001600160a01b038416916361a6b5069160048082019286929091908290030181865afa158015612ad6573d6000803e3d6000fd5b505050506040513d6000823e601f3d908101601f19168201604052612afe91908101906144a8565b8051909150612b14906008906020840190613d57565b50612b1e816130ab565b6000612b28613c0d565b60015460405169476f7665726e616e636560b01b60208201529192506001600160a01b0380841692630357371d92919091169063dcf0aaed90602a01604051602081830303815290604052805190602001206040518263ffffffff1660e01b8152600401612b9891815260200190565b602060405180830381865afa158015612bb5573d6000803e3d6000fd5b505050506040513d601f19601f82011682018060405250810190612bd99190614201565b60038701546040516001600160e01b031960e085901b1681526001600160a01b0390921660048301526024820152604401600060405180830381600087803b158015612c2457600080fd5b505af1158015612c38573d6000803e3d6000fd5b50505050806001600160a01b0316630357371d612c536137d2565b6001600160a01b03166322dae21f6040518163ffffffff1660e01b8152600401602060405180830381865afa158015612c90573d6000803e3d6000fd5b505050506040513d601f19601f82011682018060405250810190612cb49190614201565b86600401546040518363ffffffff1660e01b8152600401612cea9291906001600160a01b03929092168252602082015260400190565b600060405180830381600087803b158015612d0457600080fd5b505af1158015612d18573d6000803e3d6000fd5b5050855460ff1916865550506000600180860182905560028601829055600386018290556004860191909155600654612d5191906143aa565b6040517fc8e58d8e6979dd5e68bad79d4a4368a1091f6feb2323e612539b1b84e0663a8f90600090a250505050565b6000546001600160a01b03610100909104163314611e1d5760405162461bcd60e51b815260206004820181905260248201527f4f776e61626c653a2063616c6c6572206973206e6f7420746865206f776e6572604482015260640161067f565b6000806000806000612df0611e68565b612e0c5760405162461bcd60e51b815260040161067f906141b4565b43861115612e685760405162461bcd60e51b8152602060048201526024808201527f496e76616c696420626c6f636b4e756d6265722e2056616c756520746f6f206860448201526334b3b41760e11b606482015260840161067f565b6000612e756005546128a4565b505050905080871015612ed65760405162461bcd60e51b815260206004820152602360248201527f496e76616c696420626c6f636b4e756d6265722e2056616c756520746f6f206c60448201526237bb9760e91b606482015260840161067f565b6006546000908152600f6020526040902054808810612f1b57600080600080612f006006546128a4565b6006549e50929c50909a509850965061306f95505050505050565b600554600654600090612f30906001906143aa565b90505b80821161300b5760006002612f488385614495565b612f5291906144e5565b6000818152600f60205260409020805460019091015491925090818d10801590612f7c5750808d11155b15612fdb5750506000818152600f602090815260409182902082516080810184528154808252600183015493820184905260028301549482018590526003909201546060909101819052939c509a5098509650945061306f9350505050565b818d1015612ff557612fee6001846143aa565b9350613003565b613000836001614495565b94505b505050612f33565b60405162461bcd60e51b815260206004820152603360248201527f4e6f206d61746368696e672065706f636820666f756e6420666f72207468652060448201527233b4bb32b710313637b1b590373ab6b132b91760691b606482015260840161067f565b91939590929450565b6001546040516821b2b637aa37b5b2b760b91b60208201526000916001600160a01b03169063dcf0aaed906029016129c3565b6008546131065760405162461bcd60e51b815260206004820152602360248201527f456c6563746564206c697374206c656e6774682063616e6e6f74206265207a6560448201526239379760e91b606482015260840161067f565b60006131106136dc565b9050815167ffffffffffffffff81111561312c5761312c613e6e565b604051908082528060200260200182016040528015613155578160200160208202803683370190505b50805161316a91601191602090910190613d57565b5060005b825181101561325a57816001600160a01b0316634ce38b5f848381518110613198576131986141eb565b60200260200101516040518263ffffffff1660e01b81526004016131cb91906001600160a01b0391909116815260200190565b602060405180830381865afa1580156131e8573d6000803e3d6000fd5b505050506040513d601f19601f8201168201806040525081019061320c9190614201565b6011828154811061321f5761321f6141eb565b600091825260209091200180546001600160a01b0319166001600160a01b03929092169190911790558061325281614237565b91505061316e565b505050565b6040805160208101909152600081527601357c299a88ea76a58924d52ce4f26a85af186c2b9e748211156132f45760405162461bcd60e51b815260206004820152603660248201527f63616e277420637265617465206669786964697479206e756d626572206c6172604482015275676572207468616e206d61784e65774669786564282960501b606482015260840161067f565b604051806020016040528069d3c21bcecceda1000000846133159190614507565b905292915050565b6001546040516956616c696461746f727360b01b60208201526000916001600160a01b03169063dcf0aaed90602a016129c3565b6040805160208101909152600081528251158061336d57508151155b1561338757506040805160208101909152600081526136bc565b815169d3c21bcecceda0ffffff19016133a15750816136bc565b825169d3c21bcecceda0ffffff19016133bb5750806136bc565b600069d3c21bcecceda10000006133d185613c4d565b516133dc91906144e5565b905060006133e985613c8c565b519050600069d3c21bcecceda100000061340286613c4d565b5161340d91906144e5565b9050600061341a86613c8c565b51905060006134298386614507565b90508415613482578261343c86836144e5565b146134825760405162461bcd60e51b81526020600482015260166024820152751bdd995c999b1bddc81e0c5e4c4819195d1958dd195960521b604482015260640161067f565b600061349869d3c21bcecceda100000083614507565b905081156135025769d3c21bcecceda10000006134b583836144e5565b146135025760405162461bcd60e51b815260206004820152601f60248201527f6f766572666c6f772078317931202a2066697865643120646574656374656400604482015260640161067f565b90508060006135118587614507565b9050851561356a578461352487836144e5565b1461356a5760405162461bcd60e51b81526020600482015260166024820152751bdd995c999b1bddc81e0c9e4c4819195d1958dd195960521b604482015260640161067f565b60006135768589614507565b905087156135cf578461358989836144e5565b146135cf5760405162461bcd60e51b81526020600482015260166024820152751bdd995c999b1bddc81e0c5e4c8819195d1958dd195960521b604482015260640161067f565b6135de64e8d4a51000886144e5565b96506135ef64e8d4a51000866144e5565b945060006135fd8689614507565b90508715613656578561361089836144e5565b146136565760405162461bcd60e51b81526020600482015260166024820152751bdd995c999b1bddc81e0c9e4c8819195d1958dd195960521b604482015260640161067f565b604080516020808201835287825282519081019092528482529061367b908290613cd7565b905061369581604051806020016040528086815250613cd7565b90506136af81604051806020016040528085815250613cd7565b9a50505050505050505050505b92915050565b80516000906136bc9069d3c21bcecceda1000000906144e5565b600154604051674163636f756e747360c01b60208201526000916001600160a01b03169063dcf0aaed906028016129c3565b6001546040516a29ba30b13632aa37b5b2b760a91b60208201526000916001600160a01b03169063dcf0aaed90602b016129c3565b6001546040516b29b1b7b932a6b0b730b3b2b960a11b60208201526000916001600160a01b03169063dcf0aaed90602c016129c3565b600080546001600160a01b03838116610100818102610100600160a81b0319851617855560405193049190911692909183917f8be0079c531659141344cd1fd0a4f28419497f9722a3daafe3b4186f6b6457e091a35050565b6001546040516b45706f63685265776172647360a01b60208201526000916001600160a01b03169063dcf0aaed90602c016129c3565b600080613813613743565b9050600061381f61331d565b9050600a60005b6008548110156139e8576000846001600160a01b031663e5079ddc60088481548110613854576138546141eb565b60009182526020909120015460405160e083901b6001600160e01b03191681526001600160a01b039091166004820152602401602060405180830381865afa1580156138a4573d6000803e3d6000fd5b505050506040513d601f19601f820116820180604052508101906138c8919061421e565b90506000846001600160a01b031663087c344e600885815481106138ee576138ee6141eb565b600091825260209091200154600187015460405160e084901b6001600160e01b03191681526001600160a01b039092166004830152602482018690526044820152606401602060405180830381865afa15801561394f573d6000803e3d6000fd5b505050506040513d601f19601f82011682018060405250810190613973919061421e565b905080601060006008868154811061398d5761398d6141eb565b60009182526020808320909101546001600160a01b03168352820192909252604001812080549091906139c1908490614495565b909155506139d190508188614495565b9650505080806139e090614237565b915050613826565b50836000036139f75750505050565b604051633a90822b60e21b8152600481018590526001600160a01b0383169063ea4208ac90602401600060405180830381600087803b158015613a3957600080fd5b505af1158015613a4d573d6000803e3d6000fd5b5050600754600092508291506001600160a01b031663efb7601d613a6f61370e565b6040516001600160e01b031960e084901b1681526001600160a01b0390911660048201526024016040805180830381865afa158015613ab2573d6000803e3d6000fd5b505050506040513d601f19601f82011682018060405250810190613ad6919061451e565b9092509050600081613ae88885614507565b613af291906144e5565b9050613afc613c0d565b600154604051665265736572766560c81b60208201526001600160a01b0392831692630357371d92169063dcf0aaed90602701604051602081830303815290604052805190602001206040518263ffffffff1660e01b8152600401613b6391815260200190565b602060405180830381865afa158015613b80573d6000803e3d6000fd5b505050506040513d601f19601f82011682018060405250810190613ba49190614201565b6040516001600160e01b031960e084901b1681526001600160a01b03909116600482015260248101849052604401600060405180830381600087803b158015613bec57600080fd5b505af1158015613c00573d6000803e3d6000fd5b5050505050505050505050565b6001546040517543656c6f556e72656c6561736564547265617375727960501b60208201526000916001600160a01b03169063dcf0aaed906036016129c3565b604080516020810190915260008152604051806020016040528069d3c21bcecceda1000000808560000151613c8291906144e5565b6133159190614507565b604080516020810190915260008152604051806020016040528069d3c21bcecceda1000000808560000151613cc191906144e5565b613ccb9190614507565b845161331591906143aa565b60408051602081019091526000815281518351600091613cf691614495565b8451909150811015613d425760405162461bcd60e51b8152602060048201526015602482015274185919081bdd995c999b1bddc819195d1958dd1959605a1b604482015260640161067f565b60408051602081019091529081529392505050565b828054828255906000526020600020908101928215613dac579160200282015b82811115613dac57825182546001600160a01b0319166001600160a01b03909116178255602090920191600190910190613d77565b50613db8929150613dbc565b5090565b5b80821115613db85760008155600101613dbd565b6001600160a01b038116811461299257600080fd5b600060208284031215613df857600080fd5b8135613e0381613dd1565b9392505050565b600080600060608486031215613e1f57600080fd5b8335613e2a81613dd1565b92506020840135613e3a81613dd1565b91506040840135613e4a81613dd1565b809150509250925092565b600060208284031215613e6757600080fd5b5035919050565b634e487b7160e01b600052604160045260246000fd5b604051601f8201601f1916810167ffffffffffffffff81118282101715613ead57613ead613e6e565b604052919050565b600067ffffffffffffffff821115613ecf57613ecf613e6e565b5060051b60200190565b600080600060608486031215613eee57600080fd5b833592506020808501359250604085013567ffffffffffffffff811115613f1457600080fd5b8501601f81018713613f2557600080fd5b8035613f38613f3382613eb5565b613e84565b81815260059190911b82018301908381019089831115613f5757600080fd5b928401925b82841015613f7e578335613f6f81613dd1565b82529284019290840190613f5c565b80955050505050509250925092565b60008083601f840112613f9f57600080fd5b50813567ffffffffffffffff811115613fb757600080fd5b6020830191508360208260051b8501011115613fd257600080fd5b9250929050565b60008060008060008060608789031215613ff257600080fd5b863567ffffffffffffffff8082111561400a57600080fd5b6140168a838b01613f8d565b9098509650602089013591508082111561402f57600080fd5b61403b8a838b01613f8d565b9096509450604089013591508082111561405457600080fd5b5061406189828a01613f8d565b979a9699509497509295939492505050565b6020808252825182820181905260009190848201906040850190845b818110156140b45783516001600160a01b03168352928401929184019160010161408f565b50909695505050505050565b634e487b7160e01b600052602160045260246000fd5b60a08101600387106140f857634e487b7160e01b600052602160045260246000fd5b95815260208101949094526040840192909252606083015260809091015290565b6000806040838503121561412c57600080fd5b823561413781613dd1565b946020939093013593505050565b60208082526022908201527f67726f7570206e6f742066726f6d2063757272656e7420656c65637465642073604082015261195d60f21b606082015260800190565b634e487b7160e01b600052601160045260246000fd5b6000816141ac576141ac614187565b506000190190565b6020808252601c908201527f45706f63682073797374656d206e6f7420696e697469616c697a656400000000604082015260600190565b634e487b7160e01b600052603260045260246000fd5b60006020828403121561421357600080fd5b8151613e0381613dd1565b60006020828403121561423057600080fd5b5051919050565b60006001820161424957614249614187565b5060010190565b600082601f83011261426157600080fd5b81516020614271613f3383613eb5565b82815260059290921b8401810191818101908684111561429057600080fd5b8286015b848110156142b45780516142a781613dd1565b8352918301918301614294565b509695505050505050565b600080600080600080600060e0888a0312156142da57600080fd5b875167ffffffffffffffff808211156142f257600080fd5b6142fe8b838c01614250565b985060209150818a0151975060408a0151965060608a0151955060808a01518181111561432a57600080fd5b8a019050601f81018b1361433d57600080fd5b805161434b613f3382613eb5565b81815260059190911b8201830190838101908d83111561436a57600080fd5b928401925b828410156143885783518252928401929084019061436f565b809750505050505060a0880151915060c0880151905092959891949750929550565b818103818111156136bc576136bc614187565b600080604083850312156143d057600080fd5b82516143db81613dd1565b6020939093015192949293505050565b6000602082840312156143fd57600080fd5b81518015158114613e0357600080fd5b60208082526032908201527f456c6563746564206163636f756e747320616e64207369676e657273206f66206040820152713234b33332b932b73a103632b733ba34399760711b606082015260800190565b6000806000806080858703121561447557600080fd5b505082516020840151604085015160609095015191969095509092509050565b808201808211156136bc576136bc614187565b6000602082840312156144ba57600080fd5b815167ffffffffffffffff8111156144d157600080fd5b6144dd84828501614250565b949350505050565b60008261450257634e487b7160e01b600052601260045260246000fd5b500490565b80820281158282048414176136bc576136bc614187565b6000806040838503121561453157600080fd5b50508051602090910151909290915056fea26469706673582212200db586f448769c6a29a6cc0b8215bc36f49795ba5f877eb51624d7a6f4c1057164736f6c63430008130033",
  "immutableReferences": {},
  "source": "// SPDX-License-Identifier: UNLICENSED\npragma solidity >=0.8.7 <0.8.20;\n\nimport \"../EpochManager.sol\";\n\ncontract EpochManager_WithMocks is EpochManager(true) {\n  function _setPaymentAllocation(address validator, uint256 amount) external {\n    validatorPendingPayments[validator] = amount;\n  }\n}\n",
  "sourcePath": "/Users/beaver/Development/temp/celo-monorepo/packages/protocol/contracts-0.8/common/mocks/EpochManager_WithMocks.sol",
  "compiler": {
    "name": "solc",
    "version": "0.8.19+commit.7dd6d404.Emscripten.clang"
  },
  "schemaVersion": "3.4.13",
  "updatedAt": "2025-05-05T17:49:34.177Z",
  "devdoc": {
    "events": {
      "EpochDurationSet(uint256)": {
        "params": {
          "newEpochDuration": "The new epoch duration."
        }
      },
      "EpochProcessingEnded(uint256)": {
        "params": {
          "epochNumber": "The epoch number that is finished being processed."
        }
      },
      "EpochProcessingStarted(uint256)": {
        "params": {
          "epochNumber": "The epoch number that is being processed."
        }
      },
      "GroupMarkedForProcessing(address,uint256)": {
        "params": {
          "epochNumber": "The epoch number for which the group gets marked for processing.",
          "group": "Address of the group to be processed."
        }
      },
      "GroupProcessed(address,uint256)": {
        "params": {
          "epochNumber": "The epoch number for which the group gets processed.",
          "group": "Address of the processed group."
        }
      },
      "OracleAddressSet(address)": {
        "params": {
          "newOracleAddress": "The new oracle address."
        }
      },
      "ValidatorEpochPaymentDistributed(address,uint256,address,uint256,address,uint256)": {
        "params": {
          "group": "Address of the validator's group.",
          "groupPayment": "Amount of cUSD sent to the group.",
          "validator": "Address of the validator.",
          "validatorPayment": "Amount of cUSD sent to the validator."
        }
      }
    },
    "kind": "dev",
    "methods": {
      "finishNextEpochProcess(address[],address[],address[])": {
        "params": {
          "greaters": "List of validator groups that hold more votes that indexed group.",
          "groups": "List of validator groups to be processed.",
          "lessers": "List of validator groups that hold less votes that indexed group."
        }
      },
      "getCurrentEpoch()": {
        "returns": {
          "_0": "firstEpoch The first block of the current epoch.",
          "_1": "lastBlock The last block of the current epoch.",
          "_2": "startTimestamp The starting timestamp of the current epoch.",
          "_3": "rewardsBlock The reward block of the current epoch."
        }
      },
      "getCurrentEpochNumber()": {
        "details": "Can only be called once the system is initialized.",
        "returns": {
          "_0": "The current epoch number."
        }
      },
      "getElectedAccountByIndex(uint256)": {
        "params": {
          "index": "The index of the currently elected account."
        }
      },
      "getElectedAccounts()": {
        "returns": {
          "_0": "The list of currently elected validators."
        }
      },
      "getElectedSignerByIndex(uint256)": {
        "params": {
          "index": "The index of the currently elected signer."
        }
      },
      "getElectedSigners()": {
        "returns": {
          "_0": "The list of the validator signers of elected validators."
        }
      },
      "getEpochByBlockNumber(uint256)": {
        "params": {
          "_blockNumber": "Block number of the epoch info is retreived."
        },
        "returns": {
          "_0": "firstEpoch The first block of the given block number.",
          "_1": "lastBlock The first block of the given block number.",
          "_2": "startTimestamp The starting timestamp of the given block number.",
          "_3": "rewardsBlock The reward block of the given block number."
        }
      },
      "getEpochByNumber(uint256)": {
        "params": {
          "epochNumber": "Epoch number where the epoch info is retreived."
        },
        "returns": {
          "_0": "firstEpoch The first block of the given epoch.",
          "_1": "lastBlock The first block of the given epoch.",
          "_2": "startTimestamp The starting timestamp of the given epoch.",
          "_3": "rewardsBlock The reward block of the given epoch."
        }
      },
      "getEpochNumberOfBlock(uint256)": {
        "params": {
          "_blockNumber": "Block number of the epoch info is retreived."
        }
      },
      "getEpochProcessingState()": {
        "returns": {
          "_0": "The latest epoch processing state."
        }
      },
      "getFirstBlockAtEpoch(uint256)": {
        "params": {
          "epoch": "The epoch number of interest."
        },
        "returns": {
          "_0": "The First block of the specified epoch."
        }
      },
      "getLastBlockAtEpoch(uint256)": {
        "params": {
          "epoch": "The epoch number of interest."
        },
        "returns": {
          "_0": "The last block of the specified epoch."
        }
      },
      "getVersionNumber()": {
        "returns": {
          "_0": "Storage version of the contract.",
          "_1": "Major version of the contract.",
          "_2": "Minor version of the contract.",
          "_3": "Patch version of the contract."
        }
      },
      "initialize(address,uint256)": {
        "params": {
          "newEpochDuration": "The duration of an epoch in seconds.",
          "registryAddress": "The address of the registry core smart contract."
        }
      },
      "initializeSystem(uint256,uint256,address[])": {
        "details": "Can only be called by the EpochManagerEnabler contract."
      },
      "isBlocked()": {
        "returns": {
          "_0": "Whether or not the blockable functions are blocked."
        }
      },
      "isEpochProcessingStarted()": {
        "returns": {
          "_0": "Whether epoch process has been started."
        }
      },
      "isIndividualProcessing()": {
        "returns": {
          "_0": "Whether epoch is being processed by individualy group by group."
        }
      },
      "isOnEpochProcess()": {
        "returns": {
          "_0": "Whether or not the current epoch is being processed."
        }
      },
      "isTimeForNextEpoch()": {
        "returns": {
          "_0": "Whether or not the next epoch can be processed."
        }
      },
      "numberOfElectedInCurrentSet()": {
        "returns": {
          "_0": "The number of elected accounts in the current set."
        }
      },
      "owner()": {
        "details": "Returns the address of the current owner."
      },
      "processGroup(address,address,address)": {
        "params": {
          "greater": "The group with more votes than the indexed group.",
          "group": "The group to process.",
          "lesser": "The group with less votes than the indexed group."
        }
      },
      "processGroups(address[],address[],address[])": {
        "params": {
          "greaters": "List of validator groups that hold more votes that indexed group.",
          "groups": "List of validator groups to be processed.",
          "lessers": "List of validator groups that hold less votes that indexed group."
        }
      },
      "renounceOwnership()": {
        "details": "Leaves the contract without owner. It will not be possible to call `onlyOwner` functions. Can only be called by the current owner. NOTE: Renouncing ownership will leave the contract without an owner, thereby disabling any functionality that is only available to the owner."
      },
      "sendValidatorPayment(address)": {
        "details": "Can only be called once the system is initialized.",
        "params": {
          "validator": "Account of the validator."
        }
      },
      "setEpochDuration(uint256)": {
        "details": "Can only be set by owner.",
        "params": {
          "newEpochDuration": "The duration of an epoch in seconds."
        }
      },
      "setOracleAddress(address)": {
        "details": "Can only be set by owner.",
        "params": {
          "newOracleAddress": "The address of the new oracle."
        }
      },
      "setRegistry(address)": {
        "params": {
          "registryAddress": "The address of a registry contract for routing to other contracts."
        }
      },
      "startNextEpochProcess()": {
        "details": "Epoch rewards are frozen at the time of execution.Can only be called once the system is initialized."
      },
      "systemAlreadyInitialized()": {
        "returns": {
          "_0": "Whether or not the EpochManager contract has been activated to start processing epochs."
        }
      },
      "transferOwnership(address)": {
        "details": "Transfers ownership of the contract to a new account (`newOwner`). Can only be called by the current owner."
      }
    },
    "version": 1
  },
  "userdoc": {
    "events": {
      "EpochDurationSet(uint256)": {
        "notice": "Event emited when a new epoch duration is set."
      },
      "EpochProcessingEnded(uint256)": {
        "notice": "Event emited when epochProcessing has ended."
      },
      "EpochProcessingStarted(uint256)": {
        "notice": "Event emited when epochProcessing has begun."
      },
      "GroupMarkedForProcessing(address,uint256)": {
        "notice": "Emitted when group is marked for processing."
      },
      "GroupProcessed(address,uint256)": {
        "notice": "Emitted when group is processed."
      },
      "OracleAddressSet(address)": {
        "notice": "Event emited when a new oracle address is set."
      },
      "ValidatorEpochPaymentDistributed(address,uint256,address,uint256,address,uint256)": {
        "notice": "Emitted when an epoch payment is sent."
      }
    },
    "kind": "user",
    "methods": {
      "finishNextEpochProcess(address[],address[],address[])": {
        "notice": "Finishes processing an epoch and releasing funds to the beneficiaries."
      },
      "getCurrentEpoch()": {
        "notice": "Returns the epoch info for the current epoch."
      },
      "getElectedAccountByIndex(uint256)": {
        "notice": "Returns the currently elected account at a specified index."
      },
      "getElectedSignerByIndex(uint256)": {
        "notice": "Returns the currently elected signer address at a specified index."
      },
      "getEpochByBlockNumber(uint256)": {
        "notice": "Returns the epoch info of a specified blockNumber."
      },
      "getEpochByNumber(uint256)": {
        "notice": "Returns the epoch info of a specified epoch."
      },
      "getEpochNumberOfBlock(uint256)": {
        "notice": "Returns the epoch number of a specified blockNumber."
      },
      "getVersionNumber()": {
        "notice": "Returns the storage, major, minor, and patch version of the contract."
      },
      "initialize(address,uint256)": {
        "notice": "Used in place of the constructor to allow the contract to be upgradable via proxy."
      },
      "initializeSystem(uint256,uint256,address[])": {
        "notice": "Initializes the EpochManager system, allowing it to start processing epoch and distributing the epoch rewards."
      },
      "isBlocked()": {
        "notice": "Used to block select functions in blockable contracts."
      },
      "processGroup(address,address,address)": {
        "notice": "Processes the rewards for a group. For last group it will also finalize the epoch."
      },
      "processGroups(address[],address[],address[])": {
        "notice": "Processes the rewards for a list of groups. For last group it will also finalize the epoch."
      },
      "sendValidatorPayment(address)": {
        "notice": "Sends the allocated epoch payment to a validator, their group, and   delegation beneficiary."
      },
      "setEpochDuration(uint256)": {
        "notice": "Sets the time duration of an epoch."
      },
      "setOracleAddress(address)": {
        "notice": "Sets the address of the Oracle used by this contract."
      },
      "setRegistry(address)": {
        "notice": "Updates the address pointing to a Registry contract."
      },
      "setToProcessGroups()": {
        "notice": "Starts individual processing of the elected groups. As second step it is necessary to call processGroup"
      },
      "startNextEpochProcess()": {
        "notice": "Starts processing an epoch and allocates funds to the beneficiaries."
      }
    },
    "version": 1
  }
}