{
  "contractName": "EpochManagerEnabler",
  "abi": [
    {
      "inputs": [
        {
          "internalType": "bool",
          "name": "test",
          "type": "bool"
        }
      ],
      "stateMutability": "nonpayable",
      "type": "constructor"
    },
    {
      "anonymous": false,
      "inputs": [],
      "name": "LastKnownElectedAccountsSet",
      "type": "event"
    },
    {
      "anonymous": false,
      "inputs": [
        {
          "indexed": false,
          "internalType": "uint256",
          "name": "lastKnownEpochNumber",
          "type": "uint256"
        }
      ],
      "name": "LastKnownEpochNumberSet",
      "type": "event"
    },
    {
      "anonymous": false,
      "inputs": [
        {
          "indexed": false,
          "internalType": "uint256",
          "name": "lastKnownFirstBlockOfEpoch",
          "type": "uint256"
        }
      ],
      "name": "LastKnownFirstBlockOfEpochSet",
      "type": "event"
    },
    {
      "anonymous": false,
      "inputs": [
        {
          "indexed": true,
          "internalType": "address",
          "name": "previousOwner",
          "type": "address"
        },
        {
          "indexed": true,
          "internalType": "address",
          "name": "newOwner",
          "type": "address"
        }
      ],
      "name": "OwnershipTransferred",
      "type": "event"
    },
    {
      "anonymous": false,
      "inputs": [
        {
          "indexed": true,
          "internalType": "address",
          "name": "registryAddress",
          "type": "address"
        }
      ],
      "name": "RegistrySet",
      "type": "event"
    },
    {
      "inputs": [
        {
          "internalType": "address",
          "name": "sender",
          "type": "address"
        },
        {
          "internalType": "bytes",
          "name": "blsKey",
          "type": "bytes"
        },
        {
          "internalType": "bytes",
          "name": "blsPop",
          "type": "bytes"
        }
      ],
      "name": "checkProofOfPossession",
      "outputs": [
        {
          "internalType": "bool",
          "name": "",
          "type": "bool"
        }
      ],
      "stateMutability": "view",
      "type": "function"
    },
    {
      "inputs": [
        {
          "internalType": "uint256",
          "name": "aNumerator",
          "type": "uint256"
        },
        {
          "internalType": "uint256",
          "name": "aDenominator",
          "type": "uint256"
        },
        {
          "internalType": "uint256",
          "name": "bNumerator",
          "type": "uint256"
        },
        {
          "internalType": "uint256",
          "name": "bDenominator",
          "type": "uint256"
        },
        {
          "internalType": "uint256",
          "name": "exponent",
          "type": "uint256"
        },
        {
          "internalType": "uint256",
          "name": "_decimals",
          "type": "uint256"
        }
      ],
      "name": "fractionMulExp",
      "outputs": [
        {
          "internalType": "uint256",
          "name": "",
          "type": "uint256"
        },
        {
          "internalType": "uint256",
          "name": "",
          "type": "uint256"
        }
      ],
      "stateMutability": "view",
      "type": "function"
    },
    {
      "inputs": [
        {
          "internalType": "bytes",
          "name": "header",
          "type": "bytes"
        }
      ],
      "name": "getBlockNumberFromHeader",
      "outputs": [
        {
          "internalType": "uint256",
          "name": "",
          "type": "uint256"
        }
      ],
      "stateMutability": "view",
      "type": "function"
    },
    {
      "inputs": [],
      "name": "getEpochNumber",
      "outputs": [
        {
          "internalType": "uint256",
          "name": "",
          "type": "uint256"
        }
      ],
      "stateMutability": "view",
      "type": "function"
    },
    {
      "inputs": [
        {
          "internalType": "uint256",
          "name": "blockNumber",
          "type": "uint256"
        }
      ],
      "name": "getEpochNumberOfBlock",
      "outputs": [
        {
          "internalType": "uint256",
          "name": "",
          "type": "uint256"
        }
      ],
      "stateMutability": "view",
      "type": "function"
    },
    {
      "inputs": [],
      "name": "getEpochSize",
      "outputs": [
        {
          "internalType": "uint256",
          "name": "",
          "type": "uint256"
        }
      ],
      "stateMutability": "view",
      "type": "function"
    },
    {
      "inputs": [
        {
          "internalType": "uint256",
          "name": "blockNumber",
          "type": "uint256"
        }
      ],
      "name": "getParentSealBitmap",
      "outputs": [
        {
          "internalType": "bytes32",
          "name": "",
          "type": "bytes32"
        }
      ],
      "stateMutability": "view",
      "type": "function"
    },
    {
      "inputs": [
        {
          "internalType": "bytes",
          "name": "header",
          "type": "bytes"
        }
      ],
      "name": "getVerifiedSealBitmapFromHeader",
      "outputs": [
        {
          "internalType": "bytes32",
          "name": "",
          "type": "bytes32"
        }
      ],
      "stateMutability": "view",
      "type": "function"
    },
    {
      "inputs": [
        {
          "internalType": "bytes",
          "name": "header",
          "type": "bytes"
        }
      ],
      "name": "hashHeader",
      "outputs": [
        {
          "internalType": "bytes32",
          "name": "",
          "type": "bytes32"
        }
      ],
      "stateMutability": "view",
      "type": "function"
    },
    {
      "inputs": [],
      "name": "initialized",
      "outputs": [
        {
          "internalType": "bool",
          "name": "",
          "type": "bool"
        }
      ],
      "stateMutability": "view",
      "type": "function"
    },
    {
      "inputs": [
        {
          "internalType": "uint256",
          "name": "",
          "type": "uint256"
        }
      ],
      "name": "lastKnownElectedAccounts",
      "outputs": [
        {
          "internalType": "address",
          "name": "",
          "type": "address"
        }
      ],
      "stateMutability": "view",
      "type": "function"
    },
    {
      "inputs": [],
      "name": "lastKnownEpochNumber",
      "outputs": [
        {
          "internalType": "uint256",
          "name": "",
          "type": "uint256"
        }
      ],
      "stateMutability": "view",
      "type": "function"
    },
    {
      "inputs": [],
      "name": "lastKnownFirstBlockOfEpoch",
      "outputs": [
        {
          "internalType": "uint256",
          "name": "",
          "type": "uint256"
        }
      ],
      "stateMutability": "view",
      "type": "function"
    },
    {
      "inputs": [
        {
          "internalType": "uint256",
          "name": "blockNumber",
          "type": "uint256"
        }
      ],
      "name": "minQuorumSize",
      "outputs": [
        {
          "internalType": "uint256",
          "name": "",
          "type": "uint256"
        }
      ],
      "stateMutability": "view",
      "type": "function"
    },
    {
      "inputs": [],
      "name": "minQuorumSizeInCurrentSet",
      "outputs": [
        {
          "internalType": "uint256",
          "name": "",
          "type": "uint256"
        }
      ],
      "stateMutability": "view",
      "type": "function"
    },
    {
      "inputs": [],
      "name": "numberValidatorsInCurrentSet",
      "outputs": [
        {
          "internalType": "uint256",
          "name": "",
          "type": "uint256"
        }
      ],
      "stateMutability": "view",
      "type": "function"
    },
    {
      "inputs": [
        {
          "internalType": "uint256",
          "name": "blockNumber",
          "type": "uint256"
        }
      ],
      "name": "numberValidatorsInSet",
      "outputs": [
        {
          "internalType": "uint256",
          "name": "",
          "type": "uint256"
        }
      ],
      "stateMutability": "view",
      "type": "function"
    },
    {
      "inputs": [],
      "name": "owner",
      "outputs": [
        {
          "internalType": "address",
          "name": "",
          "type": "address"
        }
      ],
      "stateMutability": "view",
      "type": "function"
    },
    {
      "inputs": [],
      "name": "registry",
      "outputs": [
        {
          "internalType": "contract IRegistry",
          "name": "",
          "type": "address"
        }
      ],
      "stateMutability": "view",
      "type": "function"
    },
    {
      "inputs": [],
      "name": "renounceOwnership",
      "outputs": [],
      "stateMutability": "nonpayable",
      "type": "function"
    },
    {
      "inputs": [
        {
          "internalType": "address",
          "name": "registryAddress",
          "type": "address"
        }
      ],
      "name": "setRegistry",
      "outputs": [],
      "stateMutability": "nonpayable",
      "type": "function"
    },
    {
      "inputs": [
        {
          "internalType": "address",
          "name": "newOwner",
          "type": "address"
        }
      ],
      "name": "transferOwnership",
      "outputs": [],
      "stateMutability": "nonpayable",
      "type": "function"
    },
    {
      "inputs": [
        {
          "internalType": "uint256",
          "name": "index",
          "type": "uint256"
        }
      ],
      "name": "validatorSignerAddressFromCurrentSet",
      "outputs": [
        {
          "internalType": "address",
          "name": "",
          "type": "address"
        }
      ],
      "stateMutability": "view",
      "type": "function"
    },
    {
      "inputs": [
        {
          "internalType": "uint256",
          "name": "index",
          "type": "uint256"
        },
        {
          "internalType": "uint256",
          "name": "blockNumber",
          "type": "uint256"
        }
      ],
      "name": "validatorSignerAddressFromSet",
      "outputs": [
        {
          "internalType": "address",
          "name": "",
          "type": "address"
        }
      ],
      "stateMutability": "view",
      "type": "function"
    },
    {
      "inputs": [
        {
          "internalType": "address",
          "name": "registryAddress",
          "type": "address"
        }
      ],
      "name": "initialize",
      "outputs": [],
      "stateMutability": "nonpayable",
      "type": "function"
    },
    {
      "inputs": [],
      "name": "initEpochManager",
      "outputs": [],
      "stateMutability": "nonpayable",
      "type": "function"
    },
    {
      "inputs": [],
      "name": "captureEpochAndValidators",
      "outputs": [],
      "stateMutability": "nonpayable",
      "type": "function"
    },
    {
      "inputs": [],
      "name": "getlastKnownElectedAccounts",
      "outputs": [
        {
          "internalType": "address[]",
          "name": "",
          "type": "address[]"
        }
      ],
      "stateMutability": "view",
      "type": "function"
    },
    {
      "inputs": [],
      "name": "getVersionNumber",
      "outputs": [
        {
          "internalType": "uint256",
          "name": "",
          "type": "uint256"
        },
        {
          "internalType": "uint256",
          "name": "",
          "type": "uint256"
        },
        {
          "internalType": "uint256",
          "name": "",
          "type": "uint256"
        },
        {
          "internalType": "uint256",
          "name": "",
          "type": "uint256"
        }
      ],
      "stateMutability": "pure",
      "type": "function"
    }
  ],
  "bytecode": "0x60806040523480156200001157600080fd5b5060405162001dd938038062001dd98339810160408190526200003491620000b5565b808062000049576000805460ff191660011790555b5062000055336200005c565b50620000e0565b600080546001600160a01b03838116610100818102610100600160a81b0319851617855560405193049190911692909183917f8be0079c531659141344cd1fd0a4f28419497f9722a3daafe3b4186f6b6457e091a35050565b600060208284031215620000c857600080fd5b81518015158114620000d957600080fd5b9392505050565b611ce980620000f06000396000f3fe608060405234801561001057600080fd5b50600436106101cf5760003560e01c806387ee8a0f11610104578063ae497c71116100a2578063e50e652d11610071578063e50e652d1461039d578063ec683072146103b0578063f2fde38b146103d8578063fae8db0a146103eb57600080fd5b8063ae497c7114610371578063b6ffcdf414610379578063c4d66de814610382578063df4da4611461039557600080fd5b80639a7b3be7116100de5780639a7b3be71461032e5780639b2b592f14610336578063a3c02eb514610349578063a91ee0dc1461035e57600080fd5b806387ee8a0f146102fd5780638a883626146103055780638da5cb5b1461031857600080fd5b806354255be011610171578063715018a61161014b578063715018a6146102d05780637385e5da146102da5780637b103999146102e2578063822e7c7c146102f557600080fd5b806354255be0146102845780635d180adb146102aa57806367960e91146102bd57600080fd5b806323f0ab65116101ad57806323f0ab651461023457806332c31368146102475780633b1eb4bf1461025e5780634b2c2f441461027157600080fd5b806303585836146101d4578063123633ea14610204578063158ef93e14610217575b600080fd5b6101e76101e23660046118cb565b6103fe565b6040516001600160a01b0390911681526020015b60405180910390f35b6101e76102123660046118cb565b610428565b6000546102249060ff1681565b60405190151581526020016101fb565b61022461024236600461199c565b610547565b61025060035481565b6040519081526020016101fb565b61025061026c3660046118cb565b6105d9565b61025061027f366004611a12565b6105fa565b6001806000806040805194855260208501939093529183015260608201526080016101fb565b6101e76102b8366004611a47565b610701565b6102506102cb366004611a12565b610806565b6102d86108e8565b005b6102506108fc565b6001546101e7906001600160a01b031681565b6102d8610914565b610250610adb565b610250610313366004611a12565b610bd5565b60005461010090046001600160a01b03166101e7565b610250610cc5565b6102506103443660046118cb565b610cd8565b610351610dc7565b6040516101fb9190611a69565b6102d861036c366004611aaa565b610e29565b6102d8610ed1565b61025060025481565b6102d8610390366004611aaa565b6110b1565b610250611126565b6102506103ab3660046118cb565b611203565b6103c36103be366004611ac7565b611237565b604080519283526020830191909152016101fb565b6102d86103e6366004611aaa565b6113b7565b6102506103f93660046118cb565b61142d565b6004818154811061040e57600080fd5b6000918252602090912001546001600160a01b0316905081565b600061043261151a565b6060600060fa6001600160a01b0316844360405160200161045d929190918252602082015260400190565b60408051601f198184030181529082905261047791611b3a565b600060405180830381855afa9150503d80600081146104b2576040519150601f19603f3d011682016040523d82523d6000602084013e6104b7565b606091505b5092509050806105345760405162461bcd60e51b815260206004820152603d60248201527f6572726f722063616c6c696e672076616c696461746f725369676e657241646460448201527f7265737346726f6d43757272656e7453657420707265636f6d70696c6500000060648201526084015b60405180910390fd5b61053f826000611588565b949350505050565b600061055161151a565b600060fb6001600160a01b031685858560405160200161057393929190611b46565b60408051601f198184030181529082905261058d91611b3a565b600060405180830381855afa9150503d80600081146105c8576040519150601f19603f3d011682016040523d82523d6000602084013e6105cd565b606091505b50909695505050505050565b60006105e361151a565b6105f4826105ef611126565b61159b565b92915050565b600061060461151a565b6060600060f46001600160a01b0316846040516020016106249190611b3a565b60408051601f198184030181529082905261063e91611b3a565b600060405180830381855afa9150503d8060008114610679576040519150601f19603f3d011682016040523d82523d6000602084013e61067e565b606091505b5092509050806106f65760405162461bcd60e51b815260206004820152603860248201527f6572726f722063616c6c696e672067657456657269666965645365616c42697460448201527f6d617046726f6d48656164657220707265636f6d70696c650000000000000000606482015260840161052b565b61053f8260006115d5565b600061070b61151a565b604080516020810185905290810183905260609060009060fa90830160408051601f198184030181529082905261074191611b3a565b600060405180830381855afa9150503d806000811461077c576040519150601f19603f3d011682016040523d82523d6000602084013e610781565b606091505b5092509050806107f25760405162461bcd60e51b815260206004820152603660248201527f6572726f722063616c6c696e672076616c696461746f725369676e65724164646044820152757265737346726f6d53657420707265636f6d70696c6560501b606482015260840161052b565b6107fd826000611588565b95945050505050565b600061081061151a565b6060600060f66001600160a01b0316846040516020016108309190611b3a565b60408051601f198184030181529082905261084a91611b3a565b600060405180830381855afa9150503d8060008114610885576040519150601f19603f3d011682016040523d82523d6000602084013e61088a565b606091505b5092509050806106f65760405162461bcd60e51b815260206004820152602360248201527f6572726f722063616c6c696e67206861736848656164657220707265636f6d70604482015262696c6560e81b606482015260840161052b565b6108f0611632565b6108fa6000611692565b565b600061090661151a565b61090f43611203565b905090565b61091c61151a565b610924610cc5565b60028190556040519081527fd9a1a76580b15ae78b2d3d40f6df34149506928db763adaa8c2b7d354f8640dd9060200160405180910390a16000610966610adb565b90508067ffffffffffffffff811115610981576109816118f9565b6040519080825280602002602001820160405280156109aa578160200160208202803683370190505b5080516109bf91600491602090910190611851565b506109c86116eb565b60005b81811015610aae5760006109dd611754565b6001600160a01b03166364439b436109f484610428565b6040516001600160e01b031960e084901b1681526001600160a01b039091166004820152602401602060405180830381865afa158015610a38573d6000803e3d6000fd5b505050506040513d601f19601f82011682018060405250810190610a5c9190611b73565b90508060048381548110610a7257610a72611b90565b600091825260209091200180546001600160a01b0319166001600160a01b03929092169190911790555080610aa681611bbc565b9150506109cb565b506040517f8bcc171e37e2f3448f64d63bcf15ceda5dd7acee8f7ac90e12db4167bccbd17c90600090a150565b6000610ae561151a565b6040805143602082015260609160009160f9910160408051601f1981840301815290829052610b1391611b3a565b600060405180830381855afa9150503d8060008114610b4e576040519150601f19603f3d011682016040523d82523d6000602084013e610b53565b606091505b509250905080610bc35760405162461bcd60e51b815260206004820152603560248201527f6572726f722063616c6c696e67206e756d62657256616c696461746f7273496e60448201527443757272656e7453657420707265636f6d70696c6560581b606482015260840161052b565b610bce826000611588565b9250505090565b6000610bdf61151a565b6060600060f76001600160a01b031684604051602001610bff9190611b3a565b60408051601f1981840301815290829052610c1991611b3a565b600060405180830381855afa9150503d8060008114610c54576040519150601f19603f3d011682016040523d82523d6000602084013e610c59565b606091505b5092509050806105345760405162461bcd60e51b815260206004820152603160248201527f6572726f722063616c6c696e6720676574426c6f636b4e756d62657246726f6d60448201527048656164657220707265636f6d70696c6560781b606482015260840161052b565b6000610ccf61151a565b61090f436105d9565b6000610ce261151a565b6060600060f96001600160a01b031684604051602001610d0491815260200190565b60408051601f1981840301815290829052610d1e91611b3a565b600060405180830381855afa9150503d8060008114610d59576040519150601f19603f3d011682016040523d82523d6000602084013e610d5e565b606091505b5092509050806105345760405162461bcd60e51b815260206004820152602e60248201527f6572726f722063616c6c696e67206e756d62657256616c696461746f7273496e60448201526d53657420707265636f6d70696c6560901b606482015260840161052b565b60606004805480602002602001604051908101604052809291908181526020018280548015610e1f57602002820191906000526020600020905b81546001600160a01b03168152600190910190602001808311610e01575b5050505050905090565b610e31611632565b6001600160a01b038116610e875760405162461bcd60e51b815260206004820181905260248201527f43616e6e6f7420726567697374657220746865206e756c6c2061646472657373604482015260640161052b565b600180546001600160a01b0319166001600160a01b0383169081179091556040517f27fe5f0c1c3b1ed427cc63d0f05759ffdecf9aec9e18d31ef366fc8a6cb5dc3b90600090a250565b6018602160991b013b63ffffffff16610f385760405162461bcd60e51b815260206004820152602360248201527f54686973206d6574686f64206973206e6f7420737570706f7274656420696e2060448201526226189760e91b606482015260840161052b565b600254600003610f8a5760405162461bcd60e51b815260206004820152601d60248201527f6c6173744b6e6f776e45706f63684e756d626572206e6f74207365742e000000604482015260640161052b565b600354600003610fe85760405162461bcd60e51b815260206004820152602360248201527f6c6173744b6e6f776e4669727374426c6f636b4f6645706f6368206e6f74207360448201526232ba1760e91b606482015260840161052b565b6004546110415760405162461bcd60e51b815260206004820152602160248201527f6c6173744b6e6f776e456c65637465644163636f756e7473206e6f74207365746044820152601760f91b606482015260840161052b565b6110496117f7565b6001600160a01b03166351ccd8f060025460035460046040518463ffffffff1660e01b815260040161107d93929190611bd5565b600060405180830381600087803b15801561109757600080fd5b505af11580156110ab573d6000803e3d6000fd5b50505050565b60005460ff16156111045760405162461bcd60e51b815260206004820152601c60248201527f636f6e747261637420616c726561647920696e697469616c697a656400000000604482015260640161052b565b6000805460ff1916600117905561111a33611692565b61112381610e29565b50565b600061113061151a565b604051600160f81b602082015260609060009060f89060210160408051601f198184030181529082905261116391611b3a565b600060405180830381855afa9150503d806000811461119e576040519150601f19603f3d011682016040523d82523d6000602084013e6111a3565b606091505b509250905080610bc35760405162461bcd60e51b815260206004820152602560248201527f6572726f722063616c6c696e672067657445706f636853697a6520707265636f6044820152646d70696c6560d81b606482015260840161052b565b600061120d61151a565b6105f46003611231600261122b600261122588610cd8565b9061182d565b90611839565b90611845565b60008061124261151a565b861580159061125057508415155b6112945760405162461bcd60e51b8152602060048201526015602482015274612064656e6f6d696e61746f72206973207a65726f60581b604482015260640161052b565b60408051602081018a905290810188905260608181018890526080820187905260a0820186905260c082018590526000918291829160fc9060e00160408051601f19818403018152908290526112e991611b3a565b600060405180830381855afa9150503d8060008114611324576040519150601f19603f3d011682016040523d82523d6000602084013e611329565b606091505b5090925090508161138c5760405162461bcd60e51b815260206004820152602760248201527f6572726f722063616c6c696e67206672616374696f6e4d756c45787020707265604482015266636f6d70696c6560c81b606482015260840161052b565b611397816000611588565b93506113a4816020611588565b939c939b50929950505050505050505050565b6113bf611632565b6001600160a01b0381166114245760405162461bcd60e51b815260206004820152602660248201527f4f776e61626c653a206e6577206f776e657220697320746865207a65726f206160448201526564647265737360d01b606482015260840161052b565b61112381611692565b600061143761151a565b6060600060f56001600160a01b03168460405160200161145991815260200190565b60408051601f198184030181529082905261147391611b3a565b600060405180830381855afa9150503d80600081146114ae576040519150601f19603f3d011682016040523d82523d6000602084013e6114b3565b606091505b5092509050806106f65760405162461bcd60e51b815260206004820152602c60248201527f6572726f722063616c6c696e6720676574506172656e745365616c4269746d6160448201526b7020707265636f6d70696c6560a01b606482015260840161052b565b6018602160991b013b63ffffffff16156108fa5760405162461bcd60e51b815260206004820152602960248201527f54686973206d6574686f64206973206e6f206c6f6e67657220737570706f727460448201526832b21034b71026191760b91b606482015260840161052b565b600061159483836115d5565b9392505050565b6000806115a88385611c4e565b90506115b48385611c62565b6000036115c25790506105f4565b6115cd816001611839565b9150506105f4565b60006115e2826020611839565b835110156116295760405162461bcd60e51b8152602060048201526014602482015273736c6963696e67206f7574206f662072616e676560601b604482015260640161052b565b50016020015190565b6000546001600160a01b036101009091041633146108fa5760405162461bcd60e51b815260206004820181905260248201527f4f776e61626c653a2063616c6c6572206973206e6f7420746865206f776e6572604482015260640161052b565b600080546001600160a01b03838116610100818102610100600160a81b0319851617855560405193049190911692909183917f8be0079c531659141344cd1fd0a4f28419497f9722a3daafe3b4186f6b6457e091a35050565b6116f361151a565b60006116fd611126565b6117079043611c62565b905060006117158243611c76565b60038190556040518181529091507fc4d72df1a0e397a9d4f36d402b48854435f6e38b3fa95f918c7125c3de0d33e49060200160405180910390a15050565b600154604051674163636f756e747360c01b60208201526000916001600160a01b03169063dcf0aaed906028015b604051602081830303815290604052805190602001206040518263ffffffff1660e01b81526004016117b691815260200190565b602060405180830381865afa1580156117d3573d6000803e3d6000fd5b505050506040513d601f19601f8201168201806040525081019061090f9190611b73565b6001546040516b22b837b1b426b0b730b3b2b960a11b60208201526000916001600160a01b03169063dcf0aaed90602c01611782565b60006115948284611c89565b60006115948284611ca0565b60006115948284611c4e565b8280548282559060005260206000209081019282156118a6579160200282015b828111156118a657825182546001600160a01b0319166001600160a01b03909116178255602090920191600190910190611871565b506118b29291506118b6565b5090565b5b808211156118b257600081556001016118b7565b6000602082840312156118dd57600080fd5b5035919050565b6001600160a01b038116811461112357600080fd5b634e487b7160e01b600052604160045260246000fd5b600082601f83011261192057600080fd5b813567ffffffffffffffff8082111561193b5761193b6118f9565b604051601f8301601f19908116603f01168101908282118183101715611963576119636118f9565b8160405283815286602085880101111561197c57600080fd5b836020870160208301376000602085830101528094505050505092915050565b6000806000606084860312156119b157600080fd5b83356119bc816118e4565b9250602084013567ffffffffffffffff808211156119d957600080fd5b6119e58783880161190f565b935060408601359150808211156119fb57600080fd5b50611a088682870161190f565b9150509250925092565b600060208284031215611a2457600080fd5b813567ffffffffffffffff811115611a3b57600080fd5b61053f8482850161190f565b60008060408385031215611a5a57600080fd5b50508035926020909101359150565b6020808252825182820181905260009190848201906040850190845b818110156105cd5783516001600160a01b031683529284019291840191600101611a85565b600060208284031215611abc57600080fd5b8135611594816118e4565b60008060008060008060c08789031215611ae057600080fd5b505084359660208601359650604086013595606081013595506080810135945060a0013592509050565b6000815160005b81811015611b2b5760208185018101518683015201611b11565b50600093019283525090919050565b60006115948284611b0a565b6bffffffffffffffffffffffff198460601b16815260006107fd611b6d6014840186611b0a565b84611b0a565b600060208284031215611b8557600080fd5b8151611594816118e4565b634e487b7160e01b600052603260045260246000fd5b634e487b7160e01b600052601160045260246000fd5b600060018201611bce57611bce611ba6565b5060010190565b60006060820185835260208581850152606060408501528185548084526080860191508660005282600020935060005b81811015611c2a5784546001600160a01b031683526001948501949284019201611c05565b509098975050505050505050565b634e487b7160e01b600052601260045260246000fd5b600082611c5d57611c5d611c38565b500490565b600082611c7157611c71611c38565b500690565b818103818111156105f4576105f4611ba6565b80820281158282048414176105f4576105f4611ba6565b808201808211156105f4576105f4611ba656fea26469706673582212209b8fd15fd91b96197cd134cb9ffa1c2ef1edf48ceb8b0ecd51306be3bce3e1c464736f6c63430008130033",
  "immutableReferences": {},
  "source": "// SPDX-License-Identifier: UNLICENSED\npragma solidity >=0.8.7 <0.8.20;\n\nimport \"../common/UsingRegistry.sol\";\nimport \"../common/UsingPrecompiles.sol\";\n\nimport \"../../contracts/common/Initializable.sol\";\nimport \"../../contracts/common/interfaces/ICeloVersionedContract.sol\";\nimport \"../../contracts/governance/interfaces/IEpochRewards.sol\";\nimport \"../../contracts/common/interfaces/IEpochManagerEnabler.sol\";\nimport \"./interfaces/IEpochManagerEnablerInitializer.sol\";\n\n/**\n * @title Contract Used to initialize the EpochManager system after L2 transition.\n */\ncontract EpochManagerEnabler is\n  Initializable,\n  UsingRegistry,\n  UsingPrecompiles,\n  IEpochManagerEnabler,\n  IEpochManagerEnablerInitializer\n{\n  uint256 public lastKnownEpochNumber;\n  uint256 public lastKnownFirstBlockOfEpoch;\n  address[] public lastKnownElectedAccounts;\n\n  event LastKnownEpochNumberSet(uint256 lastKnownEpochNumber);\n  event LastKnownFirstBlockOfEpochSet(uint256 lastKnownFirstBlockOfEpoch);\n  event LastKnownElectedAccountsSet();\n\n  /**\n   * @notice Sets initialized == true on implementation contracts\n   * @param test Set to true to skip implementation initialization\n   */\n  constructor(bool test) Initializable(test) {}\n\n  /**\n   * @notice Used in place of the constructor to allow the contract to be upgradable via proxy.\n   * @param registryAddress The address of the registry core smart contract.\n   */\n  function initialize(address registryAddress) external initializer {\n    _transferOwnership(msg.sender);\n    setRegistry(registryAddress);\n  }\n\n  /**\n   * @notice initializes the epochManager contract during L2 transition.\n   */\n  function initEpochManager() external onlyL2 {\n    require(lastKnownEpochNumber != 0, \"lastKnownEpochNumber not set.\");\n    require(lastKnownFirstBlockOfEpoch != 0, \"lastKnownFirstBlockOfEpoch not set.\");\n    require(lastKnownElectedAccounts.length > 0, \"lastKnownElectedAccounts not set.\");\n    getEpochManager().initializeSystem(\n      lastKnownEpochNumber,\n      lastKnownFirstBlockOfEpoch,\n      lastKnownElectedAccounts\n    );\n  }\n\n  /**\n   * @notice Stores the last known epochNumber and the related elected validator accounts.\n   */\n  function captureEpochAndValidators() external onlyL1 {\n    lastKnownEpochNumber = getEpochNumber();\n    emit LastKnownEpochNumberSet(lastKnownEpochNumber);\n\n    uint256 numberElectedValidators = numberValidatorsInCurrentSet();\n    lastKnownElectedAccounts = new address[](numberElectedValidators);\n    _setFirstBlockOfEpoch();\n\n    for (uint256 i = 0; i < numberElectedValidators; i++) {\n      address validatorAccountAddress = getAccounts().validatorSignerToAccount(\n        validatorSignerAddressFromCurrentSet(i)\n      );\n      lastKnownElectedAccounts[i] = validatorAccountAddress;\n    }\n    emit LastKnownElectedAccountsSet();\n  }\n\n  /**\n   * @return a list of know elected validator accounts.\n   */\n  function getlastKnownElectedAccounts() external view returns (address[] memory) {\n    return lastKnownElectedAccounts;\n  }\n\n  /**\n   * @notice Returns the storage, major, minor, and patch version of the contract.\n   * @return Storage version of the contract.\n   * @return Major version of the contract.\n   * @return Minor version of the contract.\n   * @return Patch version of the contract.\n   */\n  function getVersionNumber() external pure returns (uint256, uint256, uint256, uint256) {\n    return (1, 1, 0, 0);\n  }\n\n  /**\n   * @notice Sets the first block of the current epoch.\n   * @dev Only callable on L1.\n   */\n  function _setFirstBlockOfEpoch() internal onlyL1 {\n    uint256 blocksSinceEpochBlock = block.number % getEpochSize();\n    uint256 epochBlock = block.number - blocksSinceEpochBlock;\n    lastKnownFirstBlockOfEpoch = epochBlock;\n    emit LastKnownFirstBlockOfEpochSet(lastKnownFirstBlockOfEpoch);\n  }\n}\n",
  "sourcePath": "/Users/beaver/Development/temp/celo-monorepo/packages/protocol/contracts-0.8/common/EpochManagerEnabler.sol",
  "compiler": {
    "name": "solc",
    "version": "0.8.19+commit.7dd6d404.Emscripten.clang"
  },
  "schemaVersion": "3.4.13",
  "updatedAt": "2025-05-05T17:49:34.133Z",
  "devdoc": {
    "kind": "dev",
    "methods": {
      "checkProofOfPossession(address,bytes,bytes)": {
        "details": "This function will be deprecated in L2.",
        "params": {
          "blsKey": "The BLS public key that the validator is using for consensus, should pass proof   of possession. 48 bytes.",
          "blsPop": "The BLS public key proof-of-possession, which consists of a signature on the   account address. 96 bytes.",
          "sender": "The address signed by the BLS key to generate the proof of possession."
        },
        "returns": {
          "_0": "True upon success."
        }
      },
      "constructor": {
        "params": {
          "test": "Set to true to skip implementation initialization"
        }
      },
      "fractionMulExp(uint256,uint256,uint256,uint256,uint256,uint256)": {
        "details": "This function will be deprecated in L2.",
        "params": {
          "_decimals": "precision",
          "aDenominator": "Denominator of first fraction",
          "aNumerator": "Numerator of first fraction",
          "bDenominator": "Denominator of exponentiated fraction",
          "bNumerator": "Numerator of exponentiated fraction",
          "exponent": "exponent to raise b to"
        },
        "returns": {
          "_0": "Numerator of the computed quantity (not reduced).",
          "_1": "Denominator of the computed quantity (not reduced)."
        }
      },
      "getBlockNumberFromHeader(bytes)": {
        "details": "This function will be deprecated in L2.",
        "params": {
          "header": "RLP encoded header"
        },
        "returns": {
          "_0": "Block number."
        }
      },
      "getEpochNumber()": {
        "details": "This function will be deprecated in L2.",
        "returns": {
          "_0": "Current epoch number."
        }
      },
      "getEpochNumberOfBlock(uint256)": {
        "details": "This function will be deprecated in L2.",
        "params": {
          "blockNumber": "Block number where epoch number is calculated."
        },
        "returns": {
          "_0": "Epoch number."
        }
      },
      "getEpochSize()": {
        "details": "This function will be deprecated in L2.",
        "returns": {
          "_0": "The current epoch size in blocks."
        }
      },
      "getParentSealBitmap(uint256)": {
        "details": "This function will be deprecated in L2.",
        "params": {
          "blockNumber": "Block number to retrieve. Must be within 4 epochs of the current number."
        },
        "returns": {
          "_0": "Bitmap parent seal with set bits at indices corresponding to signing validators."
        }
      },
      "getVerifiedSealBitmapFromHeader(bytes)": {
        "details": "This function will be deprecated in L2.",
        "params": {
          "header": "RLP encoded header"
        },
        "returns": {
          "_0": "Bitmap parent seal with set bits at indices correspoinding to signing validators."
        }
      },
      "getVersionNumber()": {
        "returns": {
          "_0": "Storage version of the contract.",
          "_1": "Major version of the contract.",
          "_2": "Minor version of the contract.",
          "_3": "Patch version of the contract."
        }
      },
      "getlastKnownElectedAccounts()": {
        "returns": {
          "_0": "a list of know elected validator accounts."
        }
      },
      "hashHeader(bytes)": {
        "details": "This function will be deprecated in L2.",
        "params": {
          "header": "RLP encoded header"
        },
        "returns": {
          "_0": "Header hash."
        }
      },
      "initialize(address)": {
        "params": {
          "registryAddress": "The address of the registry core smart contract."
        }
      },
      "minQuorumSize(uint256)": {
        "details": "Computed in celo-blockchain as int(math.Ceil(float64(2*valSet.Size()) / 3))This function will be deprecated in L2."
      },
      "minQuorumSizeInCurrentSet()": {
        "details": "This function will be deprecated in L2.",
        "returns": {
          "_0": "Byzantine quorum of validators."
        }
      },
      "numberValidatorsInCurrentSet()": {
        "details": "This function will be deprecated in L2.",
        "returns": {
          "_0": "Size of the current elected validator set."
        }
      },
      "numberValidatorsInSet(uint256)": {
        "details": "This function will be deprecated in L2.",
        "params": {
          "blockNumber": "Block number to retrieve the validator set from."
        },
        "returns": {
          "_0": "Size of the validator set."
        }
      },
      "owner()": {
        "details": "Returns the address of the current owner."
      },
      "renounceOwnership()": {
        "details": "Leaves the contract without owner. It will not be possible to call `onlyOwner` functions. Can only be called by the current owner. NOTE: Renouncing ownership will leave the contract without an owner, thereby disabling any functionality that is only available to the owner."
      },
      "setRegistry(address)": {
        "params": {
          "registryAddress": "The address of a registry contract for routing to other contracts."
        }
      },
      "transferOwnership(address)": {
        "details": "Transfers ownership of the contract to a new account (`newOwner`). Can only be called by the current owner."
      },
      "validatorSignerAddressFromCurrentSet(uint256)": {
        "details": "This function will be deprecated in L2.",
        "params": {
          "index": "Index of requested validator in the validator set."
        },
        "returns": {
          "_0": "Address of validator signer at the requested index."
        }
      },
      "validatorSignerAddressFromSet(uint256,uint256)": {
        "details": "This function will be deprecated in L2.",
        "params": {
          "blockNumber": "Block number to retrieve the validator set from.",
          "index": "Index of requested validator in the validator set."
        },
        "returns": {
          "_0": "Address of validator signer at the requested index."
        }
      }
    },
    "title": "Contract Used to initialize the EpochManager system after L2 transition.",
    "version": 1
  },
  "userdoc": {
    "kind": "user",
    "methods": {
      "captureEpochAndValidators()": {
        "notice": "Stores the last known epochNumber and the related elected validator accounts."
      },
      "checkProofOfPossession(address,bytes,bytes)": {
        "notice": "Checks a BLS proof of possession."
      },
      "constructor": {
        "notice": "Sets initialized == true on implementation contracts"
      },
      "fractionMulExp(uint256,uint256,uint256,uint256,uint256,uint256)": {
        "notice": "calculate a * b^x for fractions a, b to `decimals` precision"
      },
      "getBlockNumberFromHeader(bytes)": {
        "notice": "Parses block number out of header."
      },
      "getEpochNumber()": {
        "notice": "Returns the epoch number at a block."
      },
      "getEpochNumberOfBlock(uint256)": {
        "notice": "Returns the epoch number at a block."
      },
      "getEpochSize()": {
        "notice": "Returns the current epoch size in blocks."
      },
      "getParentSealBitmap(uint256)": {
        "notice": "Gets the parent seal bitmap from the header at the given block number."
      },
      "getVerifiedSealBitmapFromHeader(bytes)": {
        "notice": "Verifies the BLS signature on the header and returns the seal bitmap. The validator set used for verification is retrieved based on the parent hash field of the header.  If the parent hash is not in the blockchain, verification fails."
      },
      "getVersionNumber()": {
        "notice": "Returns the storage, major, minor, and patch version of the contract."
      },
      "hashHeader(bytes)": {
        "notice": "Computes hash of header."
      },
      "initEpochManager()": {
        "notice": "initializes the epochManager contract during L2 transition."
      },
      "initialize(address)": {
        "notice": "Used in place of the constructor to allow the contract to be upgradable via proxy."
      },
      "minQuorumSize(uint256)": {
        "notice": "Returns the minimum number of required signers for a given block number."
      },
      "minQuorumSizeInCurrentSet()": {
        "notice": "Computes byzantine quorum from current validator set size"
      },
      "numberValidatorsInCurrentSet()": {
        "notice": "Gets the size of the current elected validator set."
      },
      "numberValidatorsInSet(uint256)": {
        "notice": "Gets the size of the validator set that must sign the given block number."
      },
      "setRegistry(address)": {
        "notice": "Updates the address pointing to a Registry contract."
      },
      "validatorSignerAddressFromCurrentSet(uint256)": {
        "notice": "Gets a validator signer address from the current validator set."
      },
      "validatorSignerAddressFromSet(uint256,uint256)": {
        "notice": "Gets a validator signer address from the validator set at the given block number."
      }
    },
    "version": 1
  }
}