{
  "contractName": "FeeCurrencyAdapterOwnable",
  "abi": [
    {
      "inputs": [
        {
          "internalType": "bool",
          "name": "test",
          "type": "bool"
        }
      ],
      "stateMutability": "nonpayable",
      "type": "constructor"
    },
    {
      "anonymous": false,
      "inputs": [
        {
          "indexed": true,
          "internalType": "address",
          "name": "previousOwner",
          "type": "address"
        },
        {
          "indexed": true,
          "internalType": "address",
          "name": "newOwner",
          "type": "address"
        }
      ],
      "name": "OwnershipTransferred",
      "type": "event"
    },
    {
      "inputs": [],
      "name": "adaptedToken",
      "outputs": [
        {
          "internalType": "contract IFeeCurrency",
          "name": "",
          "type": "address"
        }
      ],
      "stateMutability": "view",
      "type": "function"
    },
    {
      "inputs": [
        {
          "internalType": "address",
          "name": "account",
          "type": "address"
        }
      ],
      "name": "balanceOf",
      "outputs": [
        {
          "internalType": "uint256",
          "name": "",
          "type": "uint256"
        }
      ],
      "stateMutability": "view",
      "type": "function"
    },
    {
      "inputs": [
        {
          "internalType": "address",
          "name": "refundRecipient",
          "type": "address"
        },
        {
          "internalType": "address",
          "name": "tipRecipient",
          "type": "address"
        },
        {
          "internalType": "address",
          "name": "_gatewayFeeRecipient",
          "type": "address"
        },
        {
          "internalType": "address",
          "name": "baseFeeRecipient",
          "type": "address"
        },
        {
          "internalType": "uint256",
          "name": "refundAmount",
          "type": "uint256"
        },
        {
          "internalType": "uint256",
          "name": "tipAmount",
          "type": "uint256"
        },
        {
          "internalType": "uint256",
          "name": "_gatewayFeeAmount",
          "type": "uint256"
        },
        {
          "internalType": "uint256",
          "name": "baseFeeAmount",
          "type": "uint256"
        }
      ],
      "name": "creditGasFees",
      "outputs": [],
      "stateMutability": "nonpayable",
      "type": "function"
    },
    {
      "inputs": [
        {
          "internalType": "address",
          "name": "from",
          "type": "address"
        },
        {
          "internalType": "uint256",
          "name": "value",
          "type": "uint256"
        }
      ],
      "name": "debitGasFees",
      "outputs": [],
      "stateMutability": "nonpayable",
      "type": "function"
    },
    {
      "inputs": [],
      "name": "debited",
      "outputs": [
        {
          "internalType": "uint256",
          "name": "",
          "type": "uint256"
        }
      ],
      "stateMutability": "view",
      "type": "function"
    },
    {
      "inputs": [],
      "name": "decimals",
      "outputs": [
        {
          "internalType": "uint8",
          "name": "",
          "type": "uint8"
        }
      ],
      "stateMutability": "view",
      "type": "function"
    },
    {
      "inputs": [],
      "name": "digitDifference",
      "outputs": [
        {
          "internalType": "uint96",
          "name": "",
          "type": "uint96"
        }
      ],
      "stateMutability": "view",
      "type": "function"
    },
    {
      "inputs": [],
      "name": "expectedDecimals",
      "outputs": [
        {
          "internalType": "uint8",
          "name": "",
          "type": "uint8"
        }
      ],
      "stateMutability": "view",
      "type": "function"
    },
    {
      "inputs": [],
      "name": "getAdaptedToken",
      "outputs": [
        {
          "internalType": "address",
          "name": "",
          "type": "address"
        }
      ],
      "stateMutability": "view",
      "type": "function"
    },
    {
      "inputs": [],
      "name": "initialized",
      "outputs": [
        {
          "internalType": "bool",
          "name": "",
          "type": "bool"
        }
      ],
      "stateMutability": "view",
      "type": "function"
    },
    {
      "inputs": [],
      "name": "name",
      "outputs": [
        {
          "internalType": "string",
          "name": "",
          "type": "string"
        }
      ],
      "stateMutability": "view",
      "type": "function"
    },
    {
      "inputs": [],
      "name": "owner",
      "outputs": [
        {
          "internalType": "address",
          "name": "",
          "type": "address"
        }
      ],
      "stateMutability": "view",
      "type": "function"
    },
    {
      "inputs": [],
      "name": "renounceOwnership",
      "outputs": [],
      "stateMutability": "nonpayable",
      "type": "function"
    },
    {
      "inputs": [],
      "name": "symbol",
      "outputs": [
        {
          "internalType": "string",
          "name": "",
          "type": "string"
        }
      ],
      "stateMutability": "view",
      "type": "function"
    },
    {
      "inputs": [],
      "name": "totalSupply",
      "outputs": [
        {
          "internalType": "uint256",
          "name": "",
          "type": "uint256"
        }
      ],
      "stateMutability": "view",
      "type": "function"
    },
    {
      "inputs": [
        {
          "internalType": "address",
          "name": "newOwner",
          "type": "address"
        }
      ],
      "name": "transferOwnership",
      "outputs": [],
      "stateMutability": "nonpayable",
      "type": "function"
    },
    {
      "inputs": [
        {
          "internalType": "address",
          "name": "_adaptedToken",
          "type": "address"
        },
        {
          "internalType": "string",
          "name": "_name",
          "type": "string"
        },
        {
          "internalType": "string",
          "name": "_symbol",
          "type": "string"
        },
        {
          "internalType": "uint8",
          "name": "_expectedDecimals",
          "type": "uint8"
        }
      ],
      "name": "initialize",
      "outputs": [],
      "stateMutability": "nonpayable",
      "type": "function"
    },
    {
      "inputs": [
        {
          "internalType": "address",
          "name": "_adaptedToken",
          "type": "address"
        }
      ],
      "name": "setAdaptedToken",
      "outputs": [],
      "stateMutability": "nonpayable",
      "type": "function"
    }
  ],
  "bytecode": "0x6080604052600060025534801561001557600080fd5b506040516110f83803806110f8833981016040819052610034916100ad565b808080610049576000805460ff191660011790555b5061005590503361005b565b506100d6565b603280546001600160a01b038381166001600160a01b0319831681179093556040519116919082907f8be0079c531659141344cd1fd0a4f28419497f9722a3daafe3b4186f6b6457e090600090a35050565b6000602082840312156100bf57600080fd5b815180151581146100cf57600080fd5b9392505050565b611013806100e56000396000f3fe608060405234801561001057600080fd5b50600436106101165760003560e01c8063715018a6116100a2578063cc23a4a311610071578063cc23a4a314610241578063eeee9dc21461024e578063f2fde38b14610264578063f6d2ee8614610277578063fadbb8591461028a57600080fd5b8063715018a6146101f45780638da5cb5b146101fc57806395d89b4114610221578063989516db1461022957600080fd5b80633cf03412116100e95780633cf034121461018557806358cf96721461018e5780635ee5c82a146101a35780636a30b253146101ce57806370a08231146101e157600080fd5b806306fdde031461011b578063158ef93e1461013957806318160ddd14610156578063313ce5671461016c575b600080fd5b61012361029d565b6040516101309190610a76565b60405180910390f35b6000546101469060ff1681565b6040519015158152602001610130565b61015e61032b565b604051908152602001610130565b60055460ff165b60405160ff9091168152602001610130565b61015e60025481565b6101a161019c366004610ae0565b6103b1565b005b6001546101b6906001600160601b031681565b6040516001600160601b039091168152602001610130565b6101a16101dc366004610b0a565b6104ca565b61015e6101ef366004610b82565b610689565b6101a16106e1565b6032546001600160a01b03165b6040516001600160a01b039091168152602001610130565b6101236106f5565b6000546102099061010090046001600160a01b031681565b6005546101739060ff1681565b60005461010090046001600160a01b0316610209565b6101a1610272366004610b82565b610702565b6101a1610285366004610c56565b61077b565b6101a1610298366004610b82565b610796565b600380546102aa90610cdd565b80601f01602080910402602001604051908101604052809291908181526020018280546102d690610cdd565b80156103235780601f106102f857610100808354040283529160200191610323565b820191906000526020600020905b81548152906001019060200180831161030657829003601f168201915b505050505081565b60006103ac600060019054906101000a90046001600160a01b03166001600160a01b03166318160ddd6040518163ffffffff1660e01b8152600401602060405180830381865afa158015610383573d6000803e3d6000fd5b505050506040513d601f19601f820116820180604052508101906103a79190610d17565b6107a7565b905090565b33156103f75760405162461bcd60e51b815260206004820152601060248201526f13db9b1e4815934818d85b8818d85b1b60821b60448201526064015b60405180910390fd5b6000610402826107c0565b9050600081116104545760405162461bcd60e51b815260206004820152601f60248201527f5363616c65642064656269742076616c7565206d757374206265203e20302e0060448201526064016103ee565b6002819055600054604051632c67cb3960e11b81526001600160a01b03858116600483015260248201849052610100909204909116906358cf967290604401600060405180830381600087803b1580156104ad57600080fd5b505af11580156104c1573d6000803e3d6000fd5b50505050505050565b331561050b5760405162461bcd60e51b815260206004820152601060248201526f13db9b1e4815934818d85b8818d85b1b60821b60448201526064016103ee565b6002541561067f57600061051e856107c0565b9050600061052b856107c0565b90506000610538846107c0565b600254909150816105498486610d46565b6105539190610d46565b11156105a15760405162461bcd60e51b815260206004820181905260248201527f43616e6e6f7420637265646974206d6f7265207468616e20646562697465642e60448201526064016103ee565b6000816105ae8486610d46565b6105b89190610d46565b6002546105c59190610d59565b905080156105da576105d78183610d46565b91505b60008054604051636a30b25360e01b81526001600160a01b038f811660048301528e81166024830152604482018490528c811660648301526084820188905260a4820187905260c482019390935260e4810185905261010090910490911690636a30b2539061010401600060405180830381600087803b15801561065d57600080fd5b505af1158015610671573d6000803e3d6000fd5b505060006002555050505050505b5050505050505050565b600080546040516370a0823160e01b81526001600160a01b0384811660048301526106db92610100900416906370a0823190602401602060405180830381865afa158015610383573d6000803e3d6000fd5b92915050565b6106e96107f1565b6106f3600061084b565b565b600480546102aa90610cdd565b61070a6107f1565b6001600160a01b03811661076f5760405162461bcd60e51b815260206004820152602660248201527f4f776e61626c653a206e6577206f776e657220697320746865207a65726f206160448201526564647265737360d01b60648201526084016103ee565b6107788161084b565b50565b6107843361084b565b6107908484848461089d565b50505050565b61079e6107f1565b61077881610a4e565b6001546000906106db906001600160601b031683610d6c565b600180546000916001600160601b03909116906107dd8285610d46565b6107e79190610d59565b6106db9190610d83565b6032546001600160a01b031633146106f35760405162461bcd60e51b815260206004820181905260248201527f4f776e61626c653a2063616c6c6572206973206e6f7420746865206f776e657260448201526064016103ee565b603280546001600160a01b038381166001600160a01b0319831681179093556040519116919082907f8be0079c531659141344cd1fd0a4f28419497f9722a3daafe3b4186f6b6457e090600090a35050565b60005460ff16156108f05760405162461bcd60e51b815260206004820152601c60248201527f636f6e747261637420616c726561647920696e697469616c697a65640000000060448201526064016103ee565b6000805460ff1916600117905561090684610a4e565b60036109128482610df4565b50600461091f8382610df4565b506000846001600160a01b031663313ce5676040518163ffffffff1660e01b8152600401602060405180830381865afa158015610960573d6000803e3d6000fd5b505050506040513d601f19601f820116820180604052508101906109849190610eb4565b90508160ff168160ff16106109fa5760405162461bcd60e51b815260206004820152603660248201527f446563696d616c73206f66206164617074656420746f6b656e206d757374206260448201527532901e1032bc3832b1ba32b2103232b1b4b6b0b6399760511b60648201526084016103ee565b610a048183610ed1565b610a0f90600a610fce565b600180546bffffffffffffffffffffffff19166001600160601b0392909216919091179055506005805460ff191660ff92909216919091179055505050565b600080546001600160a01b0390921661010002610100600160a81b0319909216919091179055565b600060208083528351808285015260005b81811015610aa357858101830151858201604001528201610a87565b506000604082860101526040601f19601f8301168501019250505092915050565b80356001600160a01b0381168114610adb57600080fd5b919050565b60008060408385031215610af357600080fd5b610afc83610ac4565b946020939093013593505050565b600080600080600080600080610100898b031215610b2757600080fd5b610b3089610ac4565b9750610b3e60208a01610ac4565b9650610b4c60408a01610ac4565b9550610b5a60608a01610ac4565b979a969950949760808101359660a0820135965060c0820135955060e0909101359350915050565b600060208284031215610b9457600080fd5b610b9d82610ac4565b9392505050565b634e487b7160e01b600052604160045260246000fd5b600082601f830112610bcb57600080fd5b813567ffffffffffffffff80821115610be657610be6610ba4565b604051601f8301601f19908116603f01168101908282118183101715610c0e57610c0e610ba4565b81604052838152866020858801011115610c2757600080fd5b836020870160208301376000602085830101528094505050505092915050565b60ff8116811461077857600080fd5b60008060008060808587031215610c6c57600080fd5b610c7585610ac4565b9350602085013567ffffffffffffffff80821115610c9257600080fd5b610c9e88838901610bba565b94506040870135915080821115610cb457600080fd5b50610cc187828801610bba565b9250506060850135610cd281610c47565b939692955090935050565b600181811c90821680610cf157607f821691505b602082108103610d1157634e487b7160e01b600052602260045260246000fd5b50919050565b600060208284031215610d2957600080fd5b5051919050565b634e487b7160e01b600052601160045260246000fd5b808201808211156106db576106db610d30565b818103818111156106db576106db610d30565b80820281158282048414176106db576106db610d30565b600082610da057634e487b7160e01b600052601260045260246000fd5b500490565b601f821115610def57600081815260208120601f850160051c81016020861015610dcc5750805b601f850160051c820191505b81811015610deb57828155600101610dd8565b5050505b505050565b815167ffffffffffffffff811115610e0e57610e0e610ba4565b610e2281610e1c8454610cdd565b84610da5565b602080601f831160018114610e575760008415610e3f5750858301515b600019600386901b1c1916600185901b178555610deb565b600085815260208120601f198616915b82811015610e8657888601518255948401946001909101908401610e67565b5085821015610ea45787850151600019600388901b60f8161c191681555b5050505050600190811b01905550565b600060208284031215610ec657600080fd5b8151610b9d81610c47565b60ff82811682821603908111156106db576106db610d30565b600181815b80851115610f25578160001904821115610f0b57610f0b610d30565b80851615610f1857918102915b93841c9390800290610eef565b509250929050565b600082610f3c575060016106db565b81610f49575060006106db565b8160018114610f5f5760028114610f6957610f85565b60019150506106db565b60ff841115610f7a57610f7a610d30565b50506001821b6106db565b5060208310610133831016604e8410600b8410161715610fa8575081810a6106db565b610fb28383610eea565b8060001904821115610fc657610fc6610d30565b029392505050565b6000610b9d60ff841683610f2d56fea2646970667358221220339ed41f79632d27f306d26ec28377c4e958eb281f904fb61e52e095d1ac7a6664736f6c63430008130033",
  "immutableReferences": {},
  "source": "// SPDX-License-Identifier: LGPL-3.0-only\npragma solidity >=0.8.7 <0.8.20;\n\nimport \"@openzeppelin/contracts8/access/Ownable.sol\";\nimport \"@openzeppelin/contracts8/token/ERC20/IERC20.sol\";\n\nimport \"./FeeCurrencyAdapter.sol\";\n\ncontract FeeCurrencyAdapterOwnable is FeeCurrencyAdapter, Ownable {\n  uint256[49] __gap2;\n\n  /**\n   * @notice Sets initialized == true on implementation contracts\n   * @param test Set to true to skip implementation initialization\n   */\n  constructor(bool test) FeeCurrencyAdapter(test) {}\n\n  /**\n   * @notice Used in place of the constructor to allow the contract to be upgradable via proxy.\n   * @param _adaptedToken The address of the adapted token.\n   * @param _name The name of the adapted token.\n   * @param _symbol The symbol of the adapted token.\n   * @param _expectedDecimals The expected number of decimals of the adapted token.\n   */\n  function initialize(\n    address _adaptedToken,\n    string memory _name,\n    string memory _symbol,\n    uint8 _expectedDecimals\n  ) public override {\n    _transferOwnership(msg.sender);\n    FeeCurrencyAdapter.initialize(_adaptedToken, _name, _symbol, _expectedDecimals);\n  }\n\n  /**\n   * @notice Sets adapted token address.\n   * @param _adaptedToken The address of the adapted token.\n   */\n  function setAdaptedToken(address _adaptedToken) public onlyOwner {\n    _setAdaptedToken(_adaptedToken);\n  }\n}\n",
  "sourcePath": "/Users/beaver/Development/temp/celo-monorepo/packages/protocol/contracts-0.8/stability/FeeCurrencyAdapterOwnable.sol",
  "compiler": {
    "name": "solc",
    "version": "0.8.19+commit.7dd6d404.Emscripten.clang"
  },
  "schemaVersion": "3.4.13",
  "updatedAt": "2025-05-05T17:49:34.220Z",
  "devdoc": {
    "kind": "dev",
    "methods": {
      "balanceOf(address)": {
        "params": {
          "account": "The address to query the balance of."
        },
        "returns": {
          "_0": "The balance of the specified address."
        }
      },
      "constructor": {
        "params": {
          "test": "Set to true to skip implementation initialization"
        }
      },
      "creditGasFees(address,address,address,address,uint256,uint256,uint256,uint256)": {
        "params": {
          "_gatewayFeeAmount": "The amount of the gateway fee (in adapted token digits). Unused.",
          "_gatewayFeeRecipient": "The recipient of the gateway fee. Unused.",
          "baseFeeAmount": "The amount of the base fee (in adapted token digits).",
          "baseFeeRecipient": "The recipient of the base fee.",
          "refundAmount": "The amount to refund (in adapted token digits).",
          "refundRecipient": "The recipient of the refund.",
          "tipAmount": "The amount to tip (in adapted token digits).",
          "tipRecipient": "The recipient of the tip."
        }
      },
      "debitGasFees(address,uint256)": {
        "params": {
          "from": "from address",
          "value": "Debited value in the adapted digits."
        }
      },
      "decimals()": {
        "returns": {
          "_0": "The total supply."
        }
      },
      "getAdaptedToken()": {
        "returns": {
          "_0": "The adapted token address."
        }
      },
      "initialize(address,string,string,uint8)": {
        "params": {
          "_adaptedToken": "The address of the adapted token.",
          "_expectedDecimals": "The expected number of decimals of the adapted token.",
          "_name": "The name of the adapted token.",
          "_symbol": "The symbol of the adapted token."
        }
      },
      "owner()": {
        "details": "Returns the address of the current owner."
      },
      "renounceOwnership()": {
        "details": "Leaves the contract without owner. It will not be possible to call `onlyOwner` functions. Can only be called by the current owner. NOTE: Renouncing ownership will leave the contract without an owner, thereby disabling any functionality that is only available to the owner."
      },
      "setAdaptedToken(address)": {
        "params": {
          "_adaptedToken": "The address of the adapted token."
        }
      },
      "totalSupply()": {
        "returns": {
          "_0": "The total supply."
        }
      },
      "transferOwnership(address)": {
        "details": "Transfers ownership of the contract to a new account (`newOwner`). Can only be called by the current owner."
      }
    },
    "version": 1
  },
  "userdoc": {
    "kind": "user",
    "methods": {
      "balanceOf(address)": {
        "notice": "Gets the balance of the specified address with correct digits."
      },
      "constructor": {
        "notice": "Sets initialized == true on implementation contracts"
      },
      "creditGasFees(address,address,address,address,uint256,uint256,uint256,uint256)": {
        "notice": "Downscales value to the adapted token's native digits and credits it."
      },
      "debitGasFees(address,uint256)": {
        "notice": "Downscales value to the adapted token's native digits and debits it."
      },
      "decimals()": {
        "notice": "Gets the total supply with correct digits."
      },
      "getAdaptedToken()": {
        "notice": "Returns adapted token address."
      },
      "initialize(address,string,string,uint8)": {
        "notice": "Used in place of the constructor to allow the contract to be upgradable via proxy."
      },
      "setAdaptedToken(address)": {
        "notice": "Sets adapted token address."
      },
      "totalSupply()": {
        "notice": "Gets the total supply with correct digits."
      }
    },
    "version": 1
  }
}