{
  "contractName": "FeeCurrencyDirectory",
  "abi": [
    {
      "inputs": [
        {
          "internalType": "bool",
          "name": "test",
          "type": "bool"
        }
      ],
      "stateMutability": "nonpayable",
      "type": "constructor"
    },
    {
      "anonymous": false,
      "inputs": [
        {
          "indexed": true,
          "internalType": "address",
          "name": "token",
          "type": "address"
        },
        {
          "indexed": true,
          "internalType": "address",
          "name": "oracle",
          "type": "address"
        },
        {
          "indexed": false,
          "internalType": "uint256",
          "name": "intrinsicGas",
          "type": "uint256"
        }
      ],
      "name": "CurrencyConfigSet",
      "type": "event"
    },
    {
      "anonymous": false,
      "inputs": [
        {
          "indexed": true,
          "internalType": "address",
          "name": "token",
          "type": "address"
        }
      ],
      "name": "CurrencyRemoved",
      "type": "event"
    },
    {
      "anonymous": false,
      "inputs": [
        {
          "indexed": true,
          "internalType": "address",
          "name": "previousOwner",
          "type": "address"
        },
        {
          "indexed": true,
          "internalType": "address",
          "name": "newOwner",
          "type": "address"
        }
      ],
      "name": "OwnershipTransferred",
      "type": "event"
    },
    {
      "inputs": [
        {
          "internalType": "address",
          "name": "",
          "type": "address"
        }
      ],
      "name": "currencies",
      "outputs": [
        {
          "internalType": "address",
          "name": "oracle",
          "type": "address"
        },
        {
          "internalType": "uint256",
          "name": "intrinsicGas",
          "type": "uint256"
        }
      ],
      "stateMutability": "view",
      "type": "function"
    },
    {
      "inputs": [],
      "name": "initialized",
      "outputs": [
        {
          "internalType": "bool",
          "name": "",
          "type": "bool"
        }
      ],
      "stateMutability": "view",
      "type": "function"
    },
    {
      "inputs": [],
      "name": "owner",
      "outputs": [
        {
          "internalType": "address",
          "name": "",
          "type": "address"
        }
      ],
      "stateMutability": "view",
      "type": "function"
    },
    {
      "inputs": [],
      "name": "renounceOwnership",
      "outputs": [],
      "stateMutability": "nonpayable",
      "type": "function"
    },
    {
      "inputs": [
        {
          "internalType": "address",
          "name": "newOwner",
          "type": "address"
        }
      ],
      "name": "transferOwnership",
      "outputs": [],
      "stateMutability": "nonpayable",
      "type": "function"
    },
    {
      "inputs": [],
      "name": "initialize",
      "outputs": [],
      "stateMutability": "nonpayable",
      "type": "function"
    },
    {
      "inputs": [
        {
          "internalType": "address",
          "name": "token",
          "type": "address"
        },
        {
          "internalType": "address",
          "name": "oracle",
          "type": "address"
        },
        {
          "internalType": "uint256",
          "name": "intrinsicGas",
          "type": "uint256"
        }
      ],
      "name": "setCurrencyConfig",
      "outputs": [],
      "stateMutability": "nonpayable",
      "type": "function"
    },
    {
      "inputs": [
        {
          "internalType": "address",
          "name": "token",
          "type": "address"
        },
        {
          "internalType": "uint256",
          "name": "index",
          "type": "uint256"
        }
      ],
      "name": "removeCurrencies",
      "outputs": [],
      "stateMutability": "nonpayable",
      "type": "function"
    },
    {
      "inputs": [],
      "name": "getVersionNumber",
      "outputs": [
        {
          "internalType": "uint256",
          "name": "",
          "type": "uint256"
        },
        {
          "internalType": "uint256",
          "name": "",
          "type": "uint256"
        },
        {
          "internalType": "uint256",
          "name": "",
          "type": "uint256"
        },
        {
          "internalType": "uint256",
          "name": "",
          "type": "uint256"
        }
      ],
      "stateMutability": "pure",
      "type": "function"
    },
    {
      "inputs": [],
      "name": "getCurrencies",
      "outputs": [
        {
          "internalType": "address[]",
          "name": "",
          "type": "address[]"
        }
      ],
      "stateMutability": "view",
      "type": "function"
    },
    {
      "inputs": [
        {
          "internalType": "address",
          "name": "token",
          "type": "address"
        }
      ],
      "name": "getCurrencyConfig",
      "outputs": [
        {
          "components": [
            {
              "internalType": "address",
              "name": "oracle",
              "type": "address"
            },
            {
              "internalType": "uint256",
              "name": "intrinsicGas",
              "type": "uint256"
            }
          ],
          "internalType": "struct IFeeCurrencyDirectory.CurrencyConfig",
          "name": "",
          "type": "tuple"
        }
      ],
      "stateMutability": "view",
      "type": "function"
    },
    {
      "inputs": [
        {
          "internalType": "address",
          "name": "token",
          "type": "address"
        }
      ],
      "name": "getExchangeRate",
      "outputs": [
        {
          "internalType": "uint256",
          "name": "numerator",
          "type": "uint256"
        },
        {
          "internalType": "uint256",
          "name": "denominator",
          "type": "uint256"
        }
      ],
      "stateMutability": "view",
      "type": "function"
    }
  ],
  "bytecode": "0x608060405234801561001057600080fd5b50604051610bc4380380610bc483398101604081905261002f916100ac565b8080610043576000805460ff191660011790555b5061004d33610053565b506100d5565b600080546001600160a01b03838116610100818102610100600160a81b0319851617855560405193049190911692909183917f8be0079c531659141344cd1fd0a4f28419497f9722a3daafe3b4186f6b6457e091a35050565b6000602082840312156100be57600080fd5b815180151581146100ce57600080fd5b9392505050565b610ae0806100e46000396000f3fe608060405234801561001057600080fd5b50600436106100b45760003560e01c8063715018a611610071578063715018a6146101905780638129fc1c146101985780638da5cb5b146101a0578063eab43d97146101c9578063efb7601d14610245578063f2fde38b1461026d57600080fd5b8063158ef93e146100b957806316be73a8146100db578063216ab7df146100f057806354255be0146101035780636036cba31461012957806361c661de1461017b575b600080fd5b6000546100c69060ff1681565b60405190151581526020015b60405180910390f35b6100ee6100e936600461095e565b610280565b005b6100ee6100fe366004610988565b610465565b6001806000806040805194855260208501939093529183015260608201526080016100d2565b61015c6101373660046109c4565b600160208190526000918252604090912080549101546001600160a01b039091169082565b604080516001600160a01b0390931683526020830191909152016100d2565b61018361063f565b6040516100d291906109e6565b6100ee6106a1565b6100ee6106b5565b60005461010090046001600160a01b03166040516001600160a01b0390911681526020016100d2565b6102216101d73660046109c4565b604080518082018252600080825260209182018190526001600160a01b03938416815260018083529083902083518085019094528054909416835292909201549181019190915290565b6040805182516001600160a01b0316815260209283015192810192909252016100d2565b6102586102533660046109c4565b61071e565b604080519283526020830191909152016100d2565b6100ee61027b3660046109c4565b610810565b610288610889565b60025481106102d45760405162461bcd60e51b8152602060048201526013602482015272496e646578206f7574206f6620626f756e647360681b60448201526064015b60405180910390fd5b816001600160a01b0316600282815481106102f1576102f1610a33565b6000918252602090912001546001600160a01b0316146103535760405162461bcd60e51b815260206004820152601a60248201527f496e64657820646f6573206e6f74206d6174636820746f6b656e00000000000060448201526064016102cb565b6001600160a01b0382166000908152600160208190526040822080546001600160a01b031916815581019190915560028054909161039091610a49565b815481106103a0576103a0610a33565b600091825260209091200154600280546001600160a01b0390921691839081106103cc576103cc610a33565b9060005260206000200160006101000a8154816001600160a01b0302191690836001600160a01b03160217905550600280548061040b5761040b610a70565b600082815260208120820160001990810180546001600160a01b03191690559091019091556040516001600160a01b038416917fa40d69111be14f29022626d38310e47cc2d7f4cb728961509c2f65a4bee08c5b91a25050565b61046d610889565b6001600160a01b0382166104c35760405162461bcd60e51b815260206004820152601d60248201527f4f7261636c6520616464726573732063616e6e6f74206265207a65726f00000060448201526064016102cb565b600081116105135760405162461bcd60e51b815260206004820152601c60248201527f496e7472696e736963206761732063616e6e6f74206265207a65726f0000000060448201526064016102cb565b6001600160a01b0383811660009081526001602052604090205416156105855760405162461bcd60e51b815260206004820152602160248201527f43757272656e637920616c726561647920696e20746865206469726563746f726044820152607960f81b60648201526084016102cb565b6040805180820182526001600160a01b038481168083526020808401868152888416600081815260018085528882209751885497166001600160a01b03199788161788559251968301969096556002805492830181559095527f405787fa12a823e0f2b7631cc41b3ba8828b3321ca811111fa75cd3aa3bb5ace018054909316841790925592518481527f1bfad71c54fe241478cb00c00067b069d43cf48531041328242990dbb9cdba51910160405180910390a3505050565b6060600280548060200260200160405190810160405280929190818152602001828054801561069757602002820191906000526020600020905b81546001600160a01b03168152600190910190602001808311610679575b5050505050905090565b6106a9610889565b6106b360006108e9565b565b60005460ff16156107085760405162461bcd60e51b815260206004820152601c60248201527f636f6e747261637420616c726561647920696e697469616c697a65640000000060448201526064016102cb565b6000805460ff191660011790556106b3336108e9565b6001600160a01b0381811660009081526001602052604081205490918291166107895760405162461bcd60e51b815260206004820152601d60248201527f43757272656e6379206e6f7420696e20746865206469726563746f727900000060448201526064016102cb565b6001600160a01b038381166000818152600160205260409081902054905163efb7601d60e01b815260048101929092529091169063efb7601d906024016040805180830381865afa1580156107e2573d6000803e3d6000fd5b505050506040513d601f19601f820116820180604052508101906108069190610a86565b9094909350915050565b610818610889565b6001600160a01b03811661087d5760405162461bcd60e51b815260206004820152602660248201527f4f776e61626c653a206e6577206f776e657220697320746865207a65726f206160448201526564647265737360d01b60648201526084016102cb565b610886816108e9565b50565b6000546001600160a01b036101009091041633146106b35760405162461bcd60e51b815260206004820181905260248201527f4f776e61626c653a2063616c6c6572206973206e6f7420746865206f776e657260448201526064016102cb565b600080546001600160a01b03838116610100818102610100600160a81b0319851617855560405193049190911692909183917f8be0079c531659141344cd1fd0a4f28419497f9722a3daafe3b4186f6b6457e091a35050565b80356001600160a01b038116811461095957600080fd5b919050565b6000806040838503121561097157600080fd5b61097a83610942565b946020939093013593505050565b60008060006060848603121561099d57600080fd5b6109a684610942565b92506109b460208501610942565b9150604084013590509250925092565b6000602082840312156109d657600080fd5b6109df82610942565b9392505050565b6020808252825182820181905260009190848201906040850190845b81811015610a275783516001600160a01b031683529284019291840191600101610a02565b50909695505050505050565b634e487b7160e01b600052603260045260246000fd5b81810381811115610a6a57634e487b7160e01b600052601160045260246000fd5b92915050565b634e487b7160e01b600052603160045260246000fd5b60008060408385031215610a9957600080fd5b50508051602090910151909290915056fea2646970667358221220822a17e00d76185a21cc15098a99ade05ec896c35365016a201ae47b5f75106664736f6c63430008130033",
  "immutableReferences": {},
  "source": "// SPDX-License-Identifier: MIT\npragma solidity ^0.8.0;\n\nimport \"../../contracts/common/Initializable.sol\";\nimport \"./interfaces/IOracle.sol\";\nimport \"./interfaces/IFeeCurrencyDirectory.sol\";\nimport \"./interfaces/IFeeCurrencyDirectoryInitializer.sol\";\nimport \"@openzeppelin/contracts8/access/Ownable.sol\";\n\ncontract FeeCurrencyDirectory is\n  IFeeCurrencyDirectory,\n  IFeeCurrencyDirectoryInitializer,\n  Initializable,\n  Ownable\n{\n  mapping(address => CurrencyConfig) public currencies;\n  address[] private currencyList;\n\n  /**\n   * @notice Emitted when currency config is set.\n   * @param token Address of the added currency token.\n   * @param oracle Address of the currency token oracle.\n   * @param intrinsicGas The intrinsic gas value for transactions.\n   */\n  event CurrencyConfigSet(address indexed token, address indexed oracle, uint256 intrinsicGas);\n\n  /**\n   * @notice Emitted when currency is removed.\n   * @param token Address of the removed currency token.\n   */\n  event CurrencyRemoved(address indexed token);\n\n  constructor(bool test) Initializable(test) {}\n\n  /**\n   * @notice Initializes the contract with the owner set.\n   */\n  function initialize() public initializer {\n    _transferOwnership(msg.sender);\n  }\n\n  /**\n   * @notice Sets the currency configuration for a token.\n   * @dev This action can only be performed by the contract owner.\n   * @param token The token address.\n   * @param oracle The oracle address for price fetching.\n   * @param intrinsicGas The intrinsic gas value for transactions.\n   */\n  function setCurrencyConfig(\n    address token,\n    address oracle,\n    uint256 intrinsicGas\n  ) external onlyOwner {\n    require(oracle != address(0), \"Oracle address cannot be zero\");\n    require(intrinsicGas > 0, \"Intrinsic gas cannot be zero\");\n    require(currencies[token].oracle == address(0), \"Currency already in the directory\");\n\n    currencies[token] = CurrencyConfig({ oracle: oracle, intrinsicGas: intrinsicGas });\n    currencyList.push(token);\n    emit CurrencyConfigSet(token, oracle, intrinsicGas);\n  }\n\n  /**\n   * @notice Removes a token from the directory.\n   * @dev This action can only be performed by the contract owner.\n   * @param token The token address to remove.\n   * @param index The index in the list of directory currencies.\n   */\n  function removeCurrencies(address token, uint256 index) external onlyOwner {\n    require(index < currencyList.length, \"Index out of bounds\");\n    require(currencyList[index] == token, \"Index does not match token\");\n\n    delete currencies[token];\n    currencyList[index] = currencyList[currencyList.length - 1];\n    currencyList.pop();\n    emit CurrencyRemoved(token);\n  }\n\n  /**\n   * @notice Returns the storage, major, minor, and patch version of the contract.\n   * @return Storage version of the contract.\n   * @return Major version of the contract.\n   * @return Minor version of the contract.\n   * @return Patch version of the contract.\n   */\n  function getVersionNumber() external pure returns (uint256, uint256, uint256, uint256) {\n    return (1, 1, 0, 0);\n  }\n\n  /**\n   * @notice Returns the list of all currency addresses.\n   * @return An array of addresses.\n   */\n  function getCurrencies() public view returns (address[] memory) {\n    return currencyList;\n  }\n\n  /**\n   * @notice Returns the configuration for a currency.\n   * @param token The address of the token.\n   * @return Currency configuration of the token.\n   */\n  function getCurrencyConfig(address token) public view returns (CurrencyConfig memory) {\n    return currencies[token];\n  }\n\n  /**\n   * @notice Retrieves exchange rate between token and CELO.\n   * @param token The token address whose price is to be fetched.\n   * @return numerator The exchange rate numerator.\n   * @return denominator The exchange rate denominator.\n   */\n  function getExchangeRate(\n    address token\n  ) public view returns (uint256 numerator, uint256 denominator) {\n    require(currencies[token].oracle != address(0), \"Currency not in the directory\");\n    (numerator, denominator) = IOracle(currencies[token].oracle).getExchangeRate(token);\n  }\n}\n",
  "sourcePath": "/Users/beaver/Development/temp/celo-monorepo/packages/protocol/contracts-0.8/common/FeeCurrencyDirectory.sol",
  "compiler": {
    "name": "solc",
    "version": "0.8.19+commit.7dd6d404.Emscripten.clang"
  },
  "schemaVersion": "3.4.13",
  "updatedAt": "2025-05-05T17:49:34.137Z",
  "devdoc": {
    "events": {
      "CurrencyConfigSet(address,address,uint256)": {
        "params": {
          "intrinsicGas": "The intrinsic gas value for transactions.",
          "oracle": "Address of the currency token oracle.",
          "token": "Address of the added currency token."
        }
      },
      "CurrencyRemoved(address)": {
        "params": {
          "token": "Address of the removed currency token."
        }
      }
    },
    "kind": "dev",
    "methods": {
      "getCurrencies()": {
        "returns": {
          "_0": "An array of addresses."
        }
      },
      "getCurrencyConfig(address)": {
        "params": {
          "token": "The address of the token."
        },
        "returns": {
          "_0": "Currency configuration of the token."
        }
      },
      "getExchangeRate(address)": {
        "params": {
          "token": "The token address whose price is to be fetched."
        },
        "returns": {
          "denominator": "The exchange rate denominator.",
          "numerator": "The exchange rate numerator."
        }
      },
      "getVersionNumber()": {
        "returns": {
          "_0": "Storage version of the contract.",
          "_1": "Major version of the contract.",
          "_2": "Minor version of the contract.",
          "_3": "Patch version of the contract."
        }
      },
      "owner()": {
        "details": "Returns the address of the current owner."
      },
      "removeCurrencies(address,uint256)": {
        "details": "This action can only be performed by the contract owner.",
        "params": {
          "index": "The index in the list of directory currencies.",
          "token": "The token address to remove."
        }
      },
      "renounceOwnership()": {
        "details": "Leaves the contract without owner. It will not be possible to call `onlyOwner` functions. Can only be called by the current owner. NOTE: Renouncing ownership will leave the contract without an owner, thereby disabling any functionality that is only available to the owner."
      },
      "setCurrencyConfig(address,address,uint256)": {
        "details": "This action can only be performed by the contract owner.",
        "params": {
          "intrinsicGas": "The intrinsic gas value for transactions.",
          "oracle": "The oracle address for price fetching.",
          "token": "The token address."
        }
      },
      "transferOwnership(address)": {
        "details": "Transfers ownership of the contract to a new account (`newOwner`). Can only be called by the current owner."
      }
    },
    "version": 1
  },
  "userdoc": {
    "events": {
      "CurrencyConfigSet(address,address,uint256)": {
        "notice": "Emitted when currency config is set."
      },
      "CurrencyRemoved(address)": {
        "notice": "Emitted when currency is removed."
      }
    },
    "kind": "user",
    "methods": {
      "getCurrencies()": {
        "notice": "Returns the list of all currency addresses."
      },
      "getCurrencyConfig(address)": {
        "notice": "Returns the configuration for a currency."
      },
      "getExchangeRate(address)": {
        "notice": "Retrieves exchange rate between token and CELO."
      },
      "getVersionNumber()": {
        "notice": "Returns the storage, major, minor, and patch version of the contract."
      },
      "initialize()": {
        "notice": "Initializes the contract with the owner set."
      },
      "removeCurrencies(address,uint256)": {
        "notice": "Removes a token from the directory."
      },
      "setCurrencyConfig(address,address,uint256)": {
        "notice": "Sets the currency configuration for a token."
      }
    },
    "version": 1
  }
}