{
  "contractName": "FeeCurrencyAdapter",
  "abi": [
    {
      "inputs": [
        {
          "internalType": "bool",
          "name": "test",
          "type": "bool"
        }
      ],
      "stateMutability": "nonpayable",
      "type": "constructor"
    },
    {
      "inputs": [],
      "name": "adaptedToken",
      "outputs": [
        {
          "internalType": "contract IFeeCurrency",
          "name": "",
          "type": "address"
        }
      ],
      "stateMutability": "view",
      "type": "function"
    },
    {
      "inputs": [],
      "name": "debited",
      "outputs": [
        {
          "internalType": "uint256",
          "name": "",
          "type": "uint256"
        }
      ],
      "stateMutability": "view",
      "type": "function"
    },
    {
      "inputs": [],
      "name": "digitDifference",
      "outputs": [
        {
          "internalType": "uint96",
          "name": "",
          "type": "uint96"
        }
      ],
      "stateMutability": "view",
      "type": "function"
    },
    {
      "inputs": [],
      "name": "expectedDecimals",
      "outputs": [
        {
          "internalType": "uint8",
          "name": "",
          "type": "uint8"
        }
      ],
      "stateMutability": "view",
      "type": "function"
    },
    {
      "inputs": [],
      "name": "initialized",
      "outputs": [
        {
          "internalType": "bool",
          "name": "",
          "type": "bool"
        }
      ],
      "stateMutability": "view",
      "type": "function"
    },
    {
      "inputs": [],
      "name": "name",
      "outputs": [
        {
          "internalType": "string",
          "name": "",
          "type": "string"
        }
      ],
      "stateMutability": "view",
      "type": "function"
    },
    {
      "inputs": [],
      "name": "symbol",
      "outputs": [
        {
          "internalType": "string",
          "name": "",
          "type": "string"
        }
      ],
      "stateMutability": "view",
      "type": "function"
    },
    {
      "inputs": [
        {
          "internalType": "address",
          "name": "_adaptedToken",
          "type": "address"
        },
        {
          "internalType": "string",
          "name": "_name",
          "type": "string"
        },
        {
          "internalType": "string",
          "name": "_symbol",
          "type": "string"
        },
        {
          "internalType": "uint8",
          "name": "_expectedDecimals",
          "type": "uint8"
        }
      ],
      "name": "initialize",
      "outputs": [],
      "stateMutability": "nonpayable",
      "type": "function"
    },
    {
      "inputs": [
        {
          "internalType": "address",
          "name": "from",
          "type": "address"
        },
        {
          "internalType": "uint256",
          "name": "value",
          "type": "uint256"
        }
      ],
      "name": "debitGasFees",
      "outputs": [],
      "stateMutability": "nonpayable",
      "type": "function"
    },
    {
      "inputs": [
        {
          "internalType": "address",
          "name": "refundRecipient",
          "type": "address"
        },
        {
          "internalType": "address",
          "name": "tipRecipient",
          "type": "address"
        },
        {
          "internalType": "address",
          "name": "_gatewayFeeRecipient",
          "type": "address"
        },
        {
          "internalType": "address",
          "name": "baseFeeRecipient",
          "type": "address"
        },
        {
          "internalType": "uint256",
          "name": "refundAmount",
          "type": "uint256"
        },
        {
          "internalType": "uint256",
          "name": "tipAmount",
          "type": "uint256"
        },
        {
          "internalType": "uint256",
          "name": "_gatewayFeeAmount",
          "type": "uint256"
        },
        {
          "internalType": "uint256",
          "name": "baseFeeAmount",
          "type": "uint256"
        }
      ],
      "name": "creditGasFees",
      "outputs": [],
      "stateMutability": "nonpayable",
      "type": "function"
    },
    {
      "inputs": [],
      "name": "getAdaptedToken",
      "outputs": [
        {
          "internalType": "address",
          "name": "",
          "type": "address"
        }
      ],
      "stateMutability": "view",
      "type": "function"
    },
    {
      "inputs": [
        {
          "internalType": "address",
          "name": "account",
          "type": "address"
        }
      ],
      "name": "balanceOf",
      "outputs": [
        {
          "internalType": "uint256",
          "name": "",
          "type": "uint256"
        }
      ],
      "stateMutability": "view",
      "type": "function"
    },
    {
      "inputs": [],
      "name": "totalSupply",
      "outputs": [
        {
          "internalType": "uint256",
          "name": "",
          "type": "uint256"
        }
      ],
      "stateMutability": "view",
      "type": "function"
    },
    {
      "inputs": [],
      "name": "decimals",
      "outputs": [
        {
          "internalType": "uint8",
          "name": "",
          "type": "uint8"
        }
      ],
      "stateMutability": "view",
      "type": "function"
    }
  ],
  "bytecode": "0x6080604052600060025534801561001557600080fd5b50604051610eb5380380610eb58339810160408190526100349161004f565b8080610048576000805460ff191660011790555b5050610078565b60006020828403121561006157600080fd5b8151801515811461007157600080fd5b9392505050565b610e2e806100876000396000f3fe608060405234801561001057600080fd5b50600436106100ea5760003560e01c80636a30b2531161008c578063989516db11610066578063989516db146101d0578063cc23a4a314610200578063eeee9dc21461020d578063f6d2ee861461022357600080fd5b80636a30b253146101a257806370a08231146101b557806395d89b41146101c857600080fd5b8063313ce567116100c8578063313ce567146101405780633cf034121461015957806358cf9672146101625780635ee5c82a1461017757600080fd5b806306fdde03146100ef578063158ef93e1461010d57806318160ddd1461012a575b600080fd5b6100f7610236565b604051610104919061088e565b60405180910390f35b60005461011a9060ff1681565b6040519015158152602001610104565b6101326102c4565b604051908152602001610104565b60055460ff165b60405160ff9091168152602001610104565b61013260025481565b6101756101703660046108f8565b61034a565b005b60015461018a906001600160601b031681565b6040516001600160601b039091168152602001610104565b6101756101b0366004610922565b610463565b6101326101c336600461099a565b610622565b6100f761067a565b6000546101e89061010090046001600160a01b031681565b6040516001600160a01b039091168152602001610104565b6005546101479060ff1681565b60005461010090046001600160a01b03166101e8565b610175610231366004610a71565b610687565b6003805461024390610af8565b80601f016020809104026020016040519081016040528092919081815260200182805461026f90610af8565b80156102bc5780601f10610291576101008083540402835291602001916102bc565b820191906000526020600020905b81548152906001019060200180831161029f57829003601f168201915b505050505081565b6000610345600060019054906101000a90046001600160a01b03166001600160a01b03166318160ddd6040518163ffffffff1660e01b8152600401602060405180830381865afa15801561031c573d6000803e3d6000fd5b505050506040513d601f19601f820116820180604052508101906103409190610b32565b610844565b905090565b33156103905760405162461bcd60e51b815260206004820152601060248201526f13db9b1e4815934818d85b8818d85b1b60821b60448201526064015b60405180910390fd5b600061039b8261085d565b9050600081116103ed5760405162461bcd60e51b815260206004820152601f60248201527f5363616c65642064656269742076616c7565206d757374206265203e20302e006044820152606401610387565b6002819055600054604051632c67cb3960e11b81526001600160a01b03858116600483015260248201849052610100909204909116906358cf967290604401600060405180830381600087803b15801561044657600080fd5b505af115801561045a573d6000803e3d6000fd5b50505050505050565b33156104a45760405162461bcd60e51b815260206004820152601060248201526f13db9b1e4815934818d85b8818d85b1b60821b6044820152606401610387565b600254156106185760006104b78561085d565b905060006104c48561085d565b905060006104d18461085d565b600254909150816104e28486610b61565b6104ec9190610b61565b111561053a5760405162461bcd60e51b815260206004820181905260248201527f43616e6e6f7420637265646974206d6f7265207468616e20646562697465642e6044820152606401610387565b6000816105478486610b61565b6105519190610b61565b60025461055e9190610b74565b90508015610573576105708183610b61565b91505b60008054604051636a30b25360e01b81526001600160a01b038f811660048301528e81166024830152604482018490528c811660648301526084820188905260a4820187905260c482019390935260e4810185905261010090910490911690636a30b2539061010401600060405180830381600087803b1580156105f657600080fd5b505af115801561060a573d6000803e3d6000fd5b505060006002555050505050505b5050505050505050565b600080546040516370a0823160e01b81526001600160a01b03848116600483015261067492610100900416906370a0823190602401602060405180830381865afa15801561031c573d6000803e3d6000fd5b92915050565b6004805461024390610af8565b60005460ff16156106da5760405162461bcd60e51b815260206004820152601c60248201527f636f6e747261637420616c726561647920696e697469616c697a6564000000006044820152606401610387565b600080546001600160a81b0319166101006001600160a01b0387160217600117905560036107088482610bd6565b5060046107158382610bd6565b506000846001600160a01b031663313ce5676040518163ffffffff1660e01b8152600401602060405180830381865afa158015610756573d6000803e3d6000fd5b505050506040513d601f19601f8201168201806040525081019061077a9190610c96565b90508160ff168160ff16106107f05760405162461bcd60e51b815260206004820152603660248201527f446563696d616c73206f66206164617074656420746f6b656e206d757374206260448201527532901e1032bc3832b1ba32b2103232b1b4b6b0b6399760511b6064820152608401610387565b6107fa8183610cb3565b61080590600a610db0565b600180546bffffffffffffffffffffffff19166001600160601b0392909216919091179055506005805460ff191660ff92909216919091179055505050565b600154600090610674906001600160601b031683610dbf565b600180546000916001600160601b039091169061087a8285610b61565b6108849190610b74565b6106749190610dd6565b600060208083528351808285015260005b818110156108bb5785810183015185820160400152820161089f565b506000604082860101526040601f19601f8301168501019250505092915050565b80356001600160a01b03811681146108f357600080fd5b919050565b6000806040838503121561090b57600080fd5b610914836108dc565b946020939093013593505050565b600080600080600080600080610100898b03121561093f57600080fd5b610948896108dc565b975061095660208a016108dc565b965061096460408a016108dc565b955061097260608a016108dc565b979a969950949760808101359660a0820135965060c0820135955060e0909101359350915050565b6000602082840312156109ac57600080fd5b6109b5826108dc565b9392505050565b634e487b7160e01b600052604160045260246000fd5b600082601f8301126109e357600080fd5b813567ffffffffffffffff808211156109fe576109fe6109bc565b604051601f8301601f19908116603f01168101908282118183101715610a2657610a266109bc565b81604052838152866020858801011115610a3f57600080fd5b836020870160208301376000602085830101528094505050505092915050565b60ff81168114610a6e57600080fd5b50565b60008060008060808587031215610a8757600080fd5b610a90856108dc565b9350602085013567ffffffffffffffff80821115610aad57600080fd5b610ab9888389016109d2565b94506040870135915080821115610acf57600080fd5b50610adc878288016109d2565b9250506060850135610aed81610a5f565b939692955090935050565b600181811c90821680610b0c57607f821691505b602082108103610b2c57634e487b7160e01b600052602260045260246000fd5b50919050565b600060208284031215610b4457600080fd5b5051919050565b634e487b7160e01b600052601160045260246000fd5b8082018082111561067457610674610b4b565b8181038181111561067457610674610b4b565b601f821115610bd157600081815260208120601f850160051c81016020861015610bae5750805b601f850160051c820191505b81811015610bcd57828155600101610bba565b5050505b505050565b815167ffffffffffffffff811115610bf057610bf06109bc565b610c0481610bfe8454610af8565b84610b87565b602080601f831160018114610c395760008415610c215750858301515b600019600386901b1c1916600185901b178555610bcd565b600085815260208120601f198616915b82811015610c6857888601518255948401946001909101908401610c49565b5085821015610c865787850151600019600388901b60f8161c191681555b5050505050600190811b01905550565b600060208284031215610ca857600080fd5b81516109b581610a5f565b60ff828116828216039081111561067457610674610b4b565b600181815b80851115610d07578160001904821115610ced57610ced610b4b565b80851615610cfa57918102915b93841c9390800290610cd1565b509250929050565b600082610d1e57506001610674565b81610d2b57506000610674565b8160018114610d415760028114610d4b57610d67565b6001915050610674565b60ff841115610d5c57610d5c610b4b565b50506001821b610674565b5060208310610133831016604e8410600b8410161715610d8a575081810a610674565b610d948383610ccc565b8060001904821115610da857610da8610b4b565b029392505050565b60006109b560ff841683610d0f565b808202811582820484141761067457610674610b4b565b600082610df357634e487b7160e01b600052601260045260246000fd5b50049056fea26469706673582212207d6d33aa887a49c0be6ac8296ac2dac010d77fb0163c4d93366f6d3e1058e7e164736f6c63430008130033",
  "immutableReferences": {},
  "source": "// SPDX-License-Identifier: LGPL-3.0-only\npragma solidity >=0.8.7 <0.8.20;\n\nimport \"@openzeppelin/contracts8/access/Ownable.sol\";\nimport \"@openzeppelin/contracts8/token/ERC20/IERC20.sol\";\n\nimport \"../../contracts/common/CalledByVm.sol\";\nimport \"../../contracts/common/Initializable.sol\";\nimport \"../../contracts/common/interfaces/ICeloVersionedContract.sol\";\nimport \"../../contracts/common/FixidityLib.sol\";\nimport \"../../contracts/stability/interfaces/ISortedOracles.sol\";\nimport \"./interfaces/IFeeCurrency.sol\";\nimport \"./interfaces/IDecimals.sol\";\nimport \"./interfaces/IFeeCurrencyAdapter.sol\";\n\ncontract FeeCurrencyAdapter is Initializable, CalledByVm, IFeeCurrencyAdapter {\n  IFeeCurrency public adaptedToken;\n\n  uint96 public digitDifference;\n\n  uint256 public debited = 0;\n\n  string public name;\n  string public symbol;\n\n  uint8 public expectedDecimals;\n\n  uint256[44] __gap;\n\n  /**\n   * @notice Sets initialized == true on implementation contracts\n   * @param test Set to true to skip implementation initialization\n   */\n  constructor(bool test) Initializable(test) {}\n\n  /**\n   * @notice Used in place of the constructor to allow the contract to be upgradable via proxy.\n   * @param _adaptedToken The address of the adapted token.\n   * @param _name The name of the adapted token.\n   * @param _symbol The symbol of the adapted token.\n   * @param _expectedDecimals The expected number of decimals of the adapted token.\n   * @notice _expectedDecimals must be bigger than _adaptedToken.decimals().\n   */\n  function initialize(\n    address _adaptedToken,\n    string memory _name,\n    string memory _symbol,\n    uint8 _expectedDecimals\n  ) public virtual initializer {\n    _setAdaptedToken(_adaptedToken);\n    name = _name;\n    symbol = _symbol;\n    uint8 _decimals = IDecimals(_adaptedToken).decimals();\n    require(\n      _decimals < _expectedDecimals,\n      \"Decimals of adapted token must be < expected decimals.\"\n    );\n    digitDifference = uint96(10 ** (_expectedDecimals - _decimals));\n    expectedDecimals = _expectedDecimals;\n  }\n\n  /**\n   * Downscales value to the adapted token's native digits and debits it.\n   * @param from from address\n   * @param value Debited value in the adapted digits.\n   */\n  function debitGasFees(address from, uint256 value) external onlyVm {\n    uint256 valueScaled = downscale(value);\n    require(valueScaled > 0, \"Scaled debit value must be > 0.\");\n    debited = valueScaled;\n    adaptedToken.debitGasFees(from, valueScaled);\n  }\n\n  /**\n   * Downscales value to the adapted token's native digits and credits it.\n   * @param refundRecipient The recipient of the refund.\n   * @param tipRecipient The recipient of the tip.\n   * @param _gatewayFeeRecipient The recipient of the gateway fee. Unused.\n   * @param baseFeeRecipient The recipient of the base fee.\n   * @param refundAmount The amount to refund (in adapted token digits).\n   * @param tipAmount The amount to tip (in adapted token digits).\n   * @param _gatewayFeeAmount The amount of the gateway fee (in adapted token digits). Unused.\n   * @param baseFeeAmount The amount of the base fee (in adapted token digits).\n   */\n  function creditGasFees(\n    address refundRecipient,\n    address tipRecipient,\n    address _gatewayFeeRecipient,\n    address baseFeeRecipient,\n    uint256 refundAmount,\n    uint256 tipAmount,\n    uint256 _gatewayFeeAmount,\n    uint256 baseFeeAmount\n  ) external onlyVm {\n    if (debited == 0) {\n      // When eth.estimateGas is called, this function is called but we don't want to credit anything.\n      return;\n    }\n\n    uint256 refundScaled = downscale(refundAmount);\n    uint256 tipTxFeeScaled = downscale(tipAmount);\n    uint256 baseTxFeeScaled = downscale(baseFeeAmount);\n\n    require(\n      refundScaled + tipTxFeeScaled + baseTxFeeScaled <= debited,\n      \"Cannot credit more than debited.\"\n    );\n\n    uint256 roundingError = debited - (refundScaled + tipTxFeeScaled + baseTxFeeScaled);\n\n    if (roundingError > 0) {\n      baseTxFeeScaled += roundingError;\n    }\n    adaptedToken.creditGasFees(\n      refundRecipient,\n      tipRecipient,\n      address(0),\n      baseFeeRecipient,\n      refundScaled,\n      tipTxFeeScaled,\n      0,\n      baseTxFeeScaled\n    );\n\n    debited = 0;\n  }\n\n  /**\n   * @notice Returns adapted token address.\n   * @return The adapted token address.\n   */\n  function getAdaptedToken() external view returns (address) {\n    return address(adaptedToken);\n  }\n\n  /**\n   * @notice Gets the balance of the specified address with correct digits.\n   * @param account The address to query the balance of.\n   * @return The balance of the specified address.\n   */\n  function balanceOf(address account) external view returns (uint256) {\n    return upscale(adaptedToken.balanceOf(account));\n  }\n\n  /**\n   * @notice Gets the total supply with correct digits.\n   * @return The total supply.\n   */\n  function totalSupply() external view returns (uint256) {\n    return upscale(adaptedToken.totalSupply());\n  }\n\n  /**\n   * @notice Gets the total supply with correct digits.\n   * @return The total supply.\n   */\n  function decimals() external view returns (uint8) {\n    return expectedDecimals;\n  }\n\n  function _setAdaptedToken(address _adaptedToken) internal virtual {\n    adaptedToken = IFeeCurrency(_adaptedToken);\n  }\n\n  function upscale(uint256 value) internal view returns (uint256) {\n    return value * digitDifference;\n  }\n\n  /**\n   * @notice Downscales value to the adapted token's native digits.\n   * @dev Downscale is rounding up in favour of protocol. User possibly can pay a bit more than expected (up to 1 unit of a token).\n   * Example:\n   * USDC has 6 decimals and in such case user can pay up to 0.000001 USDC more than expected.\n   * WBTC (currently not supported by Celo chain as fee currency) has 8 decimals and in such case user can pay up to 0.00000001 WBTC more than expected.\n   * Considering the current price of WBTC, it's less than 0.0005 USD. Even when WBTC price would be 1 mil USD, it's still would be only 0.01 USD.\n   * In general it is a very small amount and it is acceptable to round up in favor of the protocol.\n   * @param value The value to downscale.\n   */\n  function downscale(uint256 value) internal view returns (uint256) {\n    return (value + digitDifference - 1) / digitDifference;\n  }\n}\n",
  "sourcePath": "/Users/beaver/Development/temp/celo-monorepo/packages/protocol/contracts-0.8/stability/FeeCurrencyAdapter.sol",
  "compiler": {
    "name": "solc",
    "version": "0.8.19+commit.7dd6d404.Emscripten.clang"
  },
  "schemaVersion": "3.4.13",
  "updatedAt": "2025-05-05T17:49:34.217Z",
  "devdoc": {
    "kind": "dev",
    "methods": {
      "balanceOf(address)": {
        "params": {
          "account": "The address to query the balance of."
        },
        "returns": {
          "_0": "The balance of the specified address."
        }
      },
      "constructor": {
        "params": {
          "test": "Set to true to skip implementation initialization"
        }
      },
      "creditGasFees(address,address,address,address,uint256,uint256,uint256,uint256)": {
        "params": {
          "_gatewayFeeAmount": "The amount of the gateway fee (in adapted token digits). Unused.",
          "_gatewayFeeRecipient": "The recipient of the gateway fee. Unused.",
          "baseFeeAmount": "The amount of the base fee (in adapted token digits).",
          "baseFeeRecipient": "The recipient of the base fee.",
          "refundAmount": "The amount to refund (in adapted token digits).",
          "refundRecipient": "The recipient of the refund.",
          "tipAmount": "The amount to tip (in adapted token digits).",
          "tipRecipient": "The recipient of the tip."
        }
      },
      "debitGasFees(address,uint256)": {
        "params": {
          "from": "from address",
          "value": "Debited value in the adapted digits."
        }
      },
      "decimals()": {
        "returns": {
          "_0": "The total supply."
        }
      },
      "getAdaptedToken()": {
        "returns": {
          "_0": "The adapted token address."
        }
      },
      "initialize(address,string,string,uint8)": {
        "params": {
          "_adaptedToken": "The address of the adapted token.",
          "_expectedDecimals": "The expected number of decimals of the adapted token.",
          "_name": "The name of the adapted token.",
          "_symbol": "The symbol of the adapted token."
        }
      },
      "totalSupply()": {
        "returns": {
          "_0": "The total supply."
        }
      }
    },
    "stateVariables": {
      "debited": {
        "return": "The amount that is debited after calling debitGasFees() and before creditGasFees().",
        "returns": {
          "_0": "The amount that is debited after calling debitGasFees() and before creditGasFees()."
        }
      },
      "digitDifference": {
        "return": "The multiplier that should be used when upscaling and downscaling. This is the result of 10**(expectedDecimals - getAdaptedToken().decimals()).",
        "returns": {
          "_0": "The multiplier that should be used when upscaling and downscaling. This is the result of 10**(expectedDecimals - getAdaptedToken().decimals())."
        }
      },
      "expectedDecimals": {
        "return": "Same as decimals.",
        "returns": {
          "_0": "Same as decimals."
        }
      },
      "name": {
        "return": "The name of the adapted token.",
        "returns": {
          "_0": "The name of the adapted token."
        }
      },
      "symbol": {
        "return": "The symbol of adapted token.",
        "returns": {
          "_0": "The symbol of adapted token."
        }
      }
    },
    "version": 1
  },
  "userdoc": {
    "kind": "user",
    "methods": {
      "balanceOf(address)": {
        "notice": "Gets the balance of the specified address with correct digits."
      },
      "constructor": {
        "notice": "Sets initialized == true on implementation contracts"
      },
      "creditGasFees(address,address,address,address,uint256,uint256,uint256,uint256)": {
        "notice": "Downscales value to the adapted token's native digits and credits it."
      },
      "debitGasFees(address,uint256)": {
        "notice": "Downscales value to the adapted token's native digits and debits it."
      },
      "decimals()": {
        "notice": "Gets the total supply with correct digits."
      },
      "getAdaptedToken()": {
        "notice": "Returns adapted token address."
      },
      "initialize(address,string,string,uint8)": {
        "notice": "Used in place of the constructor to allow the contract to be upgradable via proxy._expectedDecimals must be bigger than _adaptedToken.decimals()."
      },
      "totalSupply()": {
        "notice": "Gets the total supply with correct digits."
      }
    },
    "version": 1
  }
}