{
  "contractName": "GasPriceMinimum",
  "abi": [
    {
      "inputs": [
        {
          "internalType": "bool",
          "name": "test",
          "type": "bool"
        }
      ],
      "stateMutability": "nonpayable",
      "type": "constructor"
    },
    {
      "anonymous": false,
      "inputs": [
        {
          "indexed": false,
          "internalType": "uint256",
          "name": "adjustmentSpeed",
          "type": "uint256"
        }
      ],
      "name": "AdjustmentSpeedSet",
      "type": "event"
    },
    {
      "anonymous": false,
      "inputs": [
        {
          "indexed": false,
          "internalType": "uint256",
          "name": "baseFeeOpCodeActivationBlock",
          "type": "uint256"
        }
      ],
      "name": "BaseFeeOpCodeActivationBlockSet",
      "type": "event"
    },
    {
      "anonymous": false,
      "inputs": [
        {
          "indexed": false,
          "internalType": "uint256",
          "name": "gasPriceMinimumFloor",
          "type": "uint256"
        }
      ],
      "name": "GasPriceMinimumFloorSet",
      "type": "event"
    },
    {
      "anonymous": false,
      "inputs": [
        {
          "indexed": false,
          "internalType": "uint256",
          "name": "gasPriceMinimum",
          "type": "uint256"
        }
      ],
      "name": "GasPriceMinimumUpdated",
      "type": "event"
    },
    {
      "anonymous": false,
      "inputs": [
        {
          "indexed": true,
          "internalType": "address",
          "name": "previousOwner",
          "type": "address"
        },
        {
          "indexed": true,
          "internalType": "address",
          "name": "newOwner",
          "type": "address"
        }
      ],
      "name": "OwnershipTransferred",
      "type": "event"
    },
    {
      "anonymous": false,
      "inputs": [
        {
          "indexed": true,
          "internalType": "address",
          "name": "registryAddress",
          "type": "address"
        }
      ],
      "name": "RegistrySet",
      "type": "event"
    },
    {
      "anonymous": false,
      "inputs": [
        {
          "indexed": false,
          "internalType": "uint256",
          "name": "targetDensity",
          "type": "uint256"
        }
      ],
      "name": "TargetDensitySet",
      "type": "event"
    },
    {
      "inputs": [],
      "name": "initialized",
      "outputs": [
        {
          "internalType": "bool",
          "name": "",
          "type": "bool"
        }
      ],
      "stateMutability": "view",
      "type": "function"
    },
    {
      "inputs": [],
      "name": "owner",
      "outputs": [
        {
          "internalType": "address",
          "name": "",
          "type": "address"
        }
      ],
      "stateMutability": "view",
      "type": "function"
    },
    {
      "inputs": [],
      "name": "registry",
      "outputs": [
        {
          "internalType": "contract IRegistry",
          "name": "",
          "type": "address"
        }
      ],
      "stateMutability": "view",
      "type": "function"
    },
    {
      "inputs": [],
      "name": "renounceOwnership",
      "outputs": [],
      "stateMutability": "nonpayable",
      "type": "function"
    },
    {
      "inputs": [
        {
          "internalType": "address",
          "name": "registryAddress",
          "type": "address"
        }
      ],
      "name": "setRegistry",
      "outputs": [],
      "stateMutability": "nonpayable",
      "type": "function"
    },
    {
      "inputs": [
        {
          "internalType": "address",
          "name": "newOwner",
          "type": "address"
        }
      ],
      "name": "transferOwnership",
      "outputs": [],
      "stateMutability": "nonpayable",
      "type": "function"
    },
    {
      "inputs": [
        {
          "internalType": "address",
          "name": "_registryAddress",
          "type": "address"
        },
        {
          "internalType": "uint256",
          "name": "_gasPriceMinimumFloor",
          "type": "uint256"
        },
        {
          "internalType": "uint256",
          "name": "_targetDensity",
          "type": "uint256"
        },
        {
          "internalType": "uint256",
          "name": "_adjustmentSpeed",
          "type": "uint256"
        },
        {
          "internalType": "uint256",
          "name": "_baseFeeOpCodeActivationBlock",
          "type": "uint256"
        }
      ],
      "name": "initialize",
      "outputs": [],
      "stateMutability": "nonpayable",
      "type": "function"
    },
    {
      "inputs": [
        {
          "internalType": "uint256",
          "name": "_baseFeeOpCodeActivationBlock",
          "type": "uint256"
        }
      ],
      "name": "setBaseFeeOpCodeActivationBlock",
      "outputs": [],
      "stateMutability": "nonpayable",
      "type": "function"
    },
    {
      "inputs": [
        {
          "internalType": "uint256",
          "name": "blockGasTotal",
          "type": "uint256"
        },
        {
          "internalType": "uint256",
          "name": "blockGasLimit",
          "type": "uint256"
        }
      ],
      "name": "updateGasPriceMinimum",
      "outputs": [
        {
          "internalType": "uint256",
          "name": "",
          "type": "uint256"
        }
      ],
      "stateMutability": "nonpayable",
      "type": "function"
    },
    {
      "inputs": [
        {
          "internalType": "address",
          "name": "tokenAddress",
          "type": "address"
        }
      ],
      "name": "getGasPriceMinimum",
      "outputs": [
        {
          "internalType": "uint256",
          "name": "",
          "type": "uint256"
        }
      ],
      "stateMutability": "view",
      "type": "function"
    },
    {
      "inputs": [],
      "name": "getVersionNumber",
      "outputs": [
        {
          "internalType": "uint256",
          "name": "",
          "type": "uint256"
        },
        {
          "internalType": "uint256",
          "name": "",
          "type": "uint256"
        },
        {
          "internalType": "uint256",
          "name": "",
          "type": "uint256"
        },
        {
          "internalType": "uint256",
          "name": "",
          "type": "uint256"
        }
      ],
      "stateMutability": "pure",
      "type": "function"
    },
    {
      "inputs": [
        {
          "internalType": "uint256",
          "name": "_adjustmentSpeed",
          "type": "uint256"
        }
      ],
      "name": "setAdjustmentSpeed",
      "outputs": [],
      "stateMutability": "nonpayable",
      "type": "function"
    },
    {
      "inputs": [
        {
          "internalType": "uint256",
          "name": "_targetDensity",
          "type": "uint256"
        }
      ],
      "name": "setTargetDensity",
      "outputs": [],
      "stateMutability": "nonpayable",
      "type": "function"
    },
    {
      "inputs": [
        {
          "internalType": "uint256",
          "name": "_gasPriceMinimumFloor",
          "type": "uint256"
        }
      ],
      "name": "setGasPriceMinimumFloor",
      "outputs": [],
      "stateMutability": "nonpayable",
      "type": "function"
    },
    {
      "inputs": [],
      "name": "gasPriceMinimum",
      "outputs": [
        {
          "internalType": "uint256",
          "name": "",
          "type": "uint256"
        }
      ],
      "stateMutability": "view",
      "type": "function"
    },
    {
      "inputs": [
        {
          "internalType": "uint256",
          "name": "blockGasTotal",
          "type": "uint256"
        },
        {
          "internalType": "uint256",
          "name": "blockGasLimit",
          "type": "uint256"
        }
      ],
      "name": "getUpdatedGasPriceMinimum",
      "outputs": [
        {
          "internalType": "uint256",
          "name": "",
          "type": "uint256"
        }
      ],
      "stateMutability": "view",
      "type": "function"
    },
    {
      "inputs": [],
      "name": "gasPriceMinimumFloor",
      "outputs": [
        {
          "internalType": "uint256",
          "name": "",
          "type": "uint256"
        }
      ],
      "stateMutability": "view",
      "type": "function"
    },
    {
      "inputs": [],
      "name": "targetDensity",
      "outputs": [
        {
          "internalType": "uint256",
          "name": "",
          "type": "uint256"
        }
      ],
      "stateMutability": "view",
      "type": "function"
    },
    {
      "inputs": [],
      "name": "adjustmentSpeed",
      "outputs": [
        {
          "internalType": "uint256",
          "name": "",
          "type": "uint256"
        }
      ],
      "stateMutability": "view",
      "type": "function"
    },
    {
      "inputs": [],
      "name": "baseFeeOpCodeActivationBlock",
      "outputs": [
        {
          "internalType": "uint256",
          "name": "",
          "type": "uint256"
        }
      ],
      "stateMutability": "view",
      "type": "function"
    }
  ],
  "bytecode": "0x608060405234801561001057600080fd5b5060405161179938038061179983398101604081905261002f916100a9565b8061003933610059565b80610052576000805460ff60a01b1916600160a01b1790555b50506100d2565b600080546001600160a01b038381166001600160a01b0319831681178455604051919092169283917f8be0079c531659141344cd1fd0a4f28419497f9722a3daafe3b4186f6b6457e09190a35050565b6000602082840312156100bb57600080fd5b815180151581146100cb57600080fd5b9392505050565b6116b8806100e16000396000f3fe608060405234801561001057600080fd5b506004361061012c5760003560e01c806393ca6fc4116100ad578063c12398b411610071578063c12398b414610266578063ceff0bd614610279578063ef712c5b14610281578063f2fde38b14610294578063f92ad219146102a757600080fd5b806393ca6fc414610212578063a54b7fc014610225578063a68f548e14610238578063a91ee0dc14610240578063b830f4a41461025357600080fd5b806354255be0116100f457806354255be0146101a0578063715018a6146101c65780637b103999146101ce5780638da5cb5b146101f95780638efd92ca1461020a57600080fd5b8063158ef93e1461013157806330f726b91461015a57806336945c2d1461016f5780634a3d5fe2146101855780634b930e5a1461018d575b600080fd5b60005461014590600160a01b900460ff1681565b60405190151581526020015b60405180910390f35b61016d61016836600461151b565b6102ba565b005b6101776103af565b604051908152602001610151565b6101776103de565b61016d61019b36600461151b565b6103fe565b604080516001808252600260208301529181019190915260006060820152608001610151565b61016d61041c565b6001546101e1906001600160a01b031681565b6040516001600160a01b039091168152602001610151565b6000546001600160a01b03166101e1565b610177610430565b61016d61022036600461151b565b610441565b610177610233366004611549565b610528565b61017761054b565b61016d61024e366004611549565b61056b565b61016d61026136600461151b565b610613565b610177610274366004611566565b6106c2565b610177610759565b61017761028f366004611566565b61076a565b61016d6102a2366004611549565b6108f0565b61016d6102b5366004611588565b610966565b6102c2610a17565b6102ca610a71565b604080516020808201835260009182905282518082018452849052600584905582518082018452919091528151808201835269d3c21bcecceda1000000815282519182019092528290525181106103785760405162461bcd60e51b815260206004820152602760248201527f61646a7573746d656e74207370656564206d75737420626520736d616c6c6572604482015266207468616e203160c81b60648201526084015b60405180910390fd5b6040518181527fd2e71cd7012df1df07d4908ff75ae4b2bfbb6c49d39144404661f1fd47253283906020015b60405180910390a150565b60006103b9610a71565b60006006541180156103cd57506006544310155b156103d757504890565b5060025490565b60006103e8610a71565b5060408051602081019091526004549081905290565b610406610a17565b61040e610a71565b610419816000610adf565b50565b610424610a17565b61042e6000610ba1565b565b600061043a610a71565b5060065490565b610449610a17565b610451610a71565b604080516020808201835260009182905282518082018452849052600484905582518082018452919091528151808201835269d3c21bcecceda1000000815282519182019092528290525181106104f85760405162461bcd60e51b815260206004820152602560248201527f7461726765742064656e73697479206d75737420626520736d616c6c6572207460448201526468616e203160d81b606482015260840161036f565b6040518181527f2a109bad06121312708ed2a3e9b3556ea85ef8eadd4d10d8181f50d114eb4fab906020016103a4565b6000610532610a71565b61054561053e83610bf1565b6001610e0d565b92915050565b6000610555610a71565b5060408051602081019091526005549081905290565b610573610a17565b6001600160a01b0381166105c95760405162461bcd60e51b815260206004820181905260248201527f43616e6e6f7420726567697374657220746865206e756c6c2061646472657373604482015260640161036f565b600180546001600160a01b0319166001600160a01b0383169081179091556040517f27fe5f0c1c3b1ed427cc63d0f05759ffdecf9aec9e18d31ef366fc8a6cb5dc3b90600090a250565b61061b610a17565b610623610a71565b6000811161068d5760405162461bcd60e51b815260206004820152603160248201527f676173207072696365206d696e696d756d20666c6f6f72206d7573742062652060448201527067726561746572207468616e207a65726f60781b606482015260840161036f565b60038190556040518181527f5548a13ccc1d9e4e2860461edda5ad49ba8a4fda485f67d954f9d7da8d2aff27906020016103a4565b600033156107055760405162461bcd60e51b815260206004820152601060248201526f13db9b1e4815934818d85b8818d85b1b60821b604482015260640161036f565b61070d610a71565b610717838361076a565b60028190556040519081527f6e53b2f8b69496c2a175588ad1326dbabe2f66df4d82f817aeca52e3474807fb9060200160405180910390a15060025492915050565b6000610763610a71565b5060035490565b6000610774610a71565b60006107808484610e25565b6040805160208101909152600454908190528151919250106000816107be57604080516020810190915260045481526107b99084610e58565b6107d9565b604080516020810190915260045481526107d9908490610e58565b9050600082610830576040805160208101909152600554815261082b906108009084610edc565b60408051602080820183526000909152815190810190915269d3c21bcecceda1000000815290610e58565b61087a565b6040805160208101909152600554815261087a9061084e9084610edc565b60408051602080820183526000909152815190810190915269d3c21bcecceda100000081525b9061124b565b905060006108ce6108c96108af60408051602080820183526000909152815190810190915269d3c21bcecceda1000000815290565b6108746108c26108bd6103af565b6112cb565b8690610edc565b611389565b90506003548110156108e2576003546108e4565b805b98975050505050505050565b6108f8610a17565b6001600160a01b03811661095d5760405162461bcd60e51b815260206004820152602660248201527f4f776e61626c653a206e6577206f776e657220697320746865207a65726f206160448201526564647265737360d01b606482015260840161036f565b61041981610ba1565b600054600160a01b900460ff16156109c05760405162461bcd60e51b815260206004820152601c60248201527f636f6e747261637420616c726561647920696e697469616c697a656400000000604482015260640161036f565b6000805460ff60a01b1916600160a01b1790556109dc33610ba1565b6109e58561056b565b60028490556109f384610613565b6109fc83610441565b610a05826102ba565b610a10816001610adf565b5050505050565b6000546001600160a01b0316331461042e5760405162461bcd60e51b815260206004820181905260248201527f4f776e61626c653a2063616c6c6572206973206e6f7420746865206f776e6572604482015260640161036f565b6018602160991b013b63ffffffff161561042e5760405162461bcd60e51b815260206004820152602960248201527f54686973206d6574686f64206973206e6f206c6f6e67657220737570706f727460448201526832b21034b71026191760b91b606482015260840161036f565b610ae7610a17565b8080610af35750600082115b610b655760405162461bcd60e51b815260206004820152603960248201527f62617365466565206f70436f64652061637469766174696f6e20626c6f636b2060448201527f6d7573742062652067726561746572207468616e207a65726f00000000000000606482015260840161036f565b60068290556040518281527fc74fe30765574b78669fcec5cea6b0dcaacd907890a49fc756a40235d01b09fc9060200160405180910390a15050565b600080546001600160a01b038381166001600160a01b0319831681178455604051919092169283917f8be0079c531659141344cd1fd0a4f28419497f9722a3daafe3b4186f6b6457e09190a35050565b60006001600160a01b0382161580610cbb57506001546040516821b2b637aa37b5b2b760b91b60208201526001600160a01b039091169063dcf0aaed90602901604051602081830303815290604052805190602001206040518263ffffffff1660e01b8152600401610c6591815260200190565b602060405180830381865afa158015610c82573d6000803e3d6000fd5b505050506040513d601f19601f82011682018060405250810190610ca691906115cc565b6001600160a01b0316826001600160a01b0316145b15610cc8576105456103af565b6001546040516c536f727465644f7261636c657360981b60208201526000916001600160a01b03169063dcf0aaed90602d01604051602081830303815290604052805190602001206040518263ffffffff1660e01b8152600401610d2e91815260200190565b602060405180830381865afa158015610d4b573d6000803e3d6000fd5b505050506040513d601f19601f82011682018060405250810190610d6f91906115cc565b604051630ef90e1b60e41b81526001600160a01b03858116600483015291925060009182919084169063ef90e1b0906024016040805180830381865afa158015610dbd573d6000803e3d6000fd5b505050506040513d601f19601f82011682018060405250810190610de191906115e9565b90925090508082610df06103af565b610dfa9190611623565b610e04919061163a565b95945050505050565b6000818311610e1c5781610e1e565b825b9392505050565b6040805160208101909152600081526000610e3f846112cb565b90506000610e4c846112cb565b9050610e0482826113a3565b604080516020810190915260008152815183511015610eb95760405162461bcd60e51b815260206004820152601f60248201527f737562737472616374696f6e20756e646572666c6f7720646574656374656400604482015260640161036f565b6040805160208101909152825184518291610ed39161165c565b90529392505050565b60408051602081019091526000815282511580610ef857508151155b15610f125750604080516020810190915260008152610545565b815169d3c21bcecceda0ffffff1901610f2c575081610545565b825169d3c21bcecceda0ffffff1901610f46575080610545565b600069d3c21bcecceda1000000610f5c85611491565b51610f67919061163a565b90506000610f74856114d0565b519050600069d3c21bcecceda1000000610f8d86611491565b51610f98919061163a565b90506000610fa5866114d0565b5190506000610fb48386611623565b9050841561100d5782610fc7868361163a565b1461100d5760405162461bcd60e51b81526020600482015260166024820152751bdd995c999b1bddc81e0c5e4c4819195d1958dd195960521b604482015260640161036f565b600061102369d3c21bcecceda100000083611623565b9050811561108d5769d3c21bcecceda1000000611040838361163a565b1461108d5760405162461bcd60e51b815260206004820152601f60248201527f6f766572666c6f772078317931202a2066697865643120646574656374656400604482015260640161036f565b905080600061109c8587611623565b905085156110f557846110af878361163a565b146110f55760405162461bcd60e51b81526020600482015260166024820152751bdd995c999b1bddc81e0c9e4c4819195d1958dd195960521b604482015260640161036f565b60006111018589611623565b9050871561115a5784611114898361163a565b1461115a5760405162461bcd60e51b81526020600482015260166024820152751bdd995c999b1bddc81e0c5e4c8819195d1958dd195960521b604482015260640161036f565b61116964e8d4a510008861163a565b965061117a64e8d4a510008661163a565b945060006111888689611623565b905087156111e1578561119b898361163a565b146111e15760405162461bcd60e51b81526020600482015260166024820152751bdd995c999b1bddc81e0c9e4c8819195d1958dd195960521b604482015260640161036f565b604080516020808201835287825282519081019092528482529061120690829061124b565b90506112208160405180602001604052808681525061124b565b905061123a8160405180602001604052808581525061124b565b9d9c50505050505050505050505050565b6040805160208101909152600081528151835160009161126a9161166f565b84519091508110156112b65760405162461bcd60e51b8152602060048201526015602482015274185919081bdd995c999b1bddc819195d1958dd1959605a1b604482015260640161036f565b60408051602081019091529081529392505050565b6040805160208101909152600081527601357c299a88ea76a58924d52ce4f26a85af186c2b9e748211156113605760405162461bcd60e51b815260206004820152603660248201527f63616e277420637265617465206669786964697479206e756d626572206c6172604482015275676572207468616e206d61784e65774669786564282960501b606482015260840161036f565b604051806020016040528069d3c21bcecceda1000000846113819190611623565b905292915050565b80516000906105459069d3c21bcecceda10000009061163a565b60408051602081019091526000815281516000036113f75760405162461bcd60e51b8152602060048201526011602482015270063616e277420646976696465206279203607c1b604482015260640161036f565b82516000906114119069d3c21bcecceda100000090611623565b845190915061142a69d3c21bcecceda10000008361163a565b1461146c5760405162461bcd60e51b81526020600482015260126024820152716f766572666c6f772061742064697669646560701b604482015260640161036f565b6040518060200160405280846000015183611487919061163a565b9052949350505050565b604080516020810190915260008152604051806020016040528069d3c21bcecceda10000008085600001516114c6919061163a565b6113819190611623565b604080516020810190915260008152604051806020016040528069d3c21bcecceda1000000808560000151611505919061163a565b61150f9190611623565b8451611381919061165c565b60006020828403121561152d57600080fd5b5035919050565b6001600160a01b038116811461041957600080fd5b60006020828403121561155b57600080fd5b8135610e1e81611534565b6000806040838503121561157957600080fd5b50508035926020909101359150565b600080600080600060a086880312156115a057600080fd5b85356115ab81611534565b97602087013597506040870135966060810135965060800135945092505050565b6000602082840312156115de57600080fd5b8151610e1e81611534565b600080604083850312156115fc57600080fd5b505080516020909101519092909150565b634e487b7160e01b600052601160045260246000fd5b80820281158282048414176105455761054561160d565b60008261165757634e487b7160e01b600052601260045260246000fd5b500490565b818103818111156105455761054561160d565b808201808211156105455761054561160d56fea264697066735822122016569899a71e4d049abb2cc9305277c97d0730ce81214592f0575e97c5d4c1e764736f6c63430008130033",
  "immutableReferences": {},
  "source": "// SPDX-License-Identifier: LGPL-3.0-only\npragma solidity >=0.8.7 <0.8.20;\n\nimport \"@openzeppelin/contracts8/access/Ownable.sol\";\n\nimport \"../../contracts/common/CalledByVm.sol\";\nimport \"../../contracts/common/Initializable.sol\";\nimport \"../../contracts/common/interfaces/ICeloVersionedContract.sol\";\nimport \"../../contracts/common/FixidityLib.sol\";\nimport \"./UsingRegistry.sol\";\nimport \"../../contracts/stability/interfaces/ISortedOracles.sol\";\nimport \"@openzeppelin/contracts8/utils/math/Math.sol\";\nimport \"./IsL2Check.sol\";\n\n/**\n * @title Stores and provides gas price minimum for various currencies.\n */\ncontract GasPriceMinimum is\n  ICeloVersionedContract,\n  Ownable,\n  Initializable,\n  UsingRegistry,\n  IsL2Check,\n  CalledByVm\n{\n  using FixidityLib for FixidityLib.Fraction;\n\n  uint256 private deprecated_gasPriceMinimum;\n  uint256 private deprecated_gasPriceMinimumFloor;\n\n  // Block congestion level targeted by the gas price minimum calculation.\n  FixidityLib.Fraction private deprecated_targetDensity;\n\n  // Speed of gas price minimum adjustment due to congestion.\n  FixidityLib.Fraction private deprecated_adjustmentSpeed;\n\n  uint256 private deprecated_baseFeeOpCodeActivationBlock;\n  uint256 private constant ABSOLUTE_MINIMAL_GAS_PRICE = 1;\n\n  event TargetDensitySet(uint256 targetDensity);\n  event GasPriceMinimumFloorSet(uint256 gasPriceMinimumFloor);\n  event AdjustmentSpeedSet(uint256 adjustmentSpeed);\n  event GasPriceMinimumUpdated(uint256 gasPriceMinimum);\n  event BaseFeeOpCodeActivationBlockSet(uint256 baseFeeOpCodeActivationBlock);\n\n  /**\n   * @notice Sets initialized == true on implementation contracts\n   * @param test Set to true to skip implementation initialization\n   */\n  constructor(bool test) Initializable(test) {}\n\n  /**\n   * @notice Used in place of the constructor to allow the contract to be upgradable via proxy.\n   * @param _registryAddress The address of the registry core smart contract.\n   * @param _gasPriceMinimumFloor The lowest value the gas price minimum can be.\n   * @param _targetDensity The target gas fullness of blocks, expressed as a fixidity fraction.\n   * @param _adjustmentSpeed How quickly the minimum changes, expressed as a fixidity fraction.\n   * @param _baseFeeOpCodeActivationBlock Block number where the baseFee opCode is activated\n   */\n  function initialize(\n    address _registryAddress,\n    uint256 _gasPriceMinimumFloor,\n    uint256 _targetDensity,\n    uint256 _adjustmentSpeed,\n    uint256 _baseFeeOpCodeActivationBlock\n  ) external initializer {\n    _transferOwnership(msg.sender);\n    setRegistry(_registryAddress);\n    deprecated_gasPriceMinimum = _gasPriceMinimumFloor;\n    setGasPriceMinimumFloor(_gasPriceMinimumFloor);\n    setTargetDensity(_targetDensity);\n    setAdjustmentSpeed(_adjustmentSpeed);\n    _setBaseFeeOpCodeActivationBlock(_baseFeeOpCodeActivationBlock, true);\n  }\n\n  /**\n   * @notice Set the activation block of the baseFee opCode.\n   * @param _baseFeeOpCodeActivationBlock Block number where the baseFee opCode is activated\n   * @dev Value is expected to be > 0.\n   */\n  function setBaseFeeOpCodeActivationBlock(\n    uint256 _baseFeeOpCodeActivationBlock\n  ) external onlyOwner onlyL1 {\n    _setBaseFeeOpCodeActivationBlock(_baseFeeOpCodeActivationBlock, false);\n  }\n\n  /**\n   * @notice Adjust the gas price minimum based on governable parameters\n   * and block congestion.\n   * @param blockGasTotal The amount of gas in the most recent block.\n   * @param blockGasLimit The maxBlockGasLimit of the past block.\n   * @return result of the calculation (new gas price minimum)\n   */\n  function updateGasPriceMinimum(\n    uint256 blockGasTotal,\n    uint256 blockGasLimit\n  ) external onlyVm onlyL1 returns (uint256) {\n    deprecated_gasPriceMinimum = getUpdatedGasPriceMinimum(blockGasTotal, blockGasLimit);\n    emit GasPriceMinimumUpdated(deprecated_gasPriceMinimum);\n    return deprecated_gasPriceMinimum;\n  }\n\n  /**\n   * @notice Retrieve the current gas price minimum for a currency.\n   * When caled for 0x0 or Celo address, it returns gasPriceMinimum().\n   * For other addresses it returns gasPriceMinimum() mutiplied by\n   * the SortedOracles median of the token. It does not check tokenAddress is a valid fee currency.\n   * this function will never returns values less than ABSOLUTE_MINIMAL_GAS_PRICE.\n   * If Oracle rate doesn't exist, it returns ABSOLUTE_MINIMAL_GAS_PRICE.\n   * @dev This functions assumes one unit of token has 18 digits.\n   * @param tokenAddress The currency the gas price should be in (defaults to Celo).\n   * @return current gas price minimum in the requested currency\n   */\n  function getGasPriceMinimum(address tokenAddress) external view onlyL1 returns (uint256) {\n    return Math.max(_getGasPriceMinimum(tokenAddress), ABSOLUTE_MINIMAL_GAS_PRICE);\n  }\n  /**\n   * @notice Returns the storage, major, minor, and patch version of the contract.\n   * @return Storage version of the contract.\n   * @return Major version of the contract.\n   * @return Minor version of the contract.\n   * @return Patch version of the contract.\n   */\n  function getVersionNumber() external pure returns (uint256, uint256, uint256, uint256) {\n    return (1, 2, 1, 0);\n  }\n\n  /**\n   * @notice Set a multiplier that impacts how quickly gas price minimum is adjusted.\n   * @param _adjustmentSpeed How quickly the minimum changes, expressed as a fixidity fraction.\n   * @dev Value is expected to be < 1.\n   */\n  function setAdjustmentSpeed(uint256 _adjustmentSpeed) public onlyOwner onlyL1 {\n    deprecated_adjustmentSpeed = FixidityLib.wrap(_adjustmentSpeed);\n    require(\n      deprecated_adjustmentSpeed.lt(FixidityLib.fixed1()),\n      \"adjustment speed must be smaller than 1\"\n    );\n    emit AdjustmentSpeedSet(_adjustmentSpeed);\n  }\n\n  /**\n   * @notice Set the block density targeted by the gas price minimum algorithm.\n   * @param _targetDensity The target gas fullness of blocks, expressed as a fixidity fraction.\n   * @dev Value is expected to be < 1.\n   */\n  function setTargetDensity(uint256 _targetDensity) public onlyOwner onlyL1 {\n    deprecated_targetDensity = FixidityLib.wrap(_targetDensity);\n    require(\n      deprecated_targetDensity.lt(FixidityLib.fixed1()),\n      \"target density must be smaller than 1\"\n    );\n    emit TargetDensitySet(_targetDensity);\n  }\n\n  /**\n   * @notice Set the minimum gas price treshold.\n   * @param _gasPriceMinimumFloor The lowest value the gas price minimum can be.\n   * @dev Value is expected to be > 0.\n   */\n  function setGasPriceMinimumFloor(uint256 _gasPriceMinimumFloor) public onlyOwner onlyL1 {\n    require(_gasPriceMinimumFloor > 0, \"gas price minimum floor must be greater than zero\");\n    deprecated_gasPriceMinimumFloor = _gasPriceMinimumFloor;\n    emit GasPriceMinimumFloorSet(_gasPriceMinimumFloor);\n  }\n\n  /**\n   * @notice Returns the gas price minimum.\n   * @return The gas price minimum.\n   */\n  function gasPriceMinimum() public view onlyL1 returns (uint256) {\n    if (\n      deprecated_baseFeeOpCodeActivationBlock > 0 &&\n      block.number >= deprecated_baseFeeOpCodeActivationBlock\n    ) {\n      return block.basefee;\n    } else {\n      return deprecated_gasPriceMinimum;\n    }\n  }\n\n  /**\n   * @notice Calculates the gas price minimum based on governable parameters\n   * and block congestion.\n   * @param blockGasTotal The amount of gas in the most recent block.\n   * @param blockGasLimit The maxBlockGasLimit of the past block.\n   * @return result of the calculation (new gas price minimum)\n   * @dev Calculate using the following formula:\n   * oldGasPriceMinimum * (1 + (adjustmentSpeed * (blockDensity - targetDensity))) + 1.\n   */\n  function getUpdatedGasPriceMinimum(\n    uint256 blockGasTotal,\n    uint256 blockGasLimit\n  ) public view onlyL1 returns (uint256) {\n    FixidityLib.Fraction memory blockDensity = FixidityLib.newFixedFraction(\n      blockGasTotal,\n      blockGasLimit\n    );\n    bool densityGreaterThanTarget = blockDensity.gt(deprecated_targetDensity);\n    FixidityLib.Fraction memory densityDelta = densityGreaterThanTarget\n      ? blockDensity.subtract(deprecated_targetDensity)\n      : deprecated_targetDensity.subtract(blockDensity);\n    FixidityLib.Fraction memory adjustment = densityGreaterThanTarget\n      ? FixidityLib.fixed1().add(deprecated_adjustmentSpeed.multiply(densityDelta))\n      : FixidityLib.fixed1().subtract(deprecated_adjustmentSpeed.multiply(densityDelta));\n\n    uint256 newGasPriceMinimum = adjustment\n      .multiply(FixidityLib.newFixed(gasPriceMinimum()))\n      .add(FixidityLib.fixed1())\n      .fromFixed();\n\n    return\n      newGasPriceMinimum >= deprecated_gasPriceMinimumFloor\n        ? newGasPriceMinimum\n        : deprecated_gasPriceMinimumFloor;\n  }\n\n  /**\n   * @notice Returns the gas price minimum floor.\n   * @return The gas price minimum floor.\n   */\n  function gasPriceMinimumFloor() external view onlyL1 returns (uint256) {\n    return deprecated_gasPriceMinimumFloor;\n  }\n\n  /**\n   * @notice Returns the target density.\n   * @return The target density.\n   */\n  function targetDensity() external view onlyL1 returns (uint256) {\n    return deprecated_targetDensity.unwrap();\n  }\n\n  /**\n   * @notice Returns the adjustment speed.\n   * @return The adjustment speed.\n   */\n  function adjustmentSpeed() external view onlyL1 returns (uint256) {\n    return deprecated_adjustmentSpeed.unwrap();\n  }\n\n  /**\n   * @notice Returns the basefee opcode activation block.\n   * @return The basefee opcode activation block.\n   */\n  function baseFeeOpCodeActivationBlock() external view onlyL1 returns (uint256) {\n    return deprecated_baseFeeOpCodeActivationBlock;\n  }\n\n  /**\n   * @notice Set the activation block of the baseFee opCode.\n   * @param _baseFeeOpCodeActivationBlock Block number where the baseFee opCode is activated\n   * @dev Value is expected to be > 0.\n   */\n  function _setBaseFeeOpCodeActivationBlock(\n    uint256 _baseFeeOpCodeActivationBlock,\n    bool allowZero\n  ) private onlyOwner {\n    require(\n      allowZero || _baseFeeOpCodeActivationBlock > 0,\n      \"baseFee opCode activation block must be greater than zero\"\n    );\n    deprecated_baseFeeOpCodeActivationBlock = _baseFeeOpCodeActivationBlock;\n    emit BaseFeeOpCodeActivationBlockSet(_baseFeeOpCodeActivationBlock);\n  }\n\n  function _getGasPriceMinimum(address tokenAddress) private view returns (uint256) {\n    if (\n      tokenAddress == address(0) ||\n      tokenAddress == registry.getAddressForOrDie(CELO_TOKEN_REGISTRY_ID)\n    ) {\n      return gasPriceMinimum();\n    } else {\n      ISortedOracles sortedOracles = ISortedOracles(\n        registry.getAddressForOrDie(SORTED_ORACLES_REGISTRY_ID)\n      );\n      uint256 rateNumerator;\n      uint256 rateDenominator;\n      (rateNumerator, rateDenominator) = sortedOracles.medianRate(tokenAddress);\n      return ((gasPriceMinimum() * rateNumerator) / rateDenominator);\n    }\n  }\n}\n",
  "sourcePath": "/Users/beaver/Development/temp/celo-monorepo/packages/protocol/contracts-0.8/common/GasPriceMinimum.sol",
  "compiler": {
    "name": "solc",
    "version": "0.8.19+commit.7dd6d404.Emscripten.clang"
  },
  "schemaVersion": "3.4.13",
  "updatedAt": "2025-05-05T17:49:34.139Z",
  "devdoc": {
    "kind": "dev",
    "methods": {
      "adjustmentSpeed()": {
        "returns": {
          "_0": "The adjustment speed."
        }
      },
      "baseFeeOpCodeActivationBlock()": {
        "returns": {
          "_0": "The basefee opcode activation block."
        }
      },
      "constructor": {
        "params": {
          "test": "Set to true to skip implementation initialization"
        }
      },
      "gasPriceMinimum()": {
        "returns": {
          "_0": "The gas price minimum."
        }
      },
      "gasPriceMinimumFloor()": {
        "returns": {
          "_0": "The gas price minimum floor."
        }
      },
      "getGasPriceMinimum(address)": {
        "details": "This functions assumes one unit of token has 18 digits.",
        "params": {
          "tokenAddress": "The currency the gas price should be in (defaults to Celo)."
        },
        "returns": {
          "_0": "current gas price minimum in the requested currency"
        }
      },
      "getUpdatedGasPriceMinimum(uint256,uint256)": {
        "details": "Calculate using the following formula: oldGasPriceMinimum * (1 + (adjustmentSpeed * (blockDensity - targetDensity))) + 1.",
        "params": {
          "blockGasLimit": "The maxBlockGasLimit of the past block.",
          "blockGasTotal": "The amount of gas in the most recent block."
        },
        "returns": {
          "_0": "result of the calculation (new gas price minimum)"
        }
      },
      "getVersionNumber()": {
        "returns": {
          "_0": "Storage version of the contract.",
          "_1": "Major version of the contract.",
          "_2": "Minor version of the contract.",
          "_3": "Patch version of the contract."
        }
      },
      "initialize(address,uint256,uint256,uint256,uint256)": {
        "params": {
          "_adjustmentSpeed": "How quickly the minimum changes, expressed as a fixidity fraction.",
          "_baseFeeOpCodeActivationBlock": "Block number where the baseFee opCode is activated",
          "_gasPriceMinimumFloor": "The lowest value the gas price minimum can be.",
          "_registryAddress": "The address of the registry core smart contract.",
          "_targetDensity": "The target gas fullness of blocks, expressed as a fixidity fraction."
        }
      },
      "owner()": {
        "details": "Returns the address of the current owner."
      },
      "renounceOwnership()": {
        "details": "Leaves the contract without owner. It will not be possible to call `onlyOwner` functions. Can only be called by the current owner. NOTE: Renouncing ownership will leave the contract without an owner, thereby disabling any functionality that is only available to the owner."
      },
      "setAdjustmentSpeed(uint256)": {
        "details": "Value is expected to be < 1.",
        "params": {
          "_adjustmentSpeed": "How quickly the minimum changes, expressed as a fixidity fraction."
        }
      },
      "setBaseFeeOpCodeActivationBlock(uint256)": {
        "details": "Value is expected to be > 0.",
        "params": {
          "_baseFeeOpCodeActivationBlock": "Block number where the baseFee opCode is activated"
        }
      },
      "setGasPriceMinimumFloor(uint256)": {
        "details": "Value is expected to be > 0.",
        "params": {
          "_gasPriceMinimumFloor": "The lowest value the gas price minimum can be."
        }
      },
      "setRegistry(address)": {
        "params": {
          "registryAddress": "The address of a registry contract for routing to other contracts."
        }
      },
      "setTargetDensity(uint256)": {
        "details": "Value is expected to be < 1.",
        "params": {
          "_targetDensity": "The target gas fullness of blocks, expressed as a fixidity fraction."
        }
      },
      "targetDensity()": {
        "returns": {
          "_0": "The target density."
        }
      },
      "transferOwnership(address)": {
        "details": "Transfers ownership of the contract to a new account (`newOwner`). Can only be called by the current owner."
      },
      "updateGasPriceMinimum(uint256,uint256)": {
        "params": {
          "blockGasLimit": "The maxBlockGasLimit of the past block.",
          "blockGasTotal": "The amount of gas in the most recent block."
        },
        "returns": {
          "_0": "result of the calculation (new gas price minimum)"
        }
      }
    },
    "title": "Stores and provides gas price minimum for various currencies.",
    "version": 1
  },
  "userdoc": {
    "kind": "user",
    "methods": {
      "adjustmentSpeed()": {
        "notice": "Returns the adjustment speed."
      },
      "baseFeeOpCodeActivationBlock()": {
        "notice": "Returns the basefee opcode activation block."
      },
      "constructor": {
        "notice": "Sets initialized == true on implementation contracts"
      },
      "gasPriceMinimum()": {
        "notice": "Returns the gas price minimum."
      },
      "gasPriceMinimumFloor()": {
        "notice": "Returns the gas price minimum floor."
      },
      "getGasPriceMinimum(address)": {
        "notice": "Retrieve the current gas price minimum for a currency. When caled for 0x0 or Celo address, it returns gasPriceMinimum(). For other addresses it returns gasPriceMinimum() mutiplied by the SortedOracles median of the token. It does not check tokenAddress is a valid fee currency. this function will never returns values less than ABSOLUTE_MINIMAL_GAS_PRICE. If Oracle rate doesn't exist, it returns ABSOLUTE_MINIMAL_GAS_PRICE."
      },
      "getUpdatedGasPriceMinimum(uint256,uint256)": {
        "notice": "Calculates the gas price minimum based on governable parameters and block congestion."
      },
      "getVersionNumber()": {
        "notice": "Returns the storage, major, minor, and patch version of the contract."
      },
      "initialize(address,uint256,uint256,uint256,uint256)": {
        "notice": "Used in place of the constructor to allow the contract to be upgradable via proxy."
      },
      "setAdjustmentSpeed(uint256)": {
        "notice": "Set a multiplier that impacts how quickly gas price minimum is adjusted."
      },
      "setBaseFeeOpCodeActivationBlock(uint256)": {
        "notice": "Set the activation block of the baseFee opCode."
      },
      "setGasPriceMinimumFloor(uint256)": {
        "notice": "Set the minimum gas price treshold."
      },
      "setRegistry(address)": {
        "notice": "Updates the address pointing to a Registry contract."
      },
      "setTargetDensity(uint256)": {
        "notice": "Set the block density targeted by the gas price minimum algorithm."
      },
      "targetDensity()": {
        "notice": "Returns the target density."
      },
      "updateGasPriceMinimum(uint256,uint256)": {
        "notice": "Adjust the gas price minimum based on governable parameters and block congestion."
      }
    },
    "version": 1
  }
}