{
  "contractName": "Initializable",
  "abi": [
    {
      "inputs": [
        {
          "internalType": "bool",
          "name": "testingDeployment",
          "type": "bool"
        }
      ],
      "stateMutability": "nonpayable",
      "type": "constructor"
    },
    {
      "inputs": [],
      "name": "initialized",
      "outputs": [
        {
          "internalType": "bool",
          "name": "",
          "type": "bool"
        }
      ],
      "stateMutability": "view",
      "type": "function"
    }
  ],
  "bytecode": "0x608060405234801561001057600080fd5b5060405161010238038061010283398101604081905261002f91610048565b80610042576000805460ff191660011790555b50610071565b60006020828403121561005a57600080fd5b8151801515811461006a57600080fd5b9392505050565b60838061007f6000396000f3fe6080604052348015600f57600080fd5b506004361060285760003560e01c8063158ef93e14602d575b600080fd5b60005460399060ff1681565b604051901515815260200160405180910390f3fea2646970667358221220618b3babfc8db52c9ad3634cf7c29ef9abfd689daba0d8850196d35f8122d2a164736f6c63430008130033",
  "immutableReferences": {},
  "source": "// SPDX-License-Identifier: LGPL-3.0-only\npragma solidity >=0.5.13 <0.9.0;\n\n/**\n * @title Used with proxied contracts that have an `initialize` function.\n * @notice Ensures the `initialize` function:\n *         - gets called only once\n *         - cannot be called on the logic contract.\n */\ncontract Initializable {\n  bool public initialized;\n\n  /**\n   * @notice Ensures the initializer function cannot be called more than once.\n   */\n  modifier initializer() {\n    require(!initialized, \"contract already initialized\");\n    initialized = true;\n    _;\n  }\n\n  /**\n   * @notice By default, ensures that the `initialize` function cannot be called\n   * on the logic contract.\n   * @param testingDeployment When set to true, allows the `initialize` function\n   * to be called, which is useful in testing when not setting up with a Proxy.\n   */\n  constructor(bool testingDeployment) public {\n    if (!testingDeployment) {\n      initialized = true;\n    }\n  }\n}\n",
  "sourcePath": "/Users/beaver/Development/temp/celo-monorepo/packages/protocol/contracts/common/Initializable.sol",
  "compiler": {
    "name": "solc",
    "version": "0.8.19+commit.7dd6d404.Emscripten.clang"
  },
  "schemaVersion": "3.4.13",
  "updatedAt": "2025-05-05T17:49:34.230Z",
  "devdoc": {
    "kind": "dev",
    "methods": {
      "constructor": {
        "params": {
          "testingDeployment": "When set to true, allows the `initialize` function to be called, which is useful in testing when not setting up with a Proxy."
        }
      }
    },
    "title": "Used with proxied contracts that have an `initialize` function.",
    "version": 1
  },
  "userdoc": {
    "kind": "user",
    "methods": {
      "constructor": {
        "notice": "By default, ensures that the `initialize` function cannot be called on the logic contract."
      }
    },
    "notice": "Ensures the `initialize` function:         - gets called only once         - cannot be called on the logic contract.",
    "version": 1
  }
}