{
  "contractName": "MentoFeeCurrencyAdapter",
  "abi": [
    {
      "inputs": [
        {
          "internalType": "bool",
          "name": "test",
          "type": "bool"
        }
      ],
      "stateMutability": "nonpayable",
      "type": "constructor"
    },
    {
      "anonymous": false,
      "inputs": [
        {
          "indexed": true,
          "internalType": "address",
          "name": "previousOwner",
          "type": "address"
        },
        {
          "indexed": true,
          "internalType": "address",
          "name": "newOwner",
          "type": "address"
        }
      ],
      "name": "OwnershipTransferred",
      "type": "event"
    },
    {
      "inputs": [
        {
          "internalType": "address",
          "name": "",
          "type": "address"
        }
      ],
      "name": "currencies",
      "outputs": [
        {
          "internalType": "address",
          "name": "oracle",
          "type": "address"
        },
        {
          "internalType": "address",
          "name": "currencyIdentifier",
          "type": "address"
        }
      ],
      "stateMutability": "view",
      "type": "function"
    },
    {
      "inputs": [],
      "name": "initialized",
      "outputs": [
        {
          "internalType": "bool",
          "name": "",
          "type": "bool"
        }
      ],
      "stateMutability": "view",
      "type": "function"
    },
    {
      "inputs": [],
      "name": "owner",
      "outputs": [
        {
          "internalType": "address",
          "name": "",
          "type": "address"
        }
      ],
      "stateMutability": "view",
      "type": "function"
    },
    {
      "inputs": [],
      "name": "renounceOwnership",
      "outputs": [],
      "stateMutability": "nonpayable",
      "type": "function"
    },
    {
      "inputs": [
        {
          "internalType": "address",
          "name": "newOwner",
          "type": "address"
        }
      ],
      "name": "transferOwnership",
      "outputs": [],
      "stateMutability": "nonpayable",
      "type": "function"
    },
    {
      "inputs": [],
      "name": "initialize",
      "outputs": [],
      "stateMutability": "nonpayable",
      "type": "function"
    },
    {
      "inputs": [
        {
          "internalType": "address",
          "name": "token",
          "type": "address"
        },
        {
          "internalType": "address",
          "name": "currencyIdentifier",
          "type": "address"
        },
        {
          "internalType": "address",
          "name": "oracle",
          "type": "address"
        }
      ],
      "name": "setCurrencyConfig",
      "outputs": [],
      "stateMutability": "nonpayable",
      "type": "function"
    },
    {
      "inputs": [
        {
          "internalType": "address",
          "name": "token",
          "type": "address"
        },
        {
          "internalType": "uint256",
          "name": "index",
          "type": "uint256"
        }
      ],
      "name": "removeCurrencies",
      "outputs": [],
      "stateMutability": "nonpayable",
      "type": "function"
    },
    {
      "inputs": [],
      "name": "getVersionNumber",
      "outputs": [
        {
          "internalType": "uint256",
          "name": "",
          "type": "uint256"
        },
        {
          "internalType": "uint256",
          "name": "",
          "type": "uint256"
        },
        {
          "internalType": "uint256",
          "name": "",
          "type": "uint256"
        },
        {
          "internalType": "uint256",
          "name": "",
          "type": "uint256"
        }
      ],
      "stateMutability": "pure",
      "type": "function"
    },
    {
      "inputs": [],
      "name": "getCurrencies",
      "outputs": [
        {
          "internalType": "address[]",
          "name": "",
          "type": "address[]"
        }
      ],
      "stateMutability": "view",
      "type": "function"
    },
    {
      "inputs": [
        {
          "internalType": "address",
          "name": "token",
          "type": "address"
        }
      ],
      "name": "getCurrencyConfig",
      "outputs": [
        {
          "components": [
            {
              "internalType": "address",
              "name": "oracle",
              "type": "address"
            },
            {
              "internalType": "address",
              "name": "currencyIdentifier",
              "type": "address"
            }
          ],
          "internalType": "struct MentoFeeCurrencyAdapter.MentoCurrencyConfig",
          "name": "",
          "type": "tuple"
        }
      ],
      "stateMutability": "view",
      "type": "function"
    },
    {
      "inputs": [
        {
          "internalType": "address",
          "name": "token",
          "type": "address"
        }
      ],
      "name": "getExchangeRate",
      "outputs": [
        {
          "internalType": "uint256",
          "name": "numerator",
          "type": "uint256"
        },
        {
          "internalType": "uint256",
          "name": "denominator",
          "type": "uint256"
        }
      ],
      "stateMutability": "view",
      "type": "function"
    }
  ],
  "bytecode": "0x608060405234801561001057600080fd5b50604051610b95380380610b9583398101604081905261002f916100ac565b8080610043576000805460ff191660011790555b5061004d33610053565b506100d5565b600080546001600160a01b03838116610100818102610100600160a81b0319851617855560405193049190911692909183917f8be0079c531659141344cd1fd0a4f28419497f9722a3daafe3b4186f6b6457e091a35050565b6000602082840312156100be57600080fd5b815180151581146100ce57600080fd5b9392505050565b610ab1806100e46000396000f3fe608060405234801561001057600080fd5b50600436106100b45760003560e01c80638129fc1c116100715780638129fc1c146101875780638882e6ba1461018f5780638da5cb5b146101a2578063eab43d97146101cb578063efb7601d14610205578063f2fde38b1461022d57600080fd5b8063158ef93e146100b957806316be73a8146100db57806354255be0146100f05780636036cba31461011657806361c661de1461016a578063715018a61461017f575b600080fd5b6000546100c69060ff1681565b60405190151581526020015b60405180910390f35b6100ee6100e9366004610928565b610240565b005b6001806000806040805194855260208501939093529183015260608201526080016100d2565b61014a610124366004610952565b600160208190526000918252604090912080549101546001600160a01b03918216911682565b604080516001600160a01b039384168152929091166020830152016100d2565b6101726103f8565b6040516100d29190610974565b6100ee61045a565b6100ee61046e565b6100ee61019d3660046109c1565b6104d7565b60005461010090046001600160a01b03166040516001600160a01b0390911681526020016100d2565b6101de6101d9366004610952565b610698565b6040805182516001600160a01b0390811682526020938401511692810192909252016100d2565b610218610213366004610952565b6106e1565b604080519283526020830191909152016100d2565b6100ee61023b366004610952565b6107da565b610248610853565b60025481106102945760405162461bcd60e51b8152602060048201526013602482015272496e646578206f7574206f6620626f756e647360681b60448201526064015b60405180910390fd5b816001600160a01b0316600282815481106102b1576102b1610a04565b6000918252602090912001546001600160a01b0316146103135760405162461bcd60e51b815260206004820152601a60248201527f496e64657820646f6573206e6f74206d6174636820746f6b656e000000000000604482015260640161028b565b6001600160a01b038216600090815260016020819052604090912080546001600160a01b031990811682559082018054909116905560028054909161035791610a1a565b8154811061036757610367610a04565b600091825260209091200154600280546001600160a01b03909216918390811061039357610393610a04565b9060005260206000200160006101000a8154816001600160a01b0302191690836001600160a01b0316021790555060028054806103d2576103d2610a41565b600082815260209020810160001990810180546001600160a01b03191690550190555050565b6060600280548060200260200160405190810160405280929190818152602001828054801561045057602002820191906000526020600020905b81546001600160a01b03168152600190910190602001808311610432575b5050505050905090565b610462610853565b61046c60006108b3565b565b60005460ff16156104c15760405162461bcd60e51b815260206004820152601c60248201527f636f6e747261637420616c726561647920696e697469616c697a656400000000604482015260640161028b565b6000805460ff1916600117905561046c336108b3565b6104df610853565b6001600160a01b0382166105405760405162461bcd60e51b815260206004820152602260248201527f43757272656e6379206964656e7469666965722063616e6e6f74206265207a65604482015261726f60f01b606482015260840161028b565b6001600160a01b0381166105965760405162461bcd60e51b815260206004820152601d60248201527f4f7261636c6520616464726573732063616e6e6f74206265207a65726f000000604482015260640161028b565b6001600160a01b038381166000908152600160208190526040909120015416156106025760405162461bcd60e51b815260206004820152601f60248201527f43757272656e637920616c726561647920696e20746865206164617074657200604482015260640161028b565b6040805180820182526001600160a01b03928316815292821660208085019182529483166000818152600196879052928320945185549085166001600160a01b031991821617865591519486018054959094169482169490941790925560028054948501815590527f405787fa12a823e0f2b7631cc41b3ba8828b3321ca811111fa75cd3aa3bb5ace9092018054909216179055565b604080518082018252600080825260209182018190526001600160a01b039384168152600180835290839020835180850190945280548516845201549092169181019190915290565b60008060006106ef84610698565b60208101519091506001600160a01b031661074c5760405162461bcd60e51b815260206004820181905260248201527f43757272656e6379206e6f7420696e20746865206d656e746f41646170746572604482015260640161028b565b6001600160a01b038481166000908152600160209081526040918290205490840151915163efb7601d60e01b815291831660048301529091169063efb7601d906024016040805180830381865afa1580156107ab573d6000803e3d6000fd5b505050506040513d601f19601f820116820180604052508101906107cf9190610a57565b909590945092505050565b6107e2610853565b6001600160a01b0381166108475760405162461bcd60e51b815260206004820152602660248201527f4f776e61626c653a206e6577206f776e657220697320746865207a65726f206160448201526564647265737360d01b606482015260840161028b565b610850816108b3565b50565b6000546001600160a01b0361010090910416331461046c5760405162461bcd60e51b815260206004820181905260248201527f4f776e61626c653a2063616c6c6572206973206e6f7420746865206f776e6572604482015260640161028b565b600080546001600160a01b03838116610100818102610100600160a81b0319851617855560405193049190911692909183917f8be0079c531659141344cd1fd0a4f28419497f9722a3daafe3b4186f6b6457e091a35050565b80356001600160a01b038116811461092357600080fd5b919050565b6000806040838503121561093b57600080fd5b6109448361090c565b946020939093013593505050565b60006020828403121561096457600080fd5b61096d8261090c565b9392505050565b6020808252825182820181905260009190848201906040850190845b818110156109b55783516001600160a01b031683529284019291840191600101610990565b50909695505050505050565b6000806000606084860312156109d657600080fd5b6109df8461090c565b92506109ed6020850161090c565b91506109fb6040850161090c565b90509250925092565b634e487b7160e01b600052603260045260246000fd5b81810381811115610a3b57634e487b7160e01b600052601160045260246000fd5b92915050565b634e487b7160e01b600052603160045260246000fd5b60008060408385031215610a6a57600080fd5b50508051602090910151909290915056fea26469706673582212201b268506e3bb5356db43b39bd748fea41c4a2d68b7cef67eb7e146193ed59e0564736f6c63430008130033",
  "immutableReferences": {},
  "source": "// SPDX-License-Identifier: MIT\npragma solidity ^0.8.0;\n\nimport \"../../contracts/common/Initializable.sol\";\nimport \"./interfaces/IOracle.sol\";\nimport \"@openzeppelin/contracts8/access/Ownable.sol\";\n\ncontract MentoFeeCurrencyAdapter is IOracle, Initializable, Ownable {\n  struct MentoCurrencyConfig {\n    address oracle;\n    address currencyIdentifier;\n  }\n\n  mapping(address => MentoCurrencyConfig) public currencies;\n  address[] private currencyList;\n\n  constructor(bool test) Initializable(test) {}\n\n  /**\n   * @notice Initializes the contract with the owner set.\n   */\n  function initialize() public initializer {\n    _transferOwnership(msg.sender);\n  }\n\n  /**\n   * @notice Sets the currency configuration for a token.\n   * @dev This action can only be performed by the contract owner.\n   * @param token The token address.\n   * @param currencyIdentifier The currency identifier.\n   * @param oracle The oracle address for price fetching.\n   */\n  function setCurrencyConfig(\n    address token,\n    address currencyIdentifier,\n    address oracle\n  ) external onlyOwner {\n    require(currencyIdentifier != address(0), \"Currency identifier cannot be zero\");\n    require(oracle != address(0), \"Oracle address cannot be zero\");\n    require(currencies[token].currencyIdentifier == address(0), \"Currency already in the adapter\");\n\n    currencies[token] = MentoCurrencyConfig({\n      currencyIdentifier: currencyIdentifier,\n      oracle: oracle\n    });\n    currencyList.push(token);\n  }\n\n  /**\n   * @notice Removes a token from the adapter.\n   * @dev This action can only be performed by the contract owner.\n   * @param token The token address to remove.\n   * @param index The index in the list of adapter currencies.\n   */\n  function removeCurrencies(address token, uint256 index) external onlyOwner {\n    require(index < currencyList.length, \"Index out of bounds\");\n    require(currencyList[index] == token, \"Index does not match token\");\n\n    delete currencies[token];\n    currencyList[index] = currencyList[currencyList.length - 1];\n    currencyList.pop();\n  }\n\n  /**\n   * @notice Returns the storage, major, minor, and patch version of the contract.\n   * @return Storage version of the contract.\n   * @return Major version of the contract.\n   * @return Minor version of the contract.\n   * @return Patch version of the contract.\n   */\n  function getVersionNumber() external pure returns (uint256, uint256, uint256, uint256) {\n    return (1, 1, 0, 0);\n  }\n\n  /**\n   * @notice Returns the list of all currency addresses.\n   * @return An array of addresses.\n   */\n  function getCurrencies() public view returns (address[] memory) {\n    return currencyList;\n  }\n\n  /**\n   * @notice Returns the configuration for a currency.\n   * @param token The address of the token.\n   * @return Currency configuration of the token.\n   */\n  function getCurrencyConfig(address token) public view returns (MentoCurrencyConfig memory) {\n    return currencies[token];\n  }\n\n  /**\n   * @notice Retrieves exchange rate between token and CELO.\n   * @param token The token address whose price is to be fetched.\n   * @return numerator The exchange rate numerator.\n   * @return denominator The exchange rate denominator.\n   */\n  function getExchangeRate(\n    address token\n  ) public view returns (uint256 numerator, uint256 denominator) {\n    MentoCurrencyConfig memory currencyConfig = getCurrencyConfig(token);\n    require(currencyConfig.currencyIdentifier != address(0), \"Currency not in the mentoAdapter\");\n    (numerator, denominator) = IOracle(currencies[token].oracle).getExchangeRate(\n      currencyConfig.currencyIdentifier\n    );\n  }\n}\n",
  "sourcePath": "/Users/beaver/Development/temp/celo-monorepo/packages/protocol/contracts-0.8/common/MentoFeeCurrencyAdapter.sol",
  "compiler": {
    "name": "solc",
    "version": "0.8.19+commit.7dd6d404.Emscripten.clang"
  },
  "schemaVersion": "3.4.13",
  "updatedAt": "2025-05-05T17:49:34.143Z",
  "devdoc": {
    "kind": "dev",
    "methods": {
      "getCurrencies()": {
        "returns": {
          "_0": "An array of addresses."
        }
      },
      "getCurrencyConfig(address)": {
        "params": {
          "token": "The address of the token."
        },
        "returns": {
          "_0": "Currency configuration of the token."
        }
      },
      "getExchangeRate(address)": {
        "params": {
          "token": "The token address whose price is to be fetched."
        },
        "returns": {
          "denominator": "The exchange rate denominator.",
          "numerator": "The exchange rate numerator."
        }
      },
      "getVersionNumber()": {
        "returns": {
          "_0": "Storage version of the contract.",
          "_1": "Major version of the contract.",
          "_2": "Minor version of the contract.",
          "_3": "Patch version of the contract."
        }
      },
      "owner()": {
        "details": "Returns the address of the current owner."
      },
      "removeCurrencies(address,uint256)": {
        "details": "This action can only be performed by the contract owner.",
        "params": {
          "index": "The index in the list of adapter currencies.",
          "token": "The token address to remove."
        }
      },
      "renounceOwnership()": {
        "details": "Leaves the contract without owner. It will not be possible to call `onlyOwner` functions. Can only be called by the current owner. NOTE: Renouncing ownership will leave the contract without an owner, thereby disabling any functionality that is only available to the owner."
      },
      "setCurrencyConfig(address,address,address)": {
        "details": "This action can only be performed by the contract owner.",
        "params": {
          "currencyIdentifier": "The currency identifier.",
          "oracle": "The oracle address for price fetching.",
          "token": "The token address."
        }
      },
      "transferOwnership(address)": {
        "details": "Transfers ownership of the contract to a new account (`newOwner`). Can only be called by the current owner."
      }
    },
    "version": 1
  },
  "userdoc": {
    "kind": "user",
    "methods": {
      "getCurrencies()": {
        "notice": "Returns the list of all currency addresses."
      },
      "getCurrencyConfig(address)": {
        "notice": "Returns the configuration for a currency."
      },
      "getExchangeRate(address)": {
        "notice": "Retrieves exchange rate between token and CELO."
      },
      "getVersionNumber()": {
        "notice": "Returns the storage, major, minor, and patch version of the contract."
      },
      "initialize()": {
        "notice": "Initializes the contract with the owner set."
      },
      "removeCurrencies(address,uint256)": {
        "notice": "Removes a token from the adapter."
      },
      "setCurrencyConfig(address,address,address)": {
        "notice": "Sets the currency configuration for a token."
      }
    },
    "version": 1
  }
}