{
  "contractName": "MockOracle",
  "abi": [
    {
      "inputs": [
        {
          "internalType": "address",
          "name": "_token",
          "type": "address"
        }
      ],
      "name": "getExchangeRate",
      "outputs": [
        {
          "internalType": "uint256",
          "name": "",
          "type": "uint256"
        },
        {
          "internalType": "uint256",
          "name": "",
          "type": "uint256"
        }
      ],
      "stateMutability": "view",
      "type": "function"
    },
    {
      "inputs": [
        {
          "internalType": "address",
          "name": "_token",
          "type": "address"
        },
        {
          "internalType": "uint256",
          "name": "_numerator",
          "type": "uint256"
        },
        {
          "internalType": "uint256",
          "name": "_denominator",
          "type": "uint256"
        }
      ],
      "name": "setExchangeRate",
      "outputs": [],
      "stateMutability": "nonpayable",
      "type": "function"
    }
  ],
  "bytecode": "0x608060405234801561001057600080fd5b506101b8806100206000396000f3fe608060405234801561001057600080fd5b50600436106100365760003560e01c806358a5514f1461003b578063efb7601d1461007a575b600080fd5b61007861004936600461012d565b60009190915560015542600255600380546001600160a01b0319166001600160a01b0392909216919091179055565b005b61008d610088366004610160565b6100a6565b6040805192835260208301919091520160405180910390f35b60035460009081906001600160a01b038481169116146101025760405162461bcd60e51b8152602060048201526013602482015272151bdad95b881b9bdd081cdd5c1c1bdc9d1959606a1b604482015260640160405180910390fd5b60005460015491509150915091565b80356001600160a01b038116811461012857600080fd5b919050565b60008060006060848603121561014257600080fd5b61014b84610111565b95602085013595506040909401359392505050565b60006020828403121561017257600080fd5b61017b82610111565b939250505056fea2646970667358221220dbeaad06e9b44559baa8813c72e1ca6307379e5809916ffd143f9c321b4b970c64736f6c63430008130033",
  "immutableReferences": {},
  "source": "// SPDX-License-Identifier: UNLICENSED\npragma solidity >=0.8.7 <0.8.20;\n\nimport \"../../../contracts-0.8/common/FeeCurrencyDirectory.sol\";\n\ncontract MockOracle is IOracle {\n  uint256 numerator;\n  uint256 denominator;\n  uint256 lastUpdateTimestamp;\n  address token;\n\n  function getExchangeRate(address _token) external view returns (uint256, uint256) {\n    require(token == _token, \"Token not supported\");\n    return (numerator, denominator);\n  }\n\n  function setExchangeRate(address _token, uint256 _numerator, uint256 _denominator) public {\n    numerator = _numerator;\n    denominator = _denominator;\n    lastUpdateTimestamp = block.timestamp;\n    token = _token;\n  }\n}\n",
  "sourcePath": "/Users/beaver/Development/temp/celo-monorepo/packages/protocol/contracts-0.8/common/mocks/MockOracle.sol",
  "compiler": {
    "name": "solc",
    "version": "0.8.19+commit.7dd6d404.Emscripten.clang"
  },
  "schemaVersion": "3.4.13",
  "updatedAt": "2025-05-05T17:49:34.184Z",
  "devdoc": {
    "kind": "dev",
    "methods": {},
    "version": 1
  },
  "userdoc": {
    "kind": "user",
    "methods": {},
    "version": 1
  }
}