{
  "contractName": "MockCeloUnreleasedTreasury",
  "abi": [
    {
      "anonymous": false,
      "inputs": [
        {
          "indexed": true,
          "internalType": "address",
          "name": "previousOwner",
          "type": "address"
        },
        {
          "indexed": true,
          "internalType": "address",
          "name": "newOwner",
          "type": "address"
        }
      ],
      "name": "OwnershipTransferred",
      "type": "event"
    },
    {
      "anonymous": false,
      "inputs": [
        {
          "indexed": true,
          "internalType": "address",
          "name": "registryAddress",
          "type": "address"
        }
      ],
      "name": "RegistrySet",
      "type": "event"
    },
    {
      "inputs": [],
      "name": "owner",
      "outputs": [
        {
          "internalType": "address",
          "name": "",
          "type": "address"
        }
      ],
      "stateMutability": "view",
      "type": "function"
    },
    {
      "inputs": [],
      "name": "registry",
      "outputs": [
        {
          "internalType": "contract IRegistry",
          "name": "",
          "type": "address"
        }
      ],
      "stateMutability": "view",
      "type": "function"
    },
    {
      "inputs": [],
      "name": "renounceOwnership",
      "outputs": [],
      "stateMutability": "nonpayable",
      "type": "function"
    },
    {
      "inputs": [
        {
          "internalType": "address",
          "name": "registryAddress",
          "type": "address"
        }
      ],
      "name": "setRegistry",
      "outputs": [],
      "stateMutability": "nonpayable",
      "type": "function"
    },
    {
      "inputs": [
        {
          "internalType": "address",
          "name": "newOwner",
          "type": "address"
        }
      ],
      "name": "transferOwnership",
      "outputs": [],
      "stateMutability": "nonpayable",
      "type": "function"
    },
    {
      "inputs": [
        {
          "internalType": "address",
          "name": "to",
          "type": "address"
        },
        {
          "internalType": "uint256",
          "name": "amount",
          "type": "uint256"
        }
      ],
      "name": "release",
      "outputs": [],
      "stateMutability": "nonpayable",
      "type": "function"
    },
    {
      "inputs": [],
      "name": "getRemainingBalanceToRelease",
      "outputs": [
        {
          "internalType": "uint256",
          "name": "",
          "type": "uint256"
        }
      ],
      "stateMutability": "view",
      "type": "function"
    },
    {
      "inputs": [
        {
          "internalType": "uint256",
          "name": "_amount",
          "type": "uint256"
        }
      ],
      "name": "setRemainingTreasure",
      "outputs": [],
      "stateMutability": "nonpayable",
      "type": "function"
    },
    {
      "inputs": [
        {
          "internalType": "bool",
          "name": "_hasAlreadyReleased",
          "type": "bool"
        }
      ],
      "name": "setFirstRelease",
      "outputs": [],
      "stateMutability": "nonpayable",
      "type": "function"
    }
  ],
  "bytecode": "0x608060405234801561001057600080fd5b5061001a3361001f565b61006f565b600080546001600160a01b038381166001600160a01b0319831681178455604051919092169283917f8be0079c531659141344cd1fd0a4f28419497f9722a3daafe3b4186f6b6457e09190a35050565b6106858061007e6000396000f3fe608060405234801561001057600080fd5b50600436106100935760003560e01c80638da5cb5b116100665780638da5cb5b146100f8578063a91ee0dc14610109578063acdc64651461011c578063c791630f14610148578063f2fde38b1461015757600080fd5b80630345e4c8146100985780630357371d146100ad578063715018a6146100c05780637b103999146100c8575b600080fd5b6100ab6100a6366004610545565b600255565b005b6100ab6100bb366004610573565b61016a565b6100ab6102be565b6001546100db906001600160a01b031681565b6040516001600160a01b0390911681526020015b60405180910390f35b6000546001600160a01b03166100db565b6100ab61011736600461059f565b6102d2565b6100ab61012a3660046105d1565b60018054911515600160a01b0260ff60a01b19909216919091179055565b604051600081526020016100ef565b6100ab61016536600461059f565b61037a565b600154600160a01b900460ff1661019357476002556001805460ff60a01b1916600160a01b1790555b8060025410156101e25760405162461bcd60e51b815260206004820152601560248201527424b739bab33334b1b4b2b73a103130b630b731b29760591b60448201526064015b60405180910390fd5b6101ea6103f3565b60405163a9059cbb60e01b81526001600160a01b03848116600483015260248201849052919091169063a9059cbb906044016020604051808303816000875af115801561023b573d6000803e3d6000fd5b505050506040513d601f19601f8201168201806040525081019061025f91906105ee565b6102a35760405162461bcd60e51b815260206004820152601560248201527421a2a627903a3930b739b332b9103330b4b632b21760591b60448201526064016101d9565b80600260008282546102b5919061060b565b90915550505050565b6102c661049b565b6102d060006104f5565b565b6102da61049b565b6001600160a01b0381166103305760405162461bcd60e51b815260206004820181905260248201527f43616e6e6f7420726567697374657220746865206e756c6c206164647265737360448201526064016101d9565b600180546001600160a01b0319166001600160a01b0383169081179091556040517f27fe5f0c1c3b1ed427cc63d0f05759ffdecf9aec9e18d31ef366fc8a6cb5dc3b90600090a250565b61038261049b565b6001600160a01b0381166103e75760405162461bcd60e51b815260206004820152602660248201527f4f776e61626c653a206e6577206f776e657220697320746865207a65726f206160448201526564647265737360d01b60648201526084016101d9565b6103f0816104f5565b50565b6001546040516821b2b637aa37b5b2b760b91b60208201526000916001600160a01b03169063dcf0aaed90602901604051602081830303815290604052805190602001206040518263ffffffff1660e01b815260040161045591815260200190565b602060405180830381865afa158015610472573d6000803e3d6000fd5b505050506040513d601f19601f820116820180604052508101906104969190610632565b905090565b6000546001600160a01b031633146102d05760405162461bcd60e51b815260206004820181905260248201527f4f776e61626c653a2063616c6c6572206973206e6f7420746865206f776e657260448201526064016101d9565b600080546001600160a01b038381166001600160a01b0319831681178455604051919092169283917f8be0079c531659141344cd1fd0a4f28419497f9722a3daafe3b4186f6b6457e09190a35050565b60006020828403121561055757600080fd5b5035919050565b6001600160a01b03811681146103f057600080fd5b6000806040838503121561058657600080fd5b82356105918161055e565b946020939093013593505050565b6000602082840312156105b157600080fd5b81356105bc8161055e565b9392505050565b80151581146103f057600080fd5b6000602082840312156105e357600080fd5b81356105bc816105c3565b60006020828403121561060057600080fd5b81516105bc816105c3565b8181038181111561062c57634e487b7160e01b600052601160045260246000fd5b92915050565b60006020828403121561064457600080fd5b81516105bc8161055e56fea264697066735822122009c14fdcda3cfa44555d1c943a3393b38a6f04f950667fba3bb6a6d2b2663cab64736f6c63430008130033",
  "immutableReferences": {},
  "source": "// SPDX-License-Identifier: LGPL-3.0-only\npragma solidity >=0.8.0 <0.9.0;\n// solhint-disable no-unused-vars\n\nimport \"../../../contracts/common/interfaces/ICeloUnreleasedTreasury.sol\";\nimport \"../UsingRegistry.sol\";\n\n/**\n * @title A mock CeloUnreleasedTreasury for testing.\n */\ncontract MockCeloUnreleasedTreasury is ICeloUnreleasedTreasury, UsingRegistry {\n  bool internal hasAlreadyReleased;\n  uint256 internal remainingTreasure;\n  function release(address to, uint256 amount) external {\n    if (!hasAlreadyReleased) {\n      remainingTreasure = address(this).balance;\n      hasAlreadyReleased = true;\n    }\n\n    require(remainingTreasure >= amount, \"Insufficient balance.\");\n    require(getCeloToken().transfer(to, amount), \"CELO transfer failed.\");\n    remainingTreasure -= amount;\n  }\n\n  function getRemainingBalanceToRelease() external view returns (uint256) {\n    remainingTreasure;\n  }\n\n  function setRemainingTreasure(uint256 _amount) public {\n    remainingTreasure = _amount;\n  }\n\n  function setFirstRelease(bool _hasAlreadyReleased) public {\n    hasAlreadyReleased = _hasAlreadyReleased;\n  }\n}\n",
  "sourcePath": "/Users/beaver/Development/temp/celo-monorepo/packages/protocol/contracts-0.8/common/test/MockCeloUnreleasedTreasury.sol",
  "compiler": {
    "name": "solc",
    "version": "0.8.19+commit.7dd6d404.Emscripten.clang"
  },
  "schemaVersion": "3.4.13",
  "updatedAt": "2025-05-05T17:49:34.185Z",
  "devdoc": {
    "kind": "dev",
    "methods": {
      "owner()": {
        "details": "Returns the address of the current owner."
      },
      "release(address,uint256)": {
        "params": {
          "amount": "The amount to release.",
          "to": "The address to release the amount to."
        }
      },
      "renounceOwnership()": {
        "details": "Leaves the contract without owner. It will not be possible to call `onlyOwner` functions. Can only be called by the current owner. NOTE: Renouncing ownership will leave the contract without an owner, thereby disabling any functionality that is only available to the owner."
      },
      "setRegistry(address)": {
        "params": {
          "registryAddress": "The address of a registry contract for routing to other contracts."
        }
      },
      "transferOwnership(address)": {
        "details": "Transfers ownership of the contract to a new account (`newOwner`). Can only be called by the current owner."
      }
    },
    "title": "A mock CeloUnreleasedTreasury for testing.",
    "version": 1
  },
  "userdoc": {
    "kind": "user",
    "methods": {
      "release(address,uint256)": {
        "notice": "Releases the Celo to the specified address."
      },
      "setRegistry(address)": {
        "notice": "Updates the address pointing to a Registry contract."
      }
    },
    "version": 1
  }
}