{
  "contractName": "MockAccounts",
  "abi": [
    {
      "inputs": [
        {
          "internalType": "address",
          "name": "account",
          "type": "address"
        },
        {
          "internalType": "address",
          "name": "signer",
          "type": "address"
        }
      ],
      "name": "setValidatorSigner",
      "outputs": [],
      "stateMutability": "nonpayable",
      "type": "function"
    },
    {
      "inputs": [
        {
          "internalType": "address",
          "name": "account",
          "type": "address"
        }
      ],
      "name": "getValidatorSigner",
      "outputs": [
        {
          "internalType": "address",
          "name": "",
          "type": "address"
        }
      ],
      "stateMutability": "view",
      "type": "function"
    },
    {
      "inputs": [
        {
          "internalType": "address",
          "name": "account",
          "type": "address"
        }
      ],
      "name": "getPaymentDelegation",
      "outputs": [
        {
          "internalType": "address",
          "name": "",
          "type": "address"
        },
        {
          "internalType": "uint256",
          "name": "",
          "type": "uint256"
        }
      ],
      "stateMutability": "view",
      "type": "function"
    },
    {
      "inputs": [
        {
          "internalType": "address",
          "name": "validator",
          "type": "address"
        },
        {
          "internalType": "address",
          "name": "beneficiary",
          "type": "address"
        },
        {
          "internalType": "uint256",
          "name": "fraction",
          "type": "uint256"
        }
      ],
      "name": "setPaymentDelegationFor",
      "outputs": [],
      "stateMutability": "nonpayable",
      "type": "function"
    },
    {
      "inputs": [
        {
          "internalType": "address",
          "name": "validator",
          "type": "address"
        }
      ],
      "name": "deletePaymentDelegationFor",
      "outputs": [],
      "stateMutability": "nonpayable",
      "type": "function"
    }
  ],
  "bytecode": "0x608060405234801561001057600080fd5b506102ee806100206000396000f3fe608060405234801561001057600080fd5b50600436106100565760003560e01c8062fa3b961461005b5780633a41fa36146100705780634ce38b5f146100ac5780639f024f4b146100f5578063e019408714610154575b600080fd5b61006e610069366004610227565b61018d565b005b61006e61007e366004610263565b6001600160a01b03918216600090815260016020526040902080546001600160a01b03191691909216179055565b6100d86100ba366004610296565b6001600160a01b039081166000908152600160205260409020541690565b6040516001600160a01b0390911681526020015b60405180910390f35b610135610103366004610296565b6001600160a01b0390811660009081526020818152604091829020805483519283019093526001015490819052911691565b604080516001600160a01b0390931683526020830191909152016100ec565b61006e610162366004610296565b6001600160a01b0316600090815260208190526040812080546001600160a01b031916815560010155565b6040518060400160405280836001600160a01b031681526020016101c98360408051602080820183526000909152815190810190915290815290565b90526001600160a01b03938416600090815260208181526040909120825181546001600160a01b03191696169590951785550151516001909301929092555050565b80356001600160a01b038116811461022257600080fd5b919050565b60008060006060848603121561023c57600080fd5b6102458461020b565b92506102536020850161020b565b9150604084013590509250925092565b6000806040838503121561027657600080fd5b61027f8361020b565b915061028d6020840161020b565b90509250929050565b6000602082840312156102a857600080fd5b6102b18261020b565b939250505056fea2646970667358221220d92d2a72088dcbc216b649f39c5380056a67c88ad9a554a55032f5594c81060764736f6c63430008130033",
  "immutableReferences": {},
  "source": "// SPDX-License-Identifier: UNLICENSED\npragma solidity >=0.8.7 <0.8.20;\n\nimport \"../../../contracts/common/FixidityLib.sol\";\n\ncontract MockAccounts {\n  using FixidityLib for FixidityLib.Fraction;\n\n  struct PaymentDelegation {\n    // Address that should receive a fraction of validator payments.\n    address beneficiary;\n    // Fraction of payment to delegate to `beneficiary`.\n    FixidityLib.Fraction fraction;\n  }\n\n  mapping(address => PaymentDelegation) delegations;\n  mapping(address => address) accountToSigner;\n\n  function setValidatorSigner(address account, address signer) external {\n    accountToSigner[account] = signer;\n  }\n\n  function getValidatorSigner(address account) external view returns (address) {\n    return accountToSigner[account];\n  }\n\n  function getPaymentDelegation(address account) external view returns (address, uint256) {\n    PaymentDelegation storage delegation = delegations[account];\n    return (delegation.beneficiary, delegation.fraction.unwrap());\n  }\n\n  function setPaymentDelegationFor(\n    address validator,\n    address beneficiary,\n    uint256 fraction\n  ) public {\n    delegations[validator] = PaymentDelegation(beneficiary, FixidityLib.wrap(fraction));\n  }\n\n  function deletePaymentDelegationFor(address validator) public {\n    delete delegations[validator];\n  }\n}\n",
  "sourcePath": "/Users/beaver/Development/temp/celo-monorepo/packages/protocol/contracts-0.8/common/mocks/MockAccounts.sol",
  "compiler": {
    "name": "solc",
    "version": "0.8.19+commit.7dd6d404.Emscripten.clang"
  },
  "schemaVersion": "3.4.13",
  "updatedAt": "2025-05-05T17:49:34.183Z",
  "devdoc": {
    "kind": "dev",
    "methods": {},
    "version": 1
  },
  "userdoc": {
    "kind": "user",
    "methods": {},
    "version": 1
  }
}