{
  "contractName": "MockRegistry",
  "abi": [
    {
      "inputs": [
        {
          "internalType": "bool",
          "name": "test",
          "type": "bool"
        }
      ],
      "stateMutability": "nonpayable",
      "type": "constructor"
    },
    {
      "anonymous": false,
      "inputs": [
        {
          "indexed": true,
          "internalType": "address",
          "name": "previousOwner",
          "type": "address"
        },
        {
          "indexed": true,
          "internalType": "address",
          "name": "newOwner",
          "type": "address"
        }
      ],
      "name": "OwnershipTransferred",
      "type": "event"
    },
    {
      "anonymous": false,
      "inputs": [
        {
          "indexed": false,
          "internalType": "string",
          "name": "identifier",
          "type": "string"
        },
        {
          "indexed": true,
          "internalType": "bytes32",
          "name": "identifierHash",
          "type": "bytes32"
        },
        {
          "indexed": true,
          "internalType": "address",
          "name": "addr",
          "type": "address"
        }
      ],
      "name": "RegistryUpdated",
      "type": "event"
    },
    {
      "inputs": [],
      "name": "initialized",
      "outputs": [
        {
          "internalType": "bool",
          "name": "",
          "type": "bool"
        }
      ],
      "stateMutability": "view",
      "type": "function"
    },
    {
      "inputs": [],
      "name": "owner",
      "outputs": [
        {
          "internalType": "address",
          "name": "",
          "type": "address"
        }
      ],
      "stateMutability": "view",
      "type": "function"
    },
    {
      "inputs": [
        {
          "internalType": "bytes32",
          "name": "",
          "type": "bytes32"
        }
      ],
      "name": "registry",
      "outputs": [
        {
          "internalType": "address",
          "name": "",
          "type": "address"
        }
      ],
      "stateMutability": "view",
      "type": "function"
    },
    {
      "inputs": [],
      "name": "renounceOwnership",
      "outputs": [],
      "stateMutability": "nonpayable",
      "type": "function"
    },
    {
      "inputs": [
        {
          "internalType": "address",
          "name": "newOwner",
          "type": "address"
        }
      ],
      "name": "transferOwnership",
      "outputs": [],
      "stateMutability": "nonpayable",
      "type": "function"
    },
    {
      "inputs": [],
      "name": "initialize",
      "outputs": [],
      "stateMutability": "nonpayable",
      "type": "function"
    },
    {
      "inputs": [
        {
          "internalType": "string",
          "name": "identifier",
          "type": "string"
        },
        {
          "internalType": "address",
          "name": "addr",
          "type": "address"
        }
      ],
      "name": "setAddressFor",
      "outputs": [],
      "stateMutability": "nonpayable",
      "type": "function"
    },
    {
      "inputs": [
        {
          "internalType": "bytes32",
          "name": "identifierHash",
          "type": "bytes32"
        }
      ],
      "name": "getAddressForOrDie",
      "outputs": [
        {
          "internalType": "address",
          "name": "",
          "type": "address"
        }
      ],
      "stateMutability": "view",
      "type": "function"
    },
    {
      "inputs": [
        {
          "internalType": "bytes32",
          "name": "identifierHash",
          "type": "bytes32"
        }
      ],
      "name": "getAddressFor",
      "outputs": [
        {
          "internalType": "address",
          "name": "",
          "type": "address"
        }
      ],
      "stateMutability": "view",
      "type": "function"
    },
    {
      "inputs": [
        {
          "internalType": "string",
          "name": "identifier",
          "type": "string"
        }
      ],
      "name": "getAddressForStringOrDie",
      "outputs": [
        {
          "internalType": "address",
          "name": "",
          "type": "address"
        }
      ],
      "stateMutability": "view",
      "type": "function"
    },
    {
      "inputs": [
        {
          "internalType": "string",
          "name": "identifier",
          "type": "string"
        }
      ],
      "name": "getAddressForString",
      "outputs": [
        {
          "internalType": "address",
          "name": "",
          "type": "address"
        }
      ],
      "stateMutability": "view",
      "type": "function"
    },
    {
      "inputs": [
        {
          "internalType": "bytes32[]",
          "name": "identifierHashes",
          "type": "bytes32[]"
        },
        {
          "internalType": "address",
          "name": "sender",
          "type": "address"
        }
      ],
      "name": "isOneOf",
      "outputs": [
        {
          "internalType": "bool",
          "name": "",
          "type": "bool"
        }
      ],
      "stateMutability": "view",
      "type": "function"
    }
  ],
  "bytecode": "0x608060405234801561001057600080fd5b5060405161097438038061097483398101604081905261002f916100a9565b8061003933610059565b80610052576000805460ff60a01b1916600160a01b1790555b50506100d2565b600080546001600160a01b038381166001600160a01b0319831681178455604051919092169283917f8be0079c531659141344cd1fd0a4f28419497f9722a3daafe3b4186f6b6457e09190a35050565b6000602082840312156100bb57600080fd5b815180151581146100cb57600080fd5b9392505050565b610893806100e16000396000f3fe608060405234801561001057600080fd5b50600436106100b45760003560e01c80638932cbf4116100715780638932cbf41461015b5780638da5cb5b1461016e578063c58657931461017f578063dcf0aaed14610192578063dd927233146101a5578063f2fde38b146101ce57600080fd5b8063158ef93e146100b957806317c50818146100e2578063715018a6146100f55780637ef50298146100ff5780638129fc1c14610140578063853db32314610148575b600080fd5b6000546100cd90600160a01b900460ff1681565b60405190151581526020015b60405180910390f35b6100cd6100f0366004610659565b6101e1565b6100fd61025e565b005b61012861010d3660046106dd565b6001602052600090815260409020546001600160a01b031681565b6040516001600160a01b0390911681526020016100d9565b6100fd610272565b61012861015636600461073f565b6102ed565b61012861016936600461073f565b61033b565b6000546001600160a01b0316610128565b6100fd61018d366004610781565b6103ed565b6101286101a03660046106dd565b61048e565b6101286101b33660046106dd565b6000908152600160205260409020546001600160a01b031690565b6100fd6101dc3660046107cc565b61050e565b6000805b8381101561025157826001600160a01b03166001600087878581811061020d5761020d6107e7565b60209081029290920135835250810191909152604001600020546001600160a01b03160361023f576001915050610257565b61024a816001610587565b90506101e5565b50600090505b9392505050565b610266610593565b61027060006105ed565b565b600054600160a01b900460ff16156102d15760405162461bcd60e51b815260206004820152601c60248201527f636f6e747261637420616c726561647920696e697469616c697a65640000000060448201526064015b60405180910390fd5b6000805460ff60a01b1916600160a01b179055610270336105ed565b60008083836040516020016103039291906107fd565b60408051601f198184030181529181528151602092830120600090815260019092529020546001600160a01b03169150505b92915050565b60008083836040516020016103519291906107fd565b60408051601f198184030181529181528151602092830120600081815260019093529120549091506001600160a01b03166103ce5760405162461bcd60e51b815260206004820181905260248201527f6964656e74696669657220686173206e6f20726567697374727920656e74727960448201526064016102c8565b6000908152600160205260409020546001600160a01b03169392505050565b6103f5610593565b6000838360405160200161040a9291906107fd565b60408051808303601f1901815282825280516020918201206000818152600190925291902080546001600160a01b0319166001600160a01b0386169081179091559092509082907f4166d073a7a5e704ce0db7113320f88da2457f872d46dc020c805c562c1582a090610480908890889061080d565b60405180910390a350505050565b6000818152600160205260408120546001600160a01b03166104f25760405162461bcd60e51b815260206004820181905260248201527f6964656e74696669657220686173206e6f20726567697374727920656e74727960448201526064016102c8565b506000908152600160205260409020546001600160a01b031690565b610516610593565b6001600160a01b03811661057b5760405162461bcd60e51b815260206004820152602660248201527f4f776e61626c653a206e6577206f776e657220697320746865207a65726f206160448201526564647265737360d01b60648201526084016102c8565b610584816105ed565b50565b6000610257828461083c565b6000546001600160a01b031633146102705760405162461bcd60e51b815260206004820181905260248201527f4f776e61626c653a2063616c6c6572206973206e6f7420746865206f776e657260448201526064016102c8565b600080546001600160a01b038381166001600160a01b0319831681178455604051919092169283917f8be0079c531659141344cd1fd0a4f28419497f9722a3daafe3b4186f6b6457e09190a35050565b80356001600160a01b038116811461065457600080fd5b919050565b60008060006040848603121561066e57600080fd5b833567ffffffffffffffff8082111561068657600080fd5b818601915086601f83011261069a57600080fd5b8135818111156106a957600080fd5b8760208260051b85010111156106be57600080fd5b6020928301955093506106d4918601905061063d565b90509250925092565b6000602082840312156106ef57600080fd5b5035919050565b60008083601f84011261070857600080fd5b50813567ffffffffffffffff81111561072057600080fd5b60208301915083602082850101111561073857600080fd5b9250929050565b6000806020838503121561075257600080fd5b823567ffffffffffffffff81111561076957600080fd5b610775858286016106f6565b90969095509350505050565b60008060006040848603121561079657600080fd5b833567ffffffffffffffff8111156107ad57600080fd5b6107b9868287016106f6565b90945092506106d490506020850161063d565b6000602082840312156107de57600080fd5b6102578261063d565b634e487b7160e01b600052603260045260246000fd5b8183823760009101908152919050565b60208152816020820152818360408301376000818301604090810191909152601f909201601f19160101919050565b8082018082111561033557634e487b7160e01b600052601160045260246000fdfea2646970667358221220e9442bc5b72c0455211db874f4f20750c2166dfa53242f838db95ced6d5541b164736f6c63430008130033",
  "immutableReferences": {},
  "source": "// SPDX-License-Identifier: LGPL-3.0-only\npragma solidity >=0.8.7 <0.8.20;\n\nimport \"@openzeppelin/contracts8/utils/math/SafeMath.sol\";\nimport \"@openzeppelin/contracts8/access/Ownable.sol\";\n\nimport \"../../../contracts/common/interfaces/IRegistry.sol\";\nimport \"../../../contracts/common/interfaces/IRegistryInitializer.sol\";\nimport \"../../../contracts/common/Initializable.sol\";\n\n/**\n * @title Routes identifiers to addresses.\n */\ncontract MockRegistry is IRegistry, IRegistryInitializer, Ownable, Initializable {\n  using SafeMath for uint256;\n\n  mapping(bytes32 => address) public registry;\n\n  event RegistryUpdated(string identifier, bytes32 indexed identifierHash, address indexed addr);\n\n  /**\n   * @notice Sets initialized == true on implementation contracts\n   * @param test Set to true to skip implementation initialization\n   */\n  constructor(bool test) Initializable(test) {}\n\n  /**\n   * @notice Used in place of the constructor to allow the contract to be upgradable via proxy.\n   */\n  function initialize() external initializer {\n    _transferOwnership(msg.sender);\n  }\n\n  /**\n   * @notice Associates the given address with the given identifier.\n   * @param identifier Identifier of contract whose address we want to set.\n   * @param addr Address of contract.\n   */\n  function setAddressFor(string calldata identifier, address addr) external onlyOwner {\n    bytes32 identifierHash = keccak256(abi.encodePacked(identifier));\n    registry[identifierHash] = addr;\n    emit RegistryUpdated(identifier, identifierHash, addr);\n  }\n\n  /**\n   * @notice Gets address associated with the given identifierHash.\n   * @param identifierHash Identifier hash of contract whose address we want to look up.\n   * @dev Throws if address not set.\n   */\n  function getAddressForOrDie(bytes32 identifierHash) external view returns (address) {\n    require(registry[identifierHash] != address(0), \"identifier has no registry entry\");\n    return registry[identifierHash];\n  }\n\n  /**\n   * @notice Gets address associated with the given identifierHash.\n   * @param identifierHash Identifier hash of contract whose address we want to look up.\n   */\n  function getAddressFor(bytes32 identifierHash) external view returns (address) {\n    return registry[identifierHash];\n  }\n\n  /**\n   * @notice Gets address associated with the given identifier.\n   * @param identifier Identifier of contract whose address we want to look up.\n   * @dev Throws if address not set.\n   */\n  function getAddressForStringOrDie(string calldata identifier) external view returns (address) {\n    bytes32 identifierHash = keccak256(abi.encodePacked(identifier));\n    require(registry[identifierHash] != address(0), \"identifier has no registry entry\");\n    return registry[identifierHash];\n  }\n\n  /**\n   * @notice Gets address associated with the given identifier.\n   * @param identifier Identifier of contract whose address we want to look up.\n   */\n  function getAddressForString(string calldata identifier) external view returns (address) {\n    bytes32 identifierHash = keccak256(abi.encodePacked(identifier));\n    return registry[identifierHash];\n  }\n\n  /**\n   * @notice Iterates over provided array of identifiers, getting the address for each.\n   *         Returns true if `sender` matches the address of one of the provided identifiers.\n   * @param identifierHashes Array of hashes of approved identifiers.\n   * @param sender Address in question to verify membership.\n   * @return True if `sender` corresponds to the address of any of `identifiers`\n   *         registry entries.\n   */\n  function isOneOf(\n    bytes32[] calldata identifierHashes,\n    address sender\n  ) external view returns (bool) {\n    for (uint256 i = 0; i < identifierHashes.length; i = i.add(1)) {\n      if (registry[identifierHashes[i]] == sender) {\n        return true;\n      }\n    }\n    return false;\n  }\n}\n",
  "sourcePath": "/Users/beaver/Development/temp/celo-monorepo/packages/protocol/contracts-0.8/common/test/MockRegistry.sol",
  "compiler": {
    "name": "solc",
    "version": "0.8.19+commit.7dd6d404.Emscripten.clang"
  },
  "schemaVersion": "3.4.13",
  "updatedAt": "2025-05-05T17:49:34.186Z",
  "devdoc": {
    "kind": "dev",
    "methods": {
      "constructor": {
        "params": {
          "test": "Set to true to skip implementation initialization"
        }
      },
      "getAddressFor(bytes32)": {
        "params": {
          "identifierHash": "Identifier hash of contract whose address we want to look up."
        }
      },
      "getAddressForOrDie(bytes32)": {
        "details": "Throws if address not set.",
        "params": {
          "identifierHash": "Identifier hash of contract whose address we want to look up."
        }
      },
      "getAddressForString(string)": {
        "params": {
          "identifier": "Identifier of contract whose address we want to look up."
        }
      },
      "getAddressForStringOrDie(string)": {
        "details": "Throws if address not set.",
        "params": {
          "identifier": "Identifier of contract whose address we want to look up."
        }
      },
      "isOneOf(bytes32[],address)": {
        "params": {
          "identifierHashes": "Array of hashes of approved identifiers.",
          "sender": "Address in question to verify membership."
        },
        "returns": {
          "_0": "True if `sender` corresponds to the address of any of `identifiers`         registry entries."
        }
      },
      "owner()": {
        "details": "Returns the address of the current owner."
      },
      "renounceOwnership()": {
        "details": "Leaves the contract without owner. It will not be possible to call `onlyOwner` functions. Can only be called by the current owner. NOTE: Renouncing ownership will leave the contract without an owner, thereby disabling any functionality that is only available to the owner."
      },
      "setAddressFor(string,address)": {
        "params": {
          "addr": "Address of contract.",
          "identifier": "Identifier of contract whose address we want to set."
        }
      },
      "transferOwnership(address)": {
        "details": "Transfers ownership of the contract to a new account (`newOwner`). Can only be called by the current owner."
      }
    },
    "title": "Routes identifiers to addresses.",
    "version": 1
  },
  "userdoc": {
    "kind": "user",
    "methods": {
      "constructor": {
        "notice": "Sets initialized == true on implementation contracts"
      },
      "getAddressFor(bytes32)": {
        "notice": "Gets address associated with the given identifierHash."
      },
      "getAddressForOrDie(bytes32)": {
        "notice": "Gets address associated with the given identifierHash."
      },
      "getAddressForString(string)": {
        "notice": "Gets address associated with the given identifier."
      },
      "getAddressForStringOrDie(string)": {
        "notice": "Gets address associated with the given identifier."
      },
      "initialize()": {
        "notice": "Used in place of the constructor to allow the contract to be upgradable via proxy."
      },
      "isOneOf(bytes32[],address)": {
        "notice": "Iterates over provided array of identifiers, getting the address for each.         Returns true if `sender` matches the address of one of the provided identifiers."
      },
      "setAddressFor(string,address)": {
        "notice": "Associates the given address with the given identifier."
      }
    },
    "version": 1
  }
}