{
  "contractName": "MockCeloToken08",
  "abi": [
    {
      "inputs": [],
      "name": "decimals",
      "outputs": [
        {
          "internalType": "uint8",
          "name": "",
          "type": "uint8"
        }
      ],
      "stateMutability": "view",
      "type": "function"
    },
    {
      "inputs": [],
      "name": "totalSupply_",
      "outputs": [
        {
          "internalType": "uint256",
          "name": "",
          "type": "uint256"
        }
      ],
      "stateMutability": "view",
      "type": "function"
    },
    {
      "inputs": [
        {
          "internalType": "uint256",
          "name": "value",
          "type": "uint256"
        }
      ],
      "name": "setTotalSupply",
      "outputs": [],
      "stateMutability": "nonpayable",
      "type": "function"
    },
    {
      "inputs": [
        {
          "internalType": "address",
          "name": "to",
          "type": "address"
        },
        {
          "internalType": "uint256",
          "name": "amount",
          "type": "uint256"
        }
      ],
      "name": "transfer",
      "outputs": [
        {
          "internalType": "bool",
          "name": "",
          "type": "bool"
        }
      ],
      "stateMutability": "nonpayable",
      "type": "function"
    },
    {
      "inputs": [
        {
          "internalType": "address",
          "name": "from",
          "type": "address"
        },
        {
          "internalType": "address",
          "name": "to",
          "type": "address"
        },
        {
          "internalType": "uint256",
          "name": "amount",
          "type": "uint256"
        }
      ],
      "name": "transferFrom",
      "outputs": [
        {
          "internalType": "bool",
          "name": "",
          "type": "bool"
        }
      ],
      "stateMutability": "nonpayable",
      "type": "function"
    },
    {
      "inputs": [
        {
          "internalType": "address",
          "name": "a",
          "type": "address"
        },
        {
          "internalType": "uint256",
          "name": "value",
          "type": "uint256"
        }
      ],
      "name": "setBalanceOf",
      "outputs": [],
      "stateMutability": "nonpayable",
      "type": "function"
    },
    {
      "inputs": [
        {
          "internalType": "address",
          "name": "a",
          "type": "address"
        }
      ],
      "name": "balanceOf",
      "outputs": [
        {
          "internalType": "uint256",
          "name": "",
          "type": "uint256"
        }
      ],
      "stateMutability": "view",
      "type": "function"
    },
    {
      "inputs": [],
      "name": "totalSupply",
      "outputs": [
        {
          "internalType": "uint256",
          "name": "",
          "type": "uint256"
        }
      ],
      "stateMutability": "view",
      "type": "function"
    }
  ],
  "bytecode": "0x608060405234801561001057600080fd5b50610346806100206000396000f3fe608060405234801561001057600080fd5b50600436106100885760003560e01c806370a082311161005b57806370a08231146100ea578063a9059cbb14610113578063b46310f614610126578063f7ea7a3d1461015257600080fd5b806318160ddd1461008d57806323b872dd146100a4578063313ce567146100c7578063324536eb146100e1575b600080fd5b6000545b6040519081526020015b60405180910390f35b6100b76100b236600461023a565b610165565b604051901515815260200161009b565b6100cf601281565b60405160ff909116815260200161009b565b61009160005481565b6100916100f8366004610276565b6001600160a01b031660009081526001602052604090205490565b6100b7610121366004610291565b61017c565b610150610134366004610291565b6001600160a01b03909116600090815260016020526040902055565b005b6101506101603660046102bb565b600055565b6000610172848484610192565b90505b9392505050565b6000610189338484610192565b90505b92915050565b6001600160a01b0383166000908152600160205260408120548211156101ba57506000610175565b6001600160a01b038416600090815260016020526040812080548492906101e29084906102ea565b90915550506001600160a01b0383166000908152600160205260408120805484929061020f9084906102fd565b90915550600195945050505050565b80356001600160a01b038116811461023557600080fd5b919050565b60008060006060848603121561024f57600080fd5b6102588461021e565b92506102666020850161021e565b9150604084013590509250925092565b60006020828403121561028857600080fd5b6101898261021e565b600080604083850312156102a457600080fd5b6102ad8361021e565b946020939093013593505050565b6000602082840312156102cd57600080fd5b5035919050565b634e487b7160e01b600052601160045260246000fd5b8181038181111561018c5761018c6102d4565b8082018082111561018c5761018c6102d456fea26469706673582212206dbb702c6e6a6a9e194d105b55e8db6e7a5a4b6292cd28cb6e54c9aa1cebb55b64736f6c63430008130033",
  "immutableReferences": {},
  "source": "// SPDX-License-Identifier: LGPL-3.0-only\npragma solidity >=0.8.0 <0.9.0;\n// solhint-disable no-unused-vars\n\n/**\n * @title A mock StableToken for testing. This contract can be deprecated once GoldToken gets migrated to 0.8\n */\ncontract MockCeloToken08 {\n  uint256 public totalSupply_;\n  uint8 public constant decimals = 18;\n  mapping(address => uint256) balances;\n\n  function setTotalSupply(uint256 value) external {\n    totalSupply_ = value;\n  }\n\n  function transfer(address to, uint256 amount) external returns (bool) {\n    return _transfer(msg.sender, to, amount);\n  }\n\n  function transferFrom(address from, address to, uint256 amount) external returns (bool) {\n    return _transfer(from, to, amount);\n  }\n\n  function setBalanceOf(address a, uint256 value) external {\n    balances[a] = value;\n  }\n\n  function balanceOf(address a) public view returns (uint256) {\n    return balances[a];\n  }\n\n  function totalSupply() public view returns (uint256) {\n    return totalSupply_;\n  }\n\n  function _transfer(address from, address to, uint256 amount) internal returns (bool) {\n    if (balances[from] < amount) {\n      return false;\n    }\n    balances[from] -= amount;\n    balances[to] += amount;\n    return true;\n  }\n}\n",
  "sourcePath": "/Users/beaver/Development/temp/celo-monorepo/packages/protocol/contracts-0.8/common/test/MockCeloToken.sol",
  "compiler": {
    "name": "solc",
    "version": "0.8.19+commit.7dd6d404.Emscripten.clang"
  },
  "schemaVersion": "3.4.13",
  "updatedAt": "2025-05-05T17:49:34.184Z",
  "devdoc": {
    "kind": "dev",
    "methods": {},
    "title": "A mock StableToken for testing. This contract can be deprecated once GoldToken gets migrated to 0.8",
    "version": 1
  },
  "userdoc": {
    "kind": "user",
    "methods": {},
    "version": 1
  }
}