{
  "contractName": "MockReserve08",
  "abi": [
    {
      "inputs": [],
      "name": "goldToken",
      "outputs": [
        {
          "internalType": "contract IERC20",
          "name": "",
          "type": "address"
        }
      ],
      "stateMutability": "view",
      "type": "function"
    },
    {
      "inputs": [
        {
          "internalType": "address",
          "name": "",
          "type": "address"
        }
      ],
      "name": "tokens",
      "outputs": [
        {
          "internalType": "bool",
          "name": "",
          "type": "bool"
        }
      ],
      "stateMutability": "view",
      "type": "function"
    },
    {
      "stateMutability": "payable",
      "type": "receive"
    },
    {
      "inputs": [
        {
          "internalType": "address",
          "name": "goldTokenAddress",
          "type": "address"
        }
      ],
      "name": "setGoldToken",
      "outputs": [],
      "stateMutability": "nonpayable",
      "type": "function"
    },
    {
      "inputs": [
        {
          "internalType": "address",
          "name": "to",
          "type": "address"
        },
        {
          "internalType": "uint256",
          "name": "value",
          "type": "uint256"
        }
      ],
      "name": "transferGold",
      "outputs": [
        {
          "internalType": "bool",
          "name": "",
          "type": "bool"
        }
      ],
      "stateMutability": "nonpayable",
      "type": "function"
    },
    {
      "inputs": [
        {
          "internalType": "address",
          "name": "to",
          "type": "address"
        },
        {
          "internalType": "uint256",
          "name": "value",
          "type": "uint256"
        }
      ],
      "name": "transferExchangeGold",
      "outputs": [
        {
          "internalType": "bool",
          "name": "",
          "type": "bool"
        }
      ],
      "stateMutability": "nonpayable",
      "type": "function"
    },
    {
      "inputs": [
        {
          "internalType": "address",
          "name": "token",
          "type": "address"
        }
      ],
      "name": "addToken",
      "outputs": [
        {
          "internalType": "bool",
          "name": "",
          "type": "bool"
        }
      ],
      "stateMutability": "nonpayable",
      "type": "function"
    },
    {
      "inputs": [],
      "name": "getUnfrozenReserveGoldBalance",
      "outputs": [
        {
          "internalType": "uint256",
          "name": "",
          "type": "uint256"
        }
      ],
      "stateMutability": "view",
      "type": "function"
    },
    {
      "inputs": [
        {
          "internalType": "address",
          "name": "",
          "type": "address"
        }
      ],
      "name": "burnToken",
      "outputs": [
        {
          "internalType": "bool",
          "name": "",
          "type": "bool"
        }
      ],
      "stateMutability": "pure",
      "type": "function"
    },
    {
      "inputs": [],
      "name": "getReserveGoldBalance",
      "outputs": [
        {
          "internalType": "uint256",
          "name": "",
          "type": "uint256"
        }
      ],
      "stateMutability": "view",
      "type": "function"
    }
  ],
  "bytecode": "0x608060405234801561001057600080fd5b50610382806100206000396000f3fe60806040526004361061008a5760003560e01c806394002b571161005957806394002b57146100e6578063950dad191461011e578063d06816a11461013f578063d48bfca71461017e578063e4860339146101c157600080fd5b806303a0fea3146100965780631c39c7d5146100965780638b7df8d4146100cb5780638d9a5e6f146100cb57600080fd5b3661009157005b600080fd5b3480156100a257600080fd5b506100b66100b13660046102de565b6101f1565b60405190151581526020015b60405180910390f35b3480156100d757600080fd5b506040514781526020016100c2565b3480156100f257600080fd5b50600154610106906001600160a01b031681565b6040516001600160a01b0390911681526020016100c2565b34801561012a57600080fd5b506100b6610139366004610308565b50600190565b34801561014b57600080fd5b5061017c61015a366004610308565b600180546001600160a01b0319166001600160a01b0392909216919091179055565b005b34801561018a57600080fd5b506100b6610199366004610308565b6001600160a01b03166000908152602081905260409020805460ff1916600190811790915590565b3480156101cd57600080fd5b506100b66101dc366004610308565b60006020819052908152604090205460ff1681565b60015460405163a9059cbb60e01b81526001600160a01b03848116600483015260248201849052600092169063a9059cbb906044016020604051808303816000875af1158015610245573d6000803e3d6000fd5b505050506040513d601f19601f82011682018060405250810190610269919061032a565b6102b95760405162461bcd60e51b815260206004820152601a60248201527f676f6c6420746f6b656e207472616e73666572206661696c6564000000000000604482015260640160405180910390fd5b50600192915050565b80356001600160a01b03811681146102d957600080fd5b919050565b600080604083850312156102f157600080fd5b6102fa836102c2565b946020939093013593505050565b60006020828403121561031a57600080fd5b610323826102c2565b9392505050565b60006020828403121561033c57600080fd5b8151801515811461032357600080fdfea26469706673582212208f58100edc43a002dd763bcfc118b09ee83b2c7d68a8c810743ecce756e00ec264736f6c63430008130033",
  "immutableReferences": {},
  "source": "// SPDX-License-Identifier: UNLICENSED\npragma solidity >=0.8.7 <0.8.20;\n\n// solhint-disable no-unused-vars\n\nimport \"@openzeppelin/contracts8/token/ERC20/IERC20.sol\";\n\n/**\n * @title A mock Reserve for testing.\n */\ncontract MockReserve08 {\n  mapping(address => bool) public tokens;\n\n  IERC20 public goldToken;\n\n  // solhint-disable-next-line no-empty-blocks\n  receive() external payable {}\n\n  function setGoldToken(address goldTokenAddress) external {\n    goldToken = IERC20(goldTokenAddress);\n  }\n\n  function transferGold(address to, uint256 value) external returns (bool) {\n    require(goldToken.transfer(to, value), \"gold token transfer failed\");\n    return true;\n  }\n\n  function transferExchangeGold(address to, uint256 value) external returns (bool) {\n    require(goldToken.transfer(to, value), \"gold token transfer failed\");\n    return true;\n  }\n\n  function addToken(address token) external returns (bool) {\n    tokens[token] = true;\n    return true;\n  }\n\n  function getUnfrozenReserveGoldBalance() external view returns (uint256) {\n    return address(this).balance;\n  }\n\n  function burnToken(address) external pure returns (bool) {\n    return true;\n  }\n\n  function getReserveGoldBalance() public view returns (uint256) {\n    return address(this).balance;\n  }\n}\n",
  "sourcePath": "/Users/beaver/Development/temp/celo-monorepo/packages/protocol/contracts-0.8/stability/test/MockReserve.sol",
  "compiler": {
    "name": "solc",
    "version": "0.8.19+commit.7dd6d404.Emscripten.clang"
  },
  "schemaVersion": "3.4.13",
  "updatedAt": "2025-05-05T17:49:34.225Z",
  "devdoc": {
    "kind": "dev",
    "methods": {},
    "title": "A mock Reserve for testing.",
    "version": 1
  },
  "userdoc": {
    "kind": "user",
    "methods": {},
    "version": 1
  }
}