{
  "contractName": "MockStableToken08",
  "abi": [
    {
      "inputs": [],
      "stateMutability": "nonpayable",
      "type": "constructor"
    },
    {
      "inputs": [],
      "name": "_totalSupply",
      "outputs": [
        {
          "internalType": "uint256",
          "name": "",
          "type": "uint256"
        }
      ],
      "stateMutability": "view",
      "type": "function"
    },
    {
      "inputs": [
        {
          "internalType": "address",
          "name": "",
          "type": "address"
        }
      ],
      "name": "balances",
      "outputs": [
        {
          "internalType": "uint256",
          "name": "",
          "type": "uint256"
        }
      ],
      "stateMutability": "view",
      "type": "function"
    },
    {
      "inputs": [],
      "name": "decimals",
      "outputs": [
        {
          "internalType": "uint8",
          "name": "",
          "type": "uint8"
        }
      ],
      "stateMutability": "view",
      "type": "function"
    },
    {
      "inputs": [],
      "name": "inflationFactor",
      "outputs": [
        {
          "internalType": "uint256",
          "name": "value",
          "type": "uint256"
        }
      ],
      "stateMutability": "view",
      "type": "function"
    },
    {
      "inputs": [
        {
          "internalType": "uint256",
          "name": "value",
          "type": "uint256"
        }
      ],
      "name": "setTotalSupply",
      "outputs": [],
      "stateMutability": "nonpayable",
      "type": "function"
    },
    {
      "inputs": [
        {
          "internalType": "address",
          "name": "to",
          "type": "address"
        },
        {
          "internalType": "uint256",
          "name": "value",
          "type": "uint256"
        }
      ],
      "name": "mint",
      "outputs": [
        {
          "internalType": "bool",
          "name": "",
          "type": "bool"
        }
      ],
      "stateMutability": "nonpayable",
      "type": "function"
    },
    {
      "inputs": [
        {
          "internalType": "uint256",
          "name": "value",
          "type": "uint256"
        }
      ],
      "name": "burn",
      "outputs": [
        {
          "internalType": "bool",
          "name": "",
          "type": "bool"
        }
      ],
      "stateMutability": "nonpayable",
      "type": "function"
    },
    {
      "inputs": [
        {
          "internalType": "address",
          "name": "to",
          "type": "address"
        },
        {
          "internalType": "uint256",
          "name": "value",
          "type": "uint256"
        }
      ],
      "name": "transfer",
      "outputs": [
        {
          "internalType": "bool",
          "name": "",
          "type": "bool"
        }
      ],
      "stateMutability": "nonpayable",
      "type": "function"
    },
    {
      "inputs": [
        {
          "internalType": "address",
          "name": "from",
          "type": "address"
        },
        {
          "internalType": "address",
          "name": "to",
          "type": "address"
        },
        {
          "internalType": "uint256",
          "name": "value",
          "type": "uint256"
        }
      ],
      "name": "transferFrom",
      "outputs": [
        {
          "internalType": "bool",
          "name": "",
          "type": "bool"
        }
      ],
      "stateMutability": "nonpayable",
      "type": "function"
    },
    {
      "inputs": [],
      "name": "totalSupply",
      "outputs": [
        {
          "internalType": "uint256",
          "name": "",
          "type": "uint256"
        }
      ],
      "stateMutability": "view",
      "type": "function"
    },
    {
      "inputs": [
        {
          "internalType": "uint256",
          "name": "newInflationFactor",
          "type": "uint256"
        }
      ],
      "name": "setInflationFactor",
      "outputs": [],
      "stateMutability": "nonpayable",
      "type": "function"
    },
    {
      "inputs": [
        {
          "internalType": "address",
          "name": "account",
          "type": "address"
        }
      ],
      "name": "balanceOf",
      "outputs": [
        {
          "internalType": "uint256",
          "name": "",
          "type": "uint256"
        }
      ],
      "stateMutability": "view",
      "type": "function"
    },
    {
      "inputs": [
        {
          "internalType": "uint256",
          "name": "units",
          "type": "uint256"
        }
      ],
      "name": "unitsToValue",
      "outputs": [
        {
          "internalType": "uint256",
          "name": "",
          "type": "uint256"
        }
      ],
      "stateMutability": "view",
      "type": "function"
    },
    {
      "inputs": [
        {
          "internalType": "uint256",
          "name": "value",
          "type": "uint256"
        }
      ],
      "name": "valueToUnits",
      "outputs": [
        {
          "internalType": "uint256",
          "name": "",
          "type": "uint256"
        }
      ],
      "stateMutability": "view",
      "type": "function"
    }
  ],
  "bytecode": "0x608060405234801561001057600080fd5b5061006661004661004260408051602080820183526000909152815190810190915269d3c21bcecceda1000000815290565b5190565b604080516020808201835260009091528151908101909152819052600155565b610c37806100756000396000f3fe608060405234801561001057600080fd5b50600436106100ea5760003560e01c806340c10f191161008c578063a9059cbb11610066578063a9059cbb146101ec578063af31f587146101ff578063e4a063c314610212578063f7ea7a3d1461021c57600080fd5b806340c10f19146101b357806342966c68146101c657806370a08231146101d957600080fd5b806323b872dd116100c857806323b872dd1461014d57806327e235e314610170578063313ce567146101905780633eaaf86b146101aa57600080fd5b806312c6c099146100ef57806315ccf5981461011557806318160ddd14610145575b600080fd5b6101026100fd366004610ad6565b61022f565b6040519081526020015b60405180910390f35b610143610123366004610ad6565b604080516020808201835260009091528151908101909152819052600155565b005b600054610102565b61016061015b366004610b0b565b610261565b604051901515815260200161010c565b61010261017e366004610b47565b60026020526000908152604090205481565b610198601281565b60405160ff909116815260200161010c565b61010260005481565b6101606101c1366004610b62565b610278565b6101606101d4366004610ad6565b610333565b6101026101e7366004610b47565b610380565b6101606101fa366004610b62565b6103a2565b61010261020d366004610ad6565b6103af565b6001546101029081565b61014361022a366004610ad6565b600055565b600061025b610256610240846103d9565b6040805160208101909152600154815290610497565b610806565b92915050565b600061026e848484610820565b90505b9392505050565b60006001600160a01b0383166102d55760405162461bcd60e51b815260206004820152601760248201527f302069732061207265736572766564206164647265737300000000000000000060448201526064015b60405180910390fd5b6103006102e18361022f565b6001600160a01b038516600090815260026020526040902054906108c6565b6001600160a01b0384166000908152600260205260408120919091555461032790836108c6565b60005550600192915050565b60006103576103418361022f565b33600090815260026020526040902054906108d2565b336000908152600260205260408120919091555461037590836108d2565b600055506001919050565b6001600160a01b03811660009081526002602052604081205461025b906103af565b6000610271338484610820565b6040805160208101909152600154815260009061025b90610256906103d3856103d9565b906108de565b6040805160208101909152600081527601357c299a88ea76a58924d52ce4f26a85af186c2b9e7482111561046e5760405162461bcd60e51b815260206004820152603660248201527f63616e277420637265617465206669786964697479206e756d626572206c6172604482015275676572207468616e206d61784e65774669786564282960501b60648201526084016102cc565b604051806020016040528069d3c21bcecceda10000008461048f9190610ba2565b905292915050565b604080516020810190915260008152825115806104b357508151155b156104cd575060408051602081019091526000815261025b565b815169d3c21bcecceda0ffffff19016104e757508161025b565b825169d3c21bcecceda0ffffff190161050157508061025b565b600069d3c21bcecceda1000000610517856109cc565b516105229190610bb9565b9050600061052f85610a0b565b519050600069d3c21bcecceda1000000610548866109cc565b516105539190610bb9565b9050600061056086610a0b565b519050600061056f8386610ba2565b905084156105c857826105828683610bb9565b146105c85760405162461bcd60e51b81526020600482015260166024820152751bdd995c999b1bddc81e0c5e4c4819195d1958dd195960521b60448201526064016102cc565b60006105de69d3c21bcecceda100000083610ba2565b905081156106485769d3c21bcecceda10000006105fb8383610bb9565b146106485760405162461bcd60e51b815260206004820152601f60248201527f6f766572666c6f772078317931202a206669786564312064657465637465640060448201526064016102cc565b90508060006106578587610ba2565b905085156106b0578461066a8783610bb9565b146106b05760405162461bcd60e51b81526020600482015260166024820152751bdd995c999b1bddc81e0c9e4c4819195d1958dd195960521b60448201526064016102cc565b60006106bc8589610ba2565b9050871561071557846106cf8983610bb9565b146107155760405162461bcd60e51b81526020600482015260166024820152751bdd995c999b1bddc81e0c5e4c8819195d1958dd195960521b60448201526064016102cc565b61072464e8d4a5100088610bb9565b965061073564e8d4a5100086610bb9565b945060006107438689610ba2565b9050871561079c57856107568983610bb9565b1461079c5760405162461bcd60e51b81526020600482015260166024820152751bdd995c999b1bddc81e0c9e4c8819195d1958dd195960521b60448201526064016102cc565b60408051602080820183528782528251908101909252848252906107c1908290610a56565b90506107db81604051806020016040528086815250610a56565b90506107f581604051806020016040528085815250610a56565b9d9c50505050505050505050505050565b805160009061025b9069d3c21bcecceda100000090610bb9565b60008061082c85610380565b905082811015610840576000915050610271565b600061084b8461022f565b6001600160a01b03871660009081526002602052604090205490915061087190826108d2565b6001600160a01b0380881660009081526002602052604080822093909355908716815220546108a090826108c6565b6001600160a01b0386166000908152600260205260409020555060019150509392505050565b60006102718284610bdb565b60006102718284610bee565b60408051602081019091526000815281516000036109325760405162461bcd60e51b8152602060048201526011602482015270063616e277420646976696465206279203607c1b60448201526064016102cc565b825160009061094c9069d3c21bcecceda100000090610ba2565b845190915061096569d3c21bcecceda100000083610bb9565b146109a75760405162461bcd60e51b81526020600482015260126024820152716f766572666c6f772061742064697669646560701b60448201526064016102cc565b60405180602001604052808460000151836109c29190610bb9565b9052949350505050565b604080516020810190915260008152604051806020016040528069d3c21bcecceda1000000808560000151610a019190610bb9565b61048f9190610ba2565b604080516020810190915260008152604051806020016040528069d3c21bcecceda1000000808560000151610a409190610bb9565b610a4a9190610ba2565b845161048f9190610bee565b60408051602081019091526000815281518351600091610a7591610bdb565b8451909150811015610ac15760405162461bcd60e51b8152602060048201526015602482015274185919081bdd995c999b1bddc819195d1958dd1959605a1b60448201526064016102cc565b60408051602081019091529081529392505050565b600060208284031215610ae857600080fd5b5035919050565b80356001600160a01b0381168114610b0657600080fd5b919050565b600080600060608486031215610b2057600080fd5b610b2984610aef565b9250610b3760208501610aef565b9150604084013590509250925092565b600060208284031215610b5957600080fd5b61027182610aef565b60008060408385031215610b7557600080fd5b610b7e83610aef565b946020939093013593505050565b634e487b7160e01b600052601160045260246000fd5b808202811582820484141761025b5761025b610b8c565b600082610bd657634e487b7160e01b600052601260045260246000fd5b500490565b8082018082111561025b5761025b610b8c565b8181038181111561025b5761025b610b8c56fea26469706673582212208821bbe423d8c31396fa38527d1592e85016b733bf12afb9091395118673966864736f6c63430008130033",
  "immutableReferences": {},
  "source": "// SPDX-License-Identifier: LGPL-3.0-only\npragma solidity >=0.8.0 <0.9.0;\n// solhint-disable no-unused-vars\n\nimport \"@openzeppelin/contracts8/utils/math/SafeMath.sol\";\n\nimport \"../../../contracts/common/FixidityLib.sol\";\n\n/**\n * @title A mock StableToken for testing.\n */\ncontract MockStableToken08 {\n  using FixidityLib for FixidityLib.Fraction;\n  using SafeMath for uint256;\n\n  uint8 public constant decimals = 18;\n  uint256 public _totalSupply;\n  FixidityLib.Fraction public inflationFactor;\n\n  // Stored as units. Value can be found using unitsToValue().\n  mapping(address => uint256) public balances;\n\n  constructor() {\n    setInflationFactor(FixidityLib.fixed1().unwrap());\n  }\n\n  function setTotalSupply(uint256 value) external {\n    _totalSupply = value;\n  }\n\n  function mint(address to, uint256 value) external returns (bool) {\n    require(to != address(0), \"0 is a reserved address\");\n    balances[to] = balances[to].add(valueToUnits(value));\n    _totalSupply = _totalSupply.add(value);\n    return true;\n  }\n\n  function burn(uint256 value) external returns (bool) {\n    balances[msg.sender] = balances[msg.sender].sub(valueToUnits(value));\n    _totalSupply = _totalSupply.sub(value);\n    return true;\n  }\n\n  function transfer(address to, uint256 value) external returns (bool) {\n    return _transfer(msg.sender, to, value);\n  }\n\n  function transferFrom(address from, address to, uint256 value) external returns (bool) {\n    return _transfer(from, to, value);\n  }\n\n  function totalSupply() external view returns (uint256) {\n    return _totalSupply;\n  }\n\n  function setInflationFactor(uint256 newInflationFactor) public {\n    inflationFactor = FixidityLib.wrap(newInflationFactor);\n  }\n\n  function balanceOf(address account) public view returns (uint256) {\n    return unitsToValue(balances[account]);\n  }\n\n  function unitsToValue(uint256 units) public view returns (uint256) {\n    return FixidityLib.newFixed(units).divide(inflationFactor).fromFixed();\n  }\n\n  function valueToUnits(uint256 value) public view returns (uint256) {\n    return inflationFactor.multiply(FixidityLib.newFixed(value)).fromFixed();\n  }\n\n  function _transfer(address from, address to, uint256 value) internal returns (bool) {\n    uint256 balanceValue = balanceOf(from);\n    if (balanceValue < value) {\n      return false;\n    }\n    uint256 units = valueToUnits(value);\n    balances[from] = balances[from].sub(units);\n    balances[to] = balances[to].add(units);\n    return true;\n  }\n}\n",
  "sourcePath": "/Users/beaver/Development/temp/celo-monorepo/packages/protocol/contracts-0.8/stability/test/MockStableToken.sol",
  "compiler": {
    "name": "solc",
    "version": "0.8.19+commit.7dd6d404.Emscripten.clang"
  },
  "schemaVersion": "3.4.13",
  "updatedAt": "2025-05-05T17:49:34.225Z",
  "devdoc": {
    "kind": "dev",
    "methods": {},
    "title": "A mock StableToken for testing.",
    "version": 1
  },
  "userdoc": {
    "kind": "user",
    "methods": {},
    "version": 1
  }
}