{
  "contractName": "ProxyFactory08",
  "abi": [
    {
      "inputs": [
        {
          "internalType": "uint256",
          "name": "value",
          "type": "uint256"
        },
        {
          "internalType": "address",
          "name": "owner",
          "type": "address"
        },
        {
          "internalType": "uint256",
          "name": "_salt",
          "type": "uint256"
        },
        {
          "internalType": "bytes",
          "name": "initCode",
          "type": "bytes"
        }
      ],
      "name": "deployArbitraryByteCode",
      "outputs": [
        {
          "internalType": "address",
          "name": "",
          "type": "address"
        }
      ],
      "stateMutability": "nonpayable",
      "type": "function"
    }
  ],
  "bytecode": "0x608060405234801561001057600080fd5b5061039f806100206000396000f3fe608060405234801561001057600080fd5b506004361061002b5760003560e01c806342ba990a14610030575b600080fd5b61004361003e366004610257565b61005f565b6040516001600160a01b03909116815260200160405180910390f35b6000806100c686853360405160200161008b9291909182526001600160a01b0316602082015260400190565b60405160208183030381529060405280519060200120856040516020016100b2919061033a565b604051602081830303815290604052610131565b60405163694ea27760e11b81526001600160a01b038781166004830152919250829182169063d29d44ee90602401600060405180830381600087803b15801561010e57600080fd5b505af1158015610122573d6000803e3d6000fd5b50939998505050505050505050565b6000834710156101885760405162461bcd60e51b815260206004820152601d60248201527f437265617465323a20696e73756666696369656e742062616c616e636500000060448201526064015b60405180910390fd5b81516000036101d95760405162461bcd60e51b815260206004820181905260248201527f437265617465323a2062797465636f6465206c656e677468206973207a65726f604482015260640161017f565b8282516020840186f590506001600160a01b03811661023a5760405162461bcd60e51b815260206004820152601960248201527f437265617465323a204661696c6564206f6e206465706c6f7900000000000000604482015260640161017f565b9392505050565b634e487b7160e01b600052604160045260246000fd5b6000806000806080858703121561026d57600080fd5b8435935060208501356001600160a01b038116811461028b57600080fd5b925060408501359150606085013567ffffffffffffffff808211156102af57600080fd5b818701915087601f8301126102c357600080fd5b8135818111156102d5576102d5610241565b604051601f8201601f19908116603f011681019083821181831017156102fd576102fd610241565b816040528281528a602084870101111561031657600080fd5b82602086016020830137600060208483010152809550505050505092959194509250565b6000825160005b8181101561035b5760208186018101518583015201610341565b50600092019182525091905056fea26469706673582212203a95f4b48f075b77e6d9a13407fb6b2447aec3350ede094db49ca1865b30745b64736f6c63430008130033",
  "immutableReferences": {},
  "source": "//SPDX-License-Identifier: MIT\npragma solidity ^0.8.15;\n\nimport \"../../contracts/common/interfaces/IProxy.sol\";\n\nimport \"@openzeppelin/contracts8/utils/Create2.sol\";\n\n/**\n * @title Used for deploying Proxy contracts using Create2.\n */\ncontract ProxyFactory08 {\n  /**\n   * @notice Deploys a new bytecode and transfers ownership to the provided address.\n   * @param value Amount of CELO to transfer to the new contract.\n   * @param owner The proxy owner to set.\n   * @param _salt The Create2 salt to use.\n   * @param initCode The contract init code to use for deployment.\n   * @return Address of the deployed contract.\n   * @dev Calls with the same initCode, sender, and salt will revert as two\n   * contracts cannot get deployed to the same address.\n   * @dev Assumes the deployed contract is a Proxy with a `_transferOwnership`\n   * function that will be called. Will revert if that call reverts.\n   */\n  function deployArbitraryByteCode(\n    uint256 value,\n    address owner,\n    uint256 _salt,\n    bytes memory initCode\n  ) external returns (address) {\n    address deployedContract = Create2.deploy(\n      value,\n      keccak256(abi.encode(_salt, msg.sender)),\n      abi.encodePacked(initCode)\n    );\n\n    IProxy proxy = IProxy(deployedContract);\n    proxy._transferOwnership(owner);\n\n    return deployedContract;\n  }\n}\n",
  "sourcePath": "/Users/beaver/Development/temp/celo-monorepo/packages/protocol/contracts-0.8/common/ProxyFactory08.sol",
  "compiler": {
    "name": "solc",
    "version": "0.8.19+commit.7dd6d404.Emscripten.clang"
  },
  "schemaVersion": "3.4.13",
  "updatedAt": "2025-05-05T17:49:34.151Z",
  "devdoc": {
    "kind": "dev",
    "methods": {
      "deployArbitraryByteCode(uint256,address,uint256,bytes)": {
        "details": "Calls with the same initCode, sender, and salt will revert as two contracts cannot get deployed to the same address.Assumes the deployed contract is a Proxy with a `_transferOwnership` function that will be called. Will revert if that call reverts.",
        "params": {
          "_salt": "The Create2 salt to use.",
          "initCode": "The contract init code to use for deployment.",
          "owner": "The proxy owner to set.",
          "value": "Amount of CELO to transfer to the new contract."
        },
        "returns": {
          "_0": "Address of the deployed contract."
        }
      }
    },
    "title": "Used for deploying Proxy contracts using Create2.",
    "version": 1
  },
  "userdoc": {
    "kind": "user",
    "methods": {
      "deployArbitraryByteCode(uint256,address,uint256,bytes)": {
        "notice": "Deploys a new bytecode and transfers ownership to the provided address."
      }
    },
    "version": 1
  }
}