{
  "contractName": "ScoreManager",
  "abi": [
    {
      "inputs": [
        {
          "internalType": "bool",
          "name": "test",
          "type": "bool"
        }
      ],
      "stateMutability": "nonpayable",
      "type": "constructor"
    },
    {
      "anonymous": false,
      "inputs": [
        {
          "indexed": true,
          "internalType": "address",
          "name": "group",
          "type": "address"
        },
        {
          "indexed": false,
          "internalType": "uint256",
          "name": "score",
          "type": "uint256"
        }
      ],
      "name": "GroupScoreSet",
      "type": "event"
    },
    {
      "anonymous": false,
      "inputs": [
        {
          "indexed": true,
          "internalType": "address",
          "name": "previousOwner",
          "type": "address"
        },
        {
          "indexed": true,
          "internalType": "address",
          "name": "newOwner",
          "type": "address"
        }
      ],
      "name": "OwnershipTransferred",
      "type": "event"
    },
    {
      "anonymous": false,
      "inputs": [
        {
          "indexed": true,
          "internalType": "address",
          "name": "scoreManagerSetter",
          "type": "address"
        }
      ],
      "name": "ScoreManagerSetterSet",
      "type": "event"
    },
    {
      "anonymous": false,
      "inputs": [
        {
          "indexed": true,
          "internalType": "address",
          "name": "validator",
          "type": "address"
        },
        {
          "indexed": false,
          "internalType": "uint256",
          "name": "score",
          "type": "uint256"
        }
      ],
      "name": "ValidatorScoreSet",
      "type": "event"
    },
    {
      "inputs": [],
      "name": "ZERO_SCORE",
      "outputs": [
        {
          "internalType": "uint256",
          "name": "",
          "type": "uint256"
        }
      ],
      "stateMutability": "view",
      "type": "function"
    },
    {
      "inputs": [
        {
          "internalType": "address",
          "name": "",
          "type": "address"
        }
      ],
      "name": "groupScores",
      "outputs": [
        {
          "internalType": "uint256",
          "name": "",
          "type": "uint256"
        }
      ],
      "stateMutability": "view",
      "type": "function"
    },
    {
      "inputs": [],
      "name": "initialized",
      "outputs": [
        {
          "internalType": "bool",
          "name": "",
          "type": "bool"
        }
      ],
      "stateMutability": "view",
      "type": "function"
    },
    {
      "inputs": [],
      "name": "owner",
      "outputs": [
        {
          "internalType": "address",
          "name": "",
          "type": "address"
        }
      ],
      "stateMutability": "view",
      "type": "function"
    },
    {
      "inputs": [],
      "name": "renounceOwnership",
      "outputs": [],
      "stateMutability": "nonpayable",
      "type": "function"
    },
    {
      "inputs": [
        {
          "internalType": "address",
          "name": "newOwner",
          "type": "address"
        }
      ],
      "name": "transferOwnership",
      "outputs": [],
      "stateMutability": "nonpayable",
      "type": "function"
    },
    {
      "inputs": [
        {
          "internalType": "address",
          "name": "",
          "type": "address"
        }
      ],
      "name": "validatorScores",
      "outputs": [
        {
          "internalType": "uint256",
          "name": "",
          "type": "uint256"
        }
      ],
      "stateMutability": "view",
      "type": "function"
    },
    {
      "inputs": [],
      "name": "initialize",
      "outputs": [],
      "stateMutability": "nonpayable",
      "type": "function"
    },
    {
      "inputs": [
        {
          "internalType": "address",
          "name": "group",
          "type": "address"
        },
        {
          "internalType": "uint256",
          "name": "score",
          "type": "uint256"
        }
      ],
      "name": "setGroupScore",
      "outputs": [],
      "stateMutability": "nonpayable",
      "type": "function"
    },
    {
      "inputs": [
        {
          "internalType": "address",
          "name": "validator",
          "type": "address"
        },
        {
          "internalType": "uint256",
          "name": "score",
          "type": "uint256"
        }
      ],
      "name": "setValidatorScore",
      "outputs": [],
      "stateMutability": "nonpayable",
      "type": "function"
    },
    {
      "inputs": [
        {
          "internalType": "address",
          "name": "_scoreManagerSetter",
          "type": "address"
        }
      ],
      "name": "setScoreManagerSetter",
      "outputs": [],
      "stateMutability": "nonpayable",
      "type": "function"
    },
    {
      "inputs": [
        {
          "internalType": "address",
          "name": "group",
          "type": "address"
        }
      ],
      "name": "getGroupScore",
      "outputs": [
        {
          "internalType": "uint256",
          "name": "",
          "type": "uint256"
        }
      ],
      "stateMutability": "view",
      "type": "function"
    },
    {
      "inputs": [
        {
          "internalType": "address",
          "name": "validator",
          "type": "address"
        }
      ],
      "name": "getValidatorScore",
      "outputs": [
        {
          "internalType": "uint256",
          "name": "",
          "type": "uint256"
        }
      ],
      "stateMutability": "view",
      "type": "function"
    },
    {
      "inputs": [],
      "name": "getScoreManagerSetter",
      "outputs": [
        {
          "internalType": "address",
          "name": "",
          "type": "address"
        }
      ],
      "stateMutability": "view",
      "type": "function"
    },
    {
      "inputs": [],
      "name": "getVersionNumber",
      "outputs": [
        {
          "internalType": "uint256",
          "name": "",
          "type": "uint256"
        },
        {
          "internalType": "uint256",
          "name": "",
          "type": "uint256"
        },
        {
          "internalType": "uint256",
          "name": "",
          "type": "uint256"
        },
        {
          "internalType": "uint256",
          "name": "",
          "type": "uint256"
        }
      ],
      "stateMutability": "pure",
      "type": "function"
    }
  ],
  "bytecode": "0x608060405234801561001057600080fd5b506040516108db3803806108db83398101604081905261002f916100ac565b8080610043576000805460ff191660011790555b5061004d33610053565b506100d5565b600080546001600160a01b03838116610100818102610100600160a81b0319851617855560405193049190911692909183917f8be0079c531659141344cd1fd0a4f28419497f9722a3daafe3b4186f6b6457e091a35050565b6000602082840312156100be57600080fd5b815180151581146100ce57600080fd5b9392505050565b6107f7806100e46000396000f3fe608060405234801561001057600080fd5b50600436106100f45760003560e01c80638da5cb5b11610097578063e5079ddc11610066578063e5079ddc146101f0578063e612fab514610203578063f2fde38b14610223578063f5a9f94a1461023657600080fd5b80638da5cb5b1461018f578063c40c8d06146101b9578063ddfebf96146101cc578063e33e59d4146101dd57600080fd5b806354255be0116100d357806354255be01461014457806361df2a451461016a578063715018a61461017f5780638129fc1c1461018757600080fd5b80627ddf48146100f9578063158ef93e1461011457806321c082aa14610131575b600080fd5b610101610256565b6040519081526020015b60405180910390f35b6000546101219060ff1681565b604051901515815260200161010b565b61010161013f36600461070f565b61026e565b60018060008060408051948552602085019390935291830152606082015260800161010b565b61017d61017836600461070f565b610296565b005b61017d6102e8565b61017d6102fc565b60005461010090046001600160a01b03165b6040516001600160a01b03909116815260200161010b565b61017d6101c7366004610731565b61036a565b6003546001600160a01b03166101a1565b61017d6101eb366004610731565b610424565b6101016101fe36600461070f565b6104d2565b61010161021136600461070f565b60016020526000908152604090205481565b61017d61023136600461070f565b6104f4565b61010161024436600461070f565b60026020526000908152604090205481565b61026b69d3c21bcecceda1000000600161075b565b81565b6001600160a01b0381166000908152600160205260408120546102909061056d565b92915050565b61029e6105af565b600380546001600160a01b0319166001600160a01b0383169081179091556040517f32828b94a29931495ac9e8b4fa1cbe7ab0801e751dabe58f16bccd65dee74a9990600090a250565b6102f06105af565b6102fa600061060f565b565b60005460ff16156103545760405162461bcd60e51b815260206004820152601c60248201527f636f6e747261637420616c726561647920696e697469616c697a65640000000060448201526064015b60405180910390fd5b6000805460ff191660011790556102fa3361060f565b60005461010090046001600160a01b03166001600160a01b0316336001600160a01b031614806103a457506003546001600160a01b031633145b6103c05760405162461bcd60e51b815260040161034b9061077c565b6103c981610668565b6001600160a01b038316600081815260016020526040908190209290925590517fc8c2849c9c4276f0047a5b47a07fe4fa90d9ca9abcfe223b096b3c1e180fafb0906104189084815260200190565b60405180910390a25050565b60005461010090046001600160a01b03166001600160a01b0316336001600160a01b0316148061045e57506003546001600160a01b031633145b61047a5760405162461bcd60e51b815260040161034b9061077c565b61048381610668565b6001600160a01b038316600081815260026020526040908190209290925590517f0df00ce445711e31bba70de9ebb21e955b83927413ba5d01dfbbed0b773a4765906104189084815260200190565b6001600160a01b0381166000908152600260205260408120546102909061056d565b6104fc6105af565b6001600160a01b0381166105615760405162461bcd60e51b815260206004820152602660248201527f4f776e61626c653a206e6577206f776e657220697320746865207a65726f206160448201526564647265737360d01b606482015260840161034b565b61056a8161060f565b50565b600081600003610588575069d3c21bcecceda1000000919050565b61059d69d3c21bcecceda1000000600161075b565b82036105ab57506000919050565b5090565b6000546001600160a01b036101009091041633146102fa5760405162461bcd60e51b815260206004820181905260248201527f4f776e61626c653a2063616c6c6572206973206e6f7420746865206f776e6572604482015260640161034b565b600080546001600160a01b03838116610100818102610100600160a81b0319851617855560405193049190911692909183917f8be0079c531659141344cd1fd0a4f28419497f9722a3daafe3b4186f6b6457e091a35050565b6000816000036106875761029069d3c21bcecceda1000000600161075b565b69d3c21bcecceda10000008211156105ab5760405162461bcd60e51b815260206004820152602960248201527f53636f7265206d757374206265206c657373207468616e206f7220657175616c604482015268103a379018b2991a1760b91b606482015260840161034b565b80356001600160a01b038116811461070a57600080fd5b919050565b60006020828403121561072157600080fd5b61072a826106f3565b9392505050565b6000806040838503121561074457600080fd5b61074d836106f3565b946020939093013593505050565b8082018082111561029057634e487b7160e01b600052601160045260246000fd5b60208082526025908201527f53656e646572206e6f7420617574686f72697a656420746f207570646174652060408201526473636f726560d81b60608201526080019056fea2646970667358221220d331e4796af41fdb73cc4a8611d01d98d8f2a7fcaf39683bbc7d5413e0b55bcf64736f6c63430008130033",
  "immutableReferences": {},
  "source": "// SPDX-License-Identifier: LGPL-3.0-only\npragma solidity >=0.8.7 <0.8.20;\n\nimport \"../../contracts/common/Initializable.sol\";\nimport \"../../contracts/common/interfaces/ICeloVersionedContract.sol\";\nimport \"@openzeppelin/contracts8/access/Ownable.sol\";\n\nimport \"../../contracts/common/interfaces/IScoreManagerGovernance.sol\";\nimport \"../../contracts/common/interfaces/IScoreManager.sol\";\n\n/**\n * @title ScoreManager contract\n * @notice This contract updates the score of validators and validator groups on L2.\n * This replaces the previous method of calculating scores based on validator uptime\n * with a governable score.\n */\ncontract ScoreManager is\n  Initializable,\n  Ownable,\n  IScoreManager,\n  IScoreManagerGovernance,\n  ICeloVersionedContract\n{\n  struct Score {\n    uint256 score;\n    bool exists;\n  }\n\n  uint256 private constant FIXED1_UINT = 1e24;\n  uint256 public constant ZERO_SCORE = FIXED1_UINT + 1;\n\n  mapping(address => uint256) public groupScores;\n  mapping(address => uint256) public validatorScores;\n  address private scoreManagerSetter;\n\n  event GroupScoreSet(address indexed group, uint256 score);\n  event ValidatorScoreSet(address indexed validator, uint256 score);\n  event ScoreManagerSetterSet(address indexed scoreManagerSetter);\n\n  /**\n   * @notice Reverts if msg.sender is not authorized to update score.\n   */\n  modifier onlyAuthorizedToUpdateScore() {\n    require(\n      msg.sender == owner() || scoreManagerSetter == msg.sender,\n      \"Sender not authorized to update score\"\n    );\n    _;\n  }\n\n  /**\n   * @notice Sets initialized == true on implementation contracts\n   * @param test Set to true to skip implementation initialization\n   */\n  constructor(bool test) Initializable(test) {}\n\n  /**\n   * @notice Used in place of the constructor to allow the contract to be upgradable via proxy.\n   */\n  function initialize() external initializer {\n    _transferOwnership(msg.sender);\n  }\n\n  /**\n   * @notice Sets the group score for a specified group.\n   * @param group The address of the group whose score will be updated.\n   * @param score The new score of the group to be updated.\n   * @dev Set value to `ZERO_SCORE` to set score to zero.\n   */\n  function setGroupScore(address group, uint256 score) external onlyAuthorizedToUpdateScore {\n    groupScores[group] = checkScore(score);\n    emit GroupScoreSet(group, score);\n  }\n\n  /**\n   * @notice Sets the score for a specified validator.\n   * @param validator The address of the validator whose score will be updated.\n   * @param score The new score of the validator to be updated.\n   * @dev Set value to `ZERO_SCORE` to set score to zero.\n   */\n  function setValidatorScore(\n    address validator,\n    uint256 score\n  ) external onlyAuthorizedToUpdateScore {\n    validatorScores[validator] = checkScore(score);\n    emit ValidatorScoreSet(validator, score);\n  }\n\n  /**\n   * @notice Sets the whitelisted address allowed to set validator and group scores.\n   * @param _scoreManagerSetter Address of whitelisted score setter.\n   */\n  function setScoreManagerSetter(address _scoreManagerSetter) external onlyOwner {\n    scoreManagerSetter = _scoreManagerSetter;\n    emit ScoreManagerSetterSet(_scoreManagerSetter);\n  }\n\n  /**\n   * @notice Returns the score of the specified group.\n   * @param group The address of the group of interest.\n   */\n  function getGroupScore(address group) external view returns (uint256) {\n    return getScore(groupScores[group]);\n  }\n\n  /**\n   * @notice Returns the score of the specified validator.\n   * @param validator The address of the validator of interest.\n   */\n  function getValidatorScore(address validator) external view returns (uint256) {\n    return getScore(validatorScores[validator]);\n  }\n\n  /**\n   * @notice Returns the address of the whitelisted score setter.\n   */\n  function getScoreManagerSetter() external view returns (address) {\n    return scoreManagerSetter;\n  }\n\n  /**\n   * @notice Returns the storage, major, minor, and patch version of the contract.\n   * @return Storage version of the contract.\n   * @return Major version of the contract.\n   * @return Minor version of the contract.\n   * @return Patch version of the contract.\n   */\n  function getVersionNumber() external pure returns (uint256, uint256, uint256, uint256) {\n    return (1, 1, 0, 0);\n  }\n\n  /**\n   * @notice Returns the actual score based on the input value.\n   * @param score The value from `validatorScores` or `groupScores` mappings.\n   * @dev To set the score to 100% by default when the contract is first initialized\n   * or when new groups or validators are added, the default score of 0 returns 1e24.\n   * To encode a score value of 0 we use the magic number ZERO_SCORE = (1e24)+1.\n   */\n  function getScore(uint256 score) internal pure returns (uint256) {\n    if (score == 0) {\n      return FIXED1_UINT;\n    } else if (score == ZERO_SCORE) {\n      return 0;\n    }\n    return score;\n  }\n\n  /**\n   * @notice Checks if the score is valid and returns the score.\n   * @param score The score to be checked.\n   */\n  function checkScore(uint256 score) internal pure returns (uint256) {\n    if (score == 0) {\n      return ZERO_SCORE;\n    }\n\n    require(score <= FIXED1_UINT, \"Score must be less than or equal to 1e24.\");\n    return score;\n  }\n}\n",
  "sourcePath": "/Users/beaver/Development/temp/celo-monorepo/packages/protocol/contracts-0.8/common/ScoreManager.sol",
  "compiler": {
    "name": "solc",
    "version": "0.8.19+commit.7dd6d404.Emscripten.clang"
  },
  "schemaVersion": "3.4.13",
  "updatedAt": "2025-05-05T17:49:34.152Z",
  "devdoc": {
    "kind": "dev",
    "methods": {
      "constructor": {
        "params": {
          "test": "Set to true to skip implementation initialization"
        }
      },
      "getGroupScore(address)": {
        "params": {
          "group": "The address of the group of interest."
        }
      },
      "getValidatorScore(address)": {
        "params": {
          "validator": "The address of the validator of interest."
        }
      },
      "getVersionNumber()": {
        "returns": {
          "_0": "Storage version of the contract.",
          "_1": "Major version of the contract.",
          "_2": "Minor version of the contract.",
          "_3": "Patch version of the contract."
        }
      },
      "owner()": {
        "details": "Returns the address of the current owner."
      },
      "renounceOwnership()": {
        "details": "Leaves the contract without owner. It will not be possible to call `onlyOwner` functions. Can only be called by the current owner. NOTE: Renouncing ownership will leave the contract without an owner, thereby disabling any functionality that is only available to the owner."
      },
      "setGroupScore(address,uint256)": {
        "details": "Set value to `ZERO_SCORE` to set score to zero.",
        "params": {
          "group": "The address of the group whose score will be updated.",
          "score": "The new score of the group to be updated."
        }
      },
      "setScoreManagerSetter(address)": {
        "params": {
          "_scoreManagerSetter": "Address of whitelisted score setter."
        }
      },
      "setValidatorScore(address,uint256)": {
        "details": "Set value to `ZERO_SCORE` to set score to zero.",
        "params": {
          "score": "The new score of the validator to be updated.",
          "validator": "The address of the validator whose score will be updated."
        }
      },
      "transferOwnership(address)": {
        "details": "Transfers ownership of the contract to a new account (`newOwner`). Can only be called by the current owner."
      }
    },
    "title": "ScoreManager contract",
    "version": 1
  },
  "userdoc": {
    "kind": "user",
    "methods": {
      "constructor": {
        "notice": "Sets initialized == true on implementation contracts"
      },
      "getGroupScore(address)": {
        "notice": "Returns the score of the specified group."
      },
      "getScoreManagerSetter()": {
        "notice": "Returns the address of the whitelisted score setter."
      },
      "getValidatorScore(address)": {
        "notice": "Returns the score of the specified validator."
      },
      "getVersionNumber()": {
        "notice": "Returns the storage, major, minor, and patch version of the contract."
      },
      "initialize()": {
        "notice": "Used in place of the constructor to allow the contract to be upgradable via proxy."
      },
      "setGroupScore(address,uint256)": {
        "notice": "Sets the group score for a specified group."
      },
      "setScoreManagerSetter(address)": {
        "notice": "Sets the whitelisted address allowed to set validator and group scores."
      },
      "setValidatorScore(address,uint256)": {
        "notice": "Sets the score for a specified validator."
      }
    },
    "notice": "This contract updates the score of validators and validator groups on L2. This replaces the previous method of calculating scores based on validator uptime with a governable score.",
    "version": 1
  }
}