{
  "contractName": "UsingRegistry",
  "abi": [
    {
      "anonymous": false,
      "inputs": [
        {
          "indexed": true,
          "internalType": "address",
          "name": "previousOwner",
          "type": "address"
        },
        {
          "indexed": true,
          "internalType": "address",
          "name": "newOwner",
          "type": "address"
        }
      ],
      "name": "OwnershipTransferred",
      "type": "event"
    },
    {
      "anonymous": false,
      "inputs": [
        {
          "indexed": true,
          "internalType": "address",
          "name": "registryAddress",
          "type": "address"
        }
      ],
      "name": "RegistrySet",
      "type": "event"
    },
    {
      "inputs": [],
      "name": "owner",
      "outputs": [
        {
          "internalType": "address",
          "name": "",
          "type": "address"
        }
      ],
      "stateMutability": "view",
      "type": "function"
    },
    {
      "inputs": [],
      "name": "registry",
      "outputs": [
        {
          "internalType": "contract IRegistry",
          "name": "",
          "type": "address"
        }
      ],
      "stateMutability": "view",
      "type": "function"
    },
    {
      "inputs": [],
      "name": "renounceOwnership",
      "outputs": [],
      "stateMutability": "nonpayable",
      "type": "function"
    },
    {
      "inputs": [
        {
          "internalType": "address",
          "name": "newOwner",
          "type": "address"
        }
      ],
      "name": "transferOwnership",
      "outputs": [],
      "stateMutability": "nonpayable",
      "type": "function"
    },
    {
      "inputs": [
        {
          "internalType": "address",
          "name": "registryAddress",
          "type": "address"
        }
      ],
      "name": "setRegistry",
      "outputs": [],
      "stateMutability": "nonpayable",
      "type": "function"
    }
  ],
  "bytecode": "0x608060405234801561001057600080fd5b5061001a3361001f565b61006f565b600080546001600160a01b038381166001600160a01b0319831681178455604051919092169283917f8be0079c531659141344cd1fd0a4f28419497f9722a3daafe3b4186f6b6457e09190a35050565b6103168061007e6000396000f3fe608060405234801561001057600080fd5b50600436106100575760003560e01c8063715018a61461005c5780637b103999146100665780638da5cb5b14610095578063a91ee0dc146100a6578063f2fde38b146100b9575b600080fd5b6100646100cc565b005b600154610079906001600160a01b031681565b6040516001600160a01b03909116815260200160405180910390f35b6000546001600160a01b0316610079565b6100646100b43660046102b0565b6100e0565b6100646100c73660046102b0565b61018d565b6100d4610206565b6100de6000610260565b565b6100e8610206565b6001600160a01b0381166101435760405162461bcd60e51b815260206004820181905260248201527f43616e6e6f7420726567697374657220746865206e756c6c206164647265737360448201526064015b60405180910390fd5b600180546001600160a01b0319166001600160a01b0383169081179091556040517f27fe5f0c1c3b1ed427cc63d0f05759ffdecf9aec9e18d31ef366fc8a6cb5dc3b90600090a250565b610195610206565b6001600160a01b0381166101fa5760405162461bcd60e51b815260206004820152602660248201527f4f776e61626c653a206e6577206f776e657220697320746865207a65726f206160448201526564647265737360d01b606482015260840161013a565b61020381610260565b50565b6000546001600160a01b031633146100de5760405162461bcd60e51b815260206004820181905260248201527f4f776e61626c653a2063616c6c6572206973206e6f7420746865206f776e6572604482015260640161013a565b600080546001600160a01b038381166001600160a01b0319831681178455604051919092169283917f8be0079c531659141344cd1fd0a4f28419497f9722a3daafe3b4186f6b6457e09190a35050565b6000602082840312156102c257600080fd5b81356001600160a01b03811681146102d957600080fd5b939250505056fea2646970667358221220a9f114c49ccdaf7a503a4d10abbc54c1d29f056021c480d227980a6ad2c06dfe64736f6c63430008130033",
  "immutableReferences": {},
  "source": "// SPDX-License-Identifier: LGPL-3.0-only\npragma solidity >=0.8.0 <0.8.20;\n\n// Note: This is not an exact copy of UsingRegistry or UsingRegistryV2 in the contract's folder\n// because Mento's interfaces still don't support Solidity 0.8\n\nimport \"@openzeppelin/contracts8/access/Ownable.sol\";\nimport \"@openzeppelin/contracts8/token/ERC20/IERC20.sol\";\n\nimport \"../../contracts/common/interfaces/IRegistry.sol\";\nimport \"../../contracts/common/interfaces/IAccounts.sol\";\nimport \"../../contracts/common/interfaces/IEpochManager.sol\";\nimport \"../../contracts/common/interfaces/IFreezer.sol\";\nimport \"../../contracts/common/interfaces/ICeloUnreleasedTreasury.sol\";\nimport \"../../contracts/common/interfaces/IFeeCurrencyWhitelist.sol\";\nimport \"../../contracts/common/interfaces/IFeeHandlerSeller.sol\";\nimport \"../../contracts/common/interfaces/IEpochManager.sol\";\nimport \"../../contracts/governance/interfaces/IGovernance.sol\";\nimport \"../../contracts/governance/interfaces/ILockedGold.sol\";\nimport \"../../contracts/governance/interfaces/ILockedCelo.sol\";\nimport \"../../contracts/governance/interfaces/IValidators.sol\";\nimport \"../../contracts/governance/interfaces/IElection.sol\";\nimport \"../../contracts/governance/interfaces/IEpochRewards.sol\";\nimport \"../../contracts/stability/interfaces/ISortedOracles.sol\";\n\nimport \"./interfaces/IScoreReader.sol\";\n\ncontract UsingRegistry is Ownable {\n  // solhint-disable state-visibility\n  bytes32 constant ACCOUNTS_REGISTRY_ID = keccak256(abi.encodePacked(\"Accounts\"));\n  bytes32 constant ATTESTATIONS_REGISTRY_ID = keccak256(abi.encodePacked(\"Attestations\"));\n  bytes32 constant DOWNTIME_SLASHER_REGISTRY_ID = keccak256(abi.encodePacked(\"DowntimeSlasher\"));\n  bytes32 constant DOUBLE_SIGNING_SLASHER_REGISTRY_ID =\n    keccak256(abi.encodePacked(\"DoubleSigningSlasher\"));\n  bytes32 constant ELECTION_REGISTRY_ID = keccak256(abi.encodePacked(\"Election\"));\n  bytes32 constant EPOCH_REWARDS_REGISTRY_ID = keccak256(abi.encodePacked(\"EpochRewards\"));\n  bytes32 constant EXCHANGE_REGISTRY_ID = keccak256(abi.encodePacked(\"Exchange\"));\n  bytes32 constant FEE_CURRENCY_WHITELIST_REGISTRY_ID =\n    keccak256(abi.encodePacked(\"FeeCurrencyWhitelist\"));\n  bytes32 constant FREEZER_REGISTRY_ID = keccak256(abi.encodePacked(\"Freezer\"));\n  bytes32 constant GOLD_TOKEN_REGISTRY_ID = keccak256(abi.encodePacked(\"GoldToken\"));\n  bytes32 constant GOVERNANCE_REGISTRY_ID = keccak256(abi.encodePacked(\"Governance\"));\n  bytes32 constant GOVERNANCE_SLASHER_REGISTRY_ID =\n    keccak256(abi.encodePacked(\"GovernanceSlasher\"));\n  bytes32 constant LOCKED_GOLD_REGISTRY_ID = keccak256(abi.encodePacked(\"LockedGold\"));\n  bytes32 constant RESERVE_REGISTRY_ID = keccak256(abi.encodePacked(\"Reserve\"));\n  bytes32 constant RANDOM_REGISTRY_ID = keccak256(abi.encodePacked(\"Random\"));\n  bytes32 constant SORTED_ORACLES_REGISTRY_ID = keccak256(abi.encodePacked(\"SortedOracles\"));\n  bytes32 constant STABLE_TOKEN_REGISTRY_ID = keccak256(abi.encodePacked(\"StableToken\"));\n  bytes32 constant VALIDATORS_REGISTRY_ID = keccak256(abi.encodePacked(\"Validators\"));\n  bytes32 constant MENTOFEEHANDLERSELLER_REGISTRY_ID =\n    keccak256(abi.encodePacked(\"MentoFeeHandlerSeller\"));\n  bytes32 constant CELO_TOKEN_REGISTRY_ID = keccak256(abi.encodePacked(\"CeloToken\"));\n  bytes32 constant LOCKED_CELO_REGISTRY_ID = keccak256(abi.encodePacked(\"LockedCelo\"));\n  bytes32 constant CELO_UNRELEASED_TREASURY_REGISTRY_ID =\n    keccak256(abi.encodePacked(\"CeloUnreleasedTreasury\"));\n  bytes32 constant EPOCH_MANAGER_ENABLER_REGISTRY_ID =\n    keccak256(abi.encodePacked(\"EpochManagerEnabler\"));\n  bytes32 constant EPOCH_MANAGER_REGISTRY_ID = keccak256(abi.encodePacked(\"EpochManager\"));\n  bytes32 constant SCORE_MANAGER_REGISTRY_ID = keccak256(abi.encodePacked(\"ScoreManager\"));\n  // solhint-enable state-visibility\n\n  IRegistry public registry;\n\n  event RegistrySet(address indexed registryAddress);\n\n  modifier onlyRegisteredContract(bytes32 identifierHash) {\n    require(registry.getAddressForOrDie(identifierHash) == msg.sender, \"only registered contract\");\n    _;\n  }\n\n  modifier onlyRegisteredContracts(bytes32[] memory identifierHashes) {\n    require(registry.isOneOf(identifierHashes, msg.sender), \"only registered contracts\");\n    _;\n  }\n\n  /**\n   * @notice Updates the address pointing to a Registry contract.\n   * @param registryAddress The address of a registry contract for routing to other contracts.\n   */\n  function setRegistry(address registryAddress) public onlyOwner {\n    require(registryAddress != address(0), \"Cannot register the null address\");\n    registry = IRegistry(registryAddress);\n    emit RegistrySet(registryAddress);\n  }\n\n  function getGoldToken() internal view returns (IERC20) {\n    return IERC20(registry.getAddressForOrDie(GOLD_TOKEN_REGISTRY_ID));\n  }\n\n  function getCeloToken() internal view returns (IERC20) {\n    return IERC20(registry.getAddressForOrDie(CELO_TOKEN_REGISTRY_ID));\n  }\n\n  function getFreezer() internal view returns (IFreezer) {\n    return IFreezer(registry.getAddressForOrDie(FREEZER_REGISTRY_ID));\n  }\n\n  function getSortedOracles() internal view returns (ISortedOracles) {\n    return ISortedOracles(registry.getAddressForOrDie(SORTED_ORACLES_REGISTRY_ID));\n  }\n\n  function getFeeCurrencyWhitelist() internal view returns (IFeeCurrencyWhitelist) {\n    return IFeeCurrencyWhitelist(registry.getAddressForOrDie(FEE_CURRENCY_WHITELIST_REGISTRY_ID));\n  }\n\n  function getLockedGold() internal view returns (ILockedGold) {\n    return ILockedGold(registry.getAddressForOrDie(LOCKED_GOLD_REGISTRY_ID));\n  }\n\n  function getLockedCelo() internal view returns (ILockedCelo) {\n    return ILockedCelo(registry.getAddressForOrDie(LOCKED_CELO_REGISTRY_ID));\n  }\n\n  // Current version of Mento doesn't support 0.8\n  function getStableToken() internal view returns (address) {\n    return registry.getAddressForOrDie(STABLE_TOKEN_REGISTRY_ID);\n  }\n\n  function getMentoFeeHandlerSeller() internal view returns (IFeeHandlerSeller) {\n    return IFeeHandlerSeller(registry.getAddressForOrDie(MENTOFEEHANDLERSELLER_REGISTRY_ID));\n  }\n\n  function getAccounts() internal view returns (IAccounts) {\n    return IAccounts(registry.getAddressForOrDie(ACCOUNTS_REGISTRY_ID));\n  }\n\n  function getValidators() internal view returns (IValidators) {\n    return IValidators(registry.getAddressForOrDie(VALIDATORS_REGISTRY_ID));\n  }\n\n  function getElection() internal view returns (IElection) {\n    return IElection(registry.getAddressForOrDie(ELECTION_REGISTRY_ID));\n  }\n\n  function getEpochRewards() internal view returns (IEpochRewards) {\n    return IEpochRewards(registry.getAddressForOrDie(EPOCH_REWARDS_REGISTRY_ID));\n  }\n\n  function getGovernance() internal view returns (IGovernance) {\n    return IGovernance(registry.getAddressForOrDie(GOVERNANCE_REGISTRY_ID));\n  }\n\n  function getCeloUnreleasedTreasury() internal view returns (ICeloUnreleasedTreasury) {\n    return\n      ICeloUnreleasedTreasury(registry.getAddressForOrDie(CELO_UNRELEASED_TREASURY_REGISTRY_ID));\n  }\n\n  function getEpochManager() internal view returns (IEpochManager) {\n    return IEpochManager(registry.getAddressForOrDie(EPOCH_MANAGER_REGISTRY_ID));\n  }\n\n  function getScoreReader() internal view returns (IScoreReader) {\n    return IScoreReader(registry.getAddressForOrDie(SCORE_MANAGER_REGISTRY_ID));\n  }\n}\n",
  "sourcePath": "/Users/beaver/Development/temp/celo-monorepo/packages/protocol/contracts-0.8/common/UsingRegistry.sol",
  "compiler": {
    "name": "solc",
    "version": "0.8.19+commit.7dd6d404.Emscripten.clang"
  },
  "schemaVersion": "3.4.13",
  "updatedAt": "2025-05-05T17:49:34.158Z",
  "devdoc": {
    "kind": "dev",
    "methods": {
      "owner()": {
        "details": "Returns the address of the current owner."
      },
      "renounceOwnership()": {
        "details": "Leaves the contract without owner. It will not be possible to call `onlyOwner` functions. Can only be called by the current owner. NOTE: Renouncing ownership will leave the contract without an owner, thereby disabling any functionality that is only available to the owner."
      },
      "setRegistry(address)": {
        "params": {
          "registryAddress": "The address of a registry contract for routing to other contracts."
        }
      },
      "transferOwnership(address)": {
        "details": "Transfers ownership of the contract to a new account (`newOwner`). Can only be called by the current owner."
      }
    },
    "version": 1
  },
  "userdoc": {
    "kind": "user",
    "methods": {
      "setRegistry(address)": {
        "notice": "Updates the address pointing to a Registry contract."
      }
    },
    "version": 1
  }
}