{
  "contractName": "UsingRegistryV2NoMento",
  "abi": [
    {
      "inputs": [],
      "name": "registryContract",
      "outputs": [
        {
          "internalType": "contract IRegistry",
          "name": "",
          "type": "address"
        }
      ],
      "stateMutability": "view",
      "type": "function"
    }
  ],
  "bytecode": "0x6080604052348015600f57600080fd5b5060878061001e6000396000f3fe6080604052348015600f57600080fd5b506004361060285760003560e01c806328c1f99b14602d575b600080fd5b603561ce1081565b6040516001600160a01b03909116815260200160405180910390f3fea264697066735822122036089b1e80738b6226b058760f65065c837b2da1e30d02dbb4023ec71f43422064736f6c63430008130033",
  "immutableReferences": {},
  "source": "// SPDX-License-Identifier: LGPL-3.0-only\npragma solidity >=0.8.0 <0.8.20;\n\n// Note: This is not an exact copy of UsingRegistry or UsingRegistryV2 in the contract's folder\n// because Mento's interfaces still don't support Solidity 0.8\n\nimport \"@openzeppelin/contracts8/access/Ownable.sol\";\nimport \"@openzeppelin/contracts8/token/ERC20/IERC20.sol\";\n\nimport \"./interfaces/IScoreReader.sol\";\n\nimport \"../../contracts/common/interfaces/IAccounts.sol\";\nimport \"../../contracts/common/interfaces/IEpochManager.sol\";\nimport \"../../contracts/common/interfaces/IFeeCurrencyWhitelist.sol\";\nimport \"../../contracts/common/interfaces/IFreezer.sol\";\nimport \"../../contracts/common/interfaces/IRegistry.sol\";\nimport \"../../contracts/common/interfaces/ICeloUnreleasedTreasury.sol\";\n\nimport \"../../contracts/governance/interfaces/IElection.sol\";\nimport \"../../contracts/governance/interfaces/IEpochRewards.sol\";\nimport \"../../contracts/governance/interfaces/IGovernance.sol\";\nimport \"../../contracts/governance/interfaces/ILockedGold.sol\";\nimport \"../../contracts/governance/interfaces/ILockedCelo.sol\";\nimport \"../../contracts/governance/interfaces/IValidators.sol\";\n\nimport \"../../contracts/identity/interfaces/IRandom.sol\";\nimport \"../../contracts/identity/interfaces/IAttestations.sol\";\nimport \"../../contracts/identity/interfaces/IFederatedAttestations.sol\";\n\n// import \"../../lib/mento-core/contracts/interfaces/IExchange.sol\";\n// import \"../../lib/mento-core/contracts/interfaces/IReserve.sol\";\n// import \"../../lib/mento-core/contracts/interfaces/IStableToken.sol\";\nimport \"../../contracts/stability/interfaces/ISortedOracles.sol\";\n\ncontract UsingRegistryV2NoMento {\n  address internal constant registryAddress = 0x000000000000000000000000000000000000ce10;\n  IRegistry public constant registryContract = IRegistry(registryAddress);\n\n  bytes32 internal constant ACCOUNTS_REGISTRY_ID = keccak256(abi.encodePacked(\"Accounts\"));\n  bytes32 internal constant ATTESTATIONS_REGISTRY_ID = keccak256(abi.encodePacked(\"Attestations\"));\n  bytes32 internal constant DOWNTIME_SLASHER_REGISTRY_ID =\n    keccak256(abi.encodePacked(\"DowntimeSlasher\"));\n  bytes32 internal constant DOUBLE_SIGNING_SLASHER_REGISTRY_ID =\n    keccak256(abi.encodePacked(\"DoubleSigningSlasher\"));\n  bytes32 internal constant ELECTION_REGISTRY_ID = keccak256(abi.encodePacked(\"Election\"));\n  bytes32 internal constant EXCHANGE_REGISTRY_ID = keccak256(abi.encodePacked(\"Exchange\"));\n  bytes32 internal constant EXCHANGE_EURO_REGISTRY_ID = keccak256(abi.encodePacked(\"ExchangeEUR\"));\n  bytes32 internal constant EXCHANGE_REAL_REGISTRY_ID = keccak256(abi.encodePacked(\"ExchangeBRL\"));\n\n  bytes32 internal constant FEE_CURRENCY_WHITELIST_REGISTRY_ID =\n    keccak256(abi.encodePacked(\"FeeCurrencyWhitelist\"));\n  bytes32 internal constant FEDERATED_ATTESTATIONS_REGISTRY_ID =\n    keccak256(abi.encodePacked(\"FederatedAttestations\"));\n  bytes32 internal constant FREEZER_REGISTRY_ID = keccak256(abi.encodePacked(\"Freezer\"));\n  bytes32 internal constant GOLD_TOKEN_REGISTRY_ID = keccak256(abi.encodePacked(\"GoldToken\"));\n  bytes32 internal constant GOVERNANCE_REGISTRY_ID = keccak256(abi.encodePacked(\"Governance\"));\n  bytes32 internal constant GOVERNANCE_SLASHER_REGISTRY_ID =\n    keccak256(abi.encodePacked(\"GovernanceSlasher\"));\n  bytes32 internal constant LOCKED_GOLD_REGISTRY_ID = keccak256(abi.encodePacked(\"LockedGold\"));\n  bytes32 internal constant RESERVE_REGISTRY_ID = keccak256(abi.encodePacked(\"Reserve\"));\n  bytes32 internal constant RANDOM_REGISTRY_ID = keccak256(abi.encodePacked(\"Random\"));\n  bytes32 internal constant SORTED_ORACLES_REGISTRY_ID =\n    keccak256(abi.encodePacked(\"SortedOracles\"));\n  bytes32 internal constant STABLE_TOKEN_REGISTRY_ID = keccak256(abi.encodePacked(\"StableToken\"));\n  bytes32 internal constant STABLE_EURO_TOKEN_REGISTRY_ID =\n    keccak256(abi.encodePacked(\"StableTokenEUR\"));\n  bytes32 internal constant STABLE_REAL_TOKEN_REGISTRY_ID =\n    keccak256(abi.encodePacked(\"StableTokenBRL\"));\n  bytes32 internal constant VALIDATORS_REGISTRY_ID = keccak256(abi.encodePacked(\"Validators\"));\n  bytes32 internal constant CELO_UNRELEASED_TREASURY_REGISTRY_ID =\n    keccak256(abi.encodePacked(\"CeloUnreleasedTreasury\"));\n\n  bytes32 internal constant CELO_TOKEN_REGISTRY_ID = keccak256(abi.encodePacked(\"CeloToken\"));\n  bytes32 internal constant LOCKED_CELO_REGISTRY_ID = keccak256(abi.encodePacked(\"LockedCelo\"));\n  bytes32 internal constant EPOCH_REWARDS_REGISTRY_ID = keccak256(abi.encodePacked(\"EpochRewards\"));\n  bytes32 internal constant EPOCH_MANAGER_ENABLER_REGISTRY_ID =\n    keccak256(abi.encodePacked(\"EpochManagerEnabler\"));\n  bytes32 internal constant EPOCH_MANAGER_REGISTRY_ID = keccak256(abi.encodePacked(\"EpochManager\"));\n  bytes32 internal constant SCORE_MANAGER_REGISTRY_ID = keccak256(abi.encodePacked(\"ScoreManager\"));\n\n  modifier onlyRegisteredContract(bytes32 identifierHash) {\n    require(\n      registryContract.getAddressForOrDie(identifierHash) == msg.sender,\n      \"only registered contract\"\n    );\n    _;\n  }\n\n  modifier onlyRegisteredContracts(bytes32[] memory identifierHashes) {\n    require(registryContract.isOneOf(identifierHashes, msg.sender), \"only registered contracts\");\n    _;\n  }\n\n  function getAccounts() internal view returns (IAccounts) {\n    return IAccounts(registryContract.getAddressForOrDie(ACCOUNTS_REGISTRY_ID));\n  }\n\n  function getAttestations() internal view returns (IAttestations) {\n    return IAttestations(registryContract.getAddressForOrDie(ATTESTATIONS_REGISTRY_ID));\n  }\n\n  function getElection() internal view returns (IElection) {\n    return IElection(registryContract.getAddressForOrDie(ELECTION_REGISTRY_ID));\n  }\n\n  // function getExchange() internal view returns (IExchange) {\n  //   return IExchange(registryContract.getAddressForOrDie(EXCHANGE_REGISTRY_ID));\n  // }\n\n  // function getExchangeDollar() internal view returns (IExchange) {\n  //   return getExchange();\n  // }\n\n  // function getExchangeEuro() internal view returns (IExchange) {\n  //   return IExchange(registryContract.getAddressForOrDie(EXCHANGE_EURO_REGISTRY_ID));\n  // }\n\n  // function getExchangeREAL() internal view returns (IExchange) {\n  //   return IExchange(registryContract.getAddressForOrDie(EXCHANGE_REAL_REGISTRY_ID));\n  // }\n\n  function getFeeCurrencyWhitelistRegistry() internal view returns (IFeeCurrencyWhitelist) {\n    return\n      IFeeCurrencyWhitelist(\n        registryContract.getAddressForOrDie(FEE_CURRENCY_WHITELIST_REGISTRY_ID)\n      );\n  }\n\n  function getFederatedAttestations() internal view returns (IFederatedAttestations) {\n    return\n      IFederatedAttestations(\n        registryContract.getAddressForOrDie(FEDERATED_ATTESTATIONS_REGISTRY_ID)\n      );\n  }\n\n  function getFreezer() internal view returns (IFreezer) {\n    return IFreezer(registryContract.getAddressForOrDie(FREEZER_REGISTRY_ID));\n  }\n\n  function getGoldToken() internal view returns (IERC20) {\n    return IERC20(registryContract.getAddressForOrDie(GOLD_TOKEN_REGISTRY_ID));\n  }\n\n  function getCeloToken() internal view returns (IERC20) {\n    return IERC20(registryContract.getAddressForOrDie(CELO_TOKEN_REGISTRY_ID));\n  }\n\n  function getGovernance() internal view returns (IGovernance) {\n    return IGovernance(registryContract.getAddressForOrDie(GOVERNANCE_REGISTRY_ID));\n  }\n\n  function getLockedGold() internal view returns (ILockedGold) {\n    return ILockedGold(registryContract.getAddressForOrDie(LOCKED_GOLD_REGISTRY_ID));\n  }\n\n  function getLockedCelo() internal view returns (ILockedCelo) {\n    return ILockedCelo(registryContract.getAddressForOrDie(LOCKED_CELO_REGISTRY_ID));\n  }\n\n  function getRandom() internal view returns (IRandom) {\n    return IRandom(registryContract.getAddressForOrDie(RANDOM_REGISTRY_ID));\n  }\n\n  // function getReserve() internal view returns (IReserve) {\n  //   return IReserve(registryContract.getAddressForOrDie(RESERVE_REGISTRY_ID));\n  // }\n\n  function getSortedOracles() internal view returns (ISortedOracles) {\n    return ISortedOracles(registryContract.getAddressForOrDie(SORTED_ORACLES_REGISTRY_ID));\n  }\n\n  // function getStableToken() internal view returns (IStableToken) {\n  //   return IStableToken(registryContract.getAddressForOrDie(STABLE_TOKEN_REGISTRY_ID));\n  // }\n\n  // function getStableDollarToken() internal view returns (IStableToken) {\n  //   return getStableToken();\n  // }\n\n  // function getStableEuroToken() internal view returns (IStableToken) {\n  //   return IStableToken(registryContract.getAddressForOrDie(STABLE_EURO_TOKEN_REGISTRY_ID));\n  // }\n\n  // function getStableRealToken() internal view returns (IStableToken) {\n  //   return IStableToken(registryContract.getAddressForOrDie(STABLE_REAL_TOKEN_REGISTRY_ID));\n  // }\n\n  function getValidators() internal view returns (IValidators) {\n    return IValidators(registryContract.getAddressForOrDie(VALIDATORS_REGISTRY_ID));\n  }\n\n  function getCeloUnreleasedTreasury() internal view returns (ICeloUnreleasedTreasury) {\n    return\n      ICeloUnreleasedTreasury(\n        registryContract.getAddressForOrDie(CELO_UNRELEASED_TREASURY_REGISTRY_ID)\n      );\n  }\n\n  function getEpochRewards() internal view returns (IEpochRewards) {\n    return IEpochRewards(registryContract.getAddressForOrDie(EPOCH_REWARDS_REGISTRY_ID));\n  }\n\n  function getEpochManager() internal view returns (IEpochManager) {\n    return IEpochManager(registryContract.getAddressForOrDie(EPOCH_MANAGER_REGISTRY_ID));\n  }\n\n  function getScoreReader() internal view returns (IScoreReader) {\n    return IScoreReader(registryContract.getAddressForOrDie(SCORE_MANAGER_REGISTRY_ID));\n  }\n}\n",
  "sourcePath": "/Users/beaver/Development/temp/celo-monorepo/packages/protocol/contracts-0.8/common/UsingRegistryV2NoMento.sol",
  "compiler": {
    "name": "solc",
    "version": "0.8.19+commit.7dd6d404.Emscripten.clang"
  },
  "schemaVersion": "3.4.13",
  "updatedAt": "2025-05-05T17:49:34.160Z",
  "devdoc": {
    "kind": "dev",
    "methods": {},
    "version": 1
  },
  "userdoc": {
    "kind": "user",
    "methods": {},
    "version": 1
  }
}