{
  "contractName": "AddressSortedLinkedListWithMedianMock",
  "abi": [
    {
      "constant": false,
      "inputs": [
        {
          "internalType": "address",
          "name": "key",
          "type": "address"
        },
        {
          "internalType": "uint256",
          "name": "numerator",
          "type": "uint256"
        },
        {
          "internalType": "address",
          "name": "lesserKey",
          "type": "address"
        },
        {
          "internalType": "address",
          "name": "greaterKey",
          "type": "address"
        }
      ],
      "name": "insert",
      "outputs": [],
      "payable": false,
      "stateMutability": "nonpayable",
      "type": "function"
    },
    {
      "constant": false,
      "inputs": [
        {
          "internalType": "address",
          "name": "key",
          "type": "address"
        },
        {
          "internalType": "uint256",
          "name": "numerator",
          "type": "uint256"
        },
        {
          "internalType": "address",
          "name": "lesserKey",
          "type": "address"
        },
        {
          "internalType": "address",
          "name": "greaterKey",
          "type": "address"
        }
      ],
      "name": "update",
      "outputs": [],
      "payable": false,
      "stateMutability": "nonpayable",
      "type": "function"
    },
    {
      "constant": false,
      "inputs": [
        {
          "internalType": "address",
          "name": "key",
          "type": "address"
        }
      ],
      "name": "remove",
      "outputs": [],
      "payable": false,
      "stateMutability": "nonpayable",
      "type": "function"
    },
    {
      "constant": true,
      "inputs": [
        {
          "internalType": "address",
          "name": "key",
          "type": "address"
        }
      ],
      "name": "contains",
      "outputs": [
        {
          "internalType": "bool",
          "name": "",
          "type": "bool"
        }
      ],
      "payable": false,
      "stateMutability": "view",
      "type": "function"
    },
    {
      "constant": true,
      "inputs": [],
      "name": "getNumElements",
      "outputs": [
        {
          "internalType": "uint256",
          "name": "",
          "type": "uint256"
        }
      ],
      "payable": false,
      "stateMutability": "view",
      "type": "function"
    },
    {
      "constant": true,
      "inputs": [],
      "name": "getElements",
      "outputs": [
        {
          "internalType": "address[]",
          "name": "",
          "type": "address[]"
        },
        {
          "internalType": "uint256[]",
          "name": "",
          "type": "uint256[]"
        },
        {
          "internalType": "enum SortedLinkedListWithMedian.MedianRelation[]",
          "name": "",
          "type": "uint8[]"
        }
      ],
      "payable": false,
      "stateMutability": "view",
      "type": "function"
    },
    {
      "constant": true,
      "inputs": [],
      "name": "head",
      "outputs": [
        {
          "internalType": "address",
          "name": "",
          "type": "address"
        }
      ],
      "payable": false,
      "stateMutability": "view",
      "type": "function"
    },
    {
      "constant": true,
      "inputs": [],
      "name": "tail",
      "outputs": [
        {
          "internalType": "address",
          "name": "",
          "type": "address"
        }
      ],
      "payable": false,
      "stateMutability": "view",
      "type": "function"
    },
    {
      "constant": true,
      "inputs": [],
      "name": "medianKey",
      "outputs": [
        {
          "internalType": "address",
          "name": "",
          "type": "address"
        }
      ],
      "payable": false,
      "stateMutability": "view",
      "type": "function"
    }
  ],
  "bytecode": "0x608060405234801561001057600080fd5b50610caf806100206000396000f3fe608060405234801561001057600080fd5b50600436106100935760003560e01c80635f167276116100665780635f1672761461021057806364163ad11461022e5780638f7dcfa3146102bc57806391d35ad714610306578063b1a18cc71461035057610093565b806313d8c8401461009857806329092d0e146100e257806346f7cf87146101265780635dbe47e8146101b4575b600080fd5b6100a061043f565b604051808273ffffffffffffffffffffffffffffffffffffffff1673ffffffffffffffffffffffffffffffffffffffff16815260200191505060405180910390f35b610124600480360360208110156100f857600080fd5b81019080803573ffffffffffffffffffffffffffffffffffffffff1690602001909291905050506104d2565b005b6101b26004803603608081101561013c57600080fd5b81019080803573ffffffffffffffffffffffffffffffffffffffff16906020019092919080359060200190929190803573ffffffffffffffffffffffffffffffffffffffff169060200190929190803573ffffffffffffffffffffffffffffffffffffffff169060200190929190505050610573565b005b6101f6600480360360208110156101ca57600080fd5b81019080803573ffffffffffffffffffffffffffffffffffffffff169060200190929190505050610687565b604051808215151515815260200191505060405180910390f35b610218610750565b6040518082815260200191505060405180910390f35b6102ba6004803603608081101561024457600080fd5b81019080803573ffffffffffffffffffffffffffffffffffffffff16906020019092919080359060200190929190803573ffffffffffffffffffffffffffffffffffffffff169060200190929190803573ffffffffffffffffffffffffffffffffffffffff1690602001909291905050506107e3565b005b6102c46108f7565b604051808273ffffffffffffffffffffffffffffffffffffffff1673ffffffffffffffffffffffffffffffffffffffff16815260200191505060405180910390f35b61030e61098a565b604051808273ffffffffffffffffffffffffffffffffffffffff1673ffffffffffffffffffffffffffffffffffffffff16815260200191505060405180910390f35b610358610a1d565b60405180806020018060200180602001848103845287818151815260200191508051906020019060200280838360005b838110156103a3578082015181840152602081019050610388565b50505050905001848103835286818151815260200191508051906020019060200280838360005b838110156103e55780820151818401526020810190506103ca565b50505050905001848103825285818151815260200191508051906020019060200280838360005b8381101561042757808201518184015260208101905061040c565b50505050905001965050505050505060405180910390f35b60008073__AddressSortedLinkedListWithMedian_____63d938ec7b90916040518263ffffffff1660e01b81526004018082815260200191505060206040518083038186803b15801561049257600080fd5b505af41580156104a6573d6000803e3d6000fd5b505050506040513d60208110156104bc57600080fd5b8101908080519060200190929190505050905090565b600073__AddressSortedLinkedListWithMedian_____63c1e728e99091836040518363ffffffff1660e01b8152600401808381526020018273ffffffffffffffffffffffffffffffffffffffff1673ffffffffffffffffffffffffffffffffffffffff1681526020019250505060006040518083038186803b15801561055857600080fd5b505af415801561056c573d6000803e3d6000fd5b5050505050565b600073__AddressSortedLinkedListWithMedian_____63d4a092729091868686866040518663ffffffff1660e01b8152600401808681526020018573ffffffffffffffffffffffffffffffffffffffff1673ffffffffffffffffffffffffffffffffffffffff1681526020018481526020018373ffffffffffffffffffffffffffffffffffffffff1673ffffffffffffffffffffffffffffffffffffffff1681526020018273ffffffffffffffffffffffffffffffffffffffff1673ffffffffffffffffffffffffffffffffffffffff1681526020019550505050505060006040518083038186803b15801561066957600080fd5b505af415801561067d573d6000803e3d6000fd5b5050505050505050565b60008073__AddressSortedLinkedListWithMedian_____6395073a799091846040518363ffffffff1660e01b8152600401808381526020018273ffffffffffffffffffffffffffffffffffffffff1673ffffffffffffffffffffffffffffffffffffffff1681526020019250505060206040518083038186803b15801561070e57600080fd5b505af4158015610722573d6000803e3d6000fd5b505050506040513d602081101561073857600080fd5b81019080805190602001909291905050509050919050565b60008073__AddressSortedLinkedListWithMedian_____636eafa6c390916040518263ffffffff1660e01b81526004018082815260200191505060206040518083038186803b1580156107a357600080fd5b505af41580156107b7573d6000803e3d6000fd5b505050506040513d60208110156107cd57600080fd5b8101908080519060200190929190505050905090565b600073__AddressSortedLinkedListWithMedian_____63832a21479091868686866040518663ffffffff1660e01b8152600401808681526020018573ffffffffffffffffffffffffffffffffffffffff1673ffffffffffffffffffffffffffffffffffffffff1681526020018481526020018373ffffffffffffffffffffffffffffffffffffffff1673ffffffffffffffffffffffffffffffffffffffff1681526020018273ffffffffffffffffffffffffffffffffffffffff1673ffffffffffffffffffffffffffffffffffffffff1681526020019550505050505060006040518083038186803b1580156108d957600080fd5b505af41580156108ed573d6000803e3d6000fd5b5050505050505050565b60008073__AddressSortedLinkedListWithMedian_____630944c59490916040518263ffffffff1660e01b81526004018082815260200191505060206040518083038186803b15801561094a57600080fd5b505af415801561095e573d6000803e3d6000fd5b505050506040513d602081101561097457600080fd5b8101908080519060200190929190505050905090565b60008073__AddressSortedLinkedListWithMedian_____633118159e90916040518263ffffffff1660e01b81526004018082815260200191505060206040518083038186803b1580156109dd57600080fd5b505af41580156109f1573d6000803e3d6000fd5b505050506040513d6020811015610a0757600080fd5b8101908080519060200190929190505050905090565b6060806060600073__AddressSortedLinkedListWithMedian_____636cfa387390916040518263ffffffff1660e01b81526004018082815260200191505060006040518083038186803b158015610a7457600080fd5b505af4158015610a88573d6000803e3d6000fd5b505050506040513d6000823e3d601f19601f820116820180604052506060811015610ab257600080fd5b8101908080516040519392919084640100000000821115610ad257600080fd5b83820191506020820185811115610ae857600080fd5b8251866020820283011164010000000082111715610b0557600080fd5b8083526020830192505050908051906020019060200280838360005b83811015610b3c578082015181840152602081019050610b21565b5050505090500160405260200180516040519392919084640100000000821115610b6557600080fd5b83820191506020820185811115610b7b57600080fd5b8251866020820283011164010000000082111715610b9857600080fd5b8083526020830192505050908051906020019060200280838360005b83811015610bcf578082015181840152602081019050610bb4565b5050505090500160405260200180516040519392919084640100000000821115610bf857600080fd5b83820191506020820185811115610c0e57600080fd5b8251866020820283011164010000000082111715610c2b57600080fd5b8083526020830192505050908051906020019060200280838360005b83811015610c62578082015181840152602081019050610c47565b5050505090500160405250505092509250925090919256fea265627a7a72315820d549cc5e4bea92278a833248f07f7c06b7e65784a0abc06b531cbfb297f852fa64736f6c634300050d0032",
  "source": "pragma solidity ^0.5.13;\n\nimport \"../linkedlists/AddressSortedLinkedListWithMedian.sol\";\nimport \"../linkedlists/SortedLinkedListWithMedian.sol\";\n\ncontract AddressSortedLinkedListWithMedianMock {\n  using AddressSortedLinkedListWithMedian for SortedLinkedListWithMedian.List;\n\n  SortedLinkedListWithMedian.List private list;\n\n  function insert(address key, uint256 numerator, address lesserKey, address greaterKey) external {\n    list.insert(key, numerator, lesserKey, greaterKey);\n  }\n\n  function update(address key, uint256 numerator, address lesserKey, address greaterKey) external {\n    list.update(key, numerator, lesserKey, greaterKey);\n  }\n\n  function remove(address key) external {\n    list.remove(key);\n  }\n\n  function contains(address key) external view returns (bool) {\n    return list.contains(key);\n  }\n\n  function getNumElements() external view returns (uint256) {\n    return list.getNumElements();\n  }\n\n  function getElements()\n    external\n    view\n    returns (address[] memory, uint256[] memory, SortedLinkedListWithMedian.MedianRelation[] memory)\n  {\n    return list.getElements();\n  }\n\n  function head() external view returns (address) {\n    return list.getHead();\n  }\n\n  function tail() external view returns (address) {\n    return list.getTail();\n  }\n\n  function medianKey() external view returns (address) {\n    return list.getMedian();\n  }\n}\n",
  "sourcePath": "/Users/beaver/Development/temp/celo-monorepo/packages/protocol/contracts/common/test/AddressSortedLinkedListWithMedianMock.sol",
  "compiler": {
    "name": "solc",
    "version": "0.5.13+commit.5b0b510c.Emscripten.clang"
  },
  "schemaVersion": "3.4.13",
  "updatedAt": "2025-05-05T17:49:51.316Z",
  "devdoc": {
    "methods": {}
  },
  "userdoc": {
    "methods": {}
  }
}