{
  "contractName": "AddressSortedLinkedList",
  "abi": [
    {
      "constant": true,
      "inputs": [
        {
          "internalType": "address",
          "name": "a",
          "type": "address"
        }
      ],
      "name": "toBytes",
      "outputs": [
        {
          "internalType": "bytes32",
          "name": "",
          "type": "bytes32"
        }
      ],
      "payable": false,
      "stateMutability": "pure",
      "type": "function"
    },
    {
      "constant": true,
      "inputs": [
        {
          "internalType": "bytes32",
          "name": "b",
          "type": "bytes32"
        }
      ],
      "name": "toAddress",
      "outputs": [
        {
          "internalType": "address",
          "name": "",
          "type": "address"
        }
      ],
      "payable": false,
      "stateMutability": "pure",
      "type": "function"
    }
  ],
  "bytecode": "0x611bce610026600b82828239805160001a60731461001957fe5b30600052607381538281f3fe73000000000000000000000000000000000000000030146080604052600436106100b35760003560e01c806342b6351a1161007b57806342b6351a1461030f578063593b79fe1461036557806369b317e3146103bd578063cab455ae14610488578063dcb2a4dd1461052d578063e0fe44b3146105ba576100b3565b806302f13028146100b8578063281359291461011e5780632dedbbf014610179578063341f66231461021e5780633a72e8021461028c575b600080fd5b610104600480360360408110156100ce57600080fd5b8101908080359060200190929190803573ffffffffffffffffffffffffffffffffffffffff16906020019092919050505061061c565b604051808215151515815260200191505060405180910390f35b81801561012a57600080fd5b506101776004803603604081101561014157600080fd5b8101908080359060200190929190803573ffffffffffffffffffffffffffffffffffffffff169060200190929190505050610641565b005b81801561018557600080fd5b5061021c600480360360a081101561019c57600080fd5b8101908080359060200190929190803573ffffffffffffffffffffffffffffffffffffffff16906020019092919080359060200190929190803573ffffffffffffffffffffffffffffffffffffffff169060200190929190803573ffffffffffffffffffffffffffffffffffffffff169060200190929190505050610660565b005b61024a6004803603602081101561023457600080fd5b8101908080359060200190929190505050610698565b604051808273ffffffffffffffffffffffffffffffffffffffff1673ffffffffffffffffffffffffffffffffffffffff16815260200191505060405180910390f35b6102b8600480360360208110156102a257600080fd5b81019080803590602001909291905050506106a9565b6040518080602001828103825283818151815260200191508051906020019060200280838360005b838110156102fb5780820151818401526020810190506102e0565b505050509050019250505060405180910390f35b61034f6004803603606081101561032557600080fd5b810190808035906020019092919080359060200190929190803590602001909291905050506106c3565b6040518082815260200191505060405180910390f35b6103a76004803603602081101561037b57600080fd5b81019080803573ffffffffffffffffffffffffffffffffffffffff16906020019092919050505061075f565b6040518082815260200191505060405180910390f35b6103e9600480360360208110156103d357600080fd5b8101908080359060200190929190505050610786565b604051808060200180602001838103835285818151815260200191508051906020019060200280838360005b83811015610430578082015181840152602081019050610415565b50505050905001838103825284818151815260200191508051906020019060200280838360005b83811015610472578082015181840152602081019050610457565b5050505090500194505050505060405180910390f35b81801561049457600080fd5b5061052b600480360360a08110156104ab57600080fd5b8101908080359060200190929190803573ffffffffffffffffffffffffffffffffffffffff16906020019092919080359060200190929190803573ffffffffffffffffffffffffffffffffffffffff169060200190929190803573ffffffffffffffffffffffffffffffffffffffff1690602001909291905050506108dc565b005b6105636004803603604081101561054357600080fd5b810190808035906020019092919080359060200190929190505050610914565b6040518080602001828103825283818151815260200191508051906020019060200280838360005b838110156105a657808201518184015260208101905061058b565b505050509050019250505060405180910390f35b610606600480360360408110156105d057600080fd5b8101908080359060200190929190803573ffffffffffffffffffffffffffffffffffffffff1690602001909291905050506109f7565b6040518082815260200191505060405180910390f35b600061063961062a8361075f565b84610a1c90919063ffffffff16565b905092915050565b61065c61064d8261075f565b83610a3c90919063ffffffff16565b5050565b61069161066c8561075f565b846106768561075f565b61067f8561075f565b89610a7190949392919063ffffffff16565b5050505050565b600060608260001c901c9050919050565b60606106bc828360000160020154610914565b9050919050565b6000806106d7838660000160020154610d0f565b905060008560000160000154905060008090505b8281101561075157856107078389610d2890919063ffffffff16565b101561071857809350505050610758565b86600001600301600083815260200190815260200160002060000154915061074a600182610d4890919063ffffffff16565b90506106eb565b5081925050505b9392505050565b600060608273ffffffffffffffffffffffffffffffffffffffff16901b60001b9050919050565b606080606061079484610dd0565b9050606081516040519080825280602002602001820160405280156107c85781602001602082028038833980820191505090505b509050606082516040519080825280602002602001820160405280156107fd5781602001602082028038833980820191505090505b50905060008090505b83518110156108cd5761082b84828151811061081e57fe5b6020026020010151610698565b83828151811061083757fe5b602002602001019073ffffffffffffffffffffffffffffffffffffffff16908173ffffffffffffffffffffffffffffffffffffffff168152505086600401600085838151811061088357fe5b60200260200101518152602001908152602001600020548282815181106108a657fe5b6020026020010181815250506108c6600182610d4890919063ffffffff16565b9050610806565b50818194509450505050915091565b61090d6108e88561075f565b846108f28561075f565b6108fb8561075f565b89610de590949392919063ffffffff16565b5050505050565b60608061092a838561101c90919063ffffffff16565b905060608360405190808252806020026020018201604052801561095d5781602001602082028038833980820191505090505b50905060008090505b848110156109eb5761098a83828151811061097d57fe5b6020026020010151610698565b82828151811061099657fe5b602002602001019073ffffffffffffffffffffffffffffffffffffffff16908173ffffffffffffffffffffffffffffffffffffffff16815250506109e4600182610d4890919063ffffffff16565b9050610966565b50809250505092915050565b6000610a14610a058361075f565b84610d2890919063ffffffff16565b905092915050565b6000610a34828460000161103c90919063ffffffff16565b905092915050565b610a52818360000161106c90919063ffffffff16565b6000826004016000838152602001908152602001600020819055505050565b6000801b8414158015610a845750818414155b8015610a905750808414155b8015610aa35750610aa18585610a1c565b155b610b15576040517f08c379a000000000000000000000000000000000000000000000000000000000815260040180806020018281038252600b8152602001807f696e76616c6964206b657900000000000000000000000000000000000000000081525060200191505060405180910390fd5b6000801b82141580610b2a57506000801b8114155b80610b3c575060008560000160020154145b610bae576040517f08c379a000000000000000000000000000000000000000000000000000000000815260040180806020018281038252601b8152602001807f6772656174657220616e64206c6573736572206b6579207a65726f000000000081525060200191505060405180910390fd5b610bb88583610a1c565b80610bc557506000801b82145b610c37576040517f08c379a00000000000000000000000000000000000000000000000000000000081526004018080602001828103825260128152602001807f696e76616c6964206c6573736572206b6579000000000000000000000000000081525060200191505060405180910390fd5b610c418582610a1c565b80610c4e57506000801b81145b610cc0576040517f08c379a00000000000000000000000000000000000000000000000000000000081526004018080602001828103825260138152602001807f696e76616c69642067726561746572206b65790000000000000000000000000081525060200191505060405180910390fd5b610ccc85848484611209565b8092508193505050610cee848383886000016113bc909392919063ffffffff16565b82856004016000868152602001908152602001600020819055505050505050565b6000818310610d1e5781610d20565b825b905092915050565b600082600401600083815260200190815260200160002054905092915050565b600080828401905083811015610dc6576040517f08c379a000000000000000000000000000000000000000000000000000000000815260040180806020018281038252601b8152602001807f536166654d6174683a206164646974696f6e206f766572666c6f77000000000081525060200191505060405180910390fd5b8091505092915050565b6060610dde82600001611803565b9050919050565b610def8585610a1c565b610e61576040517f08c379a000000000000000000000000000000000000000000000000000000000815260040180806020018281038252600f8152602001807f6b6579206e6f7420696e206c697374000000000000000000000000000000000081525060200191505060405180910390fd5b6000801b8414158015610e745750818414155b8015610e805750808414155b610ef2576040517f08c379a000000000000000000000000000000000000000000000000000000000815260040180806020018281038252600b8152602001807f696e76616c6964206b657900000000000000000000000000000000000000000081525060200191505060405180910390fd5b6000801b82141580610f0757506000801b8114155b80610f19575060018560000160020154145b610f8b576040517f08c379a000000000000000000000000000000000000000000000000000000000815260040180806020018281038252601b8152602001807f6772656174657220616e64206c6573736572206b6579207a65726f000000000081525060200191505060405180910390fd5b60008560000160030160008681526020019081526020016000206000015490506000866000016003016000878152602001908152602001600020600101549050610fd78786848461181a565b15610ffb578487600401600088815260200190815260200160002081905550611013565b6110058787610a3c565b6110128787878787610a71565b5b50505050505050565b6060611034828460000161188590919063ffffffff16565b905092915050565b600082600301600083815260200190815260200160002060020160009054906101000a900460ff16905092915050565b600082600301600083815260200190815260200160002090506000801b821415801561109e575061109d838361103c565b5b611110576040517f08c379a000000000000000000000000000000000000000000000000000000000815260040180806020018281038252600f8152602001807f6b6579206e6f7420696e206c697374000000000000000000000000000000000081525060200191505060405180910390fd5b6000801b81600001541461114e576000836003016000836000015481526020019081526020016000209050816001015481600101819055505061115c565b806001015483600101819055505b6000801b81600101541461119a57600083600301600083600101548152602001908152602001600020905081600001548160000181905550506111a8565b806000015483600001819055505b82600301600083815260200190815260200160002060008082016000905560018201600090556002820160006101000a81549060ff021916905550506111fc600184600201546119a790919063ffffffff16565b8360020181905550505050565b6000806000801b8414801561122d575061122c868686896000016001015461181a565b5b1561124457838660000160010154915091506113b3565b6000801b831480156112655750611264868688600001600001548661181a565b5b1561127c57856000016000015483915091506113b3565b6000801b84141580156112b257506112b18686868960000160030160008981526020019081526020016000206001015461181a565b5b156112dd578386600001600301600086815260200190815260200160002060010154915091506113b3565b6000801b831415801561131357506113128686886000016003016000878152602001908152602001600020600001548661181a565b5b1561133e578560000160030160008481526020019081526020016000206000015483915091506113b3565b60006113b2576040517f08c379a000000000000000000000000000000000000000000000000000000000815260040180806020018281038252601e8152602001807f676574206c657373657220616e642067726561746572206661696c757265000081525060200191505060405180910390fd5b5b94509492505050565b6000801b831415611435576040517f08c379a00000000000000000000000000000000000000000000000000000000081526004018080602001828103825260138152602001807f4b6579206d75737420626520646566696e65640000000000000000000000000081525060200191505060405180910390fd5b61143f848461103c565b156114b2576040517f08c379a00000000000000000000000000000000000000000000000000000000081526004018080602001828103825260208152602001807f43616e277420696e7365727420616e206578697374696e6720656c656d656e7481525060200191505060405180910390fd5b8282141580156114c25750828114155b611517576040517f08c379a0000000000000000000000000000000000000000000000000000000008152600401808060200182810382526030815260200180611ab26030913960400191505060405180910390fd5b6000846003016000858152602001908152602001600020905060018160020160006101000a81548160ff021916908315150217905550600085600201541415611571578385600101819055508385600001819055506117dc565b6000801b8314158061158657506000801b8214155b6115db576040517f08c379a000000000000000000000000000000000000000000000000000000000815260040180806020018281038252602d815260200180611b6d602d913960400191505060405180910390fd5b8281600001819055508181600101819055506000801b83146116da57611601858461103c565b611656576040517f08c379a0000000000000000000000000000000000000000000000000000000008152600401808060200182810382526034815260200180611b096034913960400191505060405180910390fd5b60008560030160008581526020019081526020016000209050828160010154146116cb576040517f08c379a0000000000000000000000000000000000000000000000000000000008152600401808060200182810382526027815260200180611ae26027913960400191505060405180910390fd5b848160010181905550506116e4565b8385600101819055505b6000801b82146117d1576116f8858361103c565b61174d576040517f08c379a0000000000000000000000000000000000000000000000000000000008152600401808060200182810382526030815260200180611b3d6030913960400191505060405180910390fd5b60008560030160008481526020019081526020016000209050838160000154146117c2576040517f08c379a0000000000000000000000000000000000000000000000000000000008152600401808060200182810382526027815260200180611ae26027913960400191505060405180910390fd5b848160000181905550506117db565b8385600001819055505b5b6117f460018660020154610d4890919063ffffffff16565b85600201819055505050505050565b6060611813828360020154611885565b9050919050565b6000806000801b8414806118435750848660040160008681526020019081526020016000205411155b905060008060001b84148061186d5750858760040160008681526020019081526020016000205410155b90508180156118795750805b92505050949350505050565b60608260020154821115611901576040517f08c379a00000000000000000000000000000000000000000000000000000000081526004018080602001828103825260138152602001807f6e6f7420656e6f75676820656c656d656e74730000000000000000000000000081525060200191505060405180910390fd5b6060826040519080825280602002602001820160405280156119325781602001602082028038833980820191505090505b50905060008460000154905060008090505b8481101561199b578183828151811061195957fe5b602002602001018181525050856003016000838152602001908152602001600020600001549150611994600182610d4890919063ffffffff16565b9050611944565b50819250505092915050565b60006119e983836040518060400160405280601e81526020017f536166654d6174683a207375627472616374696f6e206f766572666c6f7700008152506119f1565b905092915050565b6000838311158290611a9e576040517f08c379a00000000000000000000000000000000000000000000000000000000081526004018080602001828103825283818151815260200191508051906020019080838360005b83811015611a63578082015181840152602081019050611a48565b50505050905090810190601f168015611a905780820380516001836020036101000a031916815260200191505b509250505060405180910390fd5b506000838503905080915050939250505056fe4b65792063616e6e6f74206265207468652073616d652061732070726576696f75734b6579206f72206e6578744b657970726576696f75734b6579206d7573742062652061646a6163656e7420746f206e6578744b657949662070726576696f75734b657920697320646566696e65642c206974206d75737420657869737420696e20746865206c6973744966206e6578744b657920697320646566696e65642c206974206d75737420657869737420696e20746865206c6973744569746865722070726576696f75734b6579206f72206e6578744b6579206d75737420626520646566696e6564a265627a7a723158200a11a1a62ce01eac9be895333442354c58615aad15a1e67cedd66025795898c964736f6c634300050d0032",
  "source": "pragma solidity ^0.5.13;\n\nimport \"openzeppelin-solidity/contracts/math/Math.sol\";\nimport \"openzeppelin-solidity/contracts/math/SafeMath.sol\";\n\nimport \"./SortedLinkedList.sol\";\n\n/**\n * @title Maintains a sorted list of unsigned ints keyed by address.\n */\nlibrary AddressSortedLinkedList {\n  using SafeMath for uint256;\n  using SortedLinkedList for SortedLinkedList.List;\n\n  /**\n   * @notice Inserts an element into a doubly linked list.\n   * @param list A storage pointer to the underlying list.\n   * @param key The key of the element to insert.\n   * @param value The element value.\n   * @param lesserKey The key of the element less than the element to insert.\n   * @param greaterKey The key of the element greater than the element to insert.\n   */\n  function insert(\n    SortedLinkedList.List storage list,\n    address key,\n    uint256 value,\n    address lesserKey,\n    address greaterKey\n  ) public {\n    list.insert(toBytes(key), value, toBytes(lesserKey), toBytes(greaterKey));\n  }\n\n  /**\n   * @notice Removes an element from the doubly linked list.\n   * @param list A storage pointer to the underlying list.\n   * @param key The key of the element to remove.\n   */\n  function remove(SortedLinkedList.List storage list, address key) public {\n    list.remove(toBytes(key));\n  }\n\n  /**\n   * @notice Updates an element in the list.\n   * @param list A storage pointer to the underlying list.\n   * @param key The element key.\n   * @param value The element value.\n   * @param lesserKey The key of the element will be just left of `key` after the update.\n   * @param greaterKey The key of the element will be just right of `key` after the update.\n   * @dev Note that only one of \"lesserKey\" or \"greaterKey\" needs to be correct to reduce friction.\n   */\n  function update(\n    SortedLinkedList.List storage list,\n    address key,\n    uint256 value,\n    address lesserKey,\n    address greaterKey\n  ) public {\n    list.update(toBytes(key), value, toBytes(lesserKey), toBytes(greaterKey));\n  }\n\n  /**\n   * @notice Returns whether or not a particular key is present in the sorted list.\n   * @param list A storage pointer to the underlying list.\n   * @param key The element key.\n   * @return Whether or not the key is in the sorted list.\n   */\n  function contains(SortedLinkedList.List storage list, address key) public view returns (bool) {\n    return list.contains(toBytes(key));\n  }\n\n  /**\n   * @notice Returns the value for a particular key in the sorted list.\n   * @param list A storage pointer to the underlying list.\n   * @param key The element key.\n   * @return The element value.\n   */\n  function getValue(SortedLinkedList.List storage list, address key) public view returns (uint256) {\n    return list.getValue(toBytes(key));\n  }\n\n  /**\n   * @notice Gets all elements from the doubly linked list.\n   * @return Array of all keys in the list.\n   * @return Values corresponding to keys, which will be ordered largest to smallest.\n   */\n  function getElements(\n    SortedLinkedList.List storage list\n  ) public view returns (address[] memory, uint256[] memory) {\n    bytes32[] memory byteKeys = list.getKeys();\n    address[] memory keys = new address[](byteKeys.length);\n    uint256[] memory values = new uint256[](byteKeys.length);\n    for (uint256 i = 0; i < byteKeys.length; i = i.add(1)) {\n      keys[i] = toAddress(byteKeys[i]);\n      values[i] = list.values[byteKeys[i]];\n    }\n    return (keys, values);\n  }\n\n  /**\n   * @notice Returns the minimum of `max` and the  number of elements in the list > threshold.\n   * @param list A storage pointer to the underlying list.\n   * @param threshold The number that the element must exceed to be included.\n   * @param max The maximum number returned by this function.\n   * @return The minimum of `max` and the  number of elements in the list > threshold.\n   */\n  function numElementsGreaterThan(\n    SortedLinkedList.List storage list,\n    uint256 threshold,\n    uint256 max\n  ) public view returns (uint256) {\n    uint256 revisedMax = Math.min(max, list.list.numElements);\n    bytes32 key = list.list.head;\n    for (uint256 i = 0; i < revisedMax; i = i.add(1)) {\n      if (list.getValue(key) < threshold) {\n        return i;\n      }\n      key = list.list.elements[key].previousKey;\n    }\n    return revisedMax;\n  }\n\n  /**\n   * @notice Returns the N greatest elements of the list.\n   * @param list A storage pointer to the underlying list.\n   * @param n The number of elements to return.\n   * @return The keys of the greatest elements.\n   */\n  function headN(\n    SortedLinkedList.List storage list,\n    uint256 n\n  ) public view returns (address[] memory) {\n    bytes32[] memory byteKeys = list.headN(n);\n    address[] memory keys = new address[](n);\n    for (uint256 i = 0; i < n; i = i.add(1)) {\n      keys[i] = toAddress(byteKeys[i]);\n    }\n    return keys;\n  }\n\n  /**\n   * @notice Gets all element keys from the doubly linked list.\n   * @param list A storage pointer to the underlying list.\n   * @return All element keys from head to tail.\n   */\n  function getKeys(SortedLinkedList.List storage list) public view returns (address[] memory) {\n    return headN(list, list.list.numElements);\n  }\n\n  function toBytes(address a) public pure returns (bytes32) {\n    return bytes32(uint256(a) << 96);\n  }\n\n  function toAddress(bytes32 b) public pure returns (address) {\n    return address(uint256(b) >> 96);\n  }\n}\n",
  "sourcePath": "/Users/beaver/Development/temp/celo-monorepo/packages/protocol/contracts/common/linkedlists/AddressSortedLinkedList.sol",
  "compiler": {
    "name": "solc",
    "version": "0.5.13+commit.5b0b510c.Emscripten.clang"
  },
  "schemaVersion": "3.4.13",
  "updatedAt": "2025-05-05T17:49:51.290Z",
  "devdoc": {
    "methods": {
      "contains(SortedLinkedList.List storage,address)": {
        "params": {
          "key": "The element key.",
          "list": "A storage pointer to the underlying list."
        },
        "return": "Whether or not the key is in the sorted list."
      },
      "getElements(SortedLinkedList.List storage)": {
        "return": "Array of all keys in the list.Values corresponding to keys, which will be ordered largest to smallest."
      },
      "getKeys(SortedLinkedList.List storage)": {
        "params": {
          "list": "A storage pointer to the underlying list."
        },
        "return": "All element keys from head to tail."
      },
      "getValue(SortedLinkedList.List storage,address)": {
        "params": {
          "key": "The element key.",
          "list": "A storage pointer to the underlying list."
        },
        "return": "The element value."
      },
      "headN(SortedLinkedList.List storage,uint256)": {
        "params": {
          "list": "A storage pointer to the underlying list.",
          "n": "The number of elements to return."
        },
        "return": "The keys of the greatest elements."
      },
      "insert(SortedLinkedList.List storage,address,uint256,address,address)": {
        "params": {
          "greaterKey": "The key of the element greater than the element to insert.",
          "key": "The key of the element to insert.",
          "lesserKey": "The key of the element less than the element to insert.",
          "list": "A storage pointer to the underlying list.",
          "value": "The element value."
        }
      },
      "numElementsGreaterThan(SortedLinkedList.List storage,uint256,uint256)": {
        "params": {
          "list": "A storage pointer to the underlying list.",
          "max": "The maximum number returned by this function.",
          "threshold": "The number that the element must exceed to be included."
        },
        "return": "The minimum of `max` and the  number of elements in the list > threshold."
      },
      "remove(SortedLinkedList.List storage,address)": {
        "params": {
          "key": "The key of the element to remove.",
          "list": "A storage pointer to the underlying list."
        }
      },
      "update(SortedLinkedList.List storage,address,uint256,address,address)": {
        "details": "Note that only one of \"lesserKey\" or \"greaterKey\" needs to be correct to reduce friction.",
        "params": {
          "greaterKey": "The key of the element will be just right of `key` after the update.",
          "key": "The element key.",
          "lesserKey": "The key of the element will be just left of `key` after the update.",
          "list": "A storage pointer to the underlying list.",
          "value": "The element value."
        }
      }
    },
    "title": "Maintains a sorted list of unsigned ints keyed by address."
  },
  "userdoc": {
    "methods": {
      "contains(SortedLinkedList.List storage,address)": {
        "notice": "Returns whether or not a particular key is present in the sorted list."
      },
      "getElements(SortedLinkedList.List storage)": {
        "notice": "Gets all elements from the doubly linked list."
      },
      "getKeys(SortedLinkedList.List storage)": {
        "notice": "Gets all element keys from the doubly linked list."
      },
      "getValue(SortedLinkedList.List storage,address)": {
        "notice": "Returns the value for a particular key in the sorted list."
      },
      "headN(SortedLinkedList.List storage,uint256)": {
        "notice": "Returns the N greatest elements of the list."
      },
      "insert(SortedLinkedList.List storage,address,uint256,address,address)": {
        "notice": "Inserts an element into a doubly linked list."
      },
      "numElementsGreaterThan(SortedLinkedList.List storage,uint256,uint256)": {
        "notice": "Returns the minimum of `max` and the  number of elements in the list > threshold."
      },
      "remove(SortedLinkedList.List storage,address)": {
        "notice": "Removes an element from the doubly linked list."
      },
      "update(SortedLinkedList.List storage,address,uint256,address,address)": {
        "notice": "Updates an element in the list."
      }
    }
  }
}