{
  "contractName": "Attestations",
  "abi": [
    {
      "inputs": [
        {
          "internalType": "bool",
          "name": "test",
          "type": "bool"
        }
      ],
      "payable": false,
      "stateMutability": "nonpayable",
      "type": "constructor"
    },
    {
      "anonymous": false,
      "inputs": [
        {
          "indexed": true,
          "internalType": "bytes32",
          "name": "identifier",
          "type": "bytes32"
        },
        {
          "indexed": true,
          "internalType": "address",
          "name": "account",
          "type": "address"
        },
        {
          "indexed": true,
          "internalType": "address",
          "name": "issuer",
          "type": "address"
        }
      ],
      "name": "AttestationCompleted",
      "type": "event"
    },
    {
      "anonymous": false,
      "inputs": [
        {
          "indexed": false,
          "internalType": "uint256",
          "name": "value",
          "type": "uint256"
        }
      ],
      "name": "AttestationExpiryBlocksSet",
      "type": "event"
    },
    {
      "anonymous": false,
      "inputs": [
        {
          "indexed": true,
          "internalType": "bytes32",
          "name": "identifier",
          "type": "bytes32"
        },
        {
          "indexed": true,
          "internalType": "address",
          "name": "account",
          "type": "address"
        },
        {
          "indexed": true,
          "internalType": "address",
          "name": "issuer",
          "type": "address"
        },
        {
          "indexed": false,
          "internalType": "address",
          "name": "attestationRequestFeeToken",
          "type": "address"
        }
      ],
      "name": "AttestationIssuerSelected",
      "type": "event"
    },
    {
      "anonymous": false,
      "inputs": [
        {
          "indexed": true,
          "internalType": "address",
          "name": "token",
          "type": "address"
        },
        {
          "indexed": false,
          "internalType": "uint256",
          "name": "value",
          "type": "uint256"
        }
      ],
      "name": "AttestationRequestFeeSet",
      "type": "event"
    },
    {
      "anonymous": false,
      "inputs": [
        {
          "indexed": true,
          "internalType": "bytes32",
          "name": "identifier",
          "type": "bytes32"
        },
        {
          "indexed": true,
          "internalType": "address",
          "name": "account",
          "type": "address"
        },
        {
          "indexed": false,
          "internalType": "uint256",
          "name": "attestationsRequested",
          "type": "uint256"
        },
        {
          "indexed": false,
          "internalType": "address",
          "name": "attestationRequestFeeToken",
          "type": "address"
        }
      ],
      "name": "AttestationsRequested",
      "type": "event"
    },
    {
      "anonymous": false,
      "inputs": [
        {
          "indexed": true,
          "internalType": "bytes32",
          "name": "identifier",
          "type": "bytes32"
        },
        {
          "indexed": true,
          "internalType": "address",
          "name": "fromAccount",
          "type": "address"
        },
        {
          "indexed": true,
          "internalType": "address",
          "name": "toAccount",
          "type": "address"
        }
      ],
      "name": "AttestationsTransferred",
      "type": "event"
    },
    {
      "anonymous": false,
      "inputs": [
        {
          "indexed": false,
          "internalType": "uint256",
          "name": "value",
          "type": "uint256"
        }
      ],
      "name": "MaxAttestationsSet",
      "type": "event"
    },
    {
      "anonymous": false,
      "inputs": [
        {
          "indexed": true,
          "internalType": "address",
          "name": "previousOwner",
          "type": "address"
        },
        {
          "indexed": true,
          "internalType": "address",
          "name": "newOwner",
          "type": "address"
        }
      ],
      "name": "OwnershipTransferred",
      "type": "event"
    },
    {
      "anonymous": false,
      "inputs": [
        {
          "indexed": true,
          "internalType": "address",
          "name": "registryAddress",
          "type": "address"
        }
      ],
      "name": "RegistrySet",
      "type": "event"
    },
    {
      "anonymous": false,
      "inputs": [
        {
          "indexed": false,
          "internalType": "uint256",
          "name": "value",
          "type": "uint256"
        }
      ],
      "name": "SelectIssuersWaitBlocksSet",
      "type": "event"
    },
    {
      "anonymous": false,
      "inputs": [
        {
          "indexed": true,
          "internalType": "address",
          "name": "approver",
          "type": "address"
        },
        {
          "indexed": true,
          "internalType": "bytes32",
          "name": "indentifier",
          "type": "bytes32"
        },
        {
          "indexed": false,
          "internalType": "address",
          "name": "from",
          "type": "address"
        },
        {
          "indexed": false,
          "internalType": "address",
          "name": "to",
          "type": "address"
        },
        {
          "indexed": false,
          "internalType": "bool",
          "name": "approved",
          "type": "bool"
        }
      ],
      "name": "TransferApproval",
      "type": "event"
    },
    {
      "anonymous": false,
      "inputs": [
        {
          "indexed": true,
          "internalType": "address",
          "name": "account",
          "type": "address"
        },
        {
          "indexed": true,
          "internalType": "address",
          "name": "token",
          "type": "address"
        },
        {
          "indexed": false,
          "internalType": "uint256",
          "name": "amount",
          "type": "uint256"
        }
      ],
      "name": "Withdrawal",
      "type": "event"
    },
    {
      "constant": true,
      "inputs": [],
      "name": "attestationExpiryBlocks",
      "outputs": [
        {
          "internalType": "uint256",
          "name": "",
          "type": "uint256"
        }
      ],
      "payable": false,
      "stateMutability": "view",
      "type": "function"
    },
    {
      "constant": true,
      "inputs": [
        {
          "internalType": "address",
          "name": "",
          "type": "address"
        }
      ],
      "name": "attestationRequestFees",
      "outputs": [
        {
          "internalType": "uint256",
          "name": "",
          "type": "uint256"
        }
      ],
      "payable": false,
      "stateMutability": "view",
      "type": "function"
    },
    {
      "constant": true,
      "inputs": [],
      "name": "initialized",
      "outputs": [
        {
          "internalType": "bool",
          "name": "",
          "type": "bool"
        }
      ],
      "payable": false,
      "stateMutability": "view",
      "type": "function"
    },
    {
      "constant": true,
      "inputs": [],
      "name": "isOwner",
      "outputs": [
        {
          "internalType": "bool",
          "name": "",
          "type": "bool"
        }
      ],
      "payable": false,
      "stateMutability": "view",
      "type": "function"
    },
    {
      "constant": true,
      "inputs": [],
      "name": "maxAttestations",
      "outputs": [
        {
          "internalType": "uint256",
          "name": "",
          "type": "uint256"
        }
      ],
      "payable": false,
      "stateMutability": "view",
      "type": "function"
    },
    {
      "constant": true,
      "inputs": [],
      "name": "owner",
      "outputs": [
        {
          "internalType": "address",
          "name": "",
          "type": "address"
        }
      ],
      "payable": false,
      "stateMutability": "view",
      "type": "function"
    },
    {
      "constant": true,
      "inputs": [
        {
          "internalType": "address",
          "name": "",
          "type": "address"
        },
        {
          "internalType": "address",
          "name": "",
          "type": "address"
        }
      ],
      "name": "pendingWithdrawals",
      "outputs": [
        {
          "internalType": "uint256",
          "name": "",
          "type": "uint256"
        }
      ],
      "payable": false,
      "stateMutability": "view",
      "type": "function"
    },
    {
      "constant": true,
      "inputs": [],
      "name": "registry",
      "outputs": [
        {
          "internalType": "contract IRegistry",
          "name": "",
          "type": "address"
        }
      ],
      "payable": false,
      "stateMutability": "view",
      "type": "function"
    },
    {
      "constant": false,
      "inputs": [],
      "name": "renounceOwnership",
      "outputs": [],
      "payable": false,
      "stateMutability": "nonpayable",
      "type": "function"
    },
    {
      "constant": true,
      "inputs": [],
      "name": "selectIssuersWaitBlocks",
      "outputs": [
        {
          "internalType": "uint256",
          "name": "",
          "type": "uint256"
        }
      ],
      "payable": false,
      "stateMutability": "view",
      "type": "function"
    },
    {
      "constant": false,
      "inputs": [
        {
          "internalType": "address",
          "name": "registryAddress",
          "type": "address"
        }
      ],
      "name": "setRegistry",
      "outputs": [],
      "payable": false,
      "stateMutability": "nonpayable",
      "type": "function"
    },
    {
      "constant": true,
      "inputs": [
        {
          "internalType": "address",
          "name": "",
          "type": "address"
        },
        {
          "internalType": "bytes32",
          "name": "",
          "type": "bytes32"
        }
      ],
      "name": "transferApprovals",
      "outputs": [
        {
          "internalType": "bool",
          "name": "",
          "type": "bool"
        }
      ],
      "payable": false,
      "stateMutability": "view",
      "type": "function"
    },
    {
      "constant": false,
      "inputs": [
        {
          "internalType": "address",
          "name": "newOwner",
          "type": "address"
        }
      ],
      "name": "transferOwnership",
      "outputs": [],
      "payable": false,
      "stateMutability": "nonpayable",
      "type": "function"
    },
    {
      "constant": false,
      "inputs": [
        {
          "internalType": "address",
          "name": "registryAddress",
          "type": "address"
        },
        {
          "internalType": "uint256",
          "name": "_attestationExpiryBlocks",
          "type": "uint256"
        },
        {
          "internalType": "uint256",
          "name": "_selectIssuersWaitBlocks",
          "type": "uint256"
        },
        {
          "internalType": "uint256",
          "name": "_maxAttestations",
          "type": "uint256"
        },
        {
          "internalType": "address[]",
          "name": "attestationRequestFeeTokens",
          "type": "address[]"
        },
        {
          "internalType": "uint256[]",
          "name": "attestationRequestFeeValues",
          "type": "uint256[]"
        }
      ],
      "name": "initialize",
      "outputs": [],
      "payable": false,
      "stateMutability": "nonpayable",
      "type": "function"
    },
    {
      "constant": false,
      "inputs": [
        {
          "internalType": "bytes32",
          "name": "identifier",
          "type": "bytes32"
        },
        {
          "internalType": "uint256",
          "name": "index",
          "type": "uint256"
        }
      ],
      "name": "revoke",
      "outputs": [],
      "payable": false,
      "stateMutability": "nonpayable",
      "type": "function"
    },
    {
      "constant": false,
      "inputs": [
        {
          "internalType": "address",
          "name": "token",
          "type": "address"
        }
      ],
      "name": "withdraw",
      "outputs": [],
      "payable": false,
      "stateMutability": "nonpayable",
      "type": "function"
    },
    {
      "constant": true,
      "inputs": [
        {
          "internalType": "bytes32",
          "name": "identifier",
          "type": "bytes32"
        },
        {
          "internalType": "address",
          "name": "account",
          "type": "address"
        }
      ],
      "name": "getUnselectedRequest",
      "outputs": [
        {
          "internalType": "uint32",
          "name": "",
          "type": "uint32"
        },
        {
          "internalType": "uint32",
          "name": "",
          "type": "uint32"
        },
        {
          "internalType": "address",
          "name": "",
          "type": "address"
        }
      ],
      "payable": false,
      "stateMutability": "view",
      "type": "function"
    },
    {
      "constant": true,
      "inputs": [
        {
          "internalType": "bytes32",
          "name": "identifier",
          "type": "bytes32"
        },
        {
          "internalType": "address",
          "name": "account",
          "type": "address"
        }
      ],
      "name": "getAttestationIssuers",
      "outputs": [
        {
          "internalType": "address[]",
          "name": "",
          "type": "address[]"
        }
      ],
      "payable": false,
      "stateMutability": "view",
      "type": "function"
    },
    {
      "constant": true,
      "inputs": [
        {
          "internalType": "bytes32",
          "name": "identifier",
          "type": "bytes32"
        },
        {
          "internalType": "address",
          "name": "account",
          "type": "address"
        }
      ],
      "name": "getAttestationStats",
      "outputs": [
        {
          "internalType": "uint32",
          "name": "",
          "type": "uint32"
        },
        {
          "internalType": "uint32",
          "name": "",
          "type": "uint32"
        }
      ],
      "payable": false,
      "stateMutability": "view",
      "type": "function"
    },
    {
      "constant": true,
      "inputs": [
        {
          "internalType": "bytes32[]",
          "name": "identifiersToLookup",
          "type": "bytes32[]"
        }
      ],
      "name": "batchGetAttestationStats",
      "outputs": [
        {
          "internalType": "uint256[]",
          "name": "",
          "type": "uint256[]"
        },
        {
          "internalType": "address[]",
          "name": "",
          "type": "address[]"
        },
        {
          "internalType": "uint64[]",
          "name": "",
          "type": "uint64[]"
        },
        {
          "internalType": "uint64[]",
          "name": "",
          "type": "uint64[]"
        }
      ],
      "payable": false,
      "stateMutability": "view",
      "type": "function"
    },
    {
      "constant": true,
      "inputs": [
        {
          "internalType": "bytes32",
          "name": "identifier",
          "type": "bytes32"
        },
        {
          "internalType": "address",
          "name": "account",
          "type": "address"
        },
        {
          "internalType": "address",
          "name": "issuer",
          "type": "address"
        }
      ],
      "name": "getAttestationState",
      "outputs": [
        {
          "internalType": "uint8",
          "name": "",
          "type": "uint8"
        },
        {
          "internalType": "uint32",
          "name": "",
          "type": "uint32"
        },
        {
          "internalType": "address",
          "name": "",
          "type": "address"
        }
      ],
      "payable": false,
      "stateMutability": "view",
      "type": "function"
    },
    {
      "constant": true,
      "inputs": [
        {
          "internalType": "bytes32",
          "name": "identifier",
          "type": "bytes32"
        },
        {
          "internalType": "address",
          "name": "account",
          "type": "address"
        }
      ],
      "name": "getCompletableAttestations",
      "outputs": [
        {
          "internalType": "uint32[]",
          "name": "",
          "type": "uint32[]"
        },
        {
          "internalType": "address[]",
          "name": "",
          "type": "address[]"
        },
        {
          "internalType": "uint256[]",
          "name": "",
          "type": "uint256[]"
        },
        {
          "internalType": "bytes",
          "name": "",
          "type": "bytes"
        }
      ],
      "payable": false,
      "stateMutability": "view",
      "type": "function"
    },
    {
      "constant": true,
      "inputs": [
        {
          "internalType": "address",
          "name": "token",
          "type": "address"
        }
      ],
      "name": "getAttestationRequestFee",
      "outputs": [
        {
          "internalType": "uint256",
          "name": "",
          "type": "uint256"
        }
      ],
      "payable": false,
      "stateMutability": "view",
      "type": "function"
    },
    {
      "constant": true,
      "inputs": [],
      "name": "getMaxAttestations",
      "outputs": [
        {
          "internalType": "uint256",
          "name": "",
          "type": "uint256"
        }
      ],
      "payable": false,
      "stateMutability": "view",
      "type": "function"
    },
    {
      "constant": true,
      "inputs": [
        {
          "internalType": "bytes32",
          "name": "identifier",
          "type": "bytes32"
        }
      ],
      "name": "lookupAccountsForIdentifier",
      "outputs": [
        {
          "internalType": "address[]",
          "name": "",
          "type": "address[]"
        }
      ],
      "payable": false,
      "stateMutability": "view",
      "type": "function"
    },
    {
      "constant": true,
      "inputs": [
        {
          "internalType": "bytes32",
          "name": "identifier",
          "type": "bytes32"
        },
        {
          "internalType": "address",
          "name": "account",
          "type": "address"
        },
        {
          "internalType": "uint32",
          "name": "expected",
          "type": "uint32"
        }
      ],
      "name": "requireNAttestationsRequested",
      "outputs": [],
      "payable": false,
      "stateMutability": "view",
      "type": "function"
    },
    {
      "constant": true,
      "inputs": [],
      "name": "getVersionNumber",
      "outputs": [
        {
          "internalType": "uint256",
          "name": "",
          "type": "uint256"
        },
        {
          "internalType": "uint256",
          "name": "",
          "type": "uint256"
        },
        {
          "internalType": "uint256",
          "name": "",
          "type": "uint256"
        },
        {
          "internalType": "uint256",
          "name": "",
          "type": "uint256"
        }
      ],
      "payable": false,
      "stateMutability": "pure",
      "type": "function"
    },
    {
      "constant": false,
      "inputs": [
        {
          "internalType": "address",
          "name": "token",
          "type": "address"
        },
        {
          "internalType": "uint256",
          "name": "fee",
          "type": "uint256"
        }
      ],
      "name": "setAttestationRequestFee",
      "outputs": [],
      "payable": false,
      "stateMutability": "nonpayable",
      "type": "function"
    },
    {
      "constant": false,
      "inputs": [
        {
          "internalType": "uint256",
          "name": "_attestationExpiryBlocks",
          "type": "uint256"
        }
      ],
      "name": "setAttestationExpiryBlocks",
      "outputs": [],
      "payable": false,
      "stateMutability": "nonpayable",
      "type": "function"
    },
    {
      "constant": false,
      "inputs": [
        {
          "internalType": "uint256",
          "name": "_selectIssuersWaitBlocks",
          "type": "uint256"
        }
      ],
      "name": "setSelectIssuersWaitBlocks",
      "outputs": [],
      "payable": false,
      "stateMutability": "nonpayable",
      "type": "function"
    },
    {
      "constant": false,
      "inputs": [
        {
          "internalType": "uint256",
          "name": "_maxAttestations",
          "type": "uint256"
        }
      ],
      "name": "setMaxAttestations",
      "outputs": [],
      "payable": false,
      "stateMutability": "nonpayable",
      "type": "function"
    },
    {
      "constant": true,
      "inputs": [
        {
          "internalType": "bytes32",
          "name": "identifier",
          "type": "bytes32"
        },
        {
          "internalType": "address",
          "name": "account",
          "type": "address"
        },
        {
          "internalType": "uint8",
          "name": "v",
          "type": "uint8"
        },
        {
          "internalType": "bytes32",
          "name": "r",
          "type": "bytes32"
        },
        {
          "internalType": "bytes32",
          "name": "s",
          "type": "bytes32"
        }
      ],
      "name": "validateAttestationCode",
      "outputs": [
        {
          "internalType": "address",
          "name": "",
          "type": "address"
        }
      ],
      "payable": false,
      "stateMutability": "view",
      "type": "function"
    }
  ],
  "bytecode": "0x60806040523480156200001157600080fd5b5060405162003efe38038062003efe833981810160405260208110156200003757600080fd5b81019080805190602001909291905050508060006200005b6200012b60201b60201c565b9050806000806101000a81548173ffffffffffffffffffffffffffffffffffffffff021916908373ffffffffffffffffffffffffffffffffffffffff1602179055508073ffffffffffffffffffffffffffffffffffffffff16600073ffffffffffffffffffffffffffffffffffffffff167f8be0079c531659141344cd1fd0a4f28419497f9722a3daafe3b4186f6b6457e060405160405180910390a350806200011b576001600060146101000a81548160ff0219169083151502179055505b5060016002819055505062000133565b600033905090565b613dbb80620001436000396000f3fe608060405234801561001057600080fd5b50600436106101f05760003560e01c80638f32d59b1161010f578063bd93f998116100a2578063e831be5811610071578063e831be5814610d5d578063f2fde38b14610dd5578063f3ff26c614610e19578063fd536f5d14610e67576101f0565b8063bd93f99814610bf5578063be2c47a614610c4d578063e02659ce14610c7b578063e3d0f66f14610ca9576101f0565b8063a91ee0dc116100de578063a91ee0dc14610a8d578063b45eb7da14610ad1578063b5599cc614610aef578063bb46942f14610bbd576101f0565b80638f32d59b1461083957806396357c0a1461085b578063a6437e7314610a01578063a762825a14610a2f576101f0565b8063623d5931116101875780638218c6fe116101565780638218c6fe1461074d57806384a1a4fc1461076b57806389d35286146107d15780638da5cb5b146107ef576101f0565b8063623d593114610683578063715018a6146106db5780637796a684146106e55780637b10399914610703576101f0565b806354255be0116101c357806354255be01461047d578063596abea5146104b05780635ce9bc07146105315780635fc5c916146105e0576101f0565b806303cc1aff146101f5578063158ef93e146102785780634eef7e851461029a57806351cff8d914610439575b600080fd5b6102216004803603602081101561020b57600080fd5b8101908080359060200190929190505050610f73565b6040518080602001828103825283818151815260200191508051906020019060200280838360005b83811015610264578082015181840152602081019050610249565b505050509050019250505060405180910390f35b610280611017565b604051808215151515815260200191505060405180910390f35b6102e6600480360360408110156102b057600080fd5b8101908080359060200190929190803573ffffffffffffffffffffffffffffffffffffffff16906020019092919050505061102a565b6040518080602001806020018060200180602001858103855289818151815260200191508051906020019060200280838360005b8381101561033557808201518184015260208101905061031a565b50505050905001858103845288818151815260200191508051906020019060200280838360005b8381101561037757808201518184015260208101905061035c565b50505050905001858103835287818151815260200191508051906020019060200280838360005b838110156103b957808201518184015260208101905061039e565b50505050905001858103825286818151815260200191508051906020019080838360005b838110156103f85780820151818401526020810190506103dd565b50505050905090810190601f1680156104255780820380516001836020036101000a031916815260200191505b509850505050505050505060405180910390f35b61047b6004803603602081101561044f57600080fd5b81019080803573ffffffffffffffffffffffffffffffffffffffff16906020019092919050505061160e565b005b6104856119e8565b6040518085815260200184815260200183815260200182815260200194505050505060405180910390f35b6104fc600480360360408110156104c657600080fd5b8101908080359060200190929190803573ffffffffffffffffffffffffffffffffffffffff169060200190929190505050611a0f565b604051808363ffffffff1663ffffffff1681526020018263ffffffff1663ffffffff1681526020019250505060405180910390f35b61059e600480360360a081101561054757600080fd5b8101908080359060200190929190803573ffffffffffffffffffffffffffffffffffffffff169060200190929190803560ff1690602001909291908035906020019092919080359060200190929190505050611aeb565b604051808273ffffffffffffffffffffffffffffffffffffffff1673ffffffffffffffffffffffffffffffffffffffff16815260200191505060405180910390f35b61062c600480360360408110156105f657600080fd5b8101908080359060200190929190803573ffffffffffffffffffffffffffffffffffffffff169060200190929190505050611e74565b6040518080602001828103825283818151815260200191508051906020019060200280838360005b8381101561066f578082015181840152602081019050610654565b505050509050019250505060405180910390f35b6106c56004803603602081101561069957600080fd5b81019080803573ffffffffffffffffffffffffffffffffffffffff169060200190929190505050611f59565b6040518082815260200191505060405180910390f35b6106e3611fa2565b005b6106ed6120db565b6040518082815260200191505060405180910390f35b61070b6120e5565b604051808273ffffffffffffffffffffffffffffffffffffffff1673ffffffffffffffffffffffffffffffffffffffff16815260200191505060405180910390f35b61075561210b565b6040518082815260200191505060405180910390f35b6107b76004803603604081101561078157600080fd5b81019080803573ffffffffffffffffffffffffffffffffffffffff16906020019092919080359060200190929190505050612111565b604051808215151515815260200191505060405180910390f35b6107d9612140565b6040518082815260200191505060405180910390f35b6107f7612146565b604051808273ffffffffffffffffffffffffffffffffffffffff1673ffffffffffffffffffffffffffffffffffffffff16815260200191505060405180910390f35b61084161216f565b604051808215151515815260200191505060405180910390f35b6108d26004803603602081101561087157600080fd5b810190808035906020019064010000000081111561088e57600080fd5b8201836020820111156108a057600080fd5b803590602001918460208302840111640100000000831117156108c257600080fd5b90919293919293905050506121cd565b6040518080602001806020018060200180602001858103855289818151815260200191508051906020019060200280838360005b83811015610921578082015181840152602081019050610906565b50505050905001858103845288818151815260200191508051906020019060200280838360005b83811015610963578082015181840152602081019050610948565b50505050905001858103835287818151815260200191508051906020019060200280838360005b838110156109a557808201518184015260208101905061098a565b50505050905001858103825286818151815260200191508051906020019060200280838360005b838110156109e75780820151818401526020810190506109cc565b505050509050019850505050505050505060405180910390f35b610a2d60048036036020811015610a1757600080fd5b81019080803590602001909291905050506126d7565b005b610a8b60048036036060811015610a4557600080fd5b8101908080359060200190929190803573ffffffffffffffffffffffffffffffffffffffff169060200190929190803563ffffffff1690602001909291905050506127eb565b005b610acf60048036036020811015610aa357600080fd5b81019080803573ffffffffffffffffffffffffffffffffffffffff1690602001909291905050506128c0565b005b610ad9612a64565b6040518082815260200191505060405180910390f35b610b5b60048036036060811015610b0557600080fd5b8101908080359060200190929190803573ffffffffffffffffffffffffffffffffffffffff169060200190929190803573ffffffffffffffffffffffffffffffffffffffff169060200190929190505050612a6a565b604051808460ff1660ff1681526020018363ffffffff1663ffffffff1681526020018273ffffffffffffffffffffffffffffffffffffffff1673ffffffffffffffffffffffffffffffffffffffff168152602001935050505060405180910390f35b610bf360048036036040811015610bd357600080fd5b810190808035906020019092919080359060200190929190505050612b6c565b005b610c3760048036036020811015610c0b57600080fd5b81019080803573ffffffffffffffffffffffffffffffffffffffff169060200190929190505050612e80565b6040518082815260200191505060405180910390f35b610c7960048036036020811015610c6357600080fd5b8101908080359060200190929190505050612e98565b005b610ca760048036036020811015610c9157600080fd5b8101908080359060200190929190505050612fac565b005b610cf560048036036040811015610cbf57600080fd5b8101908080359060200190929190803573ffffffffffffffffffffffffffffffffffffffff1690602001909291905050506130c0565b604051808463ffffffff1663ffffffff1681526020018363ffffffff1663ffffffff1681526020018273ffffffffffffffffffffffffffffffffffffffff1673ffffffffffffffffffffffffffffffffffffffff168152602001935050505060405180910390f35b610dbf60048036036040811015610d7357600080fd5b81019080803573ffffffffffffffffffffffffffffffffffffffff169060200190929190803573ffffffffffffffffffffffffffffffffffffffff169060200190929190505050613217565b6040518082815260200191505060405180910390f35b610e1760048036036020811015610deb57600080fd5b81019080803573ffffffffffffffffffffffffffffffffffffffff16906020019092919050505061323c565b005b610e6560048036036040811015610e2f57600080fd5b81019080803573ffffffffffffffffffffffffffffffffffffffff169060200190929190803590602001909291905050506132c2565b005b610f71600480360360c0811015610e7d57600080fd5b81019080803573ffffffffffffffffffffffffffffffffffffffff16906020019092919080359060200190929190803590602001909291908035906020019092919080359060200190640100000000811115610ed857600080fd5b820183602082011115610eea57600080fd5b80359060200191846020830284011164010000000083111715610f0c57600080fd5b909192939192939080359060200190640100000000811115610f2d57600080fd5b820183602082011115610f3f57600080fd5b80359060200191846020830284011164010000000083111715610f6157600080fd5b909192939192939050505061342b565b005b60606003600083815260200190815260200160002060000180548060200260200160405190810160405280929190818152602001828054801561100b57602002820191906000526020600020905b8160009054906101000a900473ffffffffffffffffffffffffffffffffffffffff1673ffffffffffffffffffffffffffffffffffffffff1681526020019060010190808311610fc1575b50505050509050919050565b600060149054906101000a900460ff1681565b60608060608060006003600088815260200190815260200160002060010160008773ffffffffffffffffffffffffffffffffffffffff1673ffffffffffffffffffffffffffffffffffffffff16815260200190815260200160002090506000816001019050600080905060008090505b828054905081101561115c576111258460020160008584815481106110bb57fe5b9060005260206000200160009054906101000a900473ffffffffffffffffffffffffffffffffffffffff1673ffffffffffffffffffffffffffffffffffffffff1673ffffffffffffffffffffffffffffffffffffffff1681526020019081526020016000206135de565b156111415761113e60018361363890919063ffffffff16565b91505b61115560018261363890919063ffffffff16565b905061109a565b5060608160405190808252806020026020018201604052801561118e5781602001602082028038833980820191505090505b5090506060826040519080825280602002602001820160405280156111c25781602001602082028038833980820191505090505b509050600080905060008090505b85805490508110156113c05761125b8760020160008884815481106111f157fe5b9060005260206000200160009054906101000a900473ffffffffffffffffffffffffffffffffffffffff1673ffffffffffffffffffffffffffffffffffffffff1673ffffffffffffffffffffffffffffffffffffffff1681526020019081526020016000206135de565b156113a55786600201600087838154811061127257fe5b9060005260206000200160009054906101000a900473ffffffffffffffffffffffffffffffffffffffff1673ffffffffffffffffffffffffffffffffffffffff1673ffffffffffffffffffffffffffffffffffffffff16815260200190815260200160002060000160019054906101000a900463ffffffff168483815181106112f757fe5b602002602001019063ffffffff16908163ffffffff168152505085818154811061131d57fe5b9060005260206000200160009054906101000a900473ffffffffffffffffffffffffffffffffffffffff1683838151811061135457fe5b602002602001019073ffffffffffffffffffffffffffffffffffffffff16908173ffffffffffffffffffffffffffffffffffffffff16815250506113a260018361363890919063ffffffff16565b91505b6113b960018261363890919063ffffffff16565b90506111d0565b506060806113cc6136c0565b73ffffffffffffffffffffffffffffffffffffffff16638adaf96f856040518263ffffffff1660e01b81526004018080602001828103825283818151815260200191508051906020019060200280838360005b8381101561143a57808201518184015260208101905061141f565b505050509050019250505060006040518083038186803b15801561145d57600080fd5b505afa158015611471573d6000803e3d6000fd5b505050506040513d6000823e3d601f19601f82011682018060405250604081101561149b57600080fd5b81019080805160405193929190846401000000008211156114bb57600080fd5b838201915060208201858111156114d157600080fd5b82518660208202830111640100000000821117156114ee57600080fd5b8083526020830192505050908051906020019060200280838360005b8381101561152557808201518184015260208101905061150a565b505050509050016040526020018051604051939291908464010000000082111561154e57600080fd5b8382019150602082018581111561156457600080fd5b825186600182028301116401000000008211171561158157600080fd5b8083526020830192505050908051906020019080838360005b838110156115b557808201518184015260208101905061159a565b50505050905090810190601f1680156115e25780820380516001836020036101000a031916815260200191505b506040525050508092508193505050848483839b509b509b509b50505050505050505092959194509250565b60006116186136c0565b73ffffffffffffffffffffffffffffffffffffffff16637b2434cb336040518263ffffffff1660e01b8152600401808273ffffffffffffffffffffffffffffffffffffffff1673ffffffffffffffffffffffffffffffffffffffff16815260200191505060206040518083038186803b15801561169457600080fd5b505afa1580156116a8573d6000803e3d6000fd5b505050506040513d60208110156116be57600080fd5b810190808051906020019092919050505090506000600860008473ffffffffffffffffffffffffffffffffffffffff1673ffffffffffffffffffffffffffffffffffffffff16815260200190815260200160002060008373ffffffffffffffffffffffffffffffffffffffff1673ffffffffffffffffffffffffffffffffffffffff168152602001908152602001600020549050600081116117c8576040517f08c379a00000000000000000000000000000000000000000000000000000000081526004018080602001828103825260178152602001807f76616c756520776173206e656761746976652f7a65726f00000000000000000081525060200191505060405180910390fd5b6000600860008573ffffffffffffffffffffffffffffffffffffffff1673ffffffffffffffffffffffffffffffffffffffff16815260200190815260200160002060008473ffffffffffffffffffffffffffffffffffffffff1673ffffffffffffffffffffffffffffffffffffffff168152602001908152602001600020819055508273ffffffffffffffffffffffffffffffffffffffff1663a9059cbb83836040518363ffffffff1660e01b8152600401808373ffffffffffffffffffffffffffffffffffffffff1673ffffffffffffffffffffffffffffffffffffffff16815260200182815260200192505050602060405180830381600087803b1580156118d157600080fd5b505af11580156118e5573d6000803e3d6000fd5b505050506040513d60208110156118fb57600080fd5b810190808051906020019092919050505061197e576040517f08c379a00000000000000000000000000000000000000000000000000000000081526004018080602001828103825260158152602001807f746f6b656e207472616e73666572206661696c6564000000000000000000000081525060200191505060405180910390fd5b8273ffffffffffffffffffffffffffffffffffffffff168273ffffffffffffffffffffffffffffffffffffffff167f2717ead6b9200dd235aad468c9809ea400fe33ac69b5bfaa6d3e90fc922b6398836040518082815260200191505060405180910390a3505050565b60008060008060016003600080839350829250819150809050935093509350935090919293565b6000806003600085815260200190815260200160002060010160008473ffffffffffffffffffffffffffffffffffffffff1673ffffffffffffffffffffffffffffffffffffffff16815260200190815260200160002060000160049054906101000a900463ffffffff166003600086815260200190815260200160002060010160008573ffffffffffffffffffffffffffffffffffffffff1673ffffffffffffffffffffffffffffffffffffffff16815260200190815260200160002060000160009054906101000a900463ffffffff16915091509250929050565b6000808686604051602001808381526020018273ffffffffffffffffffffffffffffffffffffffff1673ffffffffffffffffffffffffffffffffffffffff1660601b815260140192505050604051602081830303815290604052805190602001209050600073__Signatures____________________________63b3abdb0c838888886040518563ffffffff1660e01b8152600401808581526020018460ff1660ff16815260200183815260200182815260200194505050505060206040518083038186803b158015611bbd57600080fd5b505af4158015611bd1573d6000803e3d6000fd5b505050506040513d6020811015611be757600080fd5b810190808051906020019092919050505090506000611c046136c0565b73ffffffffffffffffffffffffffffffffffffffff16637b2434cb836040518263ffffffff1660e01b8152600401808273ffffffffffffffffffffffffffffffffffffffff1673ffffffffffffffffffffffffffffffffffffffff16815260200191505060206040518083038186803b158015611c8057600080fd5b505afa158015611c94573d6000803e3d6000fd5b505050506040513d6020811015611caa57600080fd5b810190808051906020019092919050505090506000600360008b815260200190815260200160002060010160008a73ffffffffffffffffffffffffffffffffffffffff1673ffffffffffffffffffffffffffffffffffffffff16815260200190815260200160002060020160008373ffffffffffffffffffffffffffffffffffffffff1673ffffffffffffffffffffffffffffffffffffffff168152602001908152602001600020905060016002811115611d6157fe5b8160000160009054906101000a900460ff166002811115611d7e57fe5b14611dd4576040517f08c379a000000000000000000000000000000000000000000000000000000000815260040180806020018281038252603b815260200180613cef603b913960400191505060405180910390fd5b611df18160000160019054906101000a900463ffffffff166137bb565b15611e64576040517f08c379a00000000000000000000000000000000000000000000000000000000081526004018080602001828103825260158152602001807f4174746573746174696f6e2074696d6564206f7574000000000000000000000081525060200191505060405180910390fd5b8194505050505095945050505050565b60606003600084815260200190815260200160002060010160008373ffffffffffffffffffffffffffffffffffffffff1673ffffffffffffffffffffffffffffffffffffffff168152602001908152602001600020600101805480602002602001604051908101604052809291908181526020018280548015611f4c57602002820191906000526020600020905b8160009054906101000a900473ffffffffffffffffffffffffffffffffffffffff1673ffffffffffffffffffffffffffffffffffffffff1681526020019060010190808311611f02575b5050505050905092915050565b6000600760008373ffffffffffffffffffffffffffffffffffffffff1673ffffffffffffffffffffffffffffffffffffffff168152602001908152602001600020549050919050565b611faa61216f565b61201c576040517f08c379a00000000000000000000000000000000000000000000000000000000081526004018080602001828103825260208152602001807f4f776e61626c653a2063616c6c6572206973206e6f7420746865206f776e657281525060200191505060405180910390fd5b600073ffffffffffffffffffffffffffffffffffffffff166000809054906101000a900473ffffffffffffffffffffffffffffffffffffffff1673ffffffffffffffffffffffffffffffffffffffff167f8be0079c531659141344cd1fd0a4f28419497f9722a3daafe3b4186f6b6457e060405160405180910390a360008060006101000a81548173ffffffffffffffffffffffffffffffffffffffff021916908373ffffffffffffffffffffffffffffffffffffffff160217905550565b6000600654905090565b600160009054906101000a900473ffffffffffffffffffffffffffffffffffffffff1681565b60065481565b60096020528160005260406000206020528060005260406000206000915091509054906101000a900460ff1681565b60055481565b60008060009054906101000a900473ffffffffffffffffffffffffffffffffffffffff16905090565b60008060009054906101000a900473ffffffffffffffffffffffffffffffffffffffff1673ffffffffffffffffffffffffffffffffffffffff166121b16137e2565b73ffffffffffffffffffffffffffffffffffffffff1614905090565b6060806060806000868690501161222f576040517f08c379a0000000000000000000000000000000000000000000000000000000008152600401808060200182810382526028815260200180613d2a6028913960400191505060405180910390fd5b60608061227c888880806020026020016040519081016040528093929190818152602001838360200280828437600081840152601f19601f820116905080830192505050505050506137ea565b8092508193505050606081516040519080825280602002602001820160405280156122b65781602001602082028038833980820191505090505b509050606082516040519080825280602002602001820160405280156122eb5781602001602082028038833980820191505090505b509050600080905060008090505b8b8b90508110156126bc576060600360008e8e8581811061231657fe5b9050602002013581526020019081526020016000206000018054806020026020016040519081016040528092919081815260200182805480156123ae57602002820191906000526020600020905b8160009054906101000a900473ffffffffffffffffffffffffffffffffffffffff1673ffffffffffffffffffffffffffffffffffffffff1681526020019060010190808311612364575b5050505050905060008090505b8783815181106123c757fe5b602002602001015181101561269f576123de6136c0565b73ffffffffffffffffffffffffffffffffffffffff16631fd9afa583838151811061240557fe5b60200260200101516040518263ffffffff1660e01b8152600401808273ffffffffffffffffffffffffffffffffffffffff1673ffffffffffffffffffffffffffffffffffffffff16815260200191505060206040518083038186803b15801561246d57600080fd5b505afa158015612481573d6000803e3d6000fd5b505050506040513d602081101561249757600080fd5b81019080805190602001909291905050508785815181106124b457fe5b602002602001019073ffffffffffffffffffffffffffffffffffffffff16908173ffffffffffffffffffffffffffffffffffffffff1681525050600360008f8f868181106124fe57fe5b905060200201358152602001908152602001600020600101600083838151811061252457fe5b602002602001015173ffffffffffffffffffffffffffffffffffffffff1673ffffffffffffffffffffffffffffffffffffffff16815260200190815260200160002060000160049054906101000a900463ffffffff1663ffffffff1686858151811061258c57fe5b602002602001019067ffffffffffffffff16908167ffffffffffffffff1681525050600360008f8f868181106125be57fe5b90506020020135815260200190815260200160002060010160008383815181106125e457fe5b602002602001015173ffffffffffffffffffffffffffffffffffffffff1673ffffffffffffffffffffffffffffffffffffffff16815260200190815260200160002060000160009054906101000a900463ffffffff1663ffffffff1685858151811061264c57fe5b602002602001019067ffffffffffffffff16908167ffffffffffffffff168152505061268260018561363890919063ffffffff16565b935061269860018261363890919063ffffffff16565b90506123bb565b50506126b560018261363890919063ffffffff16565b90506122f9565b50848484849850985098509850505050505092959194509250565b6126df61216f565b612751576040517f08c379a00000000000000000000000000000000000000000000000000000000081526004018080602001828103825260208152602001807f4f776e61626c653a2063616c6c6572206973206e6f7420746865206f776e657281525060200191505060405180910390fd5b600081116127aa576040517f08c379a0000000000000000000000000000000000000000000000000000000008152600401808060200182810382526030815260200180613cbf6030913960400191505060405180910390fd5b806004819055507f4fbe976a07a9260091c2d347f8780c4bc636392e34d5b249b367baf8a5c7ca69816040518082815260200191505060405180910390a150565b60006003600085815260200190815260200160002060010160008473ffffffffffffffffffffffffffffffffffffffff1673ffffffffffffffffffffffffffffffffffffffff16815260200190815260200160002060000160009054906101000a900463ffffffff1663ffffffff1690508163ffffffff1681146128ba576040517f08c379a000000000000000000000000000000000000000000000000000000000815260040180806020018281038252602e815260200180613beb602e913960400191505060405180910390fd5b50505050565b6128c861216f565b61293a576040517f08c379a00000000000000000000000000000000000000000000000000000000081526004018080602001828103825260208152602001807f4f776e61626c653a2063616c6c6572206973206e6f7420746865206f776e657281525060200191505060405180910390fd5b600073ffffffffffffffffffffffffffffffffffffffff168173ffffffffffffffffffffffffffffffffffffffff1614156129dd576040517f08c379a00000000000000000000000000000000000000000000000000000000081526004018080602001828103825260208152602001807f43616e6e6f7420726567697374657220746865206e756c6c206164647265737381525060200191505060405180910390fd5b80600160006101000a81548173ffffffffffffffffffffffffffffffffffffffff021916908373ffffffffffffffffffffffffffffffffffffffff1602179055508073ffffffffffffffffffffffffffffffffffffffff167f27fe5f0c1c3b1ed427cc63d0f05759ffdecf9aec9e18d31ef366fc8a6cb5dc3b60405160405180910390a250565b60045481565b6000806000806003600088815260200190815260200160002060010160008773ffffffffffffffffffffffffffffffffffffffff1673ffffffffffffffffffffffffffffffffffffffff16815260200190815260200160002060020160008673ffffffffffffffffffffffffffffffffffffffff1673ffffffffffffffffffffffffffffffffffffffff16815260200190815260200160002090508060000160009054906101000a900460ff166002811115612b2257fe5b8160000160019054906101000a900463ffffffff168260000160059054906101000a900473ffffffffffffffffffffffffffffffffffffffff169350935093505093509350939050565b600060036000848152602001908152602001600020600001805490509050808210612bff576040517f08c379a00000000000000000000000000000000000000000000000000000000081526004018080602001828103825260108152602001807f496e64657820697320696e76616c69640000000000000000000000000000000081525060200191505060405180910390fd5b600360008481526020019081526020016000206000018281548110612c2057fe5b9060005260206000200160009054906101000a900473ffffffffffffffffffffffffffffffffffffffff1673ffffffffffffffffffffffffffffffffffffffff163373ffffffffffffffffffffffffffffffffffffffff1614612ceb576040517f08c379a000000000000000000000000000000000000000000000000000000000815260040180806020018281038252601f8152602001807f496e64657820646f6573206e6f74206d61746368206d73672e73656e6465720081525060200191505060405180910390fd5b6000612d0160018361394b90919063ffffffff16565b9050808314612dc057600360008581526020019081526020016000206000018181548110612d2b57fe5b9060005260206000200160009054906101000a900473ffffffffffffffffffffffffffffffffffffffff16600360008681526020019081526020016000206000018481548110612d7757fe5b9060005260206000200160006101000a81548173ffffffffffffffffffffffffffffffffffffffff021916908373ffffffffffffffffffffffffffffffffffffffff1602179055505b6000600360008681526020019081526020016000206000018281548110612de357fe5b9060005260206000200160006101000a81548173ffffffffffffffffffffffffffffffffffffffff021916908373ffffffffffffffffffffffffffffffffffffffff160217905550612e586001600360008781526020019081526020016000206000018054905061394b90919063ffffffff16565b6003600086815260200190815260200160002060000181612e799190613b99565b5050505050565b60076020528060005260406000206000915090505481565b612ea061216f565b612f12576040517f08c379a00000000000000000000000000000000000000000000000000000000081526004018080602001828103825260208152602001807f4f776e61626c653a2063616c6c6572206973206e6f7420746865206f776e657281525060200191505060405180910390fd5b60008111612f6b576040517f08c379a0000000000000000000000000000000000000000000000000000000008152600401808060200182810382526028815260200180613c196028913960400191505060405180910390fd5b806006819055507fc1f217a1246a98ce04e938768309107630ed86c1e0e9f9995af28e23a9c06178816040518082815260200191505060405180910390a150565b612fb461216f565b613026576040517f08c379a00000000000000000000000000000000000000000000000000000000081526004018080602001828103825260208152602001807f4f776e61626c653a2063616c6c6572206973206e6f7420746865206f776e657281525060200191505060405180910390fd5b6000811161307f576040517f08c379a0000000000000000000000000000000000000000000000000000000008152600401808060200182810382526030815260200180613c416030913960400191505060405180910390fd5b806005819055507f954fa47fa6f4e8017b99f93c73f4fbe599d786f9f5da73fe9086ab473fb455d8816040518082815260200191505060405180910390a150565b60008060006003600086815260200190815260200160002060020160008573ffffffffffffffffffffffffffffffffffffffff1673ffffffffffffffffffffffffffffffffffffffff16815260200190815260200160002060000160009054906101000a900463ffffffff166003600087815260200190815260200160002060020160008673ffffffffffffffffffffffffffffffffffffffff1673ffffffffffffffffffffffffffffffffffffffff16815260200190815260200160002060000160049054906101000a900463ffffffff166003600088815260200190815260200160002060020160008773ffffffffffffffffffffffffffffffffffffffff1673ffffffffffffffffffffffffffffffffffffffff16815260200190815260200160002060000160089054906101000a900473ffffffffffffffffffffffffffffffffffffffff169250925092509250925092565b6008602052816000526040600020602052806000526040600020600091509150505481565b61324461216f565b6132b6576040517f08c379a00000000000000000000000000000000000000000000000000000000081526004018080602001828103825260208152602001807f4f776e61626c653a2063616c6c6572206973206e6f7420746865206f776e657281525060200191505060405180910390fd5b6132bf81613995565b50565b6132ca61216f565b61333c576040517f08c379a00000000000000000000000000000000000000000000000000000000081526004018080602001828103825260208152602001807f4f776e61626c653a2063616c6c6572206973206e6f7420746865206f776e657281525060200191505060405180910390fd5b60008111613395576040517f08c379a0000000000000000000000000000000000000000000000000000000008152600401808060200182810382526028815260200180613c976028913960400191505060405180910390fd5b80600760008473ffffffffffffffffffffffffffffffffffffffff1673ffffffffffffffffffffffffffffffffffffffff168152602001908152602001600020819055508173ffffffffffffffffffffffffffffffffffffffff167f7cf8b633f218e9f9bc2c06107bcaddcfee6b90580863768acdcfd4f05d7af394826040518082815260200191505060405180910390a25050565b600060149054906101000a900460ff16156134ae576040517f08c379a000000000000000000000000000000000000000000000000000000000815260040180806020018281038252601c8152602001807f636f6e747261637420616c726561647920696e697469616c697a65640000000081525060200191505060405180910390fd5b6001600060146101000a81548160ff0219169083151502179055506134d233613995565b6134db886128c0565b6134e4876126d7565b6134ed86612fac565b6134f685612e98565b60008484905011801561350e57508181905084849050145b613563576040517f08c379a0000000000000000000000000000000000000000000000000000000008152600401808060200182810382526035815260200180613d526035913960400191505060405180910390fd5b60008090505b848490508110156135d3576135b885858381811061358357fe5b9050602002013573ffffffffffffffffffffffffffffffffffffffff168484848181106135ac57fe5b905060200201356132c2565b6135cc60018261363890919063ffffffff16565b9050613569565b505050505050505050565b6000600160028111156135ed57fe5b8260000160009054906101000a900460ff16600281111561360a57fe5b148015613631575061362f8260000160019054906101000a900463ffffffff166137bb565b155b9050919050565b6000808284019050838110156136b6576040517f08c379a000000000000000000000000000000000000000000000000000000000815260040180806020018281038252601b8152602001807f536166654d6174683a206164646974696f6e206f766572666c6f77000000000081525060200191505060405180910390fd5b8091505092915050565b6000600160009054906101000a900473ffffffffffffffffffffffffffffffffffffffff1673ffffffffffffffffffffffffffffffffffffffff1663dcf0aaed60405160200180807f4163636f756e74730000000000000000000000000000000000000000000000008152506008019050604051602081830303815290604052805190602001206040518263ffffffff1660e01b81526004018082815260200191505060206040518083038186803b15801561377b57600080fd5b505afa15801561378f573d6000803e3d6000fd5b505050506040513d60208110156137a557600080fd5b8101908080519060200190929190505050905090565b60006137d86004548363ffffffff1661363890919063ffffffff16565b4310159050919050565b600033905090565b6060806000835111613847576040517f08c379a0000000000000000000000000000000000000000000000000000000008152600401808060200182810382526028815260200180613d2a6028913960400191505060405180910390fd5b60008090506060845160405190808252806020026020018201604052801561387e5781602001602082028038833980820191505090505b50905060008090505b855181101561390b576000600360008884815181106138a257fe5b602002602001015181526020019081526020016000206000018054905090506138d4818561363890919063ffffffff16565b9350808383815181106138e357fe5b6020026020010181815250505061390460018261363890919063ffffffff16565b9050613887565b50808260405190808252806020026020018201604052801561393c5781602001602082028038833980820191505090505b50809050935093505050915091565b600061398d83836040518060400160405280601e81526020017f536166654d6174683a207375627472616374696f6e206f766572666c6f770000815250613ad9565b905092915050565b600073ffffffffffffffffffffffffffffffffffffffff168173ffffffffffffffffffffffffffffffffffffffff161415613a1b576040517f08c379a0000000000000000000000000000000000000000000000000000000008152600401808060200182810382526026815260200180613c716026913960400191505060405180910390fd5b8073ffffffffffffffffffffffffffffffffffffffff166000809054906101000a900473ffffffffffffffffffffffffffffffffffffffff1673ffffffffffffffffffffffffffffffffffffffff167f8be0079c531659141344cd1fd0a4f28419497f9722a3daafe3b4186f6b6457e060405160405180910390a3806000806101000a81548173ffffffffffffffffffffffffffffffffffffffff021916908373ffffffffffffffffffffffffffffffffffffffff16021790555050565b6000838311158290613b86576040517f08c379a00000000000000000000000000000000000000000000000000000000081526004018080602001828103825283818151815260200191508051906020019080838360005b83811015613b4b578082015181840152602081019050613b30565b50505050905090810190601f168015613b785780820380516001836020036101000a031916815260200191505b509250505060405180910390fd5b5060008385039050809150509392505050565b815481835581811115613bc057818360005260206000209182019101613bbf9190613bc5565b5b505050565b613be791905b80821115613be3576000816000905550600101613bcb565b5090565b9056fe726571756573746564206174746573746174696f6e7320646f6573206e6f74206d617463682065787065637465646d61784174746573746174696f6e732068617320746f2062652067726561746572207468616e203073656c6563744973737565727357616974426c6f636b732068617320746f2062652067726561746572207468616e20304f776e61626c653a206e6577206f776e657220697320746865207a65726f2061646472657373596f75206861766520746f20737065636966792061206665652067726561746572207468616e20306174746573746174696f6e457870697279426c6f636b732068617320746f2062652067726561746572207468616e20304174746573746174696f6e20636f646520646f6573206e6f74206d6174636820616e79206f75747374616e64696e67206174746573746174696f6e596f75206861766520746f2070617373206174206c65617374206f6e65206964656e7469666965726174746573746174696f6e52657175657374466565546f6b656e732073706563696669636174696f6e2077617320696e76616c6964a265627a7a72315820a84e13db3581aff909bcdc4df0153ffaf13175e344476a5244e195112e5bd94764736f6c634300050d0032",
  "source": "pragma solidity ^0.5.13;\n\nimport \"openzeppelin-solidity/contracts/math/SafeMath.sol\";\nimport \"openzeppelin-solidity/contracts/ownership/Ownable.sol\";\nimport \"openzeppelin-solidity/contracts/token/ERC20/IERC20.sol\";\nimport \"openzeppelin-solidity/contracts/utils/SafeCast.sol\";\n\nimport \"./interfaces/IAttestations.sol\";\nimport \"../common/interfaces/IAccounts.sol\";\nimport \"../common/interfaces/ICeloVersionedContract.sol\";\n\nimport \"../common/Initializable.sol\";\nimport \"../common/UsingRegistry.sol\";\nimport \"../common/Signatures.sol\";\nimport \"../common/UsingPrecompiles.sol\";\nimport \"../common/libraries/ReentrancyGuard.sol\";\n\n/**\n * @title Contract mapping identifiers to accounts\n */\ncontract Attestations is\n  IAttestations,\n  ICeloVersionedContract,\n  Ownable,\n  Initializable,\n  UsingRegistry,\n  ReentrancyGuard\n{\n  using SafeMath for uint256;\n  using SafeCast for uint256;\n\n  enum AttestationStatus {\n    None,\n    Incomplete,\n    Complete\n  }\n\n  struct Attestation {\n    AttestationStatus status;\n    // For outstanding attestations, this is the block number of the request.\n    // For completed attestations, this is the block number of the attestation completion.\n    uint32 blockNumber;\n    // The token with which attestation request fees were paid.\n    address attestationRequestFeeToken;\n  }\n\n  // Stores attestations state for a single (identifier, account address) pair.\n  struct AttestedAddress {\n    // Total number of requested attestations.\n    uint32 requested;\n    // Total number of completed attestations.\n    uint32 completed;\n    // List of selected issuers responsible for attestations. The length of this list\n    // might be smaller than `requested` (which represents the total number of requested\n    // attestations) if users are not calling `selectIssuers` on unselected requests.\n    address[] selectedIssuers;\n    // State of each attestation keyed by issuer.\n    mapping(address => Attestation) issuedAttestations;\n  }\n\n  struct UnselectedRequest {\n    // The block at which the attestations were requested.\n    uint32 blockNumber;\n    // The number of attestations that were requested.\n    uint32 attestationsRequested;\n    // The token with which attestation request fees were paid in this request.\n    address attestationRequestFeeToken;\n  }\n\n  struct IdentifierState {\n    // All account addresses associated with this identifier.\n    address[] accounts;\n    // Keeps the state of attestations for account addresses for this identifier.\n    mapping(address => AttestedAddress) attestations;\n    // Temporarily stores attestation requests for which issuers should be selected by the account.\n    mapping(address => UnselectedRequest) unselectedRequests;\n  }\n\n  mapping(bytes32 => IdentifierState) identifiers;\n\n  // The duration in blocks in which an attestation can be completed from the block in which the\n  // attestation was requested.\n  uint256 public attestationExpiryBlocks;\n\n  // The duration to wait until selectIssuers can be called for an attestation request.\n  uint256 public selectIssuersWaitBlocks;\n\n  // Limit the maximum number of attestations that can be requested\n  uint256 public maxAttestations;\n\n  // The fees that are associated with attestations for a particular token.\n  mapping(address => uint256) public attestationRequestFees;\n\n  // Maps a token and attestation issuer to the amount that they're owed.\n  mapping(address => mapping(address => uint256)) public pendingWithdrawals;\n\n  // Attestation transfer approvals, keyed by user and keccak(identifier, from, to)\n  mapping(address => mapping(bytes32 => bool)) public transferApprovals;\n\n  event AttestationsRequested(\n    bytes32 indexed identifier,\n    address indexed account,\n    uint256 attestationsRequested,\n    address attestationRequestFeeToken\n  );\n\n  event AttestationIssuerSelected(\n    bytes32 indexed identifier,\n    address indexed account,\n    address indexed issuer,\n    address attestationRequestFeeToken\n  );\n\n  event AttestationCompleted(\n    bytes32 indexed identifier,\n    address indexed account,\n    address indexed issuer\n  );\n\n  event Withdrawal(address indexed account, address indexed token, uint256 amount);\n  event AttestationExpiryBlocksSet(uint256 value);\n  event AttestationRequestFeeSet(address indexed token, uint256 value);\n  event SelectIssuersWaitBlocksSet(uint256 value);\n  event MaxAttestationsSet(uint256 value);\n  event AttestationsTransferred(\n    bytes32 indexed identifier,\n    address indexed fromAccount,\n    address indexed toAccount\n  );\n  event TransferApproval(\n    address indexed approver,\n    bytes32 indexed indentifier,\n    address from,\n    address to,\n    bool approved\n  );\n\n  /**\n   * @notice Sets initialized == true on implementation contracts\n   * @param test Set to true to skip implementation initialization\n   */\n  constructor(bool test) public Initializable(test) {}\n\n  /**\n   * @notice Used in place of the constructor to allow the contract to be upgradable via proxy.\n   * @param registryAddress The address of the registry core smart contract.\n   * @param _attestationExpiryBlocks The new limit on blocks allowed to come between requesting\n   * an attestation and completing it.\n   * @param _selectIssuersWaitBlocks The wait period in blocks to call selectIssuers on attestation\n   * requests.\n   * @param attestationRequestFeeTokens The address of tokens that fees should be payable in.\n   * @param attestationRequestFeeValues The corresponding fee values.\n   */\n  function initialize(\n    address registryAddress,\n    uint256 _attestationExpiryBlocks,\n    uint256 _selectIssuersWaitBlocks,\n    uint256 _maxAttestations,\n    address[] calldata attestationRequestFeeTokens,\n    uint256[] calldata attestationRequestFeeValues\n  ) external initializer {\n    _transferOwnership(msg.sender);\n    setRegistry(registryAddress);\n    setAttestationExpiryBlocks(_attestationExpiryBlocks);\n    setSelectIssuersWaitBlocks(_selectIssuersWaitBlocks);\n    setMaxAttestations(_maxAttestations);\n\n    require(\n      attestationRequestFeeTokens.length > 0 &&\n        attestationRequestFeeTokens.length == attestationRequestFeeValues.length,\n      \"attestationRequestFeeTokens specification was invalid\"\n    );\n    for (uint256 i = 0; i < attestationRequestFeeTokens.length; i = i.add(1)) {\n      setAttestationRequestFee(attestationRequestFeeTokens[i], attestationRequestFeeValues[i]);\n    }\n  }\n\n  /**\n   * @notice Revokes an account for an identifier.\n   * @param identifier The identifier for which to revoke.\n   * @param index The index of the account in the accounts array.\n   */\n  function revoke(bytes32 identifier, uint256 index) external {\n    uint256 numAccounts = identifiers[identifier].accounts.length;\n    require(index < numAccounts, \"Index is invalid\");\n    require(\n      msg.sender == identifiers[identifier].accounts[index],\n      \"Index does not match msg.sender\"\n    );\n\n    uint256 newNumAccounts = numAccounts.sub(1);\n    if (index != newNumAccounts) {\n      identifiers[identifier].accounts[index] = identifiers[identifier].accounts[newNumAccounts];\n    }\n    identifiers[identifier].accounts[newNumAccounts] = address(0x0);\n    identifiers[identifier].accounts.length = identifiers[identifier].accounts.length.sub(1);\n  }\n\n  /**\n   * @notice Allows issuers to withdraw accumulated attestation rewards.\n   * @param token The address of the token that will be withdrawn.\n   * @dev Throws if msg.sender does not have any rewards to withdraw.\n   */\n  function withdraw(address token) external {\n    address issuer = getAccounts().attestationSignerToAccount(msg.sender);\n    uint256 value = pendingWithdrawals[token][issuer];\n    require(value > 0, \"value was negative/zero\");\n    pendingWithdrawals[token][issuer] = 0;\n    require(IERC20(token).transfer(issuer, value), \"token transfer failed\");\n    emit Withdrawal(issuer, token, value);\n  }\n\n  /**\n   * @notice Returns the unselected attestation request for an identifier/account pair, if any.\n   * @param identifier Hash of the identifier.\n   * @param account Address of the account.\n   * @return block Block number at which was requested.\n   * @return number Number of unselected requests.\n   * @return address Address of the token with which this attestation request was paid for.\n   */\n  function getUnselectedRequest(\n    bytes32 identifier,\n    address account\n  ) external view returns (uint32, uint32, address) {\n    return (\n      identifiers[identifier].unselectedRequests[account].blockNumber,\n      identifiers[identifier].unselectedRequests[account].attestationsRequested,\n      identifiers[identifier].unselectedRequests[account].attestationRequestFeeToken\n    );\n  }\n\n  /**\n   * @notice Returns selected attestation issuers for a identifier/account pair.\n   * @param identifier Hash of the identifier.\n   * @param account Address of the account.\n   * @return Addresses of the selected attestation issuers.\n   */\n  function getAttestationIssuers(\n    bytes32 identifier,\n    address account\n  ) external view returns (address[] memory) {\n    return identifiers[identifier].attestations[account].selectedIssuers;\n  }\n\n  /**\n   * @notice Returns attestation stats for a identifier/account pair.\n   * @param identifier Hash of the identifier.\n   * @param account Address of the account.\n   * @return completed Number of completed attestations.\n   * @return requested Number of total requested attestations.\n   */\n  function getAttestationStats(\n    bytes32 identifier,\n    address account\n  ) external view returns (uint32, uint32) {\n    return (\n      identifiers[identifier].attestations[account].completed,\n      identifiers[identifier].attestations[account].requested\n    );\n  }\n\n  /**\n   * @notice Batch lookup function to determine attestation stats for a list of identifiers.\n   * @param identifiersToLookup Array of n identifiers.\n   * @return [0] Array of number of matching accounts per identifier.\n   * @return [1] Array of sum([0]) matching walletAddresses.\n   * @return [2] Array of sum([0]) numbers indicating the completions for each account.\n   * @return [3] Array of sum([0]) numbers indicating the total number of requested\n                 attestations for each account.\n   */\n  function batchGetAttestationStats(\n    bytes32[] calldata identifiersToLookup\n  ) external view returns (uint256[] memory, address[] memory, uint64[] memory, uint64[] memory) {\n    require(identifiersToLookup.length > 0, \"You have to pass at least one identifier\");\n\n    uint256[] memory matches;\n    address[] memory addresses;\n\n    (matches, addresses) = batchlookupAccountsForIdentifier(identifiersToLookup);\n\n    uint64[] memory completed = new uint64[](addresses.length);\n    uint64[] memory total = new uint64[](addresses.length);\n\n    uint256 currentIndex = 0;\n    for (uint256 i = 0; i < identifiersToLookup.length; i = i.add(1)) {\n      address[] memory addrs = identifiers[identifiersToLookup[i]].accounts;\n      for (uint256 matchIndex = 0; matchIndex < matches[i]; matchIndex = matchIndex.add(1)) {\n        addresses[currentIndex] = getAccounts().getWalletAddress(addrs[matchIndex]);\n        completed[currentIndex] = identifiers[identifiersToLookup[i]]\n          .attestations[addrs[matchIndex]]\n          .completed;\n        total[currentIndex] = identifiers[identifiersToLookup[i]]\n          .attestations[addrs[matchIndex]]\n          .requested;\n        currentIndex = currentIndex.add(1);\n      }\n    }\n\n    return (matches, addresses, completed, total);\n  }\n\n  /**\n   * @notice Returns the state of a specific attestation.\n   * @param identifier Hash of the identifier.\n   * @param account Address of the account.\n   * @param issuer Address of the issuer.\n   * @return status Status of the attestation.\n   * @return block Block number of request/completion the attestation.\n   * @return address Address of the token with which this attestation request was paid for.\n   */\n  function getAttestationState(\n    bytes32 identifier,\n    address account,\n    address issuer\n  ) external view returns (uint8, uint32, address) {\n    Attestation storage attestation = identifiers[identifier]\n      .attestations[account]\n      .issuedAttestations[issuer];\n    return (\n      uint8(attestation.status),\n      attestation.blockNumber,\n      attestation.attestationRequestFeeToken\n    );\n  }\n\n  /**\n   * @notice Returns the state of all attestations that are completable\n   * @param identifier Hash of the identifier.\n   * @param account Address of the account.\n   * @return Block number of request/completion the attestation.\n   * @return Address of the issuer.\n   * @return The length of each metadataURL string for each issuer.\n   * @return All strings concatenated.\n   */\n  function getCompletableAttestations(\n    bytes32 identifier,\n    address account\n  ) external view returns (uint32[] memory, address[] memory, uint256[] memory, bytes memory) {\n    AttestedAddress storage state = identifiers[identifier].attestations[account];\n    address[] storage issuers = state.selectedIssuers;\n\n    uint256 num = 0;\n    for (uint256 i = 0; i < issuers.length; i = i.add(1)) {\n      if (isAttestationCompletable(state.issuedAttestations[issuers[i]])) {\n        num = num.add(1);\n      }\n    }\n\n    uint32[] memory blockNumbers = new uint32[](num);\n    address[] memory completableIssuers = new address[](num);\n\n    uint256 pointer = 0;\n    for (uint256 i = 0; i < issuers.length; i = i.add(1)) {\n      if (isAttestationCompletable(state.issuedAttestations[issuers[i]])) {\n        blockNumbers[pointer] = state.issuedAttestations[issuers[i]].blockNumber;\n        completableIssuers[pointer] = issuers[i];\n        pointer = pointer.add(1);\n      }\n    }\n\n    uint256[] memory stringLengths;\n    bytes memory stringData;\n    (stringLengths, stringData) = getAccounts().batchGetMetadataURL(completableIssuers);\n    return (blockNumbers, completableIssuers, stringLengths, stringData);\n  }\n\n  /**\n   * @notice Returns the fee set for a particular token.\n   * @param token Address of the attestationRequestFeeToken.\n   * @return The fee.\n   */\n  function getAttestationRequestFee(address token) external view returns (uint256) {\n    return attestationRequestFees[token];\n  }\n\n  /**\n   * @notice Query 'maxAttestations'\n   * @return Maximum number of attestations that can be requested.\n   */\n  function getMaxAttestations() external view returns (uint256) {\n    return maxAttestations;\n  }\n\n  function lookupAccountsForIdentifier(\n    bytes32 identifier\n  ) external view returns (address[] memory) {\n    return identifiers[identifier].accounts;\n  }\n\n  /**\n   * @notice Require that a given identifier/address pair has\n   * requested a specific number of attestations.\n   * @param identifier Hash of the identifier.\n   * @param account Address of the account.\n   * @param expected Number of expected attestations\n   * @dev It can be used when batching meta-transactions to validate\n   * attestation are requested as expected in untrusted scenarios\n   */\n  function requireNAttestationsRequested(\n    bytes32 identifier,\n    address account,\n    uint32 expected\n  ) external view {\n    uint256 requested = identifiers[identifier].attestations[account].requested;\n    require(requested == expected, \"requested attestations does not match expected\");\n  }\n\n  /**\n   * @notice Returns the storage, major, minor, and patch version of the contract.\n   * @return Storage version of the contract.\n   * @return Major version of the contract.\n   * @return Minor version of the contract.\n   * @return Patch version of the contract.\n   */\n  function getVersionNumber() external pure returns (uint256, uint256, uint256, uint256) {\n    return (1, 3, 0, 0);\n  }\n\n  /**\n   * @notice Updates the fee  for a particular token.\n   * @param token The address of the attestationRequestFeeToken.\n   * @param fee The fee in 'token' that is required for each attestation.\n   */\n  function setAttestationRequestFee(address token, uint256 fee) public onlyOwner {\n    require(fee > 0, \"You have to specify a fee greater than 0\");\n    attestationRequestFees[token] = fee;\n    emit AttestationRequestFeeSet(token, fee);\n  }\n\n  /**\n   * @notice Updates 'attestationExpiryBlocks'.\n   * @param _attestationExpiryBlocks The new limit on blocks allowed to come between requesting\n   * an attestation and completing it.\n   */\n  function setAttestationExpiryBlocks(uint256 _attestationExpiryBlocks) public onlyOwner {\n    require(_attestationExpiryBlocks > 0, \"attestationExpiryBlocks has to be greater than 0\");\n    attestationExpiryBlocks = _attestationExpiryBlocks;\n    emit AttestationExpiryBlocksSet(_attestationExpiryBlocks);\n  }\n\n  /**\n   * @notice Updates 'selectIssuersWaitBlocks'.\n   * @param _selectIssuersWaitBlocks The wait period in blocks to call selectIssuers on attestation\n   *                                 requests.\n   */\n  function setSelectIssuersWaitBlocks(uint256 _selectIssuersWaitBlocks) public onlyOwner {\n    require(_selectIssuersWaitBlocks > 0, \"selectIssuersWaitBlocks has to be greater than 0\");\n    selectIssuersWaitBlocks = _selectIssuersWaitBlocks;\n    emit SelectIssuersWaitBlocksSet(_selectIssuersWaitBlocks);\n  }\n\n  /**\n   * @notice Updates 'maxAttestations'.\n   * @param _maxAttestations Maximum number of attestations that can be requested.\n   */\n  function setMaxAttestations(uint256 _maxAttestations) public onlyOwner {\n    require(_maxAttestations > 0, \"maxAttestations has to be greater than 0\");\n    maxAttestations = _maxAttestations;\n    emit MaxAttestationsSet(_maxAttestations);\n  }\n\n  /**\n   * @notice Validates the given attestation code.\n   * @param identifier The hash of the identifier to be attested.\n   * @param account Address of the account.\n   * @param v The recovery id of the incoming ECDSA signature.\n   * @param r Output value r of the ECDSA signature.\n   * @param s Output value s of the ECDSA signature.\n   * @return The issuer of the corresponding attestation.\n   * @dev Throws if there is no matching outstanding attestation request.\n   * @dev Throws if the attestation window has passed.\n   */\n  function validateAttestationCode(\n    bytes32 identifier,\n    address account,\n    uint8 v,\n    bytes32 r,\n    bytes32 s\n  ) public view returns (address) {\n    bytes32 codehash = keccak256(abi.encodePacked(identifier, account));\n    address signer = Signatures.getSignerOfMessageHash(codehash, v, r, s);\n    address issuer = getAccounts().attestationSignerToAccount(signer);\n\n    Attestation storage attestation = identifiers[identifier]\n      .attestations[account]\n      .issuedAttestations[issuer];\n\n    require(\n      attestation.status == AttestationStatus.Incomplete,\n      \"Attestation code does not match any outstanding attestation\"\n    );\n    require(!isAttestationExpired(attestation.blockNumber), \"Attestation timed out\");\n\n    return issuer;\n  }\n\n  /**\n   * @notice Helper function for batchGetAttestationStats to calculate the\n             total number of addresses that have >0 complete attestations for the identifiers.\n   * @param identifiersToLookup Array of n identifiers.\n   * @return Array of numbers that indicate the number of matching addresses per identifier.\n   * @return Array of addresses preallocated for total number of matches.\n   */\n  function batchlookupAccountsForIdentifier(\n    bytes32[] memory identifiersToLookup\n  ) internal view returns (uint256[] memory, address[] memory) {\n    require(identifiersToLookup.length > 0, \"You have to pass at least one identifier\");\n    uint256 totalAddresses = 0;\n    uint256[] memory matches = new uint256[](identifiersToLookup.length);\n\n    for (uint256 i = 0; i < identifiersToLookup.length; i = i.add(1)) {\n      uint256 count = identifiers[identifiersToLookup[i]].accounts.length;\n\n      totalAddresses = totalAddresses.add(count);\n      matches[i] = count;\n    }\n\n    return (matches, new address[](totalAddresses));\n  }\n\n  function isAttestationExpired(uint32 attestationRequestBlock) internal view returns (bool) {\n    return block.number >= uint256(attestationRequestBlock).add(attestationExpiryBlocks);\n  }\n\n  function isAttestationCompletable(Attestation storage attestation) internal view returns (bool) {\n    return (attestation.status == AttestationStatus.Incomplete &&\n      !isAttestationExpired(attestation.blockNumber));\n  }\n\n  function isAttestationRequestSelectable(\n    uint256 attestationRequestBlock\n  ) internal view returns (bool) {\n    return block.number < attestationRequestBlock.add(getRandom().randomnessBlockRetentionWindow());\n  }\n}\n",
  "sourcePath": "/Users/beaver/Development/temp/celo-monorepo/packages/protocol/contracts/identity/Attestations.sol",
  "compiler": {
    "name": "solc",
    "version": "0.5.13+commit.5b0b510c.Emscripten.clang"
  },
  "schemaVersion": "3.4.13",
  "updatedAt": "2025-05-05T17:49:51.481Z",
  "devdoc": {
    "methods": {
      "batchGetAttestationStats(bytes32[])": {
        "params": {
          "identifiersToLookup": "Array of n identifiers."
        },
        "return": "[0] Array of number of matching accounts per identifier.[1] Array of sum([0]) matching walletAddresses.[2] Array of sum([0]) numbers indicating the completions for each account.[3] Array of sum([0]) numbers indicating the total number of requested attestations for each account."
      },
      "constructor": {
        "params": {
          "test": "Set to true to skip implementation initialization"
        }
      },
      "getAttestationIssuers(bytes32,address)": {
        "params": {
          "account": "Address of the account.",
          "identifier": "Hash of the identifier."
        },
        "return": "Addresses of the selected attestation issuers."
      },
      "getAttestationRequestFee(address)": {
        "params": {
          "token": "Address of the attestationRequestFeeToken."
        },
        "return": "The fee."
      },
      "getAttestationState(bytes32,address,address)": {
        "params": {
          "account": "Address of the account.",
          "identifier": "Hash of the identifier.",
          "issuer": "Address of the issuer."
        },
        "return": "status Status of the attestation.block Block number of request/completion the attestation.address Address of the token with which this attestation request was paid for."
      },
      "getAttestationStats(bytes32,address)": {
        "params": {
          "account": "Address of the account.",
          "identifier": "Hash of the identifier."
        },
        "return": "completed Number of completed attestations.requested Number of total requested attestations."
      },
      "getCompletableAttestations(bytes32,address)": {
        "params": {
          "account": "Address of the account.",
          "identifier": "Hash of the identifier."
        },
        "return": "Block number of request/completion the attestation.Address of the issuer.The length of each metadataURL string for each issuer.All strings concatenated."
      },
      "getMaxAttestations()": {
        "return": "Maximum number of attestations that can be requested."
      },
      "getUnselectedRequest(bytes32,address)": {
        "params": {
          "account": "Address of the account.",
          "identifier": "Hash of the identifier."
        },
        "return": "block Block number at which was requested.number Number of unselected requests.address Address of the token with which this attestation request was paid for."
      },
      "getVersionNumber()": {
        "return": "Storage version of the contract.Major version of the contract.Minor version of the contract.Patch version of the contract."
      },
      "initialize(address,uint256,uint256,uint256,address[],uint256[])": {
        "params": {
          "_attestationExpiryBlocks": "The new limit on blocks allowed to come between requesting an attestation and completing it.",
          "_selectIssuersWaitBlocks": "The wait period in blocks to call selectIssuers on attestation requests.",
          "attestationRequestFeeTokens": "The address of tokens that fees should be payable in.",
          "attestationRequestFeeValues": "The corresponding fee values.",
          "registryAddress": "The address of the registry core smart contract."
        }
      },
      "isOwner()": {
        "details": "Returns true if the caller is the current owner."
      },
      "owner()": {
        "details": "Returns the address of the current owner."
      },
      "renounceOwnership()": {
        "details": "Leaves the contract without owner. It will not be possible to call `onlyOwner` functions anymore. Can only be called by the current owner.     * NOTE: Renouncing ownership will leave the contract without an owner, thereby removing any functionality that is only available to the owner."
      },
      "requireNAttestationsRequested(bytes32,address,uint32)": {
        "details": "It can be used when batching meta-transactions to validate attestation are requested as expected in untrusted scenarios",
        "params": {
          "account": "Address of the account.",
          "expected": "Number of expected attestations",
          "identifier": "Hash of the identifier."
        }
      },
      "revoke(bytes32,uint256)": {
        "params": {
          "identifier": "The identifier for which to revoke.",
          "index": "The index of the account in the accounts array."
        }
      },
      "setAttestationExpiryBlocks(uint256)": {
        "params": {
          "_attestationExpiryBlocks": "The new limit on blocks allowed to come between requesting an attestation and completing it."
        }
      },
      "setAttestationRequestFee(address,uint256)": {
        "params": {
          "fee": "The fee in 'token' that is required for each attestation.",
          "token": "The address of the attestationRequestFeeToken."
        }
      },
      "setMaxAttestations(uint256)": {
        "params": {
          "_maxAttestations": "Maximum number of attestations that can be requested."
        }
      },
      "setRegistry(address)": {
        "params": {
          "registryAddress": "The address of a registry contract for routing to other contracts."
        }
      },
      "setSelectIssuersWaitBlocks(uint256)": {
        "params": {
          "_selectIssuersWaitBlocks": "The wait period in blocks to call selectIssuers on attestation                                requests."
        }
      },
      "transferOwnership(address)": {
        "details": "Transfers ownership of the contract to a new account (`newOwner`). Can only be called by the current owner."
      },
      "validateAttestationCode(bytes32,address,uint8,bytes32,bytes32)": {
        "details": "Throws if there is no matching outstanding attestation request.Throws if the attestation window has passed.",
        "params": {
          "account": "Address of the account.",
          "identifier": "The hash of the identifier to be attested.",
          "r": "Output value r of the ECDSA signature.",
          "s": "Output value s of the ECDSA signature.",
          "v": "The recovery id of the incoming ECDSA signature."
        },
        "return": "The issuer of the corresponding attestation."
      },
      "withdraw(address)": {
        "details": "Throws if msg.sender does not have any rewards to withdraw.",
        "params": {
          "token": "The address of the token that will be withdrawn."
        }
      }
    },
    "title": "Contract mapping identifiers to accounts"
  },
  "userdoc": {
    "methods": {
      "batchGetAttestationStats(bytes32[])": {
        "notice": "Batch lookup function to determine attestation stats for a list of identifiers."
      },
      "constructor": "Sets initialized == true on implementation contracts",
      "getAttestationIssuers(bytes32,address)": {
        "notice": "Returns selected attestation issuers for a identifier/account pair."
      },
      "getAttestationRequestFee(address)": {
        "notice": "Returns the fee set for a particular token."
      },
      "getAttestationState(bytes32,address,address)": {
        "notice": "Returns the state of a specific attestation."
      },
      "getAttestationStats(bytes32,address)": {
        "notice": "Returns attestation stats for a identifier/account pair."
      },
      "getCompletableAttestations(bytes32,address)": {
        "notice": "Returns the state of all attestations that are completable"
      },
      "getMaxAttestations()": {
        "notice": "Query 'maxAttestations'"
      },
      "getUnselectedRequest(bytes32,address)": {
        "notice": "Returns the unselected attestation request for an identifier/account pair, if any."
      },
      "getVersionNumber()": {
        "notice": "Returns the storage, major, minor, and patch version of the contract."
      },
      "initialize(address,uint256,uint256,uint256,address[],uint256[])": {
        "notice": "Used in place of the constructor to allow the contract to be upgradable via proxy."
      },
      "requireNAttestationsRequested(bytes32,address,uint32)": {
        "notice": "Require that a given identifier/address pair has requested a specific number of attestations."
      },
      "revoke(bytes32,uint256)": {
        "notice": "Revokes an account for an identifier."
      },
      "setAttestationExpiryBlocks(uint256)": {
        "notice": "Updates 'attestationExpiryBlocks'."
      },
      "setAttestationRequestFee(address,uint256)": {
        "notice": "Updates the fee  for a particular token."
      },
      "setMaxAttestations(uint256)": {
        "notice": "Updates 'maxAttestations'."
      },
      "setRegistry(address)": {
        "notice": "Updates the address pointing to a Registry contract."
      },
      "setSelectIssuersWaitBlocks(uint256)": {
        "notice": "Updates 'selectIssuersWaitBlocks'."
      },
      "validateAttestationCode(bytes32,address,uint8,bytes32,bytes32)": {
        "notice": "Validates the given attestation code."
      },
      "withdraw(address)": {
        "notice": "Allows issuers to withdraw accumulated attestation rewards."
      }
    }
  }
}