{
  "contractName": "AttestationsTest",
  "abi": [
    {
      "anonymous": false,
      "inputs": [
        {
          "indexed": true,
          "internalType": "bytes32",
          "name": "identifier",
          "type": "bytes32"
        },
        {
          "indexed": true,
          "internalType": "address",
          "name": "account",
          "type": "address"
        },
        {
          "indexed": true,
          "internalType": "address",
          "name": "issuer",
          "type": "address"
        }
      ],
      "name": "AttestationCompleted",
      "type": "event"
    },
    {
      "anonymous": false,
      "inputs": [
        {
          "indexed": false,
          "internalType": "uint256",
          "name": "value",
          "type": "uint256"
        }
      ],
      "name": "AttestationExpiryBlocksSet",
      "type": "event"
    },
    {
      "anonymous": false,
      "inputs": [
        {
          "indexed": true,
          "internalType": "bytes32",
          "name": "identifier",
          "type": "bytes32"
        },
        {
          "indexed": true,
          "internalType": "address",
          "name": "account",
          "type": "address"
        },
        {
          "indexed": true,
          "internalType": "address",
          "name": "issuer",
          "type": "address"
        },
        {
          "indexed": false,
          "internalType": "address",
          "name": "attestationRequestFeeToken",
          "type": "address"
        }
      ],
      "name": "AttestationIssuerSelected",
      "type": "event"
    },
    {
      "anonymous": false,
      "inputs": [
        {
          "indexed": true,
          "internalType": "address",
          "name": "token",
          "type": "address"
        },
        {
          "indexed": false,
          "internalType": "uint256",
          "name": "value",
          "type": "uint256"
        }
      ],
      "name": "AttestationRequestFeeSet",
      "type": "event"
    },
    {
      "anonymous": false,
      "inputs": [
        {
          "indexed": true,
          "internalType": "bytes32",
          "name": "identifier",
          "type": "bytes32"
        },
        {
          "indexed": true,
          "internalType": "address",
          "name": "account",
          "type": "address"
        },
        {
          "indexed": false,
          "internalType": "uint256",
          "name": "attestationsRequested",
          "type": "uint256"
        },
        {
          "indexed": false,
          "internalType": "address",
          "name": "attestationRequestFeeToken",
          "type": "address"
        }
      ],
      "name": "AttestationsRequested",
      "type": "event"
    },
    {
      "anonymous": false,
      "inputs": [
        {
          "indexed": true,
          "internalType": "bytes32",
          "name": "identifier",
          "type": "bytes32"
        },
        {
          "indexed": true,
          "internalType": "address",
          "name": "fromAccount",
          "type": "address"
        },
        {
          "indexed": true,
          "internalType": "address",
          "name": "toAccount",
          "type": "address"
        }
      ],
      "name": "AttestationsTransferred",
      "type": "event"
    },
    {
      "anonymous": false,
      "inputs": [
        {
          "indexed": false,
          "internalType": "uint256",
          "name": "value",
          "type": "uint256"
        }
      ],
      "name": "MaxAttestationsSet",
      "type": "event"
    },
    {
      "anonymous": false,
      "inputs": [
        {
          "indexed": true,
          "internalType": "address",
          "name": "previousOwner",
          "type": "address"
        },
        {
          "indexed": true,
          "internalType": "address",
          "name": "newOwner",
          "type": "address"
        }
      ],
      "name": "OwnershipTransferred",
      "type": "event"
    },
    {
      "anonymous": false,
      "inputs": [
        {
          "indexed": true,
          "internalType": "address",
          "name": "registryAddress",
          "type": "address"
        }
      ],
      "name": "RegistrySet",
      "type": "event"
    },
    {
      "anonymous": false,
      "inputs": [
        {
          "indexed": false,
          "internalType": "uint256",
          "name": "value",
          "type": "uint256"
        }
      ],
      "name": "SelectIssuersWaitBlocksSet",
      "type": "event"
    },
    {
      "anonymous": false,
      "inputs": [
        {
          "indexed": true,
          "internalType": "address",
          "name": "approver",
          "type": "address"
        },
        {
          "indexed": true,
          "internalType": "bytes32",
          "name": "indentifier",
          "type": "bytes32"
        },
        {
          "indexed": false,
          "internalType": "address",
          "name": "from",
          "type": "address"
        },
        {
          "indexed": false,
          "internalType": "address",
          "name": "to",
          "type": "address"
        },
        {
          "indexed": false,
          "internalType": "bool",
          "name": "approved",
          "type": "bool"
        }
      ],
      "name": "TransferApproval",
      "type": "event"
    },
    {
      "anonymous": false,
      "inputs": [
        {
          "indexed": true,
          "internalType": "address",
          "name": "account",
          "type": "address"
        },
        {
          "indexed": true,
          "internalType": "address",
          "name": "token",
          "type": "address"
        },
        {
          "indexed": false,
          "internalType": "uint256",
          "name": "amount",
          "type": "uint256"
        }
      ],
      "name": "Withdrawal",
      "type": "event"
    },
    {
      "constant": true,
      "inputs": [],
      "name": "attestationExpiryBlocks",
      "outputs": [
        {
          "internalType": "uint256",
          "name": "",
          "type": "uint256"
        }
      ],
      "payable": false,
      "stateMutability": "view",
      "type": "function"
    },
    {
      "constant": true,
      "inputs": [
        {
          "internalType": "address",
          "name": "",
          "type": "address"
        }
      ],
      "name": "attestationRequestFees",
      "outputs": [
        {
          "internalType": "uint256",
          "name": "",
          "type": "uint256"
        }
      ],
      "payable": false,
      "stateMutability": "view",
      "type": "function"
    },
    {
      "constant": true,
      "inputs": [
        {
          "internalType": "bytes32[]",
          "name": "identifiersToLookup",
          "type": "bytes32[]"
        }
      ],
      "name": "batchGetAttestationStats",
      "outputs": [
        {
          "internalType": "uint256[]",
          "name": "",
          "type": "uint256[]"
        },
        {
          "internalType": "address[]",
          "name": "",
          "type": "address[]"
        },
        {
          "internalType": "uint64[]",
          "name": "",
          "type": "uint64[]"
        },
        {
          "internalType": "uint64[]",
          "name": "",
          "type": "uint64[]"
        }
      ],
      "payable": false,
      "stateMutability": "view",
      "type": "function"
    },
    {
      "constant": true,
      "inputs": [
        {
          "internalType": "bytes32",
          "name": "identifier",
          "type": "bytes32"
        },
        {
          "internalType": "address",
          "name": "account",
          "type": "address"
        }
      ],
      "name": "getAttestationIssuers",
      "outputs": [
        {
          "internalType": "address[]",
          "name": "",
          "type": "address[]"
        }
      ],
      "payable": false,
      "stateMutability": "view",
      "type": "function"
    },
    {
      "constant": true,
      "inputs": [
        {
          "internalType": "address",
          "name": "token",
          "type": "address"
        }
      ],
      "name": "getAttestationRequestFee",
      "outputs": [
        {
          "internalType": "uint256",
          "name": "",
          "type": "uint256"
        }
      ],
      "payable": false,
      "stateMutability": "view",
      "type": "function"
    },
    {
      "constant": true,
      "inputs": [
        {
          "internalType": "bytes32",
          "name": "identifier",
          "type": "bytes32"
        },
        {
          "internalType": "address",
          "name": "account",
          "type": "address"
        },
        {
          "internalType": "address",
          "name": "issuer",
          "type": "address"
        }
      ],
      "name": "getAttestationState",
      "outputs": [
        {
          "internalType": "uint8",
          "name": "",
          "type": "uint8"
        },
        {
          "internalType": "uint32",
          "name": "",
          "type": "uint32"
        },
        {
          "internalType": "address",
          "name": "",
          "type": "address"
        }
      ],
      "payable": false,
      "stateMutability": "view",
      "type": "function"
    },
    {
      "constant": true,
      "inputs": [
        {
          "internalType": "bytes32",
          "name": "identifier",
          "type": "bytes32"
        },
        {
          "internalType": "address",
          "name": "account",
          "type": "address"
        }
      ],
      "name": "getAttestationStats",
      "outputs": [
        {
          "internalType": "uint32",
          "name": "",
          "type": "uint32"
        },
        {
          "internalType": "uint32",
          "name": "",
          "type": "uint32"
        }
      ],
      "payable": false,
      "stateMutability": "view",
      "type": "function"
    },
    {
      "constant": true,
      "inputs": [
        {
          "internalType": "bytes32",
          "name": "identifier",
          "type": "bytes32"
        },
        {
          "internalType": "address",
          "name": "account",
          "type": "address"
        }
      ],
      "name": "getCompletableAttestations",
      "outputs": [
        {
          "internalType": "uint32[]",
          "name": "",
          "type": "uint32[]"
        },
        {
          "internalType": "address[]",
          "name": "",
          "type": "address[]"
        },
        {
          "internalType": "uint256[]",
          "name": "",
          "type": "uint256[]"
        },
        {
          "internalType": "bytes",
          "name": "",
          "type": "bytes"
        }
      ],
      "payable": false,
      "stateMutability": "view",
      "type": "function"
    },
    {
      "constant": true,
      "inputs": [],
      "name": "getMaxAttestations",
      "outputs": [
        {
          "internalType": "uint256",
          "name": "",
          "type": "uint256"
        }
      ],
      "payable": false,
      "stateMutability": "view",
      "type": "function"
    },
    {
      "constant": true,
      "inputs": [
        {
          "internalType": "bytes32",
          "name": "identifier",
          "type": "bytes32"
        },
        {
          "internalType": "address",
          "name": "account",
          "type": "address"
        }
      ],
      "name": "getUnselectedRequest",
      "outputs": [
        {
          "internalType": "uint32",
          "name": "",
          "type": "uint32"
        },
        {
          "internalType": "uint32",
          "name": "",
          "type": "uint32"
        },
        {
          "internalType": "address",
          "name": "",
          "type": "address"
        }
      ],
      "payable": false,
      "stateMutability": "view",
      "type": "function"
    },
    {
      "constant": true,
      "inputs": [],
      "name": "getVersionNumber",
      "outputs": [
        {
          "internalType": "uint256",
          "name": "",
          "type": "uint256"
        },
        {
          "internalType": "uint256",
          "name": "",
          "type": "uint256"
        },
        {
          "internalType": "uint256",
          "name": "",
          "type": "uint256"
        },
        {
          "internalType": "uint256",
          "name": "",
          "type": "uint256"
        }
      ],
      "payable": false,
      "stateMutability": "pure",
      "type": "function"
    },
    {
      "constant": false,
      "inputs": [
        {
          "internalType": "address",
          "name": "registryAddress",
          "type": "address"
        },
        {
          "internalType": "uint256",
          "name": "_attestationExpiryBlocks",
          "type": "uint256"
        },
        {
          "internalType": "uint256",
          "name": "_selectIssuersWaitBlocks",
          "type": "uint256"
        },
        {
          "internalType": "uint256",
          "name": "_maxAttestations",
          "type": "uint256"
        },
        {
          "internalType": "address[]",
          "name": "attestationRequestFeeTokens",
          "type": "address[]"
        },
        {
          "internalType": "uint256[]",
          "name": "attestationRequestFeeValues",
          "type": "uint256[]"
        }
      ],
      "name": "initialize",
      "outputs": [],
      "payable": false,
      "stateMutability": "nonpayable",
      "type": "function"
    },
    {
      "constant": true,
      "inputs": [],
      "name": "initialized",
      "outputs": [
        {
          "internalType": "bool",
          "name": "",
          "type": "bool"
        }
      ],
      "payable": false,
      "stateMutability": "view",
      "type": "function"
    },
    {
      "constant": true,
      "inputs": [],
      "name": "isOwner",
      "outputs": [
        {
          "internalType": "bool",
          "name": "",
          "type": "bool"
        }
      ],
      "payable": false,
      "stateMutability": "view",
      "type": "function"
    },
    {
      "constant": true,
      "inputs": [
        {
          "internalType": "bytes32",
          "name": "identifier",
          "type": "bytes32"
        }
      ],
      "name": "lookupAccountsForIdentifier",
      "outputs": [
        {
          "internalType": "address[]",
          "name": "",
          "type": "address[]"
        }
      ],
      "payable": false,
      "stateMutability": "view",
      "type": "function"
    },
    {
      "constant": true,
      "inputs": [],
      "name": "maxAttestations",
      "outputs": [
        {
          "internalType": "uint256",
          "name": "",
          "type": "uint256"
        }
      ],
      "payable": false,
      "stateMutability": "view",
      "type": "function"
    },
    {
      "constant": true,
      "inputs": [],
      "name": "owner",
      "outputs": [
        {
          "internalType": "address",
          "name": "",
          "type": "address"
        }
      ],
      "payable": false,
      "stateMutability": "view",
      "type": "function"
    },
    {
      "constant": true,
      "inputs": [
        {
          "internalType": "address",
          "name": "",
          "type": "address"
        },
        {
          "internalType": "address",
          "name": "",
          "type": "address"
        }
      ],
      "name": "pendingWithdrawals",
      "outputs": [
        {
          "internalType": "uint256",
          "name": "",
          "type": "uint256"
        }
      ],
      "payable": false,
      "stateMutability": "view",
      "type": "function"
    },
    {
      "constant": true,
      "inputs": [],
      "name": "registry",
      "outputs": [
        {
          "internalType": "contract IRegistry",
          "name": "",
          "type": "address"
        }
      ],
      "payable": false,
      "stateMutability": "view",
      "type": "function"
    },
    {
      "constant": false,
      "inputs": [],
      "name": "renounceOwnership",
      "outputs": [],
      "payable": false,
      "stateMutability": "nonpayable",
      "type": "function"
    },
    {
      "constant": true,
      "inputs": [
        {
          "internalType": "bytes32",
          "name": "identifier",
          "type": "bytes32"
        },
        {
          "internalType": "address",
          "name": "account",
          "type": "address"
        },
        {
          "internalType": "uint32",
          "name": "expected",
          "type": "uint32"
        }
      ],
      "name": "requireNAttestationsRequested",
      "outputs": [],
      "payable": false,
      "stateMutability": "view",
      "type": "function"
    },
    {
      "constant": false,
      "inputs": [
        {
          "internalType": "bytes32",
          "name": "identifier",
          "type": "bytes32"
        },
        {
          "internalType": "uint256",
          "name": "index",
          "type": "uint256"
        }
      ],
      "name": "revoke",
      "outputs": [],
      "payable": false,
      "stateMutability": "nonpayable",
      "type": "function"
    },
    {
      "constant": true,
      "inputs": [],
      "name": "selectIssuersWaitBlocks",
      "outputs": [
        {
          "internalType": "uint256",
          "name": "",
          "type": "uint256"
        }
      ],
      "payable": false,
      "stateMutability": "view",
      "type": "function"
    },
    {
      "constant": false,
      "inputs": [
        {
          "internalType": "uint256",
          "name": "_attestationExpiryBlocks",
          "type": "uint256"
        }
      ],
      "name": "setAttestationExpiryBlocks",
      "outputs": [],
      "payable": false,
      "stateMutability": "nonpayable",
      "type": "function"
    },
    {
      "constant": false,
      "inputs": [
        {
          "internalType": "address",
          "name": "token",
          "type": "address"
        },
        {
          "internalType": "uint256",
          "name": "fee",
          "type": "uint256"
        }
      ],
      "name": "setAttestationRequestFee",
      "outputs": [],
      "payable": false,
      "stateMutability": "nonpayable",
      "type": "function"
    },
    {
      "constant": false,
      "inputs": [
        {
          "internalType": "uint256",
          "name": "_maxAttestations",
          "type": "uint256"
        }
      ],
      "name": "setMaxAttestations",
      "outputs": [],
      "payable": false,
      "stateMutability": "nonpayable",
      "type": "function"
    },
    {
      "constant": false,
      "inputs": [
        {
          "internalType": "address",
          "name": "registryAddress",
          "type": "address"
        }
      ],
      "name": "setRegistry",
      "outputs": [],
      "payable": false,
      "stateMutability": "nonpayable",
      "type": "function"
    },
    {
      "constant": false,
      "inputs": [
        {
          "internalType": "uint256",
          "name": "_selectIssuersWaitBlocks",
          "type": "uint256"
        }
      ],
      "name": "setSelectIssuersWaitBlocks",
      "outputs": [],
      "payable": false,
      "stateMutability": "nonpayable",
      "type": "function"
    },
    {
      "constant": true,
      "inputs": [
        {
          "internalType": "address",
          "name": "",
          "type": "address"
        },
        {
          "internalType": "bytes32",
          "name": "",
          "type": "bytes32"
        }
      ],
      "name": "transferApprovals",
      "outputs": [
        {
          "internalType": "bool",
          "name": "",
          "type": "bool"
        }
      ],
      "payable": false,
      "stateMutability": "view",
      "type": "function"
    },
    {
      "constant": false,
      "inputs": [
        {
          "internalType": "address",
          "name": "newOwner",
          "type": "address"
        }
      ],
      "name": "transferOwnership",
      "outputs": [],
      "payable": false,
      "stateMutability": "nonpayable",
      "type": "function"
    },
    {
      "constant": true,
      "inputs": [
        {
          "internalType": "bytes32",
          "name": "identifier",
          "type": "bytes32"
        },
        {
          "internalType": "address",
          "name": "account",
          "type": "address"
        },
        {
          "internalType": "uint8",
          "name": "v",
          "type": "uint8"
        },
        {
          "internalType": "bytes32",
          "name": "r",
          "type": "bytes32"
        },
        {
          "internalType": "bytes32",
          "name": "s",
          "type": "bytes32"
        }
      ],
      "name": "validateAttestationCode",
      "outputs": [
        {
          "internalType": "address",
          "name": "",
          "type": "address"
        }
      ],
      "payable": false,
      "stateMutability": "view",
      "type": "function"
    },
    {
      "constant": false,
      "inputs": [
        {
          "internalType": "address",
          "name": "token",
          "type": "address"
        }
      ],
      "name": "withdraw",
      "outputs": [],
      "payable": false,
      "stateMutability": "nonpayable",
      "type": "function"
    },
    {
      "constant": false,
      "inputs": [
        {
          "internalType": "bytes32",
          "name": "identifier",
          "type": "bytes32"
        },
        {
          "internalType": "uint256",
          "name": "attestationsRequested",
          "type": "uint256"
        },
        {
          "internalType": "address",
          "name": "attestationRequestFeeToken",
          "type": "address"
        }
      ],
      "name": "request",
      "outputs": [],
      "payable": false,
      "stateMutability": "nonpayable",
      "type": "function"
    },
    {
      "constant": false,
      "inputs": [
        {
          "internalType": "bytes32",
          "name": "identifier",
          "type": "bytes32"
        }
      ],
      "name": "selectIssuers",
      "outputs": [],
      "payable": false,
      "stateMutability": "nonpayable",
      "type": "function"
    },
    {
      "constant": false,
      "inputs": [
        {
          "internalType": "bytes32",
          "name": "identifier",
          "type": "bytes32"
        },
        {
          "internalType": "uint8",
          "name": "v",
          "type": "uint8"
        },
        {
          "internalType": "bytes32",
          "name": "r",
          "type": "bytes32"
        },
        {
          "internalType": "bytes32",
          "name": "s",
          "type": "bytes32"
        }
      ],
      "name": "complete",
      "outputs": [],
      "payable": false,
      "stateMutability": "nonpayable",
      "type": "function"
    },
    {
      "constant": false,
      "inputs": [
        {
          "internalType": "address[]",
          "name": "validators",
          "type": "address[]"
        }
      ],
      "name": "__setValidators",
      "outputs": [],
      "payable": false,
      "stateMutability": "nonpayable",
      "type": "function"
    },
    {
      "constant": true,
      "inputs": [],
      "name": "numberValidatorsInCurrentSet",
      "outputs": [
        {
          "internalType": "uint256",
          "name": "",
          "type": "uint256"
        }
      ],
      "payable": false,
      "stateMutability": "view",
      "type": "function"
    },
    {
      "constant": true,
      "inputs": [
        {
          "internalType": "uint256",
          "name": "index",
          "type": "uint256"
        }
      ],
      "name": "validatorSignerAddressFromCurrentSet",
      "outputs": [
        {
          "internalType": "address",
          "name": "",
          "type": "address"
        }
      ],
      "payable": false,
      "stateMutability": "view",
      "type": "function"
    }
  ],
  "bytecode": "0x6080604052600180600062000019620000e960201b60201c565b9050806000806101000a81548173ffffffffffffffffffffffffffffffffffffffff021916908373ffffffffffffffffffffffffffffffffffffffff1602179055508073ffffffffffffffffffffffffffffffffffffffff16600073ffffffffffffffffffffffffffffffffffffffff167f8be0079c531659141344cd1fd0a4f28419497f9722a3daafe3b4186f6b6457e060405160405180910390a35080620000d9576001600060146101000a81548160ff0219169083151502179055505b50600160028190555050620000f1565b600033905090565b615c2b80620001016000396000f3fe608060405234801561001057600080fd5b50600436106102325760003560e01c80638f32d59b11610130578063be2c47a6116100b8578063e831be581161007c578063e831be5814610f69578063f2fde38b14610fe1578063f3ff26c614611025578063fb6a2e5314611073578063fd536f5d146110c257610232565b8063be2c47a614610dd3578063d02e0f0c14610e01578063e02659ce14610e59578063e221932e14610e87578063e3d0f66f14610eb557610232565b8063a91ee0dc116100ff578063a91ee0dc14610c13578063b45eb7da14610c57578063b5599cc614610c75578063bb46942f14610d43578063bd93f99814610d7b57610232565b80638f32d59b146109bf57806396357c0a146109e1578063a6437e7314610b87578063a762825a14610bb557610232565b80635fc5c916116101be5780638218c6fe116101825780638218c6fe146108b557806384a1a4fc146108d357806387ee8a0f1461093957806389d35286146109575780638da5cb5b1461097557610232565b80635fc5c91614610748578063623d5931146107eb578063715018a6146108435780637796a6841461084d5780637b1039991461086b57610232565b80634eef7e85116102055780634eef7e851461040257806351cff8d9146105a157806354255be0146105e5578063596abea5146106185780635ce9bc071461069957610232565b806303cc1aff1461023757806306cbc788146102ba578063123633ea14610372578063158ef93e146103e0575b600080fd5b6102636004803603602081101561024d57600080fd5b81019080803590602001909291905050506111ce565b6040518080602001828103825283818151815260200191508051906020019060200280838360005b838110156102a657808201518184015260208101905061028b565b505050509050019250505060405180910390f35b610370600480360360208110156102d057600080fd5b81019080803590602001906401000000008111156102ed57600080fd5b8201836020820111156102ff57600080fd5b8035906020019184602083028401116401000000008311171561032157600080fd5b919080806020026020016040519081016040528093929190818152602001838360200280828437600081840152601f19601f820116905080830192505050505050509192919290505050611272565b005b61039e6004803603602081101561038857600080fd5b810190808035906020019092919050505061128c565b604051808273ffffffffffffffffffffffffffffffffffffffff1673ffffffffffffffffffffffffffffffffffffffff16815260200191505060405180910390f35b6103e86112cd565b604051808215151515815260200191505060405180910390f35b61044e6004803603604081101561041857600080fd5b8101908080359060200190929190803573ffffffffffffffffffffffffffffffffffffffff1690602001909291905050506112e0565b6040518080602001806020018060200180602001858103855289818151815260200191508051906020019060200280838360005b8381101561049d578082015181840152602081019050610482565b50505050905001858103845288818151815260200191508051906020019060200280838360005b838110156104df5780820151818401526020810190506104c4565b50505050905001858103835287818151815260200191508051906020019060200280838360005b83811015610521578082015181840152602081019050610506565b50505050905001858103825286818151815260200191508051906020019080838360005b83811015610560578082015181840152602081019050610545565b50505050905090810190601f16801561058d5780820380516001836020036101000a031916815260200191505b509850505050505050505060405180910390f35b6105e3600480360360208110156105b757600080fd5b81019080803573ffffffffffffffffffffffffffffffffffffffff1690602001909291905050506118c4565b005b6105ed611c9e565b6040518085815260200184815260200183815260200182815260200194505050505060405180910390f35b6106646004803603604081101561062e57600080fd5b8101908080359060200190929190803573ffffffffffffffffffffffffffffffffffffffff169060200190929190505050611cc5565b604051808363ffffffff1663ffffffff1681526020018263ffffffff1663ffffffff1681526020019250505060405180910390f35b610706600480360360a08110156106af57600080fd5b8101908080359060200190929190803573ffffffffffffffffffffffffffffffffffffffff169060200190929190803560ff1690602001909291908035906020019092919080359060200190929190505050611da1565b604051808273ffffffffffffffffffffffffffffffffffffffff1673ffffffffffffffffffffffffffffffffffffffff16815260200191505060405180910390f35b6107946004803603604081101561075e57600080fd5b8101908080359060200190929190803573ffffffffffffffffffffffffffffffffffffffff16906020019092919050505061212a565b6040518080602001828103825283818151815260200191508051906020019060200280838360005b838110156107d75780820151818401526020810190506107bc565b505050509050019250505060405180910390f35b61082d6004803603602081101561080157600080fd5b81019080803573ffffffffffffffffffffffffffffffffffffffff16906020019092919050505061220f565b6040518082815260200191505060405180910390f35b61084b612258565b005b610855612391565b6040518082815260200191505060405180910390f35b61087361239b565b604051808273ffffffffffffffffffffffffffffffffffffffff1673ffffffffffffffffffffffffffffffffffffffff16815260200191505060405180910390f35b6108bd6123c1565b6040518082815260200191505060405180910390f35b61091f600480360360408110156108e957600080fd5b81019080803573ffffffffffffffffffffffffffffffffffffffff169060200190929190803590602001909291905050506123c7565b604051808215151515815260200191505060405180910390f35b6109416123f6565b6040518082815260200191505060405180910390f35b61095f612403565b6040518082815260200191505060405180910390f35b61097d612409565b604051808273ffffffffffffffffffffffffffffffffffffffff1673ffffffffffffffffffffffffffffffffffffffff16815260200191505060405180910390f35b6109c7612432565b604051808215151515815260200191505060405180910390f35b610a58600480360360208110156109f757600080fd5b8101908080359060200190640100000000811115610a1457600080fd5b820183602082011115610a2657600080fd5b80359060200191846020830284011164010000000083111715610a4857600080fd5b9091929391929390505050612490565b6040518080602001806020018060200180602001858103855289818151815260200191508051906020019060200280838360005b83811015610aa7578082015181840152602081019050610a8c565b50505050905001858103845288818151815260200191508051906020019060200280838360005b83811015610ae9578082015181840152602081019050610ace565b50505050905001858103835287818151815260200191508051906020019060200280838360005b83811015610b2b578082015181840152602081019050610b10565b50505050905001858103825286818151815260200191508051906020019060200280838360005b83811015610b6d578082015181840152602081019050610b52565b505050509050019850505050505050505060405180910390f35b610bb360048036036020811015610b9d57600080fd5b810190808035906020019092919050505061299a565b005b610c1160048036036060811015610bcb57600080fd5b8101908080359060200190929190803573ffffffffffffffffffffffffffffffffffffffff169060200190929190803563ffffffff169060200190929190505050612aae565b005b610c5560048036036020811015610c2957600080fd5b81019080803573ffffffffffffffffffffffffffffffffffffffff169060200190929190505050612b83565b005b610c5f612d27565b6040518082815260200191505060405180910390f35b610ce160048036036060811015610c8b57600080fd5b8101908080359060200190929190803573ffffffffffffffffffffffffffffffffffffffff169060200190929190803573ffffffffffffffffffffffffffffffffffffffff169060200190929190505050612d2d565b604051808460ff1660ff1681526020018363ffffffff1663ffffffff1681526020018273ffffffffffffffffffffffffffffffffffffffff1673ffffffffffffffffffffffffffffffffffffffff168152602001935050505060405180910390f35b610d7960048036036040811015610d5957600080fd5b810190808035906020019092919080359060200190929190505050612e2f565b005b610dbd60048036036020811015610d9157600080fd5b81019080803573ffffffffffffffffffffffffffffffffffffffff169060200190929190505050613143565b6040518082815260200191505060405180910390f35b610dff60048036036020811015610de957600080fd5b810190808035906020019092919050505061315b565b005b610e5760048036036060811015610e1757600080fd5b810190808035906020019092919080359060200190929190803573ffffffffffffffffffffffffffffffffffffffff16906020019092919050505061326f565b005b610e8560048036036020811015610e6f57600080fd5b8101908080359060200190929190505050613a56565b005b610eb360048036036020811015610e9d57600080fd5b8101908080359060200190929190505050613b6a565b005b610f0160048036036040811015610ecb57600080fd5b8101908080359060200190929190803573ffffffffffffffffffffffffffffffffffffffff169060200190929190505050613d8d565b604051808463ffffffff1663ffffffff1681526020018363ffffffff1663ffffffff1681526020018273ffffffffffffffffffffffffffffffffffffffff1673ffffffffffffffffffffffffffffffffffffffff168152602001935050505060405180910390f35b610fcb60048036036040811015610f7f57600080fd5b81019080803573ffffffffffffffffffffffffffffffffffffffff169060200190929190803573ffffffffffffffffffffffffffffffffffffffff169060200190929190505050613ee4565b6040518082815260200191505060405180910390f35b61102360048036036020811015610ff757600080fd5b81019080803573ffffffffffffffffffffffffffffffffffffffff169060200190929190505050613f09565b005b6110716004803603604081101561103b57600080fd5b81019080803573ffffffffffffffffffffffffffffffffffffffff16906020019092919080359060200190929190505050613f8f565b005b6110c06004803603608081101561108957600080fd5b8101908080359060200190929190803560ff16906020019092919080359060200190929190803590602001909291905050506140f8565b005b6111cc600480360360c08110156110d857600080fd5b81019080803573ffffffffffffffffffffffffffffffffffffffff1690602001909291908035906020019092919080359060200190929190803590602001909291908035906020019064010000000081111561113357600080fd5b82018360208201111561114557600080fd5b8035906020019184602083028401116401000000008311171561116757600080fd5b90919293919293908035906020019064010000000081111561118857600080fd5b82018360208201111561119a57600080fd5b803590602001918460208302840111640100000000831117156111bc57600080fd5b9091929391929390505050614627565b005b60606003600083815260200190815260200160002060000180548060200260200160405190810160405280929190818152602001828054801561126657602002820191906000526020600020905b8160009054906101000a900473ffffffffffffffffffffffffffffffffffffffff1673ffffffffffffffffffffffffffffffffffffffff168152602001906001019080831161121c575b50505050509050919050565b80600a90805190602001906112889291906157eb565b5050565b6000600a828154811061129b57fe5b9060005260206000200160009054906101000a900473ffffffffffffffffffffffffffffffffffffffff169050919050565b600060149054906101000a900460ff1681565b60608060608060006003600088815260200190815260200160002060010160008773ffffffffffffffffffffffffffffffffffffffff1673ffffffffffffffffffffffffffffffffffffffff16815260200190815260200160002090506000816001019050600080905060008090505b8280549050811015611412576113db84600201600085848154811061137157fe5b9060005260206000200160009054906101000a900473ffffffffffffffffffffffffffffffffffffffff1673ffffffffffffffffffffffffffffffffffffffff1673ffffffffffffffffffffffffffffffffffffffff1681526020019081526020016000206147da565b156113f7576113f460018361483490919063ffffffff16565b91505b61140b60018261483490919063ffffffff16565b9050611350565b506060816040519080825280602002602001820160405280156114445781602001602082028038833980820191505090505b5090506060826040519080825280602002602001820160405280156114785781602001602082028038833980820191505090505b509050600080905060008090505b8580549050811015611676576115118760020160008884815481106114a757fe5b9060005260206000200160009054906101000a900473ffffffffffffffffffffffffffffffffffffffff1673ffffffffffffffffffffffffffffffffffffffff1673ffffffffffffffffffffffffffffffffffffffff1681526020019081526020016000206147da565b1561165b5786600201600087838154811061152857fe5b9060005260206000200160009054906101000a900473ffffffffffffffffffffffffffffffffffffffff1673ffffffffffffffffffffffffffffffffffffffff1673ffffffffffffffffffffffffffffffffffffffff16815260200190815260200160002060000160019054906101000a900463ffffffff168483815181106115ad57fe5b602002602001019063ffffffff16908163ffffffff16815250508581815481106115d357fe5b9060005260206000200160009054906101000a900473ffffffffffffffffffffffffffffffffffffffff1683838151811061160a57fe5b602002602001019073ffffffffffffffffffffffffffffffffffffffff16908173ffffffffffffffffffffffffffffffffffffffff168152505061165860018361483490919063ffffffff16565b91505b61166f60018261483490919063ffffffff16565b9050611486565b506060806116826148bc565b73ffffffffffffffffffffffffffffffffffffffff16638adaf96f856040518263ffffffff1660e01b81526004018080602001828103825283818151815260200191508051906020019060200280838360005b838110156116f05780820151818401526020810190506116d5565b505050509050019250505060006040518083038186803b15801561171357600080fd5b505afa158015611727573d6000803e3d6000fd5b505050506040513d6000823e3d601f19601f82011682018060405250604081101561175157600080fd5b810190808051604051939291908464010000000082111561177157600080fd5b8382019150602082018581111561178757600080fd5b82518660208202830111640100000000821117156117a457600080fd5b8083526020830192505050908051906020019060200280838360005b838110156117db5780820151818401526020810190506117c0565b505050509050016040526020018051604051939291908464010000000082111561180457600080fd5b8382019150602082018581111561181a57600080fd5b825186600182028301116401000000008211171561183757600080fd5b8083526020830192505050908051906020019080838360005b8381101561186b578082015181840152602081019050611850565b50505050905090810190601f1680156118985780820380516001836020036101000a031916815260200191505b506040525050508092508193505050848483839b509b509b509b50505050505050505092959194509250565b60006118ce6148bc565b73ffffffffffffffffffffffffffffffffffffffff16637b2434cb336040518263ffffffff1660e01b8152600401808273ffffffffffffffffffffffffffffffffffffffff1673ffffffffffffffffffffffffffffffffffffffff16815260200191505060206040518083038186803b15801561194a57600080fd5b505afa15801561195e573d6000803e3d6000fd5b505050506040513d602081101561197457600080fd5b810190808051906020019092919050505090506000600860008473ffffffffffffffffffffffffffffffffffffffff1673ffffffffffffffffffffffffffffffffffffffff16815260200190815260200160002060008373ffffffffffffffffffffffffffffffffffffffff1673ffffffffffffffffffffffffffffffffffffffff16815260200190815260200160002054905060008111611a7e576040517f08c379a00000000000000000000000000000000000000000000000000000000081526004018080602001828103825260178152602001807f76616c756520776173206e656761746976652f7a65726f00000000000000000081525060200191505060405180910390fd5b6000600860008573ffffffffffffffffffffffffffffffffffffffff1673ffffffffffffffffffffffffffffffffffffffff16815260200190815260200160002060008473ffffffffffffffffffffffffffffffffffffffff1673ffffffffffffffffffffffffffffffffffffffff168152602001908152602001600020819055508273ffffffffffffffffffffffffffffffffffffffff1663a9059cbb83836040518363ffffffff1660e01b8152600401808373ffffffffffffffffffffffffffffffffffffffff1673ffffffffffffffffffffffffffffffffffffffff16815260200182815260200192505050602060405180830381600087803b158015611b8757600080fd5b505af1158015611b9b573d6000803e3d6000fd5b505050506040513d6020811015611bb157600080fd5b8101908080519060200190929190505050611c34576040517f08c379a00000000000000000000000000000000000000000000000000000000081526004018080602001828103825260158152602001807f746f6b656e207472616e73666572206661696c6564000000000000000000000081525060200191505060405180910390fd5b8273ffffffffffffffffffffffffffffffffffffffff168273ffffffffffffffffffffffffffffffffffffffff167f2717ead6b9200dd235aad468c9809ea400fe33ac69b5bfaa6d3e90fc922b6398836040518082815260200191505060405180910390a3505050565b60008060008060016003600080839350829250819150809050935093509350935090919293565b6000806003600085815260200190815260200160002060010160008473ffffffffffffffffffffffffffffffffffffffff1673ffffffffffffffffffffffffffffffffffffffff16815260200190815260200160002060000160049054906101000a900463ffffffff166003600086815260200190815260200160002060010160008573ffffffffffffffffffffffffffffffffffffffff1673ffffffffffffffffffffffffffffffffffffffff16815260200190815260200160002060000160009054906101000a900463ffffffff16915091509250929050565b6000808686604051602001808381526020018273ffffffffffffffffffffffffffffffffffffffff1673ffffffffffffffffffffffffffffffffffffffff1660601b815260140192505050604051602081830303815290604052805190602001209050600073__Signatures____________________________63b3abdb0c838888886040518563ffffffff1660e01b8152600401808581526020018460ff1660ff16815260200183815260200182815260200194505050505060206040518083038186803b158015611e7357600080fd5b505af4158015611e87573d6000803e3d6000fd5b505050506040513d6020811015611e9d57600080fd5b810190808051906020019092919050505090506000611eba6148bc565b73ffffffffffffffffffffffffffffffffffffffff16637b2434cb836040518263ffffffff1660e01b8152600401808273ffffffffffffffffffffffffffffffffffffffff1673ffffffffffffffffffffffffffffffffffffffff16815260200191505060206040518083038186803b158015611f3657600080fd5b505afa158015611f4a573d6000803e3d6000fd5b505050506040513d6020811015611f6057600080fd5b810190808051906020019092919050505090506000600360008b815260200190815260200160002060010160008a73ffffffffffffffffffffffffffffffffffffffff1673ffffffffffffffffffffffffffffffffffffffff16815260200190815260200160002060020160008373ffffffffffffffffffffffffffffffffffffffff1673ffffffffffffffffffffffffffffffffffffffff16815260200190815260200160002090506001600281111561201757fe5b8160000160009054906101000a900460ff16600281111561203457fe5b1461208a576040517f08c379a000000000000000000000000000000000000000000000000000000000815260040180806020018281038252603b815260200180615a93603b913960400191505060405180910390fd5b6120a78160000160019054906101000a900463ffffffff166149b7565b1561211a576040517f08c379a00000000000000000000000000000000000000000000000000000000081526004018080602001828103825260158152602001807f4174746573746174696f6e2074696d6564206f7574000000000000000000000081525060200191505060405180910390fd5b8194505050505095945050505050565b60606003600084815260200190815260200160002060010160008373ffffffffffffffffffffffffffffffffffffffff1673ffffffffffffffffffffffffffffffffffffffff16815260200190815260200160002060010180548060200260200160405190810160405280929190818152602001828054801561220257602002820191906000526020600020905b8160009054906101000a900473ffffffffffffffffffffffffffffffffffffffff1673ffffffffffffffffffffffffffffffffffffffff16815260200190600101908083116121b8575b5050505050905092915050565b6000600760008373ffffffffffffffffffffffffffffffffffffffff1673ffffffffffffffffffffffffffffffffffffffff168152602001908152602001600020549050919050565b612260612432565b6122d2576040517f08c379a00000000000000000000000000000000000000000000000000000000081526004018080602001828103825260208152602001807f4f776e61626c653a2063616c6c6572206973206e6f7420746865206f776e657281525060200191505060405180910390fd5b600073ffffffffffffffffffffffffffffffffffffffff166000809054906101000a900473ffffffffffffffffffffffffffffffffffffffff1673ffffffffffffffffffffffffffffffffffffffff167f8be0079c531659141344cd1fd0a4f28419497f9722a3daafe3b4186f6b6457e060405160405180910390a360008060006101000a81548173ffffffffffffffffffffffffffffffffffffffff021916908373ffffffffffffffffffffffffffffffffffffffff160217905550565b6000600654905090565b600160009054906101000a900473ffffffffffffffffffffffffffffffffffffffff1681565b60065481565b60096020528160005260406000206020528060005260406000206000915091509054906101000a900460ff1681565b6000600a80549050905090565b60055481565b60008060009054906101000a900473ffffffffffffffffffffffffffffffffffffffff16905090565b60008060009054906101000a900473ffffffffffffffffffffffffffffffffffffffff1673ffffffffffffffffffffffffffffffffffffffff166124746149de565b73ffffffffffffffffffffffffffffffffffffffff1614905090565b606080606080600086869050116124f2576040517f08c379a0000000000000000000000000000000000000000000000000000000008152600401808060200182810382526028815260200180615b1a6028913960400191505060405180910390fd5b60608061253f888880806020026020016040519081016040528093929190818152602001838360200280828437600081840152601f19601f820116905080830192505050505050506149e6565b8092508193505050606081516040519080825280602002602001820160405280156125795781602001602082028038833980820191505090505b509050606082516040519080825280602002602001820160405280156125ae5781602001602082028038833980820191505090505b509050600080905060008090505b8b8b905081101561297f576060600360008e8e858181106125d957fe5b90506020020135815260200190815260200160002060000180548060200260200160405190810160405280929190818152602001828054801561267157602002820191906000526020600020905b8160009054906101000a900473ffffffffffffffffffffffffffffffffffffffff1673ffffffffffffffffffffffffffffffffffffffff1681526020019060010190808311612627575b5050505050905060008090505b87838151811061268a57fe5b6020026020010151811015612962576126a16148bc565b73ffffffffffffffffffffffffffffffffffffffff16631fd9afa58383815181106126c857fe5b60200260200101516040518263ffffffff1660e01b8152600401808273ffffffffffffffffffffffffffffffffffffffff1673ffffffffffffffffffffffffffffffffffffffff16815260200191505060206040518083038186803b15801561273057600080fd5b505afa158015612744573d6000803e3d6000fd5b505050506040513d602081101561275a57600080fd5b810190808051906020019092919050505087858151811061277757fe5b602002602001019073ffffffffffffffffffffffffffffffffffffffff16908173ffffffffffffffffffffffffffffffffffffffff1681525050600360008f8f868181106127c157fe5b90506020020135815260200190815260200160002060010160008383815181106127e757fe5b602002602001015173ffffffffffffffffffffffffffffffffffffffff1673ffffffffffffffffffffffffffffffffffffffff16815260200190815260200160002060000160049054906101000a900463ffffffff1663ffffffff1686858151811061284f57fe5b602002602001019067ffffffffffffffff16908167ffffffffffffffff1681525050600360008f8f8681811061288157fe5b90506020020135815260200190815260200160002060010160008383815181106128a757fe5b602002602001015173ffffffffffffffffffffffffffffffffffffffff1673ffffffffffffffffffffffffffffffffffffffff16815260200190815260200160002060000160009054906101000a900463ffffffff1663ffffffff1685858151811061290f57fe5b602002602001019067ffffffffffffffff16908167ffffffffffffffff168152505061294560018561483490919063ffffffff16565b935061295b60018261483490919063ffffffff16565b905061267e565b505061297860018261483490919063ffffffff16565b90506125bc565b50848484849850985098509850505050505092959194509250565b6129a2612432565b612a14576040517f08c379a00000000000000000000000000000000000000000000000000000000081526004018080602001828103825260208152602001807f4f776e61626c653a2063616c6c6572206973206e6f7420746865206f776e657281525060200191505060405180910390fd5b60008111612a6d576040517f08c379a0000000000000000000000000000000000000000000000000000000008152600401808060200182810382526030815260200180615a396030913960400191505060405180910390fd5b806004819055507f4fbe976a07a9260091c2d347f8780c4bc636392e34d5b249b367baf8a5c7ca69816040518082815260200191505060405180910390a150565b60006003600085815260200190815260200160002060010160008473ffffffffffffffffffffffffffffffffffffffff1673ffffffffffffffffffffffffffffffffffffffff16815260200190815260200160002060000160009054906101000a900463ffffffff1663ffffffff1690508163ffffffff168114612b7d576040517f08c379a000000000000000000000000000000000000000000000000000000000815260040180806020018281038252602e81526020018061590a602e913960400191505060405180910390fd5b50505050565b612b8b612432565b612bfd576040517f08c379a00000000000000000000000000000000000000000000000000000000081526004018080602001828103825260208152602001807f4f776e61626c653a2063616c6c6572206973206e6f7420746865206f776e657281525060200191505060405180910390fd5b600073ffffffffffffffffffffffffffffffffffffffff168173ffffffffffffffffffffffffffffffffffffffff161415612ca0576040517f08c379a00000000000000000000000000000000000000000000000000000000081526004018080602001828103825260208152602001807f43616e6e6f7420726567697374657220746865206e756c6c206164647265737381525060200191505060405180910390fd5b80600160006101000a81548173ffffffffffffffffffffffffffffffffffffffff021916908373ffffffffffffffffffffffffffffffffffffffff1602179055508073ffffffffffffffffffffffffffffffffffffffff167f27fe5f0c1c3b1ed427cc63d0f05759ffdecf9aec9e18d31ef366fc8a6cb5dc3b60405160405180910390a250565b60045481565b6000806000806003600088815260200190815260200160002060010160008773ffffffffffffffffffffffffffffffffffffffff1673ffffffffffffffffffffffffffffffffffffffff16815260200190815260200160002060020160008673ffffffffffffffffffffffffffffffffffffffff1673ffffffffffffffffffffffffffffffffffffffff16815260200190815260200160002090508060000160009054906101000a900460ff166002811115612de557fe5b8160000160019054906101000a900463ffffffff168260000160059054906101000a900473ffffffffffffffffffffffffffffffffffffffff169350935093505093509350939050565b600060036000848152602001908152602001600020600001805490509050808210612ec2576040517f08c379a00000000000000000000000000000000000000000000000000000000081526004018080602001828103825260108152602001807f496e64657820697320696e76616c69640000000000000000000000000000000081525060200191505060405180910390fd5b600360008481526020019081526020016000206000018281548110612ee357fe5b9060005260206000200160009054906101000a900473ffffffffffffffffffffffffffffffffffffffff1673ffffffffffffffffffffffffffffffffffffffff163373ffffffffffffffffffffffffffffffffffffffff1614612fae576040517f08c379a000000000000000000000000000000000000000000000000000000000815260040180806020018281038252601f8152602001807f496e64657820646f6573206e6f74206d61746368206d73672e73656e6465720081525060200191505060405180910390fd5b6000612fc4600183614b4790919063ffffffff16565b905080831461308357600360008581526020019081526020016000206000018181548110612fee57fe5b9060005260206000200160009054906101000a900473ffffffffffffffffffffffffffffffffffffffff1660036000868152602001908152602001600020600001848154811061303a57fe5b9060005260206000200160006101000a81548173ffffffffffffffffffffffffffffffffffffffff021916908373ffffffffffffffffffffffffffffffffffffffff1602179055505b60006003600086815260200190815260200160002060000182815481106130a657fe5b9060005260206000200160006101000a81548173ffffffffffffffffffffffffffffffffffffffff021916908373ffffffffffffffffffffffffffffffffffffffff16021790555061311b60016003600087815260200190815260200160002060000180549050614b4790919063ffffffff16565b600360008681526020019081526020016000206000018161313c9190615875565b5050505050565b60076020528060005260406000206000915090505481565b613163612432565b6131d5576040517f08c379a00000000000000000000000000000000000000000000000000000000081526004018080602001828103825260208152602001807f4f776e61626c653a2063616c6c6572206973206e6f7420746865206f776e657281525060200191505060405180910390fd5b6000811161322e576040517f08c379a00000000000000000000000000000000000000000000000000000000081526004018080602001828103825260288152602001806159386028913960400191505060405180910390fd5b806006819055507fc1f217a1246a98ce04e938768309107630ed86c1e0e9f9995af28e23a9c06178816040518082815260200191505060405180910390a150565b6001600260008282540192505081905550600060025490506000600760008473ffffffffffffffffffffffffffffffffffffffff1673ffffffffffffffffffffffffffffffffffffffff168152602001908152602001600020541161331f576040517f08c379a00000000000000000000000000000000000000000000000000000000081526004018080602001828103825260228152602001806159606022913960400191505060405180910390fd5b8173ffffffffffffffffffffffffffffffffffffffff166323b872dd333061338f87600760008973ffffffffffffffffffffffffffffffffffffffff1673ffffffffffffffffffffffffffffffffffffffff16815260200190815260200160002054614b9190919063ffffffff16565b6040518463ffffffff1660e01b8152600401808473ffffffffffffffffffffffffffffffffffffffff1673ffffffffffffffffffffffffffffffffffffffff1681526020018373ffffffffffffffffffffffffffffffffffffffff1673ffffffffffffffffffffffffffffffffffffffff1681526020018281526020019350505050602060405180830381600087803b15801561342b57600080fd5b505af115801561343f573d6000803e3d6000fd5b505050506040513d602081101561345557600080fd5b81019080805190602001909291905050506134bb576040517f08c379a000000000000000000000000000000000000000000000000000000000815260040180806020018281038252602b815260200180615ace602b913960400191505060405180910390fd5b60008311613514576040517f08c379a000000000000000000000000000000000000000000000000000000000815260040180806020018281038252602a815260200180615a69602a913960400191505060405180910390fd5b60065483111561358c576040517f08c379a000000000000000000000000000000000000000000000000000000000815260040180806020018281038252601f8152602001807f546f6f206d616e79206174746573746174696f6e73207265717565737465640081525060200191505060405180910390fd5b600060036000868152602001908152602001600020905060008160020160003373ffffffffffffffffffffffffffffffffffffffff1673ffffffffffffffffffffffffffffffffffffffff16815260200190815260200160002060000160009054906101000a900463ffffffff1663ffffffff16148061366557506136648160020160003373ffffffffffffffffffffffffffffffffffffffff1673ffffffffffffffffffffffffffffffffffffffff16815260200190815260200160002060000160009054906101000a900463ffffffff166149b7565b5b806136d057506136ce8160020160003373ffffffffffffffffffffffffffffffffffffffff1673ffffffffffffffffffffffffffffffffffffffff16815260200190815260200160002060000160009054906101000a900463ffffffff1663ffffffff16614c17565b155b613725576040517f08c379a00000000000000000000000000000000000000000000000000000000081526004018080602001828103825260398152602001806159d86039913960400191505060405180910390fd5b61372e43614cbc565b8160020160003373ffffffffffffffffffffffffffffffffffffffff1673ffffffffffffffffffffffffffffffffffffffff16815260200190815260200160002060000160006101000a81548163ffffffff021916908363ffffffff16021790555061379984614cbc565b8160020160003373ffffffffffffffffffffffffffffffffffffffff1673ffffffffffffffffffffffffffffffffffffffff16815260200190815260200160002060000160046101000a81548163ffffffff021916908363ffffffff160217905550828160020160003373ffffffffffffffffffffffffffffffffffffffff1673ffffffffffffffffffffffffffffffffffffffff16815260200190815260200160002060000160086101000a81548173ffffffffffffffffffffffffffffffffffffffff021916908373ffffffffffffffffffffffffffffffffffffffff1602179055506138f36138ee858360010160003373ffffffffffffffffffffffffffffffffffffffff1673ffffffffffffffffffffffffffffffffffffffff16815260200190815260200160002060000160009054906101000a900463ffffffff1663ffffffff1661483490919063ffffffff16565b614cbc565b8160010160003373ffffffffffffffffffffffffffffffffffffffff1673ffffffffffffffffffffffffffffffffffffffff16815260200190815260200160002060000160006101000a81548163ffffffff021916908363ffffffff1602179055503373ffffffffffffffffffffffffffffffffffffffff16857f381545d9b1fffcb94ffbbd0bccfff9f1fb3acd474d34f7d59112a5c9973fee498686604051808381526020018273ffffffffffffffffffffffffffffffffffffffff1673ffffffffffffffffffffffffffffffffffffffff1681526020019250505060405180910390a3506002548114613a50576040517f08c379a000000000000000000000000000000000000000000000000000000000815260040180806020018281038252600e8152602001807f7265656e7472616e742063616c6c00000000000000000000000000000000000081525060200191505060405180910390fd5b50505050565b613a5e612432565b613ad0576040517f08c379a00000000000000000000000000000000000000000000000000000000081526004018080602001828103825260208152602001807f4f776e61626c653a2063616c6c6572206973206e6f7420746865206f776e657281525060200191505060405180910390fd5b60008111613b29576040517f08c379a00000000000000000000000000000000000000000000000000000000081526004018080602001828103825260308152602001806159826030913960400191505060405180910390fd5b806005819055507f954fa47fa6f4e8017b99f93c73f4fbe599d786f9f5da73fe9086ab473fb455d8816040518082815260200191505060405180910390a150565b600060036000838152602001908152602001600020905060008160020160003373ffffffffffffffffffffffffffffffffffffffff1673ffffffffffffffffffffffffffffffffffffffff16815260200190815260200160002060000160009054906101000a900463ffffffff1663ffffffff1611613c34576040517f08c379a0000000000000000000000000000000000000000000000000000000008152600401808060200182810382526037815260200180615b9a6037913960400191505060405180910390fd5b613c918160020160003373ffffffffffffffffffffffffffffffffffffffff1673ffffffffffffffffffffffffffffffffffffffff16815260200190815260200160002060000160009054906101000a900463ffffffff166149b7565b15613ce7576040517f08c379a0000000000000000000000000000000000000000000000000000000008152600401808060200182810382526023815260200180615b776023913960400191505060405180910390fd5b613cf082614d23565b8060020160003373ffffffffffffffffffffffffffffffffffffffff1673ffffffffffffffffffffffffffffffffffffffff168152602001908152602001600020600080820160006101000a81549063ffffffff02191690556000820160046101000a81549063ffffffff02191690556000820160086101000a81549073ffffffffffffffffffffffffffffffffffffffff021916905550505050565b60008060006003600086815260200190815260200160002060020160008573ffffffffffffffffffffffffffffffffffffffff1673ffffffffffffffffffffffffffffffffffffffff16815260200190815260200160002060000160009054906101000a900463ffffffff166003600087815260200190815260200160002060020160008673ffffffffffffffffffffffffffffffffffffffff1673ffffffffffffffffffffffffffffffffffffffff16815260200190815260200160002060000160049054906101000a900463ffffffff166003600088815260200190815260200160002060020160008773ffffffffffffffffffffffffffffffffffffffff1673ffffffffffffffffffffffffffffffffffffffff16815260200190815260200160002060000160089054906101000a900473ffffffffffffffffffffffffffffffffffffffff169250925092509250925092565b6008602052816000526040600020602052806000526040600020600091509150505481565b613f11612432565b613f83576040517f08c379a00000000000000000000000000000000000000000000000000000000081526004018080602001828103825260208152602001807f4f776e61626c653a2063616c6c6572206973206e6f7420746865206f776e657281525060200191505060405180910390fd5b613f8c816154ec565b50565b613f97612432565b614009576040517f08c379a00000000000000000000000000000000000000000000000000000000081526004018080602001828103825260208152602001807f4f776e61626c653a2063616c6c6572206973206e6f7420746865206f776e657281525060200191505060405180910390fd5b60008111614062576040517f08c379a0000000000000000000000000000000000000000000000000000000008152600401808060200182810382526028815260200180615a116028913960400191505060405180910390fd5b80600760008473ffffffffffffffffffffffffffffffffffffffff1673ffffffffffffffffffffffffffffffffffffffff168152602001908152602001600020819055508173ffffffffffffffffffffffffffffffffffffffff167f7cf8b633f218e9f9bc2c06107bcaddcfee6b90580863768acdcfd4f05d7af394826040518082815260200191505060405180910390a25050565b60006141078533868686611da1565b905060006003600087815260200190815260200160002060010160003373ffffffffffffffffffffffffffffffffffffffff1673ffffffffffffffffffffffffffffffffffffffff16815260200190815260200160002060020160008373ffffffffffffffffffffffffffffffffffffffff1673ffffffffffffffffffffffffffffffffffffffff168152602001908152602001600020905060008160000160059054906101000a900473ffffffffffffffffffffffffffffffffffffffff1690506141d243614cbc565b8260000160016101000a81548163ffffffff021916908363ffffffff16021790555060028260000160006101000a81548160ff0219169083600281111561421557fe5b02179055508160000160056101000a81549073ffffffffffffffffffffffffffffffffffffffff021916905560006003600089815260200190815260200160002060010160003373ffffffffffffffffffffffffffffffffffffffff1673ffffffffffffffffffffffffffffffffffffffff168152602001908152602001600020905060018160000160049054906101000a900463ffffffff160163ffffffff168160000160049054906101000a900463ffffffff1663ffffffff1610614344576040517f08c379a000000000000000000000000000000000000000000000000000000000815260040180806020018281038252601b8152602001807f536166654d617468333220696e7465676572206f766572666c6f77000000000081525060200191505060405180910390fd5b60018160000160049054906101000a900463ffffffff16018160000160046101000a81548163ffffffff021916908363ffffffff16021790555061444c600760008473ffffffffffffffffffffffffffffffffffffffff1673ffffffffffffffffffffffffffffffffffffffff16815260200190815260200160002054600860008573ffffffffffffffffffffffffffffffffffffffff1673ffffffffffffffffffffffffffffffffffffffff16815260200190815260200160002060008773ffffffffffffffffffffffffffffffffffffffff1673ffffffffffffffffffffffffffffffffffffffff1681526020019081526020016000205461483490919063ffffffff16565b600860008473ffffffffffffffffffffffffffffffffffffffff1673ffffffffffffffffffffffffffffffffffffffff16815260200190815260200160002060008673ffffffffffffffffffffffffffffffffffffffff1673ffffffffffffffffffffffffffffffffffffffff168152602001908152602001600020819055506000600360008a815260200190815260200160002090506001600360008b815260200190815260200160002060010160003373ffffffffffffffffffffffffffffffffffffffff1673ffffffffffffffffffffffffffffffffffffffff16815260200190815260200160002060000160049054906101000a900463ffffffff1663ffffffff1614156145c157806000013390806001815401808255809150509060018203906000526020600020016000909192909190916101000a81548173ffffffffffffffffffffffffffffffffffffffff021916908373ffffffffffffffffffffffffffffffffffffffff160217905550505b8473ffffffffffffffffffffffffffffffffffffffff163373ffffffffffffffffffffffffffffffffffffffff168a7f414ff2c18c092697c4b8de49f515ac44f8bebc19b24553cf58ace913a6ac639d60405160405180910390a4505050505050505050565b600060149054906101000a900460ff16156146aa576040517f08c379a000000000000000000000000000000000000000000000000000000000815260040180806020018281038252601c8152602001807f636f6e747261637420616c726561647920696e697469616c697a65640000000081525060200191505060405180910390fd5b6001600060146101000a81548160ff0219169083151502179055506146ce336154ec565b6146d788612b83565b6146e08761299a565b6146e986613a56565b6146f28561315b565b60008484905011801561470a57508181905084849050145b61475f576040517f08c379a0000000000000000000000000000000000000000000000000000000008152600401808060200182810382526035815260200180615b426035913960400191505060405180910390fd5b60008090505b848490508110156147cf576147b485858381811061477f57fe5b9050602002013573ffffffffffffffffffffffffffffffffffffffff168484848181106147a857fe5b90506020020135613f8f565b6147c860018261483490919063ffffffff16565b9050614765565b505050505050505050565b6000600160028111156147e957fe5b8260000160009054906101000a900460ff16600281111561480657fe5b14801561482d575061482b8260000160019054906101000a900463ffffffff166149b7565b155b9050919050565b6000808284019050838110156148b2576040517f08c379a000000000000000000000000000000000000000000000000000000000815260040180806020018281038252601b8152602001807f536166654d6174683a206164646974696f6e206f766572666c6f77000000000081525060200191505060405180910390fd5b8091505092915050565b6000600160009054906101000a900473ffffffffffffffffffffffffffffffffffffffff1673ffffffffffffffffffffffffffffffffffffffff1663dcf0aaed60405160200180807f4163636f756e74730000000000000000000000000000000000000000000000008152506008019050604051602081830303815290604052805190602001206040518263ffffffff1660e01b81526004018082815260200191505060206040518083038186803b15801561497757600080fd5b505afa15801561498b573d6000803e3d6000fd5b505050506040513d60208110156149a157600080fd5b8101908080519060200190929190505050905090565b60006149d46004548363ffffffff1661483490919063ffffffff16565b4310159050919050565b600033905090565b6060806000835111614a43576040517f08c379a0000000000000000000000000000000000000000000000000000000008152600401808060200182810382526028815260200180615b1a6028913960400191505060405180910390fd5b600080905060608451604051908082528060200260200182016040528015614a7a5781602001602082028038833980820191505090505b50905060008090505b8551811015614b0757600060036000888481518110614a9e57fe5b60200260200101518152602001908152602001600020600001805490509050614ad0818561483490919063ffffffff16565b935080838381518110614adf57fe5b60200260200101818152505050614b0060018261483490919063ffffffff16565b9050614a83565b508082604051908082528060200260200182016040528015614b385781602001602082028038833980820191505090505b50809050935093505050915091565b6000614b8983836040518060400160405280601e81526020017f536166654d6174683a207375627472616374696f6e206f766572666c6f770000815250615630565b905092915050565b600080831415614ba45760009050614c11565b6000828402905082848281614bb557fe5b0414614c0c576040517f08c379a0000000000000000000000000000000000000000000000000000000008152600401808060200182810382526021815260200180615af96021913960400191505060405180910390fd5b809150505b92915050565b6000614cb3614c246156f0565b73ffffffffffffffffffffffffffffffffffffffff1663e45def956040518163ffffffff1660e01b815260040160206040518083038186803b158015614c6957600080fd5b505afa158015614c7d573d6000803e3d6000fd5b505050506040513d6020811015614c9357600080fd5b81019080805190602001909291905050508361483490919063ffffffff16565b43109050919050565b60006401000000008210614d1b576040517f08c379a0000000000000000000000000000000000000000000000000000000008152600401808060200182810382526026815260200180615bd16026913960400191505060405180910390fd5b819050919050565b60006003600083815260200190815260200160002060010160003373ffffffffffffffffffffffffffffffffffffffff1673ffffffffffffffffffffffffffffffffffffffff168152602001908152602001600020905060006003600084815260200190815260200160002060020160003373ffffffffffffffffffffffffffffffffffffffff1673ffffffffffffffffffffffffffffffffffffffff16815260200190815260200160002090506000614ddb6156f0565b73ffffffffffffffffffffffffffffffffffffffff1663fc484726614e256005548560000160009054906101000a900463ffffffff1663ffffffff1661483490919063ffffffff16565b6040518263ffffffff1660e01b81526004018082815260200191505060206040518083038186803b158015614e5957600080fd5b505afa158015614e6d573d6000803e3d6000fd5b505050506040513d6020811015614e8357600080fd5b810190808051906020019092919050505090506000614ea06148bc565b90506000614eac6123f6565b9050606081604051908082528060200260200182016040528015614edf5781602001602082028038833980820191505090505b50905060008090505b82811015614f245780828281518110614efd57fe5b602002602001018181525050614f1d60018261483490919063ffffffff16565b9050614ee8565b50818560000160049054906101000a900463ffffffff1663ffffffff161115614fb5576040517f08c379a00000000000000000000000000000000000000000000000000000000081526004018080602001828103825260128152602001807f6e6f7420656e6f7567682069737375657273000000000000000000000000000081525060200191505060405180910390fd5b60008090505b8560000160049054906101000a900463ffffffff1663ffffffff168110156154e25760008311615053576040517f08c379a00000000000000000000000000000000000000000000000000000000081526004018080602001828103825260128152602001807f6e6f7420656e6f7567682069737375657273000000000000000000000000000081525060200191505060405180910390fd5b84604051602001808281526020019150506040516020818303038152906040528051906020012094506000838660001c8161508a57fe5b06905060006150ab84838151811061509e57fe5b602002602001015161128c565b905060008673ffffffffffffffffffffffffffffffffffffffff166393c5c487836040518263ffffffff1660e01b8152600401808273ffffffffffffffffffffffffffffffffffffffff1673ffffffffffffffffffffffffffffffffffffffff16815260200191505060206040518083038186803b15801561512c57600080fd5b505afa158015615140573d6000803e3d6000fd5b505050506040513d602081101561515657600080fd5b8101908080519060200190929190505050905060008a60020160008373ffffffffffffffffffffffffffffffffffffffff1673ffffffffffffffffffffffffffffffffffffffff1681526020019081526020016000209050600060028111156151bb57fe5b8160000160009054906101000a900460ff1660028111156151d857fe5b14801561529957508773ffffffffffffffffffffffffffffffffffffffff1663c2e0ee20836040518263ffffffff1660e01b8152600401808273ffffffffffffffffffffffffffffffffffffffff1673ffffffffffffffffffffffffffffffffffffffff16815260200191505060206040518083038186803b15801561525d57600080fd5b505afa158015615271573d6000803e3d6000fd5b505050506040513d602081101561528757600080fd5b81019080805190602001909291905050505b15615497576152b260018661483490919063ffffffff16565b945060018160000160006101000a81548160ff021916908360028111156152d557fe5b02179055508960000160009054906101000a900463ffffffff168160000160016101000a81548163ffffffff021916908363ffffffff1602179055508960000160089054906101000a900473ffffffffffffffffffffffffffffffffffffffff168160000160056101000a81548173ffffffffffffffffffffffffffffffffffffffff021916908373ffffffffffffffffffffffffffffffffffffffff1602179055508a6001018290806001815401808255809150509060018203906000526020600020016000909192909190916101000a81548173ffffffffffffffffffffffffffffffffffffffff021916908373ffffffffffffffffffffffffffffffffffffffff160217905550508173ffffffffffffffffffffffffffffffffffffffff163373ffffffffffffffffffffffffffffffffffffffff168d7faf7f470b643316cf44c1f2898328a075e7602945b4f8584f48ba4ad2d8a2ea9d8d60000160089054906101000a900473ffffffffffffffffffffffffffffffffffffffff16604051808273ffffffffffffffffffffffffffffffffffffffff1673ffffffffffffffffffffffffffffffffffffffff16815260200191505060405180910390a45b6154ab600188614b4790919063ffffffff16565b96508587815181106154b957fe5b60200260200101518685815181106154cd57fe5b60200260200101818152505050505050614fbb565b5050505050505050565b600073ffffffffffffffffffffffffffffffffffffffff168173ffffffffffffffffffffffffffffffffffffffff161415615572576040517f08c379a00000000000000000000000000000000000000000000000000000000081526004018080602001828103825260268152602001806159b26026913960400191505060405180910390fd5b8073ffffffffffffffffffffffffffffffffffffffff166000809054906101000a900473ffffffffffffffffffffffffffffffffffffffff1673ffffffffffffffffffffffffffffffffffffffff167f8be0079c531659141344cd1fd0a4f28419497f9722a3daafe3b4186f6b6457e060405160405180910390a3806000806101000a81548173ffffffffffffffffffffffffffffffffffffffff021916908373ffffffffffffffffffffffffffffffffffffffff16021790555050565b60008383111582906156dd576040517f08c379a00000000000000000000000000000000000000000000000000000000081526004018080602001828103825283818151815260200191508051906020019080838360005b838110156156a2578082015181840152602081019050615687565b50505050905090810190601f1680156156cf5780820380516001836020036101000a031916815260200191505b509250505060405180910390fd5b5060008385039050809150509392505050565b6000600160009054906101000a900473ffffffffffffffffffffffffffffffffffffffff1673ffffffffffffffffffffffffffffffffffffffff1663dcf0aaed60405160200180807f52616e646f6d00000000000000000000000000000000000000000000000000008152506006019050604051602081830303815290604052805190602001206040518263ffffffff1660e01b81526004018082815260200191505060206040518083038186803b1580156157ab57600080fd5b505afa1580156157bf573d6000803e3d6000fd5b505050506040513d60208110156157d557600080fd5b8101908080519060200190929190505050905090565b828054828255906000526020600020908101928215615864579160200282015b828111156158635782518260006101000a81548173ffffffffffffffffffffffffffffffffffffffff021916908373ffffffffffffffffffffffffffffffffffffffff1602179055509160200191906001019061580b565b5b50905061587191906158a1565b5090565b81548183558181111561589c5781836000526020600020918201910161589b91906158e4565b5b505050565b6158e191905b808211156158dd57600081816101000a81549073ffffffffffffffffffffffffffffffffffffffff0219169055506001016158a7565b5090565b90565b61590691905b808211156159025760008160009055506001016158ea565b5090565b9056fe726571756573746564206174746573746174696f6e7320646f6573206e6f74206d617463682065787065637465646d61784174746573746174696f6e732068617320746f2062652067726561746572207468616e2030496e76616c6964206174746573746174696f6e52657175657374466565546f6b656e73656c6563744973737565727357616974426c6f636b732068617320746f2062652067726561746572207468616e20304f776e61626c653a206e6577206f776e657220697320746865207a65726f206164647265737354686572652065786973747320616e20756e657870697265642c20756e73656c6563746564206174746573746174696f6e2072657175657374596f75206861766520746f20737065636966792061206665652067726561746572207468616e20306174746573746174696f6e457870697279426c6f636b732068617320746f2062652067726561746572207468616e2030596f75206861766520746f2072657175657374206174206c656173742031206174746573746174696f6e4174746573746174696f6e20636f646520646f6573206e6f74206d6174636820616e79206f75747374616e64696e67206174746573746174696f6e5472616e73666572206f66206174746573746174696f6e20726571756573742066656573206661696c6564536166654d6174683a206d756c7469706c69636174696f6e206f766572666c6f77596f75206861766520746f2070617373206174206c65617374206f6e65206964656e7469666965726174746573746174696f6e52657175657374466565546f6b656e732073706563696669636174696f6e2077617320696e76616c6964546865206174746573746174696f6e20726571756573742068617320657870697265644e6f20756e73656c6563746564206174746573746174696f6e207265717565737420746f2073656c656374206973737565727320666f7253616665436173743a2076616c756520646f65736e27742066697420696e2033322062697473a265627a7a723158200124cbd391f6583fded8564ada5c746edf8a07140068bcdcf5fc6571cf97de2564736f6c634300050d0032",
  "source": "pragma solidity ^0.5.13;\n\nimport \"../Attestations.sol\";\n\n/*\n * We need a test contract that behaves like the actual Attestations contract,\n * but mocks the implementations of the validator set getters. Otherwise we\n * couldn't test `request` with the current ganache local testnet.\n */\ncontract AttestationsTest is Attestations(true) {\n  address[] private __testValidators;\n\n  // some deprecated functions are mocked here to ensure that the tests for\n  // revoke and withdraw can still run\n\n  /**\n   * @notice Commit to the attestation request of a hashed identifier.\n   * @param identifier The hash of the identifier to be attested.\n   * @param attestationsRequested The number of requested attestations for this request.\n   * @param attestationRequestFeeToken The address of the token with which the attestation fee will\n   * be paid.\n   * @dev Note that if an attestation expires before it is completed, the fee is forfeited. This is\n   * to prevent folks from attacking validators by requesting attestations that they do not\n   * complete, and to increase the cost of validators attempting to manipulate the attestations\n   * protocol.\n   */\n  function request(\n    bytes32 identifier,\n    uint256 attestationsRequested,\n    address attestationRequestFeeToken\n  ) external nonReentrant {\n    require(\n      attestationRequestFees[attestationRequestFeeToken] > 0,\n      \"Invalid attestationRequestFeeToken\"\n    );\n    require(\n      IERC20(attestationRequestFeeToken).transferFrom(\n        msg.sender,\n        address(this),\n        attestationRequestFees[attestationRequestFeeToken].mul(attestationsRequested)\n      ),\n      \"Transfer of attestation request fees failed\"\n    );\n\n    require(attestationsRequested > 0, \"You have to request at least 1 attestation\");\n    require(attestationsRequested <= maxAttestations, \"Too many attestations requested\");\n\n    IdentifierState storage state = identifiers[identifier];\n\n    require(\n      state.unselectedRequests[msg.sender].blockNumber == 0 ||\n        isAttestationExpired(state.unselectedRequests[msg.sender].blockNumber) ||\n        !isAttestationRequestSelectable(state.unselectedRequests[msg.sender].blockNumber),\n      \"There exists an unexpired, unselected attestation request\"\n    );\n\n    state.unselectedRequests[msg.sender].blockNumber = block.number.toUint32();\n    state.unselectedRequests[msg.sender].attestationsRequested = attestationsRequested.toUint32();\n    state.unselectedRequests[msg.sender].attestationRequestFeeToken = attestationRequestFeeToken;\n\n    state.attestations[msg.sender].requested = uint256(state.attestations[msg.sender].requested)\n      .add(attestationsRequested)\n      .toUint32();\n\n    emit AttestationsRequested(\n      identifier,\n      msg.sender,\n      attestationsRequested,\n      attestationRequestFeeToken\n    );\n  }\n\n  /**\n   * @notice Selects the issuers for the most recent attestation request.\n   * @param identifier The hash of the identifier to be attested.\n   */\n  function selectIssuers(bytes32 identifier) external {\n    IdentifierState storage state = identifiers[identifier];\n\n    require(\n      state.unselectedRequests[msg.sender].blockNumber > 0,\n      \"No unselected attestation request to select issuers for\"\n    );\n\n    require(\n      !isAttestationExpired(state.unselectedRequests[msg.sender].blockNumber),\n      \"The attestation request has expired\"\n    );\n\n    addIncompleteAttestations(identifier);\n    delete state.unselectedRequests[msg.sender];\n  }\n\n  /**\n   * @notice Submit the secret message sent by the issuer to complete the attestation request.\n   * @param identifier The hash of the identifier for this attestation.\n   * @param v The recovery id of the incoming ECDSA signature.\n   * @param r Output value r of the ECDSA signature.\n   * @param s Output value s of the ECDSA signature.\n   * @dev Throws if there is no matching outstanding attestation request.\n   * @dev Throws if the attestation window has passed.\n   */\n  function complete(bytes32 identifier, uint8 v, bytes32 r, bytes32 s) external {\n    address issuer = validateAttestationCode(identifier, msg.sender, v, r, s);\n\n    Attestation storage attestation = identifiers[identifier]\n      .attestations[msg.sender]\n      .issuedAttestations[issuer];\n\n    address token = attestation.attestationRequestFeeToken;\n\n    // solhint-disable-next-line not-rely-on-time\n    attestation.blockNumber = block.number.toUint32();\n    attestation.status = AttestationStatus.Complete;\n    delete attestation.attestationRequestFeeToken;\n    AttestedAddress storage attestedAddress = identifiers[identifier].attestations[msg.sender];\n    require(\n      attestedAddress.completed < attestedAddress.completed + 1,\n      \"SafeMath32 integer overflow\"\n    );\n    attestedAddress.completed = attestedAddress.completed + 1;\n\n    pendingWithdrawals[token][issuer] = pendingWithdrawals[token][issuer].add(\n      attestationRequestFees[token]\n    );\n\n    IdentifierState storage state = identifiers[identifier];\n    if (identifiers[identifier].attestations[msg.sender].completed == 1) {\n      state.accounts.push(msg.sender);\n    }\n\n    emit AttestationCompleted(identifier, msg.sender, issuer);\n  }\n\n  function __setValidators(address[] memory validators) public {\n    __testValidators = validators;\n  }\n\n  function numberValidatorsInCurrentSet() public view returns (uint256) {\n    return __testValidators.length;\n  }\n\n  function validatorSignerAddressFromCurrentSet(uint256 index) public view returns (address) {\n    return __testValidators[index];\n  }\n\n  /**\n   * @notice Adds additional attestations given the current randomness.\n   * @param identifier The hash of the identifier to be attested.\n   */\n  function addIncompleteAttestations(bytes32 identifier) internal {\n    AttestedAddress storage state = identifiers[identifier].attestations[msg.sender];\n    UnselectedRequest storage unselectedRequest = identifiers[identifier].unselectedRequests[\n      msg.sender\n    ];\n\n    bytes32 seed = getRandom().getBlockRandomness(\n      uint256(unselectedRequest.blockNumber).add(selectIssuersWaitBlocks)\n    );\n    IAccounts accounts = getAccounts();\n    uint256 issuersLength = numberValidatorsInCurrentSet();\n    uint256[] memory issuers = new uint256[](issuersLength);\n    for (uint256 i = 0; i < issuersLength; i = i.add(1)) issuers[i] = i;\n\n    require(unselectedRequest.attestationsRequested <= issuersLength, \"not enough issuers\");\n\n    uint256 currentIndex = 0;\n\n    // The length of the list (variable issuersLength) is decremented in each round,\n    // so the loop always terminates\n    while (currentIndex < unselectedRequest.attestationsRequested) {\n      require(issuersLength > 0, \"not enough issuers\");\n      seed = keccak256(abi.encodePacked(seed));\n      uint256 idx = uint256(seed) % issuersLength;\n      address signer = validatorSignerAddressFromCurrentSet(issuers[idx]);\n      address issuer = accounts.signerToAccount(signer);\n\n      Attestation storage attestation = state.issuedAttestations[issuer];\n\n      if (\n        attestation.status == AttestationStatus.None &&\n        accounts.hasAuthorizedAttestationSigner(issuer)\n      ) {\n        currentIndex = currentIndex.add(1);\n        attestation.status = AttestationStatus.Incomplete;\n        attestation.blockNumber = unselectedRequest.blockNumber;\n        attestation.attestationRequestFeeToken = unselectedRequest.attestationRequestFeeToken;\n        state.selectedIssuers.push(issuer);\n\n        emit AttestationIssuerSelected(\n          identifier,\n          msg.sender,\n          issuer,\n          unselectedRequest.attestationRequestFeeToken\n        );\n      }\n\n      // Remove the validator that was selected from the list,\n      // by replacing it by the last element in the list\n      issuersLength = issuersLength.sub(1);\n      issuers[idx] = issuers[issuersLength];\n    }\n  }\n}\n",
  "sourcePath": "/Users/beaver/Development/temp/celo-monorepo/packages/protocol/contracts/identity/test/AttestationsTest.sol",
  "compiler": {
    "name": "solc",
    "version": "0.5.13+commit.5b0b510c.Emscripten.clang"
  },
  "schemaVersion": "3.4.13",
  "updatedAt": "2025-05-05T17:49:51.522Z",
  "devdoc": {
    "methods": {
      "batchGetAttestationStats(bytes32[])": {
        "params": {
          "identifiersToLookup": "Array of n identifiers."
        },
        "return": "[0] Array of number of matching accounts per identifier.[1] Array of sum([0]) matching walletAddresses.[2] Array of sum([0]) numbers indicating the completions for each account.[3] Array of sum([0]) numbers indicating the total number of requested attestations for each account."
      },
      "complete(bytes32,uint8,bytes32,bytes32)": {
        "details": "Throws if there is no matching outstanding attestation request.Throws if the attestation window has passed.",
        "params": {
          "identifier": "The hash of the identifier for this attestation.",
          "r": "Output value r of the ECDSA signature.",
          "s": "Output value s of the ECDSA signature.",
          "v": "The recovery id of the incoming ECDSA signature."
        }
      },
      "getAttestationIssuers(bytes32,address)": {
        "params": {
          "account": "Address of the account.",
          "identifier": "Hash of the identifier."
        },
        "return": "Addresses of the selected attestation issuers."
      },
      "getAttestationRequestFee(address)": {
        "params": {
          "token": "Address of the attestationRequestFeeToken."
        },
        "return": "The fee."
      },
      "getAttestationState(bytes32,address,address)": {
        "params": {
          "account": "Address of the account.",
          "identifier": "Hash of the identifier.",
          "issuer": "Address of the issuer."
        },
        "return": "status Status of the attestation.block Block number of request/completion the attestation.address Address of the token with which this attestation request was paid for."
      },
      "getAttestationStats(bytes32,address)": {
        "params": {
          "account": "Address of the account.",
          "identifier": "Hash of the identifier."
        },
        "return": "completed Number of completed attestations.requested Number of total requested attestations."
      },
      "getCompletableAttestations(bytes32,address)": {
        "params": {
          "account": "Address of the account.",
          "identifier": "Hash of the identifier."
        },
        "return": "Block number of request/completion the attestation.Address of the issuer.The length of each metadataURL string for each issuer.All strings concatenated."
      },
      "getMaxAttestations()": {
        "return": "Maximum number of attestations that can be requested."
      },
      "getUnselectedRequest(bytes32,address)": {
        "params": {
          "account": "Address of the account.",
          "identifier": "Hash of the identifier."
        },
        "return": "block Block number at which was requested.number Number of unselected requests.address Address of the token with which this attestation request was paid for."
      },
      "getVersionNumber()": {
        "return": "Storage version of the contract.Major version of the contract.Minor version of the contract.Patch version of the contract."
      },
      "initialize(address,uint256,uint256,uint256,address[],uint256[])": {
        "params": {
          "_attestationExpiryBlocks": "The new limit on blocks allowed to come between requesting an attestation and completing it.",
          "_selectIssuersWaitBlocks": "The wait period in blocks to call selectIssuers on attestation requests.",
          "attestationRequestFeeTokens": "The address of tokens that fees should be payable in.",
          "attestationRequestFeeValues": "The corresponding fee values.",
          "registryAddress": "The address of the registry core smart contract."
        }
      },
      "isOwner()": {
        "details": "Returns true if the caller is the current owner."
      },
      "owner()": {
        "details": "Returns the address of the current owner."
      },
      "renounceOwnership()": {
        "details": "Leaves the contract without owner. It will not be possible to call `onlyOwner` functions anymore. Can only be called by the current owner.     * NOTE: Renouncing ownership will leave the contract without an owner, thereby removing any functionality that is only available to the owner."
      },
      "request(bytes32,uint256,address)": {
        "details": "Note that if an attestation expires before it is completed, the fee is forfeited. This is to prevent folks from attacking validators by requesting attestations that they do not complete, and to increase the cost of validators attempting to manipulate the attestations protocol.",
        "params": {
          "attestationRequestFeeToken": "The address of the token with which the attestation fee will be paid.",
          "attestationsRequested": "The number of requested attestations for this request.",
          "identifier": "The hash of the identifier to be attested."
        }
      },
      "requireNAttestationsRequested(bytes32,address,uint32)": {
        "details": "It can be used when batching meta-transactions to validate attestation are requested as expected in untrusted scenarios",
        "params": {
          "account": "Address of the account.",
          "expected": "Number of expected attestations",
          "identifier": "Hash of the identifier."
        }
      },
      "revoke(bytes32,uint256)": {
        "params": {
          "identifier": "The identifier for which to revoke.",
          "index": "The index of the account in the accounts array."
        }
      },
      "selectIssuers(bytes32)": {
        "params": {
          "identifier": "The hash of the identifier to be attested."
        }
      },
      "setAttestationExpiryBlocks(uint256)": {
        "params": {
          "_attestationExpiryBlocks": "The new limit on blocks allowed to come between requesting an attestation and completing it."
        }
      },
      "setAttestationRequestFee(address,uint256)": {
        "params": {
          "fee": "The fee in 'token' that is required for each attestation.",
          "token": "The address of the attestationRequestFeeToken."
        }
      },
      "setMaxAttestations(uint256)": {
        "params": {
          "_maxAttestations": "Maximum number of attestations that can be requested."
        }
      },
      "setRegistry(address)": {
        "params": {
          "registryAddress": "The address of a registry contract for routing to other contracts."
        }
      },
      "setSelectIssuersWaitBlocks(uint256)": {
        "params": {
          "_selectIssuersWaitBlocks": "The wait period in blocks to call selectIssuers on attestation                                requests."
        }
      },
      "transferOwnership(address)": {
        "details": "Transfers ownership of the contract to a new account (`newOwner`). Can only be called by the current owner."
      },
      "validateAttestationCode(bytes32,address,uint8,bytes32,bytes32)": {
        "details": "Throws if there is no matching outstanding attestation request.Throws if the attestation window has passed.",
        "params": {
          "account": "Address of the account.",
          "identifier": "The hash of the identifier to be attested.",
          "r": "Output value r of the ECDSA signature.",
          "s": "Output value s of the ECDSA signature.",
          "v": "The recovery id of the incoming ECDSA signature."
        },
        "return": "The issuer of the corresponding attestation."
      },
      "withdraw(address)": {
        "details": "Throws if msg.sender does not have any rewards to withdraw.",
        "params": {
          "token": "The address of the token that will be withdrawn."
        }
      }
    }
  },
  "userdoc": {
    "methods": {
      "batchGetAttestationStats(bytes32[])": {
        "notice": "Batch lookup function to determine attestation stats for a list of identifiers."
      },
      "complete(bytes32,uint8,bytes32,bytes32)": {
        "notice": "Submit the secret message sent by the issuer to complete the attestation request."
      },
      "getAttestationIssuers(bytes32,address)": {
        "notice": "Returns selected attestation issuers for a identifier/account pair."
      },
      "getAttestationRequestFee(address)": {
        "notice": "Returns the fee set for a particular token."
      },
      "getAttestationState(bytes32,address,address)": {
        "notice": "Returns the state of a specific attestation."
      },
      "getAttestationStats(bytes32,address)": {
        "notice": "Returns attestation stats for a identifier/account pair."
      },
      "getCompletableAttestations(bytes32,address)": {
        "notice": "Returns the state of all attestations that are completable"
      },
      "getMaxAttestations()": {
        "notice": "Query 'maxAttestations'"
      },
      "getUnselectedRequest(bytes32,address)": {
        "notice": "Returns the unselected attestation request for an identifier/account pair, if any."
      },
      "getVersionNumber()": {
        "notice": "Returns the storage, major, minor, and patch version of the contract."
      },
      "initialize(address,uint256,uint256,uint256,address[],uint256[])": {
        "notice": "Used in place of the constructor to allow the contract to be upgradable via proxy."
      },
      "request(bytes32,uint256,address)": {
        "notice": "Commit to the attestation request of a hashed identifier."
      },
      "requireNAttestationsRequested(bytes32,address,uint32)": {
        "notice": "Require that a given identifier/address pair has requested a specific number of attestations."
      },
      "revoke(bytes32,uint256)": {
        "notice": "Revokes an account for an identifier."
      },
      "selectIssuers(bytes32)": {
        "notice": "Selects the issuers for the most recent attestation request."
      },
      "setAttestationExpiryBlocks(uint256)": {
        "notice": "Updates 'attestationExpiryBlocks'."
      },
      "setAttestationRequestFee(address,uint256)": {
        "notice": "Updates the fee  for a particular token."
      },
      "setMaxAttestations(uint256)": {
        "notice": "Updates 'maxAttestations'."
      },
      "setRegistry(address)": {
        "notice": "Updates the address pointing to a Registry contract."
      },
      "setSelectIssuersWaitBlocks(uint256)": {
        "notice": "Updates 'selectIssuersWaitBlocks'."
      },
      "validateAttestationCode(bytes32,address,uint8,bytes32,bytes32)": {
        "notice": "Validates the given attestation code."
      },
      "withdraw(address)": {
        "notice": "Allows issuers to withdraw accumulated attestation rewards."
      }
    }
  }
}