{
  "contractName": "BlockchainParameters",
  "abi": [
    {
      "inputs": [
        {
          "internalType": "bool",
          "name": "test",
          "type": "bool"
        }
      ],
      "payable": false,
      "stateMutability": "nonpayable",
      "type": "constructor"
    },
    {
      "anonymous": false,
      "inputs": [
        {
          "indexed": false,
          "internalType": "uint256",
          "name": "limit",
          "type": "uint256"
        }
      ],
      "name": "BlockGasLimitSet",
      "type": "event"
    },
    {
      "anonymous": false,
      "inputs": [
        {
          "indexed": false,
          "internalType": "uint256",
          "name": "gas",
          "type": "uint256"
        }
      ],
      "name": "IntrinsicGasForAlternativeFeeCurrencySet",
      "type": "event"
    },
    {
      "anonymous": false,
      "inputs": [
        {
          "indexed": true,
          "internalType": "address",
          "name": "previousOwner",
          "type": "address"
        },
        {
          "indexed": true,
          "internalType": "address",
          "name": "newOwner",
          "type": "address"
        }
      ],
      "name": "OwnershipTransferred",
      "type": "event"
    },
    {
      "anonymous": false,
      "inputs": [
        {
          "indexed": false,
          "internalType": "uint256",
          "name": "window",
          "type": "uint256"
        },
        {
          "indexed": false,
          "internalType": "uint256",
          "name": "activationEpoch",
          "type": "uint256"
        }
      ],
      "name": "UptimeLookbackWindowSet",
      "type": "event"
    },
    {
      "constant": true,
      "inputs": [
        {
          "internalType": "address",
          "name": "sender",
          "type": "address"
        },
        {
          "internalType": "bytes",
          "name": "blsKey",
          "type": "bytes"
        },
        {
          "internalType": "bytes",
          "name": "blsPop",
          "type": "bytes"
        }
      ],
      "name": "checkProofOfPossession",
      "outputs": [
        {
          "internalType": "bool",
          "name": "",
          "type": "bool"
        }
      ],
      "payable": false,
      "stateMutability": "view",
      "type": "function"
    },
    {
      "constant": true,
      "inputs": [
        {
          "internalType": "uint256",
          "name": "aNumerator",
          "type": "uint256"
        },
        {
          "internalType": "uint256",
          "name": "aDenominator",
          "type": "uint256"
        },
        {
          "internalType": "uint256",
          "name": "bNumerator",
          "type": "uint256"
        },
        {
          "internalType": "uint256",
          "name": "bDenominator",
          "type": "uint256"
        },
        {
          "internalType": "uint256",
          "name": "exponent",
          "type": "uint256"
        },
        {
          "internalType": "uint256",
          "name": "_decimals",
          "type": "uint256"
        }
      ],
      "name": "fractionMulExp",
      "outputs": [
        {
          "internalType": "uint256",
          "name": "",
          "type": "uint256"
        },
        {
          "internalType": "uint256",
          "name": "",
          "type": "uint256"
        }
      ],
      "payable": false,
      "stateMutability": "view",
      "type": "function"
    },
    {
      "constant": true,
      "inputs": [
        {
          "internalType": "bytes",
          "name": "header",
          "type": "bytes"
        }
      ],
      "name": "getBlockNumberFromHeader",
      "outputs": [
        {
          "internalType": "uint256",
          "name": "",
          "type": "uint256"
        }
      ],
      "payable": false,
      "stateMutability": "view",
      "type": "function"
    },
    {
      "constant": true,
      "inputs": [],
      "name": "getEpochNumber",
      "outputs": [
        {
          "internalType": "uint256",
          "name": "",
          "type": "uint256"
        }
      ],
      "payable": false,
      "stateMutability": "view",
      "type": "function"
    },
    {
      "constant": true,
      "inputs": [
        {
          "internalType": "uint256",
          "name": "blockNumber",
          "type": "uint256"
        }
      ],
      "name": "getEpochNumberOfBlock",
      "outputs": [
        {
          "internalType": "uint256",
          "name": "",
          "type": "uint256"
        }
      ],
      "payable": false,
      "stateMutability": "view",
      "type": "function"
    },
    {
      "constant": true,
      "inputs": [],
      "name": "getEpochSize",
      "outputs": [
        {
          "internalType": "uint256",
          "name": "",
          "type": "uint256"
        }
      ],
      "payable": false,
      "stateMutability": "view",
      "type": "function"
    },
    {
      "constant": true,
      "inputs": [
        {
          "internalType": "uint256",
          "name": "blockNumber",
          "type": "uint256"
        }
      ],
      "name": "getParentSealBitmap",
      "outputs": [
        {
          "internalType": "bytes32",
          "name": "",
          "type": "bytes32"
        }
      ],
      "payable": false,
      "stateMutability": "view",
      "type": "function"
    },
    {
      "constant": true,
      "inputs": [
        {
          "internalType": "bytes",
          "name": "header",
          "type": "bytes"
        }
      ],
      "name": "getVerifiedSealBitmapFromHeader",
      "outputs": [
        {
          "internalType": "bytes32",
          "name": "",
          "type": "bytes32"
        }
      ],
      "payable": false,
      "stateMutability": "view",
      "type": "function"
    },
    {
      "constant": true,
      "inputs": [
        {
          "internalType": "bytes",
          "name": "header",
          "type": "bytes"
        }
      ],
      "name": "hashHeader",
      "outputs": [
        {
          "internalType": "bytes32",
          "name": "",
          "type": "bytes32"
        }
      ],
      "payable": false,
      "stateMutability": "view",
      "type": "function"
    },
    {
      "constant": true,
      "inputs": [],
      "name": "initialized",
      "outputs": [
        {
          "internalType": "bool",
          "name": "",
          "type": "bool"
        }
      ],
      "payable": false,
      "stateMutability": "view",
      "type": "function"
    },
    {
      "constant": true,
      "inputs": [],
      "name": "isOwner",
      "outputs": [
        {
          "internalType": "bool",
          "name": "",
          "type": "bool"
        }
      ],
      "payable": false,
      "stateMutability": "view",
      "type": "function"
    },
    {
      "constant": true,
      "inputs": [
        {
          "internalType": "uint256",
          "name": "blockNumber",
          "type": "uint256"
        }
      ],
      "name": "minQuorumSize",
      "outputs": [
        {
          "internalType": "uint256",
          "name": "",
          "type": "uint256"
        }
      ],
      "payable": false,
      "stateMutability": "view",
      "type": "function"
    },
    {
      "constant": true,
      "inputs": [],
      "name": "minQuorumSizeInCurrentSet",
      "outputs": [
        {
          "internalType": "uint256",
          "name": "",
          "type": "uint256"
        }
      ],
      "payable": false,
      "stateMutability": "view",
      "type": "function"
    },
    {
      "constant": true,
      "inputs": [],
      "name": "numberValidatorsInCurrentSet",
      "outputs": [
        {
          "internalType": "uint256",
          "name": "",
          "type": "uint256"
        }
      ],
      "payable": false,
      "stateMutability": "view",
      "type": "function"
    },
    {
      "constant": true,
      "inputs": [
        {
          "internalType": "uint256",
          "name": "blockNumber",
          "type": "uint256"
        }
      ],
      "name": "numberValidatorsInSet",
      "outputs": [
        {
          "internalType": "uint256",
          "name": "",
          "type": "uint256"
        }
      ],
      "payable": false,
      "stateMutability": "view",
      "type": "function"
    },
    {
      "constant": true,
      "inputs": [],
      "name": "owner",
      "outputs": [
        {
          "internalType": "address",
          "name": "",
          "type": "address"
        }
      ],
      "payable": false,
      "stateMutability": "view",
      "type": "function"
    },
    {
      "constant": false,
      "inputs": [],
      "name": "renounceOwnership",
      "outputs": [],
      "payable": false,
      "stateMutability": "nonpayable",
      "type": "function"
    },
    {
      "constant": false,
      "inputs": [
        {
          "internalType": "address",
          "name": "newOwner",
          "type": "address"
        }
      ],
      "name": "transferOwnership",
      "outputs": [],
      "payable": false,
      "stateMutability": "nonpayable",
      "type": "function"
    },
    {
      "constant": true,
      "inputs": [
        {
          "internalType": "uint256",
          "name": "index",
          "type": "uint256"
        }
      ],
      "name": "validatorSignerAddressFromCurrentSet",
      "outputs": [
        {
          "internalType": "address",
          "name": "",
          "type": "address"
        }
      ],
      "payable": false,
      "stateMutability": "view",
      "type": "function"
    },
    {
      "constant": true,
      "inputs": [
        {
          "internalType": "uint256",
          "name": "index",
          "type": "uint256"
        },
        {
          "internalType": "uint256",
          "name": "blockNumber",
          "type": "uint256"
        }
      ],
      "name": "validatorSignerAddressFromSet",
      "outputs": [
        {
          "internalType": "address",
          "name": "",
          "type": "address"
        }
      ],
      "payable": false,
      "stateMutability": "view",
      "type": "function"
    },
    {
      "constant": false,
      "inputs": [
        {
          "internalType": "uint256",
          "name": "_gasForNonGoldCurrencies",
          "type": "uint256"
        },
        {
          "internalType": "uint256",
          "name": "gasLimit",
          "type": "uint256"
        },
        {
          "internalType": "uint256",
          "name": "lookbackWindow",
          "type": "uint256"
        }
      ],
      "name": "initialize",
      "outputs": [],
      "payable": false,
      "stateMutability": "nonpayable",
      "type": "function"
    },
    {
      "constant": true,
      "inputs": [],
      "name": "getVersionNumber",
      "outputs": [
        {
          "internalType": "uint256",
          "name": "",
          "type": "uint256"
        },
        {
          "internalType": "uint256",
          "name": "",
          "type": "uint256"
        },
        {
          "internalType": "uint256",
          "name": "",
          "type": "uint256"
        },
        {
          "internalType": "uint256",
          "name": "",
          "type": "uint256"
        }
      ],
      "payable": false,
      "stateMutability": "pure",
      "type": "function"
    },
    {
      "constant": false,
      "inputs": [
        {
          "internalType": "uint256",
          "name": "gasLimit",
          "type": "uint256"
        }
      ],
      "name": "setBlockGasLimit",
      "outputs": [],
      "payable": false,
      "stateMutability": "nonpayable",
      "type": "function"
    },
    {
      "constant": false,
      "inputs": [
        {
          "internalType": "uint256",
          "name": "gas",
          "type": "uint256"
        }
      ],
      "name": "setIntrinsicGasForAlternativeFeeCurrency",
      "outputs": [],
      "payable": false,
      "stateMutability": "nonpayable",
      "type": "function"
    },
    {
      "constant": false,
      "inputs": [
        {
          "internalType": "uint256",
          "name": "window",
          "type": "uint256"
        }
      ],
      "name": "setUptimeLookbackWindow",
      "outputs": [],
      "payable": false,
      "stateMutability": "nonpayable",
      "type": "function"
    },
    {
      "constant": true,
      "inputs": [],
      "name": "getUptimeLookbackWindow",
      "outputs": [
        {
          "internalType": "uint256",
          "name": "lookbackWindow",
          "type": "uint256"
        }
      ],
      "payable": false,
      "stateMutability": "view",
      "type": "function"
    },
    {
      "constant": true,
      "inputs": [],
      "name": "blockGasLimit",
      "outputs": [
        {
          "internalType": "uint256",
          "name": "",
          "type": "uint256"
        }
      ],
      "payable": false,
      "stateMutability": "view",
      "type": "function"
    },
    {
      "constant": true,
      "inputs": [],
      "name": "intrinsicGasForAlternativeFeeCurrency",
      "outputs": [
        {
          "internalType": "uint256",
          "name": "",
          "type": "uint256"
        }
      ],
      "payable": false,
      "stateMutability": "view",
      "type": "function"
    }
  ],
  "bytecode": "0x60806040523480156200001157600080fd5b5060405162002dee38038062002dee833981810160405260208110156200003757600080fd5b81019080805190602001909291905050508060006200005b6200012360201b60201c565b9050806000806101000a81548173ffffffffffffffffffffffffffffffffffffffff021916908373ffffffffffffffffffffffffffffffffffffffff1602179055508073ffffffffffffffffffffffffffffffffffffffff16600073ffffffffffffffffffffffffffffffffffffffff167f8be0079c531659141344cd1fd0a4f28419497f9722a3daafe3b4186f6b6457e060405160405180910390a350806200011b576001600060146101000a81548160ff0219169083151502179055505b50506200012b565b600033905090565b612cb3806200013b6000396000f3fe608060405234801561001057600080fd5b50600436106101c45760003560e01c806387ee8a0f116100f9578063cb0ec62811610097578063e94fd10911610071578063e94fd109146109a7578063ec683072146109d5578063f2fde38b14610a50578063fae8db0a14610a94576101c4565b8063cb0ec62814610919578063df4da46114610947578063e50e652d14610965576101c4565b80638f32d59b116100d35780638f32d59b146108695780639a7b3be71461088b5780639b2b592f146108a9578063a69257f3146108eb576101c4565b806387ee8a0f146107325780638a883626146107505780638da5cb5b1461081f576101c4565b80635d180adb116101665780637385e5da116101405780637385e5da146106965780637877a797146106b4578063808474f1146106d257806380d85911146106f0576101c4565b80635d180adb1461054557806367960e91146105bd578063715018a61461068c576101c4565b80633b1eb4bf116101a25780633b1eb4bf146103e35780634b2c2f441461042557806352bed4d7146104f457806354255be014610512576101c4565b8063123633ea146101c9578063158ef93e1461023757806323f0ab6514610259575b600080fd5b6101f5600480360360208110156101df57600080fd5b8101908080359060200190929190505050610ad6565b604051808273ffffffffffffffffffffffffffffffffffffffff1673ffffffffffffffffffffffffffffffffffffffff16815260200191505060405180910390f35b61023f610c2f565b604051808215151515815260200191505060405180910390f35b6103c96004803603606081101561026f57600080fd5b81019080803573ffffffffffffffffffffffffffffffffffffffff169060200190929190803590602001906401000000008111156102ac57600080fd5b8201836020820111156102be57600080fd5b803590602001918460018302840111640100000000831117156102e057600080fd5b91908080601f016020809104026020016040519081016040528093929190818152602001838380828437600081840152601f19601f8201169050808301925050505050505091929192908035906020019064010000000081111561034357600080fd5b82018360208201111561035557600080fd5b8035906020019184600183028401116401000000008311171561037757600080fd5b91908080601f016020809104026020016040519081016040528093929190818152602001838380828437600081840152601f19601f820116905080830192505050505050509192919290505050610c42565b604051808215151515815260200191505060405180910390f35b61040f600480360360208110156103f957600080fd5b8101908080359060200190929190505050610e04565b6040518082815260200191505060405180910390f35b6104de6004803603602081101561043b57600080fd5b810190808035906020019064010000000081111561045857600080fd5b82018360208201111561046a57600080fd5b8035906020019184600183028401116401000000008311171561048c57600080fd5b91908080601f016020809104026020016040519081016040528093929190818152602001838380828437600081840152601f19601f820116905080830192505050505050509192919290505050610e26565b6040518082815260200191505060405180910390f35b6104fc610fc2565b6040518082815260200191505060405180910390f35b61051a61102b565b6040518085815260200184815260200183815260200182815260200194505050505060405180910390f35b61057b6004803603604081101561055b57600080fd5b810190808035906020019092919080359060200190929190505050611053565b604051808273ffffffffffffffffffffffffffffffffffffffff1673ffffffffffffffffffffffffffffffffffffffff16815260200191505060405180910390f35b610676600480360360208110156105d357600080fd5b81019080803590602001906401000000008111156105f057600080fd5b82018360208201111561060257600080fd5b8035906020019184600183028401116401000000008311171561062457600080fd5b91908080601f016020809104026020016040519081016040528093929190818152602001838380828437600081840152601f19601f8201169050808301925050505050505091929192905050506111ad565b6040518082815260200191505060405180910390f35b610694611349565b005b61069e611482565b6040518082815260200191505060405180910390f35b6106bc61149a565b6040518082815260200191505060405180910390f35b6106da6114ac565b6040518082815260200191505060405180910390f35b6107306004803603606081101561070657600080fd5b810190808035906020019092919080359060200190929190803590602001909291905050506114be565b005b61073a611585565b6040518082815260200191505060405180910390f35b6108096004803603602081101561076657600080fd5b810190808035906020019064010000000081111561078357600080fd5b82018360208201111561079557600080fd5b803590602001918460018302840111640100000000831117156107b757600080fd5b91908080601f016020809104026020016040519081016040528093929190818152602001838380828437600081840152601f19601f8201169050808301925050505050505091929192905050506116d4565b6040518082815260200191505060405180910390f35b610827611870565b604051808273ffffffffffffffffffffffffffffffffffffffff1673ffffffffffffffffffffffffffffffffffffffff16815260200191505060405180910390f35b610871611899565b604051808215151515815260200191505060405180910390f35b6108936118f7565b6040518082815260200191505060405180910390f35b6108d5600480360360208110156108bf57600080fd5b810190808035906020019092919050505061190f565b6040518082815260200191505060405180910390f35b6109176004803603602081101561090157600080fd5b8101908080359060200190929190505050611a60565b005b6109456004803603602081101561092f57600080fd5b8101908080359060200190929190505050611b23565b005b61094f611be6565b6040518082815260200191505060405180910390f35b6109916004803603602081101561097b57600080fd5b8101908080359060200190929190505050611d3d565b6040518082815260200191505060405180910390f35b6109d3600480360360208110156109bd57600080fd5b8101908080359060200190929190505050611d90565b005b610a33600480360360c08110156109eb57600080fd5b81019080803590602001909291908035906020019092919080359060200190929190803590602001909291908035906020019092919080359060200190929190505050611f73565b604051808381526020018281526020019250505060405180910390f35b610a9260048036036020811015610a6657600080fd5b81019080803573ffffffffffffffffffffffffffffffffffffffff16906020019092919050505061218f565b005b610ac060048036036020811015610aaa57600080fd5b8101908080359060200190929190505050612215565b6040518082815260200191505060405180910390f35b6000610ae0612366565b6060600060fa73ffffffffffffffffffffffffffffffffffffffff16844360405160200180838152602001828152602001925050506040516020818303038152906040526040518082805190602001908083835b60208310610b575780518252602082019150602081019050602083039250610b34565b6001836020036101000a038019825116818451168082178552505050505050905001915050600060405180830381855afa9150503d8060008114610bb7576040519150601f19603f3d011682016040523d82523d6000602084013e610bbc565b606091505b50809350819250505080610c1b576040517f08c379a000000000000000000000000000000000000000000000000000000000815260040180806020018281038252603d815260200180612a2e603d913960400191505060405180910390fd5b610c268260006123c6565b92505050919050565b600060149054906101000a900460ff1681565b6000610c4c612366565b600060fb73ffffffffffffffffffffffffffffffffffffffff16858585604051602001808473ffffffffffffffffffffffffffffffffffffffff1673ffffffffffffffffffffffffffffffffffffffff1660601b815260140183805190602001908083835b60208310610cd45780518252602082019150602081019050602083039250610cb1565b6001836020036101000a03801982511681845116808217855250505050505090500182805190602001908083835b60208310610d255780518252602082019150602081019050602083039250610d02565b6001836020036101000a03801982511681845116808217855250505050505090500193505050506040516020818303038152906040526040518082805190602001908083835b60208310610d8e5780518252602082019150602081019050602083039250610d6b565b6001836020036101000a038019825116818451168082178552505050505050905001915050600060405180830381855afa9150503d8060008114610dee576040519150601f19603f3d011682016040523d82523d6000602084013e610df3565b606091505b505080915050809150509392505050565b6000610e0e612366565b610e1f82610e1a611be6565b6123dd565b9050919050565b6000610e30612366565b6060600060f473ffffffffffffffffffffffffffffffffffffffff16846040516020018082805190602001908083835b60208310610e835780518252602082019150602081019050602083039250610e60565b6001836020036101000a0380198251168184511680821785525050505050509050019150506040516020818303038152906040526040518082805190602001908083835b60208310610eea5780518252602082019150602081019050602083039250610ec7565b6001836020036101000a038019825116818451168082178552505050505050905001915050600060405180830381855afa9150503d8060008114610f4a576040519150601f19603f3d011682016040523d82523d6000602084013e610f4f565b606091505b50809350819250505080610fae576040517f08c379a00000000000000000000000000000000000000000000000000000000081526004018080602001828103825260388152602001806129f66038913960400191505060405180910390fd5b610fb9826000612425565b92505050919050565b6000610fcc6124c6565b90506000811415611028576040517f08c379a0000000000000000000000000000000000000000000000000000000008152600401808060200182810382526027815260200180612baa6027913960400191505060405180910390fd5b90565b6000806000806001600360016000839350829250819150809050935093509350935090919293565b600061105d612366565b6060600060fa73ffffffffffffffffffffffffffffffffffffffff16858560405160200180838152602001828152602001925050506040516020818303038152906040526040518082805190602001908083835b602083106110d457805182526020820191506020810190506020830392506110b1565b6001836020036101000a038019825116818451168082178552505050505050905001915050600060405180830381855afa9150503d8060008114611134576040519150601f19603f3d011682016040523d82523d6000602084013e611139565b606091505b50809350819250505080611198576040517f08c379a0000000000000000000000000000000000000000000000000000000008152600401808060200182810382526036815260200180612ac96036913960400191505060405180910390fd5b6111a38260006123c6565b9250505092915050565b60006111b7612366565b6060600060f673ffffffffffffffffffffffffffffffffffffffff16846040516020018082805190602001908083835b6020831061120a57805182526020820191506020810190506020830392506111e7565b6001836020036101000a0380198251168184511680821785525050505050509050019150506040516020818303038152906040526040518082805190602001908083835b60208310611271578051825260208201915060208101905060208303925061124e565b6001836020036101000a038019825116818451168082178552505050505050905001915050600060405180830381855afa9150503d80600081146112d1576040519150601f19603f3d011682016040523d82523d6000602084013e6112d6565b606091505b50809350819250505080611335576040517f08c379a0000000000000000000000000000000000000000000000000000000008152600401808060200182810382526023815260200180612c5c6023913960400191505060405180910390fd5b611340826000612425565b92505050919050565b611351611899565b6113c3576040517f08c379a00000000000000000000000000000000000000000000000000000000081526004018080602001828103825260208152602001807f4f776e61626c653a2063616c6c6572206973206e6f7420746865206f776e657281525060200191505060405180910390fd5b600073ffffffffffffffffffffffffffffffffffffffff166000809054906101000a900473ffffffffffffffffffffffffffffffffffffffff1673ffffffffffffffffffffffffffffffffffffffff167f8be0079c531659141344cd1fd0a4f28419497f9722a3daafe3b4186f6b6457e060405160405180910390a360008060006101000a81548173ffffffffffffffffffffffffffffffffffffffff021916908373ffffffffffffffffffffffffffffffffffffffff160217905550565b600061148c612366565b61149543611d3d565b905090565b60006114a4612366565b600454905090565b60006114b6612366565b600554905090565b600060149054906101000a900460ff1615611541576040517f08c379a000000000000000000000000000000000000000000000000000000000815260040180806020018281038252601c8152602001807f636f6e747261637420616c726561647920696e697469616c697a65640000000081525060200191505060405180910390fd5b6001600060146101000a81548160ff021916908315150217905550611565336124fc565b61156e82611a60565b61157783611b23565b61158081611d90565b505050565b600061158f612366565b6060600060f973ffffffffffffffffffffffffffffffffffffffff1643604051602001808281526020019150506040516020818303038152906040526040518082805190602001908083835b602083106115fe57805182526020820191506020810190506020830392506115db565b6001836020036101000a038019825116818451168082178552505050505050905001915050600060405180830381855afa9150503d806000811461165e576040519150601f19603f3d011682016040523d82523d6000602084013e611663565b606091505b508093508192505050806116c2576040517f08c379a0000000000000000000000000000000000000000000000000000000008152600401808060200182810382526035815260200180612a6b6035913960400191505060405180910390fd5b6116cd8260006123c6565b9250505090565b60006116de612366565b6060600060f773ffffffffffffffffffffffffffffffffffffffff16846040516020018082805190602001908083835b60208310611731578051825260208201915060208101905060208303925061170e565b6001836020036101000a0380198251168184511680821785525050505050509050019150506040516020818303038152906040526040518082805190602001908083835b602083106117985780518252602082019150602081019050602083039250611775565b6001836020036101000a038019825116818451168082178552505050505050905001915050600060405180830381855afa9150503d80600081146117f8576040519150601f19603f3d011682016040523d82523d6000602084013e6117fd565b606091505b5080935081925050508061185c576040517f08c379a0000000000000000000000000000000000000000000000000000000008152600401808060200182810382526031815260200180612bfd6031913960400191505060405180910390fd5b6118678260006123c6565b92505050919050565b60008060009054906101000a900473ffffffffffffffffffffffffffffffffffffffff16905090565b60008060009054906101000a900473ffffffffffffffffffffffffffffffffffffffff1673ffffffffffffffffffffffffffffffffffffffff166118db612640565b73ffffffffffffffffffffffffffffffffffffffff1614905090565b6000611901612366565b61190a43610e04565b905090565b6000611919612366565b6060600060f973ffffffffffffffffffffffffffffffffffffffff1684604051602001808281526020019150506040516020818303038152906040526040518082805190602001908083835b602083106119885780518252602082019150602081019050602083039250611965565b6001836020036101000a038019825116818451168082178552505050505050905001915050600060405180830381855afa9150503d80600081146119e8576040519150601f19603f3d011682016040523d82523d6000602084013e6119ed565b606091505b50809350819250505080611a4c576040517f08c379a000000000000000000000000000000000000000000000000000000000815260040180806020018281038252602e8152602001806129a2602e913960400191505060405180910390fd5b611a578260006123c6565b92505050919050565b611a68611899565b611ada576040517f08c379a00000000000000000000000000000000000000000000000000000000081526004018080602001828103825260208152602001807f4f776e61626c653a2063616c6c6572206973206e6f7420746865206f776e657281525060200191505060405180910390fd5b611ae2612366565b806004819055507f55311ae9c14427b0863f38ed97a2a5944c50d824bbf692836246512e6822c3cf816040518082815260200191505060405180910390a150565b611b2b611899565b611b9d576040517f08c379a00000000000000000000000000000000000000000000000000000000081526004018080602001828103825260208152602001807f4f776e61626c653a2063616c6c6572206973206e6f7420746865206f776e657281525060200191505060405180910390fd5b611ba5612366565b806005819055507fba9c6f28c7d9990745a5b5282dbee04706c28cae24a44736c3ba99b57c021f3e816040518082815260200191505060405180910390a150565b6000611bf0612366565b6060600060f873ffffffffffffffffffffffffffffffffffffffff16600160405160200180821515151560f81b81526001019150506040516020818303038152906040526040518082805190602001908083835b60208310611c675780518252602082019150602081019050602083039250611c44565b6001836020036101000a038019825116818451168082178552505050505050905001915050600060405180830381855afa9150503d8060008114611cc7576040519150601f19603f3d011682016040523d82523d6000602084013e611ccc565b606091505b50809350819250505080611d2b576040517f08c379a0000000000000000000000000000000000000000000000000000000008152600401808060200182810382526025815260200180612b856025913960400191505060405180910390fd5b611d368260006123c6565b9250505090565b6000611d47612366565b611d896003611d7b6002611d6d6002611d5f8861190f565b61264890919063ffffffff16565b6126ce90919063ffffffff16565b61275690919063ffffffff16565b9050919050565b611d98612366565b611da0611899565b611e12576040517f08c379a00000000000000000000000000000000000000000000000000000000081526004018080602001828103825260208152602001807f4f776e61626c653a2063616c6c6572206973206e6f7420746865206f776e657281525060200191505060405180910390fd5b60038110158015611e2557506102d08111155b611e7a576040517f08c379a000000000000000000000000000000000000000000000000000000000815260040180806020018281038252602e815260200180612c2e602e913960400191505060405180910390fd5b611e956002611e87611be6565b6127a090919063ffffffff16565b811115611eed576040517f08c379a000000000000000000000000000000000000000000000000000000000815260040180806020018281038252603e815260200180612aff603e913960400191505060405180910390fd5b611ef56124c6565b600660000181905550611f196001611f0b6118f7565b6126ce90919063ffffffff16565b600660020181905550806006600101819055507f484a24d7faca8c4330aaf9ba5f131e6bd474ed6877a555511f39d16a1d71d15a81600660020154604051808381526020018281526020019250505060405180910390a150565b600080611f7e612366565b60008714158015611f90575060008514155b612002576040517f08c379a00000000000000000000000000000000000000000000000000000000081526004018080602001828103825260158152602001807f612064656e6f6d696e61746f72206973207a65726f000000000000000000000081525060200191505060405180910390fd5b6000806000606060fc73ffffffffffffffffffffffffffffffffffffffff168c8c8c8c8c8c6040516020018087815260200186815260200185815260200184815260200183815260200182815260200196505050505050506040516020818303038152906040526040518082805190602001908083835b6020831061209c5780518252602082019150602081019050602083039250612079565b6001836020036101000a038019825116818451168082178552505050505050905001915050600060405180830381855afa9150503d80600081146120fc576040519150601f19603f3d011682016040523d82523d6000602084013e612101565b606091505b50809250819350505081612160576040517f08c379a0000000000000000000000000000000000000000000000000000000008152600401808060200182810382526027815260200180612b5e6027913960400191505060405180910390fd5b61216b8160006123c6565b93506121788160206123c6565b925083839550955050505050965096945050505050565b612197611899565b612209576040517f08c379a00000000000000000000000000000000000000000000000000000000081526004018080602001828103825260208152602001807f4f776e61626c653a2063616c6c6572206973206e6f7420746865206f776e657281525060200191505060405180910390fd5b612212816124fc565b50565b600061221f612366565b6060600060f573ffffffffffffffffffffffffffffffffffffffff1684604051602001808281526020019150506040516020818303038152906040526040518082805190602001908083835b6020831061228e578051825260208201915060208101905060208303925061226b565b6001836020036101000a038019825116818451168082178552505050505050905001915050600060405180830381855afa9150503d80600081146122ee576040519150601f19603f3d011682016040523d82523d6000602084013e6122f3565b606091505b50809350819250505080612352576040517f08c379a000000000000000000000000000000000000000000000000000000000815260040180806020018281038252602c815260200180612bd1602c913960400191505060405180910390fd5b61235d826000612425565b92505050919050565b61236e6127ea565b156123c4576040517f08c379a0000000000000000000000000000000000000000000000000000000008152600401808060200182810382526029815260200180612aa06029913960400191505060405180910390fd5b565b60006123d28383612425565b60001c905092915050565b6000808284816123e957fe5b04905060008385816123f757fe5b061415612407578091505061241f565b61241b6001826126ce90919063ffffffff16565b9150505b92915050565b600061243b6020836126ce90919063ffffffff16565b835110156124b1576040517f08c379a00000000000000000000000000000000000000000000000000000000081526004018080602001828103825260148152602001807f736c6963696e67206f7574206f662072616e676500000000000000000000000081525060200191505060405180910390fd5b60006020830184015190508091505092915050565b60006124d0612366565b6006600201546124de6118f7565b106124f05760066001015490506124f9565b60066000015490505b90565b600073ffffffffffffffffffffffffffffffffffffffff168173ffffffffffffffffffffffffffffffffffffffff161415612582576040517f08c379a00000000000000000000000000000000000000000000000000000000081526004018080602001828103825260268152602001806129d06026913960400191505060405180910390fd5b8073ffffffffffffffffffffffffffffffffffffffff166000809054906101000a900473ffffffffffffffffffffffffffffffffffffffff1673ffffffffffffffffffffffffffffffffffffffff167f8be0079c531659141344cd1fd0a4f28419497f9722a3daafe3b4186f6b6457e060405160405180910390a3806000806101000a81548173ffffffffffffffffffffffffffffffffffffffff021916908373ffffffffffffffffffffffffffffffffffffffff16021790555050565b600033905090565b60008083141561265b57600090506126c8565b600082840290508284828161266c57fe5b04146126c3576040517f08c379a0000000000000000000000000000000000000000000000000000000008152600401808060200182810382526021815260200180612b3d6021913960400191505060405180910390fd5b809150505b92915050565b60008082840190508381101561274c576040517f08c379a000000000000000000000000000000000000000000000000000000000815260040180806020018281038252601b8152602001807f536166654d6174683a206164646974696f6e206f766572666c6f77000000000081525060200191505060405180910390fd5b8091505092915050565b600061279883836040518060400160405280601a81526020017f536166654d6174683a206469766973696f6e206279207a65726f00000000000081525061281b565b905092915050565b60006127e283836040518060400160405280601e81526020017f536166654d6174683a207375627472616374696f6e206f766572666c6f7700008152506128e1565b905092915050565b60008060007342000000000000000000000000000000000000189050803b915060008263ffffffff16119250505090565b600080831182906128c7576040517f08c379a00000000000000000000000000000000000000000000000000000000081526004018080602001828103825283818151815260200191508051906020019080838360005b8381101561288c578082015181840152602081019050612871565b50505050905090810190601f1680156128b95780820380516001836020036101000a031916815260200191505b509250505060405180910390fd5b5060008385816128d357fe5b049050809150509392505050565b600083831115829061298e576040517f08c379a00000000000000000000000000000000000000000000000000000000081526004018080602001828103825283818151815260200191508051906020019080838360005b83811015612953578082015181840152602081019050612938565b50505050905090810190601f1680156129805780820380516001836020036101000a031916815260200191505b509250505060405180910390fd5b506000838503905080915050939250505056fe6572726f722063616c6c696e67206e756d62657256616c696461746f7273496e53657420707265636f6d70696c654f776e61626c653a206e6577206f776e657220697320746865207a65726f20616464726573736572726f722063616c6c696e672067657456657269666965645365616c4269746d617046726f6d48656164657220707265636f6d70696c656572726f722063616c6c696e672076616c696461746f725369676e65724164647265737346726f6d43757272656e7453657420707265636f6d70696c656572726f722063616c6c696e67206e756d62657256616c696461746f7273496e43757272656e7453657420707265636f6d70696c6554686973206d6574686f64206973206e6f206c6f6e67657220737570706f7274656420696e204c322e6572726f722063616c6c696e672076616c696461746f725369676e65724164647265737346726f6d53657420707265636f6d70696c65557074696d654c6f6f6b6261636b57696e646f77206d75737420626520736d616c6c6572206f7220657175616c20746f2065706f636853697a65202d2032536166654d6174683a206d756c7469706c69636174696f6e206f766572666c6f776572726f722063616c6c696e67206672616374696f6e4d756c45787020707265636f6d70696c656572726f722063616c6c696e672067657445706f636853697a6520707265636f6d70696c65557074696d654c6f6f6b6261636b57696e646f77206973206e6f7420696e697469616c697a65646572726f722063616c6c696e6720676574506172656e745365616c4269746d617020707265636f6d70696c656572726f722063616c6c696e6720676574426c6f636b4e756d62657246726f6d48656164657220707265636f6d70696c65557074696d654c6f6f6b6261636b57696e646f77206d7573742062652077697468696e20736166652072616e67656572726f722063616c6c696e67206861736848656164657220707265636f6d70696c65a265627a7a72315820b6346f7b605a65fad5554b50275e50123c58382419e9be7462338ea23f75af3064736f6c634300050d0032",
  "source": "pragma solidity ^0.5.13;\n\nimport \"openzeppelin-solidity/contracts/math/SafeMath.sol\";\nimport \"openzeppelin-solidity/contracts/ownership/Ownable.sol\";\nimport \"../common/Initializable.sol\";\nimport \"../common/UsingPrecompiles.sol\";\n\n/**\n * @title Contract for storing blockchain parameters that can be set by governance.\n */\ncontract BlockchainParameters is Ownable, Initializable, UsingPrecompiles {\n  using SafeMath for uint256;\n\n  // obsolete\n  struct ClientVersion {\n    uint256 major;\n    uint256 minor;\n    uint256 patch;\n  }\n\n  struct LookbackWindow {\n    // Value for lookbackWindow before `nextValueActivationBlock`\n    uint256 oldValue;\n    // Value for lookbackWindow after `nextValueActivationBlock`\n    uint256 nextValue;\n    // Epoch where next value is activated\n    uint256 nextValueActivationEpoch;\n  }\n\n  ClientVersion private minimumClientVersion; // obsolete\n  uint256 private deprecated_blockGasLimit;\n  uint256 private deprecated_intrinsicGasForAlternativeFeeCurrency;\n  LookbackWindow private uptimeLookbackWindow;\n\n  event IntrinsicGasForAlternativeFeeCurrencySet(uint256 gas);\n  event BlockGasLimitSet(uint256 limit);\n  event UptimeLookbackWindowSet(uint256 window, uint256 activationEpoch);\n\n  /**\n   * @notice Sets initialized == true on implementation contracts\n   * @param test Set to true to skip implementation initialization\n   */\n  constructor(bool test) public Initializable(test) {}\n\n  /**\n   * @notice Used in place of the constructor to allow the contract to be upgradable via proxy.\n   * @param _gasForNonGoldCurrencies Intrinsic gas for non-gold gas currencies.\n   * @param gasLimit Block gas limit.\n   * @param lookbackWindow Lookback window for measuring validator uptime.\n   */\n  function initialize(\n    uint256 _gasForNonGoldCurrencies,\n    uint256 gasLimit,\n    uint256 lookbackWindow\n  ) external initializer {\n    _transferOwnership(msg.sender);\n    setBlockGasLimit(gasLimit);\n    setIntrinsicGasForAlternativeFeeCurrency(_gasForNonGoldCurrencies);\n    setUptimeLookbackWindow(lookbackWindow);\n  }\n\n  /**\n   * @notice Returns the storage, major, minor, and patch version of the contract.\n   * @return Storage version of the contract.\n   * @return Major version of the contract.\n   * @return Minor version of the contract.\n   * @return Patch version of the contract.\n   */\n  function getVersionNumber() external pure returns (uint256, uint256, uint256, uint256) {\n    return (1, 3, 1, 0);\n  }\n\n  /**\n   * @notice Sets the block gas limit.\n   * @param gasLimit New block gas limit.\n   */\n  function setBlockGasLimit(uint256 gasLimit) public onlyOwner onlyL1 {\n    deprecated_blockGasLimit = gasLimit;\n    emit BlockGasLimitSet(gasLimit);\n  }\n\n  /**\n   * @notice Sets the intrinsic gas for non-gold gas currencies.\n   * @param gas Intrinsic gas for non-gold gas currencies.\n   */\n  function setIntrinsicGasForAlternativeFeeCurrency(uint256 gas) public onlyOwner onlyL1 {\n    deprecated_intrinsicGasForAlternativeFeeCurrency = gas;\n    emit IntrinsicGasForAlternativeFeeCurrencySet(gas);\n  }\n\n  /**\n   * @notice Sets the uptime lookback window.\n   * @param window New window.\n   */\n  function setUptimeLookbackWindow(uint256 window) public onlyL1 onlyOwner {\n    require(window >= 3 && window <= 720, \"UptimeLookbackWindow must be within safe range\");\n    require(\n      window <= getEpochSize().sub(2),\n      \"UptimeLookbackWindow must be smaller or equal to epochSize - 2\"\n    );\n\n    uptimeLookbackWindow.oldValue = _getUptimeLookbackWindow();\n\n    // changes only take place on the next epoch\n    uptimeLookbackWindow.nextValueActivationEpoch = getEpochNumber().add(1);\n    uptimeLookbackWindow.nextValue = window;\n\n    emit UptimeLookbackWindowSet(window, uptimeLookbackWindow.nextValueActivationEpoch);\n  }\n\n  /**\n   * @notice Gets the uptime lookback window.\n   */\n  function getUptimeLookbackWindow() public view returns (uint256 lookbackWindow) {\n    lookbackWindow = _getUptimeLookbackWindow();\n    require(lookbackWindow != 0, \"UptimeLookbackWindow is not initialized\");\n  }\n\n  /**\n   * @notice Gets the Celo L1 block gas limit.\n   * @return The block gas limit.\n   * @dev Once Celo becomes an L2, query Optimism's L1 SystemConfig contract\n   * instead.\n   */\n  function blockGasLimit() public view onlyL1 returns (uint256) {\n    return deprecated_blockGasLimit;\n  }\n\n  /**\n   * @notice Gets the intrinsic gas paid for transactions using alternative fee\n   * currencies.\n   * @return The intrinsic gas for alternative fee currencies.\n   * @dev Once Celo becomes an L2, query the FeeCurrencyDirectory instead.\n   */\n  function intrinsicGasForAlternativeFeeCurrency() public view onlyL1 returns (uint256) {\n    return deprecated_intrinsicGasForAlternativeFeeCurrency;\n  }\n\n  /**\n   * @notice Gets the uptime lookback window.\n   */\n  function _getUptimeLookbackWindow() internal view onlyL1 returns (uint256 lookbackWindow) {\n    if (getEpochNumber() >= uptimeLookbackWindow.nextValueActivationEpoch) {\n      return uptimeLookbackWindow.nextValue;\n    } else {\n      return uptimeLookbackWindow.oldValue;\n    }\n  }\n}\n",
  "sourcePath": "/Users/beaver/Development/temp/celo-monorepo/packages/protocol/contracts/governance/BlockchainParameters.sol",
  "compiler": {
    "name": "solc",
    "version": "0.5.13+commit.5b0b510c.Emscripten.clang"
  },
  "schemaVersion": "3.4.13",
  "updatedAt": "2025-05-05T17:49:51.324Z",
  "devdoc": {
    "methods": {
      "blockGasLimit()": {
        "details": "Once Celo becomes an L2, query Optimism's L1 SystemConfig contract instead.",
        "return": "The block gas limit."
      },
      "checkProofOfPossession(address,bytes,bytes)": {
        "details": "This function will be deprecated in L2.",
        "params": {
          "blsKey": "The BLS public key that the validator is using for consensus, should pass proof  of possession. 48 bytes.",
          "blsPop": "The BLS public key proof-of-possession, which consists of a signature on the  account address. 96 bytes.",
          "sender": "The address signed by the BLS key to generate the proof of possession."
        },
        "return": "True upon success."
      },
      "constructor": {
        "params": {
          "test": "Set to true to skip implementation initialization"
        }
      },
      "fractionMulExp(uint256,uint256,uint256,uint256,uint256,uint256)": {
        "details": "This function will be deprecated in L2.",
        "params": {
          "_decimals": "precision",
          "aDenominator": "Denominator of first fraction",
          "aNumerator": "Numerator of first fraction",
          "bDenominator": "Denominator of exponentiated fraction",
          "bNumerator": "Numerator of exponentiated fraction",
          "exponent": "exponent to raise b to"
        },
        "return": "Numerator of the computed quantity (not reduced).Denominator of the computed quantity (not reduced)."
      },
      "getBlockNumberFromHeader(bytes)": {
        "details": "This function will be deprecated in L2.",
        "params": {
          "header": "RLP encoded header"
        },
        "return": "Block number."
      },
      "getEpochNumber()": {
        "details": "This function will be deprecated in L2.",
        "return": "Current epoch number."
      },
      "getEpochNumberOfBlock(uint256)": {
        "details": "This function will be deprecated in L2.",
        "params": {
          "blockNumber": "Block number where epoch number is calculated."
        },
        "return": "Epoch number."
      },
      "getEpochSize()": {
        "details": "This function will be deprecated in L2.",
        "return": "The current epoch size in blocks."
      },
      "getParentSealBitmap(uint256)": {
        "details": "This function will be deprecated in L2.",
        "params": {
          "blockNumber": "Block number to retrieve. Must be within 4 epochs of the current number."
        },
        "return": "Bitmap parent seal with set bits at indices corresponding to signing validators."
      },
      "getVerifiedSealBitmapFromHeader(bytes)": {
        "details": "This function will be deprecated in L2.",
        "params": {
          "header": "RLP encoded header"
        },
        "return": "Bitmap parent seal with set bits at indices correspoinding to signing validators."
      },
      "getVersionNumber()": {
        "return": "Storage version of the contract.Major version of the contract.Minor version of the contract.Patch version of the contract."
      },
      "hashHeader(bytes)": {
        "details": "This function will be deprecated in L2.",
        "params": {
          "header": "RLP encoded header"
        },
        "return": "Header hash."
      },
      "initialize(uint256,uint256,uint256)": {
        "params": {
          "_gasForNonGoldCurrencies": "Intrinsic gas for non-gold gas currencies.",
          "gasLimit": "Block gas limit.",
          "lookbackWindow": "Lookback window for measuring validator uptime."
        }
      },
      "intrinsicGasForAlternativeFeeCurrency()": {
        "details": "Once Celo becomes an L2, query the FeeCurrencyDirectory instead.",
        "return": "The intrinsic gas for alternative fee currencies."
      },
      "isOwner()": {
        "details": "Returns true if the caller is the current owner."
      },
      "minQuorumSize(uint256)": {
        "details": "Computed in celo-blockchain as int(math.Ceil(float64(2*valSet.Size()) / 3))This function will be deprecated in L2."
      },
      "minQuorumSizeInCurrentSet()": {
        "details": "This function will be deprecated in L2.",
        "return": "Byzantine quorum of validators."
      },
      "numberValidatorsInCurrentSet()": {
        "details": "This function will be deprecated in L2.",
        "return": "Size of the current elected validator set."
      },
      "numberValidatorsInSet(uint256)": {
        "details": "This function will be deprecated in L2.",
        "params": {
          "blockNumber": "Block number to retrieve the validator set from."
        },
        "return": "Size of the validator set."
      },
      "owner()": {
        "details": "Returns the address of the current owner."
      },
      "renounceOwnership()": {
        "details": "Leaves the contract without owner. It will not be possible to call `onlyOwner` functions anymore. Can only be called by the current owner.     * NOTE: Renouncing ownership will leave the contract without an owner, thereby removing any functionality that is only available to the owner."
      },
      "setBlockGasLimit(uint256)": {
        "params": {
          "gasLimit": "New block gas limit."
        }
      },
      "setIntrinsicGasForAlternativeFeeCurrency(uint256)": {
        "params": {
          "gas": "Intrinsic gas for non-gold gas currencies."
        }
      },
      "setUptimeLookbackWindow(uint256)": {
        "params": {
          "window": "New window."
        }
      },
      "transferOwnership(address)": {
        "details": "Transfers ownership of the contract to a new account (`newOwner`). Can only be called by the current owner."
      },
      "validatorSignerAddressFromCurrentSet(uint256)": {
        "details": "This function will be deprecated in L2.",
        "params": {
          "index": "Index of requested validator in the validator set."
        },
        "return": "Address of validator signer at the requested index."
      },
      "validatorSignerAddressFromSet(uint256,uint256)": {
        "details": "This function will be deprecated in L2.",
        "params": {
          "blockNumber": "Block number to retrieve the validator set from.",
          "index": "Index of requested validator in the validator set."
        },
        "return": "Address of validator signer at the requested index."
      }
    },
    "title": "Contract for storing blockchain parameters that can be set by governance."
  },
  "userdoc": {
    "methods": {
      "blockGasLimit()": {
        "notice": "Gets the Celo L1 block gas limit."
      },
      "checkProofOfPossession(address,bytes,bytes)": {
        "notice": "Checks a BLS proof of possession."
      },
      "constructor": "Sets initialized == true on implementation contracts",
      "fractionMulExp(uint256,uint256,uint256,uint256,uint256,uint256)": {
        "notice": "calculate a * b^x for fractions a, b to `decimals` precision"
      },
      "getBlockNumberFromHeader(bytes)": {
        "notice": "Parses block number out of header."
      },
      "getEpochNumber()": {
        "notice": "Returns the epoch number at a block."
      },
      "getEpochNumberOfBlock(uint256)": {
        "notice": "Returns the epoch number at a block."
      },
      "getEpochSize()": {
        "notice": "Returns the current epoch size in blocks."
      },
      "getParentSealBitmap(uint256)": {
        "notice": "Gets the parent seal bitmap from the header at the given block number."
      },
      "getUptimeLookbackWindow()": {
        "notice": "Gets the uptime lookback window."
      },
      "getVerifiedSealBitmapFromHeader(bytes)": {
        "notice": "Verifies the BLS signature on the header and returns the seal bitmap. The validator set used for verification is retrieved based on the parent hash field of the header.  If the parent hash is not in the blockchain, verification fails."
      },
      "getVersionNumber()": {
        "notice": "Returns the storage, major, minor, and patch version of the contract."
      },
      "hashHeader(bytes)": {
        "notice": "Computes hash of header."
      },
      "initialize(uint256,uint256,uint256)": {
        "notice": "Used in place of the constructor to allow the contract to be upgradable via proxy."
      },
      "intrinsicGasForAlternativeFeeCurrency()": {
        "notice": "Gets the intrinsic gas paid for transactions using alternative fee currencies."
      },
      "minQuorumSize(uint256)": {
        "notice": "Returns the minimum number of required signers for a given block number."
      },
      "minQuorumSizeInCurrentSet()": {
        "notice": "Computes byzantine quorum from current validator set size"
      },
      "numberValidatorsInCurrentSet()": {
        "notice": "Gets the size of the current elected validator set."
      },
      "numberValidatorsInSet(uint256)": {
        "notice": "Gets the size of the validator set that must sign the given block number."
      },
      "setBlockGasLimit(uint256)": {
        "notice": "Sets the block gas limit."
      },
      "setIntrinsicGasForAlternativeFeeCurrency(uint256)": {
        "notice": "Sets the intrinsic gas for non-gold gas currencies."
      },
      "setUptimeLookbackWindow(uint256)": {
        "notice": "Sets the uptime lookback window."
      },
      "validatorSignerAddressFromCurrentSet(uint256)": {
        "notice": "Gets a validator signer address from the current validator set."
      },
      "validatorSignerAddressFromSet(uint256,uint256)": {
        "notice": "Gets a validator signer address from the validator set at the given block number."
      }
    }
  }
}