{
  "contractName": "FeeCurrencyWhitelist",
  "abi": [
    {
      "inputs": [
        {
          "internalType": "bool",
          "name": "test",
          "type": "bool"
        }
      ],
      "payable": false,
      "stateMutability": "nonpayable",
      "type": "constructor"
    },
    {
      "anonymous": false,
      "inputs": [
        {
          "indexed": false,
          "internalType": "address",
          "name": "token",
          "type": "address"
        }
      ],
      "name": "FeeCurrencyWhitelistRemoved",
      "type": "event"
    },
    {
      "anonymous": false,
      "inputs": [
        {
          "indexed": false,
          "internalType": "address",
          "name": "token",
          "type": "address"
        }
      ],
      "name": "FeeCurrencyWhitelisted",
      "type": "event"
    },
    {
      "anonymous": false,
      "inputs": [
        {
          "indexed": true,
          "internalType": "address",
          "name": "previousOwner",
          "type": "address"
        },
        {
          "indexed": true,
          "internalType": "address",
          "name": "newOwner",
          "type": "address"
        }
      ],
      "name": "OwnershipTransferred",
      "type": "event"
    },
    {
      "constant": true,
      "inputs": [],
      "name": "initialized",
      "outputs": [
        {
          "internalType": "bool",
          "name": "",
          "type": "bool"
        }
      ],
      "payable": false,
      "stateMutability": "view",
      "type": "function"
    },
    {
      "constant": true,
      "inputs": [],
      "name": "isOwner",
      "outputs": [
        {
          "internalType": "bool",
          "name": "",
          "type": "bool"
        }
      ],
      "payable": false,
      "stateMutability": "view",
      "type": "function"
    },
    {
      "constant": true,
      "inputs": [],
      "name": "owner",
      "outputs": [
        {
          "internalType": "address",
          "name": "",
          "type": "address"
        }
      ],
      "payable": false,
      "stateMutability": "view",
      "type": "function"
    },
    {
      "constant": false,
      "inputs": [],
      "name": "renounceOwnership",
      "outputs": [],
      "payable": false,
      "stateMutability": "nonpayable",
      "type": "function"
    },
    {
      "constant": false,
      "inputs": [
        {
          "internalType": "address",
          "name": "newOwner",
          "type": "address"
        }
      ],
      "name": "transferOwnership",
      "outputs": [],
      "payable": false,
      "stateMutability": "nonpayable",
      "type": "function"
    },
    {
      "constant": false,
      "inputs": [],
      "name": "initialize",
      "outputs": [],
      "payable": false,
      "stateMutability": "nonpayable",
      "type": "function"
    },
    {
      "constant": false,
      "inputs": [
        {
          "internalType": "address",
          "name": "tokenAddress",
          "type": "address"
        }
      ],
      "name": "addToken",
      "outputs": [],
      "payable": false,
      "stateMutability": "nonpayable",
      "type": "function"
    },
    {
      "constant": true,
      "inputs": [],
      "name": "getWhitelist",
      "outputs": [
        {
          "internalType": "address[]",
          "name": "",
          "type": "address[]"
        }
      ],
      "payable": false,
      "stateMutability": "view",
      "type": "function"
    },
    {
      "constant": true,
      "inputs": [
        {
          "internalType": "uint256",
          "name": "index",
          "type": "uint256"
        }
      ],
      "name": "whitelist",
      "outputs": [
        {
          "internalType": "address",
          "name": "",
          "type": "address"
        }
      ],
      "payable": false,
      "stateMutability": "view",
      "type": "function"
    },
    {
      "constant": true,
      "inputs": [],
      "name": "getVersionNumber",
      "outputs": [
        {
          "internalType": "uint256",
          "name": "",
          "type": "uint256"
        },
        {
          "internalType": "uint256",
          "name": "",
          "type": "uint256"
        },
        {
          "internalType": "uint256",
          "name": "",
          "type": "uint256"
        },
        {
          "internalType": "uint256",
          "name": "",
          "type": "uint256"
        }
      ],
      "payable": false,
      "stateMutability": "pure",
      "type": "function"
    },
    {
      "constant": false,
      "inputs": [
        {
          "internalType": "address",
          "name": "tokenAddress",
          "type": "address"
        },
        {
          "internalType": "uint256",
          "name": "index",
          "type": "uint256"
        }
      ],
      "name": "removeToken",
      "outputs": [],
      "payable": false,
      "stateMutability": "nonpayable",
      "type": "function"
    }
  ],
  "bytecode": "0x608060405234801561001057600080fd5b50604051610eaa380380610eaa8339818101604052602081101561003357600080fd5b810190808051906020019092919050505080600061005561011b60201b60201c565b9050806000806101000a81548173ffffffffffffffffffffffffffffffffffffffff021916908373ffffffffffffffffffffffffffffffffffffffff1602179055508073ffffffffffffffffffffffffffffffffffffffff16600073ffffffffffffffffffffffffffffffffffffffff167f8be0079c531659141344cd1fd0a4f28419497f9722a3daafe3b4186f6b6457e060405160405180910390a35080610114576001600060146101000a81548160ff0219169083151502179055505b5050610123565b600033905090565b610d78806101326000396000f3fe608060405234801561001057600080fd5b50600436106100a95760003560e01c80638129fc1c116100715780638129fc1c146101c95780638da5cb5b146101d35780638f32d59b1461021d578063d01f63f51461023f578063d48bfca71461029e578063f2fde38b146102e2576100a9565b806313baf1e6146100ae578063158ef93e146100fc57806354255be01461011e578063715018a6146101515780637ebd1b301461015b575b600080fd5b6100fa600480360360408110156100c457600080fd5b81019080803573ffffffffffffffffffffffffffffffffffffffff16906020019092919080359060200190929190505050610326565b005b6101046105c1565b604051808215151515815260200191505060405180910390f35b6101266105d4565b6040518085815260200184815260200183815260200182815260200194505050505060405180910390f35b6101596105fb565b005b6101876004803603602081101561017157600080fd5b8101908080359060200190929190505050610734565b604051808273ffffffffffffffffffffffffffffffffffffffff1673ffffffffffffffffffffffffffffffffffffffff16815260200191505060405180910390f35b6101d161077d565b005b6101db610826565b604051808273ffffffffffffffffffffffffffffffffffffffff1673ffffffffffffffffffffffffffffffffffffffff16815260200191505060405180910390f35b61022561084f565b604051808215151515815260200191505060405180910390f35b6102476108ad565b6040518080602001828103825283818151815260200191508051906020019060200280838360005b8381101561028a57808201518184015260208101905061026f565b505050509050019250505060405180910390f35b6102e0600480360360208110156102b457600080fd5b81019080803573ffffffffffffffffffffffffffffffffffffffff169060200190929190505050610943565b005b610324600480360360208110156102f857600080fd5b81019080803573ffffffffffffffffffffffffffffffffffffffff169060200190929190505050610a91565b005b61032e61084f565b6103a0576040517f08c379a00000000000000000000000000000000000000000000000000000000081526004018080602001828103825260208152602001807f4f776e61626c653a2063616c6c6572206973206e6f7420746865206f776e657281525060200191505060405180910390fd5b6103a8610b17565b8173ffffffffffffffffffffffffffffffffffffffff16600182815481106103cc57fe5b9060005260206000200160009054906101000a900473ffffffffffffffffffffffffffffffffffffffff1673ffffffffffffffffffffffffffffffffffffffff1614610480576040517f08c379a00000000000000000000000000000000000000000000000000000000081526004018080602001828103825260148152602001807f496e64657820646f6573206e6f74206d6174636800000000000000000000000081525060200191505060405180910390fd5b6000600180549050905060018082038154811061049957fe5b9060005260206000200160009054906101000a900473ffffffffffffffffffffffffffffffffffffffff16600183815481106104d157fe5b9060005260206000200160006101000a81548173ffffffffffffffffffffffffffffffffffffffff021916908373ffffffffffffffffffffffffffffffffffffffff160217905550600180548061052457fe5b6001900381819060005260206000200160006101000a81549073ffffffffffffffffffffffffffffffffffffffff021916905590557fc1f06ffbe5c19d22daa982fd4b3886ced05d83e2bfe7de3b67222728f5234e2883604051808273ffffffffffffffffffffffffffffffffffffffff1673ffffffffffffffffffffffffffffffffffffffff16815260200191505060405180910390a1505050565b600060149054906101000a900460ff1681565b60008060008060018060026000839350829250819150809050935093509350935090919293565b61060361084f565b610675576040517f08c379a00000000000000000000000000000000000000000000000000000000081526004018080602001828103825260208152602001807f4f776e61626c653a2063616c6c6572206973206e6f7420746865206f776e657281525060200191505060405180910390fd5b600073ffffffffffffffffffffffffffffffffffffffff166000809054906101000a900473ffffffffffffffffffffffffffffffffffffffff1673ffffffffffffffffffffffffffffffffffffffff167f8be0079c531659141344cd1fd0a4f28419497f9722a3daafe3b4186f6b6457e060405160405180910390a360008060006101000a81548173ffffffffffffffffffffffffffffffffffffffff021916908373ffffffffffffffffffffffffffffffffffffffff160217905550565b600061073e610b17565b6001828154811061074b57fe5b9060005260206000200160009054906101000a900473ffffffffffffffffffffffffffffffffffffffff169050919050565b600060149054906101000a900460ff1615610800576040517f08c379a000000000000000000000000000000000000000000000000000000000815260040180806020018281038252601c8152602001807f636f6e747261637420616c726561647920696e697469616c697a65640000000081525060200191505060405180910390fd5b6001600060146101000a81548160ff02191690831515021790555061082433610b77565b565b60008060009054906101000a900473ffffffffffffffffffffffffffffffffffffffff16905090565b60008060009054906101000a900473ffffffffffffffffffffffffffffffffffffffff1673ffffffffffffffffffffffffffffffffffffffff16610891610cbb565b73ffffffffffffffffffffffffffffffffffffffff1614905090565b60606108b7610b17565b600180548060200260200160405190810160405280929190818152602001828054801561093957602002820191906000526020600020905b8160009054906101000a900473ffffffffffffffffffffffffffffffffffffffff1673ffffffffffffffffffffffffffffffffffffffff16815260200190600101908083116108ef575b5050505050905090565b61094b61084f565b6109bd576040517f08c379a00000000000000000000000000000000000000000000000000000000081526004018080602001828103825260208152602001807f4f776e61626c653a2063616c6c6572206973206e6f7420746865206f776e657281525060200191505060405180910390fd5b6109c5610b17565b60018190806001815401808255809150509060018203906000526020600020016000909192909190916101000a81548173ffffffffffffffffffffffffffffffffffffffff021916908373ffffffffffffffffffffffffffffffffffffffff160217905550507fcf4fe1d1989a39011040b0c33ba1165fdeeca971a1ab2b0340b23550f93727e081604051808273ffffffffffffffffffffffffffffffffffffffff1673ffffffffffffffffffffffffffffffffffffffff16815260200191505060405180910390a150565b610a9961084f565b610b0b576040517f08c379a00000000000000000000000000000000000000000000000000000000081526004018080602001828103825260208152602001807f4f776e61626c653a2063616c6c6572206973206e6f7420746865206f776e657281525060200191505060405180910390fd5b610b1481610b77565b50565b610b1f610cc3565b15610b75576040517f08c379a0000000000000000000000000000000000000000000000000000000008152600401808060200182810382526029815260200180610d1b6029913960400191505060405180910390fd5b565b600073ffffffffffffffffffffffffffffffffffffffff168173ffffffffffffffffffffffffffffffffffffffff161415610bfd576040517f08c379a0000000000000000000000000000000000000000000000000000000008152600401808060200182810382526026815260200180610cf56026913960400191505060405180910390fd5b8073ffffffffffffffffffffffffffffffffffffffff166000809054906101000a900473ffffffffffffffffffffffffffffffffffffffff1673ffffffffffffffffffffffffffffffffffffffff167f8be0079c531659141344cd1fd0a4f28419497f9722a3daafe3b4186f6b6457e060405160405180910390a3806000806101000a81548173ffffffffffffffffffffffffffffffffffffffff021916908373ffffffffffffffffffffffffffffffffffffffff16021790555050565b600033905090565b60008060007342000000000000000000000000000000000000189050803b915060008263ffffffff1611925050509056fe4f776e61626c653a206e6577206f776e657220697320746865207a65726f206164647265737354686973206d6574686f64206973206e6f206c6f6e67657220737570706f7274656420696e204c322ea265627a7a723158207db45cae2d896f5cb31e4c7ff09e4d3ac487ac2156b9854e738f0331057685e264736f6c634300050d0032",
  "source": "pragma solidity ^0.5.13;\n\nimport \"openzeppelin-solidity/contracts/ownership/Ownable.sol\";\n\nimport \"./interfaces/IFeeCurrencyWhitelist.sol\";\nimport \"../common/Initializable.sol\";\nimport \"../common/interfaces/ICeloVersionedContract.sol\";\nimport \"../../contracts-0.8/common/IsL2Check.sol\";\n\n/**\n * @title Holds a whitelist of the ERC20+ tokens that can be used to pay for gas\n * Not including the native Celo token\n */\ncontract FeeCurrencyWhitelist is\n  IFeeCurrencyWhitelist,\n  Ownable,\n  Initializable,\n  ICeloVersionedContract,\n  IsL2Check\n{\n  // Array of all the tokens enabled\n  address[] private deprecated_whitelist;\n\n  event FeeCurrencyWhitelisted(address token);\n\n  event FeeCurrencyWhitelistRemoved(address token);\n\n  /**\n   * @notice Sets initialized == true on implementation contracts\n   * @param test Set to true to skip implementation initialization\n   */\n  constructor(bool test) public Initializable(test) {}\n\n  /**\n   * @notice Used in place of the constructor to allow the contract to be upgradable via proxy.\n   */\n  function initialize() external initializer {\n    _transferOwnership(msg.sender);\n  }\n\n  /**\n   * @dev Add a token to the whitelist\n   * @param tokenAddress The address of the token to add.\n   */\n  function addToken(address tokenAddress) external onlyOwner onlyL1 {\n    deprecated_whitelist.push(tokenAddress);\n    emit FeeCurrencyWhitelisted(tokenAddress);\n  }\n\n  /**\n   * @return a list of all tokens enabled as gas fee currency.\n   * @dev Once Celo becomes an L2, use the FeeCurrencyDirectory contract\n   * instead.\n   */\n  function getWhitelist() external view onlyL1 returns (address[] memory) {\n    return deprecated_whitelist;\n  }\n\n  /**\n   * @notice Gets the whitelist item at the specified index.\n   * @return Address of a token in the whitelist.\n   * @dev Once Celo becomes an L2, use the FeeCurrencyDirectory contract\n   * instead.\n   */\n  function whitelist(uint256 index) external view onlyL1 returns (address) {\n    return deprecated_whitelist[index];\n  }\n\n  /**\n   * @notice Returns the storage, major, minor, and patch version of the contract.\n   * @return Storage version of the contract.\n   * @return Major version of the contract.\n   * @return Minor version of the contract.\n   * @return Patch version of the contract.\n   */\n  function getVersionNumber() external pure returns (uint256, uint256, uint256, uint256) {\n    return (1, 1, 2, 0);\n  }\n\n  /**\n   * @notice Removes a Mento token as enabled fee token. Tokens added with addToken should be\n   * removed with this function.\n   * @param tokenAddress The address of the token to remove.\n   * @param index The index of the token in the whitelist array.\n   */\n  function removeToken(address tokenAddress, uint256 index) public onlyOwner onlyL1 {\n    require(deprecated_whitelist[index] == tokenAddress, \"Index does not match\");\n    uint256 length = deprecated_whitelist.length;\n    deprecated_whitelist[index] = deprecated_whitelist[length - 1];\n    deprecated_whitelist.pop();\n    emit FeeCurrencyWhitelistRemoved(tokenAddress);\n  }\n}\n",
  "sourcePath": "/Users/beaver/Development/temp/celo-monorepo/packages/protocol/contracts/common/FeeCurrencyWhitelist.sol",
  "compiler": {
    "name": "solc",
    "version": "0.5.13+commit.5b0b510c.Emscripten.clang"
  },
  "schemaVersion": "3.4.13",
  "updatedAt": "2025-05-05T17:49:51.084Z",
  "devdoc": {
    "methods": {
      "addToken(address)": {
        "details": "Add a token to the whitelist",
        "params": {
          "tokenAddress": "The address of the token to add."
        }
      },
      "constructor": {
        "params": {
          "test": "Set to true to skip implementation initialization"
        }
      },
      "getVersionNumber()": {
        "return": "Storage version of the contract.Major version of the contract.Minor version of the contract.Patch version of the contract."
      },
      "getWhitelist()": {
        "details": "Once Celo becomes an L2, use the FeeCurrencyDirectory contract instead.",
        "return": "a list of all tokens enabled as gas fee currency."
      },
      "isOwner()": {
        "details": "Returns true if the caller is the current owner."
      },
      "owner()": {
        "details": "Returns the address of the current owner."
      },
      "removeToken(address,uint256)": {
        "params": {
          "index": "The index of the token in the whitelist array.",
          "tokenAddress": "The address of the token to remove."
        }
      },
      "renounceOwnership()": {
        "details": "Leaves the contract without owner. It will not be possible to call `onlyOwner` functions anymore. Can only be called by the current owner.     * NOTE: Renouncing ownership will leave the contract without an owner, thereby removing any functionality that is only available to the owner."
      },
      "transferOwnership(address)": {
        "details": "Transfers ownership of the contract to a new account (`newOwner`). Can only be called by the current owner."
      },
      "whitelist(uint256)": {
        "details": "Once Celo becomes an L2, use the FeeCurrencyDirectory contract instead.",
        "return": "Address of a token in the whitelist."
      }
    },
    "title": "Holds a whitelist of the ERC20+ tokens that can be used to pay for gas Not including the native Celo token"
  },
  "userdoc": {
    "methods": {
      "constructor": "Sets initialized == true on implementation contracts",
      "getVersionNumber()": {
        "notice": "Returns the storage, major, minor, and patch version of the contract."
      },
      "initialize()": {
        "notice": "Used in place of the constructor to allow the contract to be upgradable via proxy."
      },
      "removeToken(address,uint256)": {
        "notice": "Removes a Mento token as enabled fee token. Tokens added with addToken should be removed with this function."
      },
      "whitelist(uint256)": {
        "notice": "Gets the whitelist item at the specified index."
      }
    }
  }
}