{
  "contractName": "FeeHandler",
  "abi": [
    {
      "inputs": [
        {
          "internalType": "bool",
          "name": "test",
          "type": "bool"
        }
      ],
      "payable": false,
      "stateMutability": "nonpayable",
      "type": "constructor"
    },
    {
      "anonymous": false,
      "inputs": [
        {
          "indexed": false,
          "internalType": "address",
          "name": "beneficiary",
          "type": "address"
        }
      ],
      "name": "BeneficiaryAdded",
      "type": "event"
    },
    {
      "anonymous": false,
      "inputs": [
        {
          "indexed": false,
          "internalType": "address",
          "name": "beneficiary",
          "type": "address"
        },
        {
          "indexed": false,
          "internalType": "uint256",
          "name": "fraction",
          "type": "uint256"
        }
      ],
      "name": "BeneficiaryFractionSet",
      "type": "event"
    },
    {
      "anonymous": false,
      "inputs": [
        {
          "indexed": false,
          "internalType": "address",
          "name": "beneficiary",
          "type": "address"
        },
        {
          "indexed": false,
          "internalType": "string",
          "name": "name",
          "type": "string"
        }
      ],
      "name": "BeneficiaryNameSet",
      "type": "event"
    },
    {
      "anonymous": false,
      "inputs": [
        {
          "indexed": false,
          "internalType": "address",
          "name": "beneficiary",
          "type": "address"
        }
      ],
      "name": "BeneficiaryRemoved",
      "type": "event"
    },
    {
      "anonymous": false,
      "inputs": [
        {
          "indexed": false,
          "internalType": "uint256",
          "name": "fraction",
          "type": "uint256"
        }
      ],
      "name": "BurnFractionSet",
      "type": "event"
    },
    {
      "anonymous": false,
      "inputs": [
        {
          "indexed": false,
          "internalType": "uint256",
          "name": "fraction",
          "type": "uint256"
        }
      ],
      "name": "CarbonFractionSet",
      "type": "event"
    },
    {
      "anonymous": false,
      "inputs": [
        {
          "indexed": false,
          "internalType": "address",
          "name": "token",
          "type": "address"
        },
        {
          "indexed": false,
          "internalType": "uint256",
          "name": "burning",
          "type": "uint256"
        }
      ],
      "name": "DailyLimitHit",
      "type": "event"
    },
    {
      "anonymous": false,
      "inputs": [
        {
          "indexed": false,
          "internalType": "address",
          "name": "tokenAddress",
          "type": "address"
        },
        {
          "indexed": false,
          "internalType": "uint256",
          "name": "newLimit",
          "type": "uint256"
        }
      ],
      "name": "DailyLimitSet",
      "type": "event"
    },
    {
      "anonymous": false,
      "inputs": [
        {
          "indexed": false,
          "internalType": "uint256",
          "name": "amount",
          "type": "uint256"
        }
      ],
      "name": "DailySellLimitUpdated",
      "type": "event"
    },
    {
      "anonymous": false,
      "inputs": [
        {
          "indexed": false,
          "internalType": "address",
          "name": "tokenAddress",
          "type": "address"
        },
        {
          "indexed": false,
          "internalType": "uint256",
          "name": "amount",
          "type": "uint256"
        }
      ],
      "name": "DistributionAmountSet",
      "type": "event"
    },
    {
      "anonymous": false,
      "inputs": [
        {
          "indexed": false,
          "internalType": "address",
          "name": "newBeneficiary",
          "type": "address"
        }
      ],
      "name": "FeeBeneficiarySet",
      "type": "event"
    },
    {
      "anonymous": false,
      "inputs": [
        {
          "indexed": false,
          "internalType": "address",
          "name": "token",
          "type": "address"
        },
        {
          "indexed": false,
          "internalType": "uint256",
          "name": "maxSlippage",
          "type": "uint256"
        }
      ],
      "name": "MaxSlippageSet",
      "type": "event"
    },
    {
      "anonymous": false,
      "inputs": [
        {
          "indexed": true,
          "internalType": "address",
          "name": "previousOwner",
          "type": "address"
        },
        {
          "indexed": true,
          "internalType": "address",
          "name": "newOwner",
          "type": "address"
        }
      ],
      "name": "OwnershipTransferred",
      "type": "event"
    },
    {
      "anonymous": false,
      "inputs": [
        {
          "indexed": true,
          "internalType": "address",
          "name": "registryAddress",
          "type": "address"
        }
      ],
      "name": "RegistrySet",
      "type": "event"
    },
    {
      "anonymous": false,
      "inputs": [
        {
          "indexed": false,
          "internalType": "address",
          "name": "token",
          "type": "address"
        },
        {
          "indexed": false,
          "internalType": "uint256",
          "name": "value",
          "type": "uint256"
        }
      ],
      "name": "SoldAndBurnedToken",
      "type": "event"
    },
    {
      "anonymous": false,
      "inputs": [
        {
          "indexed": false,
          "internalType": "address",
          "name": "tokenAddress",
          "type": "address"
        },
        {
          "indexed": false,
          "internalType": "address",
          "name": "handlerAddress",
          "type": "address"
        }
      ],
      "name": "TokenAdded",
      "type": "event"
    },
    {
      "anonymous": false,
      "inputs": [
        {
          "indexed": false,
          "internalType": "address",
          "name": "tokenAddress",
          "type": "address"
        }
      ],
      "name": "TokenRemoved",
      "type": "event"
    },
    {
      "payable": true,
      "stateMutability": "payable",
      "type": "fallback"
    },
    {
      "constant": true,
      "inputs": [],
      "name": "FIXED1_UINT",
      "outputs": [
        {
          "internalType": "uint256",
          "name": "",
          "type": "uint256"
        }
      ],
      "payable": false,
      "stateMutability": "view",
      "type": "function"
    },
    {
      "constant": true,
      "inputs": [],
      "name": "MIN_BURN",
      "outputs": [
        {
          "internalType": "uint256",
          "name": "",
          "type": "uint256"
        }
      ],
      "payable": false,
      "stateMutability": "view",
      "type": "function"
    },
    {
      "constant": true,
      "inputs": [],
      "name": "ignoreRenaming_carbonFeeBeneficiary",
      "outputs": [
        {
          "internalType": "address",
          "name": "",
          "type": "address"
        }
      ],
      "payable": false,
      "stateMutability": "view",
      "type": "function"
    },
    {
      "constant": true,
      "inputs": [],
      "name": "initialized",
      "outputs": [
        {
          "internalType": "bool",
          "name": "",
          "type": "bool"
        }
      ],
      "payable": false,
      "stateMutability": "view",
      "type": "function"
    },
    {
      "constant": true,
      "inputs": [],
      "name": "isOwner",
      "outputs": [
        {
          "internalType": "bool",
          "name": "",
          "type": "bool"
        }
      ],
      "payable": false,
      "stateMutability": "view",
      "type": "function"
    },
    {
      "constant": true,
      "inputs": [],
      "name": "owner",
      "outputs": [
        {
          "internalType": "address",
          "name": "",
          "type": "address"
        }
      ],
      "payable": false,
      "stateMutability": "view",
      "type": "function"
    },
    {
      "constant": true,
      "inputs": [],
      "name": "registry",
      "outputs": [
        {
          "internalType": "contract IRegistry",
          "name": "",
          "type": "address"
        }
      ],
      "payable": false,
      "stateMutability": "view",
      "type": "function"
    },
    {
      "constant": false,
      "inputs": [],
      "name": "renounceOwnership",
      "outputs": [],
      "payable": false,
      "stateMutability": "nonpayable",
      "type": "function"
    },
    {
      "constant": false,
      "inputs": [
        {
          "internalType": "address",
          "name": "registryAddress",
          "type": "address"
        }
      ],
      "name": "setRegistry",
      "outputs": [],
      "payable": false,
      "stateMutability": "nonpayable",
      "type": "function"
    },
    {
      "constant": false,
      "inputs": [
        {
          "internalType": "address",
          "name": "newOwner",
          "type": "address"
        }
      ],
      "name": "transferOwnership",
      "outputs": [],
      "payable": false,
      "stateMutability": "nonpayable",
      "type": "function"
    },
    {
      "constant": false,
      "inputs": [
        {
          "internalType": "address",
          "name": "_registryAddress",
          "type": "address"
        },
        {
          "internalType": "address",
          "name": "newFeeBeneficiary",
          "type": "address"
        },
        {
          "internalType": "uint256",
          "name": "newCarbonFraction",
          "type": "uint256"
        },
        {
          "internalType": "address[]",
          "name": "tokens",
          "type": "address[]"
        },
        {
          "internalType": "address[]",
          "name": "handlers",
          "type": "address[]"
        },
        {
          "internalType": "uint256[]",
          "name": "newLimits",
          "type": "uint256[]"
        },
        {
          "internalType": "uint256[]",
          "name": "newMaxSlippages",
          "type": "uint256[]"
        }
      ],
      "name": "initialize",
      "outputs": [],
      "payable": false,
      "stateMutability": "nonpayable",
      "type": "function"
    },
    {
      "constant": false,
      "inputs": [
        {
          "internalType": "uint256",
          "name": "newFraction",
          "type": "uint256"
        }
      ],
      "name": "setCarbonFraction",
      "outputs": [],
      "payable": false,
      "stateMutability": "nonpayable",
      "type": "function"
    },
    {
      "constant": false,
      "inputs": [
        {
          "internalType": "address",
          "name": "tokenAddress",
          "type": "address"
        }
      ],
      "name": "setDistributionAndBurnAmounts",
      "outputs": [],
      "payable": false,
      "stateMutability": "nonpayable",
      "type": "function"
    },
    {
      "constant": false,
      "inputs": [
        {
          "internalType": "address",
          "name": "beneficiary",
          "type": "address"
        },
        {
          "internalType": "uint256",
          "name": "_newFraction",
          "type": "uint256"
        }
      ],
      "name": "changeOtherBeneficiaryAllocation",
      "outputs": [],
      "payable": false,
      "stateMutability": "nonpayable",
      "type": "function"
    },
    {
      "constant": false,
      "inputs": [
        {
          "internalType": "address",
          "name": "beneficiary",
          "type": "address"
        },
        {
          "internalType": "uint256",
          "name": "_newFraction",
          "type": "uint256"
        },
        {
          "internalType": "string",
          "name": "name",
          "type": "string"
        }
      ],
      "name": "addOtherBeneficiary",
      "outputs": [],
      "payable": false,
      "stateMutability": "nonpayable",
      "type": "function"
    },
    {
      "constant": false,
      "inputs": [
        {
          "internalType": "address",
          "name": "beneficiary",
          "type": "address"
        }
      ],
      "name": "removeOtherBeneficiary",
      "outputs": [],
      "payable": false,
      "stateMutability": "nonpayable",
      "type": "function"
    },
    {
      "constant": false,
      "inputs": [
        {
          "internalType": "address",
          "name": "beneficiaryAddress",
          "type": "address"
        },
        {
          "internalType": "uint256",
          "name": "_newFraction",
          "type": "uint256"
        }
      ],
      "name": "setBeneficiaryFraction",
      "outputs": [],
      "payable": false,
      "stateMutability": "nonpayable",
      "type": "function"
    },
    {
      "constant": false,
      "inputs": [
        {
          "internalType": "address",
          "name": "beneficiary",
          "type": "address"
        },
        {
          "internalType": "string",
          "name": "name",
          "type": "string"
        }
      ],
      "name": "setBeneficiaryName",
      "outputs": [],
      "payable": false,
      "stateMutability": "nonpayable",
      "type": "function"
    },
    {
      "constant": false,
      "inputs": [
        {
          "internalType": "address",
          "name": "beneficiary",
          "type": "address"
        }
      ],
      "name": "setCarbonFeeBeneficiary",
      "outputs": [],
      "payable": false,
      "stateMutability": "nonpayable",
      "type": "function"
    },
    {
      "constant": false,
      "inputs": [
        {
          "internalType": "address",
          "name": "tokenAddress",
          "type": "address"
        }
      ],
      "name": "sell",
      "outputs": [],
      "payable": false,
      "stateMutability": "nonpayable",
      "type": "function"
    },
    {
      "constant": false,
      "inputs": [
        {
          "internalType": "address",
          "name": "tokenAddress",
          "type": "address"
        },
        {
          "internalType": "address",
          "name": "handlerAddress",
          "type": "address"
        }
      ],
      "name": "addToken",
      "outputs": [],
      "payable": false,
      "stateMutability": "nonpayable",
      "type": "function"
    },
    {
      "constant": false,
      "inputs": [
        {
          "internalType": "address",
          "name": "tokenAddress",
          "type": "address"
        }
      ],
      "name": "activateToken",
      "outputs": [],
      "payable": false,
      "stateMutability": "nonpayable",
      "type": "function"
    },
    {
      "constant": false,
      "inputs": [
        {
          "internalType": "address",
          "name": "tokenAddress",
          "type": "address"
        }
      ],
      "name": "deactivateToken",
      "outputs": [],
      "payable": false,
      "stateMutability": "nonpayable",
      "type": "function"
    },
    {
      "constant": false,
      "inputs": [
        {
          "internalType": "address",
          "name": "tokenAddress",
          "type": "address"
        },
        {
          "internalType": "address",
          "name": "handlerAddress",
          "type": "address"
        }
      ],
      "name": "setHandler",
      "outputs": [],
      "payable": false,
      "stateMutability": "nonpayable",
      "type": "function"
    },
    {
      "constant": false,
      "inputs": [
        {
          "internalType": "address",
          "name": "tokenAddress",
          "type": "address"
        }
      ],
      "name": "removeToken",
      "outputs": [],
      "payable": false,
      "stateMutability": "nonpayable",
      "type": "function"
    },
    {
      "constant": false,
      "inputs": [
        {
          "internalType": "address",
          "name": "tokenAddress",
          "type": "address"
        }
      ],
      "name": "distribute",
      "outputs": [],
      "payable": false,
      "stateMutability": "nonpayable",
      "type": "function"
    },
    {
      "constant": false,
      "inputs": [
        {
          "internalType": "address",
          "name": "token",
          "type": "address"
        },
        {
          "internalType": "uint256",
          "name": "newMax",
          "type": "uint256"
        }
      ],
      "name": "setMaxSplippage",
      "outputs": [],
      "payable": false,
      "stateMutability": "nonpayable",
      "type": "function"
    },
    {
      "constant": false,
      "inputs": [
        {
          "internalType": "address",
          "name": "token",
          "type": "address"
        },
        {
          "internalType": "uint256",
          "name": "newLimit",
          "type": "uint256"
        }
      ],
      "name": "setDailySellLimit",
      "outputs": [],
      "payable": false,
      "stateMutability": "nonpayable",
      "type": "function"
    },
    {
      "constant": false,
      "inputs": [],
      "name": "burnCelo",
      "outputs": [],
      "payable": false,
      "stateMutability": "nonpayable",
      "type": "function"
    },
    {
      "constant": false,
      "inputs": [],
      "name": "distributeAll",
      "outputs": [],
      "payable": false,
      "stateMutability": "nonpayable",
      "type": "function"
    },
    {
      "constant": false,
      "inputs": [],
      "name": "handleAll",
      "outputs": [],
      "payable": false,
      "stateMutability": "nonpayable",
      "type": "function"
    },
    {
      "constant": false,
      "inputs": [
        {
          "internalType": "address",
          "name": "tokenAddress",
          "type": "address"
        }
      ],
      "name": "handle",
      "outputs": [],
      "payable": false,
      "stateMutability": "nonpayable",
      "type": "function"
    },
    {
      "constant": false,
      "inputs": [
        {
          "internalType": "address",
          "name": "token",
          "type": "address"
        },
        {
          "internalType": "address",
          "name": "recipient",
          "type": "address"
        },
        {
          "internalType": "uint256",
          "name": "value",
          "type": "uint256"
        }
      ],
      "name": "transfer",
      "outputs": [
        {
          "internalType": "bool",
          "name": "",
          "type": "bool"
        }
      ],
      "payable": false,
      "stateMutability": "nonpayable",
      "type": "function"
    },
    {
      "constant": true,
      "inputs": [],
      "name": "getCeloToBeBurned",
      "outputs": [
        {
          "internalType": "uint256",
          "name": "",
          "type": "uint256"
        }
      ],
      "payable": false,
      "stateMutability": "view",
      "type": "function"
    },
    {
      "constant": true,
      "inputs": [
        {
          "internalType": "address",
          "name": "token",
          "type": "address"
        }
      ],
      "name": "getPastBurnForToken",
      "outputs": [
        {
          "internalType": "uint256",
          "name": "",
          "type": "uint256"
        }
      ],
      "payable": false,
      "stateMutability": "view",
      "type": "function"
    },
    {
      "constant": true,
      "inputs": [],
      "name": "carbonFeeBeneficiary",
      "outputs": [
        {
          "internalType": "address",
          "name": "",
          "type": "address"
        }
      ],
      "payable": false,
      "stateMutability": "view",
      "type": "function"
    },
    {
      "constant": true,
      "inputs": [
        {
          "internalType": "address",
          "name": "tokenAddress",
          "type": "address"
        }
      ],
      "name": "getTokenHandler",
      "outputs": [
        {
          "internalType": "address",
          "name": "",
          "type": "address"
        }
      ],
      "payable": false,
      "stateMutability": "view",
      "type": "function"
    },
    {
      "constant": true,
      "inputs": [
        {
          "internalType": "address",
          "name": "tokenAddress",
          "type": "address"
        }
      ],
      "name": "getTokenActive",
      "outputs": [
        {
          "internalType": "bool",
          "name": "",
          "type": "bool"
        }
      ],
      "payable": false,
      "stateMutability": "view",
      "type": "function"
    },
    {
      "constant": true,
      "inputs": [
        {
          "internalType": "address",
          "name": "tokenAddress",
          "type": "address"
        }
      ],
      "name": "getTokenMaxSlippage",
      "outputs": [
        {
          "internalType": "uint256",
          "name": "",
          "type": "uint256"
        }
      ],
      "payable": false,
      "stateMutability": "view",
      "type": "function"
    },
    {
      "constant": true,
      "inputs": [
        {
          "internalType": "address",
          "name": "tokenAddress",
          "type": "address"
        }
      ],
      "name": "getTokenDailySellLimit",
      "outputs": [
        {
          "internalType": "uint256",
          "name": "",
          "type": "uint256"
        }
      ],
      "payable": false,
      "stateMutability": "view",
      "type": "function"
    },
    {
      "constant": true,
      "inputs": [
        {
          "internalType": "address",
          "name": "tokenAddress",
          "type": "address"
        }
      ],
      "name": "getTokenCurrentDaySellLimit",
      "outputs": [
        {
          "internalType": "uint256",
          "name": "",
          "type": "uint256"
        }
      ],
      "payable": false,
      "stateMutability": "view",
      "type": "function"
    },
    {
      "constant": true,
      "inputs": [
        {
          "internalType": "address",
          "name": "tokenAddress",
          "type": "address"
        }
      ],
      "name": "getTokenToDistribute",
      "outputs": [
        {
          "internalType": "uint256",
          "name": "",
          "type": "uint256"
        }
      ],
      "payable": false,
      "stateMutability": "view",
      "type": "function"
    },
    {
      "constant": true,
      "inputs": [
        {
          "internalType": "address",
          "name": "tokenAddress",
          "type": "address"
        }
      ],
      "name": "getTokenToBurn",
      "outputs": [
        {
          "internalType": "uint256",
          "name": "",
          "type": "uint256"
        }
      ],
      "payable": false,
      "stateMutability": "view",
      "type": "function"
    },
    {
      "constant": true,
      "inputs": [],
      "name": "getCarbonFraction",
      "outputs": [
        {
          "internalType": "uint256",
          "name": "",
          "type": "uint256"
        }
      ],
      "payable": false,
      "stateMutability": "view",
      "type": "function"
    },
    {
      "constant": true,
      "inputs": [],
      "name": "getBurnFraction",
      "outputs": [
        {
          "internalType": "uint256",
          "name": "",
          "type": "uint256"
        }
      ],
      "payable": false,
      "stateMutability": "view",
      "type": "function"
    },
    {
      "constant": true,
      "inputs": [
        {
          "internalType": "address",
          "name": "beneficiary",
          "type": "address"
        }
      ],
      "name": "getOtherBeneficiariesInfo",
      "outputs": [
        {
          "internalType": "uint256",
          "name": "",
          "type": "uint256"
        },
        {
          "internalType": "string",
          "name": "",
          "type": "string"
        },
        {
          "internalType": "bool",
          "name": "",
          "type": "bool"
        }
      ],
      "payable": false,
      "stateMutability": "view",
      "type": "function"
    },
    {
      "constant": true,
      "inputs": [],
      "name": "getTotalFractionOfOtherBeneficiariesAndCarbon",
      "outputs": [
        {
          "internalType": "uint256",
          "name": "",
          "type": "uint256"
        }
      ],
      "payable": false,
      "stateMutability": "view",
      "type": "function"
    },
    {
      "constant": true,
      "inputs": [],
      "name": "getOtherBeneficiariesAddresses",
      "outputs": [
        {
          "internalType": "address[]",
          "name": "",
          "type": "address[]"
        }
      ],
      "payable": false,
      "stateMutability": "view",
      "type": "function"
    },
    {
      "constant": true,
      "inputs": [],
      "name": "getVersionNumber",
      "outputs": [
        {
          "internalType": "uint256",
          "name": "",
          "type": "uint256"
        },
        {
          "internalType": "uint256",
          "name": "",
          "type": "uint256"
        },
        {
          "internalType": "uint256",
          "name": "",
          "type": "uint256"
        },
        {
          "internalType": "uint256",
          "name": "",
          "type": "uint256"
        }
      ],
      "payable": false,
      "stateMutability": "pure",
      "type": "function"
    },
    {
      "constant": false,
      "inputs": [
        {
          "internalType": "address",
          "name": "token",
          "type": "address"
        },
        {
          "internalType": "uint256",
          "name": "amountToBurn",
          "type": "uint256"
        }
      ],
      "name": "dailySellLimitHit",
      "outputs": [
        {
          "internalType": "bool",
          "name": "",
          "type": "bool"
        }
      ],
      "payable": false,
      "stateMutability": "nonpayable",
      "type": "function"
    },
    {
      "constant": true,
      "inputs": [],
      "name": "getActiveTokens",
      "outputs": [
        {
          "internalType": "address[]",
          "name": "",
          "type": "address[]"
        }
      ],
      "payable": false,
      "stateMutability": "view",
      "type": "function"
    },
    {
      "constant": true,
      "inputs": [],
      "name": "shouldBurn",
      "outputs": [
        {
          "internalType": "bool",
          "name": "",
          "type": "bool"
        }
      ],
      "payable": false,
      "stateMutability": "view",
      "type": "function"
    }
  ],
  "bytecode": "0x60806040523480156200001157600080fd5b506040516200686f3803806200686f833981810160405260208110156200003757600080fd5b81019080805190602001909291905050508060006200005b6200012b60201b60201c565b9050806000806101000a81548173ffffffffffffffffffffffffffffffffffffffff021916908373ffffffffffffffffffffffffffffffffffffffff1602179055508073ffffffffffffffffffffffffffffffffffffffff16600073ffffffffffffffffffffffffffffffffffffffff167f8be0079c531659141344cd1fd0a4f28419497f9722a3daafe3b4186f6b6457e060405160405180910390a350806200011b576001600060146101000a81548160ff0219169083151502179055505b5060016002819055505062000133565b600033905090565b61672c80620001436000396000f3fe6080604052600436106102ff5760003560e01c806374d844dc11610190578063c1a9954a116100dc578063e396f56311610095578063ec4bd8ae1161006f578063ec4bd8ae146114cb578063ee8df72d14611530578063f2fde38b14611547578063fc06400714611598576102ff565b8063e396f563146112ce578063e58d7eff146113aa578063e9f1bbde1461145a576102ff565b8063c1a9954a14611099578063c558df38146110f4578063c5da79621461114f578063cbfcb68a146111a6578063ce4773d314611212578063e320268814611277576102ff565b80638f32d59b11610149578063a144eea811610123578063a144eea814610f4d578063a91ee0dc14610f9e578063b8b99e4d14610fef578063beabacc814611006576102ff565b80638f32d59b14610e6857806392f8bce314610e9757806394b6f9d414610efc576102ff565b806374d844dc14610cb25780637b10399914610d035780637b76314014610d5a57806387f5186814610dab5780638c4bc1da14610dd65780638da5cb5b14610e11576102ff565b806349844b1c1161024f5780635fa7b584116102085780636654f435116101e25780636654f43514610b7c57806368173bcf14610be15780636c6c65ad14610c32578063715018a614610c9b576102ff565b80635fa7b5841461090b57806363453ae11461095c578063650a1605146109ad576102ff565b806349844b1c1461073d5780634e73db9914610768578063527e234d146107c357806354255be0146107ee5780635476bd721461082e5780635f5817e31461089f576102ff565b806331828a5b116102bc5780633cc3c8c8116102965780633cc3c8c8146105d45780633f5005d11461062f578063436596c414610680578063443e89da14610697576102ff565b806331828a5b146104a157806331b48055146105145780633b9e3ad614610543576102ff565b8063036235a6146103015780630d1ce2d21461032c5780631098d23b1461037d57806313e33cea146103e2578063158ef93e146104475780632457380b14610476575b005b34801561030d57600080fd5b506103166115c3565b6040518082815260200191505060405180910390f35b34801561033857600080fd5b5061037b6004803603602081101561034f57600080fd5b81019080803573ffffffffffffffffffffffffffffffffffffffff1690602001909291905050506115d1565b005b34801561038957600080fd5b506103cc600480360360208110156103a057600080fd5b81019080803573ffffffffffffffffffffffffffffffffffffffff169060200190929190505050611657565b6040518082815260200191505060405180910390f35b3480156103ee57600080fd5b506104316004803603602081101561040557600080fd5b81019080803573ffffffffffffffffffffffffffffffffffffffff1690602001909291905050506116a3565b6040518082815260200191505060405180910390f35b34801561045357600080fd5b5061045c6116ef565b604051808215151515815260200191505060405180910390f35b34801561048257600080fd5b5061048b611702565b6040518082815260200191505060405180910390f35b3480156104ad57600080fd5b506104fa600480360360408110156104c457600080fd5b81019080803573ffffffffffffffffffffffffffffffffffffffff16906020019092919080359060200190929190505050611719565b604051808215151515815260200191505060405180910390f35b34801561052057600080fd5b506105296117bb565b604051808215151515815260200191505060405180910390f35b34801561054f57600080fd5b506105926004803603602081101561056657600080fd5b81019080803573ffffffffffffffffffffffffffffffffffffffff1690602001909291905050506117cd565b604051808273ffffffffffffffffffffffffffffffffffffffff1673ffffffffffffffffffffffffffffffffffffffff16815260200191505060405180910390f35b3480156105e057600080fd5b5061062d600480360360408110156105f757600080fd5b81019080803573ffffffffffffffffffffffffffffffffffffffff16906020019092919080359060200190929190505050611839565b005b34801561063b57600080fd5b5061067e6004803603602081101561065257600080fd5b81019080803573ffffffffffffffffffffffffffffffffffffffff1690602001909291905050506118d5565b005b34801561068c57600080fd5b50610695611920565b005b3480156106a357600080fd5b5061073b600480360360408110156106ba57600080fd5b81019080803573ffffffffffffffffffffffffffffffffffffffff169060200190929190803590602001906401000000008111156106f757600080fd5b82018360208201111561070957600080fd5b8035906020019184600183028401116401000000008311171561072b57600080fd5b909192939192939050505061192a565b005b34801561074957600080fd5b506107526119f7565b6040518082815260200191505060405180910390f35b34801561077457600080fd5b506107c16004803603604081101561078b57600080fd5b81019080803573ffffffffffffffffffffffffffffffffffffffff169060200190929190803590602001909291905050506119fc565b005b3480156107cf57600080fd5b506107d8611a84565b6040518082815260200191505060405180910390f35b3480156107fa57600080fd5b50610803611a9b565b6040518085815260200184815260200183815260200182815260200194505050505060405180910390f35b34801561083a57600080fd5b5061089d6004803603604081101561085157600080fd5b81019080803573ffffffffffffffffffffffffffffffffffffffff169060200190929190803573ffffffffffffffffffffffffffffffffffffffff169060200190929190505050611ac2565b005b3480156108ab57600080fd5b506108b4611b4a565b6040518080602001828103825283818151815260200191508051906020019060200280838360005b838110156108f75780820151818401526020810190506108dc565b505050509050019250505060405180910390f35b34801561091757600080fd5b5061095a6004803603602081101561092e57600080fd5b81019080803573ffffffffffffffffffffffffffffffffffffffff169060200190929190505050611bdb565b005b34801561096857600080fd5b506109ab6004803603602081101561097f57600080fd5b81019080803573ffffffffffffffffffffffffffffffffffffffff169060200190929190505050611c61565b005b3480156109b957600080fd5b50610b7a600480360360e08110156109d057600080fd5b81019080803573ffffffffffffffffffffffffffffffffffffffff169060200190929190803573ffffffffffffffffffffffffffffffffffffffff1690602001909291908035906020019092919080359060200190640100000000811115610a3757600080fd5b820183602082011115610a4957600080fd5b80359060200191846020830284011164010000000083111715610a6b57600080fd5b909192939192939080359060200190640100000000811115610a8c57600080fd5b820183602082011115610a9e57600080fd5b80359060200191846020830284011164010000000083111715610ac057600080fd5b909192939192939080359060200190640100000000811115610ae157600080fd5b820183602082011115610af357600080fd5b80359060200191846020830284011164010000000083111715610b1557600080fd5b909192939192939080359060200190640100000000811115610b3657600080fd5b820183602082011115610b4857600080fd5b80359060200191846020830284011164010000000083111715610b6a57600080fd5b9091929391929390505050611cbb565b005b348015610b8857600080fd5b50610bcb60048036036020811015610b9f57600080fd5b81019080803573ffffffffffffffffffffffffffffffffffffffff169060200190929190505050611fa5565b6040518082815260200191505060405180910390f35b348015610bed57600080fd5b50610c3060048036036020811015610c0457600080fd5b81019080803573ffffffffffffffffffffffffffffffffffffffff169060200190929190505050611ff1565b005b348015610c3e57600080fd5b50610c8160048036036020811015610c5557600080fd5b81019080803573ffffffffffffffffffffffffffffffffffffffff169060200190929190505050612077565b604051808215151515815260200191505060405180910390f35b348015610ca757600080fd5b50610cb0612089565b005b348015610cbe57600080fd5b50610d0160048036036020811015610cd557600080fd5b81019080803573ffffffffffffffffffffffffffffffffffffffff1690602001909291905050506121c2565b005b348015610d0f57600080fd5b50610d18612248565b604051808273ffffffffffffffffffffffffffffffffffffffff1673ffffffffffffffffffffffffffffffffffffffff16815260200191505060405180910390f35b348015610d6657600080fd5b50610da960048036036020811015610d7d57600080fd5b81019080803573ffffffffffffffffffffffffffffffffffffffff16906020019092919050505061226e565b005b348015610db757600080fd5b50610dc061227a565b6040518082815260200191505060405180910390f35b348015610de257600080fd5b50610e0f60048036036020811015610df957600080fd5b810190808035906020019092919050505061228d565b005b348015610e1d57600080fd5b50610e26612313565b604051808273ffffffffffffffffffffffffffffffffffffffff1673ffffffffffffffffffffffffffffffffffffffff16815260200191505060405180910390f35b348015610e7457600080fd5b50610e7d61233c565b604051808215151515815260200191505060405180910390f35b348015610ea357600080fd5b50610ee660048036036020811015610eba57600080fd5b81019080803573ffffffffffffffffffffffffffffffffffffffff16906020019092919050505061239a565b6040518082815260200191505060405180910390f35b348015610f0857600080fd5b50610f4b60048036036020811015610f1f57600080fd5b81019080803573ffffffffffffffffffffffffffffffffffffffff169060200190929190505050612402565b005b348015610f5957600080fd5b50610f9c60048036036020811015610f7057600080fd5b81019080803573ffffffffffffffffffffffffffffffffffffffff16906020019092919050505061240e565b005b348015610faa57600080fd5b50610fed60048036036020811015610fc157600080fd5b81019080803573ffffffffffffffffffffffffffffffffffffffff1690602001909291905050506126c8565b005b348015610ffb57600080fd5b5061100461286c565b005b34801561101257600080fd5b5061107f6004803603606081101561102957600080fd5b81019080803573ffffffffffffffffffffffffffffffffffffffff169060200190929190803573ffffffffffffffffffffffffffffffffffffffff16906020019092919080359060200190929190505050612876565b604051808215151515815260200191505060405180910390f35b3480156110a557600080fd5b506110f2600480360360408110156110bc57600080fd5b81019080803573ffffffffffffffffffffffffffffffffffffffff169060200190929190803590602001909291905050506129bd565b005b34801561110057600080fd5b5061114d6004803603604081101561111757600080fd5b81019080803573ffffffffffffffffffffffffffffffffffffffff16906020019092919080359060200190929190505050612a59565b005b34801561115b57600080fd5b50611164612ae1565b604051808273ffffffffffffffffffffffffffffffffffffffff1673ffffffffffffffffffffffffffffffffffffffff16815260200191505060405180910390f35b3480156111b257600080fd5b506111bb612b0b565b6040518080602001828103825283818151815260200191508051906020019060200280838360005b838110156111fe5780820151818401526020810190506111e3565b505050509050019250505060405180910390f35b34801561121e57600080fd5b506112616004803603602081101561123557600080fd5b81019080803573ffffffffffffffffffffffffffffffffffffffff169060200190929190505050612b9c565b6040518082815260200191505060405180910390f35b34801561128357600080fd5b5061128c612be8565b604051808273ffffffffffffffffffffffffffffffffffffffff1673ffffffffffffffffffffffffffffffffffffffff16815260200191505060405180910390f35b3480156112da57600080fd5b5061131d600480360360208110156112f157600080fd5b81019080803573ffffffffffffffffffffffffffffffffffffffff169060200190929190505050612c0e565b604051808481526020018060200183151515158152602001828103825284818151815260200191508051906020019080838360005b8381101561136d578082015181840152602081019050611352565b50505050905090810190601f16801561139a5780820380516001836020036101000a031916815260200191505b5094505050505060405180910390f35b3480156113b657600080fd5b50611458600480360360608110156113cd57600080fd5b81019080803573ffffffffffffffffffffffffffffffffffffffff169060200190929190803590602001909291908035906020019064010000000081111561141457600080fd5b82018360208201111561142657600080fd5b8035906020019184600183028401116401000000008311171561144857600080fd5b9091929391929390505050612dbb565b005b34801561146657600080fd5b506114c96004803603604081101561147d57600080fd5b81019080803573ffffffffffffffffffffffffffffffffffffffff169060200190929190803573ffffffffffffffffffffffffffffffffffffffff169060200190929190505050613043565b005b3480156114d757600080fd5b5061151a600480360360208110156114ee57600080fd5b81019080803573ffffffffffffffffffffffffffffffffffffffff1690602001909291905050506130cb565b6040518082815260200191505060405180910390f35b34801561153c57600080fd5b50611545613117565b005b34801561155357600080fd5b506115966004803603602081101561156a57600080fd5b81019080803573ffffffffffffffffffffffffffffffffffffffff169060200190929190505050613121565b005b3480156115a457600080fd5b506115ad6131a7565b6040518082815260200191505060405180910390f35b69d3c21bcecceda100000081565b6115d961233c565b61164b576040517f08c379a00000000000000000000000000000000000000000000000000000000081526004018080602001828103825260208152602001807f4f776e61626c653a2063616c6c6572206973206e6f7420746865206f776e657281525060200191505060405180910390fd5b611654816131be565b50565b6000600760008373ffffffffffffffffffffffffffffffffffffffff1673ffffffffffffffffffffffffffffffffffffffff168152602001908152602001600020600701549050919050565b6000600760008373ffffffffffffffffffffffffffffffffffffffff1673ffffffffffffffffffffffffffffffffffffffff168152602001908152602001600020600301549050919050565b600060149054906101000a900460ff1681565b600061171461170f613301565b61332f565b905090565b600080600760008573ffffffffffffffffffffffffffffffffffffffff1673ffffffffffffffffffffffffffffffffffffffff16815260200190815260200160002090506000816002015414156117745760009150506117b5565b600062015180428161178257fe5b04905081600601548111156117a857808260060181905550816002015482600301819055505b8160030154841015925050505b92915050565b6000806117c661333d565b1415905090565b6000600760008373ffffffffffffffffffffffffffffffffffffffff1673ffffffffffffffffffffffffffffffffffffffff16815260200190815260200160002060000160009054906101000a900473ffffffffffffffffffffffffffffffffffffffff169050919050565b61184161233c565b6118b3576040517f08c379a00000000000000000000000000000000000000000000000000000000081526004018080602001828103825260208152602001807f4f776e61626c653a2063616c6c6572206973206e6f7420746865206f776e657281525060200191505060405180910390fd5b6118bb6163d4565b6118c482613354565b90506118d08382613372565b505050565b61191d600760008373ffffffffffffffffffffffffffffffffffffffff1673ffffffffffffffffffffffffffffffffffffffff16815260200190815260200160002082613503565b50565b611928613670565b565b61193261233c565b6119a4576040517f08c379a00000000000000000000000000000000000000000000000000000000081526004018080602001828103825260208152602001807f4f776e61626c653a2063616c6c6572206973206e6f7420746865206f776e657281525060200191505060405180910390fd5b6119f28383838080601f016020809104026020016040519081016040528093929190818152602001838380828437600081840152601f19601f820116905080830192505050505050506136c9565b505050565b60c881565b611a0461233c565b611a76576040517f08c379a00000000000000000000000000000000000000000000000000000000081526004018080602001828103825260208152602001807f4f776e61626c653a2063616c6c6572206973206e6f7420746865206f776e657281525060200191505060405180910390fd5b611a8082826138b6565b5050565b6000611a96611a91613a78565b61332f565b905090565b60008060008060016002600080839350829250819150809050935093509350935090919293565b611aca61233c565b611b3c576040517f08c379a00000000000000000000000000000000000000000000000000000000081526004018080602001828103825260208152602001807f4f776e61626c653a2063616c6c6572206973206e6f7420746865206f776e657281525060200191505060405180910390fd5b611b468282613ab5565b5050565b60606008600101805480602002602001604051908101604052809291908181526020018280548015611bd157602002820191906000526020600020905b8160009054906101000a900473ffffffffffffffffffffffffffffffffffffffff1673ffffffffffffffffffffffffffffffffffffffff1681526020019060010190808311611b87575b5050505050905090565b611be361233c565b611c55576040517f08c379a00000000000000000000000000000000000000000000000000000000081526004018080602001828103825260208152602001807f4f776e61626c653a2063616c6c6572206973206e6f7420746865206f776e657281525060200191505060405180910390fd5b611c5e81613c8f565b50565b6000600760008373ffffffffffffffffffffffffffffffffffffffff1673ffffffffffffffffffffffffffffffffffffffff1681526020019081526020016000209050611cae8183613503565b611cb782613d86565b5050565b600060149054906101000a900460ff1615611d3e576040517f08c379a000000000000000000000000000000000000000000000000000000000815260040180806020018281038252601c8152602001807f636f6e747261637420616c726561647920696e697469616c697a65640000000081525060200191505060405180910390fd5b6001600060146101000a81548160ff021916908315150217905550858590508888905014611db7576040517f08c379a000000000000000000000000000000000000000000000000000000000815260040180806020018281038252602a815260200180616501602a913960400191505060405180910390fd5b838390508888905014611e15576040517f08c379a00000000000000000000000000000000000000000000000000000000081526004018080602001828103825260288152602001806165516028913960400191505060405180910390fd5b818190508888905014611e73576040517f08c379a000000000000000000000000000000000000000000000000000000000815260040180806020018281038252602d815260200180616579602d913960400191505060405180910390fd5b611e7c33614138565b611e858b6126c8565b611e8e8a61427c565b611e9789614323565b60008090505b88889050811015611f9757611f02898983818110611eb757fe5b9050602002013573ffffffffffffffffffffffffffffffffffffffff16888884818110611ee057fe5b9050602002013573ffffffffffffffffffffffffffffffffffffffff16613ab5565b611f46898983818110611f1157fe5b9050602002013573ffffffffffffffffffffffffffffffffffffffff16868684818110611f3a57fe5b90506020020135614411565b611f8a898983818110611f5557fe5b9050602002013573ffffffffffffffffffffffffffffffffffffffff16848484818110611f7e57fe5b905060200201356138b6565b8080600101915050611e9d565b505050505050505050505050565b6000600760008373ffffffffffffffffffffffffffffffffffffffff1673ffffffffffffffffffffffffffffffffffffffff168152602001908152602001600020600401549050919050565b611ff961233c565b61206b576040517f08c379a00000000000000000000000000000000000000000000000000000000081526004018080602001828103825260208152602001807f4f776e61626c653a2063616c6c6572206973206e6f7420746865206f776e657281525060200191505060405180910390fd5b612074816144cd565b50565b6000612082826144e5565b9050919050565b61209161233c565b612103576040517f08c379a00000000000000000000000000000000000000000000000000000000081526004018080602001828103825260208152602001807f4f776e61626c653a2063616c6c6572206973206e6f7420746865206f776e657281525060200191505060405180910390fd5b600073ffffffffffffffffffffffffffffffffffffffff166000809054906101000a900473ffffffffffffffffffffffffffffffffffffffff1673ffffffffffffffffffffffffffffffffffffffff167f8be0079c531659141344cd1fd0a4f28419497f9722a3daafe3b4186f6b6457e060405160405180910390a360008060006101000a81548173ffffffffffffffffffffffffffffffffffffffff021916908373ffffffffffffffffffffffffffffffffffffffff160217905550565b6121ca61233c565b61223c576040517f08c379a00000000000000000000000000000000000000000000000000000000081526004018080602001828103825260208152602001807f4f776e61626c653a2063616c6c6572206973206e6f7420746865206f776e657281525060200191505060405180910390fd5b6122458161427c565b50565b600160009054906101000a900473ffffffffffffffffffffffffffffffffffffffff1681565b61227781614502565b50565b6000612284614560565b60070154905090565b61229561233c565b612307576040517f08c379a00000000000000000000000000000000000000000000000000000000081526004018080602001828103825260208152602001807f4f776e61626c653a2063616c6c6572206973206e6f7420746865206f776e657281525060200191505060405180910390fd5b61231081614323565b50565b60008060009054906101000a900473ffffffffffffffffffffffffffffffffffffffff16905090565b60008060009054906101000a900473ffffffffffffffffffffffffffffffffffffffff1673ffffffffffffffffffffffffffffffffffffffff1661237e6145ad565b73ffffffffffffffffffffffffffffffffffffffff1614905090565b60006123fb600760008473ffffffffffffffffffffffffffffffffffffffff1673ffffffffffffffffffffffffffffffffffffffff16815260200190815260200160002060010160405180602001604052908160008201548152505061332f565b9050919050565b61240b816145b5565b50565b61241661233c565b612488576040517f08c379a00000000000000000000000000000000000000000000000000000000081526004018080602001828103825260208152602001807f4f776e61626c653a2063616c6c6572206973206e6f7420746865206f776e657281525060200191505060405180910390fd5b600b60008273ffffffffffffffffffffffffffffffffffffffff1673ffffffffffffffffffffffffffffffffffffffff16815260200190815260200160002060020160009054906101000a900460ff1661254a576040517f08c379a00000000000000000000000000000000000000000000000000000000081526004018080602001828103825260158152602001807f42656e6566696369617279206e6f7420666f756e64000000000000000000000081525060200191505060405180910390fd5b6125c9600b60008373ffffffffffffffffffffffffffffffffffffffff1673ffffffffffffffffffffffffffffffffffffffff168152602001908152602001600020600001604051806020016040529081600082015481525050600a604051806020016040529081600082015481525050614c7090919063ffffffff16565b600a600082015181600001559050506125ec81600c614d1790919063ffffffff16565b50600b60008273ffffffffffffffffffffffffffffffffffffffff1673ffffffffffffffffffffffffffffffffffffffff1681526020019081526020016000206000808201600080820160009055505060018201600061264c91906163e7565b6002820160006101000a81549060ff021916905550507f72977dad29432f655f11c2f0e72ef5124bb9ade7a512fb7a43a9f504df22342881604051808273ffffffffffffffffffffffffffffffffffffffff1673ffffffffffffffffffffffffffffffffffffffff16815260200191505060405180910390a150565b6126d061233c565b612742576040517f08c379a00000000000000000000000000000000000000000000000000000000081526004018080602001828103825260208152602001807f4f776e61626c653a2063616c6c6572206973206e6f7420746865206f776e657281525060200191505060405180910390fd5b600073ffffffffffffffffffffffffffffffffffffffff168173ffffffffffffffffffffffffffffffffffffffff1614156127e5576040517f08c379a00000000000000000000000000000000000000000000000000000000081526004018080602001828103825260208152602001807f43616e6e6f7420726567697374657220746865206e756c6c206164647265737381525060200191505060405180910390fd5b80600160006101000a81548173ffffffffffffffffffffffffffffffffffffffff021916908373ffffffffffffffffffffffffffffffffffffffff1602179055508073ffffffffffffffffffffffffffffffffffffffff167f27fe5f0c1c3b1ed427cc63d0f05759ffdecf9aec9e18d31ef366fc8a6cb5dc3b60405160405180910390a250565b612874614f05565b565b600061288061233c565b6128f2576040517f08c379a00000000000000000000000000000000000000000000000000000000081526004018080602001828103825260208152602001807f4f776e61626c653a2063616c6c6572206973206e6f7420746865206f776e657281525060200191505060405180910390fd5b8373ffffffffffffffffffffffffffffffffffffffff1663a9059cbb84846040518363ffffffff1660e01b8152600401808373ffffffffffffffffffffffffffffffffffffffff1673ffffffffffffffffffffffffffffffffffffffff16815260200182815260200192505050602060405180830381600087803b15801561297957600080fd5b505af115801561298d573d6000803e3d6000fd5b505050506040513d60208110156129a357600080fd5b810190808051906020019092919050505090509392505050565b6129c561233c565b612a37576040517f08c379a00000000000000000000000000000000000000000000000000000000081526004018080602001828103825260208152602001807f4f776e61626c653a2063616c6c6572206973206e6f7420746865206f776e657281525060200191505060405180910390fd5b612a3f6163d4565b612a4882613354565b9050612a548382613372565b505050565b612a6161233c565b612ad3576040517f08c379a00000000000000000000000000000000000000000000000000000000081526004018080602001828103825260208152602001807f4f776e61626c653a2063616c6c6572206973206e6f7420746865206f776e657281525060200191505060405180910390fd5b612add8282614411565b5050565b6000600560009054906101000a900473ffffffffffffffffffffffffffffffffffffffff16905090565b6060600c600101805480602002602001604051908101604052809291908181526020018280548015612b9257602002820191906000526020600020905b8160009054906101000a900473ffffffffffffffffffffffffffffffffffffffff1673ffffffffffffffffffffffffffffffffffffffff1681526020019060010190808311612b48575b5050505050905090565b6000600760008373ffffffffffffffffffffffffffffffffffffffff1673ffffffffffffffffffffffffffffffffffffffff168152602001908152602001600020600201549050919050565b600560009054906101000a900473ffffffffffffffffffffffffffffffffffffffff1681565b60006060600080600b60008673ffffffffffffffffffffffffffffffffffffffff1673ffffffffffffffffffffffffffffffffffffffff16815260200190815260200160002090508060020160009054906101000a900460ff16612cda576040517f08c379a00000000000000000000000000000000000000000000000000000000081526004018080602001828103825260158152602001807f42656e6566696369617279206e6f7420666f756e64000000000000000000000081525060200191505060405180910390fd5b612cfb8160000160405180602001604052908160008201548152505061332f565b816001018260020160009054906101000a900460ff16818054600181600116156101000203166002900480601f016020809104026020016040519081016040528092919081815260200182805460018160011615610100020316600290048015612da65780601f10612d7b57610100808354040283529160200191612da6565b820191906000526020600020905b815481529060010190602001808311612d8957829003601f168201915b50505050509150935093509350509193909250565b612dc361233c565b612e35576040517f08c379a00000000000000000000000000000000000000000000000000000000081526004018080602001828103825260208152602001807f4f776e61626c653a2063616c6c6572206973206e6f7420746865206f776e657281525060200191505060405180910390fd5b60001515600b60008673ffffffffffffffffffffffffffffffffffffffff1673ffffffffffffffffffffffffffffffffffffffff16815260200190815260200160002060020160009054906101000a900460ff16151514612efe576040517f08c379a000000000000000000000000000000000000000000000000000000000815260040180806020018281038252601a8152602001807f42656e656669636961727920616c72656164792065786973747300000000000081525060200191505060405180910390fd5b612f066163d4565b612f0f84613354565b90506001600b60008773ffffffffffffffffffffffffffffffffffffffff1673ffffffffffffffffffffffffffffffffffffffff16815260200190815260200160002060020160006101000a81548160ff021916908315150217905550612f768582613372565b612fc48584848080601f016020809104026020016040519081016040528093929190818152602001838380828437600081840152601f19601f820116905080830192505050505050506136c9565b612fd885600c61501490919063ffffffff16565b507fc3e089fc6227e049d0e41c3d7a383d57efe69c1955c5752f7e5a9b5f1f11302085604051808273ffffffffffffffffffffffffffffffffffffffff1673ffffffffffffffffffffffffffffffffffffffff16815260200191505060405180910390a15050505050565b61304b61233c565b6130bd576040517f08c379a00000000000000000000000000000000000000000000000000000000081526004018080602001828103825260208152602001807f4f776e61626c653a2063616c6c6572206973206e6f7420746865206f776e657281525060200191505060405180910390fd5b6130c782826150e4565b5050565b6000600760008373ffffffffffffffffffffffffffffffffffffffff1673ffffffffffffffffffffffffffffffffffffffff168152602001908152602001600020600501549050919050565b61311f6151f5565b565b61312961233c565b61319b576040517f08c379a00000000000000000000000000000000000000000000000000000000081526004018080602001828103825260208152602001807f4f776e61626c653a2063616c6c6572206973206e6f7420746865206f776e657281525060200191505060405180910390fd5b6131a481614138565b50565b60006131b96131b4615289565b61332f565b905090565b6000600760008373ffffffffffffffffffffffffffffffffffffffff1673ffffffffffffffffffffffffffffffffffffffff1681526020019081526020016000209050600073ffffffffffffffffffffffffffffffffffffffff168160000160009054906101000a900473ffffffffffffffffffffffffffffffffffffffff1673ffffffffffffffffffffffffffffffffffffffff1614158061329357506132646152c6565b73ffffffffffffffffffffffffffffffffffffffff168273ffffffffffffffffffffffffffffffffffffffff16145b6132e8576040517f08c379a00000000000000000000000000000000000000000000000000000000081526004018080602001828103825260278152602001806166d16027913960400191505060405180910390fd5b6132fc82600861501490919063ffffffff16565b505050565b6133096163d4565b61332a613314613a78565b61331c6153c1565b614c7090919063ffffffff16565b905090565b600081600001519050919050565b600061334f61334a613301565b61332f565b905090565b61335c6163d4565b6040518060200160405280838152509050919050565b6000600b60008473ffffffffffffffffffffffffffffffffffffffff1673ffffffffffffffffffffffffffffffffffffffff16815260200190815260200160002090508060020160009054906101000a900460ff16613439576040517f08c379a00000000000000000000000000000000000000000000000000000000081526004018080602001828103825260158152602001807f42656e6566696369617279206e6f7420666f756e64000000000000000000000081525060200191505060405180910390fd5b61346282600a6040518060200160405290816000820154815250506153e790919063ffffffff16565b600a60008201518160000155905050613479615490565b8181600001600082015181600001559050507f3baa117856c4302afbf8f27fed58ef6dc9d6f6cc3f26f511693b53e3a8ca3590836134b68461332f565b604051808373ffffffffffffffffffffffffffffffffffffffff1673ffffffffffffffffffffffffffffffffffffffff1681526020018281526020019250505060405180910390a1505050565b60008173ffffffffffffffffffffffffffffffffffffffff166370a08231306040518263ffffffff1660e01b8152600401808273ffffffffffffffffffffffffffffffffffffffff1673ffffffffffffffffffffffffffffffffffffffff16815260200191505060206040518083038186803b15801561358257600080fd5b505afa158015613596573d6000803e3d6000fd5b505050506040513d60208110156135ac57600080fd5b8101908080519060200190929190505050905060006135ee84600701546135e086600401548561550890919063ffffffff16565b61550890919063ffffffff16565b90506135fa8482615552565b507f6dc505b7b05bd6660ea0b40630156c8ee739cf5e222c24da83252ed6be9ebf78838560040154604051808373ffffffffffffffffffffffffffffffffffffffff1673ffffffffffffffffffffffffffffffffffffffff1681526020018281526020019250505060405180910390a150505050565b60008090505b61368060086155df565b8110156136b657600061369d8260086155f090919063ffffffff16565b90506136a881613d86565b508080600101915050613676565b506136c76136c26152c6565b613d86565b565b600b60008373ffffffffffffffffffffffffffffffffffffffff1673ffffffffffffffffffffffffffffffffffffffff16815260200190815260200160002060020160009054906101000a900460ff1661378b576040517f08c379a00000000000000000000000000000000000000000000000000000000081526004018080602001828103825260158152602001807f42656e6566696369617279206e6f7420666f756e64000000000000000000000081525060200191505060405180910390fd5b80600b60008473ffffffffffffffffffffffffffffffffffffffff1673ffffffffffffffffffffffffffffffffffffffff16815260200190815260200160002060010190805190602001906137e192919061642f565b507f9204be4ef1514f788de66451965968ff34bdb03609db86a8c67a16eafb7e3c068282604051808373ffffffffffffffffffffffffffffffffffffffff1673ffffffffffffffffffffffffffffffffffffffff16815260200180602001828103825283818151815260200191508051906020019080838360005b8381101561387757808201518184015260208101905061385c565b50505050905090810190601f1680156138a45780820380516001836020036101000a031916815260200191505b50935050505060405180910390a15050565b6000600760008473ffffffffffffffffffffffffffffffffffffffff1673ffffffffffffffffffffffffffffffffffffffff16815260200190815260200160002090506000821415613970576040517f08c379a000000000000000000000000000000000000000000000000000000000815260040180806020018281038252601f8152602001807f43616e6e6f7420736574206d617820736c69707061676520746f207a65726f0081525060200191505060405180910390fd5b61397982613354565b81600101600082015181600001559050506139b3816001016040518060200160405290816000820154815250506139ae6153c1565b615634565b613a08576040517f08c379a00000000000000000000000000000000000000000000000000000000081526004018080602001828103825260298152602001806166a86029913960400191505060405180910390fd5b7fd8df93d785f3d0d4294fd7b61e5d749c20eec95a2fed5b6b502a4cad09199ca68383604051808373ffffffffffffffffffffffffffffffffffffffff1673ffffffffffffffffffffffffffffffffffffffff1681526020018281526020019250505060405180910390a1505050565b613a806163d4565b613ab0613a8b615289565b600a6040518060200160405290816000820154815250506153e790919063ffffffff16565b905090565b600073ffffffffffffffffffffffffffffffffffffffff168173ffffffffffffffffffffffffffffffffffffffff161415613b58576040517f08c379a00000000000000000000000000000000000000000000000000000000081526004018080602001828103825260198152602001807f43616e2774207365742068616e646c657220746f207a65726f0000000000000081525060200191505060405180910390fd5b6000600760008473ffffffffffffffffffffffffffffffffffffffff1673ffffffffffffffffffffffffffffffffffffffff1681526020019081526020016000209050818160000160006101000a81548173ffffffffffffffffffffffffffffffffffffffff021916908373ffffffffffffffffffffffffffffffffffffffff160217905550613bf283600861501490919063ffffffff16565b507fdffbd9ded1c09446f09377de547142dcce7dc541c8b0b028142b1eba7026b9e78383604051808373ffffffffffffffffffffffffffffffffffffffff1673ffffffffffffffffffffffffffffffffffffffff1681526020018273ffffffffffffffffffffffffffffffffffffffff1673ffffffffffffffffffffffffffffffffffffffff1681526020019250505060405180910390a1505050565b613c98816144cd565b6000600760008373ffffffffffffffffffffffffffffffffffffffff1673ffffffffffffffffffffffffffffffffffffffff168152602001908152602001600020905060008160000160006101000a81548173ffffffffffffffffffffffffffffffffffffffff021916908373ffffffffffffffffffffffffffffffffffffffff1602179055507f4c910b69fe65a61f7531b9c5042b2329ca7179c77290aa7e2eb3afa3c8511fd382604051808273ffffffffffffffffffffffffffffffffffffffff1673ffffffffffffffffffffffffffffffffffffffff16815260200191505060405180910390a15050565b613d8e61564a565b73ffffffffffffffffffffffffffffffffffffffff1663e5839836306040518263ffffffff1660e01b8152600401808273ffffffffffffffffffffffffffffffffffffffff1673ffffffffffffffffffffffffffffffffffffffff16815260200191505060206040518083038186803b158015613e0a57600080fd5b505afa158015613e1e573d6000803e3d6000fd5b505050506040513d6020811015613e3457600080fd5b810190808051906020019092919050505015613e9b576040517f08c379a00000000000000000000000000000000000000000000000000000000081526004018080602001828103825260228152602001806165ca6022913960400191505060405180910390fd5b600160026000828254019250508190555060006002549050600073ffffffffffffffffffffffffffffffffffffffff16600560009054906101000a900473ffffffffffffffffffffffffffffffffffffffff1673ffffffffffffffffffffffffffffffffffffffff161415613f5b576040517f08c379a00000000000000000000000000000000000000000000000000000000081526004018080602001828103825260248152602001806165a66024913960400191505060405180910390fd5b6000600760008473ffffffffffffffffffffffffffffffffffffffff1673ffffffffffffffffffffffffffffffffffffffff1681526020019081526020016000209050613fa66163d4565b613fae613a78565b90506000613fc8613fbd615289565b838560040154615745565b9050613ff785600560009054906101000a900473ffffffffffffffffffffffffffffffffffffffff168361579d565b60008090505b614007600c6155df565b8110156140af57600061402482600c6155f090919063ffffffff16565b90506000600b60008373ffffffffffffffffffffffffffffffffffffffff1673ffffffffffffffffffffffffffffffffffffffff1681526020019081526020016000209050600061409282600001604051806020016040529081600082015481525050878960040154615745565b905061409f89848361579d565b5050508080600101915050613ffd565b50600083600401819055505050506002548114614134576040517f08c379a000000000000000000000000000000000000000000000000000000000815260040180806020018281038252600e8152602001807f7265656e7472616e742063616c6c00000000000000000000000000000000000081525060200191505060405180910390fd5b5050565b600073ffffffffffffffffffffffffffffffffffffffff168173ffffffffffffffffffffffffffffffffffffffff1614156141be576040517f08c379a000000000000000000000000000000000000000000000000000000000815260040180806020018281038252602681526020018061652b6026913960400191505060405180910390fd5b8073ffffffffffffffffffffffffffffffffffffffff166000809054906101000a900473ffffffffffffffffffffffffffffffffffffffff1673ffffffffffffffffffffffffffffffffffffffff167f8be0079c531659141344cd1fd0a4f28419497f9722a3daafe3b4186f6b6457e060405160405180910390a3806000806101000a81548173ffffffffffffffffffffffffffffffffffffffff021916908373ffffffffffffffffffffffffffffffffffffffff16021790555050565b80600560006101000a81548173ffffffffffffffffffffffffffffffffffffffff021916908373ffffffffffffffffffffffffffffffffffffffff1602179055507ff7015098f8d6fa48f0560725ffd5f81bf687ee5ac45153b590bdcb04648bbdd381604051808273ffffffffffffffffffffffffffffffffffffffff1673ffffffffffffffffffffffffffffffffffffffff16815260200191505060405180910390a150565b61432b6163d4565b61433482613354565b90506143506143416153c1565b8261563490919063ffffffff16565b6143a5576040517f08c379a000000000000000000000000000000000000000000000000000000000815260040180806020018281038252602c8152602001806164d5602c913960400191505060405180910390fd5b6143bf816143b16153c1565b614c7090919063ffffffff16565b6004600082015181600001559050506143d6615490565b7ffd2547bd9aeeff6fdf83b040a05f2299ba8d408b8186a97612fe7578b941789a826040518082815260200191505060405180910390a15050565b6000600760008473ffffffffffffffffffffffffffffffffffffffff1673ffffffffffffffffffffffffffffffffffffffff16815260200190815260200160002090508181600201819055507fd3d22ffd28b02735cf411bd7f925bd8da01212c7028153e0d632e2953ac3088e8383604051808373ffffffffffffffffffffffffffffffffffffffff1673ffffffffffffffffffffffffffffffffffffffff1681526020018281526020019250505060405180910390a1505050565b6144e1816008614d1790919063ffffffff16565b5050565b60006144fb826008615a2590919063ffffffff16565b9050919050565b600061450c6152c6565b90508073ffffffffffffffffffffffffffffffffffffffff168273ffffffffffffffffffffffffffffffffffffffff16146145545761454a826145b5565b61455382613d86565b5b61455c615a74565b5050565b60006007600061456e6152c6565b73ffffffffffffffffffffffffffffffffffffffff1673ffffffffffffffffffffffffffffffffffffffff168152602001908152602001600020905090565b600033905090565b6145bd61564a565b73ffffffffffffffffffffffffffffffffffffffff1663e5839836306040518263ffffffff1660e01b8152600401808273ffffffffffffffffffffffffffffffffffffffff1673ffffffffffffffffffffffffffffffffffffffff16815260200191505060206040518083038186803b15801561463957600080fd5b505afa15801561464d573d6000803e3d6000fd5b505050506040513d602081101561466357600080fd5b8101908080519060200190929190505050156146ca576040517f08c379a00000000000000000000000000000000000000000000000000000000081526004018080602001828103825260228152602001806165ca6022913960400191505060405180910390fd5b6001600260008282540192505081905550600060025490506146ea6117bb565b6146f357614bf5565b60008290506000600760008573ffffffffffffffffffffffffffffffffffffffff1673ffffffffffffffffffffffffffffffffffffffff1681526020019081526020016000209050614744846144e5565b6147b6576040517f08c379a00000000000000000000000000000000000000000000000000000000081526004018080602001828103825260208152602001807f546f6b656e206e6565647320746f2062652061637469766520746f2073656c6c81525060200191505060405180910390fd5b60006147d98260010160405180602001604052908160008201548152505061332f565b1415614830576040517f08c379a00000000000000000000000000000000000000000000000000000000081526004018080602001828103825260288152602001806166226028913960400191505060405180910390fd5b61483a8183613503565b60008160070154905061484d8582611719565b156148c557816003015490507fb1a68b0b66260ca392f760fd4dda4a94818d69c89a4eeb6610eb41db7bab8c378582604051808373ffffffffffffffffffffffffffffffffffffffff1673ffffffffffffffffffffffffffffffffffffffff1681526020018281526020019250505060405180910390a15b60c88110156148d657505050614bf5565b8273ffffffffffffffffffffffffffffffffffffffff1663a9059cbb8360000160009054906101000a900473ffffffffffffffffffffffffffffffffffffffff16836040518363ffffffff1660e01b8152600401808373ffffffffffffffffffffffffffffffffffffffff1673ffffffffffffffffffffffffffffffffffffffff16815260200182815260200192505050602060405180830381600087803b15801561498157600080fd5b505af1158015614995573d6000803e3d6000fd5b505050506040513d60208110156149ab57600080fd5b81019080805190602001909291905050505060008260000160009054906101000a900473ffffffffffffffffffffffffffffffffffffffff16905060008173ffffffffffffffffffffffffffffffffffffffff166331de7d1588614a0d6152c6565b86614a2f8960010160405180602001604052908160008201548152505061332f565b6040518563ffffffff1660e01b8152600401808573ffffffffffffffffffffffffffffffffffffffff1673ffffffffffffffffffffffffffffffffffffffff1681526020018473ffffffffffffffffffffffffffffffffffffffff1673ffffffffffffffffffffffffffffffffffffffff168152602001838152602001828152602001945050505050602060405180830381600087803b158015614ad257600080fd5b505af1158015614ae6573d6000803e3d6000fd5b505050506040513d6020811015614afc57600080fd5b81019080805190602001909291905050509050614b2683856007015461550890919063ffffffff16565b8460070181905550614b4c81614b3a614560565b60070154615a9490919063ffffffff16565b614b54614560565b60070181905550614b72838560050154615a9490919063ffffffff16565b8460050181905550614b848784615b1c565b7fac094032b4e9dccb3a000eedb94cf30146ca0d7c39be85229f478413fa21d1d88784604051808373ffffffffffffffffffffffffffffffffffffffff1673ffffffffffffffffffffffffffffffffffffffff1681526020018281526020019250505060405180910390a150505050505b6002548114614c6c576040517f08c379a000000000000000000000000000000000000000000000000000000000815260040180806020018281038252600e8152602001807f7265656e7472616e742063616c6c00000000000000000000000000000000000081525060200191505060405180910390fd5b5050565b614c786163d4565b816000015183600001511015614cf6576040517f08c379a000000000000000000000000000000000000000000000000000000000815260040180806020018281038252601f8152602001807f737562737472616374696f6e20756e646572666c6f772064657465637465640081525060200191505060405180910390fd5b60405180602001604052808360000151856000015103815250905092915050565b6000614d238383615a25565b15614efa57600060018460000160008573ffffffffffffffffffffffffffffffffffffffff1673ffffffffffffffffffffffffffffffffffffffff16815260200190815260200160002054039050600060018560010180549050039050818114614e68576000856001018281548110614d9857fe5b9060005260206000200160009054906101000a900473ffffffffffffffffffffffffffffffffffffffff16905080866001018481548110614dd557fe5b9060005260206000200160006101000a81548173ffffffffffffffffffffffffffffffffffffffff021916908373ffffffffffffffffffffffffffffffffffffffff160217905550600183018660000160008373ffffffffffffffffffffffffffffffffffffffff1673ffffffffffffffffffffffffffffffffffffffff16815260200190815260200160002081905550505b8460000160008573ffffffffffffffffffffffffffffffffffffffff1673ffffffffffffffffffffffffffffffffffffffff1681526020019081526020016000206000905584600101805480614eba57fe5b6001900381819060005260206000200160006101000a81549073ffffffffffffffffffffffffffffffffffffffff02191690559055600192505050614eff565b600090505b92915050565b6000614f0f6152c6565b90506000600760008373ffffffffffffffffffffffffffffffffffffffff1673ffffffffffffffffffffffffffffffffffffffff1681526020019081526020016000209050614f5e8183613503565b600081600701541415614f72575050615012565b8173ffffffffffffffffffffffffffffffffffffffff166342966c6882600701546040518263ffffffff1660e01b815260040180828152602001915050602060405180830381600087803b158015614fc957600080fd5b505af1158015614fdd573d6000803e3d6000fd5b505050506040513d6020811015614ff357600080fd5b8101908080519060200190929190505050506000816007018190555050505b565b60006150208383615a25565b6150d957826001018290806001815401808255809150509060018203906000526020600020016000909192909190916101000a81548173ffffffffffffffffffffffffffffffffffffffff021916908373ffffffffffffffffffffffffffffffffffffffff1602179055508360000160008473ffffffffffffffffffffffffffffffffffffffff1673ffffffffffffffffffffffffffffffffffffffff16815260200190815260200160002081905550600190506150de565b600090505b92915050565b600073ffffffffffffffffffffffffffffffffffffffff168173ffffffffffffffffffffffffffffffffffffffff16141561516a576040517f08c379a000000000000000000000000000000000000000000000000000000000815260040180806020018281038252602e81526020018061664a602e913960400191505060405180910390fd5b6000600760008473ffffffffffffffffffffffffffffffffffffffff1673ffffffffffffffffffffffffffffffffffffffff1681526020019081526020016000209050818160000160006101000a81548173ffffffffffffffffffffffffffffffffffffffff021916908373ffffffffffffffffffffffffffffffffffffffff160217905550505050565b615287600860010180548060200260200160405190810160405280929190818152602001828054801561527d57602002820191906000526020600020905b8160009054906101000a900473ffffffffffffffffffffffffffffffffffffffff1673ffffffffffffffffffffffffffffffffffffffff1681526020019060010190808311615233575b5050505050615bce565b565b6152916163d4565b6152c160046040518060200160405290816000820154815250506152b36153c1565b614c7090919063ffffffff16565b905090565b6000600160009054906101000a900473ffffffffffffffffffffffffffffffffffffffff1673ffffffffffffffffffffffffffffffffffffffff1663dcf0aaed60405160200180807f43656c6f546f6b656e00000000000000000000000000000000000000000000008152506009019050604051602081830303815290604052805190602001206040518263ffffffff1660e01b81526004018082815260200191505060206040518083038186803b15801561538157600080fd5b505afa158015615395573d6000803e3d6000fd5b505050506040513d60208110156153ab57600080fd5b8101908080519060200190929190505050905090565b6153c96163d4565b604051806020016040528069d3c21bcecceda1000000815250905090565b6153ef6163d4565b6000826000015184600001510190508360000151811015615478576040517f08c379a00000000000000000000000000000000000000000000000000000000081526004018080602001828103825260158152602001807f616464206f766572666c6f77206465746563746564000000000000000000000081525060200191505060405180910390fd5b60405180602001604052808281525091505092915050565b6154b161549b6153c1565b6154a3613a78565b61563490919063ffffffff16565b615506576040517f08c379a00000000000000000000000000000000000000000000000000000000081526004018080602001828103825260308152602001806166786030913960400191505060405180910390fd5b565b600061554a83836040518060400160405280601e81526020017f536166654d6174683a207375627472616374696f6e206f766572666c6f770000815250615c21565b905092915050565b60008061557f61557a615563613301565b61556c86615ce1565b615d6b90919063ffffffff16565b6161ca565b9050615598818560070154615a9490919063ffffffff16565b84600701819055506155c96155b6828561550890919063ffffffff16565b8560040154615a9490919063ffffffff16565b8460040181905550836007015491505092915050565b600081600101805490509050919050565b600082600101828154811061560157fe5b9060005260206000200160009054906101000a900473ffffffffffffffffffffffffffffffffffffffff16905092915050565b6000816000015183600001511115905092915050565b6000600160009054906101000a900473ffffffffffffffffffffffffffffffffffffffff1673ffffffffffffffffffffffffffffffffffffffff1663dcf0aaed60405160200180807f467265657a6572000000000000000000000000000000000000000000000000008152506007019050604051602081830303815290604052805190602001206040518263ffffffff1660e01b81526004018082815260200191505060206040518083038186803b15801561570557600080fd5b505afa158015615719573d6000803e3d6000fd5b505050506040513d602081101561572f57600080fd5b8101908080519060200190929190505050905090565b600061574f6163d4565b61576284866161eb90919063ffffffff16565b905061576c6163d4565b6157878261577986615ce1565b615d6b90919063ffffffff16565b9050615792816161ca565b925050509392505050565b6157a6836144e5565b806158cf5750600160009054906101000a900473ffffffffffffffffffffffffffffffffffffffff1673ffffffffffffffffffffffffffffffffffffffff1663dcf0aaed60405160200180807f43656c6f546f6b656e00000000000000000000000000000000000000000000008152506009019050604051602081830303815290604052805190602001206040518263ffffffff1660e01b81526004018082815260200191505060206040518083038186803b15801561586557600080fd5b505afa158015615879573d6000803e3d6000fd5b505050506040513d602081101561588f57600080fd5b810190808051906020019092919050505073ffffffffffffffffffffffffffffffffffffffff168373ffffffffffffffffffffffffffffffffffffffff16145b615941576040517f08c379a00000000000000000000000000000000000000000000000000000000081526004018080602001828103825260188152602001807f546f6b656e206e6565647320746f20626520616374697665000000000000000081525060200191505060405180910390fd5b600081905060008114156159555750615a20565b60008490508073ffffffffffffffffffffffffffffffffffffffff1663a9059cbb85846040518363ffffffff1660e01b8152600401808373ffffffffffffffffffffffffffffffffffffffff1673ffffffffffffffffffffffffffffffffffffffff16815260200182815260200192505050602060405180830381600087803b1580156159e157600080fd5b505af11580156159f5573d6000803e3d6000fd5b505050506040513d6020811015615a0b57600080fd5b81019080805190602001909291905050505050505b505050565b6000808360000160008473ffffffffffffffffffffffffffffffffffffffff1673ffffffffffffffffffffffffffffffffffffffff168152602001908152602001600020541415905092915050565b615a7c614f05565b6000615a866152c6565b9050615a9181613d86565b50565b600080828401905083811015615b12576040517f08c379a000000000000000000000000000000000000000000000000000000000815260040180806020018281038252601b8152602001807f536166654d6174683a206164646974696f6e206f766572666c6f77000000000081525060200191505060405180910390fd5b8091505092915050565b6000600760008473ffffffffffffffffffffffffffffffffffffffff1673ffffffffffffffffffffffffffffffffffffffff1681526020019081526020016000209050600081600201541415615b725750615bca565b615b8982826003015461550890919063ffffffff16565b81600301819055507fcdcea7139bd245b1c7468bc1cfb59ad732b3b0909bafa9f9436ad74c81d0aafb826040518082815260200191505060405180910390a1505b5050565b60008090505b8151811015615c15576000828281518110615beb57fe5b60200260200101519050615bfe816145b5565b615c0781613d86565b508080600101915050615bd4565b50615c1e615a74565b50565b6000838311158290615cce576040517f08c379a00000000000000000000000000000000000000000000000000000000081526004018080602001828103825283818151815260200191508051906020019080838360005b83811015615c93578082015181840152602081019050615c78565b50505050905090810190601f168015615cc05780820380516001836020036101000a031916815260200191505b509250505060405180910390fd5b5060008385039050809150509392505050565b615ce96163d4565b615cf1616334565b821115615d49576040517f08c379a00000000000000000000000000000000000000000000000000000000081526004018080602001828103825260368152602001806165ec6036913960400191505060405180910390fd5b604051806020016040528069d3c21bcecceda100000084028152509050919050565b615d736163d4565b600083600001511480615d8a575060008260000151145b15615da6576040518060200160405280600081525090506161c4565b69d3c21bcecceda100000082600001511415615dc4578290506161c4565b69d3c21bcecceda100000083600001511415615de2578190506161c4565b600069d3c21bcecceda1000000615df885616353565b6000015181615e0357fe5b0490506000615e118561638a565b600001519050600069d3c21bcecceda1000000615e2d86616353565b6000015181615e3857fe5b0490506000615e468661638a565b6000015190506000828502905060008514615eda5782858281615e6557fe5b0414615ed9576040517f08c379a00000000000000000000000000000000000000000000000000000000081526004018080602001828103825260168152602001807f6f766572666c6f7720783179312064657465637465640000000000000000000081525060200191505060405180910390fd5b5b600069d3c21bcecceda10000008202905060008214615f7c5769d3c21bcecceda1000000828281615f0757fe5b0414615f7b576040517f08c379a000000000000000000000000000000000000000000000000000000000815260040180806020018281038252601f8152602001807f6f766572666c6f772078317931202a206669786564312064657465637465640081525060200191505060405180910390fd5b5b809150600084860290506000861461600d5784868281615f9857fe5b041461600c576040517f08c379a00000000000000000000000000000000000000000000000000000000081526004018080602001828103825260168152602001807f6f766572666c6f7720783279312064657465637465640000000000000000000081525060200191505060405180910390fd5b5b600084880290506000881461609b578488828161602657fe5b041461609a576040517f08c379a00000000000000000000000000000000000000000000000000000000081526004018080602001828103825260168152602001807f6f766572666c6f7720783179322064657465637465640000000000000000000081525060200191505060405180910390fd5b5b6160a36163c7565b87816160ab57fe5b0496506160b66163c7565b85816160be57fe5b049450600085880290506000881461614f57858882816160da57fe5b041461614e576040517f08c379a00000000000000000000000000000000000000000000000000000000081526004018080602001828103825260168152602001807f6f766572666c6f7720783279322064657465637465640000000000000000000081525060200191505060405180910390fd5b5b6161576163d4565b6040518060200160405280878152509050616180816040518060200160405280878152506153e7565b905061619a816040518060200160405280868152506153e7565b90506161b4816040518060200160405280858152506153e7565b9050809a50505050505050505050505b92915050565b600069d3c21bcecceda10000008260000151816161e357fe5b049050919050565b6161f36163d4565b60008260000151141561626e576040517f08c379a00000000000000000000000000000000000000000000000000000000081526004018080602001828103825260118152602001807f63616e277420646976696465206279203000000000000000000000000000000081525060200191505060405180910390fd5b600069d3c21bcecceda10000008460000151029050836000015169d3c21bcecceda1000000828161629b57fe5b041461630f576040517f08c379a00000000000000000000000000000000000000000000000000000000081526004018080602001828103825260128152602001807f6f766572666c6f7720617420646976696465000000000000000000000000000081525060200191505060405180910390fd5b60405180602001604052808460000151838161632757fe5b0481525091505092915050565b60007601357c299a88ea76a58924d52ce4f26a85af186c2b9e74905090565b61635b6163d4565b604051806020016040528069d3c21bcecceda10000008085600001518161637e57fe5b04028152509050919050565b6163926163d4565b604051806020016040528069d3c21bcecceda1000000808560000151816163b557fe5b04028460000151038152509050919050565b600064e8d4a51000905090565b6040518060200160405280600081525090565b50805460018160011615610100020316600290046000825580601f1061640d575061642c565b601f01602090049060005260206000209081019061642b91906164af565b5b50565b828054600181600116156101000203166002900490600052602060002090601f016020900481019282601f1061647057805160ff191683800117855561649e565b8280016001018555821561649e579182015b8281111561649d578251825591602001919060010190616482565b5b5090506164ab91906164af565b5090565b6164d191905b808211156164cd5760008160009055506001016164b5565b5090565b9056fe4e657720636172676f6e206672616374696f6e2063616e2774206265206772656174686572207468616e203168616e646c657273206c656e6774682073686f756c64206d6174636820746f6b656e73206c656e6774684f776e61626c653a206e6577206f776e657220697320746865207a65726f20616464726573736c696d697473206c656e6774682073686f756c64206d6174636820746f6b656e73206c656e6774686d6178536c697070616765206c656e6774682073686f756c64206d6174636820746f6b656e73206c656e67746843616e2774206469737472696275746520746f20746865207a65726f206164647265737363616e27742063616c6c207768656e20636f6e74726163742069732066726f7a656e63616e277420637265617465206669786964697479206e756d626572206c6172676572207468616e206d61784e6577466978656428294d617820736c6970706167652068617320746f2062652073657420746f2073656c6c20746f6b656e43616e2774207365742068616e646c657220746f207a65726f2c207573652064656163746976617465546f6b656e546f74616c2062656e65666963696172696573206672616374696f6e206d757374206265206c657373207468616e203153706c697070616765206d757374206265206c657373207468616e206f7220657175616c20746f203148616e646c65722068617320746f2062652073657420746f20616374697661746520746f6b656ea265627a7a723158202181615095a60a08596e45acfe043a4bd0fdcb130e22d4765f95ec222b8519b164736f6c634300050d0032",
  "source": "// SPDX-License-Identifier: LGPL-3.0-only\npragma solidity ^0.5.13;\n\nimport \"openzeppelin-solidity/contracts/math/SafeMath.sol\";\nimport \"openzeppelin-solidity/contracts/math/Math.sol\";\nimport \"openzeppelin-solidity/contracts/ownership/Ownable.sol\";\nimport \"openzeppelin-solidity/contracts/token/ERC20/IERC20.sol\";\nimport \"openzeppelin-solidity/contracts/utils/EnumerableSet.sol\";\n\nimport \"./UsingRegistry.sol\";\nimport \"../common/Freezable.sol\";\nimport \"../common/FixidityLib.sol\";\nimport \"../common/Initializable.sol\";\n\nimport \"../common/interfaces/IFeeHandler.sol\";\nimport \"../common/interfaces/IFeeHandlerSeller.sol\";\n\n// TODO move to IStableToken when it adds method getExchangeRegistryId\nimport \"./interfaces/IStableTokenMento.sol\";\nimport \"../common/interfaces/ICeloVersionedContract.sol\";\nimport \"../common/interfaces/ICeloToken.sol\";\n\n// Using the minimal required signatures in the interfaces so more contracts could be compatible\nimport \"../common/libraries/ReentrancyGuard.sol\";\n\n// An implementation of FeeHandler as described in CIP-52\n// See https://github.com/celo-org/celo-proposals/blob/master/CIPs/cip-0052.md\ncontract FeeHandler is\n  Ownable,\n  Initializable,\n  UsingRegistry,\n  ICeloVersionedContract,\n  Freezable,\n  IFeeHandler,\n  ReentrancyGuard\n{\n  using SafeMath for uint256;\n  using FixidityLib for FixidityLib.Fraction;\n  using EnumerableSet for EnumerableSet.AddressSet;\n\n  struct TokenState {\n    address handler;\n    FixidityLib.Fraction maxSlippage;\n    // Max amounts that can be burned in a day for a token\n    uint256 dailySellLimit;\n    // Max amounts that can be burned today for a token\n    uint256 currentDaySellLimit;\n    uint256 toDistribute;\n    // Historical amounts burned by this contract\n    uint256 pastBurn;\n    uint256 lastLimitDay;\n    uint256 toBurn;\n  }\n\n  struct Beneficiary {\n    FixidityLib.Fraction fraction;\n    string name;\n    bool exists;\n  }\n\n  uint256 public constant FIXED1_UINT = 1000000000000000000000000;\n\n  // Min units that can be burned\n  uint256 public constant MIN_BURN = 200;\n\n  // last day the daily limits were updated\n  uint256 private deprecated_lastLimitDay; // deprecated\n\n  // reason it's inverse it's because it used to be burnFraction and was migrated\n  // ignoreRenaming_ prefix allows the tooling to ignore the variable renaming\n  FixidityLib.Fraction private ignoreRenaming_inverseCarbonFraction; // 80%\n\n  address public ignoreRenaming_carbonFeeBeneficiary;\n\n  uint256 private deprecated_celoToBeBurned; // deprecated\n\n  // This mapping can not be public because it contains a FixidityLib.Fraction\n  // and that'd be only supported with experimental features in this\n  // compiler version\n  mapping(address => TokenState) private tokenStates;\n\n  // Celo not included in this list\n  EnumerableSet.AddressSet private activeTokens;\n  // does not include carbon fund\n  FixidityLib.Fraction private totalFractionOfOtherBeneficiaries;\n\n  mapping(address => Beneficiary) private otherBeneficiaries;\n  EnumerableSet.AddressSet private otherBeneficiariesAddresses;\n\n  event SoldAndBurnedToken(address token, uint256 value);\n  event DailyLimitSet(address tokenAddress, uint256 newLimit);\n  event DailyLimitHit(address token, uint256 burning);\n  event MaxSlippageSet(address token, uint256 maxSlippage);\n  event DailySellLimitUpdated(uint256 amount);\n  event FeeBeneficiarySet(address newBeneficiary);\n  event BurnFractionSet(uint256 fraction);\n  event TokenAdded(address tokenAddress, address handlerAddress);\n  event TokenRemoved(address tokenAddress);\n  event DistributionAmountSet(address tokenAddress, uint256 amount);\n  event CarbonFractionSet(uint256 fraction);\n  event BeneficiaryAdded(address beneficiary);\n  event BeneficiaryNameSet(address beneficiary, string name);\n  event BeneficiaryFractionSet(address beneficiary, uint256 fraction);\n  event BeneficiaryRemoved(address beneficiary);\n\n  /**\n   * @notice Sets initialized == true on implementation contracts.\n   * @param test Set to true to skip implementation initialisation.\n   */\n  constructor(bool test) public Initializable(test) {}\n\n  /**\n   * @notice Used in place of the constructor to allow the contract to be upgradable via proxy.\n   */\n  function initialize(\n    address _registryAddress,\n    address newFeeBeneficiary,\n    uint256 newCarbonFraction,\n    address[] calldata tokens,\n    address[] calldata handlers,\n    uint256[] calldata newLimits,\n    uint256[] calldata newMaxSlippages\n  ) external initializer {\n    require(tokens.length == handlers.length, \"handlers length should match tokens length\");\n    require(tokens.length == newLimits.length, \"limits length should match tokens length\");\n    require(\n      tokens.length == newMaxSlippages.length,\n      \"maxSlippage length should match tokens length\"\n    );\n\n    _transferOwnership(msg.sender);\n    setRegistry(_registryAddress);\n    _setCarbonFeeBeneficiary(newFeeBeneficiary);\n    _setCarbonFraction(newCarbonFraction);\n\n    for (uint256 i = 0; i < tokens.length; i++) {\n      _addToken(tokens[i], handlers[i]);\n      _setDailySellLimit(tokens[i], newLimits[i]);\n      _setMaxSplippage(tokens[i], newMaxSlippages[i]);\n    }\n  }\n\n  // Without this the contract cant receive Celo as native transfer\n  function() external payable {}\n\n  function setCarbonFraction(uint256 newFraction) external onlyOwner {\n    _setCarbonFraction(newFraction);\n  }\n\n  function setDistributionAndBurnAmounts(address tokenAddress) external {\n    return _setDistributionAndBurnAmounts(tokenStates[tokenAddress], IERC20(tokenAddress));\n  }\n\n  function changeOtherBeneficiaryAllocation(\n    address beneficiary,\n    uint256 _newFraction\n  ) external onlyOwner {\n    FixidityLib.Fraction memory newFraction = FixidityLib.wrap(_newFraction);\n    _setBeneficiaryFraction(beneficiary, newFraction);\n  }\n\n  function addOtherBeneficiary(\n    address beneficiary,\n    uint256 _newFraction,\n    string calldata name\n  ) external onlyOwner {\n    require(otherBeneficiaries[beneficiary].exists == false, \"Beneficiary already exists\");\n    FixidityLib.Fraction memory newFraction = FixidityLib.wrap(_newFraction);\n\n    otherBeneficiaries[beneficiary].exists = true;\n    _setBeneficiaryFraction(beneficiary, newFraction);\n    _setBeneficiaryName(beneficiary, name);\n    otherBeneficiariesAddresses.add(beneficiary);\n\n    emit BeneficiaryAdded(beneficiary);\n  }\n\n  function removeOtherBeneficiary(address beneficiary) external onlyOwner {\n    require(otherBeneficiaries[beneficiary].exists, \"Beneficiary not found\");\n    totalFractionOfOtherBeneficiaries = totalFractionOfOtherBeneficiaries.subtract(\n      otherBeneficiaries[beneficiary].fraction\n    );\n    otherBeneficiariesAddresses.remove(beneficiary);\n    delete otherBeneficiaries[beneficiary];\n    emit BeneficiaryRemoved(beneficiary);\n  }\n\n  function setBeneficiaryFraction(\n    address beneficiaryAddress,\n    uint256 _newFraction\n  ) external onlyOwner {\n    FixidityLib.Fraction memory newFraction = FixidityLib.wrap(_newFraction);\n    _setBeneficiaryFraction(beneficiaryAddress, newFraction);\n  }\n\n  function setBeneficiaryName(address beneficiary, string calldata name) external onlyOwner {\n    _setBeneficiaryName(beneficiary, name);\n  }\n\n  /**\n    @dev Sets the fee beneficiary address to the specified address.\n    @param beneficiary The address to set as the fee beneficiary.\n  */\n  function setCarbonFeeBeneficiary(address beneficiary) external onlyOwner {\n    return _setCarbonFeeBeneficiary(beneficiary);\n  }\n\n  /**\n    @dev Sets the burn fraction to the specified value. Token has to have a handler set.\n    @param tokenAddress The address of the token to sell\n  */\n  function sell(address tokenAddress) external {\n    return _sell(tokenAddress);\n  }\n\n  /**\n    @dev Adds a new token to the contract with the specified token and handler addresses.\n    @param tokenAddress The address of the token to add.\n    @param handlerAddress The address of the handler contract for the specified token.\n  */\n  function addToken(address tokenAddress, address handlerAddress) external onlyOwner {\n    _addToken(tokenAddress, handlerAddress);\n  }\n\n  /**\n    @notice Allows the owner to activate a specified token.\n    @param tokenAddress The address of the token to be activated.\n  */\n  function activateToken(address tokenAddress) external onlyOwner {\n    _activateToken(tokenAddress);\n  }\n\n  /**\n    @dev Deactivates the specified token by marking it as inactive.\n    @param tokenAddress The address of the token to deactivate.\n  */\n  function deactivateToken(address tokenAddress) external onlyOwner {\n    _deactivateToken(tokenAddress);\n  }\n\n  /**\n    @notice Allows the owner to set a handler contract for a specified token.\n    @param tokenAddress The address of the token to set the handler for.\n    @param handlerAddress The address of the handler contract to be set.\n  */\n  function setHandler(address tokenAddress, address handlerAddress) external onlyOwner {\n    _setHandler(tokenAddress, handlerAddress);\n  }\n\n  function removeToken(address tokenAddress) external onlyOwner {\n    _removeToken(tokenAddress);\n  }\n\n  /**\n    @dev Distributes the available tokens for the specified token address to the fee beneficiary.\n    @param tokenAddress The address of the token for which to distribute the available tokens.\n  */\n  function distribute(address tokenAddress) external {\n    TokenState storage tokenState = tokenStates[tokenAddress];\n    _setDistributionAndBurnAmounts(tokenState, IERC20(tokenAddress));\n    return _distribute(tokenAddress);\n  }\n\n  /**\n   * @notice Allows owner to set max slippage for a token.\n   * @param token Address of the token to set.\n   * @param newMax New sllipage to set, as Fixidity fraction.\n   */\n  function setMaxSplippage(address token, uint256 newMax) external onlyOwner {\n    _setMaxSplippage(token, newMax);\n  }\n\n  /**\n   * @notice Allows owner to set the daily burn limit for a token.\n   * @param token Address of the token to set.\n   * @param newLimit The new limit to set, in the token units.\n   */\n  function setDailySellLimit(address token, uint256 newLimit) external onlyOwner {\n    _setDailySellLimit(token, newLimit);\n  }\n\n  /**\n  @dev Burns CELO tokens according to burnFraction.\n  */\n  function burnCelo() external {\n    return _burnCelo();\n  }\n\n  /**\n    @dev Distributes the available tokens for all registered tokens to the feeBeneficiaries.\n  */\n  function distributeAll() external {\n    return _distributeAll();\n  }\n\n  /**\n    @dev Handles all the registered tokens.\n  */\n  function handleAll() external {\n    return _handleAll();\n  }\n\n  function handle(address tokenAddress) external {\n    return _handle(tokenAddress);\n  }\n\n  /**\n    * @notice Allows owner to transfer tokens of this contract. It's meant for governance to\n      trigger use cases not contemplated in this contract.\n      CAUTION: this function does not update internal accounting, so it may leave the contract\n      inconsistent. It should be used as last resort.\n      @param token The address of the token to transfer.\n      @param recipient The address of the recipient to transfer the tokens to.\n      @param value The amount of tokens to transfer.\n      @return A boolean indicating whether the transfer was successful or not.\n    */\n  function transfer(\n    address token,\n    address recipient,\n    uint256 value\n  ) external onlyOwner returns (bool) {\n    return IERC20(token).transfer(recipient, value);\n  }\n\n  function getCeloToBeBurned() external view returns (uint256) {\n    return getCeloTokenState().toBurn;\n  }\n\n  /**\n   * @param token The address of the token to query.\n   * @return The amount burned for a token.\n   */\n  function getPastBurnForToken(address token) external view returns (uint256) {\n    return tokenStates[token].pastBurn;\n  }\n\n  function carbonFeeBeneficiary() external view returns (address) {\n    return ignoreRenaming_carbonFeeBeneficiary;\n  }\n\n  /**\n    @dev Returns the handler address for the specified token.\n    @param tokenAddress The address of the token for which to return the handler.\n    @return The address of the handler contract for the specified token.\n  */\n  function getTokenHandler(address tokenAddress) external view returns (address) {\n    return tokenStates[tokenAddress].handler;\n  }\n\n  /**\n    @dev Returns a boolean indicating whether the specified token is active or not.\n    @param tokenAddress The address of the token for which to retrieve the active status.\n    @return A boolean representing the active status of the specified token.\n  */\n  function getTokenActive(address tokenAddress) external view returns (bool) {\n    return _getTokenActive(tokenAddress);\n  }\n\n  /**\n    @dev Returns the maximum slippage percentage for the specified token.\n    @param tokenAddress The address of the token for which to retrieve the maximum\n     slippage percentage.\n    @return The maximum slippage percentage as a uint256 value.\n  */\n  function getTokenMaxSlippage(address tokenAddress) external view returns (uint256) {\n    return FixidityLib.unwrap(tokenStates[tokenAddress].maxSlippage);\n  }\n\n  /**\n    @dev Returns the daily burn limit for the specified token.\n    @param tokenAddress The address of the token for which to retrieve the daily burn limit.\n    @return The daily burn limit as a uint256 value.\n  */\n\n  function getTokenDailySellLimit(address tokenAddress) external view returns (uint256) {\n    return tokenStates[tokenAddress].dailySellLimit;\n  }\n\n  /**\n    @dev Returns the current daily sell limit for the specified token.\n    @param tokenAddress The address of the token for which to retrieve the current daily limit.\n    @return The current daily limit as a uint256 value.\n  */\n  function getTokenCurrentDaySellLimit(address tokenAddress) external view returns (uint256) {\n    return tokenStates[tokenAddress].currentDaySellLimit;\n  }\n\n  /**\n    @dev Returns the amount of tokens available to distribute for the specified token.\n    @param tokenAddress The address of the token for which to retrieve the amount of\n    tokens available to distribute.\n    @return The amount of tokens available to distribute as a uint256 value.\n  */\n  function getTokenToDistribute(address tokenAddress) external view returns (uint256) {\n    return tokenStates[tokenAddress].toDistribute;\n  }\n\n  function getTokenToBurn(address tokenAddress) external view returns (uint256) {\n    return tokenStates[tokenAddress].toBurn;\n  }\n\n  function getCarbonFraction() external view returns (uint256) {\n    return getCarbonFractionFixidity().unwrap();\n  }\n\n  function getBurnFraction() external view returns (uint256) {\n    return getBurnFractionFixidity().unwrap();\n  }\n\n  function getOtherBeneficiariesInfo(\n    address beneficiary\n  ) external view returns (uint256, string memory, bool) {\n    Beneficiary storage otherBeneficiary = otherBeneficiaries[beneficiary];\n    require(otherBeneficiary.exists, \"Beneficiary not found\");\n    return (otherBeneficiary.fraction.unwrap(), otherBeneficiary.name, otherBeneficiary.exists);\n  }\n\n  function getTotalFractionOfOtherBeneficiariesAndCarbon() external view returns (uint256) {\n    return getTotalFractionOfOtherBeneficiariesAndCarbonFixidity().unwrap();\n  }\n\n  function getOtherBeneficiariesAddresses() external view returns (address[] memory) {\n    return otherBeneficiariesAddresses.values;\n  }\n\n  /**\n   * @notice Returns the storage, major, minor, and patch version of the contract.\n   * @return Storage version of the contract.\n   * @return Major version of the contract.\n   * @return Minor version of the contract.\n   * @return Patch version of the contract.\n   */\n  function getVersionNumber() external pure returns (uint256, uint256, uint256, uint256) {\n    return (1, 2, 0, 0);\n  }\n\n  /**\n   * @param token The address of the token to query.\n   * @param amountToBurn The amount of the token to burn.\n   * @return Returns true if burning amountToBurn would exceed the daily limit.\n   */\n  function dailySellLimitHit(address token, uint256 amountToBurn) public returns (bool) {\n    TokenState storage tokenState = tokenStates[token];\n\n    if (tokenState.dailySellLimit == 0) {\n      // if no limit set, assume uncapped\n      return false;\n    }\n\n    uint256 currentDay = now / 1 days;\n    // Pattern borrowed from Reserve.sol\n    if (currentDay > tokenState.lastLimitDay) {\n      tokenState.lastLimitDay = currentDay;\n      tokenState.currentDaySellLimit = tokenState.dailySellLimit;\n    }\n\n    return amountToBurn >= tokenState.currentDaySellLimit;\n  }\n\n  function getActiveTokens() public view returns (address[] memory) {\n    return activeTokens.values;\n  }\n\n  function _getBurnFraction() internal view returns (uint256) {\n    return getBurnFractionFixidity().unwrap();\n  }\n\n  function _setDistributionAndBurnAmounts(TokenState storage tokenState, IERC20 token) internal {\n    uint256 balanceOfToken = token.balanceOf(address(this));\n    uint256 balanceToProcess = balanceOfToken.sub(tokenState.toDistribute).sub(tokenState.toBurn);\n    _setDistributeAfterBurn(tokenState, balanceToProcess);\n\n    emit DistributionAmountSet(address(token), tokenState.toDistribute);\n  }\n\n  function _executePayment(address tokenAddress, address beneficiary, uint256 amount) internal {\n    require(\n      _getTokenActive(tokenAddress) ||\n        tokenAddress == registry.getAddressForOrDie(CELO_TOKEN_REGISTRY_ID),\n      \"Token needs to be active\"\n    );\n\n    uint256 balanceToDistribute = amount;\n\n    if (balanceToDistribute == 0) {\n      // don't distribute with zero balance\n      return;\n    }\n\n    IERC20 token = IERC20(tokenAddress);\n    token.transfer(beneficiary, balanceToDistribute);\n  }\n\n  function _setDistributeAfterBurn(\n    TokenState storage tokenState,\n    uint256 balanceToProcess\n  ) internal returns (uint256) {\n    uint256 balanceToBurn = FixidityLib\n      .newFixed(balanceToProcess)\n      .multiply(getBurnFractionFixidity())\n      .fromFixed();\n    tokenState.toBurn = tokenState.toBurn.add(balanceToBurn);\n    tokenState.toDistribute = tokenState.toDistribute.add(balanceToProcess.sub(balanceToBurn));\n    return tokenState.toBurn;\n  }\n\n  function shouldBurn() public view returns (bool) {\n    return _getBurnFraction() != 0;\n  }\n\n  function checkTotalBeneficiary() internal view {\n    require(\n      getTotalFractionOfOtherBeneficiariesAndCarbonFixidity().lte(FixidityLib.fixed1()),\n      \"Total beneficiaries fraction must be less than 1\"\n    );\n  }\n\n  function _setCarbonFraction(uint256 _newFraction) internal {\n    FixidityLib.Fraction memory newFraction = FixidityLib.wrap(_newFraction);\n    require(newFraction.lte(FixidityLib.fixed1()), \"New cargon fraction can't be greather than 1\");\n    ignoreRenaming_inverseCarbonFraction = FixidityLib.fixed1().subtract(newFraction);\n    checkTotalBeneficiary();\n    emit CarbonFractionSet(_newFraction);\n  }\n\n  function _setBeneficiaryFraction(\n    address beneficiaryAddress,\n    FixidityLib.Fraction memory newFraction\n  ) internal {\n    Beneficiary storage beneficiary = otherBeneficiaries[beneficiaryAddress];\n    require(beneficiary.exists, \"Beneficiary not found\");\n    totalFractionOfOtherBeneficiaries = totalFractionOfOtherBeneficiaries.add(newFraction);\n    checkTotalBeneficiary();\n    beneficiary.fraction = newFraction;\n    emit BeneficiaryFractionSet(beneficiaryAddress, newFraction.unwrap());\n  }\n\n  function _setBeneficiaryName(address beneficiary, string memory name) internal {\n    require(otherBeneficiaries[beneficiary].exists, \"Beneficiary not found\");\n    otherBeneficiaries[beneficiary].name = name;\n    emit BeneficiaryNameSet(beneficiary, name);\n  }\n\n  function getTotalFractionOfOtherBeneficiariesAndCarbonFixidity()\n    internal\n    view\n    returns (FixidityLib.Fraction memory)\n  {\n    return totalFractionOfOtherBeneficiaries.add(getCarbonFractionFixidity());\n  }\n\n  // avoid using UsingRegistry contract\n  function getCeloTokenAddress() internal view returns (address) {\n    return registry.getAddressForOrDie(CELO_TOKEN_REGISTRY_ID);\n  }\n\n  function getCarbonFractionFixidity() internal view returns (FixidityLib.Fraction memory) {\n    return FixidityLib.fixed1().subtract(ignoreRenaming_inverseCarbonFraction);\n  }\n\n  function getBurnFractionFixidity() internal view returns (FixidityLib.Fraction memory) {\n    return FixidityLib.fixed1().subtract(getTotalFractionOfOtherBeneficiariesAndCarbonFixidity());\n  }\n\n  function _getTokenActive(address tokenAddress) internal view returns (bool) {\n    return activeTokens.contains(tokenAddress);\n  }\n\n  /**\n   * @notice Burns all the Celo balance of this contract.\n   */\n  function _burnCelo() private {\n    address celoTokenAddress = getCeloTokenAddress();\n    TokenState storage tokenState = tokenStates[celoTokenAddress];\n    _setDistributionAndBurnAmounts(tokenState, IERC20(celoTokenAddress));\n\n    if (tokenState.toBurn == 0) {\n      return;\n    }\n\n    ICeloToken(celoTokenAddress).burn(tokenState.toBurn);\n    tokenState.toBurn = 0;\n  }\n\n  /**\n   * @notice Updates the current day limit for a token.\n   * @param token The address of the token to query.\n   * @param amountBurned the amount of the token that was burned.\n   */\n  function updateLimits(address token, uint256 amountBurned) private {\n    TokenState storage tokenState = tokenStates[token];\n\n    if (tokenState.dailySellLimit == 0) {\n      // if no limit set, assume uncapped\n      return;\n    }\n    tokenState.currentDaySellLimit = tokenState.currentDaySellLimit.sub(amountBurned);\n    emit DailySellLimitUpdated(amountBurned);\n  }\n\n  function _setCarbonFeeBeneficiary(address beneficiary) private {\n    ignoreRenaming_carbonFeeBeneficiary = beneficiary;\n    emit FeeBeneficiarySet(beneficiary);\n  }\n\n  function _addToken(address tokenAddress, address handlerAddress) private {\n    require(handlerAddress != address(0), \"Can't set handler to zero\");\n    TokenState storage tokenState = tokenStates[tokenAddress];\n    tokenState.handler = handlerAddress;\n\n    activeTokens.add(tokenAddress);\n    emit TokenAdded(tokenAddress, handlerAddress);\n  }\n\n  function _activateToken(address tokenAddress) private {\n    TokenState storage tokenState = tokenStates[tokenAddress];\n    require(\n      tokenState.handler != address(0) || tokenAddress == getCeloTokenAddress(),\n      \"Handler has to be set to activate token\"\n    );\n    activeTokens.add(tokenAddress);\n  }\n\n  function _deactivateToken(address tokenAddress) private {\n    activeTokens.remove(tokenAddress);\n  }\n\n  function _setHandler(address tokenAddress, address handlerAddress) private {\n    require(handlerAddress != address(0), \"Can't set handler to zero, use deactivateToken\");\n    TokenState storage tokenState = tokenStates[tokenAddress];\n    tokenState.handler = handlerAddress;\n  }\n\n  function _removeToken(address tokenAddress) private {\n    _deactivateToken(tokenAddress);\n    TokenState storage tokenState = tokenStates[tokenAddress];\n    tokenState.handler = address(0);\n    emit TokenRemoved(tokenAddress);\n  }\n\n  function _sell(address tokenAddress) private onlyWhenNotFrozen nonReentrant {\n    if (!shouldBurn()) {\n      return;\n    }\n    IERC20 token = IERC20(tokenAddress);\n\n    TokenState storage tokenState = tokenStates[tokenAddress];\n    require(_getTokenActive(tokenAddress), \"Token needs to be active to sell\");\n    require(\n      FixidityLib.unwrap(tokenState.maxSlippage) != 0,\n      \"Max slippage has to be set to sell token\"\n    );\n\n    _setDistributionAndBurnAmounts(tokenState, token);\n\n    uint256 balanceToBurn = tokenState.toBurn;\n\n    if (dailySellLimitHit(tokenAddress, balanceToBurn)) {\n      // in case the limit is hit, burn the max possible\n      balanceToBurn = tokenState.currentDaySellLimit;\n      emit DailyLimitHit(tokenAddress, balanceToBurn);\n    }\n\n    // small numbers cause rounding errors and zero case should be skipped\n    if (balanceToBurn < MIN_BURN) {\n      return;\n    }\n\n    token.transfer(tokenState.handler, balanceToBurn);\n    IFeeHandlerSeller handler = IFeeHandlerSeller(tokenState.handler);\n\n    uint256 celoReceived = handler.sell(\n      tokenAddress,\n      getCeloTokenAddress(),\n      balanceToBurn,\n      FixidityLib.unwrap(tokenState.maxSlippage)\n    );\n\n    // substract from toBurn only the amount that was burned\n    tokenState.toBurn = tokenState.toBurn.sub(balanceToBurn);\n    getCeloTokenState().toBurn = getCeloTokenState().toBurn.add(celoReceived);\n    tokenState.pastBurn = tokenState.pastBurn.add(balanceToBurn);\n    updateLimits(tokenAddress, balanceToBurn);\n\n    emit SoldAndBurnedToken(tokenAddress, balanceToBurn);\n  }\n\n  function _calculateDistributeAmounts(\n    FixidityLib.Fraction memory thisTokenFraction,\n    FixidityLib.Fraction memory totalFractionOfOtherBeneficiariesAndCarbonFixidity,\n    uint256 toDistribute\n  ) private pure returns (uint256) {\n    FixidityLib.Fraction memory proportionOfThisToken = thisTokenFraction.divide(\n      totalFractionOfOtherBeneficiariesAndCarbonFixidity\n    );\n\n    FixidityLib.Fraction memory toDistributeFraction = FixidityLib.newFixed(toDistribute).multiply(\n      proportionOfThisToken\n    );\n\n    return toDistributeFraction.fromFixed();\n  }\n\n  function _distribute(address tokenAddress) private onlyWhenNotFrozen nonReentrant {\n    require(\n      ignoreRenaming_carbonFeeBeneficiary != address(0),\n      \"Can't distribute to the zero address\"\n    );\n    TokenState storage tokenState = tokenStates[tokenAddress];\n\n    FixidityLib.Fraction\n      memory totalFractionOfOtherBeneficiariesAndCarbonFixidity = getTotalFractionOfOtherBeneficiariesAndCarbonFixidity();\n\n    uint256 carbonFundAmount = _calculateDistributeAmounts(\n      getCarbonFractionFixidity(),\n      totalFractionOfOtherBeneficiariesAndCarbonFixidity,\n      tokenState.toDistribute\n    );\n\n    _executePayment(tokenAddress, ignoreRenaming_carbonFeeBeneficiary, carbonFundAmount);\n\n    for (uint256 i = 0; i < EnumerableSet.length(otherBeneficiariesAddresses); i++) {\n      address beneficiary = otherBeneficiariesAddresses.get(i);\n      Beneficiary storage otherBeneficiary = otherBeneficiaries[beneficiary];\n\n      uint256 amount = _calculateDistributeAmounts(\n        otherBeneficiary.fraction,\n        totalFractionOfOtherBeneficiariesAndCarbonFixidity,\n        tokenState.toDistribute\n      );\n\n      _executePayment(tokenAddress, beneficiary, amount);\n    }\n\n    tokenState.toDistribute = 0;\n  }\n\n  function _setMaxSplippage(address token, uint256 newMax) private {\n    TokenState storage tokenState = tokenStates[token];\n    require(newMax != 0, \"Cannot set max slippage to zero\");\n    tokenState.maxSlippage = FixidityLib.wrap(newMax);\n    require(\n      FixidityLib.lte(tokenState.maxSlippage, FixidityLib.fixed1()),\n      \"Splippage must be less than or equal to 1\"\n    );\n    emit MaxSlippageSet(token, newMax);\n  }\n\n  function _setDailySellLimit(address token, uint256 newLimit) private {\n    TokenState storage tokenState = tokenStates[token];\n    tokenState.dailySellLimit = newLimit;\n    emit DailyLimitSet(token, newLimit);\n  }\n\n  function _distributeAll() private {\n    for (uint256 i = 0; i < EnumerableSet.length(activeTokens); i++) {\n      address token = activeTokens.get(i);\n      _distribute(token);\n    }\n    // distribute Celo\n    _distribute(getCeloTokenAddress());\n  }\n\n  function _handleAll() private {\n    _handle(activeTokens.values);\n  }\n\n  function _handleCelo() private {\n    _burnCelo();\n    address celoToken = getCeloTokenAddress();\n    _distribute(celoToken);\n  }\n\n  // tokenAddress can be Celo\n  function _handle(address tokenAddress) private {\n    address celoToken = getCeloTokenAddress();\n    if (tokenAddress != celoToken) {\n      _sell(tokenAddress);\n      _distribute(tokenAddress);\n    }\n    _handleCelo();\n  }\n\n  // tokenAddresses should not contain the Celo address\n  function _handle(address[] memory tokenAddresses) private {\n    // Celo doesn't have to be exchanged for anything\n    for (uint256 i = 0; i < tokenAddresses.length; i++) {\n      address token = tokenAddresses[i];\n      _sell(token);\n      _distribute(token);\n    }\n\n    _handleCelo();\n  }\n\n  function getCeloTokenState() private view returns (TokenState storage) {\n    return tokenStates[getCeloTokenAddress()];\n  }\n}\n",
  "sourcePath": "/Users/beaver/Development/temp/celo-monorepo/packages/protocol/contracts/common/FeeHandler.sol",
  "compiler": {
    "name": "solc",
    "version": "0.5.13+commit.5b0b510c.Emscripten.clang"
  },
  "schemaVersion": "3.4.13",
  "updatedAt": "2025-05-05T17:49:51.086Z",
  "devdoc": {
    "methods": {
      "activateToken(address)": {
        "params": {
          "tokenAddress": "The address of the token to be activated."
        }
      },
      "addToken(address,address)": {
        "details": "Adds a new token to the contract with the specified token and handler addresses.",
        "params": {
          "handlerAddress": "The address of the handler contract for the specified token.",
          "tokenAddress": "The address of the token to add."
        }
      },
      "burnCelo()": {
        "details": "Burns CELO tokens according to burnFraction."
      },
      "constructor": {
        "params": {
          "test": "Set to true to skip implementation initialisation."
        }
      },
      "dailySellLimitHit(address,uint256)": {
        "params": {
          "amountToBurn": "The amount of the token to burn.",
          "token": "The address of the token to query."
        },
        "return": "Returns true if burning amountToBurn would exceed the daily limit."
      },
      "deactivateToken(address)": {
        "details": "Deactivates the specified token by marking it as inactive.",
        "params": {
          "tokenAddress": "The address of the token to deactivate."
        }
      },
      "distribute(address)": {
        "details": "Distributes the available tokens for the specified token address to the fee beneficiary.",
        "params": {
          "tokenAddress": "The address of the token for which to distribute the available tokens."
        }
      },
      "distributeAll()": {
        "details": "Distributes the available tokens for all registered tokens to the feeBeneficiaries."
      },
      "getPastBurnForToken(address)": {
        "params": {
          "token": "The address of the token to query."
        },
        "return": "The amount burned for a token."
      },
      "getTokenActive(address)": {
        "details": "Returns a boolean indicating whether the specified token is active or not.",
        "params": {
          "tokenAddress": "The address of the token for which to retrieve the active status."
        },
        "return": "A boolean representing the active status of the specified token."
      },
      "getTokenCurrentDaySellLimit(address)": {
        "details": "Returns the current daily sell limit for the specified token.",
        "params": {
          "tokenAddress": "The address of the token for which to retrieve the current daily limit."
        },
        "return": "The current daily limit as a uint256 value."
      },
      "getTokenDailySellLimit(address)": {
        "details": "Returns the daily burn limit for the specified token.",
        "params": {
          "tokenAddress": "The address of the token for which to retrieve the daily burn limit."
        },
        "return": "The daily burn limit as a uint256 value."
      },
      "getTokenHandler(address)": {
        "details": "Returns the handler address for the specified token.",
        "params": {
          "tokenAddress": "The address of the token for which to return the handler."
        },
        "return": "The address of the handler contract for the specified token."
      },
      "getTokenMaxSlippage(address)": {
        "details": "Returns the maximum slippage percentage for the specified token.",
        "params": {
          "tokenAddress": "The address of the token for which to retrieve the maximum slippage percentage."
        },
        "return": "The maximum slippage percentage as a uint256 value."
      },
      "getTokenToDistribute(address)": {
        "details": "Returns the amount of tokens available to distribute for the specified token.",
        "params": {
          "tokenAddress": "The address of the token for which to retrieve the amount of tokens available to distribute."
        },
        "return": "The amount of tokens available to distribute as a uint256 value."
      },
      "getVersionNumber()": {
        "return": "Storage version of the contract.Major version of the contract.Minor version of the contract.Patch version of the contract."
      },
      "handleAll()": {
        "details": "Handles all the registered tokens."
      },
      "isOwner()": {
        "details": "Returns true if the caller is the current owner."
      },
      "owner()": {
        "details": "Returns the address of the current owner."
      },
      "renounceOwnership()": {
        "details": "Leaves the contract without owner. It will not be possible to call `onlyOwner` functions anymore. Can only be called by the current owner.     * NOTE: Renouncing ownership will leave the contract without an owner, thereby removing any functionality that is only available to the owner."
      },
      "sell(address)": {
        "details": "Sets the burn fraction to the specified value. Token has to have a handler set.",
        "params": {
          "tokenAddress": "The address of the token to sell"
        }
      },
      "setCarbonFeeBeneficiary(address)": {
        "details": "Sets the fee beneficiary address to the specified address.",
        "params": {
          "beneficiary": "The address to set as the fee beneficiary."
        }
      },
      "setDailySellLimit(address,uint256)": {
        "params": {
          "newLimit": "The new limit to set, in the token units.",
          "token": "Address of the token to set."
        }
      },
      "setHandler(address,address)": {
        "params": {
          "handlerAddress": "The address of the handler contract to be set.",
          "tokenAddress": "The address of the token to set the handler for."
        }
      },
      "setMaxSplippage(address,uint256)": {
        "params": {
          "newMax": "New sllipage to set, as Fixidity fraction.",
          "token": "Address of the token to set."
        }
      },
      "setRegistry(address)": {
        "params": {
          "registryAddress": "The address of a registry contract for routing to other contracts."
        }
      },
      "transfer(address,address,uint256)": {
        "params": {
          "recipient": "The address of the recipient to transfer the tokens to.",
          "token": "The address of the token to transfer.",
          "value": "The amount of tokens to transfer."
        },
        "return": "A boolean indicating whether the transfer was successful or not."
      },
      "transferOwnership(address)": {
        "details": "Transfers ownership of the contract to a new account (`newOwner`). Can only be called by the current owner."
      }
    }
  },
  "userdoc": {
    "methods": {
      "activateToken(address)": {
        "notice": "Allows the owner to activate a specified token."
      },
      "constructor": "Sets initialized == true on implementation contracts.",
      "getVersionNumber()": {
        "notice": "Returns the storage, major, minor, and patch version of the contract."
      },
      "initialize(address,address,uint256,address[],address[],uint256[],uint256[])": {
        "notice": "Used in place of the constructor to allow the contract to be upgradable via proxy."
      },
      "setDailySellLimit(address,uint256)": {
        "notice": "Allows owner to set the daily burn limit for a token."
      },
      "setHandler(address,address)": {
        "notice": "Allows the owner to set a handler contract for a specified token."
      },
      "setMaxSplippage(address,uint256)": {
        "notice": "Allows owner to set max slippage for a token."
      },
      "setRegistry(address)": {
        "notice": "Updates the address pointing to a Registry contract."
      },
      "transfer(address,address,uint256)": {
        "notice": "Allows owner to transfer tokens of this contract. It's meant for governance to trigger use cases not contemplated in this contract. CAUTION: this function does not update internal accounting, so it may leave the contract inconsistent. It should be used as last resort."
      }
    }
  }
}