{
  "contractName": "Initializable",
  "abi": [
    {
      "inputs": [
        {
          "internalType": "bool",
          "name": "testingDeployment",
          "type": "bool"
        }
      ],
      "payable": false,
      "stateMutability": "nonpayable",
      "type": "constructor"
    },
    {
      "constant": true,
      "inputs": [],
      "name": "initialized",
      "outputs": [
        {
          "internalType": "bool",
          "name": "",
          "type": "bool"
        }
      ],
      "payable": false,
      "stateMutability": "view",
      "type": "function"
    }
  ],
  "bytecode": "0x608060405234801561001057600080fd5b506040516101073803806101078339818101604052602081101561003357600080fd5b8101908080519060200190929190505050806100645760016000806101000a81548160ff0219169083151502179055505b506094806100736000396000f3fe6080604052348015600f57600080fd5b506004361060285760003560e01c8063158ef93e14602d575b600080fd5b6033604d565b604051808215151515815260200191505060405180910390f35b6000809054906101000a900460ff168156fea265627a7a72315820eed6c6cc911b37099b000d89dd6fe0a222f9f9249cb19872aaf6ebf32247e64364736f6c634300050d0032",
  "source": "// SPDX-License-Identifier: LGPL-3.0-only\npragma solidity >=0.5.13 <0.9.0;\n\n/**\n * @title Used with proxied contracts that have an `initialize` function.\n * @notice Ensures the `initialize` function:\n *         - gets called only once\n *         - cannot be called on the logic contract.\n */\ncontract Initializable {\n  bool public initialized;\n\n  /**\n   * @notice Ensures the initializer function cannot be called more than once.\n   */\n  modifier initializer() {\n    require(!initialized, \"contract already initialized\");\n    initialized = true;\n    _;\n  }\n\n  /**\n   * @notice By default, ensures that the `initialize` function cannot be called\n   * on the logic contract.\n   * @param testingDeployment When set to true, allows the `initialize` function\n   * to be called, which is useful in testing when not setting up with a Proxy.\n   */\n  constructor(bool testingDeployment) public {\n    if (!testingDeployment) {\n      initialized = true;\n    }\n  }\n}\n",
  "sourcePath": "/Users/beaver/Development/temp/celo-monorepo/packages/protocol/contracts/common/Initializable.sol",
  "compiler": {
    "name": "solc",
    "version": "0.5.13+commit.5b0b510c.Emscripten.clang"
  },
  "schemaVersion": "3.4.13",
  "updatedAt": "2025-05-05T17:49:51.112Z",
  "devdoc": {
    "methods": {
      "constructor": {
        "params": {
          "testingDeployment": "When set to true, allows the `initialize` function to be called, which is useful in testing when not setting up with a Proxy."
        }
      }
    },
    "title": "Used with proxied contracts that have an `initialize` function."
  },
  "userdoc": {
    "methods": {
      "constructor": "By default, ensures that the `initialize` function cannot be called on the logic contract."
    },
    "notice": "Ensures the `initialize` function:        - gets called only once        - cannot be called on the logic contract."
  }
}