{
  "contractName": "MockLockedGold",
  "abi": [
    {
      "constant": true,
      "inputs": [
        {
          "internalType": "address",
          "name": "",
          "type": "address"
        }
      ],
      "name": "accountTotalDelegatedAmountInPercents",
      "outputs": [
        {
          "internalType": "uint256",
          "name": "",
          "type": "uint256"
        }
      ],
      "payable": false,
      "stateMutability": "view",
      "type": "function"
    },
    {
      "constant": true,
      "inputs": [
        {
          "internalType": "address",
          "name": "",
          "type": "address"
        }
      ],
      "name": "accountTotalLockedGold",
      "outputs": [
        {
          "internalType": "uint256",
          "name": "",
          "type": "uint256"
        }
      ],
      "payable": false,
      "stateMutability": "view",
      "type": "function"
    },
    {
      "constant": true,
      "inputs": [
        {
          "internalType": "address",
          "name": "",
          "type": "address"
        }
      ],
      "name": "authorizedBy",
      "outputs": [
        {
          "internalType": "address",
          "name": "",
          "type": "address"
        }
      ],
      "payable": false,
      "stateMutability": "view",
      "type": "function"
    },
    {
      "constant": true,
      "inputs": [
        {
          "internalType": "address",
          "name": "",
          "type": "address"
        }
      ],
      "name": "authorizedValidators",
      "outputs": [
        {
          "internalType": "address",
          "name": "",
          "type": "address"
        }
      ],
      "payable": false,
      "stateMutability": "view",
      "type": "function"
    },
    {
      "constant": true,
      "inputs": [
        {
          "internalType": "address",
          "name": "",
          "type": "address"
        }
      ],
      "name": "nonvotingAccountBalance",
      "outputs": [
        {
          "internalType": "uint256",
          "name": "",
          "type": "uint256"
        }
      ],
      "payable": false,
      "stateMutability": "view",
      "type": "function"
    },
    {
      "constant": true,
      "inputs": [
        {
          "internalType": "string",
          "name": "",
          "type": "string"
        }
      ],
      "name": "slashingWhitelist",
      "outputs": [
        {
          "internalType": "bool",
          "name": "",
          "type": "bool"
        }
      ],
      "payable": false,
      "stateMutability": "view",
      "type": "function"
    },
    {
      "constant": true,
      "inputs": [
        {
          "internalType": "address",
          "name": "",
          "type": "address"
        }
      ],
      "name": "slashingWhitelistTest",
      "outputs": [
        {
          "internalType": "bool",
          "name": "",
          "type": "bool"
        }
      ],
      "payable": false,
      "stateMutability": "view",
      "type": "function"
    },
    {
      "constant": true,
      "inputs": [
        {
          "internalType": "address",
          "name": "",
          "type": "address"
        }
      ],
      "name": "totalGovernancePower",
      "outputs": [
        {
          "internalType": "uint256",
          "name": "",
          "type": "uint256"
        }
      ],
      "payable": false,
      "stateMutability": "view",
      "type": "function"
    },
    {
      "constant": false,
      "inputs": [
        {
          "internalType": "address",
          "name": "account",
          "type": "address"
        },
        {
          "internalType": "uint256",
          "name": "value",
          "type": "uint256"
        }
      ],
      "name": "incrementNonvotingAccountBalance",
      "outputs": [],
      "payable": false,
      "stateMutability": "nonpayable",
      "type": "function"
    },
    {
      "constant": false,
      "inputs": [
        {
          "internalType": "address",
          "name": "account",
          "type": "address"
        },
        {
          "internalType": "uint256",
          "name": "value",
          "type": "uint256"
        }
      ],
      "name": "setAccountTotalLockedGold",
      "outputs": [],
      "payable": false,
      "stateMutability": "nonpayable",
      "type": "function"
    },
    {
      "constant": false,
      "inputs": [
        {
          "internalType": "address",
          "name": "account",
          "type": "address"
        },
        {
          "internalType": "uint256",
          "name": "value",
          "type": "uint256"
        }
      ],
      "name": "setAccountTotalDelegatedAmountInPercents",
      "outputs": [],
      "payable": false,
      "stateMutability": "nonpayable",
      "type": "function"
    },
    {
      "constant": false,
      "inputs": [
        {
          "internalType": "address",
          "name": "account",
          "type": "address"
        },
        {
          "internalType": "uint256",
          "name": "value",
          "type": "uint256"
        }
      ],
      "name": "setAccountTotalGovernancePower",
      "outputs": [],
      "payable": false,
      "stateMutability": "nonpayable",
      "type": "function"
    },
    {
      "constant": false,
      "inputs": [
        {
          "internalType": "uint256",
          "name": "value",
          "type": "uint256"
        }
      ],
      "name": "setTotalLockedGold",
      "outputs": [],
      "payable": false,
      "stateMutability": "nonpayable",
      "type": "function"
    },
    {
      "constant": false,
      "inputs": [],
      "name": "lock",
      "outputs": [],
      "payable": true,
      "stateMutability": "payable",
      "type": "function"
    },
    {
      "constant": false,
      "inputs": [
        {
          "internalType": "uint256",
          "name": "value",
          "type": "uint256"
        }
      ],
      "name": "unlock",
      "outputs": [],
      "payable": false,
      "stateMutability": "nonpayable",
      "type": "function"
    },
    {
      "constant": false,
      "inputs": [
        {
          "internalType": "uint256",
          "name": "index",
          "type": "uint256"
        },
        {
          "internalType": "uint256",
          "name": "value",
          "type": "uint256"
        }
      ],
      "name": "relock",
      "outputs": [],
      "payable": false,
      "stateMutability": "nonpayable",
      "type": "function"
    },
    {
      "constant": false,
      "inputs": [
        {
          "internalType": "uint256",
          "name": "index",
          "type": "uint256"
        }
      ],
      "name": "withdraw",
      "outputs": [],
      "payable": false,
      "stateMutability": "nonpayable",
      "type": "function"
    },
    {
      "constant": false,
      "inputs": [
        {
          "internalType": "address",
          "name": "account",
          "type": "address"
        },
        {
          "internalType": "uint256",
          "name": "penalty",
          "type": "uint256"
        },
        {
          "internalType": "address",
          "name": "",
          "type": "address"
        },
        {
          "internalType": "uint256",
          "name": "",
          "type": "uint256"
        },
        {
          "internalType": "address[]",
          "name": "",
          "type": "address[]"
        },
        {
          "internalType": "address[]",
          "name": "",
          "type": "address[]"
        },
        {
          "internalType": "uint256[]",
          "name": "",
          "type": "uint256[]"
        }
      ],
      "name": "slash",
      "outputs": [],
      "payable": false,
      "stateMutability": "nonpayable",
      "type": "function"
    },
    {
      "constant": false,
      "inputs": [
        {
          "internalType": "address",
          "name": "slasher",
          "type": "address"
        }
      ],
      "name": "addSlasherTest",
      "outputs": [],
      "payable": false,
      "stateMutability": "nonpayable",
      "type": "function"
    },
    {
      "constant": false,
      "inputs": [
        {
          "internalType": "address",
          "name": "slasher",
          "type": "address"
        }
      ],
      "name": "removeSlasherTest",
      "outputs": [],
      "payable": false,
      "stateMutability": "nonpayable",
      "type": "function"
    },
    {
      "constant": false,
      "inputs": [
        {
          "internalType": "string",
          "name": "slasherIdentifier",
          "type": "string"
        }
      ],
      "name": "addSlasher",
      "outputs": [],
      "payable": false,
      "stateMutability": "nonpayable",
      "type": "function"
    },
    {
      "constant": false,
      "inputs": [
        {
          "internalType": "string",
          "name": "slasherIdentifier",
          "type": "string"
        }
      ],
      "name": "removeSlasher",
      "outputs": [],
      "payable": false,
      "stateMutability": "nonpayable",
      "type": "function"
    },
    {
      "constant": true,
      "inputs": [
        {
          "internalType": "address",
          "name": "account",
          "type": "address"
        }
      ],
      "name": "getAccountTotalLockedGold",
      "outputs": [
        {
          "internalType": "uint256",
          "name": "",
          "type": "uint256"
        }
      ],
      "payable": false,
      "stateMutability": "view",
      "type": "function"
    },
    {
      "constant": true,
      "inputs": [],
      "name": "getTotalLockedGold",
      "outputs": [
        {
          "internalType": "uint256",
          "name": "",
          "type": "uint256"
        }
      ],
      "payable": false,
      "stateMutability": "view",
      "type": "function"
    },
    {
      "constant": true,
      "inputs": [
        {
          "internalType": "address",
          "name": "slasher",
          "type": "address"
        }
      ],
      "name": "isSlasher",
      "outputs": [
        {
          "internalType": "bool",
          "name": "",
          "type": "bool"
        }
      ],
      "payable": false,
      "stateMutability": "view",
      "type": "function"
    },
    {
      "constant": true,
      "inputs": [
        {
          "internalType": "address",
          "name": "",
          "type": "address"
        }
      ],
      "name": "getPendingWithdrawals",
      "outputs": [
        {
          "internalType": "uint256[]",
          "name": "",
          "type": "uint256[]"
        },
        {
          "internalType": "uint256[]",
          "name": "",
          "type": "uint256[]"
        }
      ],
      "payable": false,
      "stateMutability": "view",
      "type": "function"
    },
    {
      "constant": true,
      "inputs": [
        {
          "internalType": "address",
          "name": "",
          "type": "address"
        }
      ],
      "name": "getTotalPendingWithdrawals",
      "outputs": [
        {
          "internalType": "uint256",
          "name": "",
          "type": "uint256"
        }
      ],
      "payable": false,
      "stateMutability": "view",
      "type": "function"
    },
    {
      "constant": true,
      "inputs": [
        {
          "internalType": "address",
          "name": "account",
          "type": "address"
        }
      ],
      "name": "getAccountTotalDelegatedFraction",
      "outputs": [
        {
          "internalType": "uint256",
          "name": "",
          "type": "uint256"
        }
      ],
      "payable": false,
      "stateMutability": "view",
      "type": "function"
    },
    {
      "constant": true,
      "inputs": [
        {
          "internalType": "address",
          "name": "account",
          "type": "address"
        }
      ],
      "name": "getAccountTotalGovernanceVotingPower",
      "outputs": [
        {
          "internalType": "uint256",
          "name": "",
          "type": "uint256"
        }
      ],
      "payable": false,
      "stateMutability": "view",
      "type": "function"
    },
    {
      "constant": true,
      "inputs": [
        {
          "internalType": "address",
          "name": "",
          "type": "address"
        },
        {
          "internalType": "uint256",
          "name": "",
          "type": "uint256"
        }
      ],
      "name": "getPendingWithdrawal",
      "outputs": [
        {
          "internalType": "uint256",
          "name": "",
          "type": "uint256"
        },
        {
          "internalType": "uint256",
          "name": "",
          "type": "uint256"
        }
      ],
      "payable": false,
      "stateMutability": "view",
      "type": "function"
    },
    {
      "constant": true,
      "inputs": [],
      "name": "unlockingPeriod",
      "outputs": [
        {
          "internalType": "uint256",
          "name": "",
          "type": "uint256"
        }
      ],
      "payable": false,
      "stateMutability": "view",
      "type": "function"
    },
    {
      "constant": true,
      "inputs": [
        {
          "internalType": "address",
          "name": "",
          "type": "address"
        }
      ],
      "name": "getAccountNonvotingLockedGold",
      "outputs": [
        {
          "internalType": "uint256",
          "name": "",
          "type": "uint256"
        }
      ],
      "payable": false,
      "stateMutability": "view",
      "type": "function"
    },
    {
      "constant": false,
      "inputs": [
        {
          "internalType": "address",
          "name": "account",
          "type": "address"
        },
        {
          "internalType": "uint256",
          "name": "value",
          "type": "uint256"
        }
      ],
      "name": "decrementNonvotingAccountBalance",
      "outputs": [],
      "payable": false,
      "stateMutability": "nonpayable",
      "type": "function"
    }
  ],
  "bytecode": "0x608060405234801561001057600080fd5b506119bd806100206000396000f3fe6080604052600436106101ee5760003560e01c8063648911981161010d578063dc37963d116100a0578063f340c0d01161006f578063f340c0d014610e1e578063f420586e14610f0c578063f83d08ba14610f5d578063fe960c7114610f67578063ff7cb83214610fcc576101ee565b8063dc37963d14610c23578063dca0afc114610c7e578063eb16a9b914610ce3578063f0f8b02f14610dc3576101ee565b8063b2fb30cb116100dc578063b2fb30cb14610a72578063b5a664c214610ab7578063b6e1e49d14610b48578063d15ca4ed14610bad576101ee565b806364891198146108a25780636edf77a5146109285780637e888fbb14610983578063a2656fb1146109ec576101ee565b806330ec70f51161018557806357601c5d1161015457806357601c5d1461070857806358714163146107715780636198e3391461080257806361d5c5701461083d576101ee565b806330ec70f51461045557806331993fc9146104ba5780633f199b401461063e57806349689662146106a3576101ee565b806320637d8e116101c157806320637d8e146103695780632e1a7d4d146103945780632e29d30e146103cf57806330a61d591461042a576101ee565b8063052b9839146101f357806315952ae71461024457806318a4ff8c146102a95780631ea3eba714610304575b600080fd5b3480156101ff57600080fd5b506102426004803603602081101561021657600080fd5b81019080803573ffffffffffffffffffffffffffffffffffffffff169060200190929190505050611007565b005b34801561025057600080fd5b506102936004803603602081101561026757600080fd5b81019080803573ffffffffffffffffffffffffffffffffffffffff169060200190929190505050611062565b6040518082815260200191505060405180910390f35b3480156102b557600080fd5b50610302600480360360408110156102cc57600080fd5b81019080803573ffffffffffffffffffffffffffffffffffffffff169060200190929190803590602001909291905050506110ab565b005b34801561031057600080fd5b506103536004803603602081101561032757600080fd5b81019080803573ffffffffffffffffffffffffffffffffffffffff169060200190929190505050611144565b6040518082815260200191505060405180910390f35b34801561037557600080fd5b5061037e61115c565b6040518082815260200191505060405180910390f35b3480156103a057600080fd5b506103cd600480360360208110156103b757600080fd5b8101908080359060200190929190505050611164565b005b3480156103db57600080fd5b50610428600480360360408110156103f257600080fd5b81019080803573ffffffffffffffffffffffffffffffffffffffff16906020019092919080359060200190929190505050611167565b005b34801561043657600080fd5b5061043f6111af565b6040518082815260200191505060405180910390f35b34801561046157600080fd5b506104a46004803603602081101561047857600080fd5b81019080803573ffffffffffffffffffffffffffffffffffffffff1690602001909291905050506111b9565b6040518082815260200191505060405180910390f35b3480156104c657600080fd5b5061063c600480360360e08110156104dd57600080fd5b81019080803573ffffffffffffffffffffffffffffffffffffffff16906020019092919080359060200190929190803573ffffffffffffffffffffffffffffffffffffffff169060200190929190803590602001909291908035906020019064010000000081111561054e57600080fd5b82018360208201111561056057600080fd5b8035906020019184602083028401116401000000008311171561058257600080fd5b9091929391929390803590602001906401000000008111156105a357600080fd5b8201836020820111156105b557600080fd5b803590602001918460208302840111640100000000831117156105d757600080fd5b9091929391929390803590602001906401000000008111156105f857600080fd5b82018360208201111561060a57600080fd5b8035906020019184602083028401116401000000008311171561062c57600080fd5b9091929391929390505050611201565b005b34801561064a57600080fd5b5061068d6004803603602081101561066157600080fd5b81019080803573ffffffffffffffffffffffffffffffffffffffff1690602001909291905050506112a0565b6040518082815260200191505060405180910390f35b3480156106af57600080fd5b506106f2600480360360208110156106c657600080fd5b81019080803573ffffffffffffffffffffffffffffffffffffffff1690602001909291905050506112aa565b6040518082815260200191505060405180910390f35b34801561071457600080fd5b506107576004803603602081101561072b57600080fd5b81019080803573ffffffffffffffffffffffffffffffffffffffff1690602001909291905050506112c2565b604051808215151515815260200191505060405180910390f35b34801561077d57600080fd5b506107c06004803603602081101561079457600080fd5b81019080803573ffffffffffffffffffffffffffffffffffffffff169060200190929190505050611318565b604051808273ffffffffffffffffffffffffffffffffffffffff1673ffffffffffffffffffffffffffffffffffffffff16815260200191505060405180910390f35b34801561080e57600080fd5b5061083b6004803603602081101561082557600080fd5b810190808035906020019092919050505061134b565b005b34801561084957600080fd5b5061088c6004803603602081101561086057600080fd5b81019080803573ffffffffffffffffffffffffffffffffffffffff1690602001909291905050506113e1565b6040518082815260200191505060405180910390f35b3480156108ae57600080fd5b50610926600480360360208110156108c557600080fd5b81019080803590602001906401000000008111156108e257600080fd5b8201836020820111156108f457600080fd5b8035906020019184600183028401116401000000008311171561091657600080fd5b909192939192939050505061142a565b005b34801561093457600080fd5b506109816004803603604081101561094b57600080fd5b81019080803573ffffffffffffffffffffffffffffffffffffffff1690602001909291908035906020019092919050505061146e565b005b34801561098f57600080fd5b506109d2600480360360208110156109a657600080fd5b81019080803573ffffffffffffffffffffffffffffffffffffffff169060200190929190505050611507565b604051808215151515815260200191505060405180910390f35b3480156109f857600080fd5b50610a7060048036036020811015610a0f57600080fd5b8101908080359060200190640100000000811115610a2c57600080fd5b820183602082011115610a3e57600080fd5b80359060200191846001830284011164010000000083111715610a6057600080fd5b9091929391929390505050611527565b005b348015610a7e57600080fd5b50610ab560048036036040811015610a9557600080fd5b81019080803590602001909291908035906020019092919050505061156b565b005b348015610ac357600080fd5b50610b0660048036036020811015610ada57600080fd5b81019080803573ffffffffffffffffffffffffffffffffffffffff16906020019092919050505061156f565b604051808273ffffffffffffffffffffffffffffffffffffffff1673ffffffffffffffffffffffffffffffffffffffff16815260200191505060405180910390f35b348015610b5457600080fd5b50610b9760048036036020811015610b6b57600080fd5b81019080803573ffffffffffffffffffffffffffffffffffffffff1690602001909291905050506115a2565b6040518082815260200191505060405180910390f35b348015610bb957600080fd5b50610c0660048036036040811015610bd057600080fd5b81019080803573ffffffffffffffffffffffffffffffffffffffff169060200190929190803590602001909291905050506115ac565b604051808381526020018281526020019250505060405180910390f35b348015610c2f57600080fd5b50610c7c60048036036040811015610c4657600080fd5b81019080803573ffffffffffffffffffffffffffffffffffffffff169060200190929190803590602001909291905050506115c3565b005b348015610c8a57600080fd5b50610ccd60048036036020811015610ca157600080fd5b81019080803573ffffffffffffffffffffffffffffffffffffffff16906020019092919050505061160b565b6040518082815260200191505060405180910390f35b348015610cef57600080fd5b50610da960048036036020811015610d0657600080fd5b8101908080359060200190640100000000811115610d2357600080fd5b820183602082011115610d3557600080fd5b80359060200191846001830284011164010000000083111715610d5757600080fd5b91908080601f016020809104026020016040519081016040528093929190818152602001838380828437600081840152601f19601f820116905080830192505050505050509192919290505050611623565b604051808215151515815260200191505060405180910390f35b348015610dcf57600080fd5b50610e1c60048036036040811015610de657600080fd5b81019080803573ffffffffffffffffffffffffffffffffffffffff16906020019092919080359060200190929190505050611659565b005b348015610e2a57600080fd5b50610e6d60048036036020811015610e4157600080fd5b81019080803573ffffffffffffffffffffffffffffffffffffffff1690602001909291905050506116a0565b604051808060200180602001838103835285818151815260200191508051906020019060200280838360005b83811015610eb4578082015181840152602081019050610e99565b50505050905001838103825284818151815260200191508051906020019060200280838360005b83811015610ef6578082015181840152602081019050610edb565b5050505090500194505050505060405180910390f35b348015610f1857600080fd5b50610f5b60048036036020811015610f2f57600080fd5b81019080803573ffffffffffffffffffffffffffffffffffffffff1690602001909291905050506116e4565b005b610f6561173f565b005b348015610f7357600080fd5b50610fb660048036036020811015610f8a57600080fd5b81019080803573ffffffffffffffffffffffffffffffffffffffff1690602001909291905050506117d4565b6040518082815260200191505060405180910390f35b348015610fd857600080fd5b5061100560048036036020811015610fef57600080fd5b81019080803590602001909291905050506117ec565b005b6000600660008373ffffffffffffffffffffffffffffffffffffffff1673ffffffffffffffffffffffffffffffffffffffff16815260200190815260200160002060006101000a81548160ff02191690831515021790555050565b6000600860008373ffffffffffffffffffffffffffffffffffffffff1673ffffffffffffffffffffffffffffffffffffffff168152602001908152602001600020549050919050565b6110fd81600160008573ffffffffffffffffffffffffffffffffffffffff1673ffffffffffffffffffffffffffffffffffffffff168152602001908152602001600020546117f690919063ffffffff16565b600160008473ffffffffffffffffffffffffffffffffffffffff1673ffffffffffffffffffffffffffffffffffffffff168152602001908152602001600020819055505050565b60006020528060005260406000206000915090505481565b600080905090565b50565b80600860008473ffffffffffffffffffffffffffffffffffffffff1673ffffffffffffffffffffffffffffffffffffffff168152602001908152602001600020819055505050565b6000600454905090565b60008060008373ffffffffffffffffffffffffffffffffffffffff1673ffffffffffffffffffffffffffffffffffffffff168152602001908152602001600020549050919050565b611252896000808d73ffffffffffffffffffffffffffffffffffffffff1673ffffffffffffffffffffffffffffffffffffffff168152602001908152602001600020546117f690919063ffffffff16565b6000808c73ffffffffffffffffffffffffffffffffffffffff1673ffffffffffffffffffffffffffffffffffffffff1681526020019081526020016000208190555050505050505050505050565b6000809050919050565b60086020528060005260406000206000915090505481565b6000600660008373ffffffffffffffffffffffffffffffffffffffff1673ffffffffffffffffffffffffffffffffffffffff16815260200190815260200160002060009054906101000a900460ff169050919050565b60026020528060005260406000206000915054906101000a900473ffffffffffffffffffffffffffffffffffffffff1681565b61139c816000803373ffffffffffffffffffffffffffffffffffffffff1673ffffffffffffffffffffffffffffffffffffffff168152602001908152602001600020546117f690919063ffffffff16565b6000803373ffffffffffffffffffffffffffffffffffffffff1673ffffffffffffffffffffffffffffffffffffffff1681526020019081526020016000208190555050565b6000600760008373ffffffffffffffffffffffffffffffffffffffff1673ffffffffffffffffffffffffffffffffffffffff168152602001908152602001600020549050919050565b600160058383604051808383808284378083019250505092505050908152602001604051809103902060006101000a81548160ff0219169083151502179055505050565b6114c081600160008573ffffffffffffffffffffffffffffffffffffffff1673ffffffffffffffffffffffffffffffffffffffff1681526020019081526020016000205461184090919063ffffffff16565b600160008473ffffffffffffffffffffffffffffffffffffffff1673ffffffffffffffffffffffffffffffffffffffff168152602001908152602001600020819055505050565b60066020528060005260406000206000915054906101000a900460ff1681565b600060058383604051808383808284378083019250505092505050908152602001604051809103902060006101000a81548160ff0219169083151502179055505050565b5050565b60036020528060005260406000206000915054906101000a900473ffffffffffffffffffffffffffffffffffffffff1681565b6000809050919050565b600080600080819150809050915091509250929050565b80600760008473ffffffffffffffffffffffffffffffffffffffff1673ffffffffffffffffffffffffffffffffffffffff168152602001908152602001600020819055505050565b60016020528060005260406000206000915090505481565b6005818051602081018201805184825260208301602085012081835280955050505050506000915054906101000a900460ff1681565b806000808473ffffffffffffffffffffffffffffffffffffffff1673ffffffffffffffffffffffffffffffffffffffff168152602001908152602001600020819055505050565b606080606060006040519080825280602002602001820160405280156116d55781602001602082028038833980820191505090505b50905080819250925050915091565b6001600660008373ffffffffffffffffffffffffffffffffffffffff1673ffffffffffffffffffffffffffffffffffffffff16815260200190815260200160002060006101000a81548160ff02191690831515021790555050565b611790346000803373ffffffffffffffffffffffffffffffffffffffff1673ffffffffffffffffffffffffffffffffffffffff1681526020019081526020016000205461184090919063ffffffff16565b6000803373ffffffffffffffffffffffffffffffffffffffff1673ffffffffffffffffffffffffffffffffffffffff16815260200190815260200160002081905550565b60076020528060005260406000206000915090505481565b8060048190555050565b600061183883836040518060400160405280601e81526020017f536166654d6174683a207375627472616374696f6e206f766572666c6f7700008152506118c8565b905092915050565b6000808284019050838110156118be576040517f08c379a000000000000000000000000000000000000000000000000000000000815260040180806020018281038252601b8152602001807f536166654d6174683a206164646974696f6e206f766572666c6f77000000000081525060200191505060405180910390fd5b8091505092915050565b6000838311158290611975576040517f08c379a00000000000000000000000000000000000000000000000000000000081526004018080602001828103825283818151815260200191508051906020019080838360005b8381101561193a57808201518184015260208101905061191f565b50505050905090810190601f1680156119675780820380516001836020036101000a031916815260200191505b509250505060405180910390fd5b506000838503905080915050939250505056fea265627a7a72315820d9a1edeebf5e2621767fd6d677faf8961088bc35d95fb0607f645999645edc2064736f6c634300050d0032",
  "source": "pragma solidity ^0.5.13;\n\nimport \"openzeppelin-solidity/contracts/math/SafeMath.sol\";\n\nimport \"../interfaces/ILockedGold.sol\";\n\n/**\n * @title A mock LockedGold for testing.\n */\ncontract MockLockedGold is ILockedGold {\n  using SafeMath for uint256;\n\n  struct Authorizations {\n    address validator;\n    address voter;\n  }\n\n  mapping(address => uint256) public accountTotalLockedGold;\n  mapping(address => uint256) public nonvotingAccountBalance;\n  mapping(address => address) public authorizedValidators;\n  mapping(address => address) public authorizedBy;\n  uint256 private totalLockedGold;\n  mapping(string => bool) public slashingWhitelist;\n  mapping(address => bool) public slashingWhitelistTest;\n  mapping(address => uint256) public totalGovernancePower;\n  mapping(address => uint256) public accountTotalDelegatedAmountInPercents;\n\n  function incrementNonvotingAccountBalance(address account, uint256 value) external {\n    nonvotingAccountBalance[account] = nonvotingAccountBalance[account].add(value);\n  }\n\n  function setAccountTotalLockedGold(address account, uint256 value) external {\n    accountTotalLockedGold[account] = value;\n  }\n\n  function setAccountTotalDelegatedAmountInPercents(address account, uint256 value) external {\n    accountTotalDelegatedAmountInPercents[account] = value;\n  }\n\n  function setAccountTotalGovernancePower(address account, uint256 value) external {\n    totalGovernancePower[account] = value;\n  }\n\n  function setTotalLockedGold(uint256 value) external {\n    totalLockedGold = value;\n  }\n\n  function lock() external payable {\n    accountTotalLockedGold[msg.sender] = accountTotalLockedGold[msg.sender].add(msg.value);\n  }\n\n  function unlock(uint256 value) external {\n    accountTotalLockedGold[msg.sender] = accountTotalLockedGold[msg.sender].sub(value);\n  }\n\n  function relock(uint256 index, uint256 value) external {\n    // TODO: add implementation if necessary to mock behaviour\n  }\n\n  function withdraw(uint256 index) external {\n    // TODO: add implementation if necessary to mock behaviour\n  }\n\n  function slash(\n    address account,\n    uint256 penalty,\n    address,\n    uint256,\n    address[] calldata,\n    address[] calldata,\n    uint256[] calldata\n  ) external {\n    accountTotalLockedGold[account] = accountTotalLockedGold[account].sub(penalty);\n  }\n  function addSlasherTest(address slasher) external {\n    slashingWhitelistTest[slasher] = true;\n  }\n  function removeSlasherTest(address slasher) external {\n    slashingWhitelistTest[slasher] = false;\n  }\n  function addSlasher(string calldata slasherIdentifier) external {\n    slashingWhitelist[slasherIdentifier] = true;\n  }\n  function removeSlasher(string calldata slasherIdentifier) external {\n    slashingWhitelist[slasherIdentifier] = false;\n  }\n\n  function getAccountTotalLockedGold(address account) external view returns (uint256) {\n    return accountTotalLockedGold[account];\n  }\n\n  function getTotalLockedGold() external view returns (uint256) {\n    return totalLockedGold;\n  }\n  function isSlasher(address slasher) external view returns (bool) {\n    return slashingWhitelistTest[slasher];\n  }\n\n  function getPendingWithdrawals(\n    address\n  ) external view returns (uint256[] memory, uint256[] memory) {\n    uint256[] memory empty = new uint256[](0);\n    return (empty, empty);\n  }\n\n  function getTotalPendingWithdrawals(address) external view returns (uint256) {\n    return 0;\n  }\n\n  function getAccountTotalDelegatedFraction(address account) external view returns (uint256) {\n    return accountTotalDelegatedAmountInPercents[account];\n  }\n\n  function getAccountTotalGovernanceVotingPower(address account) external view returns (uint256) {\n    return totalGovernancePower[account];\n  }\n\n  function getPendingWithdrawal(address, uint256) external view returns (uint256, uint256) {\n    return (0, 0);\n  }\n\n  function unlockingPeriod() external view returns (uint256) {\n    return 0;\n  }\n\n  function getAccountNonvotingLockedGold(address) external view returns (uint256) {\n    return 0;\n  }\n\n  function decrementNonvotingAccountBalance(address account, uint256 value) public {\n    nonvotingAccountBalance[account] = nonvotingAccountBalance[account].sub(value);\n  }\n}\n",
  "sourcePath": "/Users/beaver/Development/temp/celo-monorepo/packages/protocol/contracts/governance/test/MockLockedGold.sol",
  "compiler": {
    "name": "solc",
    "version": "0.5.13+commit.5b0b510c.Emscripten.clang"
  },
  "schemaVersion": "3.4.13",
  "updatedAt": "2025-05-05T17:49:51.469Z",
  "devdoc": {
    "methods": {},
    "title": "A mock LockedGold for testing."
  },
  "userdoc": {
    "methods": {}
  }
}