{
  "contractName": "MockValidators",
  "abi": [
    {
      "anonymous": false,
      "inputs": [
        {
          "indexed": false,
          "internalType": "address",
          "name": "validator",
          "type": "address"
        }
      ],
      "name": "HavelSlashingMultiplierHalved",
      "type": "event"
    },
    {
      "anonymous": false,
      "inputs": [
        {
          "indexed": false,
          "internalType": "address",
          "name": "validator",
          "type": "address"
        }
      ],
      "name": "ValidatorDeaffiliatedCalled",
      "type": "event"
    },
    {
      "constant": true,
      "inputs": [
        {
          "internalType": "address",
          "name": "",
          "type": "address"
        }
      ],
      "name": "isValidator",
      "outputs": [
        {
          "internalType": "bool",
          "name": "",
          "type": "bool"
        }
      ],
      "payable": false,
      "stateMutability": "view",
      "type": "function"
    },
    {
      "constant": true,
      "inputs": [
        {
          "internalType": "address",
          "name": "",
          "type": "address"
        }
      ],
      "name": "isValidatorGroup",
      "outputs": [
        {
          "internalType": "bool",
          "name": "",
          "type": "bool"
        }
      ],
      "payable": false,
      "stateMutability": "view",
      "type": "function"
    },
    {
      "constant": true,
      "inputs": [],
      "name": "mintedStable",
      "outputs": [
        {
          "internalType": "uint256",
          "name": "",
          "type": "uint256"
        }
      ],
      "payable": false,
      "stateMutability": "view",
      "type": "function"
    },
    {
      "constant": false,
      "inputs": [
        {
          "internalType": "address",
          "name": "",
          "type": "address"
        },
        {
          "internalType": "address",
          "name": "",
          "type": "address"
        },
        {
          "internalType": "bytes",
          "name": "",
          "type": "bytes"
        }
      ],
      "name": "updateEcdsaPublicKey",
      "outputs": [
        {
          "internalType": "bool",
          "name": "",
          "type": "bool"
        }
      ],
      "payable": false,
      "stateMutability": "nonpayable",
      "type": "function"
    },
    {
      "constant": false,
      "inputs": [
        {
          "internalType": "address",
          "name": "",
          "type": "address"
        },
        {
          "internalType": "address",
          "name": "",
          "type": "address"
        },
        {
          "internalType": "bytes",
          "name": "",
          "type": "bytes"
        },
        {
          "internalType": "bytes",
          "name": "",
          "type": "bytes"
        },
        {
          "internalType": "bytes",
          "name": "",
          "type": "bytes"
        }
      ],
      "name": "updatePublicKeys",
      "outputs": [
        {
          "internalType": "bool",
          "name": "",
          "type": "bool"
        }
      ],
      "payable": false,
      "stateMutability": "nonpayable",
      "type": "function"
    },
    {
      "constant": false,
      "inputs": [
        {
          "internalType": "address",
          "name": "account",
          "type": "address"
        }
      ],
      "name": "setValidator",
      "outputs": [],
      "payable": false,
      "stateMutability": "nonpayable",
      "type": "function"
    },
    {
      "constant": false,
      "inputs": [
        {
          "internalType": "address",
          "name": "group",
          "type": "address"
        }
      ],
      "name": "setValidatorGroup",
      "outputs": [],
      "payable": false,
      "stateMutability": "nonpayable",
      "type": "function"
    },
    {
      "constant": false,
      "inputs": [
        {
          "internalType": "address",
          "name": "group",
          "type": "address"
        }
      ],
      "name": "affiliate",
      "outputs": [
        {
          "internalType": "bool",
          "name": "",
          "type": "bool"
        }
      ],
      "payable": false,
      "stateMutability": "nonpayable",
      "type": "function"
    },
    {
      "constant": false,
      "inputs": [
        {
          "internalType": "address",
          "name": "account",
          "type": "address"
        }
      ],
      "name": "setDoesNotMeetAccountLockedGoldRequirements",
      "outputs": [],
      "payable": false,
      "stateMutability": "nonpayable",
      "type": "function"
    },
    {
      "constant": false,
      "inputs": [
        {
          "internalType": "uint256",
          "name": "value",
          "type": "uint256"
        }
      ],
      "name": "setNumRegisteredValidators",
      "outputs": [],
      "payable": false,
      "stateMutability": "nonpayable",
      "type": "function"
    },
    {
      "constant": false,
      "inputs": [
        {
          "internalType": "address",
          "name": "group",
          "type": "address"
        },
        {
          "internalType": "address[]",
          "name": "_members",
          "type": "address[]"
        }
      ],
      "name": "setMembers",
      "outputs": [],
      "payable": false,
      "stateMutability": "nonpayable",
      "type": "function"
    },
    {
      "constant": false,
      "inputs": [
        {
          "internalType": "address",
          "name": "group",
          "type": "address"
        },
        {
          "internalType": "uint256",
          "name": "commission",
          "type": "uint256"
        }
      ],
      "name": "setCommission",
      "outputs": [],
      "payable": false,
      "stateMutability": "nonpayable",
      "type": "function"
    },
    {
      "constant": false,
      "inputs": [
        {
          "internalType": "address",
          "name": "account",
          "type": "address"
        },
        {
          "internalType": "uint256",
          "name": "value",
          "type": "uint256"
        }
      ],
      "name": "setAccountLockedGoldRequirement",
      "outputs": [],
      "payable": false,
      "stateMutability": "nonpayable",
      "type": "function"
    },
    {
      "constant": false,
      "inputs": [
        {
          "internalType": "address",
          "name": "validator",
          "type": "address"
        }
      ],
      "name": "halveSlashingMultiplier",
      "outputs": [],
      "payable": false,
      "stateMutability": "nonpayable",
      "type": "function"
    },
    {
      "constant": false,
      "inputs": [
        {
          "internalType": "address",
          "name": "validator",
          "type": "address"
        }
      ],
      "name": "forceDeaffiliateIfValidator",
      "outputs": [],
      "payable": false,
      "stateMutability": "nonpayable",
      "type": "function"
    },
    {
      "constant": true,
      "inputs": [
        {
          "internalType": "address",
          "name": "validator",
          "type": "address"
        }
      ],
      "name": "getValidatorsGroup",
      "outputs": [
        {
          "internalType": "address",
          "name": "",
          "type": "address"
        }
      ],
      "payable": false,
      "stateMutability": "view",
      "type": "function"
    },
    {
      "constant": true,
      "inputs": [
        {
          "internalType": "address",
          "name": "group",
          "type": "address"
        },
        {
          "internalType": "uint256",
          "name": "n",
          "type": "uint256"
        }
      ],
      "name": "getTopGroupValidatorsAccounts",
      "outputs": [
        {
          "internalType": "address[]",
          "name": "",
          "type": "address[]"
        }
      ],
      "payable": false,
      "stateMutability": "view",
      "type": "function"
    },
    {
      "constant": true,
      "inputs": [
        {
          "internalType": "address",
          "name": "group",
          "type": "address"
        }
      ],
      "name": "getValidatorGroup",
      "outputs": [
        {
          "internalType": "address[]",
          "name": "",
          "type": "address[]"
        },
        {
          "internalType": "uint256",
          "name": "",
          "type": "uint256"
        },
        {
          "internalType": "uint256",
          "name": "",
          "type": "uint256"
        },
        {
          "internalType": "uint256",
          "name": "",
          "type": "uint256"
        },
        {
          "internalType": "uint256[]",
          "name": "",
          "type": "uint256[]"
        },
        {
          "internalType": "uint256",
          "name": "",
          "type": "uint256"
        },
        {
          "internalType": "uint256",
          "name": "",
          "type": "uint256"
        }
      ],
      "payable": false,
      "stateMutability": "view",
      "type": "function"
    },
    {
      "constant": true,
      "inputs": [
        {
          "internalType": "address",
          "name": "",
          "type": "address"
        }
      ],
      "name": "getValidatorGroupSlashingMultiplier",
      "outputs": [
        {
          "internalType": "uint256",
          "name": "",
          "type": "uint256"
        }
      ],
      "payable": false,
      "stateMutability": "view",
      "type": "function"
    },
    {
      "constant": true,
      "inputs": [
        {
          "internalType": "address",
          "name": "account",
          "type": "address"
        }
      ],
      "name": "meetsAccountLockedGoldRequirements",
      "outputs": [
        {
          "internalType": "bool",
          "name": "",
          "type": "bool"
        }
      ],
      "payable": false,
      "stateMutability": "view",
      "type": "function"
    },
    {
      "constant": true,
      "inputs": [],
      "name": "getNumRegisteredValidators",
      "outputs": [
        {
          "internalType": "uint256",
          "name": "",
          "type": "uint256"
        }
      ],
      "payable": false,
      "stateMutability": "view",
      "type": "function"
    },
    {
      "constant": true,
      "inputs": [
        {
          "internalType": "address",
          "name": "account",
          "type": "address"
        }
      ],
      "name": "getAccountLockedGoldRequirement",
      "outputs": [
        {
          "internalType": "uint256",
          "name": "",
          "type": "uint256"
        }
      ],
      "payable": false,
      "stateMutability": "view",
      "type": "function"
    },
    {
      "constant": true,
      "inputs": [
        {
          "internalType": "uint256[]",
          "name": "uptimes",
          "type": "uint256[]"
        }
      ],
      "name": "calculateGroupEpochScore",
      "outputs": [
        {
          "internalType": "uint256",
          "name": "",
          "type": "uint256"
        }
      ],
      "payable": false,
      "stateMutability": "view",
      "type": "function"
    },
    {
      "constant": true,
      "inputs": [
        {
          "internalType": "address[]",
          "name": "groups",
          "type": "address[]"
        }
      ],
      "name": "getGroupsNumMembers",
      "outputs": [
        {
          "internalType": "uint256[]",
          "name": "",
          "type": "uint256[]"
        }
      ],
      "payable": false,
      "stateMutability": "view",
      "type": "function"
    },
    {
      "constant": true,
      "inputs": [
        {
          "internalType": "address",
          "name": "addr",
          "type": "address"
        },
        {
          "internalType": "uint256",
          "name": "",
          "type": "uint256"
        },
        {
          "internalType": "uint256",
          "name": "",
          "type": "uint256"
        }
      ],
      "name": "groupMembershipInEpoch",
      "outputs": [
        {
          "internalType": "address",
          "name": "",
          "type": "address"
        }
      ],
      "payable": false,
      "stateMutability": "view",
      "type": "function"
    },
    {
      "constant": true,
      "inputs": [
        {
          "internalType": "address",
          "name": "group",
          "type": "address"
        }
      ],
      "name": "getGroupNumMembers",
      "outputs": [
        {
          "internalType": "uint256",
          "name": "",
          "type": "uint256"
        }
      ],
      "payable": false,
      "stateMutability": "view",
      "type": "function"
    },
    {
      "constant": true,
      "inputs": [
        {
          "internalType": "address",
          "name": "group",
          "type": "address"
        },
        {
          "internalType": "uint256",
          "name": "n",
          "type": "uint256"
        }
      ],
      "name": "getTopGroupValidators",
      "outputs": [
        {
          "internalType": "address[]",
          "name": "",
          "type": "address[]"
        }
      ],
      "payable": false,
      "stateMutability": "view",
      "type": "function"
    },
    {
      "constant": false,
      "inputs": [
        {
          "internalType": "address",
          "name": "",
          "type": "address"
        },
        {
          "internalType": "address",
          "name": "",
          "type": "address"
        },
        {
          "internalType": "address",
          "name": "",
          "type": "address"
        }
      ],
      "name": "addFirstMember",
      "outputs": [
        {
          "internalType": "bool",
          "name": "",
          "type": "bool"
        }
      ],
      "payable": false,
      "stateMutability": "nonpayable",
      "type": "function"
    },
    {
      "constant": false,
      "inputs": [
        {
          "internalType": "uint256",
          "name": "",
          "type": "uint256"
        }
      ],
      "name": "registerValidatorGroup",
      "outputs": [
        {
          "internalType": "bool",
          "name": "",
          "type": "bool"
        }
      ],
      "payable": false,
      "stateMutability": "nonpayable",
      "type": "function"
    },
    {
      "constant": false,
      "inputs": [
        {
          "internalType": "bytes",
          "name": "",
          "type": "bytes"
        }
      ],
      "name": "registerValidatorNoBls",
      "outputs": [
        {
          "internalType": "bool",
          "name": "",
          "type": "bool"
        }
      ],
      "payable": false,
      "stateMutability": "nonpayable",
      "type": "function"
    },
    {
      "constant": false,
      "inputs": [
        {
          "internalType": "address",
          "name": "",
          "type": "address"
        }
      ],
      "name": "removeMember",
      "outputs": [
        {
          "internalType": "bool",
          "name": "",
          "type": "bool"
        }
      ],
      "payable": false,
      "stateMutability": "nonpayable",
      "type": "function"
    },
    {
      "constant": false,
      "inputs": [
        {
          "internalType": "uint256",
          "name": "",
          "type": "uint256"
        },
        {
          "internalType": "uint256",
          "name": "",
          "type": "uint256"
        }
      ],
      "name": "setGroupLockedGoldRequirements",
      "outputs": [
        {
          "internalType": "bool",
          "name": "",
          "type": "bool"
        }
      ],
      "payable": false,
      "stateMutability": "nonpayable",
      "type": "function"
    },
    {
      "constant": false,
      "inputs": [
        {
          "internalType": "uint256",
          "name": "",
          "type": "uint256"
        }
      ],
      "name": "setMembershipHistoryLength",
      "outputs": [
        {
          "internalType": "bool",
          "name": "",
          "type": "bool"
        }
      ],
      "payable": false,
      "stateMutability": "nonpayable",
      "type": "function"
    },
    {
      "constant": false,
      "inputs": [
        {
          "internalType": "uint256",
          "name": "",
          "type": "uint256"
        }
      ],
      "name": "setNextCommissionUpdate",
      "outputs": [],
      "payable": false,
      "stateMutability": "nonpayable",
      "type": "function"
    },
    {
      "constant": false,
      "inputs": [
        {
          "internalType": "uint256",
          "name": "",
          "type": "uint256"
        }
      ],
      "name": "setSlashingMultiplierResetPeriod",
      "outputs": [],
      "payable": false,
      "stateMutability": "nonpayable",
      "type": "function"
    },
    {
      "constant": false,
      "inputs": [],
      "name": "updateCommission",
      "outputs": [],
      "payable": false,
      "stateMutability": "nonpayable",
      "type": "function"
    },
    {
      "constant": false,
      "inputs": [
        {
          "internalType": "bytes",
          "name": "",
          "type": "bytes"
        },
        {
          "internalType": "bytes",
          "name": "",
          "type": "bytes"
        }
      ],
      "name": "updateBlsPublicKey",
      "outputs": [
        {
          "internalType": "bool",
          "name": "",
          "type": "bool"
        }
      ],
      "payable": false,
      "stateMutability": "nonpayable",
      "type": "function"
    },
    {
      "constant": false,
      "inputs": [
        {
          "internalType": "uint256",
          "name": "",
          "type": "uint256"
        },
        {
          "internalType": "uint256",
          "name": "",
          "type": "uint256"
        }
      ],
      "name": "setValidatorScoreParameters",
      "outputs": [
        {
          "internalType": "bool",
          "name": "",
          "type": "bool"
        }
      ],
      "payable": false,
      "stateMutability": "nonpayable",
      "type": "function"
    },
    {
      "constant": false,
      "inputs": [
        {
          "internalType": "uint256",
          "name": "",
          "type": "uint256"
        },
        {
          "internalType": "uint256",
          "name": "",
          "type": "uint256"
        }
      ],
      "name": "setValidatorLockedGoldRequirements",
      "outputs": [
        {
          "internalType": "bool",
          "name": "",
          "type": "bool"
        }
      ],
      "payable": false,
      "stateMutability": "nonpayable",
      "type": "function"
    },
    {
      "constant": false,
      "inputs": [
        {
          "internalType": "uint256",
          "name": "",
          "type": "uint256"
        }
      ],
      "name": "setMaxGroupSize",
      "outputs": [
        {
          "internalType": "bool",
          "name": "",
          "type": "bool"
        }
      ],
      "payable": false,
      "stateMutability": "nonpayable",
      "type": "function"
    },
    {
      "constant": false,
      "inputs": [
        {
          "internalType": "uint256",
          "name": "",
          "type": "uint256"
        }
      ],
      "name": "setDowntimeGracePeriod",
      "outputs": [],
      "payable": false,
      "stateMutability": "nonpayable",
      "type": "function"
    },
    {
      "constant": false,
      "inputs": [
        {
          "internalType": "uint256",
          "name": "",
          "type": "uint256"
        }
      ],
      "name": "setCommissionUpdateDelay",
      "outputs": [],
      "payable": false,
      "stateMutability": "nonpayable",
      "type": "function"
    },
    {
      "constant": false,
      "inputs": [],
      "name": "resetSlashingMultiplier",
      "outputs": [],
      "payable": false,
      "stateMutability": "nonpayable",
      "type": "function"
    },
    {
      "constant": false,
      "inputs": [
        {
          "internalType": "address",
          "name": "",
          "type": "address"
        },
        {
          "internalType": "address",
          "name": "",
          "type": "address"
        },
        {
          "internalType": "address",
          "name": "",
          "type": "address"
        }
      ],
      "name": "reorderMember",
      "outputs": [
        {
          "internalType": "bool",
          "name": "",
          "type": "bool"
        }
      ],
      "payable": false,
      "stateMutability": "nonpayable",
      "type": "function"
    },
    {
      "constant": false,
      "inputs": [
        {
          "internalType": "address",
          "name": "",
          "type": "address"
        },
        {
          "internalType": "uint256",
          "name": "",
          "type": "uint256"
        }
      ],
      "name": "updateValidatorScoreFromSigner",
      "outputs": [],
      "payable": false,
      "stateMutability": "nonpayable",
      "type": "function"
    },
    {
      "constant": false,
      "inputs": [
        {
          "internalType": "uint256",
          "name": "amount",
          "type": "uint256"
        }
      ],
      "name": "mintStableToEpochManager",
      "outputs": [],
      "payable": false,
      "stateMutability": "nonpayable",
      "type": "function"
    },
    {
      "constant": true,
      "inputs": [],
      "name": "maxGroupSize",
      "outputs": [
        {
          "internalType": "uint256",
          "name": "",
          "type": "uint256"
        }
      ],
      "payable": false,
      "stateMutability": "view",
      "type": "function"
    },
    {
      "constant": true,
      "inputs": [],
      "name": "getValidatorScoreParameters",
      "outputs": [
        {
          "internalType": "uint256",
          "name": "",
          "type": "uint256"
        },
        {
          "internalType": "uint256",
          "name": "",
          "type": "uint256"
        }
      ],
      "payable": false,
      "stateMutability": "view",
      "type": "function"
    },
    {
      "constant": true,
      "inputs": [],
      "name": "getValidatorLockedGoldRequirements",
      "outputs": [
        {
          "internalType": "uint256",
          "name": "",
          "type": "uint256"
        },
        {
          "internalType": "uint256",
          "name": "",
          "type": "uint256"
        }
      ],
      "payable": false,
      "stateMutability": "view",
      "type": "function"
    },
    {
      "constant": true,
      "inputs": [
        {
          "internalType": "address",
          "name": "",
          "type": "address"
        }
      ],
      "name": "getValidatorBlsPublicKeyFromSigner",
      "outputs": [
        {
          "internalType": "bytes",
          "name": "",
          "type": "bytes"
        }
      ],
      "payable": false,
      "stateMutability": "view",
      "type": "function"
    },
    {
      "constant": true,
      "inputs": [],
      "name": "getRegisteredValidators",
      "outputs": [
        {
          "internalType": "address[]",
          "name": "",
          "type": "address[]"
        }
      ],
      "payable": false,
      "stateMutability": "view",
      "type": "function"
    },
    {
      "constant": true,
      "inputs": [],
      "name": "getRegisteredValidatorGroups",
      "outputs": [
        {
          "internalType": "address[]",
          "name": "",
          "type": "address[]"
        }
      ],
      "payable": false,
      "stateMutability": "view",
      "type": "function"
    },
    {
      "constant": true,
      "inputs": [
        {
          "internalType": "address",
          "name": "",
          "type": "address"
        }
      ],
      "name": "getMembershipInLastEpochFromSigner",
      "outputs": [
        {
          "internalType": "address",
          "name": "",
          "type": "address"
        }
      ],
      "payable": false,
      "stateMutability": "view",
      "type": "function"
    },
    {
      "constant": true,
      "inputs": [
        {
          "internalType": "address",
          "name": "",
          "type": "address"
        }
      ],
      "name": "getMembershipInLastEpoch",
      "outputs": [
        {
          "internalType": "address",
          "name": "",
          "type": "address"
        }
      ],
      "payable": false,
      "stateMutability": "view",
      "type": "function"
    },
    {
      "constant": true,
      "inputs": [],
      "name": "getMembershipHistoryLength",
      "outputs": [
        {
          "internalType": "uint256",
          "name": "",
          "type": "uint256"
        }
      ],
      "payable": false,
      "stateMutability": "view",
      "type": "function"
    },
    {
      "constant": false,
      "inputs": [
        {
          "internalType": "address",
          "name": "",
          "type": "address"
        }
      ],
      "name": "addMember",
      "outputs": [
        {
          "internalType": "bool",
          "name": "",
          "type": "bool"
        }
      ],
      "payable": false,
      "stateMutability": "nonpayable",
      "type": "function"
    },
    {
      "constant": true,
      "inputs": [
        {
          "internalType": "uint256",
          "name": "",
          "type": "uint256"
        }
      ],
      "name": "calculateEpochScore",
      "outputs": [
        {
          "internalType": "uint256",
          "name": "",
          "type": "uint256"
        }
      ],
      "payable": false,
      "stateMutability": "view",
      "type": "function"
    },
    {
      "constant": false,
      "inputs": [],
      "name": "deaffiliate",
      "outputs": [
        {
          "internalType": "bool",
          "name": "",
          "type": "bool"
        }
      ],
      "payable": false,
      "stateMutability": "nonpayable",
      "type": "function"
    },
    {
      "constant": false,
      "inputs": [
        {
          "internalType": "uint256",
          "name": "",
          "type": "uint256"
        }
      ],
      "name": "deregisterValidator",
      "outputs": [
        {
          "internalType": "bool",
          "name": "",
          "type": "bool"
        }
      ],
      "payable": false,
      "stateMutability": "nonpayable",
      "type": "function"
    },
    {
      "constant": false,
      "inputs": [
        {
          "internalType": "uint256",
          "name": "",
          "type": "uint256"
        }
      ],
      "name": "deregisterValidatorGroup",
      "outputs": [
        {
          "internalType": "bool",
          "name": "",
          "type": "bool"
        }
      ],
      "payable": false,
      "stateMutability": "nonpayable",
      "type": "function"
    },
    {
      "constant": false,
      "inputs": [
        {
          "internalType": "address",
          "name": "",
          "type": "address"
        },
        {
          "internalType": "uint256",
          "name": "",
          "type": "uint256"
        }
      ],
      "name": "distributeEpochPaymentsFromSigner",
      "outputs": [
        {
          "internalType": "uint256",
          "name": "",
          "type": "uint256"
        }
      ],
      "payable": false,
      "stateMutability": "nonpayable",
      "type": "function"
    },
    {
      "constant": true,
      "inputs": [],
      "name": "downtimeGracePeriod",
      "outputs": [
        {
          "internalType": "uint256",
          "name": "",
          "type": "uint256"
        }
      ],
      "payable": false,
      "stateMutability": "view",
      "type": "function"
    },
    {
      "constant": true,
      "inputs": [],
      "name": "getCommissionUpdateDelay",
      "outputs": [
        {
          "internalType": "uint256",
          "name": "",
          "type": "uint256"
        }
      ],
      "payable": false,
      "stateMutability": "view",
      "type": "function"
    },
    {
      "constant": true,
      "inputs": [],
      "name": "getGroupLockedGoldRequirements",
      "outputs": [
        {
          "internalType": "uint256",
          "name": "",
          "type": "uint256"
        },
        {
          "internalType": "uint256",
          "name": "",
          "type": "uint256"
        }
      ],
      "payable": false,
      "stateMutability": "view",
      "type": "function"
    },
    {
      "constant": true,
      "inputs": [
        {
          "internalType": "address",
          "name": "account",
          "type": "address"
        },
        {
          "internalType": "uint256",
          "name": "",
          "type": "uint256"
        },
        {
          "internalType": "uint256",
          "name": "",
          "type": "uint256"
        }
      ],
      "name": "computeEpochReward",
      "outputs": [
        {
          "internalType": "uint256",
          "name": "",
          "type": "uint256"
        }
      ],
      "payable": false,
      "stateMutability": "view",
      "type": "function"
    },
    {
      "constant": false,
      "inputs": [
        {
          "internalType": "address",
          "name": "account",
          "type": "address"
        },
        {
          "internalType": "uint256",
          "name": "reward",
          "type": "uint256"
        }
      ],
      "name": "setEpochRewards",
      "outputs": [],
      "payable": false,
      "stateMutability": "nonpayable",
      "type": "function"
    },
    {
      "constant": false,
      "inputs": [
        {
          "internalType": "bytes",
          "name": "",
          "type": "bytes"
        },
        {
          "internalType": "bytes",
          "name": "",
          "type": "bytes"
        },
        {
          "internalType": "bytes",
          "name": "",
          "type": "bytes"
        }
      ],
      "name": "registerValidator",
      "outputs": [
        {
          "internalType": "bool",
          "name": "",
          "type": "bool"
        }
      ],
      "payable": false,
      "stateMutability": "nonpayable",
      "type": "function"
    },
    {
      "constant": true,
      "inputs": [
        {
          "internalType": "address",
          "name": "",
          "type": "address"
        }
      ],
      "name": "getMembershipHistory",
      "outputs": [
        {
          "internalType": "uint256[]",
          "name": "",
          "type": "uint256[]"
        },
        {
          "internalType": "address[]",
          "name": "",
          "type": "address[]"
        },
        {
          "internalType": "uint256",
          "name": "",
          "type": "uint256"
        },
        {
          "internalType": "uint256",
          "name": "",
          "type": "uint256"
        }
      ],
      "payable": false,
      "stateMutability": "view",
      "type": "function"
    },
    {
      "constant": true,
      "inputs": [
        {
          "internalType": "address",
          "name": "",
          "type": "address"
        }
      ],
      "name": "getValidator",
      "outputs": [
        {
          "internalType": "bytes",
          "name": "",
          "type": "bytes"
        },
        {
          "internalType": "bytes",
          "name": "",
          "type": "bytes"
        },
        {
          "internalType": "address",
          "name": "",
          "type": "address"
        },
        {
          "internalType": "uint256",
          "name": "",
          "type": "uint256"
        },
        {
          "internalType": "address",
          "name": "",
          "type": "address"
        }
      ],
      "payable": false,
      "stateMutability": "view",
      "type": "function"
    }
  ],
  "bytecode": "0x608060405234801561001057600080fd5b50613e55806100206000396000f3fe608060405234801561001057600080fd5b50600436106104075760003560e01c806394903a9711610220578063caf3c42611610130578063e7f03766116100b8578063ee09831011610087578063ee09831014611e88578063eff2ea3f14611ece578063f7cf032b14611f14578063facd743b14611fad578063fffdfccb1461200957610407565b8063e7f0376614611c7d578063ea4208ac14611c87578063ea684f7714611cb5578063eb1d0b4214611df057610407565b8063dba94fcd116100ff578063dba94fcd14611aa0578063dcff4cf614611af8578063e1497ff714611b50578063e33301aa14611b96578063e5880d9a14611bda57610407565b8063caf3c426146118fe578063cb8f98e01461198f578063d69ef6cf146119df578063d93ab5ad14611a4157610407565b8063b915f530116101b3578063c0c6ad6f11610182578063c0c6ad6f1461178f578063c10c96ef146117dd578063c22d3bba14611802578063c54c1cd414611846578063ca6d56dc146118a257610407565b8063b915f530146115b9578063bb0f1fa5146115d7578063bfdb74171461165b578063c0abe8be1461174157610407565b8063b591d3a5116101ef578063b591d3a514611478578063b6885a18146114d4578063b730a299146114f2578063b8f93943146115af57610407565b806394903a9714611268578063988dcd1f146112aa5780639b9d516114611346578063a57bff901461144a57610407565b806352f13a4e1161031b57806370447754116102ae5780637a9b92211161027d5780637a9b9221146110df5780637d895e5a1461112357806386d81a5a146111515780638b16b1c61461117f5780638dd31e39146111c557610407565b80637044775414610db9578063713ea0f314610e8757806376c0a9ed1461100257806376f7425d1461105257610407565b8063680104c5116102ea578063680104c514610cf45780636ab951a014610d385780636c620d9014610d665780636fa4764714610d9457610407565b806352f13a4e14610be45780635779e93d14610c405780635a61d15b14610c5e57806360fb822c14610cae57610407565b806331729a451161039e5780633be2c3b01161036d5780633be2c3b0146109f45780633f27089814610a125780634e06fd8a14610a71578063517f6d3314610b4257806351b5222514610b6057610407565b806331729a45146107c35780633173b8db1461081157806335244f51146108ad57806339e618e81461099c57610407565b80631327d3d8116103da5780631327d3d8146105765780631904bb2e146105ba57806319113e3b146107505780632300f4821461077557610407565b80630352a5921461040c578063087c344e1461042a5780630b1ca49a146104965780630d1312b8146104f2575b600080fd5b61041461202b565b6040518082815260200191505060405180910390f35b6104806004803603606081101561044057600080fd5b81019080803573ffffffffffffffffffffffffffffffffffffffff169060200190929190803590602001909291908035906020019092919050505061209b565b6040518082815260200191505060405180910390f35b6104d8600480360360208110156104ac57600080fd5b81019080803573ffffffffffffffffffffffffffffffffffffffff1690602001909291905050506120e6565b604051808215151515815260200191505060405180910390f35b6105346004803603602081101561050857600080fd5b81019080803573ffffffffffffffffffffffffffffffffffffffff169060200190929190505050612156565b604051808273ffffffffffffffffffffffffffffffffffffffff1673ffffffffffffffffffffffffffffffffffffffff16815260200191505060405180910390f35b6105b86004803603602081101561058c57600080fd5b81019080803573ffffffffffffffffffffffffffffffffffffffff1690602001909291905050506121c6565b005b6105fc600480360360208110156105d057600080fd5b81019080803573ffffffffffffffffffffffffffffffffffffffff169060200190929190505050612220565b6040518080602001806020018673ffffffffffffffffffffffffffffffffffffffff1673ffffffffffffffffffffffffffffffffffffffff1681526020018581526020018473ffffffffffffffffffffffffffffffffffffffff1673ffffffffffffffffffffffffffffffffffffffff168152602001838103835288818151815260200191508051906020019080838360005b838110156106aa57808201518184015260208101905061068f565b50505050905090810190601f1680156106d75780820380516001836020036101000a031916815260200191505b50838103825287818151815260200191508051906020019080838360005b838110156107105780820151818401526020810190506106f5565b50505050905090810190601f16801561073d5780820380516001836020036101000a031916815260200191505b5097505050505050505060405180910390f35b610758612296565b604051808381526020018281526020019250505060405180910390f35b6107c16004803603604081101561078b57600080fd5b81019080803573ffffffffffffffffffffffffffffffffffffffff16906020019092919080359060200190929190505050612307565b005b61080f600480360360408110156107d957600080fd5b81019080803573ffffffffffffffffffffffffffffffffffffffff1690602001909291908035906020019092919050505061234f565b005b6108936004803603606081101561082757600080fd5b81019080803573ffffffffffffffffffffffffffffffffffffffff169060200190929190803573ffffffffffffffffffffffffffffffffffffffff169060200190929190803573ffffffffffffffffffffffffffffffffffffffff169060200190929190505050612397565b604051808215151515815260200191505060405180910390f35b6108ef600480360360208110156108c357600080fd5b81019080803573ffffffffffffffffffffffffffffffffffffffff169060200190929190505050612407565b604051808060200180602001858152602001848152602001838103835287818151815260200191508051906020019060200280838360005b83811015610942578082015181840152602081019050610927565b50505050905001838103825286818151815260200191508051906020019060200280838360005b83811015610984578082015181840152602081019050610969565b50505050905001965050505050505060405180910390f35b6109de600480360360208110156109b257600080fd5b81019080803573ffffffffffffffffffffffffffffffffffffffff16906020019092919050505061247b565b6040518082815260200191505060405180910390f35b6109fc6124c7565b6040518082815260200191505060405180910390f35b610a1a6124cd565b6040518080602001828103825283818151815260200191508051906020019060200280838360005b83811015610a5d578082015181840152602081019050610a42565b505050509050019250505060405180910390f35b610b2860048036036060811015610a8757600080fd5b81019080803573ffffffffffffffffffffffffffffffffffffffff169060200190929190803573ffffffffffffffffffffffffffffffffffffffff16906020019092919080359060200190640100000000811115610ae457600080fd5b820183602082011115610af657600080fd5b80359060200191846001830284011164010000000083111715610b1857600080fd5b909192939192939050505061253d565b604051808215151515815260200191505060405180910390f35b610b4a61254b565b6040518082815260200191505060405180910390f35b610ba260048036036020811015610b7657600080fd5b81019080803573ffffffffffffffffffffffffffffffffffffffff169060200190929190505050612555565b604051808273ffffffffffffffffffffffffffffffffffffffff1673ffffffffffffffffffffffffffffffffffffffff16815260200191505060405180910390f35b610c2660048036036020811015610bfa57600080fd5b81019080803573ffffffffffffffffffffffffffffffffffffffff1690602001909291905050506125c5565b604051808215151515815260200191505060405180910390f35b610c486125e5565b6040518082815260200191505060405180910390f35b610c9460048036036040811015610c7457600080fd5b810190808035906020019092919080359060200190929190505050612655565b604051808215151515815260200191505060405180910390f35b610cda60048036036020811015610cc457600080fd5b81019080803590602001909291905050506126c5565b604051808215151515815260200191505060405180910390f35b610d3660048036036020811015610d0a57600080fd5b81019080803573ffffffffffffffffffffffffffffffffffffffff169060200190929190505050612735565b005b610d6460048036036020811015610d4e57600080fd5b810190808035906020019092919050505061278f565b005b610d9260048036036020811015610d7c57600080fd5b81019080803590602001909291905050506127fd565b005b610d9c61286b565b604051808381526020018281526020019250505060405180910390f35b610e3060048036036020811015610dcf57600080fd5b8101908080359060200190640100000000811115610dec57600080fd5b820183602082011115610dfe57600080fd5b80359060200191846020830284011164010000000083111715610e2057600080fd5b90919293919293905050506128dc565b6040518080602001828103825283818151815260200191508051906020019060200280838360005b83811015610e73578082015181840152602081019050610e58565b505050509050019250505060405180910390f35b610fe8600480360360a0811015610e9d57600080fd5b81019080803573ffffffffffffffffffffffffffffffffffffffff169060200190929190803573ffffffffffffffffffffffffffffffffffffffff16906020019092919080359060200190640100000000811115610efa57600080fd5b820183602082011115610f0c57600080fd5b80359060200191846001830284011164010000000083111715610f2e57600080fd5b909192939192939080359060200190640100000000811115610f4f57600080fd5b820183602082011115610f6157600080fd5b80359060200191846001830284011164010000000083111715610f8357600080fd5b909192939192939080359060200190640100000000811115610fa457600080fd5b820183602082011115610fb657600080fd5b80359060200191846001830284011164010000000083111715610fd857600080fd5b9091929391929390505050612994565b604051808215151515815260200191505060405180910390f35b6110386004803603604081101561101857600080fd5b8101908080359060200190929190803590602001909291905050506129ae565b604051808215151515815260200191505060405180910390f35b6110c96004803603602081101561106857600080fd5b810190808035906020019064010000000081111561108557600080fd5b82018360208201111561109757600080fd5b803590602001918460208302840111640100000000831117156110b957600080fd5b9091929391929390505050612a1e565b6040518082815260200191505060405180910390f35b611121600480360360208110156110f557600080fd5b81019080803573ffffffffffffffffffffffffffffffffffffffff169060200190929190505050612a3c565b005b61114f6004803603602081101561113957600080fd5b8101908080359060200190929190505050612a97565b005b61117d6004803603602081101561116757600080fd5b8101908080359060200190929190505050612aa1565b005b6111ab6004803603602081101561119557600080fd5b8101908080359060200190929190505050612b0f565b604051808215151515815260200191505060405180910390f35b611211600480360360408110156111db57600080fd5b81019080803573ffffffffffffffffffffffffffffffffffffffff16906020019092919080359060200190929190505050612b7f565b6040518080602001828103825283818151815260200191508051906020019060200280838360005b83811015611254578082015181840152602081019050611239565b505050509050019250505060405180910390f35b6112946004803603602081101561127e57600080fd5b8101908080359060200190929190505050612cf3565b6040518082815260200191505060405180910390f35b61132c600480360360608110156112c057600080fd5b81019080803573ffffffffffffffffffffffffffffffffffffffff169060200190929190803573ffffffffffffffffffffffffffffffffffffffff169060200190929190803573ffffffffffffffffffffffffffffffffffffffff169060200190929190505050612d63565b604051808215151515815260200191505060405180910390f35b6113886004803603602081101561135c57600080fd5b81019080803573ffffffffffffffffffffffffffffffffffffffff169060200190929190505050612dd3565b60405180806020018881526020018781526020018681526020018060200185815260200184815260200183810383528a818151815260200191508051906020019060200280838360005b838110156113ed5780820151818401526020810190506113d2565b50505050905001838103825286818151815260200191508051906020019060200280838360005b8381101561142f578082015181840152602081019050611414565b50505050905001995050505050505050505060405180910390f35b6114766004803603602081101561146057600080fd5b8101908080359060200190929190505050612f15565b005b6114ba6004803603602081101561148e57600080fd5b81019080803573ffffffffffffffffffffffffffffffffffffffff169060200190929190505050612f83565b604051808215151515815260200191505060405180910390f35b6114dc61300c565b6040518082815260200191505060405180910390f35b6115346004803603602081101561150857600080fd5b81019080803573ffffffffffffffffffffffffffffffffffffffff16906020019092919050505061307c565b6040518080602001828103825283818151815260200191508051906020019080838360005b83811015611574578082015181840152602081019050611559565b50505050905090810190601f1680156115a15780820380516001836020036101000a031916815260200191505b509250505060405180910390f35b6115b76130ec565b005b6115c161315a565b6040518082815260200191505060405180910390f35b611619600480360360208110156115ed57600080fd5b81019080803573ffffffffffffffffffffffffffffffffffffffff1690602001909291905050506131ca565b604051808273ffffffffffffffffffffffffffffffffffffffff1673ffffffffffffffffffffffffffffffffffffffff16815260200191505060405180910390f35b6117276004803603604081101561167157600080fd5b810190808035906020019064010000000081111561168e57600080fd5b8201836020820111156116a057600080fd5b803590602001918460018302840111640100000000831117156116c257600080fd5b9091929391929390803590602001906401000000008111156116e357600080fd5b8201836020820111156116f557600080fd5b8035906020019184600183028401116401000000008311171561171757600080fd5b9091929391929390505050613233565b604051808215151515815260200191505060405180910390f35b61178d6004803603604081101561175757600080fd5b81019080803573ffffffffffffffffffffffffffffffffffffffff169060200190929190803590602001909291905050506132a3565b005b6117db600480360360408110156117a557600080fd5b81019080803573ffffffffffffffffffffffffffffffffffffffff169060200190929190803590602001909291905050506132eb565b005b6117e5613359565b604051808381526020018281526020019250505060405180910390f35b6118446004803603602081101561181857600080fd5b81019080803573ffffffffffffffffffffffffffffffffffffffff1690602001909291905050506133ca565b005b6118886004803603602081101561185c57600080fd5b81019080803573ffffffffffffffffffffffffffffffffffffffff169060200190929190505050613430565b604051808215151515815260200191505060405180910390f35b6118e4600480360360208110156118b857600080fd5b81019080803573ffffffffffffffffffffffffffffffffffffffff169060200190929190505050613487565b604051808215151515815260200191505060405180910390f35b6119756004803603602081101561191457600080fd5b810190808035906020019064010000000081111561193157600080fd5b82018360208201111561194357600080fd5b8035906020019184600183028401116401000000008311171561196557600080fd5b90919293919293905050506134f7565b604051808215151515815260200191505060405180910390f35b6119c5600480360360408110156119a557600080fd5b810190808035906020019092919080359060200190929190505050613567565b604051808215151515815260200191505060405180910390f35b611a2b600480360360408110156119f557600080fd5b81019080803573ffffffffffffffffffffffffffffffffffffffff169060200190929190803590602001909291905050506135d7565b6040518082815260200191505060405180910390f35b611a4961364f565b6040518080602001828103825283818151815260200191508051906020019060200280838360005b83811015611a8c578082015181840152602081019050611a71565b505050509050019250505060405180910390f35b611ae260048036036020811015611ab657600080fd5b81019080803573ffffffffffffffffffffffffffffffffffffffff1690602001909291905050506136bf565b6040518082815260200191505060405180910390f35b611b3a60048036036020811015611b0e57600080fd5b81019080803573ffffffffffffffffffffffffffffffffffffffff1690602001909291905050506136db565b6040518082815260200191505060405180910390f35b611b7c60048036036020811015611b6657600080fd5b8101908080359060200190929190505050613724565b604051808215151515815260200191505060405180910390f35b611bd860048036036020811015611bac57600080fd5b81019080803573ffffffffffffffffffffffffffffffffffffffff169060200190929190505050613794565b005b611c2660048036036040811015611bf057600080fd5b81019080803573ffffffffffffffffffffffffffffffffffffffff169060200190929190803590602001909291905050506137fa565b6040518080602001828103825283818151815260200191508051906020019060200280838360005b83811015611c69578082015181840152602081019050611c4e565b505050509050019250505060405180910390f35b611c8561380e565b005b611cb360048036036020811015611c9d57600080fd5b810190808035906020019092919050505061387c565b005b611dd660048036036060811015611ccb57600080fd5b8101908080359060200190640100000000811115611ce857600080fd5b820183602082011115611cfa57600080fd5b80359060200191846001830284011164010000000083111715611d1c57600080fd5b909192939192939080359060200190640100000000811115611d3d57600080fd5b820183602082011115611d4f57600080fd5b80359060200191846001830284011164010000000083111715611d7157600080fd5b909192939192939080359060200190640100000000811115611d9257600080fd5b820183602082011115611da457600080fd5b80359060200191846001830284011164010000000083111715611dc657600080fd5b909192939192939050505061389a565b604051808215151515815260200191505060405180910390f35b611e4660048036036060811015611e0657600080fd5b81019080803573ffffffffffffffffffffffffffffffffffffffff169060200190929190803590602001909291908035906020019092919050505061390a565b604051808273ffffffffffffffffffffffffffffffffffffffff1673ffffffffffffffffffffffffffffffffffffffff16815260200191505060405180910390f35b611eb460048036036020811015611e9e57600080fd5b8101908080359060200190929190505050613975565b604051808215151515815260200191505060405180910390f35b611efa60048036036020811015611ee457600080fd5b81019080803590602001909291905050506139e5565b604051808215151515815260200191505060405180910390f35b611fab60048036036040811015611f2a57600080fd5b81019080803573ffffffffffffffffffffffffffffffffffffffff16906020019092919080359060200190640100000000811115611f6757600080fd5b820183602082011115611f7957600080fd5b80359060200191846020830284011164010000000083111715611f9b57600080fd5b9091929391929390505050613a55565b005b611fef60048036036020811015611fc357600080fd5b81019080803573ffffffffffffffffffffffffffffffffffffffff169060200190929190505050613b6b565b604051808215151515815260200191505060405180910390f35b612011613b8b565b604051808215151515815260200191505060405180910390f35b60006040517f08c379a000000000000000000000000000000000000000000000000000000000815260040180806020018281038252601e8152602001807f4d6574686f64206e6f7420696d706c656d656e74656420696e206d6f636b000081525060200191505060405180910390fd5b6000600960008573ffffffffffffffffffffffffffffffffffffffff1673ffffffffffffffffffffffffffffffffffffffff1681526020019081526020016000205490509392505050565b60006040517f08c379a000000000000000000000000000000000000000000000000000000000815260040180806020018281038252601e8152602001807f4d6574686f64206e6f7420696d706c656d656e74656420696e206d6f636b000081525060200191505060405180910390fd5b60006040517f08c379a000000000000000000000000000000000000000000000000000000000815260040180806020018281038252601e8152602001807f4d6574686f64206e6f7420696d706c656d656e74656420696e206d6f636b000081525060200191505060405180910390fd5b60016000808373ffffffffffffffffffffffffffffffffffffffff1673ffffffffffffffffffffffffffffffffffffffff16815260200190815260200160002060006101000a81548160ff02191690831515021790555050565b60608060008060006040517f08c379a000000000000000000000000000000000000000000000000000000000815260040180806020018281038252601e8152602001807f4d6574686f64206e6f7420696d706c656d656e74656420696e206d6f636b000081525060200191505060405180910390fd5b6000806040517f08c379a000000000000000000000000000000000000000000000000000000000815260040180806020018281038252601e8152602001807f4d6574686f64206e6f7420696d706c656d656e74656420696e206d6f636b000081525060200191505060405180910390fd5b80600360008473ffffffffffffffffffffffffffffffffffffffff1673ffffffffffffffffffffffffffffffffffffffff168152602001908152602001600020819055505050565b80600760008473ffffffffffffffffffffffffffffffffffffffff1673ffffffffffffffffffffffffffffffffffffffff168152602001908152602001600020819055505050565b60006040517f08c379a000000000000000000000000000000000000000000000000000000000815260040180806020018281038252601e8152602001807f4d6574686f64206e6f7420696d706c656d656e74656420696e206d6f636b000081525060200191505060405180910390fd5b6060806000806040517f08c379a000000000000000000000000000000000000000000000000000000000815260040180806020018281038252601e8152602001807f4d6574686f64206e6f7420696d706c656d656e74656420696e206d6f636b000081525060200191505060405180910390fd5b6000600560008373ffffffffffffffffffffffffffffffffffffffff1673ffffffffffffffffffffffffffffffffffffffff168152602001908152602001600020805490509050919050565b600a5481565b60606040517f08c379a000000000000000000000000000000000000000000000000000000000815260040180806020018281038252601e8152602001807f4d6574686f64206e6f7420696d706c656d656e74656420696e206d6f636b000081525060200191505060405180910390fd5b600060019050949350505050565b6000600854905090565b60006040517f08c379a000000000000000000000000000000000000000000000000000000000815260040180806020018281038252601e8152602001807f4d6574686f64206e6f7420696d706c656d656e74656420696e206d6f636b000081525060200191505060405180910390fd5b60016020528060005260406000206000915054906101000a900460ff1681565b60006040517f08c379a000000000000000000000000000000000000000000000000000000000815260040180806020018281038252601e8152602001807f4d6574686f64206e6f7420696d706c656d656e74656420696e206d6f636b000081525060200191505060405180910390fd5b60006040517f08c379a000000000000000000000000000000000000000000000000000000000815260040180806020018281038252601e8152602001807f4d6574686f64206e6f7420696d706c656d656e74656420696e206d6f636b000081525060200191505060405180910390fd5b60006040517f08c379a000000000000000000000000000000000000000000000000000000000815260040180806020018281038252601e8152602001807f4d6574686f64206e6f7420696d706c656d656e74656420696e206d6f636b000081525060200191505060405180910390fd5b60018060008373ffffffffffffffffffffffffffffffffffffffff1673ffffffffffffffffffffffffffffffffffffffff16815260200190815260200160002060006101000a81548160ff02191690831515021790555050565b6040517f08c379a000000000000000000000000000000000000000000000000000000000815260040180806020018281038252601e8152602001807f4d6574686f64206e6f7420696d706c656d656e74656420696e206d6f636b000081525060200191505060405180910390fd5b6040517f08c379a000000000000000000000000000000000000000000000000000000000815260040180806020018281038252601e8152602001807f4d6574686f64206e6f7420696d706c656d656e74656420696e206d6f636b000081525060200191505060405180910390fd5b6000806040517f08c379a000000000000000000000000000000000000000000000000000000000815260040180806020018281038252601e8152602001807f4d6574686f64206e6f7420696d706c656d656e74656420696e206d6f636b000081525060200191505060405180910390fd5b606080838390506040519080825280602002602001820160405280156129115781602001602082028038833980820191505090505b50905060008090505b848490508110156129895761295685858381811061293457fe5b9050602002013573ffffffffffffffffffffffffffffffffffffffff1661247b565b82828151811061296257fe5b602002602001018181525050612982600182613bfb90919063ffffffff16565b905061291a565b508091505092915050565b600061299e613c83565b6001905098975050505050505050565b60006040517f08c379a000000000000000000000000000000000000000000000000000000000815260040180806020018281038252601e8152602001807f4d6574686f64206e6f7420696d706c656d656e74656420696e206d6f636b000081525060200191505060405180910390fd5b600082826000818110612a2d57fe5b90506020020135905092915050565b6001600460008373ffffffffffffffffffffffffffffffffffffffff1673ffffffffffffffffffffffffffffffffffffffff16815260200190815260200160002060006101000a81548160ff02191690831515021790555050565b8060088190555050565b6040517f08c379a000000000000000000000000000000000000000000000000000000000815260040180806020018281038252601e8152602001807f4d6574686f64206e6f7420696d706c656d656e74656420696e206d6f636b000081525060200191505060405180910390fd5b60006040517f08c379a000000000000000000000000000000000000000000000000000000000815260040180806020018281038252601e8152602001807f4d6574686f64206e6f7420696d706c656d656e74656420696e206d6f636b000081525060200191505060405180910390fd5b6060600560008473ffffffffffffffffffffffffffffffffffffffff1673ffffffffffffffffffffffffffffffffffffffff16815260200190815260200160002080549050821115612bd057600080fd5b606082604051908082528060200260200182016040528015612c015781602001602082028038833980820191505090505b50905060008090505b83811015612ce857600560008673ffffffffffffffffffffffffffffffffffffffff1673ffffffffffffffffffffffffffffffffffffffff1681526020019081526020016000208181548110612c5c57fe5b9060005260206000200160009054906101000a900473ffffffffffffffffffffffffffffffffffffffff16828281518110612c9357fe5b602002602001019073ffffffffffffffffffffffffffffffffffffffff16908173ffffffffffffffffffffffffffffffffffffffff1681525050612ce1600182613bfb90919063ffffffff16565b9050612c0a565b508091505092915050565b60006040517f08c379a000000000000000000000000000000000000000000000000000000000815260040180806020018281038252601e8152602001807f4d6574686f64206e6f7420696d706c656d656e74656420696e206d6f636b000081525060200191505060405180910390fd5b60006040517f08c379a000000000000000000000000000000000000000000000000000000000815260040180806020018281038252601e8152602001807f4d6574686f64206e6f7420696d706c656d656e74656420696e206d6f636b000081525060200191505060405180910390fd5b6060600080600060606000806060600560008a73ffffffffffffffffffffffffffffffffffffffff1673ffffffffffffffffffffffffffffffffffffffff168152602001908152602001600020600760008b73ffffffffffffffffffffffffffffffffffffffff1673ffffffffffffffffffffffffffffffffffffffff168152602001908152602001600020546000808460008086805480602002602001604051908101604052809291908181526020018280548015612ee857602002820191906000526020600020905b8160009054906101000a900473ffffffffffffffffffffffffffffffffffffffff1673ffffffffffffffffffffffffffffffffffffffff1681526020019060010190808311612e9e575b50505050509650849450839350819150809050975097509750975097509750975050919395979092949650565b6040517f08c379a000000000000000000000000000000000000000000000000000000000815260040180806020018281038252601e8152602001807f4d6574686f64206e6f7420696d706c656d656e74656420696e206d6f636b000081525060200191505060405180910390fd5b600081600660003373ffffffffffffffffffffffffffffffffffffffff1673ffffffffffffffffffffffffffffffffffffffff16815260200190815260200160002060006101000a81548173ffffffffffffffffffffffffffffffffffffffff021916908373ffffffffffffffffffffffffffffffffffffffff16021790555060019050919050565b60006040517f08c379a000000000000000000000000000000000000000000000000000000000815260040180806020018281038252601e8152602001807f4d6574686f64206e6f7420696d706c656d656e74656420696e206d6f636b000081525060200191505060405180910390fd5b60606040517f08c379a000000000000000000000000000000000000000000000000000000000815260040180806020018281038252601e8152602001807f4d6574686f64206e6f7420696d706c656d656e74656420696e206d6f636b000081525060200191505060405180910390fd5b6040517f08c379a000000000000000000000000000000000000000000000000000000000815260040180806020018281038252601e8152602001807f4d6574686f64206e6f7420696d706c656d656e74656420696e206d6f636b000081525060200191505060405180910390fd5b60006040517f08c379a000000000000000000000000000000000000000000000000000000000815260040180806020018281038252601e8152602001807f4d6574686f64206e6f7420696d706c656d656e74656420696e206d6f636b000081525060200191505060405180910390fd5b6000600660008373ffffffffffffffffffffffffffffffffffffffff1673ffffffffffffffffffffffffffffffffffffffff16815260200190815260200160002060009054906101000a900473ffffffffffffffffffffffffffffffffffffffff169050919050565b60006040517f08c379a000000000000000000000000000000000000000000000000000000000815260040180806020018281038252601e8152602001807f4d6574686f64206e6f7420696d706c656d656e74656420696e206d6f636b000081525060200191505060405180910390fd5b80600960008473ffffffffffffffffffffffffffffffffffffffff1673ffffffffffffffffffffffffffffffffffffffff168152602001908152602001600020819055505050565b6040517f08c379a000000000000000000000000000000000000000000000000000000000815260040180806020018281038252601e8152602001807f4d6574686f64206e6f7420696d706c656d656e74656420696e206d6f636b000081525060200191505060405180910390fd5b6000806040517f08c379a000000000000000000000000000000000000000000000000000000000815260040180806020018281038252601e8152602001807f4d6574686f64206e6f7420696d706c656d656e74656420696e206d6f636b000081525060200191505060405180910390fd5b7f09c76c84ca93a9f5fabc074e1939ca50f128b97720eb29471ef03e111e8e34f581604051808273ffffffffffffffffffffffffffffffffffffffff1673ffffffffffffffffffffffffffffffffffffffff16815260200191505060405180910390a150565b6000600460008373ffffffffffffffffffffffffffffffffffffffff1673ffffffffffffffffffffffffffffffffffffffff16815260200190815260200160002060009054906101000a900460ff16159050919050565b60006040517f08c379a000000000000000000000000000000000000000000000000000000000815260040180806020018281038252601e8152602001807f4d6574686f64206e6f7420696d706c656d656e74656420696e206d6f636b000081525060200191505060405180910390fd5b60006040517f08c379a000000000000000000000000000000000000000000000000000000000815260040180806020018281038252601e8152602001807f4d6574686f64206e6f7420696d706c656d656e74656420696e206d6f636b000081525060200191505060405180910390fd5b60006040517f08c379a000000000000000000000000000000000000000000000000000000000815260040180806020018281038252601e8152602001807f4d6574686f64206e6f7420696d706c656d656e74656420696e206d6f636b000081525060200191505060405180910390fd5b60006135e1613c83565b6040517f08c379a000000000000000000000000000000000000000000000000000000000815260040180806020018281038252601e8152602001807f4d6574686f64206e6f7420696d706c656d656e74656420696e206d6f636b000081525060200191505060405180910390fd5b60606040517f08c379a000000000000000000000000000000000000000000000000000000000815260040180806020018281038252601e8152602001807f4d6574686f64206e6f7420696d706c656d656e74656420696e206d6f636b000081525060200191505060405180910390fd5b60006136c9613c83565b69d3c21bcecceda10000009050919050565b6000600360008373ffffffffffffffffffffffffffffffffffffffff1673ffffffffffffffffffffffffffffffffffffffff168152602001908152602001600020549050919050565b60006040517f08c379a000000000000000000000000000000000000000000000000000000000815260040180806020018281038252601e8152602001807f4d6574686f64206e6f7420696d706c656d656e74656420696e206d6f636b000081525060200191505060405180910390fd5b7f7b7128eb3a66ef389bcd2257f6cf50e67203fd33f8a0a2f4787c4aacd583409681604051808273ffffffffffffffffffffffffffffffffffffffff1673ffffffffffffffffffffffffffffffffffffffff16815260200191505060405180910390a150565b60606138068383612b7f565b905092915050565b6040517f08c379a000000000000000000000000000000000000000000000000000000000815260040180806020018281038252601e8152602001807f4d6574686f64206e6f7420696d706c656d656e74656420696e206d6f636b000081525060200191505060405180910390fd5b61389181600a54613bfb90919063ffffffff16565b600a8190555050565b60006040517f08c379a000000000000000000000000000000000000000000000000000000000815260040180806020018281038252601e8152602001807f4d6574686f64206e6f7420696d706c656d656e74656420696e206d6f636b000081525060200191505060405180910390fd5b6000600660008573ffffffffffffffffffffffffffffffffffffffff1673ffffffffffffffffffffffffffffffffffffffff16815260200190815260200160002060009054906101000a900473ffffffffffffffffffffffffffffffffffffffff1690509392505050565b60006040517f08c379a000000000000000000000000000000000000000000000000000000000815260040180806020018281038252601e8152602001807f4d6574686f64206e6f7420696d706c656d656e74656420696e206d6f636b000081525060200191505060405180910390fd5b60006040517f08c379a000000000000000000000000000000000000000000000000000000000815260040180806020018281038252601e8152602001807f4d6574686f64206e6f7420696d706c656d656e74656420696e206d6f636b000081525060200191505060405180910390fd5b8181600560008673ffffffffffffffffffffffffffffffffffffffff1673ffffffffffffffffffffffffffffffffffffffff1681526020019081526020016000209190613aa3929190613d14565b5060005b82829050811015613b65578360066000858585818110613ac357fe5b9050602002013573ffffffffffffffffffffffffffffffffffffffff1673ffffffffffffffffffffffffffffffffffffffff1673ffffffffffffffffffffffffffffffffffffffff16815260200190815260200160002060006101000a81548173ffffffffffffffffffffffffffffffffffffffff021916908373ffffffffffffffffffffffffffffffffffffffff1602179055508080600101915050613aa7565b50505050565b60006020528060005260406000206000915054906101000a900460ff1681565b60006040517f08c379a000000000000000000000000000000000000000000000000000000000815260040180806020018281038252601e8152602001807f4d6574686f64206e6f7420696d706c656d656e74656420696e206d6f636b000081525060200191505060405180910390fd5b600080828401905083811015613c79576040517f08c379a000000000000000000000000000000000000000000000000000000000815260040180806020018281038252601b8152602001807f536166654d6174683a206164646974696f6e206f766572666c6f77000000000081525060200191505060405180910390fd5b8091505092915050565b613c8b613ce3565b15613ce1576040517f08c379a0000000000000000000000000000000000000000000000000000000008152600401808060200182810382526029815260200180613df86029913960400191505060405180910390fd5b565b60008060007342000000000000000000000000000000000000189050803b915060008263ffffffff16119250505090565b828054828255906000526020600020908101928215613da3579160200282015b82811115613da257823573ffffffffffffffffffffffffffffffffffffffff168260006101000a81548173ffffffffffffffffffffffffffffffffffffffff021916908373ffffffffffffffffffffffffffffffffffffffff16021790555091602001919060010190613d34565b5b509050613db09190613db4565b5090565b613df491905b80821115613df057600081816101000a81549073ffffffffffffffffffffffffffffffffffffffff021916905550600101613dba565b5090565b9056fe54686973206d6574686f64206973206e6f206c6f6e67657220737570706f7274656420696e204c322ea265627a7a7231582081eb57e0b572c465772d3330544048801055531f760819d604fbcdbbe18caf6a64736f6c634300050d0032",
  "source": "pragma solidity ^0.5.13;\n\nimport \"openzeppelin-solidity/contracts/math/SafeMath.sol\";\n\nimport \"../interfaces/IValidators.sol\";\nimport \"../../../contracts-0.8/common/IsL2Check.sol\";\n\n// Mocks Validators, compatible with 0.5\n// For forge tests, can be avoided with calls to deployCodeTo\n\n/**\n * @title Holds a list of addresses of validators\n */\ncontract MockValidators is IValidators, IsL2Check {\n  using SafeMath for uint256;\n\n  event HavelSlashingMultiplierHalved(address validator);\n  event ValidatorDeaffiliatedCalled(address validator);\n\n  uint256 private constant FIXED1_UINT = 1000000000000000000000000;\n\n  mapping(address => bool) public isValidator;\n  mapping(address => bool) public isValidatorGroup;\n  mapping(address => uint256) private numGroupMembers;\n  mapping(address => uint256) private lockedGoldRequirements;\n  mapping(address => bool) private doesNotMeetAccountLockedGoldRequirements;\n  mapping(address => address[]) private members;\n  mapping(address => address) private affiliations;\n  mapping(address => uint256) private commissions;\n  uint256 private numRegisteredValidators;\n  mapping(address => uint256) private epochRewards;\n  uint256 public mintedStable;\n\n  function updateEcdsaPublicKey(address, address, bytes calldata) external returns (bool) {\n    return true;\n  }\n\n  function updatePublicKeys(\n    address,\n    address,\n    bytes calldata,\n    bytes calldata,\n    bytes calldata\n  ) external returns (bool) {\n    allowOnlyL1();\n    return true;\n  }\n\n  function setValidator(address account) external {\n    isValidator[account] = true;\n  }\n\n  function setValidatorGroup(address group) external {\n    isValidatorGroup[group] = true;\n  }\n\n  function affiliate(address group) external returns (bool) {\n    affiliations[msg.sender] = group;\n    return true;\n  }\n\n  function setDoesNotMeetAccountLockedGoldRequirements(address account) external {\n    doesNotMeetAccountLockedGoldRequirements[account] = true;\n  }\n\n  function setNumRegisteredValidators(uint256 value) external {\n    numRegisteredValidators = value;\n  }\n\n  function setMembers(address group, address[] calldata _members) external {\n    members[group] = _members;\n    for (uint256 i; i < _members.length; i++) {\n      affiliations[_members[i]] = group;\n    }\n  }\n\n  function setCommission(address group, uint256 commission) external {\n    commissions[group] = commission;\n  }\n\n  function setAccountLockedGoldRequirement(address account, uint256 value) external {\n    lockedGoldRequirements[account] = value;\n  }\n\n  function halveSlashingMultiplier(address validator) external {\n    emit HavelSlashingMultiplierHalved(validator);\n  }\n\n  function forceDeaffiliateIfValidator(address validator) external {\n    emit ValidatorDeaffiliatedCalled(validator);\n  }\n\n  function getValidatorsGroup(address validator) external view returns (address) {\n    return affiliations[validator];\n  }\n\n  function getTopGroupValidatorsAccounts(\n    address group,\n    uint256 n\n  ) external view returns (address[] memory) {\n    return getTopGroupValidators(group, n);\n  }\n\n  function getValidatorGroup(\n    address group\n  )\n    external\n    view\n    returns (address[] memory, uint256, uint256, uint256, uint256[] memory, uint256, uint256)\n  {\n    uint256[] memory sizeHistory;\n    return (members[group], commissions[group], 0, 0, sizeHistory, 0, 0);\n  }\n\n  function getValidatorGroupSlashingMultiplier(address) external view returns (uint256) {\n    allowOnlyL1();\n    return FIXED1_UINT;\n  }\n\n  function meetsAccountLockedGoldRequirements(address account) external view returns (bool) {\n    return !doesNotMeetAccountLockedGoldRequirements[account];\n  }\n\n  function getNumRegisteredValidators() external view returns (uint256) {\n    return numRegisteredValidators;\n  }\n\n  function getAccountLockedGoldRequirement(address account) external view returns (uint256) {\n    return lockedGoldRequirements[account];\n  }\n\n  function calculateGroupEpochScore(uint256[] calldata uptimes) external view returns (uint256) {\n    return uptimes[0];\n  }\n\n  function getGroupsNumMembers(address[] calldata groups) external view returns (uint256[] memory) {\n    uint256[] memory numMembers = new uint256[](groups.length);\n    for (uint256 i = 0; i < groups.length; i = i.add(1)) {\n      numMembers[i] = getGroupNumMembers(groups[i]);\n    }\n    return numMembers;\n  }\n\n  function groupMembershipInEpoch(address addr, uint256, uint256) external view returns (address) {\n    return affiliations[addr];\n  }\n\n  function getGroupNumMembers(address group) public view returns (uint256) {\n    return members[group].length;\n  }\n\n  function getTopGroupValidators(address group, uint256 n) public view returns (address[] memory) {\n    require(n <= members[group].length);\n    address[] memory validators = new address[](n);\n    for (uint256 i = 0; i < n; i = i.add(1)) {\n      validators[i] = members[group][i];\n    }\n    return validators;\n  }\n\n  // Not implemented in mock, added here to support the interface\n  // without the interface, missing function erros get hard to debug\n\n  function addFirstMember(address, address, address) external returns (bool) {\n    revert(\"Method not implemented in mock\");\n  }\n\n  function registerValidatorGroup(uint256) external returns (bool) {\n    revert(\"Method not implemented in mock\");\n  }\n\n  function registerValidatorNoBls(bytes calldata) external returns (bool) {\n    revert(\"Method not implemented in mock\");\n  }\n  function removeMember(address) external returns (bool) {\n    revert(\"Method not implemented in mock\");\n  }\n  function setGroupLockedGoldRequirements(uint256, uint256) external returns (bool) {\n    revert(\"Method not implemented in mock\");\n  }\n  function setMembershipHistoryLength(uint256) external returns (bool) {\n    revert(\"Method not implemented in mock\");\n  }\n  function setNextCommissionUpdate(uint256) external {\n    revert(\"Method not implemented in mock\");\n  }\n  function setSlashingMultiplierResetPeriod(uint256) external {\n    revert(\"Method not implemented in mock\");\n  }\n\n  function updateCommission() external {\n    revert(\"Method not implemented in mock\");\n  }\n\n  function updateBlsPublicKey(bytes calldata, bytes calldata) external returns (bool) {\n    revert(\"Method not implemented in mock\");\n  }\n\n  function setValidatorScoreParameters(uint256, uint256) external returns (bool) {\n    revert(\"Method not implemented in mock\");\n  }\n\n  function setValidatorLockedGoldRequirements(uint256, uint256) external returns (bool) {\n    revert(\"Method not implemented in mock\");\n  }\n\n  function setMaxGroupSize(uint256) external returns (bool) {\n    revert(\"Method not implemented in mock\");\n  }\n\n  function setDowntimeGracePeriod(uint256) external {\n    revert(\"Method not implemented in mock\");\n  }\n\n  function setCommissionUpdateDelay(uint256) external {\n    revert(\"Method not implemented in mock\");\n  }\n\n  function resetSlashingMultiplier() external {\n    revert(\"Method not implemented in mock\");\n  }\n\n  function reorderMember(address, address, address) external returns (bool) {\n    revert(\"Method not implemented in mock\");\n  }\n\n  function updateValidatorScoreFromSigner(address, uint256) external {\n    revert(\"Method not implemented in mock\");\n  }\n\n  function mintStableToEpochManager(uint256 amount) external {\n    mintedStable = mintedStable.add(amount);\n  }\n\n  function maxGroupSize() external view returns (uint256) {\n    revert(\"Method not implemented in mock\");\n  }\n\n  function getValidatorScoreParameters() external view returns (uint256, uint256) {\n    revert(\"Method not implemented in mock\");\n  }\n\n  function getValidatorLockedGoldRequirements() external view returns (uint256, uint256) {\n    revert(\"Method not implemented in mock\");\n  }\n\n  function getValidatorBlsPublicKeyFromSigner(address) external view returns (bytes memory) {\n    revert(\"Method not implemented in mock\");\n  }\n\n  function getRegisteredValidators() external view returns (address[] memory) {\n    revert(\"Method not implemented in mock\");\n  }\n\n  function getRegisteredValidatorGroups() external view returns (address[] memory) {\n    revert(\"Method not implemented in mock\");\n  }\n\n  function getMembershipInLastEpochFromSigner(address) external view returns (address) {\n    revert(\"Method not implemented in mock\");\n  }\n\n  function getMembershipInLastEpoch(address) external view returns (address) {\n    revert(\"Method not implemented in mock\");\n  }\n\n  function getMembershipHistoryLength() external view returns (uint256) {\n    revert(\"Method not implemented in mock\");\n  }\n\n  function addMember(address) external returns (bool) {\n    revert(\"Method not implemented in mock\");\n  }\n\n  function calculateEpochScore(uint256) external view returns (uint256) {\n    revert(\"Method not implemented in mock\");\n  }\n\n  function deaffiliate() external returns (bool) {\n    revert(\"Method not implemented in mock\");\n  }\n\n  function deregisterValidator(uint256) external returns (bool) {\n    revert(\"Method not implemented in mock\");\n  }\n\n  function deregisterValidatorGroup(uint256) external returns (bool) {\n    revert(\"Method not implemented in mock\");\n  }\n\n  function distributeEpochPaymentsFromSigner(address, uint256) external onlyL1 returns (uint256) {\n    revert(\"Method not implemented in mock\");\n  }\n\n  function downtimeGracePeriod() external view returns (uint256) {\n    revert(\"Method not implemented in mock\");\n  }\n\n  function getCommissionUpdateDelay() external view returns (uint256) {\n    revert(\"Method not implemented in mock\");\n  }\n\n  function getGroupLockedGoldRequirements() external view returns (uint256, uint256) {\n    revert(\"Method not implemented in mock\");\n  }\n\n  function computeEpochReward(address account, uint256, uint256) external view returns (uint256) {\n    return epochRewards[account];\n  }\n\n  function setEpochRewards(address account, uint256 reward) external {\n    epochRewards[account] = reward;\n  }\n\n  function registerValidator(\n    bytes calldata,\n    bytes calldata,\n    bytes calldata\n  ) external returns (bool) {\n    revert(\"Method not implemented in mock\");\n  }\n\n  function getMembershipHistory(\n    address\n  ) external view returns (uint256[] memory, address[] memory, uint256, uint256) {\n    revert(\"Method not implemented in mock\");\n  }\n\n  function getValidator(\n    address\n  ) external view returns (bytes memory, bytes memory, address, uint256, address) {\n    revert(\"Method not implemented in mock\");\n  }\n}\n",
  "sourcePath": "/Users/beaver/Development/temp/celo-monorepo/packages/protocol/contracts/governance/test/MockValidators.sol",
  "compiler": {
    "name": "solc",
    "version": "0.5.13+commit.5b0b510c.Emscripten.clang"
  },
  "schemaVersion": "3.4.13",
  "updatedAt": "2025-05-05T17:49:51.473Z",
  "devdoc": {
    "methods": {},
    "title": "Holds a list of addresses of validators"
  },
  "userdoc": {
    "methods": {}
  }
}