{
  "contractName": "PrecompilesOverride",
  "abi": [
    {
      "anonymous": false,
      "inputs": [
        {
          "indexed": true,
          "internalType": "address",
          "name": "previousOwner",
          "type": "address"
        },
        {
          "indexed": true,
          "internalType": "address",
          "name": "newOwner",
          "type": "address"
        }
      ],
      "name": "OwnershipTransferred",
      "type": "event"
    },
    {
      "anonymous": false,
      "inputs": [
        {
          "indexed": true,
          "internalType": "address",
          "name": "registryAddress",
          "type": "address"
        }
      ],
      "name": "RegistrySet",
      "type": "event"
    },
    {
      "constant": true,
      "inputs": [
        {
          "internalType": "address",
          "name": "sender",
          "type": "address"
        },
        {
          "internalType": "bytes",
          "name": "blsKey",
          "type": "bytes"
        },
        {
          "internalType": "bytes",
          "name": "blsPop",
          "type": "bytes"
        }
      ],
      "name": "checkProofOfPossession",
      "outputs": [
        {
          "internalType": "bool",
          "name": "",
          "type": "bool"
        }
      ],
      "payable": false,
      "stateMutability": "view",
      "type": "function"
    },
    {
      "constant": true,
      "inputs": [
        {
          "internalType": "uint256",
          "name": "aNumerator",
          "type": "uint256"
        },
        {
          "internalType": "uint256",
          "name": "aDenominator",
          "type": "uint256"
        },
        {
          "internalType": "uint256",
          "name": "bNumerator",
          "type": "uint256"
        },
        {
          "internalType": "uint256",
          "name": "bDenominator",
          "type": "uint256"
        },
        {
          "internalType": "uint256",
          "name": "exponent",
          "type": "uint256"
        },
        {
          "internalType": "uint256",
          "name": "_decimals",
          "type": "uint256"
        }
      ],
      "name": "fractionMulExp",
      "outputs": [
        {
          "internalType": "uint256",
          "name": "",
          "type": "uint256"
        },
        {
          "internalType": "uint256",
          "name": "",
          "type": "uint256"
        }
      ],
      "payable": false,
      "stateMutability": "view",
      "type": "function"
    },
    {
      "constant": true,
      "inputs": [
        {
          "internalType": "bytes",
          "name": "header",
          "type": "bytes"
        }
      ],
      "name": "getBlockNumberFromHeader",
      "outputs": [
        {
          "internalType": "uint256",
          "name": "",
          "type": "uint256"
        }
      ],
      "payable": false,
      "stateMutability": "view",
      "type": "function"
    },
    {
      "constant": true,
      "inputs": [],
      "name": "getEpochSize",
      "outputs": [
        {
          "internalType": "uint256",
          "name": "",
          "type": "uint256"
        }
      ],
      "payable": false,
      "stateMutability": "view",
      "type": "function"
    },
    {
      "constant": true,
      "inputs": [
        {
          "internalType": "uint256",
          "name": "blockNumber",
          "type": "uint256"
        }
      ],
      "name": "getParentSealBitmap",
      "outputs": [
        {
          "internalType": "bytes32",
          "name": "",
          "type": "bytes32"
        }
      ],
      "payable": false,
      "stateMutability": "view",
      "type": "function"
    },
    {
      "constant": true,
      "inputs": [
        {
          "internalType": "bytes",
          "name": "header",
          "type": "bytes"
        }
      ],
      "name": "getVerifiedSealBitmapFromHeader",
      "outputs": [
        {
          "internalType": "bytes32",
          "name": "",
          "type": "bytes32"
        }
      ],
      "payable": false,
      "stateMutability": "view",
      "type": "function"
    },
    {
      "constant": true,
      "inputs": [
        {
          "internalType": "bytes",
          "name": "header",
          "type": "bytes"
        }
      ],
      "name": "hashHeader",
      "outputs": [
        {
          "internalType": "bytes32",
          "name": "",
          "type": "bytes32"
        }
      ],
      "payable": false,
      "stateMutability": "view",
      "type": "function"
    },
    {
      "constant": true,
      "inputs": [],
      "name": "isOwner",
      "outputs": [
        {
          "internalType": "bool",
          "name": "",
          "type": "bool"
        }
      ],
      "payable": false,
      "stateMutability": "view",
      "type": "function"
    },
    {
      "constant": true,
      "inputs": [
        {
          "internalType": "uint256",
          "name": "blockNumber",
          "type": "uint256"
        }
      ],
      "name": "minQuorumSize",
      "outputs": [
        {
          "internalType": "uint256",
          "name": "",
          "type": "uint256"
        }
      ],
      "payable": false,
      "stateMutability": "view",
      "type": "function"
    },
    {
      "constant": true,
      "inputs": [],
      "name": "minQuorumSizeInCurrentSet",
      "outputs": [
        {
          "internalType": "uint256",
          "name": "",
          "type": "uint256"
        }
      ],
      "payable": false,
      "stateMutability": "view",
      "type": "function"
    },
    {
      "constant": true,
      "inputs": [
        {
          "internalType": "uint256",
          "name": "blockNumber",
          "type": "uint256"
        }
      ],
      "name": "numberValidatorsInSet",
      "outputs": [
        {
          "internalType": "uint256",
          "name": "",
          "type": "uint256"
        }
      ],
      "payable": false,
      "stateMutability": "view",
      "type": "function"
    },
    {
      "constant": true,
      "inputs": [],
      "name": "owner",
      "outputs": [
        {
          "internalType": "address",
          "name": "",
          "type": "address"
        }
      ],
      "payable": false,
      "stateMutability": "view",
      "type": "function"
    },
    {
      "constant": true,
      "inputs": [],
      "name": "registry",
      "outputs": [
        {
          "internalType": "contract IRegistry",
          "name": "",
          "type": "address"
        }
      ],
      "payable": false,
      "stateMutability": "view",
      "type": "function"
    },
    {
      "constant": false,
      "inputs": [],
      "name": "renounceOwnership",
      "outputs": [],
      "payable": false,
      "stateMutability": "nonpayable",
      "type": "function"
    },
    {
      "constant": false,
      "inputs": [
        {
          "internalType": "address",
          "name": "registryAddress",
          "type": "address"
        }
      ],
      "name": "setRegistry",
      "outputs": [],
      "payable": false,
      "stateMutability": "nonpayable",
      "type": "function"
    },
    {
      "constant": false,
      "inputs": [
        {
          "internalType": "address",
          "name": "newOwner",
          "type": "address"
        }
      ],
      "name": "transferOwnership",
      "outputs": [],
      "payable": false,
      "stateMutability": "nonpayable",
      "type": "function"
    },
    {
      "constant": true,
      "inputs": [
        {
          "internalType": "uint256",
          "name": "index",
          "type": "uint256"
        },
        {
          "internalType": "uint256",
          "name": "blockNumber",
          "type": "uint256"
        }
      ],
      "name": "validatorSignerAddressFromSet",
      "outputs": [
        {
          "internalType": "address",
          "name": "",
          "type": "address"
        }
      ],
      "payable": false,
      "stateMutability": "view",
      "type": "function"
    },
    {
      "constant": true,
      "inputs": [
        {
          "internalType": "uint256",
          "name": "blockNumber",
          "type": "uint256"
        }
      ],
      "name": "getEpochNumberOfBlock",
      "outputs": [
        {
          "internalType": "uint256",
          "name": "",
          "type": "uint256"
        }
      ],
      "payable": false,
      "stateMutability": "view",
      "type": "function"
    },
    {
      "constant": true,
      "inputs": [],
      "name": "getEpochNumber",
      "outputs": [
        {
          "internalType": "uint256",
          "name": "",
          "type": "uint256"
        }
      ],
      "payable": false,
      "stateMutability": "view",
      "type": "function"
    },
    {
      "constant": true,
      "inputs": [
        {
          "internalType": "uint256",
          "name": "index",
          "type": "uint256"
        }
      ],
      "name": "validatorSignerAddressFromCurrentSet",
      "outputs": [
        {
          "internalType": "address",
          "name": "",
          "type": "address"
        }
      ],
      "payable": false,
      "stateMutability": "view",
      "type": "function"
    },
    {
      "constant": true,
      "inputs": [
        {
          "internalType": "uint256",
          "name": "index",
          "type": "uint256"
        }
      ],
      "name": "validatorAddressFromCurrentSet",
      "outputs": [
        {
          "internalType": "address",
          "name": "",
          "type": "address"
        }
      ],
      "payable": false,
      "stateMutability": "view",
      "type": "function"
    },
    {
      "constant": true,
      "inputs": [],
      "name": "numberValidatorsInCurrentSet",
      "outputs": [
        {
          "internalType": "uint256",
          "name": "",
          "type": "uint256"
        }
      ],
      "payable": false,
      "stateMutability": "view",
      "type": "function"
    }
  ],
  "bytecode": "0x608060405260006100146100b760201b60201c565b9050806000806101000a81548173ffffffffffffffffffffffffffffffffffffffff021916908373ffffffffffffffffffffffffffffffffffffffff1602179055508073ffffffffffffffffffffffffffffffffffffffff16600073ffffffffffffffffffffffffffffffffffffffff167f8be0079c531659141344cd1fd0a4f28419497f9722a3daafe3b4186f6b6457e060405160405180910390a3506100bf565b600033905090565b612ac6806100ce6000396000f3fe608060405234801561001057600080fd5b50600436106101425760003560e01c80638a883626116100b8578063a91ee0dc1161007c578063a91ee0dc14610830578063df4da46114610874578063e50e652d14610892578063ec683072146108d4578063f2fde38b1461094f578063fae8db0a1461099357610142565b80638a883626146106955780638da5cb5b146107645780638f32d59b146107ae5780639a7b3be7146107d05780639b2b592f146107ee57610142565b80635d180adb1161010a5780635d180adb146104be57806367960e9114610536578063715018a6146106055780637385e5da1461060f5780637b1039991461062d57806387ee8a0f1461067757610142565b806311fb9e8414610147578063123633ea146101b557806323f0ab65146102235780633b1eb4bf146103ad5780634b2c2f44146103ef575b600080fd5b6101736004803603602081101561015d57600080fd5b81019080803590602001909291905050506109d5565b604051808273ffffffffffffffffffffffffffffffffffffffff1673ffffffffffffffffffffffffffffffffffffffff16815260200191505060405180910390f35b6101e1600480360360208110156101cb57600080fd5b8101908080359060200190929190505050610ace565b604051808273ffffffffffffffffffffffffffffffffffffffff1673ffffffffffffffffffffffffffffffffffffffff16815260200191505060405180910390f35b6103936004803603606081101561023957600080fd5b81019080803573ffffffffffffffffffffffffffffffffffffffff1690602001909291908035906020019064010000000081111561027657600080fd5b82018360208201111561028857600080fd5b803590602001918460018302840111640100000000831117156102aa57600080fd5b91908080601f016020809104026020016040519081016040528093929190818152602001838380828437600081840152601f19601f8201169050808301925050505050505091929192908035906020019064010000000081111561030d57600080fd5b82018360208201111561031f57600080fd5b8035906020019184600183028401116401000000008311171561034157600080fd5b91908080601f016020809104026020016040519081016040528093929190818152602001838380828437600081840152601f19601f820116905080830192505050505050509192919290505050610b88565b604051808215151515815260200191505060405180910390f35b6103d9600480360360208110156103c357600080fd5b8101908080359060200190929190505050610d4a565b6040518082815260200191505060405180910390f35b6104a86004803603602081101561040557600080fd5b810190808035906020019064010000000081111561042257600080fd5b82018360208201111561043457600080fd5b8035906020019184600183028401116401000000008311171561045657600080fd5b91908080601f016020809104026020016040519081016040528093929190818152602001838380828437600081840152601f19601f820116905080830192505050505050509192919290505050610e0c565b6040518082815260200191505060405180910390f35b6104f4600480360360408110156104d457600080fd5b810190808035906020019092919080359060200190929190505050610fa8565b604051808273ffffffffffffffffffffffffffffffffffffffff1673ffffffffffffffffffffffffffffffffffffffff16815260200191505060405180910390f35b6105ef6004803603602081101561054c57600080fd5b810190808035906020019064010000000081111561056957600080fd5b82018360208201111561057b57600080fd5b8035906020019184600183028401116401000000008311171561059d57600080fd5b91908080601f016020809104026020016040519081016040528093929190818152602001838380828437600081840152601f19601f820116905080830192505050505050509192919290505050611102565b6040518082815260200191505060405180910390f35b61060d61129e565b005b6106176113d7565b6040518082815260200191505060405180910390f35b6106356113ef565b604051808273ffffffffffffffffffffffffffffffffffffffff1673ffffffffffffffffffffffffffffffffffffffff16815260200191505060405180910390f35b61067f611415565b6040518082815260200191505060405180910390f35b61074e600480360360208110156106ab57600080fd5b81019080803590602001906401000000008111156106c857600080fd5b8201836020820111156106da57600080fd5b803590602001918460018302840111640100000000831117156106fc57600080fd5b91908080601f016020809104026020016040519081016040528093929190818152602001838380828437600081840152601f19601f8201169050808301925050505050505091929192905050506114c1565b6040518082815260200191505060405180910390f35b61076c61165d565b604051808273ffffffffffffffffffffffffffffffffffffffff1673ffffffffffffffffffffffffffffffffffffffff16815260200191505060405180910390f35b6107b6611686565b604051808215151515815260200191505060405180910390f35b6107d86116e4565b6040518082815260200191505060405180910390f35b61081a6004803603602081101561080457600080fd5b81019080803590602001909291905050506116f4565b6040518082815260200191505060405180910390f35b6108726004803603602081101561084657600080fd5b81019080803573ffffffffffffffffffffffffffffffffffffffff169060200190929190505050611845565b005b61087c6119e9565b6040518082815260200191505060405180910390f35b6108be600480360360208110156108a857600080fd5b8101908080359060200190929190505050611b40565b6040518082815260200191505060405180910390f35b610932600480360360c08110156108ea57600080fd5b81019080803590602001909291908035906020019092919080359060200190929190803590602001909291908035906020019092919080359060200190929190505050611b93565b604051808381526020018281526020019250505060405180910390f35b6109916004803603602081101561096557600080fd5b81019080803573ffffffffffffffffffffffffffffffffffffffff169060200190929190505050611daf565b005b6109bf600480360360208110156109a957600080fd5b8101908080359060200190929190505050611e35565b6040518082815260200191505060405180910390f35b60006109df611f86565b610a34576040517f08c379a0000000000000000000000000000000000000000000000000000000008152600401808060200182810382526023815260200180612a4c6023913960400191505060405180910390fd5b610a3c611fb7565b73ffffffffffffffffffffffffffffffffffffffff16638657f615836040518263ffffffff1660e01b81526004018082815260200191505060206040518083038186803b158015610a8c57600080fd5b505afa158015610aa0573d6000803e3d6000fd5b505050506040513d6020811015610ab657600080fd5b81019080805190602001909291905050509050919050565b6000610ad8611f86565b15610b7757610ae5611fb7565b73ffffffffffffffffffffffffffffffffffffffff16632ba47274836040518263ffffffff1660e01b81526004018082815260200191505060206040518083038186803b158015610b3557600080fd5b505afa158015610b49573d6000803e3d6000fd5b505050506040513d6020811015610b5f57600080fd5b81019080805190602001909291905050509050610b83565b610b80826120b2565b90505b919050565b6000610b9261220b565b600060fb73ffffffffffffffffffffffffffffffffffffffff16858585604051602001808473ffffffffffffffffffffffffffffffffffffffff1673ffffffffffffffffffffffffffffffffffffffff1660601b815260140183805190602001908083835b60208310610c1a5780518252602082019150602081019050602083039250610bf7565b6001836020036101000a03801982511681845116808217855250505050505090500182805190602001908083835b60208310610c6b5780518252602082019150602081019050602083039250610c48565b6001836020036101000a03801982511681845116808217855250505050505090500193505050506040516020818303038152906040526040518082805190602001908083835b60208310610cd45780518252602082019150602081019050602083039250610cb1565b6001836020036101000a038019825116818451168082178552505050505050905001915050600060405180830381855afa9150503d8060008114610d34576040519150601f19603f3d011682016040523d82523d6000602084013e610d39565b606091505b505080915050809150509392505050565b6000610d54611f86565b15610df357610d61611fb7565b73ffffffffffffffffffffffffffffffffffffffff16633b1eb4bf836040518263ffffffff1660e01b81526004018082815260200191505060206040518083038186803b158015610db157600080fd5b505afa158015610dc5573d6000803e3d6000fd5b505050506040513d6020811015610ddb57600080fd5b81019080805190602001909291905050509050610e07565b610e0482610dff6119e9565b61226b565b90505b919050565b6000610e1661220b565b6060600060f473ffffffffffffffffffffffffffffffffffffffff16846040516020018082805190602001908083835b60208310610e695780518252602082019150602081019050602083039250610e46565b6001836020036101000a0380198251168184511680821785525050505050509050019150506040516020818303038152906040526040518082805190602001908083835b60208310610ed05780518252602082019150602081019050602083039250610ead565b6001836020036101000a038019825116818451168082178552505050505050905001915050600060405180830381855afa9150503d8060008114610f30576040519150601f19603f3d011682016040523d82523d6000602084013e610f35565b606091505b50809350819250505080610f94576040517f08c379a00000000000000000000000000000000000000000000000000000000081526004018080602001828103825260388152602001806128796038913960400191505060405180910390fd5b610f9f8260006122b3565b92505050919050565b6000610fb261220b565b6060600060fa73ffffffffffffffffffffffffffffffffffffffff16858560405160200180838152602001828152602001925050506040516020818303038152906040526040518082805190602001908083835b602083106110295780518252602082019150602081019050602083039250611006565b6001836020036101000a038019825116818451168082178552505050505050905001915050600060405180830381855afa9150503d8060008114611089576040519150601f19603f3d011682016040523d82523d6000602084013e61108e565b606091505b508093508192505050806110ed576040517f08c379a000000000000000000000000000000000000000000000000000000000815260040180806020018281038252603681526020018061294c6036913960400191505060405180910390fd5b6110f8826000612354565b9250505092915050565b600061110c61220b565b6060600060f673ffffffffffffffffffffffffffffffffffffffff16846040516020018082805190602001908083835b6020831061115f578051825260208201915060208101905060208303925061113c565b6001836020036101000a0380198251168184511680821785525050505050509050019150506040516020818303038152906040526040518082805190602001908083835b602083106111c657805182526020820191506020810190506020830392506111a3565b6001836020036101000a038019825116818451168082178552505050505050905001915050600060405180830381855afa9150503d8060008114611226576040519150601f19603f3d011682016040523d82523d6000602084013e61122b565b606091505b5080935081925050508061128a576040517f08c379a0000000000000000000000000000000000000000000000000000000008152600401808060200182810382526023815260200180612a6f6023913960400191505060405180910390fd5b6112958260006122b3565b92505050919050565b6112a6611686565b611318576040517f08c379a00000000000000000000000000000000000000000000000000000000081526004018080602001828103825260208152602001807f4f776e61626c653a2063616c6c6572206973206e6f7420746865206f776e657281525060200191505060405180910390fd5b600073ffffffffffffffffffffffffffffffffffffffff166000809054906101000a900473ffffffffffffffffffffffffffffffffffffffff1673ffffffffffffffffffffffffffffffffffffffff167f8be0079c531659141344cd1fd0a4f28419497f9722a3daafe3b4186f6b6457e060405160405180910390a360008060006101000a81548173ffffffffffffffffffffffffffffffffffffffff021916908373ffffffffffffffffffffffffffffffffffffffff160217905550565b60006113e161220b565b6113ea43611b40565b905090565b600160009054906101000a900473ffffffffffffffffffffffffffffffffffffffff1681565b600061141f611f86565b156114b35761142c611fb7565b73ffffffffffffffffffffffffffffffffffffffff1663639a84d36040518163ffffffff1660e01b815260040160206040518083038186803b15801561147157600080fd5b505afa158015611485573d6000803e3d6000fd5b505050506040513d602081101561149b57600080fd5b810190808051906020019092919050505090506114be565b6114bb61236b565b90505b90565b60006114cb61220b565b6060600060f773ffffffffffffffffffffffffffffffffffffffff16846040516020018082805190602001908083835b6020831061151e57805182526020820191506020810190506020830392506114fb565b6001836020036101000a0380198251168184511680821785525050505050509050019150506040516020818303038152906040526040518082805190602001908083835b602083106115855780518252602082019150602081019050602083039250611562565b6001836020036101000a038019825116818451168082178552505050505050905001915050600060405180830381855afa9150503d80600081146115e5576040519150601f19603f3d011682016040523d82523d6000602084013e6115ea565b606091505b50809350819250505080611649576040517f08c379a0000000000000000000000000000000000000000000000000000000008152600401808060200182810382526031815260200180612a1b6031913960400191505060405180910390fd5b611654826000612354565b92505050919050565b60008060009054906101000a900473ffffffffffffffffffffffffffffffffffffffff16905090565b60008060009054906101000a900473ffffffffffffffffffffffffffffffffffffffff1673ffffffffffffffffffffffffffffffffffffffff166116c86124ba565b73ffffffffffffffffffffffffffffffffffffffff1614905090565b60006116ef43610d4a565b905090565b60006116fe61220b565b6060600060f973ffffffffffffffffffffffffffffffffffffffff1684604051602001808281526020019150506040516020818303038152906040526040518082805190602001908083835b6020831061176d578051825260208201915060208101905060208303925061174a565b6001836020036101000a038019825116818451168082178552505050505050905001915050600060405180830381855afa9150503d80600081146117cd576040519150601f19603f3d011682016040523d82523d6000602084013e6117d2565b606091505b50809350819250505080611831576040517f08c379a000000000000000000000000000000000000000000000000000000000815260040180806020018281038252602e815260200180612825602e913960400191505060405180910390fd5b61183c826000612354565b92505050919050565b61184d611686565b6118bf576040517f08c379a00000000000000000000000000000000000000000000000000000000081526004018080602001828103825260208152602001807f4f776e61626c653a2063616c6c6572206973206e6f7420746865206f776e657281525060200191505060405180910390fd5b600073ffffffffffffffffffffffffffffffffffffffff168173ffffffffffffffffffffffffffffffffffffffff161415611962576040517f08c379a00000000000000000000000000000000000000000000000000000000081526004018080602001828103825260208152602001807f43616e6e6f7420726567697374657220746865206e756c6c206164647265737381525060200191505060405180910390fd5b80600160006101000a81548173ffffffffffffffffffffffffffffffffffffffff021916908373ffffffffffffffffffffffffffffffffffffffff1602179055508073ffffffffffffffffffffffffffffffffffffffff167f27fe5f0c1c3b1ed427cc63d0f05759ffdecf9aec9e18d31ef366fc8a6cb5dc3b60405160405180910390a250565b60006119f361220b565b6060600060f873ffffffffffffffffffffffffffffffffffffffff16600160405160200180821515151560f81b81526001019150506040516020818303038152906040526040518082805190602001908083835b60208310611a6a5780518252602082019150602081019050602083039250611a47565b6001836020036101000a038019825116818451168082178552505050505050905001915050600060405180830381855afa9150503d8060008114611aca576040519150601f19603f3d011682016040523d82523d6000602084013e611acf565b606091505b50809350819250505080611b2e576040517f08c379a00000000000000000000000000000000000000000000000000000000081526004018080602001828103825260258152602001806129ca6025913960400191505060405180910390fd5b611b39826000612354565b9250505090565b6000611b4a61220b565b611b8c6003611b7e6002611b706002611b62886116f4565b6124c290919063ffffffff16565b61254890919063ffffffff16565b6125d090919063ffffffff16565b9050919050565b600080611b9e61220b565b60008714158015611bb0575060008514155b611c22576040517f08c379a00000000000000000000000000000000000000000000000000000000081526004018080602001828103825260158152602001807f612064656e6f6d696e61746f72206973207a65726f000000000000000000000081525060200191505060405180910390fd5b6000806000606060fc73ffffffffffffffffffffffffffffffffffffffff168c8c8c8c8c8c6040516020018087815260200186815260200185815260200184815260200183815260200182815260200196505050505050506040516020818303038152906040526040518082805190602001908083835b60208310611cbc5780518252602082019150602081019050602083039250611c99565b6001836020036101000a038019825116818451168082178552505050505050905001915050600060405180830381855afa9150503d8060008114611d1c576040519150601f19603f3d011682016040523d82523d6000602084013e611d21565b606091505b50809250819350505081611d80576040517f08c379a00000000000000000000000000000000000000000000000000000000081526004018080602001828103825260278152602001806129a36027913960400191505060405180910390fd5b611d8b816000612354565b9350611d98816020612354565b925083839550955050505050965096945050505050565b611db7611686565b611e29576040517f08c379a00000000000000000000000000000000000000000000000000000000081526004018080602001828103825260208152602001807f4f776e61626c653a2063616c6c6572206973206e6f7420746865206f776e657281525060200191505060405180910390fd5b611e328161261a565b50565b6000611e3f61220b565b6060600060f573ffffffffffffffffffffffffffffffffffffffff1684604051602001808281526020019150506040516020818303038152906040526040518082805190602001908083835b60208310611eae5780518252602082019150602081019050602083039250611e8b565b6001836020036101000a038019825116818451168082178552505050505050905001915050600060405180830381855afa9150503d8060008114611f0e576040519150601f19603f3d011682016040523d82523d6000602084013e611f13565b606091505b50809350819250505080611f72576040517f08c379a000000000000000000000000000000000000000000000000000000000815260040180806020018281038252602c8152602001806129ef602c913960400191505060405180910390fd5b611f7d8260006122b3565b92505050919050565b60008060007342000000000000000000000000000000000000189050803b915060008263ffffffff16119250505090565b6000600160009054906101000a900473ffffffffffffffffffffffffffffffffffffffff1673ffffffffffffffffffffffffffffffffffffffff1663dcf0aaed60405160200180807f45706f63684d616e616765720000000000000000000000000000000000000000815250600c019050604051602081830303815290604052805190602001206040518263ffffffff1660e01b81526004018082815260200191505060206040518083038186803b15801561207257600080fd5b505afa158015612086573d6000803e3d6000fd5b505050506040513d602081101561209c57600080fd5b8101908080519060200190929190505050905090565b60006120bc61220b565b6060600060fa73ffffffffffffffffffffffffffffffffffffffff16844360405160200180838152602001828152602001925050506040516020818303038152906040526040518082805190602001908083835b602083106121335780518252602082019150602081019050602083039250612110565b6001836020036101000a038019825116818451168082178552505050505050905001915050600060405180830381855afa9150503d8060008114612193576040519150601f19603f3d011682016040523d82523d6000602084013e612198565b606091505b508093508192505050806121f7576040517f08c379a000000000000000000000000000000000000000000000000000000000815260040180806020018281038252603d8152602001806128b1603d913960400191505060405180910390fd5b612202826000612354565b92505050919050565b612213611f86565b15612269576040517f08c379a00000000000000000000000000000000000000000000000000000000081526004018080602001828103825260298152602001806129236029913960400191505060405180910390fd5b565b60008082848161227757fe5b049050600083858161228557fe5b06141561229557809150506122ad565b6122a960018261254890919063ffffffff16565b9150505b92915050565b60006122c960208361254890919063ffffffff16565b8351101561233f576040517f08c379a00000000000000000000000000000000000000000000000000000000081526004018080602001828103825260148152602001807f736c6963696e67206f7574206f662072616e676500000000000000000000000081525060200191505060405180910390fd5b60006020830184015190508091505092915050565b600061236083836122b3565b60001c905092915050565b600061237561220b565b6060600060f973ffffffffffffffffffffffffffffffffffffffff1643604051602001808281526020019150506040516020818303038152906040526040518082805190602001908083835b602083106123e457805182526020820191506020810190506020830392506123c1565b6001836020036101000a038019825116818451168082178552505050505050905001915050600060405180830381855afa9150503d8060008114612444576040519150601f19603f3d011682016040523d82523d6000602084013e612449565b606091505b508093508192505050806124a8576040517f08c379a00000000000000000000000000000000000000000000000000000000081526004018080602001828103825260358152602001806128ee6035913960400191505060405180910390fd5b6124b3826000612354565b9250505090565b600033905090565b6000808314156124d55760009050612542565b60008284029050828482816124e657fe5b041461253d576040517f08c379a00000000000000000000000000000000000000000000000000000000081526004018080602001828103825260218152602001806129826021913960400191505060405180910390fd5b809150505b92915050565b6000808284019050838110156125c6576040517f08c379a000000000000000000000000000000000000000000000000000000000815260040180806020018281038252601b8152602001807f536166654d6174683a206164646974696f6e206f766572666c6f77000000000081525060200191505060405180910390fd5b8091505092915050565b600061261283836040518060400160405280601a81526020017f536166654d6174683a206469766973696f6e206279207a65726f00000000000081525061275e565b905092915050565b600073ffffffffffffffffffffffffffffffffffffffff168173ffffffffffffffffffffffffffffffffffffffff1614156126a0576040517f08c379a00000000000000000000000000000000000000000000000000000000081526004018080602001828103825260268152602001806128536026913960400191505060405180910390fd5b8073ffffffffffffffffffffffffffffffffffffffff166000809054906101000a900473ffffffffffffffffffffffffffffffffffffffff1673ffffffffffffffffffffffffffffffffffffffff167f8be0079c531659141344cd1fd0a4f28419497f9722a3daafe3b4186f6b6457e060405160405180910390a3806000806101000a81548173ffffffffffffffffffffffffffffffffffffffff021916908373ffffffffffffffffffffffffffffffffffffffff16021790555050565b6000808311829061280a576040517f08c379a00000000000000000000000000000000000000000000000000000000081526004018080602001828103825283818151815260200191508051906020019080838360005b838110156127cf5780820151818401526020810190506127b4565b50505050905090810190601f1680156127fc5780820380516001836020036101000a031916815260200191505b509250505060405180910390fd5b50600083858161281657fe5b04905080915050939250505056fe6572726f722063616c6c696e67206e756d62657256616c696461746f7273496e53657420707265636f6d70696c654f776e61626c653a206e6577206f776e657220697320746865207a65726f20616464726573736572726f722063616c6c696e672067657456657269666965645365616c4269746d617046726f6d48656164657220707265636f6d70696c656572726f722063616c6c696e672076616c696461746f725369676e65724164647265737346726f6d43757272656e7453657420707265636f6d70696c656572726f722063616c6c696e67206e756d62657256616c696461746f7273496e43757272656e7453657420707265636f6d70696c6554686973206d6574686f64206973206e6f206c6f6e67657220737570706f7274656420696e204c322e6572726f722063616c6c696e672076616c696461746f725369676e65724164647265737346726f6d53657420707265636f6d70696c65536166654d6174683a206d756c7469706c69636174696f6e206f766572666c6f776572726f722063616c6c696e67206672616374696f6e4d756c45787020707265636f6d70696c656572726f722063616c6c696e672067657445706f636853697a6520707265636f6d70696c656572726f722063616c6c696e6720676574506172656e745365616c4269746d617020707265636f6d70696c656572726f722063616c6c696e6720676574426c6f636b4e756d62657246726f6d48656164657220707265636f6d70696c6554686973206d6574686f64206973206e6f7420737570706f7274656420696e204c312e6572726f722063616c6c696e67206861736848656164657220707265636f6d70696c65a265627a7a72315820d0dadde003b1bf9c3fcf69e9462459d008ab7dd49d0fda6a2641cb5ef137398164736f6c634300050d0032",
  "source": "pragma solidity ^0.5.13;\n\nimport \"./interfaces/ICeloVersionedContract.sol\";\nimport \"../../contracts-0.8/common/IsL2Check.sol\";\nimport \"./UsingRegistry.sol\";\n\nimport \"./UsingPrecompiles.sol\";\n\n/**\n * @title PrecompilesOverride Contract\n * @notice This contract allows for a smoother transition from L1 to L2\n * by abstracting away the usingPrecompile contract, and taking care of the L1 to L2 switching logic.\n **/\ncontract PrecompilesOverride is UsingPrecompiles, UsingRegistry {\n  /**\n   * @notice Returns the epoch number at a block.\n   * @param blockNumber Block number where epoch number is calculated.\n   * @return Epoch number.\n   */\n  function getEpochNumberOfBlock(uint256 blockNumber) public view returns (uint256) {\n    if (isL2()) {\n      return getEpochManager().getEpochNumberOfBlock(blockNumber);\n    } else {\n      return epochNumberOfBlock(blockNumber, getEpochSize());\n    }\n  }\n\n  /**\n   * @notice Returns the epoch number at a block.\n   * @return Current epoch number.\n   */\n  function getEpochNumber() public view returns (uint256) {\n    return getEpochNumberOfBlock(block.number);\n  }\n\n  /**\n   * @notice Gets a validator signer address from the current validator set.\n   * @param index Index of requested validator in the validator set.\n   * @return Address of validator signer at the requested index.\n   */\n  function validatorSignerAddressFromCurrentSet(uint256 index) public view returns (address) {\n    if (isL2()) {\n      return getEpochManager().getElectedSignerByIndex(index);\n    } else {\n      return super.validatorSignerAddressFromCurrentSet(index);\n    }\n  }\n\n  /**\n   * @notice Gets a validator address from the current validator set.\n   * @param index Index of requested validator in the validator set.\n   * @return Address of validator at the requested index.\n   */\n  function validatorAddressFromCurrentSet(uint256 index) public view onlyL2 returns (address) {\n    return getEpochManager().getElectedAccountByIndex(index);\n  }\n\n  /**\n   * @notice Gets the size of the current elected validator set.\n   * @return Size of the current elected validator set.\n   */\n  function numberValidatorsInCurrentSet() public view returns (uint256) {\n    if (isL2()) {\n      return getEpochManager().numberOfElectedInCurrentSet();\n    } else {\n      return super.numberValidatorsInCurrentSet();\n    }\n  }\n}\n",
  "sourcePath": "/Users/beaver/Development/temp/celo-monorepo/packages/protocol/contracts/common/PrecompilesOverride.sol",
  "compiler": {
    "name": "solc",
    "version": "0.5.13+commit.5b0b510c.Emscripten.clang"
  },
  "schemaVersion": "3.4.13",
  "updatedAt": "2025-05-05T17:49:51.123Z",
  "devdoc": {
    "methods": {
      "checkProofOfPossession(address,bytes,bytes)": {
        "details": "This function will be deprecated in L2.",
        "params": {
          "blsKey": "The BLS public key that the validator is using for consensus, should pass proof  of possession. 48 bytes.",
          "blsPop": "The BLS public key proof-of-possession, which consists of a signature on the  account address. 96 bytes.",
          "sender": "The address signed by the BLS key to generate the proof of possession."
        },
        "return": "True upon success."
      },
      "fractionMulExp(uint256,uint256,uint256,uint256,uint256,uint256)": {
        "details": "This function will be deprecated in L2.",
        "params": {
          "_decimals": "precision",
          "aDenominator": "Denominator of first fraction",
          "aNumerator": "Numerator of first fraction",
          "bDenominator": "Denominator of exponentiated fraction",
          "bNumerator": "Numerator of exponentiated fraction",
          "exponent": "exponent to raise b to"
        },
        "return": "Numerator of the computed quantity (not reduced).Denominator of the computed quantity (not reduced)."
      },
      "getBlockNumberFromHeader(bytes)": {
        "details": "This function will be deprecated in L2.",
        "params": {
          "header": "RLP encoded header"
        },
        "return": "Block number."
      },
      "getEpochNumber()": {
        "return": "Current epoch number."
      },
      "getEpochNumberOfBlock(uint256)": {
        "params": {
          "blockNumber": "Block number where epoch number is calculated."
        },
        "return": "Epoch number."
      },
      "getEpochSize()": {
        "details": "This function will be deprecated in L2.",
        "return": "The current epoch size in blocks."
      },
      "getParentSealBitmap(uint256)": {
        "details": "This function will be deprecated in L2.",
        "params": {
          "blockNumber": "Block number to retrieve. Must be within 4 epochs of the current number."
        },
        "return": "Bitmap parent seal with set bits at indices corresponding to signing validators."
      },
      "getVerifiedSealBitmapFromHeader(bytes)": {
        "details": "This function will be deprecated in L2.",
        "params": {
          "header": "RLP encoded header"
        },
        "return": "Bitmap parent seal with set bits at indices correspoinding to signing validators."
      },
      "hashHeader(bytes)": {
        "details": "This function will be deprecated in L2.",
        "params": {
          "header": "RLP encoded header"
        },
        "return": "Header hash."
      },
      "isOwner()": {
        "details": "Returns true if the caller is the current owner."
      },
      "minQuorumSize(uint256)": {
        "details": "Computed in celo-blockchain as int(math.Ceil(float64(2*valSet.Size()) / 3))This function will be deprecated in L2."
      },
      "minQuorumSizeInCurrentSet()": {
        "details": "This function will be deprecated in L2.",
        "return": "Byzantine quorum of validators."
      },
      "numberValidatorsInCurrentSet()": {
        "return": "Size of the current elected validator set."
      },
      "numberValidatorsInSet(uint256)": {
        "details": "This function will be deprecated in L2.",
        "params": {
          "blockNumber": "Block number to retrieve the validator set from."
        },
        "return": "Size of the validator set."
      },
      "owner()": {
        "details": "Returns the address of the current owner."
      },
      "renounceOwnership()": {
        "details": "Leaves the contract without owner. It will not be possible to call `onlyOwner` functions anymore. Can only be called by the current owner.     * NOTE: Renouncing ownership will leave the contract without an owner, thereby removing any functionality that is only available to the owner."
      },
      "setRegistry(address)": {
        "params": {
          "registryAddress": "The address of a registry contract for routing to other contracts."
        }
      },
      "transferOwnership(address)": {
        "details": "Transfers ownership of the contract to a new account (`newOwner`). Can only be called by the current owner."
      },
      "validatorAddressFromCurrentSet(uint256)": {
        "params": {
          "index": "Index of requested validator in the validator set."
        },
        "return": "Address of validator at the requested index."
      },
      "validatorSignerAddressFromCurrentSet(uint256)": {
        "params": {
          "index": "Index of requested validator in the validator set."
        },
        "return": "Address of validator signer at the requested index."
      },
      "validatorSignerAddressFromSet(uint256,uint256)": {
        "details": "This function will be deprecated in L2.",
        "params": {
          "blockNumber": "Block number to retrieve the validator set from.",
          "index": "Index of requested validator in the validator set."
        },
        "return": "Address of validator signer at the requested index."
      }
    },
    "title": "PrecompilesOverride Contract"
  },
  "userdoc": {
    "methods": {
      "checkProofOfPossession(address,bytes,bytes)": {
        "notice": "Checks a BLS proof of possession."
      },
      "fractionMulExp(uint256,uint256,uint256,uint256,uint256,uint256)": {
        "notice": "calculate a * b^x for fractions a, b to `decimals` precision"
      },
      "getBlockNumberFromHeader(bytes)": {
        "notice": "Parses block number out of header."
      },
      "getEpochNumber()": {
        "notice": "Returns the epoch number at a block."
      },
      "getEpochNumberOfBlock(uint256)": {
        "notice": "Returns the epoch number at a block."
      },
      "getEpochSize()": {
        "notice": "Returns the current epoch size in blocks."
      },
      "getParentSealBitmap(uint256)": {
        "notice": "Gets the parent seal bitmap from the header at the given block number."
      },
      "getVerifiedSealBitmapFromHeader(bytes)": {
        "notice": "Verifies the BLS signature on the header and returns the seal bitmap. The validator set used for verification is retrieved based on the parent hash field of the header.  If the parent hash is not in the blockchain, verification fails."
      },
      "hashHeader(bytes)": {
        "notice": "Computes hash of header."
      },
      "minQuorumSize(uint256)": {
        "notice": "Returns the minimum number of required signers for a given block number."
      },
      "minQuorumSizeInCurrentSet()": {
        "notice": "Computes byzantine quorum from current validator set size"
      },
      "numberValidatorsInCurrentSet()": {
        "notice": "Gets the size of the current elected validator set."
      },
      "numberValidatorsInSet(uint256)": {
        "notice": "Gets the size of the validator set that must sign the given block number."
      },
      "setRegistry(address)": {
        "notice": "Updates the address pointing to a Registry contract."
      },
      "validatorAddressFromCurrentSet(uint256)": {
        "notice": "Gets a validator address from the current validator set."
      },
      "validatorSignerAddressFromCurrentSet(uint256)": {
        "notice": "Gets a validator signer address from the current validator set."
      },
      "validatorSignerAddressFromSet(uint256,uint256)": {
        "notice": "Gets a validator signer address from the validator set at the given block number."
      }
    },
    "notice": "This contract allows for a smoother transition from L1 to L2 by abstracting away the usingPrecompile contract, and taking care of the L1 to L2 switching logic.*"
  }
}