{
  "contractName": "PrecompilesOverrideV2",
  "abi": [
    {
      "constant": true,
      "inputs": [
        {
          "internalType": "address",
          "name": "sender",
          "type": "address"
        },
        {
          "internalType": "bytes",
          "name": "blsKey",
          "type": "bytes"
        },
        {
          "internalType": "bytes",
          "name": "blsPop",
          "type": "bytes"
        }
      ],
      "name": "checkProofOfPossession",
      "outputs": [
        {
          "internalType": "bool",
          "name": "",
          "type": "bool"
        }
      ],
      "payable": false,
      "stateMutability": "view",
      "type": "function"
    },
    {
      "constant": true,
      "inputs": [
        {
          "internalType": "uint256",
          "name": "aNumerator",
          "type": "uint256"
        },
        {
          "internalType": "uint256",
          "name": "aDenominator",
          "type": "uint256"
        },
        {
          "internalType": "uint256",
          "name": "bNumerator",
          "type": "uint256"
        },
        {
          "internalType": "uint256",
          "name": "bDenominator",
          "type": "uint256"
        },
        {
          "internalType": "uint256",
          "name": "exponent",
          "type": "uint256"
        },
        {
          "internalType": "uint256",
          "name": "_decimals",
          "type": "uint256"
        }
      ],
      "name": "fractionMulExp",
      "outputs": [
        {
          "internalType": "uint256",
          "name": "",
          "type": "uint256"
        },
        {
          "internalType": "uint256",
          "name": "",
          "type": "uint256"
        }
      ],
      "payable": false,
      "stateMutability": "view",
      "type": "function"
    },
    {
      "constant": true,
      "inputs": [
        {
          "internalType": "bytes",
          "name": "header",
          "type": "bytes"
        }
      ],
      "name": "getBlockNumberFromHeader",
      "outputs": [
        {
          "internalType": "uint256",
          "name": "",
          "type": "uint256"
        }
      ],
      "payable": false,
      "stateMutability": "view",
      "type": "function"
    },
    {
      "constant": true,
      "inputs": [],
      "name": "getEpochSize",
      "outputs": [
        {
          "internalType": "uint256",
          "name": "",
          "type": "uint256"
        }
      ],
      "payable": false,
      "stateMutability": "view",
      "type": "function"
    },
    {
      "constant": true,
      "inputs": [
        {
          "internalType": "uint256",
          "name": "blockNumber",
          "type": "uint256"
        }
      ],
      "name": "getParentSealBitmap",
      "outputs": [
        {
          "internalType": "bytes32",
          "name": "",
          "type": "bytes32"
        }
      ],
      "payable": false,
      "stateMutability": "view",
      "type": "function"
    },
    {
      "constant": true,
      "inputs": [
        {
          "internalType": "bytes",
          "name": "header",
          "type": "bytes"
        }
      ],
      "name": "getVerifiedSealBitmapFromHeader",
      "outputs": [
        {
          "internalType": "bytes32",
          "name": "",
          "type": "bytes32"
        }
      ],
      "payable": false,
      "stateMutability": "view",
      "type": "function"
    },
    {
      "constant": true,
      "inputs": [
        {
          "internalType": "bytes",
          "name": "header",
          "type": "bytes"
        }
      ],
      "name": "hashHeader",
      "outputs": [
        {
          "internalType": "bytes32",
          "name": "",
          "type": "bytes32"
        }
      ],
      "payable": false,
      "stateMutability": "view",
      "type": "function"
    },
    {
      "constant": true,
      "inputs": [
        {
          "internalType": "uint256",
          "name": "blockNumber",
          "type": "uint256"
        }
      ],
      "name": "minQuorumSize",
      "outputs": [
        {
          "internalType": "uint256",
          "name": "",
          "type": "uint256"
        }
      ],
      "payable": false,
      "stateMutability": "view",
      "type": "function"
    },
    {
      "constant": true,
      "inputs": [],
      "name": "minQuorumSizeInCurrentSet",
      "outputs": [
        {
          "internalType": "uint256",
          "name": "",
          "type": "uint256"
        }
      ],
      "payable": false,
      "stateMutability": "view",
      "type": "function"
    },
    {
      "constant": true,
      "inputs": [
        {
          "internalType": "uint256",
          "name": "blockNumber",
          "type": "uint256"
        }
      ],
      "name": "numberValidatorsInSet",
      "outputs": [
        {
          "internalType": "uint256",
          "name": "",
          "type": "uint256"
        }
      ],
      "payable": false,
      "stateMutability": "view",
      "type": "function"
    },
    {
      "constant": true,
      "inputs": [],
      "name": "registryContract",
      "outputs": [
        {
          "internalType": "contract IRegistry",
          "name": "",
          "type": "address"
        }
      ],
      "payable": false,
      "stateMutability": "view",
      "type": "function"
    },
    {
      "constant": true,
      "inputs": [
        {
          "internalType": "uint256",
          "name": "index",
          "type": "uint256"
        },
        {
          "internalType": "uint256",
          "name": "blockNumber",
          "type": "uint256"
        }
      ],
      "name": "validatorSignerAddressFromSet",
      "outputs": [
        {
          "internalType": "address",
          "name": "",
          "type": "address"
        }
      ],
      "payable": false,
      "stateMutability": "view",
      "type": "function"
    },
    {
      "constant": true,
      "inputs": [
        {
          "internalType": "uint256",
          "name": "blockNumber",
          "type": "uint256"
        }
      ],
      "name": "getEpochNumberOfBlock",
      "outputs": [
        {
          "internalType": "uint256",
          "name": "",
          "type": "uint256"
        }
      ],
      "payable": false,
      "stateMutability": "view",
      "type": "function"
    },
    {
      "constant": true,
      "inputs": [],
      "name": "getEpochNumber",
      "outputs": [
        {
          "internalType": "uint256",
          "name": "",
          "type": "uint256"
        }
      ],
      "payable": false,
      "stateMutability": "view",
      "type": "function"
    },
    {
      "constant": true,
      "inputs": [
        {
          "internalType": "uint256",
          "name": "index",
          "type": "uint256"
        }
      ],
      "name": "validatorSignerAddressFromCurrentSet",
      "outputs": [
        {
          "internalType": "address",
          "name": "",
          "type": "address"
        }
      ],
      "payable": false,
      "stateMutability": "view",
      "type": "function"
    },
    {
      "constant": true,
      "inputs": [
        {
          "internalType": "uint256",
          "name": "index",
          "type": "uint256"
        }
      ],
      "name": "validatorAddressFromCurrentSet",
      "outputs": [
        {
          "internalType": "address",
          "name": "",
          "type": "address"
        }
      ],
      "payable": false,
      "stateMutability": "view",
      "type": "function"
    },
    {
      "constant": true,
      "inputs": [],
      "name": "numberValidatorsInCurrentSet",
      "outputs": [
        {
          "internalType": "uint256",
          "name": "",
          "type": "uint256"
        }
      ],
      "payable": false,
      "stateMutability": "view",
      "type": "function"
    }
  ],
  "bytecode": "0x608060405234801561001057600080fd5b506123f4806100206000396000f3fe608060405234801561001057600080fd5b506004361061010b5760003560e01c80637385e5da116100a25780639b2b592f116100715780639b2b592f14610741578063df4da46114610783578063e50e652d146107a1578063ec683072146107e3578063fae8db0a1461085e5761010b565b80637385e5da1461061857806387ee8a0f146106365780638a883626146106545780639a7b3be7146107235761010b565b80633b1eb4bf116100de5780633b1eb4bf146103c05780634b2c2f44146104025780635d180adb146104d157806367960e91146105495761010b565b806311fb9e8414610110578063123633ea1461017e57806323f0ab65146101ec57806328c1f99b14610376575b600080fd5b61013c6004803603602081101561012657600080fd5b81019080803590602001909291905050506108a0565b604051808273ffffffffffffffffffffffffffffffffffffffff1673ffffffffffffffffffffffffffffffffffffffff16815260200191505060405180910390f35b6101aa6004803603602081101561019457600080fd5b8101908080359060200190929190505050610999565b604051808273ffffffffffffffffffffffffffffffffffffffff1673ffffffffffffffffffffffffffffffffffffffff16815260200191505060405180910390f35b61035c6004803603606081101561020257600080fd5b81019080803573ffffffffffffffffffffffffffffffffffffffff1690602001909291908035906020019064010000000081111561023f57600080fd5b82018360208201111561025157600080fd5b8035906020019184600183028401116401000000008311171561027357600080fd5b91908080601f016020809104026020016040519081016040528093929190818152602001838380828437600081840152601f19601f820116905080830192505050505050509192919290803590602001906401000000008111156102d657600080fd5b8201836020820111156102e857600080fd5b8035906020019184600183028401116401000000008311171561030a57600080fd5b91908080601f016020809104026020016040519081016040528093929190818152602001838380828437600081840152601f19601f820116905080830192505050505050509192919290505050610a52565b604051808215151515815260200191505060405180910390f35b61037e610c14565b604051808273ffffffffffffffffffffffffffffffffffffffff1673ffffffffffffffffffffffffffffffffffffffff16815260200191505060405180910390f35b6103ec600480360360208110156103d657600080fd5b8101908080359060200190929190505050610c1a565b6040518082815260200191505060405180910390f35b6104bb6004803603602081101561041857600080fd5b810190808035906020019064010000000081111561043557600080fd5b82018360208201111561044757600080fd5b8035906020019184600183028401116401000000008311171561046957600080fd5b91908080601f016020809104026020016040519081016040528093929190818152602001838380828437600081840152601f19601f820116905080830192505050505050509192919290505050610cdc565b6040518082815260200191505060405180910390f35b610507600480360360408110156104e757600080fd5b810190808035906020019092919080359060200190929190505050610e78565b604051808273ffffffffffffffffffffffffffffffffffffffff1673ffffffffffffffffffffffffffffffffffffffff16815260200191505060405180910390f35b6106026004803603602081101561055f57600080fd5b810190808035906020019064010000000081111561057c57600080fd5b82018360208201111561058e57600080fd5b803590602001918460018302840111640100000000831117156105b057600080fd5b91908080601f016020809104026020016040519081016040528093929190818152602001838380828437600081840152601f19601f820116905080830192505050505050509192919290505050610fd2565b6040518082815260200191505060405180910390f35b61062061116e565b6040518082815260200191505060405180910390f35b61063e611186565b6040518082815260200191505060405180910390f35b61070d6004803603602081101561066a57600080fd5b810190808035906020019064010000000081111561068757600080fd5b82018360208201111561069957600080fd5b803590602001918460018302840111640100000000831117156106bb57600080fd5b91908080601f016020809104026020016040519081016040528093929190818152602001838380828437600081840152601f19601f820116905080830192505050505050509192919290505050611232565b6040518082815260200191505060405180910390f35b61072b6113ce565b6040518082815260200191505060405180910390f35b61076d6004803603602081101561075757600080fd5b81019080803590602001909291905050506113de565b6040518082815260200191505060405180910390f35b61078b61152f565b6040518082815260200191505060405180910390f35b6107cd600480360360208110156107b757600080fd5b8101908080359060200190929190505050611686565b6040518082815260200191505060405180910390f35b610841600480360360c08110156107f957600080fd5b810190808035906020019092919080359060200190929190803590602001909291908035906020019092919080359060200190929190803590602001909291905050506116d9565b604051808381526020018281526020019250505060405180910390f35b61088a6004803603602081101561087457600080fd5b81019080803590602001909291905050506118f5565b6040518082815260200191505060405180910390f35b60006108aa611a46565b6108ff576040517f08c379a000000000000000000000000000000000000000000000000000000000815260040180806020018281038252602381526020018061237a6023913960400191505060405180910390fd5b610907611a77565b73ffffffffffffffffffffffffffffffffffffffff16638657f615836040518263ffffffff1660e01b81526004018082815260200191505060206040518083038186803b15801561095757600080fd5b505afa15801561096b573d6000803e3d6000fd5b505050506040513d602081101561098157600080fd5b81019080805190602001909291905050509050919050565b60006109a3611a46565b15610a42576109b0611a77565b73ffffffffffffffffffffffffffffffffffffffff16632ba47274836040518263ffffffff1660e01b81526004018082815260200191505060206040518083038186803b158015610a0057600080fd5b505afa158015610a14573d6000803e3d6000fd5b505050506040513d6020811015610a2a57600080fd5b81019080805190602001909291905050509050610a4d565b610a4b82611b52565b505b919050565b6000610a5c611cab565b600060fb73ffffffffffffffffffffffffffffffffffffffff16858585604051602001808473ffffffffffffffffffffffffffffffffffffffff1673ffffffffffffffffffffffffffffffffffffffff1660601b815260140183805190602001908083835b60208310610ae45780518252602082019150602081019050602083039250610ac1565b6001836020036101000a03801982511681845116808217855250505050505090500182805190602001908083835b60208310610b355780518252602082019150602081019050602083039250610b12565b6001836020036101000a03801982511681845116808217855250505050505090500193505050506040516020818303038152906040526040518082805190602001908083835b60208310610b9e5780518252602082019150602081019050602083039250610b7b565b6001836020036101000a038019825116818451168082178552505050505050905001915050600060405180830381855afa9150503d8060008114610bfe576040519150601f19603f3d011682016040523d82523d6000602084013e610c03565b606091505b505080915050809150509392505050565b61ce1081565b6000610c24611a46565b15610cc357610c31611a77565b73ffffffffffffffffffffffffffffffffffffffff16633b1eb4bf836040518263ffffffff1660e01b81526004018082815260200191505060206040518083038186803b158015610c8157600080fd5b505afa158015610c95573d6000803e3d6000fd5b505050506040513d6020811015610cab57600080fd5b81019080805190602001909291905050509050610cd7565b610cd482610ccf61152f565b611d0b565b90505b919050565b6000610ce6611cab565b6060600060f473ffffffffffffffffffffffffffffffffffffffff16846040516020018082805190602001908083835b60208310610d395780518252602082019150602081019050602083039250610d16565b6001836020036101000a0380198251168184511680821785525050505050509050019150506040516020818303038152906040526040518082805190602001908083835b60208310610da05780518252602082019150602081019050602083039250610d7d565b6001836020036101000a038019825116818451168082178552505050505050905001915050600060405180830381855afa9150503d8060008114610e00576040519150601f19603f3d011682016040523d82523d6000602084013e610e05565b606091505b50809350819250505080610e64576040517f08c379a00000000000000000000000000000000000000000000000000000000081526004018080602001828103825260388152602001806121a76038913960400191505060405180910390fd5b610e6f826000611d53565b92505050919050565b6000610e82611cab565b6060600060fa73ffffffffffffffffffffffffffffffffffffffff16858560405160200180838152602001828152602001925050506040516020818303038152906040526040518082805190602001908083835b60208310610ef95780518252602082019150602081019050602083039250610ed6565b6001836020036101000a038019825116818451168082178552505050505050905001915050600060405180830381855afa9150503d8060008114610f59576040519150601f19603f3d011682016040523d82523d6000602084013e610f5e565b606091505b50809350819250505080610fbd576040517f08c379a000000000000000000000000000000000000000000000000000000000815260040180806020018281038252603681526020018061227a6036913960400191505060405180910390fd5b610fc8826000611df4565b9250505092915050565b6000610fdc611cab565b6060600060f673ffffffffffffffffffffffffffffffffffffffff16846040516020018082805190602001908083835b6020831061102f578051825260208201915060208101905060208303925061100c565b6001836020036101000a0380198251168184511680821785525050505050509050019150506040516020818303038152906040526040518082805190602001908083835b602083106110965780518252602082019150602081019050602083039250611073565b6001836020036101000a038019825116818451168082178552505050505050905001915050600060405180830381855afa9150503d80600081146110f6576040519150601f19603f3d011682016040523d82523d6000602084013e6110fb565b606091505b5080935081925050508061115a576040517f08c379a000000000000000000000000000000000000000000000000000000000815260040180806020018281038252602381526020018061239d6023913960400191505060405180910390fd5b611165826000611d53565b92505050919050565b6000611178611cab565b61118143611686565b905090565b6000611190611a46565b156112245761119d611a77565b73ffffffffffffffffffffffffffffffffffffffff1663639a84d36040518163ffffffff1660e01b815260040160206040518083038186803b1580156111e257600080fd5b505afa1580156111f6573d6000803e3d6000fd5b505050506040513d602081101561120c57600080fd5b8101908080519060200190929190505050905061122f565b61122c611e0b565b90505b90565b600061123c611cab565b6060600060f773ffffffffffffffffffffffffffffffffffffffff16846040516020018082805190602001908083835b6020831061128f578051825260208201915060208101905060208303925061126c565b6001836020036101000a0380198251168184511680821785525050505050509050019150506040516020818303038152906040526040518082805190602001908083835b602083106112f657805182526020820191506020810190506020830392506112d3565b6001836020036101000a038019825116818451168082178552505050505050905001915050600060405180830381855afa9150503d8060008114611356576040519150601f19603f3d011682016040523d82523d6000602084013e61135b565b606091505b508093508192505050806113ba576040517f08c379a00000000000000000000000000000000000000000000000000000000081526004018080602001828103825260318152602001806123496031913960400191505060405180910390fd5b6113c5826000611df4565b92505050919050565b60006113d943610c1a565b905090565b60006113e8611cab565b6060600060f973ffffffffffffffffffffffffffffffffffffffff1684604051602001808281526020019150506040516020818303038152906040526040518082805190602001908083835b602083106114575780518252602082019150602081019050602083039250611434565b6001836020036101000a038019825116818451168082178552505050505050905001915050600060405180830381855afa9150503d80600081146114b7576040519150601f19603f3d011682016040523d82523d6000602084013e6114bc565b606091505b5080935081925050508061151b576040517f08c379a000000000000000000000000000000000000000000000000000000000815260040180806020018281038252602e815260200180612179602e913960400191505060405180910390fd5b611526826000611df4565b92505050919050565b6000611539611cab565b6060600060f873ffffffffffffffffffffffffffffffffffffffff16600160405160200180821515151560f81b81526001019150506040516020818303038152906040526040518082805190602001908083835b602083106115b0578051825260208201915060208101905060208303925061158d565b6001836020036101000a038019825116818451168082178552505050505050905001915050600060405180830381855afa9150503d8060008114611610576040519150601f19603f3d011682016040523d82523d6000602084013e611615565b606091505b50809350819250505080611674576040517f08c379a00000000000000000000000000000000000000000000000000000000081526004018080602001828103825260258152602001806122f86025913960400191505060405180910390fd5b61167f826000611df4565b9250505090565b6000611690611cab565b6116d260036116c460026116b660026116a8886113de565b611f5a90919063ffffffff16565b611fe090919063ffffffff16565b61206890919063ffffffff16565b9050919050565b6000806116e4611cab565b600087141580156116f6575060008514155b611768576040517f08c379a00000000000000000000000000000000000000000000000000000000081526004018080602001828103825260158152602001807f612064656e6f6d696e61746f72206973207a65726f000000000000000000000081525060200191505060405180910390fd5b6000806000606060fc73ffffffffffffffffffffffffffffffffffffffff168c8c8c8c8c8c6040516020018087815260200186815260200185815260200184815260200183815260200182815260200196505050505050506040516020818303038152906040526040518082805190602001908083835b6020831061180257805182526020820191506020810190506020830392506117df565b6001836020036101000a038019825116818451168082178552505050505050905001915050600060405180830381855afa9150503d8060008114611862576040519150601f19603f3d011682016040523d82523d6000602084013e611867565b606091505b508092508193505050816118c6576040517f08c379a00000000000000000000000000000000000000000000000000000000081526004018080602001828103825260278152602001806122d16027913960400191505060405180910390fd5b6118d1816000611df4565b93506118de816020611df4565b925083839550955050505050965096945050505050565b60006118ff611cab565b6060600060f573ffffffffffffffffffffffffffffffffffffffff1684604051602001808281526020019150506040516020818303038152906040526040518082805190602001908083835b6020831061196e578051825260208201915060208101905060208303925061194b565b6001836020036101000a038019825116818451168082178552505050505050905001915050600060405180830381855afa9150503d80600081146119ce576040519150601f19603f3d011682016040523d82523d6000602084013e6119d3565b606091505b50809350819250505080611a32576040517f08c379a000000000000000000000000000000000000000000000000000000000815260040180806020018281038252602c81526020018061231d602c913960400191505060405180910390fd5b611a3d826000611d53565b92505050919050565b60008060007342000000000000000000000000000000000000189050803b915060008263ffffffff16119250505090565b600061ce1073ffffffffffffffffffffffffffffffffffffffff1663dcf0aaed60405160200180807f45706f63684d616e616765720000000000000000000000000000000000000000815250600c019050604051602081830303815290604052805190602001206040518263ffffffff1660e01b81526004018082815260200191505060206040518083038186803b158015611b1257600080fd5b505afa158015611b26573d6000803e3d6000fd5b505050506040513d6020811015611b3c57600080fd5b8101908080519060200190929190505050905090565b6000611b5c611cab565b6060600060fa73ffffffffffffffffffffffffffffffffffffffff16844360405160200180838152602001828152602001925050506040516020818303038152906040526040518082805190602001908083835b60208310611bd35780518252602082019150602081019050602083039250611bb0565b6001836020036101000a038019825116818451168082178552505050505050905001915050600060405180830381855afa9150503d8060008114611c33576040519150601f19603f3d011682016040523d82523d6000602084013e611c38565b606091505b50809350819250505080611c97576040517f08c379a000000000000000000000000000000000000000000000000000000000815260040180806020018281038252603d8152602001806121df603d913960400191505060405180910390fd5b611ca2826000611df4565b92505050919050565b611cb3611a46565b15611d09576040517f08c379a00000000000000000000000000000000000000000000000000000000081526004018080602001828103825260298152602001806122516029913960400191505060405180910390fd5b565b600080828481611d1757fe5b0490506000838581611d2557fe5b061415611d355780915050611d4d565b611d49600182611fe090919063ffffffff16565b9150505b92915050565b6000611d69602083611fe090919063ffffffff16565b83511015611ddf576040517f08c379a00000000000000000000000000000000000000000000000000000000081526004018080602001828103825260148152602001807f736c6963696e67206f7574206f662072616e676500000000000000000000000081525060200191505060405180910390fd5b60006020830184015190508091505092915050565b6000611e008383611d53565b60001c905092915050565b6000611e15611cab565b6060600060f973ffffffffffffffffffffffffffffffffffffffff1643604051602001808281526020019150506040516020818303038152906040526040518082805190602001908083835b60208310611e845780518252602082019150602081019050602083039250611e61565b6001836020036101000a038019825116818451168082178552505050505050905001915050600060405180830381855afa9150503d8060008114611ee4576040519150601f19603f3d011682016040523d82523d6000602084013e611ee9565b606091505b50809350819250505080611f48576040517f08c379a000000000000000000000000000000000000000000000000000000000815260040180806020018281038252603581526020018061221c6035913960400191505060405180910390fd5b611f53826000611df4565b9250505090565b600080831415611f6d5760009050611fda565b6000828402905082848281611f7e57fe5b0414611fd5576040517f08c379a00000000000000000000000000000000000000000000000000000000081526004018080602001828103825260218152602001806122b06021913960400191505060405180910390fd5b809150505b92915050565b60008082840190508381101561205e576040517f08c379a000000000000000000000000000000000000000000000000000000000815260040180806020018281038252601b8152602001807f536166654d6174683a206164646974696f6e206f766572666c6f77000000000081525060200191505060405180910390fd5b8091505092915050565b60006120aa83836040518060400160405280601a81526020017f536166654d6174683a206469766973696f6e206279207a65726f0000000000008152506120b2565b905092915050565b6000808311829061215e576040517f08c379a00000000000000000000000000000000000000000000000000000000081526004018080602001828103825283818151815260200191508051906020019080838360005b83811015612123578082015181840152602081019050612108565b50505050905090810190601f1680156121505780820380516001836020036101000a031916815260200191505b509250505060405180910390fd5b50600083858161216a57fe5b04905080915050939250505056fe6572726f722063616c6c696e67206e756d62657256616c696461746f7273496e53657420707265636f6d70696c656572726f722063616c6c696e672067657456657269666965645365616c4269746d617046726f6d48656164657220707265636f6d70696c656572726f722063616c6c696e672076616c696461746f725369676e65724164647265737346726f6d43757272656e7453657420707265636f6d70696c656572726f722063616c6c696e67206e756d62657256616c696461746f7273496e43757272656e7453657420707265636f6d70696c6554686973206d6574686f64206973206e6f206c6f6e67657220737570706f7274656420696e204c322e6572726f722063616c6c696e672076616c696461746f725369676e65724164647265737346726f6d53657420707265636f6d70696c65536166654d6174683a206d756c7469706c69636174696f6e206f766572666c6f776572726f722063616c6c696e67206672616374696f6e4d756c45787020707265636f6d70696c656572726f722063616c6c696e672067657445706f636853697a6520707265636f6d70696c656572726f722063616c6c696e6720676574506172656e745365616c4269746d617020707265636f6d70696c656572726f722063616c6c696e6720676574426c6f636b4e756d62657246726f6d48656164657220707265636f6d70696c6554686973206d6574686f64206973206e6f7420737570706f7274656420696e204c312e6572726f722063616c6c696e67206861736848656164657220707265636f6d70696c65a265627a7a72315820fa353bfbb2277d46a0d46943fb64df44ded8d2f2ff99e2071fe98653dea99bcf64736f6c634300050d0032",
  "source": "pragma solidity ^0.5.13;\n\nimport \"./interfaces/ICeloVersionedContract.sol\";\nimport \"../../contracts-0.8/common/IsL2Check.sol\";\nimport \"./UsingRegistryV2.sol\";\n\nimport \"./UsingPrecompiles.sol\";\n\n/**\n * @title PrecompilesOverride Contract\n * @notice This contract allows for a smoother transition from L1 to L2\n * by abstracting away the usingPrecompile contract, and taking care of the L1 to L2 switching logic.\n * @dev This is a version of the contract that uses UsingRegistryV2, i.e. it\n * uses a hardcoded constant for the Registry address.\n **/\ncontract PrecompilesOverrideV2 is UsingPrecompiles, UsingRegistryV2 {\n  /**\n   * @notice Returns the epoch number at a block.\n   * @param blockNumber Block number where epoch number is calculated.\n   * @return Epoch number.\n   */\n  function getEpochNumberOfBlock(uint256 blockNumber) public view returns (uint256) {\n    if (isL2()) {\n      return getEpochManager().getEpochNumberOfBlock(blockNumber);\n    } else {\n      return epochNumberOfBlock(blockNumber, getEpochSize());\n    }\n  }\n\n  /**\n   * @notice Returns the epoch number at a block.\n   * @return Current epoch number.\n   */\n  function getEpochNumber() public view returns (uint256) {\n    return getEpochNumberOfBlock(block.number);\n  }\n\n  /**\n   * @notice Gets a validator signer address from the current validator set.\n   * @param index Index of requested validator in the validator set.\n   * @return Address of validator signer at the requested index.\n   */\n  function validatorSignerAddressFromCurrentSet(uint256 index) public view returns (address) {\n    if (isL2()) {\n      return getEpochManager().getElectedSignerByIndex(index);\n    } else {\n      super.validatorSignerAddressFromCurrentSet(index);\n    }\n  }\n\n  /**\n   * @notice Gets a validator address from the current validator set.\n   * @param index Index of requested validator in the validator set.\n   * @return Address of validator at the requested index.\n   */\n  function validatorAddressFromCurrentSet(uint256 index) public view onlyL2 returns (address) {\n    return getEpochManager().getElectedAccountByIndex(index);\n  }\n\n  /**\n   * @notice Gets the size of the current elected validator set.\n   * @return Size of the current elected validator set.\n   */\n  function numberValidatorsInCurrentSet() public view returns (uint256) {\n    if (isL2()) {\n      return getEpochManager().numberOfElectedInCurrentSet();\n    } else {\n      return super.numberValidatorsInCurrentSet();\n    }\n  }\n}\n",
  "sourcePath": "/Users/beaver/Development/temp/celo-monorepo/packages/protocol/contracts/common/PrecompilesOverrideV2.sol",
  "compiler": {
    "name": "solc",
    "version": "0.5.13+commit.5b0b510c.Emscripten.clang"
  },
  "schemaVersion": "3.4.13",
  "updatedAt": "2025-05-05T17:49:51.124Z",
  "devdoc": {
    "details": "This is a version of the contract that uses UsingRegistryV2, i.e. it uses a hardcoded constant for the Registry address.*",
    "methods": {
      "checkProofOfPossession(address,bytes,bytes)": {
        "details": "This function will be deprecated in L2.",
        "params": {
          "blsKey": "The BLS public key that the validator is using for consensus, should pass proof  of possession. 48 bytes.",
          "blsPop": "The BLS public key proof-of-possession, which consists of a signature on the  account address. 96 bytes.",
          "sender": "The address signed by the BLS key to generate the proof of possession."
        },
        "return": "True upon success."
      },
      "fractionMulExp(uint256,uint256,uint256,uint256,uint256,uint256)": {
        "details": "This function will be deprecated in L2.",
        "params": {
          "_decimals": "precision",
          "aDenominator": "Denominator of first fraction",
          "aNumerator": "Numerator of first fraction",
          "bDenominator": "Denominator of exponentiated fraction",
          "bNumerator": "Numerator of exponentiated fraction",
          "exponent": "exponent to raise b to"
        },
        "return": "Numerator of the computed quantity (not reduced).Denominator of the computed quantity (not reduced)."
      },
      "getBlockNumberFromHeader(bytes)": {
        "details": "This function will be deprecated in L2.",
        "params": {
          "header": "RLP encoded header"
        },
        "return": "Block number."
      },
      "getEpochNumber()": {
        "return": "Current epoch number."
      },
      "getEpochNumberOfBlock(uint256)": {
        "params": {
          "blockNumber": "Block number where epoch number is calculated."
        },
        "return": "Epoch number."
      },
      "getEpochSize()": {
        "details": "This function will be deprecated in L2.",
        "return": "The current epoch size in blocks."
      },
      "getParentSealBitmap(uint256)": {
        "details": "This function will be deprecated in L2.",
        "params": {
          "blockNumber": "Block number to retrieve. Must be within 4 epochs of the current number."
        },
        "return": "Bitmap parent seal with set bits at indices corresponding to signing validators."
      },
      "getVerifiedSealBitmapFromHeader(bytes)": {
        "details": "This function will be deprecated in L2.",
        "params": {
          "header": "RLP encoded header"
        },
        "return": "Bitmap parent seal with set bits at indices correspoinding to signing validators."
      },
      "hashHeader(bytes)": {
        "details": "This function will be deprecated in L2.",
        "params": {
          "header": "RLP encoded header"
        },
        "return": "Header hash."
      },
      "minQuorumSize(uint256)": {
        "details": "Computed in celo-blockchain as int(math.Ceil(float64(2*valSet.Size()) / 3))This function will be deprecated in L2."
      },
      "minQuorumSizeInCurrentSet()": {
        "details": "This function will be deprecated in L2.",
        "return": "Byzantine quorum of validators."
      },
      "numberValidatorsInCurrentSet()": {
        "return": "Size of the current elected validator set."
      },
      "numberValidatorsInSet(uint256)": {
        "details": "This function will be deprecated in L2.",
        "params": {
          "blockNumber": "Block number to retrieve the validator set from."
        },
        "return": "Size of the validator set."
      },
      "validatorAddressFromCurrentSet(uint256)": {
        "params": {
          "index": "Index of requested validator in the validator set."
        },
        "return": "Address of validator at the requested index."
      },
      "validatorSignerAddressFromCurrentSet(uint256)": {
        "params": {
          "index": "Index of requested validator in the validator set."
        },
        "return": "Address of validator signer at the requested index."
      },
      "validatorSignerAddressFromSet(uint256,uint256)": {
        "details": "This function will be deprecated in L2.",
        "params": {
          "blockNumber": "Block number to retrieve the validator set from.",
          "index": "Index of requested validator in the validator set."
        },
        "return": "Address of validator signer at the requested index."
      }
    },
    "title": "PrecompilesOverride Contract"
  },
  "userdoc": {
    "methods": {
      "checkProofOfPossession(address,bytes,bytes)": {
        "notice": "Checks a BLS proof of possession."
      },
      "fractionMulExp(uint256,uint256,uint256,uint256,uint256,uint256)": {
        "notice": "calculate a * b^x for fractions a, b to `decimals` precision"
      },
      "getBlockNumberFromHeader(bytes)": {
        "notice": "Parses block number out of header."
      },
      "getEpochNumber()": {
        "notice": "Returns the epoch number at a block."
      },
      "getEpochNumberOfBlock(uint256)": {
        "notice": "Returns the epoch number at a block."
      },
      "getEpochSize()": {
        "notice": "Returns the current epoch size in blocks."
      },
      "getParentSealBitmap(uint256)": {
        "notice": "Gets the parent seal bitmap from the header at the given block number."
      },
      "getVerifiedSealBitmapFromHeader(bytes)": {
        "notice": "Verifies the BLS signature on the header and returns the seal bitmap. The validator set used for verification is retrieved based on the parent hash field of the header.  If the parent hash is not in the blockchain, verification fails."
      },
      "hashHeader(bytes)": {
        "notice": "Computes hash of header."
      },
      "minQuorumSize(uint256)": {
        "notice": "Returns the minimum number of required signers for a given block number."
      },
      "minQuorumSizeInCurrentSet()": {
        "notice": "Computes byzantine quorum from current validator set size"
      },
      "numberValidatorsInCurrentSet()": {
        "notice": "Gets the size of the current elected validator set."
      },
      "numberValidatorsInSet(uint256)": {
        "notice": "Gets the size of the validator set that must sign the given block number."
      },
      "validatorAddressFromCurrentSet(uint256)": {
        "notice": "Gets a validator address from the current validator set."
      },
      "validatorSignerAddressFromCurrentSet(uint256)": {
        "notice": "Gets a validator signer address from the current validator set."
      },
      "validatorSignerAddressFromSet(uint256,uint256)": {
        "notice": "Gets a validator signer address from the validator set at the given block number."
      }
    },
    "notice": "This contract allows for a smoother transition from L1 to L2 by abstracting away the usingPrecompile contract, and taking care of the L1 to L2 switching logic."
  }
}