{
  "contractName": "SortedOracles",
  "abi": [
    {
      "inputs": [
        {
          "internalType": "bool",
          "name": "test",
          "type": "bool"
        }
      ],
      "payable": false,
      "stateMutability": "nonpayable",
      "type": "constructor"
    },
    {
      "anonymous": false,
      "inputs": [
        {
          "indexed": true,
          "internalType": "address",
          "name": "newBreakerBox",
          "type": "address"
        }
      ],
      "name": "BreakerBoxUpdated",
      "type": "event"
    },
    {
      "anonymous": false,
      "inputs": [
        {
          "indexed": true,
          "internalType": "address",
          "name": "token",
          "type": "address"
        },
        {
          "indexed": true,
          "internalType": "address",
          "name": "equivalentToken",
          "type": "address"
        }
      ],
      "name": "EquivalentTokenSet",
      "type": "event"
    },
    {
      "anonymous": false,
      "inputs": [
        {
          "indexed": true,
          "internalType": "address",
          "name": "token",
          "type": "address"
        },
        {
          "indexed": false,
          "internalType": "uint256",
          "name": "value",
          "type": "uint256"
        }
      ],
      "name": "MedianUpdated",
      "type": "event"
    },
    {
      "anonymous": false,
      "inputs": [
        {
          "indexed": true,
          "internalType": "address",
          "name": "token",
          "type": "address"
        },
        {
          "indexed": true,
          "internalType": "address",
          "name": "oracleAddress",
          "type": "address"
        }
      ],
      "name": "OracleAdded",
      "type": "event"
    },
    {
      "anonymous": false,
      "inputs": [
        {
          "indexed": true,
          "internalType": "address",
          "name": "token",
          "type": "address"
        },
        {
          "indexed": true,
          "internalType": "address",
          "name": "oracleAddress",
          "type": "address"
        }
      ],
      "name": "OracleRemoved",
      "type": "event"
    },
    {
      "anonymous": false,
      "inputs": [
        {
          "indexed": true,
          "internalType": "address",
          "name": "token",
          "type": "address"
        },
        {
          "indexed": true,
          "internalType": "address",
          "name": "oracle",
          "type": "address"
        }
      ],
      "name": "OracleReportRemoved",
      "type": "event"
    },
    {
      "anonymous": false,
      "inputs": [
        {
          "indexed": true,
          "internalType": "address",
          "name": "token",
          "type": "address"
        },
        {
          "indexed": true,
          "internalType": "address",
          "name": "oracle",
          "type": "address"
        },
        {
          "indexed": false,
          "internalType": "uint256",
          "name": "timestamp",
          "type": "uint256"
        },
        {
          "indexed": false,
          "internalType": "uint256",
          "name": "value",
          "type": "uint256"
        }
      ],
      "name": "OracleReported",
      "type": "event"
    },
    {
      "anonymous": false,
      "inputs": [
        {
          "indexed": true,
          "internalType": "address",
          "name": "previousOwner",
          "type": "address"
        },
        {
          "indexed": true,
          "internalType": "address",
          "name": "newOwner",
          "type": "address"
        }
      ],
      "name": "OwnershipTransferred",
      "type": "event"
    },
    {
      "anonymous": false,
      "inputs": [
        {
          "indexed": false,
          "internalType": "uint256",
          "name": "reportExpiry",
          "type": "uint256"
        }
      ],
      "name": "ReportExpirySet",
      "type": "event"
    },
    {
      "anonymous": false,
      "inputs": [
        {
          "indexed": false,
          "internalType": "address",
          "name": "token",
          "type": "address"
        },
        {
          "indexed": false,
          "internalType": "uint256",
          "name": "reportExpiry",
          "type": "uint256"
        }
      ],
      "name": "TokenReportExpirySet",
      "type": "event"
    },
    {
      "constant": true,
      "inputs": [],
      "name": "breakerBox",
      "outputs": [
        {
          "internalType": "contract IBreakerBox",
          "name": "",
          "type": "address"
        }
      ],
      "payable": false,
      "stateMutability": "view",
      "type": "function"
    },
    {
      "constant": true,
      "inputs": [
        {
          "internalType": "address",
          "name": "",
          "type": "address"
        }
      ],
      "name": "equivalentTokens",
      "outputs": [
        {
          "internalType": "address",
          "name": "token",
          "type": "address"
        }
      ],
      "payable": false,
      "stateMutability": "view",
      "type": "function"
    },
    {
      "constant": true,
      "inputs": [],
      "name": "initialized",
      "outputs": [
        {
          "internalType": "bool",
          "name": "",
          "type": "bool"
        }
      ],
      "payable": false,
      "stateMutability": "view",
      "type": "function"
    },
    {
      "constant": true,
      "inputs": [
        {
          "internalType": "address",
          "name": "",
          "type": "address"
        },
        {
          "internalType": "address",
          "name": "",
          "type": "address"
        }
      ],
      "name": "isOracle",
      "outputs": [
        {
          "internalType": "bool",
          "name": "",
          "type": "bool"
        }
      ],
      "payable": false,
      "stateMutability": "view",
      "type": "function"
    },
    {
      "constant": true,
      "inputs": [],
      "name": "isOwner",
      "outputs": [
        {
          "internalType": "bool",
          "name": "",
          "type": "bool"
        }
      ],
      "payable": false,
      "stateMutability": "view",
      "type": "function"
    },
    {
      "constant": true,
      "inputs": [
        {
          "internalType": "address",
          "name": "",
          "type": "address"
        },
        {
          "internalType": "uint256",
          "name": "",
          "type": "uint256"
        }
      ],
      "name": "oracles",
      "outputs": [
        {
          "internalType": "address",
          "name": "",
          "type": "address"
        }
      ],
      "payable": false,
      "stateMutability": "view",
      "type": "function"
    },
    {
      "constant": true,
      "inputs": [],
      "name": "owner",
      "outputs": [
        {
          "internalType": "address",
          "name": "",
          "type": "address"
        }
      ],
      "payable": false,
      "stateMutability": "view",
      "type": "function"
    },
    {
      "constant": false,
      "inputs": [],
      "name": "renounceOwnership",
      "outputs": [],
      "payable": false,
      "stateMutability": "nonpayable",
      "type": "function"
    },
    {
      "constant": true,
      "inputs": [],
      "name": "reportExpirySeconds",
      "outputs": [
        {
          "internalType": "uint256",
          "name": "",
          "type": "uint256"
        }
      ],
      "payable": false,
      "stateMutability": "view",
      "type": "function"
    },
    {
      "constant": true,
      "inputs": [
        {
          "internalType": "address",
          "name": "",
          "type": "address"
        }
      ],
      "name": "tokenReportExpirySeconds",
      "outputs": [
        {
          "internalType": "uint256",
          "name": "",
          "type": "uint256"
        }
      ],
      "payable": false,
      "stateMutability": "view",
      "type": "function"
    },
    {
      "constant": false,
      "inputs": [
        {
          "internalType": "address",
          "name": "newOwner",
          "type": "address"
        }
      ],
      "name": "transferOwnership",
      "outputs": [],
      "payable": false,
      "stateMutability": "nonpayable",
      "type": "function"
    },
    {
      "constant": false,
      "inputs": [
        {
          "internalType": "uint256",
          "name": "_reportExpirySeconds",
          "type": "uint256"
        }
      ],
      "name": "initialize",
      "outputs": [],
      "payable": false,
      "stateMutability": "nonpayable",
      "type": "function"
    },
    {
      "constant": false,
      "inputs": [
        {
          "internalType": "address",
          "name": "_token",
          "type": "address"
        },
        {
          "internalType": "uint256",
          "name": "_reportExpirySeconds",
          "type": "uint256"
        }
      ],
      "name": "setTokenReportExpiry",
      "outputs": [],
      "payable": false,
      "stateMutability": "nonpayable",
      "type": "function"
    },
    {
      "constant": false,
      "inputs": [
        {
          "internalType": "address",
          "name": "token",
          "type": "address"
        },
        {
          "internalType": "address",
          "name": "oracleAddress",
          "type": "address"
        }
      ],
      "name": "addOracle",
      "outputs": [],
      "payable": false,
      "stateMutability": "nonpayable",
      "type": "function"
    },
    {
      "constant": false,
      "inputs": [
        {
          "internalType": "address",
          "name": "token",
          "type": "address"
        },
        {
          "internalType": "address",
          "name": "oracleAddress",
          "type": "address"
        },
        {
          "internalType": "uint256",
          "name": "index",
          "type": "uint256"
        }
      ],
      "name": "removeOracle",
      "outputs": [],
      "payable": false,
      "stateMutability": "nonpayable",
      "type": "function"
    },
    {
      "constant": false,
      "inputs": [
        {
          "internalType": "address",
          "name": "token",
          "type": "address"
        },
        {
          "internalType": "uint256",
          "name": "n",
          "type": "uint256"
        }
      ],
      "name": "removeExpiredReports",
      "outputs": [],
      "payable": false,
      "stateMutability": "nonpayable",
      "type": "function"
    },
    {
      "constant": false,
      "inputs": [
        {
          "internalType": "address",
          "name": "token",
          "type": "address"
        },
        {
          "internalType": "address",
          "name": "equivalentToken",
          "type": "address"
        }
      ],
      "name": "setEquivalentToken",
      "outputs": [],
      "payable": false,
      "stateMutability": "nonpayable",
      "type": "function"
    },
    {
      "constant": false,
      "inputs": [
        {
          "internalType": "address",
          "name": "token",
          "type": "address"
        }
      ],
      "name": "deleteEquivalentToken",
      "outputs": [],
      "payable": false,
      "stateMutability": "nonpayable",
      "type": "function"
    },
    {
      "constant": false,
      "inputs": [
        {
          "internalType": "address",
          "name": "token",
          "type": "address"
        },
        {
          "internalType": "uint256",
          "name": "value",
          "type": "uint256"
        },
        {
          "internalType": "address",
          "name": "lesserKey",
          "type": "address"
        },
        {
          "internalType": "address",
          "name": "greaterKey",
          "type": "address"
        }
      ],
      "name": "report",
      "outputs": [],
      "payable": false,
      "stateMutability": "nonpayable",
      "type": "function"
    },
    {
      "constant": true,
      "inputs": [
        {
          "internalType": "address",
          "name": "token",
          "type": "address"
        }
      ],
      "name": "getEquivalentToken",
      "outputs": [
        {
          "internalType": "address",
          "name": "",
          "type": "address"
        }
      ],
      "payable": false,
      "stateMutability": "view",
      "type": "function"
    },
    {
      "constant": true,
      "inputs": [
        {
          "internalType": "address",
          "name": "token",
          "type": "address"
        }
      ],
      "name": "medianTimestamp",
      "outputs": [
        {
          "internalType": "uint256",
          "name": "",
          "type": "uint256"
        }
      ],
      "payable": false,
      "stateMutability": "view",
      "type": "function"
    },
    {
      "constant": true,
      "inputs": [
        {
          "internalType": "address",
          "name": "token",
          "type": "address"
        }
      ],
      "name": "getTimestamps",
      "outputs": [
        {
          "internalType": "address[]",
          "name": "",
          "type": "address[]"
        },
        {
          "internalType": "uint256[]",
          "name": "",
          "type": "uint256[]"
        },
        {
          "internalType": "enum SortedLinkedListWithMedian.MedianRelation[]",
          "name": "",
          "type": "uint8[]"
        }
      ],
      "payable": false,
      "stateMutability": "view",
      "type": "function"
    },
    {
      "constant": true,
      "inputs": [
        {
          "internalType": "address",
          "name": "token",
          "type": "address"
        }
      ],
      "name": "getOracles",
      "outputs": [
        {
          "internalType": "address[]",
          "name": "",
          "type": "address[]"
        }
      ],
      "payable": false,
      "stateMutability": "view",
      "type": "function"
    },
    {
      "constant": true,
      "inputs": [
        {
          "internalType": "address",
          "name": "token",
          "type": "address"
        }
      ],
      "name": "getRates",
      "outputs": [
        {
          "internalType": "address[]",
          "name": "",
          "type": "address[]"
        },
        {
          "internalType": "uint256[]",
          "name": "",
          "type": "uint256[]"
        },
        {
          "internalType": "enum SortedLinkedListWithMedian.MedianRelation[]",
          "name": "",
          "type": "uint8[]"
        }
      ],
      "payable": false,
      "stateMutability": "view",
      "type": "function"
    },
    {
      "constant": true,
      "inputs": [
        {
          "internalType": "address",
          "name": "token",
          "type": "address"
        }
      ],
      "name": "getExchangeRate",
      "outputs": [
        {
          "internalType": "uint256",
          "name": "numerator",
          "type": "uint256"
        },
        {
          "internalType": "uint256",
          "name": "denominator",
          "type": "uint256"
        }
      ],
      "payable": false,
      "stateMutability": "view",
      "type": "function"
    },
    {
      "constant": true,
      "inputs": [],
      "name": "getVersionNumber",
      "outputs": [
        {
          "internalType": "uint256",
          "name": "",
          "type": "uint256"
        },
        {
          "internalType": "uint256",
          "name": "",
          "type": "uint256"
        },
        {
          "internalType": "uint256",
          "name": "",
          "type": "uint256"
        },
        {
          "internalType": "uint256",
          "name": "",
          "type": "uint256"
        }
      ],
      "payable": false,
      "stateMutability": "pure",
      "type": "function"
    },
    {
      "constant": false,
      "inputs": [
        {
          "internalType": "uint256",
          "name": "_reportExpirySeconds",
          "type": "uint256"
        }
      ],
      "name": "setReportExpiry",
      "outputs": [],
      "payable": false,
      "stateMutability": "nonpayable",
      "type": "function"
    },
    {
      "constant": false,
      "inputs": [
        {
          "internalType": "contract IBreakerBox",
          "name": "newBreakerBox",
          "type": "address"
        }
      ],
      "name": "setBreakerBox",
      "outputs": [],
      "payable": false,
      "stateMutability": "nonpayable",
      "type": "function"
    },
    {
      "constant": true,
      "inputs": [
        {
          "internalType": "address",
          "name": "token",
          "type": "address"
        }
      ],
      "name": "medianRate",
      "outputs": [
        {
          "internalType": "uint256",
          "name": "",
          "type": "uint256"
        },
        {
          "internalType": "uint256",
          "name": "",
          "type": "uint256"
        }
      ],
      "payable": false,
      "stateMutability": "view",
      "type": "function"
    },
    {
      "constant": true,
      "inputs": [
        {
          "internalType": "address",
          "name": "token",
          "type": "address"
        }
      ],
      "name": "numRates",
      "outputs": [
        {
          "internalType": "uint256",
          "name": "",
          "type": "uint256"
        }
      ],
      "payable": false,
      "stateMutability": "view",
      "type": "function"
    },
    {
      "constant": true,
      "inputs": [
        {
          "internalType": "address",
          "name": "token",
          "type": "address"
        }
      ],
      "name": "isOldestReportExpired",
      "outputs": [
        {
          "internalType": "bool",
          "name": "",
          "type": "bool"
        },
        {
          "internalType": "address",
          "name": "",
          "type": "address"
        }
      ],
      "payable": false,
      "stateMutability": "view",
      "type": "function"
    },
    {
      "constant": true,
      "inputs": [
        {
          "internalType": "address",
          "name": "token",
          "type": "address"
        }
      ],
      "name": "medianRateWithoutEquivalentMapping",
      "outputs": [
        {
          "internalType": "uint256",
          "name": "",
          "type": "uint256"
        },
        {
          "internalType": "uint256",
          "name": "",
          "type": "uint256"
        }
      ],
      "payable": false,
      "stateMutability": "view",
      "type": "function"
    },
    {
      "constant": true,
      "inputs": [
        {
          "internalType": "address",
          "name": "token",
          "type": "address"
        }
      ],
      "name": "numTimestamps",
      "outputs": [
        {
          "internalType": "uint256",
          "name": "",
          "type": "uint256"
        }
      ],
      "payable": false,
      "stateMutability": "view",
      "type": "function"
    },
    {
      "constant": true,
      "inputs": [
        {
          "internalType": "address",
          "name": "token",
          "type": "address"
        }
      ],
      "name": "getTokenReportExpirySeconds",
      "outputs": [
        {
          "internalType": "uint256",
          "name": "",
          "type": "uint256"
        }
      ],
      "payable": false,
      "stateMutability": "view",
      "type": "function"
    }
  ],
  "bytecode": "0x60806040523480156200001157600080fd5b5060405162004d6738038062004d67833981810160405260208110156200003757600080fd5b81019080805190602001909291905050508060006200005b6200012360201b60201c565b9050806000806101000a81548173ffffffffffffffffffffffffffffffffffffffff021916908373ffffffffffffffffffffffffffffffffffffffff1602179055508073ffffffffffffffffffffffffffffffffffffffff16600073ffffffffffffffffffffffffffffffffffffffff167f8be0079c531659141344cd1fd0a4f28419497f9722a3daafe3b4186f6b6457e060405160405180910390a350806200011b576001600060146101000a81548160ff0219169083151502179055505b50506200012b565b600033905090565b614c2c806200013b6000396000f3fe608060405234801561001057600080fd5b50600436106102065760003560e01c8063858975121161011a578063ebc1d6bb116100ad578063f2fde38b1161007c578063f2fde38b14610d8e578063f414c5e414610dd2578063fc20935d14610e1c578063fe4b84df14610e6a578063ffe736bf14610e9857610206565b8063ebc1d6bb14610c3e578063ef90e1b014610c6c578063efb7601d14610ccb578063f0ca4adb14610d2a57610206565b8063a00a8b2c116100e9578063a00a8b2c146109e1578063b929215814610a6f578063bbc66a9414610b98578063dd34ca3b14610bf057610206565b806385897512146108585780638da5cb5b146108dc5780638e749281146109265780638f32d59b146109bf57610206565b8063493a353c1161019d5780636dd6ef0c1161016c5780636dd6ef0c1461068c5780636deb6799146106e4578063715018a61461073c578063749aa17e1461074657806380e50744146107ca57610206565b8063493a353c1461056e57806353a572971461058c57806354255be0146105fa57806363d9a6561461062d57610206565b8063158ef93e116101d9578063158ef93e146104345780631cbe9970146104565780632e86bc011461049a578063370c998e146104f257610206565b806302f55b611461020b578063040bbd3514610334578063071b48fc14610378578063145d8d18146103d0575b600080fd5b61024d6004803603602081101561022157600080fd5b81019080803573ffffffffffffffffffffffffffffffffffffffff169060200190929190505050610f27565b60405180806020018060200180602001848103845287818151815260200191508051906020019060200280838360005b8381101561029857808201518184015260208101905061027d565b50505050905001848103835286818151815260200191508051906020019060200280838360005b838110156102da5780820151818401526020810190506102bf565b50505050905001848103825285818151815260200191508051906020019060200280838360005b8381101561031c578082015181840152602081019050610301565b50505050905001965050505050505060405180910390f35b6103766004803603602081101561034a57600080fd5b81019080803573ffffffffffffffffffffffffffffffffffffffff1690602001909291905050506111c3565b005b6103ba6004803603602081101561038e57600080fd5b81019080803573ffffffffffffffffffffffffffffffffffffffff169060200190929190505050611367565b6040518082815260200191505060405180910390f35b610432600480360360408110156103e657600080fd5b81019080803573ffffffffffffffffffffffffffffffffffffffff169060200190929190803573ffffffffffffffffffffffffffffffffffffffff16906020019092919050505061143a565b005b61043c6116e9565b604051808215151515815260200191505060405180910390f35b6104986004803603602081101561046c57600080fd5b81019080803573ffffffffffffffffffffffffffffffffffffffff1690602001909291905050506116fc565b005b6104dc600480360360208110156104b057600080fd5b81019080803573ffffffffffffffffffffffffffffffffffffffff1690602001909291905050506118e0565b6040518082815260200191505060405180910390f35b6105546004803603604081101561050857600080fd5b81019080803573ffffffffffffffffffffffffffffffffffffffff169060200190929190803573ffffffffffffffffffffffffffffffffffffffff1690602001909291905050506118f8565b604051808215151515815260200191505060405180910390f35b610576611927565b6040518082815260200191505060405180910390f35b6105f8600480360360608110156105a257600080fd5b81019080803573ffffffffffffffffffffffffffffffffffffffff169060200190929190803573ffffffffffffffffffffffffffffffffffffffff1690602001909291908035906020019092919050505061192d565b005b610602611e45565b6040518085815260200184815260200183815260200182815260200194505050505060405180910390f35b61066f6004803603602081101561064357600080fd5b81019080803573ffffffffffffffffffffffffffffffffffffffff169060200190929190505050611e6c565b604051808381526020018281526020019250505060405180910390f35b6106ce600480360360208110156106a257600080fd5b81019080803573ffffffffffffffffffffffffffffffffffffffff169060200190929190505050611f65565b6040518082815260200191505060405180910390f35b610726600480360360208110156106fa57600080fd5b81019080803573ffffffffffffffffffffffffffffffffffffffff169060200190929190505050612038565b6040518082815260200191505060405180910390f35b6107446120d3565b005b6107886004803603602081101561075c57600080fd5b81019080803573ffffffffffffffffffffffffffffffffffffffff16906020019092919050505061220c565b604051808273ffffffffffffffffffffffffffffffffffffffff1673ffffffffffffffffffffffffffffffffffffffff16815260200191505060405180910390f35b610856600480360360808110156107e057600080fd5b81019080803573ffffffffffffffffffffffffffffffffffffffff16906020019092919080359060200190929190803573ffffffffffffffffffffffffffffffffffffffff169060200190929190803573ffffffffffffffffffffffffffffffffffffffff16906020019092919050505061224a565b005b61089a6004803603602081101561086e57600080fd5b81019080803573ffffffffffffffffffffffffffffffffffffffff169060200190929190505050612d31565b604051808273ffffffffffffffffffffffffffffffffffffffff1673ffffffffffffffffffffffffffffffffffffffff16815260200191505060405180910390f35b6108e4612d9d565b604051808273ffffffffffffffffffffffffffffffffffffffff1673ffffffffffffffffffffffffffffffffffffffff16815260200191505060405180910390f35b6109686004803603602081101561093c57600080fd5b81019080803573ffffffffffffffffffffffffffffffffffffffff169060200190929190505050612dc6565b6040518080602001828103825283818151815260200191508051906020019060200280838360005b838110156109ab578082015181840152602081019050610990565b505050509050019250505060405180910390f35b6109c7612e93565b604051808215151515815260200191505060405180910390f35b610a2d600480360360408110156109f757600080fd5b81019080803573ffffffffffffffffffffffffffffffffffffffff16906020019092919080359060200190929190505050612ef1565b604051808273ffffffffffffffffffffffffffffffffffffffff1673ffffffffffffffffffffffffffffffffffffffff16815260200191505060405180910390f35b610ab160048036036020811015610a8557600080fd5b81019080803573ffffffffffffffffffffffffffffffffffffffff169060200190929190505050612f3c565b60405180806020018060200180602001848103845287818151815260200191508051906020019060200280838360005b83811015610afc578082015181840152602081019050610ae1565b50505050905001848103835286818151815260200191508051906020019060200280838360005b83811015610b3e578082015181840152602081019050610b23565b50505050905001848103825285818151815260200191508051906020019060200280838360005b83811015610b80578082015181840152602081019050610b65565b50505050905001965050505050505060405180910390f35b610bda60048036036020811015610bae57600080fd5b81019080803573ffffffffffffffffffffffffffffffffffffffff1690602001909291905050506131d8565b6040518082815260200191505060405180910390f35b610c3c60048036036040811015610c0657600080fd5b81019080803573ffffffffffffffffffffffffffffffffffffffff169060200190929190803590602001909291905050506132ab565b005b610c6a60048036036020811015610c5457600080fd5b8101908080359060200190929190505050613461565b005b610cae60048036036020811015610c8257600080fd5b81019080803573ffffffffffffffffffffffffffffffffffffffff1690602001909291905050506135d0565b604051808381526020018281526020019250505060405180910390f35b610d0d60048036036020811015610ce157600080fd5b81019080803573ffffffffffffffffffffffffffffffffffffffff1690602001909291905050506136c4565b604051808381526020018281526020019250505060405180910390f35b610d8c60048036036040811015610d4057600080fd5b81019080803573ffffffffffffffffffffffffffffffffffffffff169060200190929190803573ffffffffffffffffffffffffffffffffffffffff1690602001909291905050506136dd565b005b610dd060048036036020811015610da457600080fd5b81019080803573ffffffffffffffffffffffffffffffffffffffff169060200190929190505050613a3f565b005b610dda613ac5565b604051808273ffffffffffffffffffffffffffffffffffffffff1673ffffffffffffffffffffffffffffffffffffffff16815260200191505060405180910390f35b610e6860048036036040811015610e3257600080fd5b81019080803573ffffffffffffffffffffffffffffffffffffffff16906020019092919080359060200190929190505050613aeb565b005b610e9660048036036020811015610e8057600080fd5b8101908080359060200190929190505050613d09565b005b610eda60048036036020811015610eae57600080fd5b81019080803573ffffffffffffffffffffffffffffffffffffffff169060200190929190505050613dbc565b60405180831515151581526020018273ffffffffffffffffffffffffffffffffffffffff1673ffffffffffffffffffffffffffffffffffffffff1681526020019250505060405180910390f35b6060806060600160008573ffffffffffffffffffffffffffffffffffffffff1673ffffffffffffffffffffffffffffffffffffffff16815260200190815260200160002073__AddressSortedLinkedListWithMedian_____636cfa387390916040518263ffffffff1660e01b81526004018082815260200191505060006040518083038186803b158015610fbb57600080fd5b505af4158015610fcf573d6000803e3d6000fd5b505050506040513d6000823e3d601f19601f820116820180604052506060811015610ff957600080fd5b810190808051604051939291908464010000000082111561101957600080fd5b8382019150602082018581111561102f57600080fd5b825186602082028301116401000000008211171561104c57600080fd5b8083526020830192505050908051906020019060200280838360005b83811015611083578082015181840152602081019050611068565b50505050905001604052602001805160405193929190846401000000008211156110ac57600080fd5b838201915060208201858111156110c257600080fd5b82518660208202830111640100000000821117156110df57600080fd5b8083526020830192505050908051906020019060200280838360005b838110156111165780820151818401526020810190506110fb565b505050509050016040526020018051604051939291908464010000000082111561113f57600080fd5b8382019150602082018581111561115557600080fd5b825186602082028301116401000000008211171561117257600080fd5b8083526020830192505050908051906020019060200280838360005b838110156111a957808201518184015260208101905061118e565b505050509050016040525050509250925092509193909250565b6111cb612e93565b61123d576040517f08c379a00000000000000000000000000000000000000000000000000000000081526004018080602001828103825260208152602001807f4f776e61626c653a2063616c6c6572206973206e6f7420746865206f776e657281525060200191505060405180910390fd5b600073ffffffffffffffffffffffffffffffffffffffff168173ffffffffffffffffffffffffffffffffffffffff1614156112e0576040517f08c379a000000000000000000000000000000000000000000000000000000000815260040180806020018281038252601e8152602001807f427265616b6572426f782061646472657373206d75737420626520736574000081525060200191505060405180910390fd5b80600760006101000a81548173ffffffffffffffffffffffffffffffffffffffff021916908373ffffffffffffffffffffffffffffffffffffffff1602179055508073ffffffffffffffffffffffffffffffffffffffff167f21921b3b46ef2c939e85d6a14410c6e3b9ce132b66e944357ff4f789f68e00e260405160405180910390a250565b6000600260008373ffffffffffffffffffffffffffffffffffffffff1673ffffffffffffffffffffffffffffffffffffffff16815260200190815260200160002073__AddressSortedLinkedListWithMedian_____6359d556a890916040518263ffffffff1660e01b81526004018082815260200191505060206040518083038186803b1580156113f857600080fd5b505af415801561140c573d6000803e3d6000fd5b505050506040513d602081101561142257600080fd5b81019080805190602001909291905050509050919050565b611442612e93565b6114b4576040517f08c379a00000000000000000000000000000000000000000000000000000000081526004018080602001828103825260208152602001807f4f776e61626c653a2063616c6c6572206973206e6f7420746865206f776e657281525060200191505060405180910390fd5b600073ffffffffffffffffffffffffffffffffffffffff168273ffffffffffffffffffffffffffffffffffffffff161415611557576040517f08c379a00000000000000000000000000000000000000000000000000000000081526004018080602001828103825260198152602001807f746f6b656e20616464726573732063616e6e6f7420626520300000000000000081525060200191505060405180910390fd5b600073ffffffffffffffffffffffffffffffffffffffff168173ffffffffffffffffffffffffffffffffffffffff1614156115dd576040517f08c379a0000000000000000000000000000000000000000000000000000000008152600401808060200182810382526023815260200180614a356023913960400191505060405180910390fd5b60405180602001604052808273ffffffffffffffffffffffffffffffffffffffff16815250600860008473ffffffffffffffffffffffffffffffffffffffff1673ffffffffffffffffffffffffffffffffffffffff16815260200190815260200160002060008201518160000160006101000a81548173ffffffffffffffffffffffffffffffffffffffff021916908373ffffffffffffffffffffffffffffffffffffffff1602179055509050508073ffffffffffffffffffffffffffffffffffffffff168273ffffffffffffffffffffffffffffffffffffffff167f50029dfdec1fc4684fff6b60e99fd3972a724662f5b4235e5082c447344ea01f60405160405180910390a35050565b600060149054906101000a900460ff1681565b611704612e93565b611776576040517f08c379a00000000000000000000000000000000000000000000000000000000081526004018080602001828103825260208152602001807f4f776e61626c653a2063616c6c6572206973206e6f7420746865206f776e657281525060200191505060405180910390fd5b600073ffffffffffffffffffffffffffffffffffffffff168173ffffffffffffffffffffffffffffffffffffffff161415611819576040517f08c379a00000000000000000000000000000000000000000000000000000000081526004018080602001828103825260198152602001807f746f6b656e20616464726573732063616e6e6f7420626520300000000000000081525060200191505060405180910390fd5b600860008273ffffffffffffffffffffffffffffffffffffffff1673ffffffffffffffffffffffffffffffffffffffff168152602001908152602001600020600080820160006101000a81549073ffffffffffffffffffffffffffffffffffffffff02191690555050600073ffffffffffffffffffffffffffffffffffffffff168173ffffffffffffffffffffffffffffffffffffffff167f50029dfdec1fc4684fff6b60e99fd3972a724662f5b4235e5082c447344ea01f60405160405180910390a350565b60066020528060005260406000206000915090505481565b60036020528160005260406000206020528060005260406000206000915091509054906101000a900460ff1681565b60055481565b611935612e93565b6119a7576040517f08c379a00000000000000000000000000000000000000000000000000000000081526004018080602001828103825260208152602001807f4f776e61626c653a2063616c6c6572206973206e6f7420746865206f776e657281525060200191505060405180910390fd5b600073ffffffffffffffffffffffffffffffffffffffff168373ffffffffffffffffffffffffffffffffffffffff1614158015611a115750600073ffffffffffffffffffffffffffffffffffffffff168273ffffffffffffffffffffffffffffffffffffffff1614155b8015611a5e575080600460008573ffffffffffffffffffffffffffffffffffffffff1673ffffffffffffffffffffffffffffffffffffffff16815260200190815260200160002080549050115b8015611b0957508173ffffffffffffffffffffffffffffffffffffffff16600460008573ffffffffffffffffffffffffffffffffffffffff1673ffffffffffffffffffffffffffffffffffffffff1681526020019081526020016000208281548110611ac657fe5b9060005260206000200160009054906101000a900473ffffffffffffffffffffffffffffffffffffffff1673ffffffffffffffffffffffffffffffffffffffff16145b611b5e576040517f08c379a0000000000000000000000000000000000000000000000000000000008152600401808060200182810382526056815260200180614ab26056913960600191505060405180910390fd5b6000600360008573ffffffffffffffffffffffffffffffffffffffff1673ffffffffffffffffffffffffffffffffffffffff16815260200190815260200160002060008473ffffffffffffffffffffffffffffffffffffffff1673ffffffffffffffffffffffffffffffffffffffff16815260200190815260200160002060006101000a81548160ff021916908315150217905550600460008473ffffffffffffffffffffffffffffffffffffffff1673ffffffffffffffffffffffffffffffffffffffff168152602001908152602001600020611c886001600460008773ffffffffffffffffffffffffffffffffffffffff1673ffffffffffffffffffffffffffffffffffffffff1681526020019081526020016000208054905061400790919063ffffffff16565b81548110611c9257fe5b9060005260206000200160009054906101000a900473ffffffffffffffffffffffffffffffffffffffff16600460008573ffffffffffffffffffffffffffffffffffffffff1673ffffffffffffffffffffffffffffffffffffffff1681526020019081526020016000208281548110611d0757fe5b9060005260206000200160006101000a81548173ffffffffffffffffffffffffffffffffffffffff021916908373ffffffffffffffffffffffffffffffffffffffff160217905550600460008473ffffffffffffffffffffffffffffffffffffffff1673ffffffffffffffffffffffffffffffffffffffff168152602001908152602001600020805480611d9757fe5b6001900381819060005260206000200160006101000a81549073ffffffffffffffffffffffffffffffffffffffff02191690559055611dd68383614051565b15611de657611de5838361425f565b5b8173ffffffffffffffffffffffffffffffffffffffff168373ffffffffffffffffffffffffffffffffffffffff167f6dc84b66cc948d847632b9d829f7cb1cb904fbf2c084554a9bc22ad9d845334060405160405180910390a3505050565b60008060008060018060046000839350829250819150809050935093509350935090919293565b600080600160008473ffffffffffffffffffffffffffffffffffffffff1673ffffffffffffffffffffffffffffffffffffffff16815260200190815260200160002073__AddressSortedLinkedListWithMedian_____6359d556a890916040518263ffffffff1660e01b81526004018082815260200191505060206040518083038186803b158015611efe57600080fd5b505af4158015611f12573d6000803e3d6000fd5b505050506040513d6020811015611f2857600080fd5b81019080805190602001909291905050506000611f44856131d8565b14611f595769d3c21bcecceda1000000611f5c565b60005b91509150915091565b6000600260008373ffffffffffffffffffffffffffffffffffffffff1673ffffffffffffffffffffffffffffffffffffffff16815260200190815260200160002073__AddressSortedLinkedListWithMedian_____636eafa6c390916040518263ffffffff1660e01b81526004018082815260200191505060206040518083038186803b158015611ff657600080fd5b505af415801561200a573d6000803e3d6000fd5b505050506040513d602081101561202057600080fd5b81019080805190602001909291905050509050919050565b600080600660008473ffffffffffffffffffffffffffffffffffffffff1673ffffffffffffffffffffffffffffffffffffffff16815260200190815260200160002054141561208b5760055490506120ce565b600660008373ffffffffffffffffffffffffffffffffffffffff1673ffffffffffffffffffffffffffffffffffffffff1681526020019081526020016000205490505b919050565b6120db612e93565b61214d576040517f08c379a00000000000000000000000000000000000000000000000000000000081526004018080602001828103825260208152602001807f4f776e61626c653a2063616c6c6572206973206e6f7420746865206f776e657281525060200191505060405180910390fd5b600073ffffffffffffffffffffffffffffffffffffffff166000809054906101000a900473ffffffffffffffffffffffffffffffffffffffff1673ffffffffffffffffffffffffffffffffffffffff167f8be0079c531659141344cd1fd0a4f28419497f9722a3daafe3b4186f6b6457e060405160405180910390a360008060006101000a81548173ffffffffffffffffffffffffffffffffffffffff021916908373ffffffffffffffffffffffffffffffffffffffff160217905550565b60086020528060005260406000206000915090508060000160009054906101000a900473ffffffffffffffffffffffffffffffffffffffff16905081565b83600360008273ffffffffffffffffffffffffffffffffffffffff1673ffffffffffffffffffffffffffffffffffffffff16815260200190815260200160002060003373ffffffffffffffffffffffffffffffffffffffff1673ffffffffffffffffffffffffffffffffffffffff16815260200190815260200160002060009054906101000a900460ff1661232a576040517f08c379a0000000000000000000000000000000000000000000000000000000008152600401808060200182810382526027815260200180614b086027913960400191505060405180910390fd5b6000600160008773ffffffffffffffffffffffffffffffffffffffff1673ffffffffffffffffffffffffffffffffffffffff16815260200190815260200160002073__AddressSortedLinkedListWithMedian_____6359d556a890916040518263ffffffff1660e01b81526004018082815260200191505060206040518083038186803b1580156123bb57600080fd5b505af41580156123cf573d6000803e3d6000fd5b505050506040513d60208110156123e557600080fd5b81019080805190602001909291905050509050600160008773ffffffffffffffffffffffffffffffffffffffff1673ffffffffffffffffffffffffffffffffffffffff16815260200190815260200160002073__AddressSortedLinkedListWithMedian_____6395073a799091336040518363ffffffff1660e01b8152600401808381526020018273ffffffffffffffffffffffffffffffffffffffff1673ffffffffffffffffffffffffffffffffffffffff1681526020019250505060206040518083038186803b1580156124bb57600080fd5b505af41580156124cf573d6000803e3d6000fd5b505050506040513d60208110156124e557600080fd5b81019080805190602001909291905050501561272657600160008773ffffffffffffffffffffffffffffffffffffffff1673ffffffffffffffffffffffffffffffffffffffff16815260200190815260200160002073__AddressSortedLinkedListWithMedian_____63832a21479091338888886040518663ffffffff1660e01b8152600401808681526020018573ffffffffffffffffffffffffffffffffffffffff1673ffffffffffffffffffffffffffffffffffffffff1681526020018481526020018373ffffffffffffffffffffffffffffffffffffffff1673ffffffffffffffffffffffffffffffffffffffff1681526020018273ffffffffffffffffffffffffffffffffffffffff1673ffffffffffffffffffffffffffffffffffffffff1681526020019550505050505060006040518083038186803b15801561262e57600080fd5b505af4158015612642573d6000803e3d6000fd5b50505050600260008773ffffffffffffffffffffffffffffffffffffffff1673ffffffffffffffffffffffffffffffffffffffff16815260200190815260200160002073__AddressSortedLinkedListWithMedian_____63c1e728e99091336040518363ffffffff1660e01b8152600401808381526020018273ffffffffffffffffffffffffffffffffffffffff1673ffffffffffffffffffffffffffffffffffffffff1681526020019250505060006040518083038186803b15801561270957600080fd5b505af415801561271d573d6000803e3d6000fd5b50505050612872565b600160008773ffffffffffffffffffffffffffffffffffffffff1673ffffffffffffffffffffffffffffffffffffffff16815260200190815260200160002073__AddressSortedLinkedListWithMedian_____63d4a092729091338888886040518663ffffffff1660e01b8152600401808681526020018573ffffffffffffffffffffffffffffffffffffffff1673ffffffffffffffffffffffffffffffffffffffff1681526020018481526020018373ffffffffffffffffffffffffffffffffffffffff1673ffffffffffffffffffffffffffffffffffffffff1681526020018273ffffffffffffffffffffffffffffffffffffffff1673ffffffffffffffffffffffffffffffffffffffff1681526020019550505050505060006040518083038186803b15801561285957600080fd5b505af415801561286d573d6000803e3d6000fd5b505050505b600260008773ffffffffffffffffffffffffffffffffffffffff1673ffffffffffffffffffffffffffffffffffffffff16815260200190815260200160002073__AddressSortedLinkedListWithMedian_____63d4a0927290913342600260008c73ffffffffffffffffffffffffffffffffffffffff1673ffffffffffffffffffffffffffffffffffffffff16815260200190815260200160002073__AddressSortedLinkedListWithMedian_____630944c59490916040518263ffffffff1660e01b81526004018082815260200191505060206040518083038186803b15801561295e57600080fd5b505af4158015612972573d6000803e3d6000fd5b505050506040513d602081101561298857600080fd5b810190808051906020019092919050505060006040518663ffffffff1660e01b8152600401808681526020018573ffffffffffffffffffffffffffffffffffffffff1673ffffffffffffffffffffffffffffffffffffffff1681526020018481526020018373ffffffffffffffffffffffffffffffffffffffff1673ffffffffffffffffffffffffffffffffffffffff1681526020018273ffffffffffffffffffffffffffffffffffffffff1673ffffffffffffffffffffffffffffffffffffffff1681526020019550505050505060006040518083038186803b158015612a6f57600080fd5b505af4158015612a83573d6000803e3d6000fd5b505050503373ffffffffffffffffffffffffffffffffffffffff168673ffffffffffffffffffffffffffffffffffffffff167f7cebb17173a9ed273d2b7538f64395c0ebf352ff743f1cf8ce66b437a61442134288604051808381526020018281526020019250505060405180910390a36000600160008873ffffffffffffffffffffffffffffffffffffffff1673ffffffffffffffffffffffffffffffffffffffff16815260200190815260200160002073__AddressSortedLinkedListWithMedian_____6359d556a890916040518263ffffffff1660e01b81526004018082815260200191505060206040518083038186803b158015612b8557600080fd5b505af4158015612b99573d6000803e3d6000fd5b505050506040513d6020811015612baf57600080fd5b81019080805190602001909291905050509050818114612c18578673ffffffffffffffffffffffffffffffffffffffff167fa9981ebfc3b766a742486e898f54959b050a66006dbce1a4155c1f84a08bcf41826040518082815260200191505060405180910390a25b600073ffffffffffffffffffffffffffffffffffffffff16600760009054906101000a900473ffffffffffffffffffffffffffffffffffffffff1673ffffffffffffffffffffffffffffffffffffffff1614612d2857600760009054906101000a900473ffffffffffffffffffffffffffffffffffffffff1673ffffffffffffffffffffffffffffffffffffffff1663ab02e6c0886040518263ffffffff1660e01b8152600401808273ffffffffffffffffffffffffffffffffffffffff1673ffffffffffffffffffffffffffffffffffffffff168152602001915050600060405180830381600087803b158015612d0f57600080fd5b505af1158015612d23573d6000803e3d6000fd5b505050505b50505050505050565b6000600860008373ffffffffffffffffffffffffffffffffffffffff1673ffffffffffffffffffffffffffffffffffffffff16815260200190815260200160002060000160009054906101000a900473ffffffffffffffffffffffffffffffffffffffff169050919050565b60008060009054906101000a900473ffffffffffffffffffffffffffffffffffffffff16905090565b6060600460008373ffffffffffffffffffffffffffffffffffffffff1673ffffffffffffffffffffffffffffffffffffffff168152602001908152602001600020805480602002602001604051908101604052809291908181526020018280548015612e8757602002820191906000526020600020905b8160009054906101000a900473ffffffffffffffffffffffffffffffffffffffff1673ffffffffffffffffffffffffffffffffffffffff1681526020019060010190808311612e3d575b50505050509050919050565b60008060009054906101000a900473ffffffffffffffffffffffffffffffffffffffff1673ffffffffffffffffffffffffffffffffffffffff16612ed56147a0565b73ffffffffffffffffffffffffffffffffffffffff1614905090565b60046020528160005260406000208181548110612f0a57fe5b906000526020600020016000915091509054906101000a900473ffffffffffffffffffffffffffffffffffffffff1681565b6060806060600260008573ffffffffffffffffffffffffffffffffffffffff1673ffffffffffffffffffffffffffffffffffffffff16815260200190815260200160002073__AddressSortedLinkedListWithMedian_____636cfa387390916040518263ffffffff1660e01b81526004018082815260200191505060006040518083038186803b158015612fd057600080fd5b505af4158015612fe4573d6000803e3d6000fd5b505050506040513d6000823e3d601f19601f82011682018060405250606081101561300e57600080fd5b810190808051604051939291908464010000000082111561302e57600080fd5b8382019150602082018581111561304457600080fd5b825186602082028301116401000000008211171561306157600080fd5b8083526020830192505050908051906020019060200280838360005b8381101561309857808201518184015260208101905061307d565b50505050905001604052602001805160405193929190846401000000008211156130c157600080fd5b838201915060208201858111156130d757600080fd5b82518660208202830111640100000000821117156130f457600080fd5b8083526020830192505050908051906020019060200280838360005b8381101561312b578082015181840152602081019050613110565b505050509050016040526020018051604051939291908464010000000082111561315457600080fd5b8382019150602082018581111561316a57600080fd5b825186602082028301116401000000008211171561318757600080fd5b8083526020830192505050908051906020019060200280838360005b838110156131be5780820151818401526020810190506131a3565b505050509050016040525050509250925092509193909250565b6000600160008373ffffffffffffffffffffffffffffffffffffffff1673ffffffffffffffffffffffffffffffffffffffff16815260200190815260200160002073__AddressSortedLinkedListWithMedian_____636eafa6c390916040518263ffffffff1660e01b81526004018082815260200191505060206040518083038186803b15801561326957600080fd5b505af415801561327d573d6000803e3d6000fd5b505050506040513d602081101561329357600080fd5b81019080805190602001909291905050509050919050565b600073ffffffffffffffffffffffffffffffffffffffff168273ffffffffffffffffffffffffffffffffffffffff16141580156133b05750600260008373ffffffffffffffffffffffffffffffffffffffff1673ffffffffffffffffffffffffffffffffffffffff16815260200190815260200160002073__AddressSortedLinkedListWithMedian_____636eafa6c390916040518263ffffffff1660e01b81526004018082815260200191505060206040518083038186803b15801561337257600080fd5b505af4158015613386573d6000803e3d6000fd5b505050506040513d602081101561339c57600080fd5b810190808051906020019092919050505081105b613405576040517f08c379a0000000000000000000000000000000000000000000000000000000008152600401808060200182810382526034815260200180614a7e6034913960400191505060405180910390fd5b60008090505b8181101561345c5760008061341f85613dbc565b91509150811561343857613433858261425f565b61343f565b505061345c565b50506134556001826147a890919063ffffffff16565b905061340b565b505050565b613469612e93565b6134db576040517f08c379a00000000000000000000000000000000000000000000000000000000081526004018080602001828103825260208152602001807f4f776e61626c653a2063616c6c6572206973206e6f7420746865206f776e657281525060200191505060405180910390fd5b60008111613534576040517f08c379a0000000000000000000000000000000000000000000000000000000008152600401808060200182810382526021815260200180614bd76021913960400191505060405180910390fd5b60055481141561358f576040517f08c379a0000000000000000000000000000000000000000000000000000000008152600401808060200182810382526022815260200180614bb56022913960400191505060405180910390fd5b806005819055507fc68a9b88effd8a11611ff410efbc83569f0031b7bc70dd455b61344c7f0a042f816040518082815260200191505060405180910390a150565b6000806000600860008573ffffffffffffffffffffffffffffffffffffffff1673ffffffffffffffffffffffffffffffffffffffff1681526020019081526020016000209050600073ffffffffffffffffffffffffffffffffffffffff168160000160009054906101000a900473ffffffffffffffffffffffffffffffffffffffff1673ffffffffffffffffffffffffffffffffffffffff16146136b05760008061369e8360000160009054906101000a900473ffffffffffffffffffffffffffffffffffffffff16611e6c565b915091508181945094505050506136bf565b6136b984611e6c565b92509250505b915091565b6000806136d0836135d0565b8092508193505050915091565b6136e5612e93565b613757576040517f08c379a00000000000000000000000000000000000000000000000000000000081526004018080602001828103825260208152602001807f4f776e61626c653a2063616c6c6572206973206e6f7420746865206f776e657281525060200191505060405180910390fd5b600073ffffffffffffffffffffffffffffffffffffffff168273ffffffffffffffffffffffffffffffffffffffff16141580156137c15750600073ffffffffffffffffffffffffffffffffffffffff168173ffffffffffffffffffffffffffffffffffffffff1614155b80156138545750600360008373ffffffffffffffffffffffffffffffffffffffff1673ffffffffffffffffffffffffffffffffffffffff16815260200190815260200160002060008273ffffffffffffffffffffffffffffffffffffffff1673ffffffffffffffffffffffffffffffffffffffff16815260200190815260200160002060009054906101000a900460ff16155b6138a9576040517f08c379a000000000000000000000000000000000000000000000000000000000815260040180806020018281038252605e815260200180614b2f605e913960600191505060405180910390fd5b6001600360008473ffffffffffffffffffffffffffffffffffffffff1673ffffffffffffffffffffffffffffffffffffffff16815260200190815260200160002060008373ffffffffffffffffffffffffffffffffffffffff1673ffffffffffffffffffffffffffffffffffffffff16815260200190815260200160002060006101000a81548160ff021916908315150217905550600460008373ffffffffffffffffffffffffffffffffffffffff1673ffffffffffffffffffffffffffffffffffffffff1681526020019081526020016000208190806001815401808255809150509060018203906000526020600020016000909192909190916101000a81548173ffffffffffffffffffffffffffffffffffffffff021916908373ffffffffffffffffffffffffffffffffffffffff160217905550508073ffffffffffffffffffffffffffffffffffffffff168273ffffffffffffffffffffffffffffffffffffffff167f828d2be040dede7698182e08dfa8bfbd663c879aee772509c4a2bd961d0ed43f60405160405180910390a35050565b613a47612e93565b613ab9576040517f08c379a00000000000000000000000000000000000000000000000000000000081526004018080602001828103825260208152602001807f4f776e61626c653a2063616c6c6572206973206e6f7420746865206f776e657281525060200191505060405180910390fd5b613ac281614830565b50565b600760009054906101000a900473ffffffffffffffffffffffffffffffffffffffff1681565b613af3612e93565b613b65576040517f08c379a00000000000000000000000000000000000000000000000000000000081526004018080602001828103825260208152602001807f4f776e61626c653a2063616c6c6572206973206e6f7420746865206f776e657281525060200191505060405180910390fd5b60008111613bbe576040517f08c379a0000000000000000000000000000000000000000000000000000000008152600401808060200182810382526021815260200180614bd76021913960400191505060405180910390fd5b600660008373ffffffffffffffffffffffffffffffffffffffff1673ffffffffffffffffffffffffffffffffffffffff16815260200190815260200160002054811415613c56576040517f08c379a0000000000000000000000000000000000000000000000000000000008152600401808060200182810382526028815260200180614b8d6028913960400191505060405180910390fd5b80600660008473ffffffffffffffffffffffffffffffffffffffff1673ffffffffffffffffffffffffffffffffffffffff168152602001908152602001600020819055507ff8324c8592dfd9991ee3e717351afe0a964605257959e3d99b0eb3d45bff94228282604051808373ffffffffffffffffffffffffffffffffffffffff1673ffffffffffffffffffffffffffffffffffffffff1681526020018281526020019250505060405180910390a15050565b600060149054906101000a900460ff1615613d8c576040517f08c379a000000000000000000000000000000000000000000000000000000000815260040180806020018281038252601c8152602001807f636f6e747261637420616c726561647920696e697469616c697a65640000000081525060200191505060405180910390fd5b6001600060146101000a81548160ff021916908315150217905550613db033614830565b613db981613461565b50565b600080600073ffffffffffffffffffffffffffffffffffffffff168373ffffffffffffffffffffffffffffffffffffffff161415613df957600080fd5b6000600260008573ffffffffffffffffffffffffffffffffffffffff1673ffffffffffffffffffffffffffffffffffffffff16815260200190815260200160002073__AddressSortedLinkedListWithMedian_____63d938ec7b90916040518263ffffffff1660e01b81526004018082815260200191505060206040518083038186803b158015613e8a57600080fd5b505af4158015613e9e573d6000803e3d6000fd5b505050506040513d6020811015613eb457600080fd5b810190808051906020019092919050505090506000600260008673ffffffffffffffffffffffffffffffffffffffff1673ffffffffffffffffffffffffffffffffffffffff16815260200190815260200160002073__AddressSortedLinkedListWithMedian_____637c6bb8629091846040518363ffffffff1660e01b8152600401808381526020018273ffffffffffffffffffffffffffffffffffffffff1673ffffffffffffffffffffffffffffffffffffffff1681526020019250505060206040518083038186803b158015613f8c57600080fd5b505af4158015613fa0573d6000803e3d6000fd5b505050506040513d6020811015613fb657600080fd5b81019080805190602001909291905050509050613fd285612038565b613fe5824261400790919063ffffffff16565b10613ff857600182935093505050614002565b6000829350935050505b915091565b600061404983836040518060400160405280601e81526020017f536166654d6174683a207375627472616374696f6e206f766572666c6f770000815250614974565b905092915050565b6000600160008473ffffffffffffffffffffffffffffffffffffffff1673ffffffffffffffffffffffffffffffffffffffff16815260200190815260200160002073__AddressSortedLinkedListWithMedian_____6395073a799091846040518363ffffffff1660e01b8152600401808381526020018273ffffffffffffffffffffffffffffffffffffffff1673ffffffffffffffffffffffffffffffffffffffff1681526020019250505060206040518083038186803b15801561411657600080fd5b505af415801561412a573d6000803e3d6000fd5b505050506040513d602081101561414057600080fd5b810190808051906020019092919050505080156142575750600260008473ffffffffffffffffffffffffffffffffffffffff1673ffffffffffffffffffffffffffffffffffffffff16815260200190815260200160002073__AddressSortedLinkedListWithMedian_____6395073a799091846040518363ffffffff1660e01b8152600401808381526020018273ffffffffffffffffffffffffffffffffffffffff1673ffffffffffffffffffffffffffffffffffffffff1681526020019250505060206040518083038186803b15801561421b57600080fd5b505af415801561422f573d6000803e3d6000fd5b505050506040513d602081101561424557600080fd5b81019080805190602001909291905050505b905092915050565b600161426a83611f65565b14801561427d575061427c8282614051565b5b156142875761479c565b6000600160008473ffffffffffffffffffffffffffffffffffffffff1673ffffffffffffffffffffffffffffffffffffffff16815260200190815260200160002073__AddressSortedLinkedListWithMedian_____6359d556a890916040518263ffffffff1660e01b81526004018082815260200191505060206040518083038186803b15801561431857600080fd5b505af415801561432c573d6000803e3d6000fd5b505050506040513d602081101561434257600080fd5b81019080805190602001909291905050509050600160008473ffffffffffffffffffffffffffffffffffffffff1673ffffffffffffffffffffffffffffffffffffffff16815260200190815260200160002073__AddressSortedLinkedListWithMedian_____63c1e728e99091846040518363ffffffff1660e01b8152600401808381526020018273ffffffffffffffffffffffffffffffffffffffff1673ffffffffffffffffffffffffffffffffffffffff1681526020019250505060006040518083038186803b15801561441857600080fd5b505af415801561442c573d6000803e3d6000fd5b50505050600260008473ffffffffffffffffffffffffffffffffffffffff1673ffffffffffffffffffffffffffffffffffffffff16815260200190815260200160002073__AddressSortedLinkedListWithMedian_____63c1e728e99091846040518363ffffffff1660e01b8152600401808381526020018273ffffffffffffffffffffffffffffffffffffffff1673ffffffffffffffffffffffffffffffffffffffff1681526020019250505060006040518083038186803b1580156144f357600080fd5b505af4158015614507573d6000803e3d6000fd5b505050508173ffffffffffffffffffffffffffffffffffffffff168373ffffffffffffffffffffffffffffffffffffffff167fe21a44017b6fa1658d84e937d56ff408501facdb4ff7427c479ac460d76f789360405160405180910390a36000600160008573ffffffffffffffffffffffffffffffffffffffff1673ffffffffffffffffffffffffffffffffffffffff16815260200190815260200160002073__AddressSortedLinkedListWithMedian_____6359d556a890916040518263ffffffff1660e01b81526004018082815260200191505060206040518083038186803b1580156145f657600080fd5b505af415801561460a573d6000803e3d6000fd5b505050506040513d602081101561462057600080fd5b81019080805190602001909291905050509050818114614799578373ffffffffffffffffffffffffffffffffffffffff167fa9981ebfc3b766a742486e898f54959b050a66006dbce1a4155c1f84a08bcf41826040518082815260200191505060405180910390a2600073ffffffffffffffffffffffffffffffffffffffff16600760009054906101000a900473ffffffffffffffffffffffffffffffffffffffff1673ffffffffffffffffffffffffffffffffffffffff161461479857600760009054906101000a900473ffffffffffffffffffffffffffffffffffffffff1673ffffffffffffffffffffffffffffffffffffffff1663ab02e6c0856040518263ffffffff1660e01b8152600401808273ffffffffffffffffffffffffffffffffffffffff1673ffffffffffffffffffffffffffffffffffffffff168152602001915050600060405180830381600087803b15801561477f57600080fd5b505af1158015614793573d6000803e3d6000fd5b505050505b5b50505b5050565b600033905090565b600080828401905083811015614826576040517f08c379a000000000000000000000000000000000000000000000000000000000815260040180806020018281038252601b8152602001807f536166654d6174683a206164646974696f6e206f766572666c6f77000000000081525060200191505060405180910390fd5b8091505092915050565b600073ffffffffffffffffffffffffffffffffffffffff168173ffffffffffffffffffffffffffffffffffffffff1614156148b6576040517f08c379a0000000000000000000000000000000000000000000000000000000008152600401808060200182810382526026815260200180614a586026913960400191505060405180910390fd5b8073ffffffffffffffffffffffffffffffffffffffff166000809054906101000a900473ffffffffffffffffffffffffffffffffffffffff1673ffffffffffffffffffffffffffffffffffffffff167f8be0079c531659141344cd1fd0a4f28419497f9722a3daafe3b4186f6b6457e060405160405180910390a3806000806101000a81548173ffffffffffffffffffffffffffffffffffffffff021916908373ffffffffffffffffffffffffffffffffffffffff16021790555050565b6000838311158290614a21576040517f08c379a00000000000000000000000000000000000000000000000000000000081526004018080602001828103825283818151815260200191508051906020019080838360005b838110156149e65780820151818401526020810190506149cb565b50505050905090810190601f168015614a135780820380516001836020036101000a031916815260200191505b509250505060405180910390fd5b506000838503905080915050939250505056fe6571756976616c656e74546f6b656e20616464726573732063616e6e6f7420626520304f776e61626c653a206e6577206f776e657220697320746865207a65726f2061646472657373746f6b656e2061646472206e756c6c206f7220747279696e6720746f2072656d6f766520746f6f206d616e79207265706f727473746f6b656e2061646472206e756c6c206f72206f7261636c652061646472206e756c6c206f7220696e646578206f6620746f6b656e206f7261636c65206e6f74206d617070656420746f206f7261636c65206164647273656e64657220776173206e6f7420616e206f7261636c6520666f7220746f6b656e2061646472746f6b656e206164647220776173206e756c6c206f72206f7261636c65206164647220776173206e756c6c206f72206f7261636c65206164647220697320616c726561647920616e206f7261636c6520666f7220746f6b656e2061646472746f6b656e207265706f72744578706972795365636f6e6473206861736e2774206368616e6765647265706f72744578706972795365636f6e6473206861736e2774206368616e6765647265706f727420657870697279207365636f6e6473206d757374206265203e2030a265627a7a723158203daa57540b400f24b4fbc4c054fc2393fd7762ac7683a3fa82d9bb2eda97df2c64736f6c634300050d0032",
  "source": "// SPDX-License-Identifier: GPL-3.0-or-later\npragma solidity ^0.5.13;\n\nimport \"openzeppelin-solidity/contracts/math/SafeMath.sol\";\nimport \"openzeppelin-solidity/contracts/ownership/Ownable.sol\";\n\nimport \"./interfaces/ISortedOracles.sol\";\nimport \"./interfaces/ISortedOraclesInitializer.sol\";\nimport \"../common/interfaces/ICeloVersionedContract.sol\";\nimport \"./interfaces/IBreakerBox.sol\";\n\nimport \"../common/FixidityLib.sol\";\nimport \"../common/Initializable.sol\";\nimport \"../common/linkedlists/AddressSortedLinkedListWithMedian.sol\";\nimport \"../common/linkedlists/SortedLinkedListWithMedian.sol\";\nimport \"../../contracts-0.8/common/interfaces/IOracle.sol\";\n\n/**\n * @title   SortedOracles\n *\n * @notice  This contract stores a collection of exchange rates with CELO\n *          expressed in units of other assets. The most recent exchange rates\n *          are gathered off-chain by oracles, who then use the `report` function to\n *          submit the rates to this contract. Before submitting a rate report, an\n *          oracle's address must be added to the `isOracle` mapping for a specific\n *          rateFeedId, with the flag set to true. While submitting a report requires\n *          an address to be added to the mapping, no additional permissions are needed\n *          to read the reports, the calculated median rate, or the list of oracles.\n *\n * @dev     A unique rateFeedId identifies each exchange rate. In the initial implementation\n *          of this contract, the rateFeedId was set as the address of the stable\n *          asset contract that used the rate. However, this implementation has since\n *          been updated, and the rateFeedId now also refers to an address derived from the\n *          concatenation other asset symbols. This change enables the contract to store multiple exchange rates for a\n *          single token. As a result of this change, there may be instances\n *          where the term \"token\" is used in the contract code. These useages of the term\n *          \"token\" are actually referring to the rateFeedId.\n *\n */\ncontract SortedOracles is\n  ISortedOracles,\n  ISortedOraclesInitializer,\n  IOracle,\n  ICeloVersionedContract,\n  Ownable,\n  Initializable\n{\n  using SafeMath for uint256;\n  using AddressSortedLinkedListWithMedian for SortedLinkedListWithMedian.List;\n  using FixidityLib for FixidityLib.Fraction;\n\n  struct EquivalentToken {\n    address token;\n  }\n\n  uint256 private constant FIXED1_UINT = 1e24;\n\n  // Maps a rateFeedID to a sorted list of report values.\n  mapping(address => SortedLinkedListWithMedian.List) private rates;\n  // Maps a rateFeedID to a sorted list of report timestamps.\n  mapping(address => SortedLinkedListWithMedian.List) private timestamps;\n  mapping(address => mapping(address => bool)) public isOracle;\n  mapping(address => address[]) public oracles;\n\n  // `reportExpirySeconds` is the fallback value used to determine reporting\n  // frequency. Initially it was the _only_ value but we later introduced\n  // the per token mapping in `tokenReportExpirySeconds`. If a token\n  // doesn't have a value in the mapping (i.e. it's 0), the fallback is used.\n  // See: #getTokenReportExpirySeconds\n  uint256 public reportExpirySeconds;\n  // Maps a rateFeedId to its report expiry time in seconds.\n  mapping(address => uint256) public tokenReportExpirySeconds;\n\n  IBreakerBox public breakerBox;\n  // Maps a token address to its equivalent token address.\n  // Original token will return the median value same as the value of equivalent token.\n  mapping(address => EquivalentToken) public equivalentTokens;\n\n  event OracleAdded(address indexed token, address indexed oracleAddress);\n  event OracleRemoved(address indexed token, address indexed oracleAddress);\n  event OracleReported(\n    address indexed token,\n    address indexed oracle,\n    uint256 timestamp,\n    uint256 value\n  );\n  event OracleReportRemoved(address indexed token, address indexed oracle);\n  event MedianUpdated(address indexed token, uint256 value);\n  event ReportExpirySet(uint256 reportExpiry);\n  event TokenReportExpirySet(address token, uint256 reportExpiry);\n  event BreakerBoxUpdated(address indexed newBreakerBox);\n  event EquivalentTokenSet(address indexed token, address indexed equivalentToken);\n\n  modifier onlyOracle(address token) {\n    require(isOracle[token][msg.sender], \"sender was not an oracle for token addr\");\n    _;\n  }\n\n  /**\n   * @notice Sets initialized == true on implementation contracts\n   * @param test Set to true to skip implementation initialization\n   */\n  constructor(bool test) public Initializable(test) {}\n\n  /**\n   * @notice Used in place of the constructor to allow the contract to be upgradable via proxy.\n   * @param _reportExpirySeconds The number of seconds before a report is considered expired.\n   */\n  function initialize(uint256 _reportExpirySeconds) external initializer {\n    _transferOwnership(msg.sender);\n    setReportExpiry(_reportExpirySeconds);\n  }\n\n  /**\n   * @notice Sets the report expiry parameter for a rateFeedId.\n   * @param _token The token for which the report expiry is being set.\n   * @param _reportExpirySeconds The number of seconds before a report is considered expired.\n   */\n  function setTokenReportExpiry(address _token, uint256 _reportExpirySeconds) external onlyOwner {\n    require(_reportExpirySeconds > 0, \"report expiry seconds must be > 0\");\n    require(\n      _reportExpirySeconds != tokenReportExpirySeconds[_token],\n      \"token reportExpirySeconds hasn't changed\"\n    );\n    tokenReportExpirySeconds[_token] = _reportExpirySeconds;\n    emit TokenReportExpirySet(_token, _reportExpirySeconds);\n  }\n\n  /**\n   * @notice Adds a new Oracle for a specified rate feed.\n   * @param token The token for which the specified oracle is to be added.\n   * @param oracleAddress The address of the oracle.\n   */\n  function addOracle(address token, address oracleAddress) external onlyOwner {\n    // solhint-disable-next-line reason-string\n    require(\n      token != address(0) && oracleAddress != address(0) && !isOracle[token][oracleAddress],\n      \"token addr was null or oracle addr was null or oracle addr is already an oracle for token addr\"\n    );\n    isOracle[token][oracleAddress] = true;\n    oracles[token].push(oracleAddress);\n    emit OracleAdded(token, oracleAddress);\n  }\n\n  /**\n   * @notice Removes an Oracle from a specified rate feed.\n   * @param token The token from which the specified oracle is to be removed.\n   * @param oracleAddress The address of the oracle.\n   * @param index The index of `oracleAddress` in the list of oracles.\n   */\n  function removeOracle(address token, address oracleAddress, uint256 index) external onlyOwner {\n    // solhint-disable-next-line reason-string\n    require(\n      token != address(0) &&\n        oracleAddress != address(0) &&\n        oracles[token].length > index &&\n        oracles[token][index] == oracleAddress,\n      \"token addr null or oracle addr null or index of token oracle not mapped to oracle addr\"\n    );\n    isOracle[token][oracleAddress] = false;\n    oracles[token][index] = oracles[token][oracles[token].length.sub(1)];\n    oracles[token].pop();\n    if (reportExists(token, oracleAddress)) {\n      removeReport(token, oracleAddress);\n    }\n    emit OracleRemoved(token, oracleAddress);\n  }\n\n  /**\n   * @notice Removes a report that is expired.\n   * @param token The token for which the expired report is to be removed.\n   * @param n The number of expired reports to remove, at most (deterministic upper gas bound).\n   */\n  function removeExpiredReports(address token, uint256 n) external {\n    require(\n      token != address(0) && n < timestamps[token].getNumElements(),\n      \"token addr null or trying to remove too many reports\"\n    );\n    for (uint256 i = 0; i < n; i = i.add(1)) {\n      (bool isExpired, address oldestAddress) = isOldestReportExpired(token);\n      if (isExpired) {\n        removeReport(token, oldestAddress);\n      } else {\n        break;\n      }\n    }\n  }\n\n  /**\n   * @notice Sets the equivalent token for a token.\n   * @param token The address of the token.\n   * @param equivalentToken The address of the equivalent token.\n   */\n  function setEquivalentToken(address token, address equivalentToken) external onlyOwner {\n    require(token != address(0), \"token address cannot be 0\");\n    require(equivalentToken != address(0), \"equivalentToken address cannot be 0\");\n    equivalentTokens[token] = EquivalentToken(equivalentToken);\n    emit EquivalentTokenSet(token, equivalentToken);\n  }\n\n  /**\n   * @notice Sets the equivalent token for a token.\n   * @param token The address of the token.\n   */\n  function deleteEquivalentToken(address token) external onlyOwner {\n    require(token != address(0), \"token address cannot be 0\");\n    delete equivalentTokens[token];\n    emit EquivalentTokenSet(token, address(0));\n  }\n\n  /**\n   * @notice Updates an oracle value and the median.\n   * @param token The token for which the rate is being reported.\n   * @param value The number of stable asset that equate to one unit of collateral asset, for the\n   *              specified rateFeedId, expressed as a fixidity value.\n   * @param lesserKey The element which should be just left of the new oracle value.\n   * @param greaterKey The element which should be just right of the new oracle value.\n   * @dev Note that only one of `lesserKey` or `greaterKey` needs to be correct to reduce friction.\n   */\n  function report(\n    address token,\n    uint256 value,\n    address lesserKey,\n    address greaterKey\n  ) external onlyOracle(token) {\n    uint256 originalMedian = rates[token].getMedianValue();\n    if (rates[token].contains(msg.sender)) {\n      rates[token].update(msg.sender, value, lesserKey, greaterKey);\n\n      // Rather than update the timestamp, we remove it and re-add it at the\n      // head of the list later. The reason for this is that we need to handle\n      // a few different cases:\n      //   1. This oracle is the only one to report so far. lesserKey = address(0)\n      //   2. Other oracles have reported since this one's last report. lesserKey = getHead()\n      //   3. Other oracles have reported, but the most recent is this one.\n      //      lesserKey = key immediately after getHead()\n      //\n      // However, if we just remove this timestamp, timestamps[token].getHead()\n      // does the right thing in all cases.\n      timestamps[token].remove(msg.sender);\n    } else {\n      rates[token].insert(msg.sender, value, lesserKey, greaterKey);\n    }\n    timestamps[token].insert(\n      msg.sender,\n      // solhint-disable-next-line not-rely-on-time\n      now,\n      timestamps[token].getHead(),\n      address(0)\n    );\n    emit OracleReported(token, msg.sender, now, value);\n    uint256 newMedian = rates[token].getMedianValue();\n    if (newMedian != originalMedian) {\n      emit MedianUpdated(token, newMedian);\n    }\n\n    if (address(breakerBox) != address(0)) {\n      breakerBox.checkAndSetBreakers(token);\n    }\n  }\n\n  /**\n   * @notice Gets the equivalent token for a token.\n   * @param token The address of the token.\n   * @return The address of the equivalent token.\n   */\n  function getEquivalentToken(address token) external view returns (address) {\n    return (equivalentTokens[token].token);\n  }\n\n  /**\n   * @notice Returns the median timestamp.\n   * @dev Does not take the equivalentTokens mapping into account.\n   * For that, the underlying token should be queried.\n   * @param token The token for which the median timestamp is being retrieved.\n   * @return uint256 The median report timestamp for the specified rateFeedId.\n   */\n  function medianTimestamp(address token) external view returns (uint256) {\n    return timestamps[token].getMedianValue();\n  }\n\n  /**\n   * @notice Gets all elements from the doubly linked list.\n   * @dev Does not take the equivalentTokens mapping into account.\n   * For that, the underlying token should be queried.\n   * @param token The token for which the timestamps are being retrieved.\n   * @return keys Keys of nn unpacked list of elements from largest to smallest.\n   * @return values Values of an unpacked list of elements from largest to smallest.\n   * @return relations Relations of an unpacked list of elements from largest to smallest.\n   */\n  function getTimestamps(\n    address token\n  )\n    external\n    view\n    returns (address[] memory, uint256[] memory, SortedLinkedListWithMedian.MedianRelation[] memory)\n  {\n    return timestamps[token].getElements();\n  }\n\n  /**\n   * @notice Returns the list of oracles for a speficied rateFeedId.\n   * @dev Does not take the equivalentTokens mapping into account.\n   * For that, the underlying token should be queried.\n   * @param token The token for which the oracles are being retrieved.\n   * @return address[] A list of oracles for the given rateFeedId.\n   */\n  function getOracles(address token) external view returns (address[] memory) {\n    return oracles[token];\n  }\n\n  /**\n   * @notice Gets all elements from the doubly linked list.\n   * @dev Does not take the equivalentTokens mapping into account.\n   * For that, the underlying token should be queried.\n   * @param token The token for which the rates are being retrieved.\n   * @return keys Keys of an unpacked list of elements from largest to smallest.\n   * @return values Values of an unpacked list of elements from largest to smallest.\n   * @return relations Relations of an unpacked list of elements from largest to smallest.\n   */\n  function getRates(\n    address token\n  )\n    external\n    view\n    returns (address[] memory, uint256[] memory, SortedLinkedListWithMedian.MedianRelation[] memory)\n  {\n    return rates[token].getElements();\n  }\n\n  /**\n   * @notice Returns the exchange rate for a specified token.\n   * @param token The token for which the exchange rate is being retrieved.\n   * @return uint256 The exchange rate for the specified token.\n   * @return uint256 The denominator for the exchange rate.\n   */\n  function getExchangeRate(\n    address token\n  ) external view returns (uint256 numerator, uint256 denominator) {\n    (numerator, denominator) = medianRate(token);\n  }\n\n  /**\n   * @notice Returns the storage, major, minor, and patch version of the contract.\n   * @return Storage version of the contract.\n   * @return Major version of the contract.\n   * @return Minor version of the contract.\n   * @return Patch version of the contract.\n   */\n  function getVersionNumber() external pure returns (uint256, uint256, uint256, uint256) {\n    return (1, 1, 4, 0);\n  }\n\n  /**\n   * @notice Sets the report expiry parameter.\n   * @param _reportExpirySeconds The number of seconds before a report is considered expired.\n   */\n  function setReportExpiry(uint256 _reportExpirySeconds) public onlyOwner {\n    require(_reportExpirySeconds > 0, \"report expiry seconds must be > 0\");\n    require(_reportExpirySeconds != reportExpirySeconds, \"reportExpirySeconds hasn't changed\");\n    reportExpirySeconds = _reportExpirySeconds;\n    emit ReportExpirySet(_reportExpirySeconds);\n  }\n\n  /**\n   * @notice Sets the address of the BreakerBox.\n   * @param newBreakerBox The new BreakerBox address.\n   */\n  function setBreakerBox(IBreakerBox newBreakerBox) public onlyOwner {\n    require(address(newBreakerBox) != address(0), \"BreakerBox address must be set\");\n    breakerBox = newBreakerBox;\n    emit BreakerBoxUpdated(address(newBreakerBox));\n  }\n\n  /**\n   * @notice Returns the median of the currently stored rates for a specified rateFeedId.\n   * @dev Please note that this function respects the equivalentToken mapping, and so may\n   * return the median identified as an equivalent to the supplied rateFeedId.\n   * @param token The token for which the median value is being retrieved.\n   * @return uint256 The median exchange rate for rateFeedId (fixidity).\n   * @return uint256 denominator\n   */\n  function medianRate(address token) public view returns (uint256, uint256) {\n    EquivalentToken storage equivalentToken = equivalentTokens[token];\n    if (equivalentToken.token != address(0)) {\n      (uint256 equivalentMedianRate, uint256 denominator) = medianRateWithoutEquivalentMapping(\n        equivalentToken.token\n      );\n      return (equivalentMedianRate, denominator);\n    }\n\n    return medianRateWithoutEquivalentMapping(token);\n  }\n\n  /**\n   * @notice Returns the number of rates that are currently stored for a specifed rateFeedId.\n   * @dev Does not take the equivalentTokens mapping into account.\n   * For that, the underlying token should be queried.\n   * @param token The token for which the number of rates is being retrieved.\n   * @return uint256 The number of reported oracle rates stored for the given rateFeedId.\n   */\n  function numRates(address token) public view returns (uint256) {\n    return rates[token].getNumElements();\n  }\n\n  /**\n   * @notice Check if last report is expired.\n   * @param token The token for which the expired report is to be checked.\n   * @return bool A bool indicating if the last report is expired.\n   * @return address Oracle address of the last report.\n   */\n  function isOldestReportExpired(address token) public view returns (bool, address) {\n    // solhint-disable-next-line reason-string\n    require(token != address(0));\n    address oldest = timestamps[token].getTail();\n    uint256 timestamp = timestamps[token].getValue(oldest);\n    // solhint-disable-next-line not-rely-on-time\n    if (now.sub(timestamp) >= getTokenReportExpirySeconds(token)) {\n      return (true, oldest);\n    }\n    return (false, oldest);\n  }\n\n  /**\n   * @notice Returns the median of the currently stored rates for a specified rateFeedId.\n   * @dev Does not take the equivalentTokens mapping into account.\n   * @param token The token for which the median value is being retrieved.\n   * @return uint256 The median exchange rate for rateFeedId (fixidity).\n   * @return uint256 denominator\n   */\n  function medianRateWithoutEquivalentMapping(\n    address token\n  ) public view returns (uint256, uint256) {\n    return (rates[token].getMedianValue(), numRates(token) == 0 ? 0 : FIXED1_UINT);\n  }\n\n  /**\n   * @notice Returns the number of timestamps.\n   * @dev Does not take the equivalentTokens mapping into account.\n   * For that, the underlying token should be queried.\n   * @param token The token for which the number of timestamps is being retrieved.\n   * @return uint256 The number of oracle report timestamps for the specified rateFeedId.\n   */\n  function numTimestamps(address token) public view returns (uint256) {\n    return timestamps[token].getNumElements();\n  }\n\n  /**\n   * @notice Returns the expiry for specified rateFeedId if it exists, if not the default is returned.\n   * @dev Does not take the equivalentTokens mapping into account.\n   * For that, the underlying token should be queried.\n   * @param token The token for which the report expiry is being retrieved.\n   * @return The report expiry in seconds.\n   */\n  function getTokenReportExpirySeconds(address token) public view returns (uint256) {\n    if (tokenReportExpirySeconds[token] == 0) {\n      return reportExpirySeconds;\n    }\n\n    return tokenReportExpirySeconds[token];\n  }\n\n  /**\n   * @notice Checks if a report exists for a specified rateFeedId from a given oracle.\n   * @dev Does not take the equivalentTokens mapping into account.\n   * For that, the underlying token should be queried.\n   * @param token The token for which the report should be checked.\n   * @param oracle The oracle whose report should be checked.\n   * @return bool True if a report exists, false otherwise.\n   */\n  function reportExists(address token, address oracle) internal view returns (bool) {\n    return rates[token].contains(oracle) && timestamps[token].contains(oracle);\n  }\n\n  /**\n   * @notice Removes an oracle value and updates the median.\n   * @dev Does not take the equivalentTokens mapping into account.\n   * For that, the underlying token should be queried.\n   * @param token The token for which the oracle report should be removed.\n   * @param oracle The oracle whose value should be removed.\n   * @dev This can be used to delete elements for oracles that have been removed.\n   * However, a > 1 elements reports list should always be maintained\n   */\n  function removeReport(address token, address oracle) private {\n    if (numTimestamps(token) == 1 && reportExists(token, oracle)) return;\n    uint256 originalMedian = rates[token].getMedianValue();\n    rates[token].remove(oracle);\n    timestamps[token].remove(oracle);\n    emit OracleReportRemoved(token, oracle);\n    uint256 newMedian = rates[token].getMedianValue();\n    if (newMedian != originalMedian) {\n      emit MedianUpdated(token, newMedian);\n      if (address(breakerBox) != address(0)) {\n        breakerBox.checkAndSetBreakers(token);\n      }\n    }\n  }\n}\n",
  "sourcePath": "/Users/beaver/Development/temp/celo-monorepo/packages/protocol/contracts/stability/SortedOracles.sol",
  "compiler": {
    "name": "solc",
    "version": "0.5.13+commit.5b0b510c.Emscripten.clang"
  },
  "schemaVersion": "3.4.13",
  "updatedAt": "2025-05-05T17:49:51.533Z",
  "devdoc": {
    "details": "A unique rateFeedId identifies each exchange rate. In the initial implementation         of this contract, the rateFeedId was set as the address of the stable         asset contract that used the rate. However, this implementation has since         been updated, and the rateFeedId now also refers to an address derived from the         concatenation other asset symbols. This change enables the contract to store multiple exchange rates for a         single token. As a result of this change, there may be instances         where the term \"token\" is used in the contract code. These useages of the term         \"token\" are actually referring to the rateFeedId. ",
    "methods": {
      "addOracle(address,address)": {
        "params": {
          "oracleAddress": "The address of the oracle.",
          "token": "The token for which the specified oracle is to be added."
        }
      },
      "constructor": {
        "params": {
          "test": "Set to true to skip implementation initialization"
        }
      },
      "deleteEquivalentToken(address)": {
        "params": {
          "token": "The address of the token."
        }
      },
      "getEquivalentToken(address)": {
        "params": {
          "token": "The address of the token."
        },
        "return": "The address of the equivalent token."
      },
      "getExchangeRate(address)": {
        "params": {
          "token": "The token for which the exchange rate is being retrieved."
        },
        "return": "uint256 The exchange rate for the specified token.uint256 The denominator for the exchange rate."
      },
      "getOracles(address)": {
        "details": "Does not take the equivalentTokens mapping into account. For that, the underlying token should be queried.",
        "params": {
          "token": "The token for which the oracles are being retrieved."
        },
        "return": "address[] A list of oracles for the given rateFeedId."
      },
      "getRates(address)": {
        "details": "Does not take the equivalentTokens mapping into account. For that, the underlying token should be queried.",
        "params": {
          "token": "The token for which the rates are being retrieved."
        },
        "return": "keys Keys of an unpacked list of elements from largest to smallest.values Values of an unpacked list of elements from largest to smallest.relations Relations of an unpacked list of elements from largest to smallest."
      },
      "getTimestamps(address)": {
        "details": "Does not take the equivalentTokens mapping into account. For that, the underlying token should be queried.",
        "params": {
          "token": "The token for which the timestamps are being retrieved."
        },
        "return": "keys Keys of nn unpacked list of elements from largest to smallest.values Values of an unpacked list of elements from largest to smallest.relations Relations of an unpacked list of elements from largest to smallest."
      },
      "getTokenReportExpirySeconds(address)": {
        "details": "Does not take the equivalentTokens mapping into account. For that, the underlying token should be queried.",
        "params": {
          "token": "The token for which the report expiry is being retrieved."
        },
        "return": "The report expiry in seconds."
      },
      "getVersionNumber()": {
        "return": "Storage version of the contract.Major version of the contract.Minor version of the contract.Patch version of the contract."
      },
      "initialize(uint256)": {
        "params": {
          "_reportExpirySeconds": "The number of seconds before a report is considered expired."
        }
      },
      "isOldestReportExpired(address)": {
        "params": {
          "token": "The token for which the expired report is to be checked."
        },
        "return": "bool A bool indicating if the last report is expired.address Oracle address of the last report."
      },
      "isOwner()": {
        "details": "Returns true if the caller is the current owner."
      },
      "medianRate(address)": {
        "details": "Please note that this function respects the equivalentToken mapping, and so may return the median identified as an equivalent to the supplied rateFeedId.",
        "params": {
          "token": "The token for which the median value is being retrieved."
        },
        "return": "uint256 The median exchange rate for rateFeedId (fixidity).uint256 denominator"
      },
      "medianRateWithoutEquivalentMapping(address)": {
        "details": "Does not take the equivalentTokens mapping into account.",
        "params": {
          "token": "The token for which the median value is being retrieved."
        },
        "return": "uint256 The median exchange rate for rateFeedId (fixidity).uint256 denominator"
      },
      "medianTimestamp(address)": {
        "details": "Does not take the equivalentTokens mapping into account. For that, the underlying token should be queried.",
        "params": {
          "token": "The token for which the median timestamp is being retrieved."
        },
        "return": "uint256 The median report timestamp for the specified rateFeedId."
      },
      "numRates(address)": {
        "details": "Does not take the equivalentTokens mapping into account. For that, the underlying token should be queried.",
        "params": {
          "token": "The token for which the number of rates is being retrieved."
        },
        "return": "uint256 The number of reported oracle rates stored for the given rateFeedId."
      },
      "numTimestamps(address)": {
        "details": "Does not take the equivalentTokens mapping into account. For that, the underlying token should be queried.",
        "params": {
          "token": "The token for which the number of timestamps is being retrieved."
        },
        "return": "uint256 The number of oracle report timestamps for the specified rateFeedId."
      },
      "owner()": {
        "details": "Returns the address of the current owner."
      },
      "removeExpiredReports(address,uint256)": {
        "params": {
          "n": "The number of expired reports to remove, at most (deterministic upper gas bound).",
          "token": "The token for which the expired report is to be removed."
        }
      },
      "removeOracle(address,address,uint256)": {
        "params": {
          "index": "The index of `oracleAddress` in the list of oracles.",
          "oracleAddress": "The address of the oracle.",
          "token": "The token from which the specified oracle is to be removed."
        }
      },
      "renounceOwnership()": {
        "details": "Leaves the contract without owner. It will not be possible to call `onlyOwner` functions anymore. Can only be called by the current owner.     * NOTE: Renouncing ownership will leave the contract without an owner, thereby removing any functionality that is only available to the owner."
      },
      "report(address,uint256,address,address)": {
        "details": "Note that only one of `lesserKey` or `greaterKey` needs to be correct to reduce friction.",
        "params": {
          "greaterKey": "The element which should be just right of the new oracle value.",
          "lesserKey": "The element which should be just left of the new oracle value.",
          "token": "The token for which the rate is being reported.",
          "value": "The number of stable asset that equate to one unit of collateral asset, for the             specified rateFeedId, expressed as a fixidity value."
        }
      },
      "setBreakerBox(address)": {
        "params": {
          "newBreakerBox": "The new BreakerBox address."
        }
      },
      "setEquivalentToken(address,address)": {
        "params": {
          "equivalentToken": "The address of the equivalent token.",
          "token": "The address of the token."
        }
      },
      "setReportExpiry(uint256)": {
        "params": {
          "_reportExpirySeconds": "The number of seconds before a report is considered expired."
        }
      },
      "setTokenReportExpiry(address,uint256)": {
        "params": {
          "_reportExpirySeconds": "The number of seconds before a report is considered expired.",
          "_token": "The token for which the report expiry is being set."
        }
      },
      "transferOwnership(address)": {
        "details": "Transfers ownership of the contract to a new account (`newOwner`). Can only be called by the current owner."
      }
    },
    "title": "SortedOracles"
  },
  "userdoc": {
    "methods": {
      "addOracle(address,address)": {
        "notice": "Adds a new Oracle for a specified rate feed."
      },
      "constructor": "Sets initialized == true on implementation contracts",
      "deleteEquivalentToken(address)": {
        "notice": "Sets the equivalent token for a token."
      },
      "getEquivalentToken(address)": {
        "notice": "Gets the equivalent token for a token."
      },
      "getExchangeRate(address)": {
        "notice": "Returns the exchange rate for a specified token."
      },
      "getOracles(address)": {
        "notice": "Returns the list of oracles for a speficied rateFeedId."
      },
      "getRates(address)": {
        "notice": "Gets all elements from the doubly linked list."
      },
      "getTimestamps(address)": {
        "notice": "Gets all elements from the doubly linked list."
      },
      "getTokenReportExpirySeconds(address)": {
        "notice": "Returns the expiry for specified rateFeedId if it exists, if not the default is returned."
      },
      "getVersionNumber()": {
        "notice": "Returns the storage, major, minor, and patch version of the contract."
      },
      "initialize(uint256)": {
        "notice": "Used in place of the constructor to allow the contract to be upgradable via proxy."
      },
      "isOldestReportExpired(address)": {
        "notice": "Check if last report is expired."
      },
      "medianRate(address)": {
        "notice": "Returns the median of the currently stored rates for a specified rateFeedId."
      },
      "medianRateWithoutEquivalentMapping(address)": {
        "notice": "Returns the median of the currently stored rates for a specified rateFeedId."
      },
      "medianTimestamp(address)": {
        "notice": "Returns the median timestamp."
      },
      "numRates(address)": {
        "notice": "Returns the number of rates that are currently stored for a specifed rateFeedId."
      },
      "numTimestamps(address)": {
        "notice": "Returns the number of timestamps."
      },
      "removeExpiredReports(address,uint256)": {
        "notice": "Removes a report that is expired."
      },
      "removeOracle(address,address,uint256)": {
        "notice": "Removes an Oracle from a specified rate feed."
      },
      "report(address,uint256,address,address)": {
        "notice": "Updates an oracle value and the median."
      },
      "setBreakerBox(address)": {
        "notice": "Sets the address of the BreakerBox."
      },
      "setEquivalentToken(address,address)": {
        "notice": "Sets the equivalent token for a token."
      },
      "setReportExpiry(uint256)": {
        "notice": "Sets the report expiry parameter."
      },
      "setTokenReportExpiry(address,uint256)": {
        "notice": "Sets the report expiry parameter for a rateFeedId."
      }
    },
    "notice": "This contract stores a collection of exchange rates with CELO         expressed in units of other assets. The most recent exchange rates         are gathered off-chain by oracles, who then use the `report` function to         submit the rates to this contract. Before submitting a rate report, an         oracle's address must be added to the `isOracle` mapping for a specific         rateFeedId, with the flag set to true. While submitting a report requires         an address to be added to the mapping, no additional permissions are needed         to read the reports, the calculated median rate, or the list of oracles."
  }
}