{
  "contractName": "SortedLinkedListMock",
  "abi": [
    {
      "constant": false,
      "inputs": [
        {
          "internalType": "bytes32",
          "name": "key",
          "type": "bytes32"
        },
        {
          "internalType": "uint256",
          "name": "numerator",
          "type": "uint256"
        },
        {
          "internalType": "bytes32",
          "name": "lesserKey",
          "type": "bytes32"
        },
        {
          "internalType": "bytes32",
          "name": "greaterKey",
          "type": "bytes32"
        }
      ],
      "name": "insert",
      "outputs": [],
      "payable": false,
      "stateMutability": "nonpayable",
      "type": "function"
    },
    {
      "constant": false,
      "inputs": [
        {
          "internalType": "bytes32",
          "name": "key",
          "type": "bytes32"
        },
        {
          "internalType": "uint256",
          "name": "numerator",
          "type": "uint256"
        },
        {
          "internalType": "bytes32",
          "name": "lesserKey",
          "type": "bytes32"
        },
        {
          "internalType": "bytes32",
          "name": "greaterKey",
          "type": "bytes32"
        }
      ],
      "name": "update",
      "outputs": [],
      "payable": false,
      "stateMutability": "nonpayable",
      "type": "function"
    },
    {
      "constant": false,
      "inputs": [
        {
          "internalType": "bytes32",
          "name": "key",
          "type": "bytes32"
        }
      ],
      "name": "remove",
      "outputs": [],
      "payable": false,
      "stateMutability": "nonpayable",
      "type": "function"
    },
    {
      "constant": true,
      "inputs": [
        {
          "internalType": "bytes32",
          "name": "key",
          "type": "bytes32"
        }
      ],
      "name": "contains",
      "outputs": [
        {
          "internalType": "bool",
          "name": "",
          "type": "bool"
        }
      ],
      "payable": false,
      "stateMutability": "view",
      "type": "function"
    },
    {
      "constant": true,
      "inputs": [],
      "name": "getNumElements",
      "outputs": [
        {
          "internalType": "uint256",
          "name": "",
          "type": "uint256"
        }
      ],
      "payable": false,
      "stateMutability": "view",
      "type": "function"
    },
    {
      "constant": true,
      "inputs": [],
      "name": "getElements",
      "outputs": [
        {
          "internalType": "bytes32[]",
          "name": "",
          "type": "bytes32[]"
        },
        {
          "internalType": "uint256[]",
          "name": "",
          "type": "uint256[]"
        }
      ],
      "payable": false,
      "stateMutability": "view",
      "type": "function"
    },
    {
      "constant": true,
      "inputs": [],
      "name": "head",
      "outputs": [
        {
          "internalType": "bytes32",
          "name": "",
          "type": "bytes32"
        }
      ],
      "payable": false,
      "stateMutability": "view",
      "type": "function"
    },
    {
      "constant": true,
      "inputs": [],
      "name": "tail",
      "outputs": [
        {
          "internalType": "bytes32",
          "name": "",
          "type": "bytes32"
        }
      ],
      "payable": false,
      "stateMutability": "view",
      "type": "function"
    }
  ],
  "bytecode": "0x608060405234801561001057600080fd5b50611567806100206000396000f3fe608060405234801561001057600080fd5b50600436106100885760003560e01c80638f7dcfa31161005b5780638f7dcfa31461015b57806395bc26731461017957806399f718be146101a7578063b1a18cc7146101f357610088565b806313d8c8401461008d5780631d1a696d146100ab57806341d9b4ee146100f15780635f1672761461013d575b600080fd5b61009561029a565b6040518082815260200191505060405180910390f35b6100d7600480360360208110156100c157600080fd5b81019080803590602001909291905050506102a9565b604051808215151515815260200191505060405180910390f35b61013b6004803603608081101561010757600080fd5b81019080803590602001909291908035906020019092919080359060200190929190803590602001909291905050506102c6565b005b6101456102e6565b6040518082815260200191505060405180910390f35b6101636102f5565b6040518082815260200191505060405180910390f35b6101a56004803603602081101561018f57600080fd5b8101908080359060200190929190505050610304565b005b6101f1600480360360808110156101bd57600080fd5b810190808035906020019092919080359060200190929190803590602001909291908035906020019092919050505061031b565b005b6101fb61033b565b604051808060200180602001838103835285818151815260200191508051906020019060200280838360005b83811015610242578082015181840152602081019050610227565b50505050905001838103825284818151815260200191508051906020019060200280838360005b83811015610284578082015181840152602081019050610269565b5050505090500194505050505060405180910390f35b60008060000160010154905090565b60006102bf82600061035090919063ffffffff16565b9050919050565b6102e084848484600061037090949392919063ffffffff16565b50505050565b60008060000160020154905090565b60008060000160000154905090565b61031881600061060e90919063ffffffff16565b50565b61033584848484600061064390949392919063ffffffff16565b50505050565b606080610348600061087a565b915091509091565b6000610368828460000161093890919063ffffffff16565b905092915050565b6000801b84141580156103835750818414155b801561038f5750808414155b80156103a257506103a08585610350565b155b610414576040517f08c379a000000000000000000000000000000000000000000000000000000000815260040180806020018281038252600b8152602001807f696e76616c6964206b657900000000000000000000000000000000000000000081525060200191505060405180910390fd5b6000801b8214158061042957506000801b8114155b8061043b575060008560000160020154145b6104ad576040517f08c379a000000000000000000000000000000000000000000000000000000000815260040180806020018281038252601b8152602001807f6772656174657220616e64206c6573736572206b6579207a65726f000000000081525060200191505060405180910390fd5b6104b78583610350565b806104c457506000801b82145b610536576040517f08c379a00000000000000000000000000000000000000000000000000000000081526004018080602001828103825260128152602001807f696e76616c6964206c6573736572206b6579000000000000000000000000000081525060200191505060405180910390fd5b6105408582610350565b8061054d57506000801b81145b6105bf576040517f08c379a00000000000000000000000000000000000000000000000000000000081526004018080602001828103825260138152602001807f696e76616c69642067726561746572206b65790000000000000000000000000081525060200191505060405180910390fd5b6105cb85848484610968565b80925081935050506105ed84838388600001610b1b909392919063ffffffff16565b82856004016000868152602001908152602001600020819055505050505050565b6106248183600001610f6290919063ffffffff16565b6000826004016000838152602001908152602001600020819055505050565b61064d8585610350565b6106bf576040517f08c379a000000000000000000000000000000000000000000000000000000000815260040180806020018281038252600f8152602001807f6b6579206e6f7420696e206c697374000000000000000000000000000000000081525060200191505060405180910390fd5b6000801b84141580156106d25750818414155b80156106de5750808414155b610750576040517f08c379a000000000000000000000000000000000000000000000000000000000815260040180806020018281038252600b8152602001807f696e76616c6964206b657900000000000000000000000000000000000000000081525060200191505060405180910390fd5b6000801b8214158061076557506000801b8114155b80610777575060018560000160020154145b6107e9576040517f08c379a000000000000000000000000000000000000000000000000000000000815260040180806020018281038252601b8152602001807f6772656174657220616e64206c6573736572206b6579207a65726f000000000081525060200191505060405180910390fd5b60008560000160030160008681526020019081526020016000206000015490506000866000016003016000878152602001908152602001600020600101549050610835878684846110ff565b15610859578487600401600088815260200190815260200160002081905550610871565b610863878761060e565b6108708787878787610370565b5b50505050505050565b60608060606108888461116a565b9050606081516040519080825280602002602001820160405280156108bc5781602001602082028038833980820191505090505b50905060008090505b825181101561092a578560040160008483815181106108e057fe5b602002602001015181526020019081526020016000205482828151811061090357fe5b60200260200101818152505061092360018261117f90919063ffffffff16565b90506108c5565b508181935093505050915091565b600082600301600083815260200190815260200160002060020160009054906101000a900460ff16905092915050565b6000806000801b8414801561098c575061098b86868689600001600101546110ff565b5b156109a35783866000016001015491509150610b12565b6000801b831480156109c457506109c386868860000160000154866110ff565b5b156109db5785600001600001548391509150610b12565b6000801b8414158015610a115750610a10868686896000016003016000898152602001908152602001600020600101546110ff565b5b15610a3c57838660000160030160008681526020019081526020016000206001015491509150610b12565b6000801b8314158015610a725750610a71868688600001600301600087815260200190815260200160002060000154866110ff565b5b15610a9d57856000016003016000848152602001908152602001600020600001548391509150610b12565b6000610b11576040517f08c379a000000000000000000000000000000000000000000000000000000000815260040180806020018281038252601e8152602001807f676574206c657373657220616e642067726561746572206661696c757265000081525060200191505060405180910390fd5b5b94509492505050565b6000801b831415610b94576040517f08c379a00000000000000000000000000000000000000000000000000000000081526004018080602001828103825260138152602001807f4b6579206d75737420626520646566696e65640000000000000000000000000081525060200191505060405180910390fd5b610b9e8484610938565b15610c11576040517f08c379a00000000000000000000000000000000000000000000000000000000081526004018080602001828103825260208152602001807f43616e277420696e7365727420616e206578697374696e6720656c656d656e7481525060200191505060405180910390fd5b828214158015610c215750828114155b610c76576040517f08c379a000000000000000000000000000000000000000000000000000000000815260040180806020018281038252603081526020018061144b6030913960400191505060405180910390fd5b6000846003016000858152602001908152602001600020905060018160020160006101000a81548160ff021916908315150217905550600085600201541415610cd057838560010181905550838560000181905550610f3b565b6000801b83141580610ce557506000801b8214155b610d3a576040517f08c379a000000000000000000000000000000000000000000000000000000000815260040180806020018281038252602d815260200180611506602d913960400191505060405180910390fd5b8281600001819055508181600101819055506000801b8314610e3957610d608584610938565b610db5576040517f08c379a00000000000000000000000000000000000000000000000000000000081526004018080602001828103825260348152602001806114a26034913960400191505060405180910390fd5b6000856003016000858152602001908152602001600020905082816001015414610e2a576040517f08c379a000000000000000000000000000000000000000000000000000000000815260040180806020018281038252602781526020018061147b6027913960400191505060405180910390fd5b84816001018190555050610e43565b8385600101819055505b6000801b8214610f3057610e578583610938565b610eac576040517f08c379a00000000000000000000000000000000000000000000000000000000081526004018080602001828103825260308152602001806114d66030913960400191505060405180910390fd5b6000856003016000848152602001908152602001600020905083816000015414610f21576040517f08c379a000000000000000000000000000000000000000000000000000000000815260040180806020018281038252602781526020018061147b6027913960400191505060405180910390fd5b84816000018190555050610f3a565b8385600001819055505b5b610f536001866002015461117f90919063ffffffff16565b85600201819055505050505050565b600082600301600083815260200190815260200160002090506000801b8214158015610f945750610f938383610938565b5b611006576040517f08c379a000000000000000000000000000000000000000000000000000000000815260040180806020018281038252600f8152602001807f6b6579206e6f7420696e206c697374000000000000000000000000000000000081525060200191505060405180910390fd5b6000801b8160000154146110445760008360030160008360000154815260200190815260200160002090508160010154816001018190555050611052565b806001015483600101819055505b6000801b816001015414611090576000836003016000836001015481526020019081526020016000209050816000015481600001819055505061109e565b806000015483600001819055505b82600301600083815260200190815260200160002060008082016000905560018201600090556002820160006101000a81549060ff021916905550506110f26001846002015461120790919063ffffffff16565b8360020181905550505050565b6000806000801b8414806111285750848660040160008681526020019081526020016000205411155b905060008060001b8414806111525750858760040160008681526020019081526020016000205410155b905081801561115e5750805b92505050949350505050565b606061117882600001611251565b9050919050565b6000808284019050838110156111fd576040517f08c379a000000000000000000000000000000000000000000000000000000000815260040180806020018281038252601b8152602001807f536166654d6174683a206164646974696f6e206f766572666c6f77000000000081525060200191505060405180910390fd5b8091505092915050565b600061124983836040518060400160405280601e81526020017f536166654d6174683a207375627472616374696f6e206f766572666c6f770000815250611268565b905092915050565b6060611261828360020154611328565b9050919050565b6000838311158290611315576040517f08c379a00000000000000000000000000000000000000000000000000000000081526004018080602001828103825283818151815260200191508051906020019080838360005b838110156112da5780820151818401526020810190506112bf565b50505050905090810190601f1680156113075780820380516001836020036101000a031916815260200191505b509250505060405180910390fd5b5060008385039050809150509392505050565b606082600201548211156113a4576040517f08c379a00000000000000000000000000000000000000000000000000000000081526004018080602001828103825260138152602001807f6e6f7420656e6f75676820656c656d656e74730000000000000000000000000081525060200191505060405180910390fd5b6060826040519080825280602002602001820160405280156113d55781602001602082028038833980820191505090505b50905060008460000154905060008090505b8481101561143e57818382815181106113fc57fe5b60200260200101818152505085600301600083815260200190815260200160002060000154915061143760018261117f90919063ffffffff16565b90506113e7565b5081925050509291505056fe4b65792063616e6e6f74206265207468652073616d652061732070726576696f75734b6579206f72206e6578744b657970726576696f75734b6579206d7573742062652061646a6163656e7420746f206e6578744b657949662070726576696f75734b657920697320646566696e65642c206974206d75737420657869737420696e20746865206c6973744966206e6578744b657920697320646566696e65642c206974206d75737420657869737420696e20746865206c6973744569746865722070726576696f75734b6579206f72206e6578744b6579206d75737420626520646566696e6564a265627a7a72315820581625d0cb045209e2d9967b2c0fe603d637e8b6e1809e779ed52e98722d37ac64736f6c634300050d0032",
  "source": "pragma solidity ^0.5.13;\n\nimport \"../linkedlists/SortedLinkedList.sol\";\n\ncontract SortedLinkedListMock {\n  using SortedLinkedList for SortedLinkedList.List;\n\n  SortedLinkedList.List private list;\n\n  function insert(bytes32 key, uint256 numerator, bytes32 lesserKey, bytes32 greaterKey) external {\n    list.insert(key, numerator, lesserKey, greaterKey);\n  }\n\n  function update(bytes32 key, uint256 numerator, bytes32 lesserKey, bytes32 greaterKey) external {\n    list.update(key, numerator, lesserKey, greaterKey);\n  }\n\n  function remove(bytes32 key) external {\n    list.remove(key);\n  }\n\n  function contains(bytes32 key) external view returns (bool) {\n    return list.contains(key);\n  }\n\n  function getNumElements() external view returns (uint256) {\n    return list.list.numElements;\n  }\n\n  function getElements() external view returns (bytes32[] memory, uint256[] memory) {\n    return list.getElements();\n  }\n\n  function head() external view returns (bytes32) {\n    return list.list.head;\n  }\n\n  function tail() external view returns (bytes32) {\n    return list.list.tail;\n  }\n}\n",
  "sourcePath": "/Users/beaver/Development/temp/celo-monorepo/packages/protocol/contracts/common/test/SortedLinkedListMock.sol",
  "compiler": {
    "name": "solc",
    "version": "0.5.13+commit.5b0b510c.Emscripten.clang"
  },
  "schemaVersion": "3.4.13",
  "updatedAt": "2025-05-05T17:49:51.322Z",
  "devdoc": {
    "methods": {}
  },
  "userdoc": {
    "methods": {}
  }
}