{
  "contractName": "UniswapFeeHandlerSeller",
  "abi": [
    {
      "inputs": [
        {
          "internalType": "bool",
          "name": "test",
          "type": "bool"
        }
      ],
      "payable": false,
      "stateMutability": "nonpayable",
      "type": "constructor"
    },
    {
      "anonymous": false,
      "inputs": [
        {
          "indexed": false,
          "internalType": "address",
          "name": "tokenAddress",
          "type": "address"
        },
        {
          "indexed": false,
          "internalType": "uint256",
          "name": "minimumReports",
          "type": "uint256"
        }
      ],
      "name": "MinimumReportsSet",
      "type": "event"
    },
    {
      "anonymous": false,
      "inputs": [
        {
          "indexed": false,
          "internalType": "address",
          "name": "_token",
          "type": "address"
        },
        {
          "indexed": false,
          "internalType": "address",
          "name": "_oracle",
          "type": "address"
        }
      ],
      "name": "OracleAddressSet",
      "type": "event"
    },
    {
      "anonymous": false,
      "inputs": [
        {
          "indexed": true,
          "internalType": "address",
          "name": "previousOwner",
          "type": "address"
        },
        {
          "indexed": true,
          "internalType": "address",
          "name": "newOwner",
          "type": "address"
        }
      ],
      "name": "OwnershipTransferred",
      "type": "event"
    },
    {
      "anonymous": false,
      "inputs": [
        {
          "indexed": true,
          "internalType": "address",
          "name": "tokneAddress",
          "type": "address"
        },
        {
          "indexed": true,
          "internalType": "address",
          "name": "router",
          "type": "address"
        },
        {
          "indexed": false,
          "internalType": "uint256",
          "name": "quote",
          "type": "uint256"
        }
      ],
      "name": "ReceivedQuote",
      "type": "event"
    },
    {
      "anonymous": false,
      "inputs": [
        {
          "indexed": true,
          "internalType": "address",
          "name": "registryAddress",
          "type": "address"
        }
      ],
      "name": "RegistrySet",
      "type": "event"
    },
    {
      "anonymous": false,
      "inputs": [
        {
          "indexed": false,
          "internalType": "address",
          "name": "token",
          "type": "address"
        },
        {
          "indexed": false,
          "internalType": "address",
          "name": "router",
          "type": "address"
        }
      ],
      "name": "RouterAddressRemoved",
      "type": "event"
    },
    {
      "anonymous": false,
      "inputs": [
        {
          "indexed": false,
          "internalType": "address",
          "name": "token",
          "type": "address"
        },
        {
          "indexed": false,
          "internalType": "address",
          "name": "router",
          "type": "address"
        }
      ],
      "name": "RouterAddressSet",
      "type": "event"
    },
    {
      "anonymous": false,
      "inputs": [
        {
          "indexed": false,
          "internalType": "address",
          "name": "router",
          "type": "address"
        }
      ],
      "name": "RouterUsed",
      "type": "event"
    },
    {
      "anonymous": false,
      "inputs": [
        {
          "indexed": false,
          "internalType": "address",
          "name": "soldTokenAddress",
          "type": "address"
        },
        {
          "indexed": false,
          "internalType": "address",
          "name": "boughtTokenAddress",
          "type": "address"
        },
        {
          "indexed": false,
          "internalType": "uint256",
          "name": "amount",
          "type": "uint256"
        }
      ],
      "name": "TokenSold",
      "type": "event"
    },
    {
      "payable": true,
      "stateMutability": "payable",
      "type": "fallback"
    },
    {
      "constant": true,
      "inputs": [
        {
          "internalType": "uint256",
          "name": "midPriceNumerator",
          "type": "uint256"
        },
        {
          "internalType": "uint256",
          "name": "midPriceDenominator",
          "type": "uint256"
        },
        {
          "internalType": "uint256",
          "name": "amount",
          "type": "uint256"
        },
        {
          "internalType": "uint256",
          "name": "maxSlippage",
          "type": "uint256"
        }
      ],
      "name": "calculateMinAmount",
      "outputs": [
        {
          "internalType": "uint256",
          "name": "",
          "type": "uint256"
        }
      ],
      "payable": false,
      "stateMutability": "pure",
      "type": "function"
    },
    {
      "constant": true,
      "inputs": [
        {
          "internalType": "address",
          "name": "_tokenAddress",
          "type": "address"
        }
      ],
      "name": "getOracleAddress",
      "outputs": [
        {
          "internalType": "address",
          "name": "",
          "type": "address"
        }
      ],
      "payable": false,
      "stateMutability": "view",
      "type": "function"
    },
    {
      "constant": false,
      "inputs": [
        {
          "internalType": "address",
          "name": "_registryAddress",
          "type": "address"
        },
        {
          "internalType": "address[]",
          "name": "tokenAddresses",
          "type": "address[]"
        },
        {
          "internalType": "uint256[]",
          "name": "newMininumReports",
          "type": "uint256[]"
        }
      ],
      "name": "initialize",
      "outputs": [],
      "payable": false,
      "stateMutability": "nonpayable",
      "type": "function"
    },
    {
      "constant": true,
      "inputs": [],
      "name": "initialized",
      "outputs": [
        {
          "internalType": "bool",
          "name": "",
          "type": "bool"
        }
      ],
      "payable": false,
      "stateMutability": "view",
      "type": "function"
    },
    {
      "constant": true,
      "inputs": [],
      "name": "isOwner",
      "outputs": [
        {
          "internalType": "bool",
          "name": "",
          "type": "bool"
        }
      ],
      "payable": false,
      "stateMutability": "view",
      "type": "function"
    },
    {
      "constant": true,
      "inputs": [
        {
          "internalType": "address",
          "name": "",
          "type": "address"
        }
      ],
      "name": "minimumReports",
      "outputs": [
        {
          "internalType": "uint256",
          "name": "",
          "type": "uint256"
        }
      ],
      "payable": false,
      "stateMutability": "view",
      "type": "function"
    },
    {
      "constant": true,
      "inputs": [
        {
          "internalType": "address",
          "name": "",
          "type": "address"
        }
      ],
      "name": "oracleAddresses",
      "outputs": [
        {
          "internalType": "address",
          "name": "",
          "type": "address"
        }
      ],
      "payable": false,
      "stateMutability": "view",
      "type": "function"
    },
    {
      "constant": true,
      "inputs": [],
      "name": "owner",
      "outputs": [
        {
          "internalType": "address",
          "name": "",
          "type": "address"
        }
      ],
      "payable": false,
      "stateMutability": "view",
      "type": "function"
    },
    {
      "constant": true,
      "inputs": [],
      "name": "registry",
      "outputs": [
        {
          "internalType": "contract IRegistry",
          "name": "",
          "type": "address"
        }
      ],
      "payable": false,
      "stateMutability": "view",
      "type": "function"
    },
    {
      "constant": false,
      "inputs": [],
      "name": "renounceOwnership",
      "outputs": [],
      "payable": false,
      "stateMutability": "nonpayable",
      "type": "function"
    },
    {
      "constant": false,
      "inputs": [
        {
          "internalType": "address",
          "name": "tokenAddress",
          "type": "address"
        },
        {
          "internalType": "uint256",
          "name": "newMininumReports",
          "type": "uint256"
        }
      ],
      "name": "setMinimumReports",
      "outputs": [],
      "payable": false,
      "stateMutability": "nonpayable",
      "type": "function"
    },
    {
      "constant": false,
      "inputs": [
        {
          "internalType": "address",
          "name": "_tokenAddress",
          "type": "address"
        },
        {
          "internalType": "address",
          "name": "_oracleAddress",
          "type": "address"
        }
      ],
      "name": "setOracleAddress",
      "outputs": [],
      "payable": false,
      "stateMutability": "nonpayable",
      "type": "function"
    },
    {
      "constant": false,
      "inputs": [
        {
          "internalType": "address",
          "name": "registryAddress",
          "type": "address"
        }
      ],
      "name": "setRegistry",
      "outputs": [],
      "payable": false,
      "stateMutability": "nonpayable",
      "type": "function"
    },
    {
      "constant": false,
      "inputs": [
        {
          "internalType": "address",
          "name": "token",
          "type": "address"
        },
        {
          "internalType": "uint256",
          "name": "amount",
          "type": "uint256"
        },
        {
          "internalType": "address",
          "name": "to",
          "type": "address"
        }
      ],
      "name": "transfer",
      "outputs": [
        {
          "internalType": "bool",
          "name": "",
          "type": "bool"
        }
      ],
      "payable": false,
      "stateMutability": "nonpayable",
      "type": "function"
    },
    {
      "constant": false,
      "inputs": [
        {
          "internalType": "address",
          "name": "newOwner",
          "type": "address"
        }
      ],
      "name": "transferOwnership",
      "outputs": [],
      "payable": false,
      "stateMutability": "nonpayable",
      "type": "function"
    },
    {
      "constant": false,
      "inputs": [
        {
          "internalType": "address",
          "name": "token",
          "type": "address"
        },
        {
          "internalType": "address",
          "name": "router",
          "type": "address"
        }
      ],
      "name": "setRouter",
      "outputs": [],
      "payable": false,
      "stateMutability": "nonpayable",
      "type": "function"
    },
    {
      "constant": false,
      "inputs": [
        {
          "internalType": "address",
          "name": "token",
          "type": "address"
        },
        {
          "internalType": "address",
          "name": "router",
          "type": "address"
        }
      ],
      "name": "removeRouter",
      "outputs": [],
      "payable": false,
      "stateMutability": "nonpayable",
      "type": "function"
    },
    {
      "constant": false,
      "inputs": [
        {
          "internalType": "address",
          "name": "sellTokenAddress",
          "type": "address"
        },
        {
          "internalType": "address",
          "name": "buyTokenAddress",
          "type": "address"
        },
        {
          "internalType": "uint256",
          "name": "amount",
          "type": "uint256"
        },
        {
          "internalType": "uint256",
          "name": "maxSlippage",
          "type": "uint256"
        }
      ],
      "name": "sell",
      "outputs": [
        {
          "internalType": "uint256",
          "name": "",
          "type": "uint256"
        }
      ],
      "payable": false,
      "stateMutability": "nonpayable",
      "type": "function"
    },
    {
      "constant": true,
      "inputs": [
        {
          "internalType": "address",
          "name": "token",
          "type": "address"
        }
      ],
      "name": "getRoutersForToken",
      "outputs": [
        {
          "internalType": "address[]",
          "name": "",
          "type": "address[]"
        }
      ],
      "payable": false,
      "stateMutability": "view",
      "type": "function"
    },
    {
      "constant": true,
      "inputs": [],
      "name": "getVersionNumber",
      "outputs": [
        {
          "internalType": "uint256",
          "name": "",
          "type": "uint256"
        },
        {
          "internalType": "uint256",
          "name": "",
          "type": "uint256"
        },
        {
          "internalType": "uint256",
          "name": "",
          "type": "uint256"
        },
        {
          "internalType": "uint256",
          "name": "",
          "type": "uint256"
        }
      ],
      "payable": false,
      "stateMutability": "pure",
      "type": "function"
    }
  ],
  "bytecode": "0x60806040523480156200001157600080fd5b5060405162003bfb38038062003bfb833981810160405260208110156200003757600080fd5b81019080805190602001909291905050508060006200005b6200012360201b60201c565b9050806000806101000a81548173ffffffffffffffffffffffffffffffffffffffff021916908373ffffffffffffffffffffffffffffffffffffffff1602179055508073ffffffffffffffffffffffffffffffffffffffff16600073ffffffffffffffffffffffffffffffffffffffff167f8be0079c531659141344cd1fd0a4f28419497f9722a3daafe3b4186f6b6457e060405160405180910390a350806200011b576001600060146101000a81548160ff0219169083151502179055505b50506200012b565b600033905090565b613ac0806200013b6000396000f3fe60806040526004361061011f5760003560e01c806371eb125e116100a0578063a91ee0dc11610064578063a91ee0dc146106f8578063dbba0f0114610749578063e4187b13146107dc578063f2fde38b14610849578063ff1d57521461089a5761011f565b806371eb125e1461051957806373f0a070146105aa5780637b1039991461061b5780638da5cb5b146106725780638f32d59b146106c95761011f565b806346093b0e116100e757806346093b0e1461035b5780634e008cdb146103cc57806354255be0146104315780635448217314610471578063715018a6146105025761011f565b80630c2fef1414610121578063158ef93e146101c75780632f257aa0146101f657806331de7d151461025157806341d68b8f146102ea575b005b34801561012d57600080fd5b506101706004803603602081101561014457600080fd5b81019080803573ffffffffffffffffffffffffffffffffffffffff169060200190929190505050610995565b6040518080602001828103825283818151815260200191508051906020019060200280838360005b838110156101b3578082015181840152602081019050610198565b505050509050019250505060405180910390f35b3480156101d357600080fd5b506101dc610a65565b604051808215151515815260200191505060405180910390f35b34801561020257600080fd5b5061024f6004803603604081101561021957600080fd5b81019080803573ffffffffffffffffffffffffffffffffffffffff16906020019092919080359060200190929190505050610a78565b005b34801561025d57600080fd5b506102d46004803603608081101561027457600080fd5b81019080803573ffffffffffffffffffffffffffffffffffffffff169060200190929190803573ffffffffffffffffffffffffffffffffffffffff1690602001909291908035906020019092919080359060200190929190505050610b00565b6040518082815260200191505060405180910390f35b3480156102f657600080fd5b506103596004803603604081101561030d57600080fd5b81019080803573ffffffffffffffffffffffffffffffffffffffff169060200190929190803573ffffffffffffffffffffffffffffffffffffffff16906020019092919050505061165d565b005b34801561036757600080fd5b506103ca6004803603604081101561037e57600080fd5b81019080803573ffffffffffffffffffffffffffffffffffffffff169060200190929190803573ffffffffffffffffffffffffffffffffffffffff1690602001909291905050506116e5565b005b3480156103d857600080fd5b5061041b600480360360208110156103ef57600080fd5b81019080803573ffffffffffffffffffffffffffffffffffffffff169060200190929190505050611878565b6040518082815260200191505060405180910390f35b34801561043d57600080fd5b50610446611890565b6040518085815260200184815260200183815260200182815260200194505050505060405180910390f35b34801561047d57600080fd5b506104c06004803603602081101561049457600080fd5b81019080803573ffffffffffffffffffffffffffffffffffffffff1690602001909291905050506118b7565b604051808273ffffffffffffffffffffffffffffffffffffffff1673ffffffffffffffffffffffffffffffffffffffff16815260200191505060405180910390f35b34801561050e57600080fd5b5061051761196a565b005b34801561052557600080fd5b506105686004803603602081101561053c57600080fd5b81019080803573ffffffffffffffffffffffffffffffffffffffff169060200190929190505050611aa3565b604051808273ffffffffffffffffffffffffffffffffffffffff1673ffffffffffffffffffffffffffffffffffffffff16815260200191505060405180910390f35b3480156105b657600080fd5b50610619600480360360408110156105cd57600080fd5b81019080803573ffffffffffffffffffffffffffffffffffffffff169060200190929190803573ffffffffffffffffffffffffffffffffffffffff169060200190929190505050611ad6565b005b34801561062757600080fd5b50610630611c3d565b604051808273ffffffffffffffffffffffffffffffffffffffff1673ffffffffffffffffffffffffffffffffffffffff16815260200191505060405180910390f35b34801561067e57600080fd5b50610687611c63565b604051808273ffffffffffffffffffffffffffffffffffffffff1673ffffffffffffffffffffffffffffffffffffffff16815260200191505060405180910390f35b3480156106d557600080fd5b506106de611c8c565b604051808215151515815260200191505060405180910390f35b34801561070457600080fd5b506107476004803603602081101561071b57600080fd5b81019080803573ffffffffffffffffffffffffffffffffffffffff169060200190929190505050611cea565b005b34801561075557600080fd5b506107c26004803603606081101561076c57600080fd5b81019080803573ffffffffffffffffffffffffffffffffffffffff16906020019092919080359060200190929190803573ffffffffffffffffffffffffffffffffffffffff169060200190929190505050611e8e565b604051808215151515815260200191505060405180910390f35b3480156107e857600080fd5b50610833600480360360808110156107ff57600080fd5b8101908080359060200190929190803590602001909291908035906020019092919080359060200190929190505050611fd5565b6040518082815260200191505060405180910390f35b34801561085557600080fd5b506108986004803603602081101561086c57600080fd5b81019080803573ffffffffffffffffffffffffffffffffffffffff16906020019092919050505061207b565b005b3480156108a657600080fd5b50610993600480360360608110156108bd57600080fd5b81019080803573ffffffffffffffffffffffffffffffffffffffff169060200190929190803590602001906401000000008111156108fa57600080fd5b82018360208201111561090c57600080fd5b8035906020019184602083028401116401000000008311171561092e57600080fd5b90919293919293908035906020019064010000000081111561094f57600080fd5b82018360208201111561096157600080fd5b8035906020019184602083028401116401000000008311171561098357600080fd5b9091929391929390505050612101565b005b6060600460008373ffffffffffffffffffffffffffffffffffffffff1673ffffffffffffffffffffffffffffffffffffffff168152602001908152602001600020600101805480602002602001604051908101604052809291908181526020018280548015610a5957602002820191906000526020600020905b8160009054906101000a900473ffffffffffffffffffffffffffffffffffffffff1673ffffffffffffffffffffffffffffffffffffffff1681526020019060010190808311610a0f575b50505050509050919050565b600060149054906101000a900460ff1681565b610a80611c8c565b610af2576040517f08c379a00000000000000000000000000000000000000000000000000000000081526004018080602001828103825260208152602001807f4f776e61626c653a2063616c6c6572206973206e6f7420746865206f776e657281525060200191505060405180910390fd5b610afc828261221b565b5050565b6000600160009054906101000a900473ffffffffffffffffffffffffffffffffffffffff1673ffffffffffffffffffffffffffffffffffffffff1663dcf0aaed60405160200180807f43656c6f546f6b656e00000000000000000000000000000000000000000000008152506009019050604051602081830303815290604052805190602001206040518263ffffffff1660e01b81526004018082815260200191505060206040518083038186803b158015610bbb57600080fd5b505afa158015610bcf573d6000803e3d6000fd5b505050506040513d6020811015610be557600080fd5b810190808051906020019092919050505073ffffffffffffffffffffffffffffffffffffffff168473ffffffffffffffffffffffffffffffffffffffff1614610c96576040517f08c379a00000000000000000000000000000000000000000000000000000000081526004018080602001828103825260208152602001807f42757920746f6b656e2063616e206f6e6c792062652043454c4f20746f6b656e81525060200191505060405180910390fd5b6000600460008773ffffffffffffffffffffffffffffffffffffffff1673ffffffffffffffffffffffffffffffffffffffff1681526020019081526020016000206001018054905011610d34576040517f08c379a00000000000000000000000000000000000000000000000000000000081526004018080602001828103825260238152602001806139e76023913960400191505060405180910390fd5b6000610d3e6122ce565b90506000806000905060606002604051908082528060200260200182016040528015610d795781602001602082028038833980820191505090505b5090508881600081518110610d8a57fe5b602002602001019073ffffffffffffffffffffffffffffffffffffffff16908173ffffffffffffffffffffffffffffffffffffffff16815250508381600181518110610dd257fe5b602002602001019073ffffffffffffffffffffffffffffffffffffffff16908173ffffffffffffffffffffffffffffffffffffffff168152505060008090505b600460008b73ffffffffffffffffffffffffffffffffffffffff1673ffffffffffffffffffffffffffffffffffffffff168152602001908152602001600020600101805490508110156110c4576000610eb282600460008e73ffffffffffffffffffffffffffffffffffffffff1673ffffffffffffffffffffffffffffffffffffffff1681526020019081526020016000206123c990919063ffffffff16565b9050600081905060008173ffffffffffffffffffffffffffffffffffffffff1663d06ca61f8c876040518363ffffffff1660e01b81526004018083815260200180602001828103825283818151815260200191508051906020019060200280838360005b83811015610f31578082015181840152602081019050610f16565b50505050905001935050505060006040518083038186803b158015610f5557600080fd5b505afa158015610f69573d6000803e3d6000fd5b505050506040513d6000823e3d601f19601f820116820180604052506020811015610f9357600080fd5b8101908080516040519392919084640100000000821115610fb357600080fd5b83820191506020820185811115610fc957600080fd5b8251866020820283011164010000000082111715610fe657600080fd5b8083526020830192505050908051906020019060200280838360005b8381101561101d578082015181840152602081019050611002565b5050505090500160405250505060018151811061103657fe5b602002602001015190508273ffffffffffffffffffffffffffffffffffffffff168d73ffffffffffffffffffffffffffffffffffffffff167fba55c28acee19777ec6c603117b386d3e3b39886c0d3d53bc244be24ee6e7c84836040518082815260200191505060405180910390a3858111156110b4578095508196505b5050508080600101915050610e12565b50600082141561113c576040517f08c379a000000000000000000000000000000000000000000000000000000000815260040180806020018281038252601e8152602001807f43616e27742065786368616e67652077697468207a65726f2071756f7465000081525060200191505060405180910390fd5b600080905061114d8a888a8761240d565b90508973ffffffffffffffffffffffffffffffffffffffff1663095ea7b3858a6040518363ffffffff1660e01b8152600401808373ffffffffffffffffffffffffffffffffffffffff1673ffffffffffffffffffffffffffffffffffffffff16815260200182815260200192505050602060405180830381600087803b1580156111d657600080fd5b505af11580156111ea573d6000803e3d6000fd5b505050506040513d602081101561120057600080fd5b8101908080519060200190929190505050508373ffffffffffffffffffffffffffffffffffffffff166338ed173989838530601442016040518663ffffffff1660e01b815260040180868152602001858152602001806020018473ffffffffffffffffffffffffffffffffffffffff1673ffffffffffffffffffffffffffffffffffffffff168152602001838152602001828103825285818151815260200191508051906020019060200280838360005b838110156112cc5780820151818401526020810190506112b1565b505050509050019650505050505050600060405180830381600087803b1580156112f557600080fd5b505af1158015611309573d6000803e3d6000fd5b505050506040513d6000823e3d601f19601f82011682018060405250602081101561133357600080fd5b810190808051604051939291908464010000000082111561135357600080fd5b8382019150602082018581111561136957600080fd5b825186602082028301116401000000008211171561138657600080fd5b8083526020830192505050908051906020019060200280838360005b838110156113bd5780820151818401526020810190506113a2565b505050509050016040525050505060008573ffffffffffffffffffffffffffffffffffffffff166370a08231306040518263ffffffff1660e01b8152600401808273ffffffffffffffffffffffffffffffffffffffff1673ffffffffffffffffffffffffffffffffffffffff16815260200191505060206040518083038186803b15801561144a57600080fd5b505afa15801561145e573d6000803e3d6000fd5b505050506040513d602081101561147457600080fd5b810190808051906020019092919050505090508573ffffffffffffffffffffffffffffffffffffffff1663a9059cbb33836040518363ffffffff1660e01b8152600401808373ffffffffffffffffffffffffffffffffffffffff1673ffffffffffffffffffffffffffffffffffffffff16815260200182815260200192505050602060405180830381600087803b15801561150e57600080fd5b505af1158015611522573d6000803e3d6000fd5b505050506040513d602081101561153857600080fd5b8101908080519060200190929190505050507f59afd9b3bf745a06d8739721397432b9f161243cee13868b9d6d6fca05b6e55185604051808273ffffffffffffffffffffffffffffffffffffffff1673ffffffffffffffffffffffffffffffffffffffff16815260200191505060405180910390a17fd4cffd6979677853b45a7a17f455188a434e975ba474c5a2613c94beacea537a8b8b8b604051808473ffffffffffffffffffffffffffffffffffffffff1673ffffffffffffffffffffffffffffffffffffffff1681526020018373ffffffffffffffffffffffffffffffffffffffff1673ffffffffffffffffffffffffffffffffffffffff168152602001828152602001935050505060405180910390a1809650505050505050949350505050565b611665611c8c565b6116d7576040517f08c379a00000000000000000000000000000000000000000000000000000000081526004018080602001828103825260208152602001807f4f776e61626c653a2063616c6c6572206973206e6f7420746865206f776e657281525060200191505060405180910390fd5b6116e18282612976565b5050565b6116ed611c8c565b61175f576040517f08c379a00000000000000000000000000000000000000000000000000000000081526004018080602001828103825260208152602001807f4f776e61626c653a2063616c6c6572206973206e6f7420746865206f776e657281525060200191505060405180910390fd5b80600360008473ffffffffffffffffffffffffffffffffffffffff1673ffffffffffffffffffffffffffffffffffffffff16815260200190815260200160002060006101000a81548173ffffffffffffffffffffffffffffffffffffffff021916908373ffffffffffffffffffffffffffffffffffffffff1602179055507f11036f54cd547b7d6eaa445a70d763cbd382f60946bd893bbd9aa75a88a971af8282604051808373ffffffffffffffffffffffffffffffffffffffff1673ffffffffffffffffffffffffffffffffffffffff1681526020018273ffffffffffffffffffffffffffffffffffffffff1673ffffffffffffffffffffffffffffffffffffffff1681526020019250505060405180910390a15050565b60026020528060005260406000206000915090505481565b60008060008060026000806000839350829250819150809050935093509350935090919293565b600080600360008473ffffffffffffffffffffffffffffffffffffffff1673ffffffffffffffffffffffffffffffffffffffff16815260200190815260200160002060009054906101000a900473ffffffffffffffffffffffffffffffffffffffff169050600073ffffffffffffffffffffffffffffffffffffffff168173ffffffffffffffffffffffffffffffffffffffff16146119595780915050611965565b611961612bc2565b9150505b919050565b611972611c8c565b6119e4576040517f08c379a00000000000000000000000000000000000000000000000000000000081526004018080602001828103825260208152602001807f4f776e61626c653a2063616c6c6572206973206e6f7420746865206f776e657281525060200191505060405180910390fd5b600073ffffffffffffffffffffffffffffffffffffffff166000809054906101000a900473ffffffffffffffffffffffffffffffffffffffff1673ffffffffffffffffffffffffffffffffffffffff167f8be0079c531659141344cd1fd0a4f28419497f9722a3daafe3b4186f6b6457e060405160405180910390a360008060006101000a81548173ffffffffffffffffffffffffffffffffffffffff021916908373ffffffffffffffffffffffffffffffffffffffff160217905550565b60036020528060005260406000206000915054906101000a900473ffffffffffffffffffffffffffffffffffffffff1681565b611ade611c8c565b611b50576040517f08c379a00000000000000000000000000000000000000000000000000000000081526004018080602001828103825260208152602001807f4f776e61626c653a2063616c6c6572206973206e6f7420746865206f776e657281525060200191505060405180910390fd5b611ba181600460008573ffffffffffffffffffffffffffffffffffffffff1673ffffffffffffffffffffffffffffffffffffffff168152602001908152602001600020612cbd90919063ffffffff16565b507f044c4b00bcc14b6c00430f73b8bc07f33aecb2387c7b188142d6d497342de89a8282604051808373ffffffffffffffffffffffffffffffffffffffff1673ffffffffffffffffffffffffffffffffffffffff1681526020018273ffffffffffffffffffffffffffffffffffffffff1673ffffffffffffffffffffffffffffffffffffffff1681526020019250505060405180910390a15050565b600160009054906101000a900473ffffffffffffffffffffffffffffffffffffffff1681565b60008060009054906101000a900473ffffffffffffffffffffffffffffffffffffffff16905090565b60008060009054906101000a900473ffffffffffffffffffffffffffffffffffffffff1673ffffffffffffffffffffffffffffffffffffffff16611cce612eab565b73ffffffffffffffffffffffffffffffffffffffff1614905090565b611cf2611c8c565b611d64576040517f08c379a00000000000000000000000000000000000000000000000000000000081526004018080602001828103825260208152602001807f4f776e61626c653a2063616c6c6572206973206e6f7420746865206f776e657281525060200191505060405180910390fd5b600073ffffffffffffffffffffffffffffffffffffffff168173ffffffffffffffffffffffffffffffffffffffff161415611e07576040517f08c379a00000000000000000000000000000000000000000000000000000000081526004018080602001828103825260208152602001807f43616e6e6f7420726567697374657220746865206e756c6c206164647265737381525060200191505060405180910390fd5b80600160006101000a81548173ffffffffffffffffffffffffffffffffffffffff021916908373ffffffffffffffffffffffffffffffffffffffff1602179055508073ffffffffffffffffffffffffffffffffffffffff167f27fe5f0c1c3b1ed427cc63d0f05759ffdecf9aec9e18d31ef366fc8a6cb5dc3b60405160405180910390a250565b6000611e98611c8c565b611f0a576040517f08c379a00000000000000000000000000000000000000000000000000000000081526004018080602001828103825260208152602001807f4f776e61626c653a2063616c6c6572206973206e6f7420746865206f776e657281525060200191505060405180910390fd5b8373ffffffffffffffffffffffffffffffffffffffff1663a9059cbb83856040518363ffffffff1660e01b8152600401808373ffffffffffffffffffffffffffffffffffffffff1673ffffffffffffffffffffffffffffffffffffffff16815260200182815260200192505050602060405180830381600087803b158015611f9157600080fd5b505af1158015611fa5573d6000803e3d6000fd5b505050506040513d6020811015611fbb57600080fd5b810190808051906020019092919050505090509392505050565b6000611fdf6139d3565b611fe883612eb3565b9050611ff26139d3565b611ffc8787612ed1565b90506120066139d3565b61200f86612f13565b90506120196139d3565b61202c8284612f9d90919063ffffffff16565b905061206d6120686120598461204b8888612f9d90919063ffffffff16565b612f9d90919063ffffffff16565b836133fc90919063ffffffff16565b6134a3565b945050505050949350505050565b612083611c8c565b6120f5576040517f08c379a00000000000000000000000000000000000000000000000000000000081526004018080602001828103825260208152602001807f4f776e61626c653a2063616c6c6572206973206e6f7420746865206f776e657281525060200191505060405180910390fd5b6120fe816134c4565b50565b600060149054906101000a900460ff1615612184576040517f08c379a000000000000000000000000000000000000000000000000000000000815260040180806020018281038252601c8152602001807f636f6e747261637420616c726561647920696e697469616c697a65640000000081525060200191505060405180910390fd5b6001600060146101000a81548160ff0219169083151502179055506121a8336134c4565b6121b185611cea565b60008090505b84849050811015612213576122068585838181106121d157fe5b9050602002013573ffffffffffffffffffffffffffffffffffffffff168484848181106121fa57fe5b9050602002013561221b565b80806001019150506121b7565b505050505050565b80600260008473ffffffffffffffffffffffffffffffffffffffff1673ffffffffffffffffffffffffffffffffffffffff168152602001908152602001600020819055507f03cc7dddcb89dd90027bd8fa62d09d1b5c49ce5d20f8c9bb6bdeaaa62ea1718b8282604051808373ffffffffffffffffffffffffffffffffffffffff1673ffffffffffffffffffffffffffffffffffffffff1681526020018281526020019250505060405180910390a15050565b6000600160009054906101000a900473ffffffffffffffffffffffffffffffffffffffff1673ffffffffffffffffffffffffffffffffffffffff1663dcf0aaed60405160200180807f43656c6f546f6b656e00000000000000000000000000000000000000000000008152506009019050604051602081830303815290604052805190602001206040518263ffffffff1660e01b81526004018082815260200191505060206040518083038186803b15801561238957600080fd5b505afa15801561239d573d6000803e3d6000fd5b505050506040513d60208110156123b357600080fd5b8101908080519060200190929190505050905090565b60008260010182815481106123da57fe5b9060005260206000200160009054906101000a900473ffffffffffffffffffffffffffffffffffffffff16905092915050565b600080612419866118b7565b90506000600260008873ffffffffffffffffffffffffffffffffffffffff1673ffffffffffffffffffffffffffffffffffffffff168152602001908152602001600020549050600082905060008090506000831115612661576000849050838173ffffffffffffffffffffffffffffffffffffffff1663bbc66a948c6040518263ffffffff1660e01b8152600401808273ffffffffffffffffffffffffffffffffffffffff1673ffffffffffffffffffffffffffffffffffffffff16815260200191505060206040518083038186803b1580156124f557600080fd5b505afa158015612509573d6000803e3d6000fd5b505050506040513d602081101561251f57600080fd5b81019080805190602001909291905050501015612587576040517f08c379a0000000000000000000000000000000000000000000000000000000008152600401808060200182810382526026815260200180613a666026913960400191505060405180910390fd5b6000808473ffffffffffffffffffffffffffffffffffffffff1663efb7601d8d6040518263ffffffff1660e01b8152600401808273ffffffffffffffffffffffffffffffffffffffff1673ffffffffffffffffffffffffffffffffffffffff168152602001915050604080518083038186803b15801561260657600080fd5b505afa15801561261a573d6000803e3d6000fd5b505050506040513d604081101561263057600080fd5b8101908080519060200190929190805190602001909291905050509150915061265b82828c8e611fd5565b93505050505b600061266b6122ce565b905060008773ffffffffffffffffffffffffffffffffffffffff1663c45a01556040518163ffffffff1660e01b815260040160206040518083038186803b1580156126b557600080fd5b505afa1580156126c9573d6000803e3d6000fd5b505050506040513d60208110156126df57600080fd5b810190808051906020019092919050505073ffffffffffffffffffffffffffffffffffffffff1663e6a439058c846040518363ffffffff1660e01b8152600401808373ffffffffffffffffffffffffffffffffffffffff1673ffffffffffffffffffffffffffffffffffffffff1681526020018273ffffffffffffffffffffffffffffffffffffffff1673ffffffffffffffffffffffffffffffffffffffff1681526020019250505060206040518083038186803b1580156127a057600080fd5b505afa1580156127b4573d6000803e3d6000fd5b505050506040513d60208110156127ca57600080fd5b8101908080519060200190929190505050905060006129598c73ffffffffffffffffffffffffffffffffffffffff166370a08231846040518263ffffffff1660e01b8152600401808273ffffffffffffffffffffffffffffffffffffffff1673ffffffffffffffffffffffffffffffffffffffff16815260200191505060206040518083038186803b15801561285f57600080fd5b505afa158015612873573d6000803e3d6000fd5b505050506040513d602081101561288957600080fd5b81019080805190602001909291905050508473ffffffffffffffffffffffffffffffffffffffff166370a08231856040518263ffffffff1660e01b8152600401808273ffffffffffffffffffffffffffffffffffffffff1673ffffffffffffffffffffffffffffffffffffffff16815260200191505060206040518083038186803b15801561291757600080fd5b505afa15801561292b573d6000803e3d6000fd5b505050506040513d602081101561294157600080fd5b81019080805190602001909291905050508c8e611fd5565b90506129658185613608565b975050505050505050949350505050565b600073ffffffffffffffffffffffffffffffffffffffff168173ffffffffffffffffffffffffffffffffffffffff161415612a19576040517f08c379a000000000000000000000000000000000000000000000000000000000815260040180806020018281038252601c8152602001807f526f757465722063616e27742062652061646472657373207a65726f0000000081525060200191505060405180910390fd5b612a6a81600460008573ffffffffffffffffffffffffffffffffffffffff1673ffffffffffffffffffffffffffffffffffffffff16815260200190815260200160002061362290919063ffffffff16565b506003600460008473ffffffffffffffffffffffffffffffffffffffff1673ffffffffffffffffffffffffffffffffffffffff168152602001908152602001600020600101805490501115612b27576040517f08c379a000000000000000000000000000000000000000000000000000000000815260040180806020018281038252601d8152602001807f4d6178206e756d626572206f6620726f7574657273207265616368656400000081525060200191505060405180910390fd5b7fb3cbb74e835466bdbf8838b1acb70fa4a8b73e1a00cd5bacb9f68cf4dfc79cf38282604051808373ffffffffffffffffffffffffffffffffffffffff1673ffffffffffffffffffffffffffffffffffffffff1681526020018273ffffffffffffffffffffffffffffffffffffffff1673ffffffffffffffffffffffffffffffffffffffff1681526020019250505060405180910390a15050565b6000600160009054906101000a900473ffffffffffffffffffffffffffffffffffffffff1673ffffffffffffffffffffffffffffffffffffffff1663dcf0aaed60405160200180807f536f727465644f7261636c657300000000000000000000000000000000000000815250600d019050604051602081830303815290604052805190602001206040518263ffffffff1660e01b81526004018082815260200191505060206040518083038186803b158015612c7d57600080fd5b505afa158015612c91573d6000803e3d6000fd5b505050506040513d6020811015612ca757600080fd5b8101908080519060200190929190505050905090565b6000612cc983836136f2565b15612ea057600060018460000160008573ffffffffffffffffffffffffffffffffffffffff1673ffffffffffffffffffffffffffffffffffffffff16815260200190815260200160002054039050600060018560010180549050039050818114612e0e576000856001018281548110612d3e57fe5b9060005260206000200160009054906101000a900473ffffffffffffffffffffffffffffffffffffffff16905080866001018481548110612d7b57fe5b9060005260206000200160006101000a81548173ffffffffffffffffffffffffffffffffffffffff021916908373ffffffffffffffffffffffffffffffffffffffff160217905550600183018660000160008373ffffffffffffffffffffffffffffffffffffffff1673ffffffffffffffffffffffffffffffffffffffff16815260200190815260200160002081905550505b8460000160008573ffffffffffffffffffffffffffffffffffffffff1673ffffffffffffffffffffffffffffffffffffffff1681526020019081526020016000206000905584600101805480612e6057fe5b6001900381819060005260206000200160006101000a81549073ffffffffffffffffffffffffffffffffffffffff02191690559055600192505050612ea5565b600090505b92915050565b600033905090565b612ebb6139d3565b6040518060200160405280838152509050919050565b612ed96139d3565b612ee16139d3565b612eea84612f13565b9050612ef46139d3565b612efd84612f13565b9050612f098282613741565b9250505092915050565b612f1b6139d3565b612f2361388a565b821115612f7b576040517f08c379a0000000000000000000000000000000000000000000000000000000008152600401808060200182810382526036815260200180613a306036913960400191505060405180910390fd5b604051806020016040528069d3c21bcecceda100000084028152509050919050565b612fa56139d3565b600083600001511480612fbc575060008260000151145b15612fd8576040518060200160405280600081525090506133f6565b69d3c21bcecceda100000082600001511415612ff6578290506133f6565b69d3c21bcecceda100000083600001511415613014578190506133f6565b600069d3c21bcecceda100000061302a856138a9565b600001518161303557fe5b0490506000613043856138e0565b600001519050600069d3c21bcecceda100000061305f866138a9565b600001518161306a57fe5b0490506000613078866138e0565b600001519050600082850290506000851461310c578285828161309757fe5b041461310b576040517f08c379a00000000000000000000000000000000000000000000000000000000081526004018080602001828103825260168152602001807f6f766572666c6f7720783179312064657465637465640000000000000000000081525060200191505060405180910390fd5b5b600069d3c21bcecceda100000082029050600082146131ae5769d3c21bcecceda100000082828161313957fe5b04146131ad576040517f08c379a000000000000000000000000000000000000000000000000000000000815260040180806020018281038252601f8152602001807f6f766572666c6f772078317931202a206669786564312064657465637465640081525060200191505060405180910390fd5b5b809150600084860290506000861461323f57848682816131ca57fe5b041461323e576040517f08c379a00000000000000000000000000000000000000000000000000000000081526004018080602001828103825260168152602001807f6f766572666c6f7720783279312064657465637465640000000000000000000081525060200191505060405180910390fd5b5b60008488029050600088146132cd578488828161325857fe5b04146132cc576040517f08c379a00000000000000000000000000000000000000000000000000000000081526004018080602001828103825260168152602001807f6f766572666c6f7720783179322064657465637465640000000000000000000081525060200191505060405180910390fd5b5b6132d561391d565b87816132dd57fe5b0496506132e861391d565b85816132f057fe5b0494506000858802905060008814613381578588828161330c57fe5b0414613380576040517f08c379a00000000000000000000000000000000000000000000000000000000081526004018080602001828103825260168152602001807f6f766572666c6f7720783279322064657465637465640000000000000000000081525060200191505060405180910390fd5b5b6133896139d3565b60405180602001604052808781525090506133b28160405180602001604052808781525061392a565b90506133cc8160405180602001604052808681525061392a565b90506133e68160405180602001604052808581525061392a565b9050809a50505050505050505050505b92915050565b6134046139d3565b816000015183600001511015613482576040517f08c379a000000000000000000000000000000000000000000000000000000000815260040180806020018281038252601f8152602001807f737562737472616374696f6e20756e646572666c6f772064657465637465640081525060200191505060405180910390fd5b60405180602001604052808360000151856000015103815250905092915050565b600069d3c21bcecceda10000008260000151816134bc57fe5b049050919050565b600073ffffffffffffffffffffffffffffffffffffffff168173ffffffffffffffffffffffffffffffffffffffff16141561354a576040517f08c379a0000000000000000000000000000000000000000000000000000000008152600401808060200182810382526026815260200180613a0a6026913960400191505060405180910390fd5b8073ffffffffffffffffffffffffffffffffffffffff166000809054906101000a900473ffffffffffffffffffffffffffffffffffffffff1673ffffffffffffffffffffffffffffffffffffffff167f8be0079c531659141344cd1fd0a4f28419497f9722a3daafe3b4186f6b6457e060405160405180910390a3806000806101000a81548173ffffffffffffffffffffffffffffffffffffffff021916908373ffffffffffffffffffffffffffffffffffffffff16021790555050565b600081831015613618578161361a565b825b905092915050565b600061362e83836136f2565b6136e757826001018290806001815401808255809150509060018203906000526020600020016000909192909190916101000a81548173ffffffffffffffffffffffffffffffffffffffff021916908373ffffffffffffffffffffffffffffffffffffffff1602179055508360000160008473ffffffffffffffffffffffffffffffffffffffff1673ffffffffffffffffffffffffffffffffffffffff16815260200190815260200160002081905550600190506136ec565b600090505b92915050565b6000808360000160008473ffffffffffffffffffffffffffffffffffffffff1673ffffffffffffffffffffffffffffffffffffffff168152602001908152602001600020541415905092915050565b6137496139d3565b6000826000015114156137c4576040517f08c379a00000000000000000000000000000000000000000000000000000000081526004018080602001828103825260118152602001807f63616e277420646976696465206279203000000000000000000000000000000081525060200191505060405180910390fd5b600069d3c21bcecceda10000008460000151029050836000015169d3c21bcecceda100000082816137f157fe5b0414613865576040517f08c379a00000000000000000000000000000000000000000000000000000000081526004018080602001828103825260128152602001807f6f766572666c6f7720617420646976696465000000000000000000000000000081525060200191505060405180910390fd5b60405180602001604052808460000151838161387d57fe5b0481525091505092915050565b60007601357c299a88ea76a58924d52ce4f26a85af186c2b9e74905090565b6138b16139d3565b604051806020016040528069d3c21bcecceda1000000808560000151816138d457fe5b04028152509050919050565b6138e86139d3565b604051806020016040528069d3c21bcecceda10000008085600001518161390b57fe5b04028460000151038152509050919050565b600064e8d4a51000905090565b6139326139d3565b60008260000151846000015101905083600001518110156139bb576040517f08c379a00000000000000000000000000000000000000000000000000000000081526004018080602001828103825260158152602001807f616464206f766572666c6f77206465746563746564000000000000000000000081525060200191505060405180910390fd5b60405180602001604052808281525091505092915050565b604051806020016040528060008152509056fe726f757465724164647265737365732073686f756c64206265206e6f6e20656d7074794f776e61626c653a206e6577206f776e657220697320746865207a65726f206164647265737363616e277420637265617465206669786964697479206e756d626572206c6172676572207468616e206d61784e6577466978656428294e756d626572206f66207265706f72747320666f7220746f6b656e206e6f7420656e6f756768a265627a7a72315820ceba364f39e8c04b8480272e00ae6da6660d3626faef40eb2a1f89de506e587564736f6c634300050d0032",
  "source": "pragma solidity ^0.5.13;\n\nimport \"openzeppelin-solidity/contracts/math/SafeMath.sol\";\nimport \"openzeppelin-solidity/contracts/token/ERC20/IERC20.sol\";\nimport \"openzeppelin-solidity/contracts/utils/EnumerableSet.sol\";\nimport \"openzeppelin-solidity/contracts/ownership/Ownable.sol\";\nimport \"openzeppelin-solidity/contracts/math/Math.sol\";\n\nimport \"./UsingRegistry.sol\";\n\nimport \"../common/interfaces/IFeeHandlerSeller.sol\";\nimport \"../stability/interfaces/ISortedOracles.sol\";\nimport \"../../contracts-0.8/common/interfaces/IOracle.sol\";\nimport \"../common/FixidityLib.sol\";\nimport \"../common/Initializable.sol\";\nimport \"./FeeHandlerSeller.sol\";\n\nimport \"../uniswap/interfaces/IUniswapV2RouterMin.sol\";\nimport \"../uniswap/interfaces/IUniswapV2FactoryMin.sol\";\n\n// An implementation of FeeHandlerSeller supporting interfaces compatible with\n// Uniswap V2 API\n// See https://github.com/celo-org/celo-proposals/blob/master/CIPs/cip-0052.md\ncontract UniswapFeeHandlerSeller is IFeeHandlerSeller, FeeHandlerSeller {\n  using SafeMath for uint256;\n  using FixidityLib for FixidityLib.Fraction;\n  using EnumerableSet for EnumerableSet.AddressSet;\n\n  uint256 constant MAX_TIMESTAMP_BLOCK_EXCHANGE = 20;\n  uint256 constant MAX_NUMBER_ROUTERS_PER_TOKEN = 3;\n  mapping(address => EnumerableSet.AddressSet) private routerAddresses;\n\n  event ReceivedQuote(address indexed tokneAddress, address indexed router, uint256 quote);\n  event RouterUsed(address router);\n  event RouterAddressSet(address token, address router);\n  event RouterAddressRemoved(address token, address router);\n\n  /**\n   * @notice Sets initialized == true on implementation contracts.\n   * @param test Set to true to skip implementation initialisation.\n   */\n  constructor(bool test) public Initializable(test) {}\n\n  // without this line the contract can't receive native Celo transfers\n  function() external payable {}\n\n  /**\n   * @notice Allows owner to set the router for a token.\n   * @param token Address of the token to set.\n   * @param router The new router.\n   */\n  function setRouter(address token, address router) external onlyOwner {\n    _setRouter(token, router);\n  }\n\n  /**\n   * @notice Allows owner to remove a router for a token.\n   * @param token Address of the token.\n   * @param router Address of the router to remove.\n   */\n  function removeRouter(address token, address router) external onlyOwner {\n    routerAddresses[token].remove(router);\n    emit RouterAddressRemoved(token, router);\n  }\n\n  // This function explicitly defines few variables because it was getting error \"stack too deep\"\n  function sell(\n    address sellTokenAddress,\n    address buyTokenAddress,\n    uint256 amount,\n    uint256 maxSlippage // as fraction,\n  ) external returns (uint256) {\n    require(\n      buyTokenAddress == registry.getAddressForOrDie(CELO_TOKEN_REGISTRY_ID),\n      \"Buy token can only be CELO token\"\n    );\n\n    require(\n      routerAddresses[sellTokenAddress].values.length > 0,\n      \"routerAddresses should be non empty\"\n    );\n\n    // An improvement to this function would be to allow the user to pass a path as argument\n    // and if it generates a better outcome that the ones enabled that gets used\n    // and the user gets a reward\n\n    IERC20 celoToken = getCeloToken();\n\n    IUniswapV2RouterMin bestRouter;\n    uint256 bestRouterQuote = 0;\n\n    address[] memory path = new address[](2);\n\n    path[0] = sellTokenAddress;\n    path[1] = address(celoToken);\n\n    for (uint256 i = 0; i < routerAddresses[sellTokenAddress].values.length; i++) {\n      address poolAddress = routerAddresses[sellTokenAddress].get(i);\n      IUniswapV2RouterMin router = IUniswapV2RouterMin(poolAddress);\n\n      // Using the second return value becuase it's the last argument,\n      // the previous values show how many tokens are exchanged in each path\n      // so the first value would be equivalent to balanceToBurn\n      uint256 wouldGet = router.getAmountsOut(amount, path)[1];\n\n      emit ReceivedQuote(sellTokenAddress, poolAddress, wouldGet);\n      if (wouldGet > bestRouterQuote) {\n        bestRouterQuote = wouldGet;\n        bestRouter = router;\n      }\n    }\n\n    require(bestRouterQuote != 0, \"Can't exchange with zero quote\");\n\n    uint256 minAmount = 0;\n    minAmount = calculateAllMinAmount(sellTokenAddress, maxSlippage, amount, bestRouter);\n\n    IERC20(sellTokenAddress).approve(address(bestRouter), amount);\n    bestRouter.swapExactTokensForTokens(\n      amount,\n      minAmount,\n      path,\n      address(this),\n      block.timestamp + MAX_TIMESTAMP_BLOCK_EXCHANGE\n    );\n\n    uint256 celoAmount = celoToken.balanceOf(address(this));\n    celoToken.transfer(msg.sender, celoAmount);\n    emit RouterUsed(address(bestRouter));\n    emit TokenSold(sellTokenAddress, buyTokenAddress, amount);\n    return celoAmount;\n  }\n\n  /**\n   * @notice Get the list of routers for a token.\n   * @param token The address of the token to query.\n   * @return An array of all the allowed router.\n   */\n  function getRoutersForToken(address token) external view returns (address[] memory) {\n    return routerAddresses[token].values;\n  }\n\n  /**\n   * @notice Returns the storage, major, minor, and patch version of the contract.\n   * @return Storage version of the contract.\n   * @return Major version of the contract.\n   * @return Minor version of the contract.\n   * @return Patch version of the contract.\n   */\n  function getVersionNumber() external pure returns (uint256, uint256, uint256, uint256) {\n    return (2, 0, 0, 0);\n  }\n\n  function _setRouter(address token, address router) private {\n    require(router != address(0), \"Router can't be address zero\");\n    routerAddresses[token].add(router);\n    require(\n      routerAddresses[token].values.length <= MAX_NUMBER_ROUTERS_PER_TOKEN,\n      \"Max number of routers reached\"\n    );\n    emit RouterAddressSet(token, router);\n  }\n\n  /**\n  * @dev Calculates the minimum amount of tokens that can be received for a given amount of sell tokens, \n          taking into account the slippage and the rates of the sell token and CELO token on the Uniswap V2 pair.\n  * @param sellTokenAddress The address of the sell token.\n  * @param maxSlippage The maximum slippage allowed.\n  * @param amount The amount of sell tokens to be traded.\n  * @param bestRouter The Uniswap V2 router with the best price.\n  * @return The minimum amount of tokens that can be received.\n  */\n  function calculateAllMinAmount(\n    address sellTokenAddress,\n    uint256 maxSlippage,\n    uint256 amount,\n    IUniswapV2RouterMin bestRouter\n  ) private view returns (uint256) {\n    address _oracleAddress = getOracleAddress(sellTokenAddress);\n\n    uint256 minReports = minimumReports[sellTokenAddress];\n\n    IOracle oracle = IOracle(_oracleAddress);\n\n    uint256 minimalSortedOracles = 0;\n    // if minimumReports for this token is zero, assume the check is not needed\n    if (minReports > 0) {\n      ISortedOracles sortedOracles = ISortedOracles(_oracleAddress);\n      require(\n        sortedOracles.numRates(sellTokenAddress) >= minReports,\n        \"Number of reports for token not enough\"\n      );\n\n      (uint256 rateNumerator, uint256 rateDenominator) = oracle.getExchangeRate(sellTokenAddress);\n\n      minimalSortedOracles = calculateMinAmount(\n        rateNumerator,\n        rateDenominator,\n        amount,\n        maxSlippage\n      );\n    }\n\n    IERC20 celoToken = getCeloToken();\n    address pair = IUniswapV2FactoryMin(bestRouter.factory()).getPair(\n      sellTokenAddress,\n      address(celoToken)\n    );\n    uint256 minAmountPair = calculateMinAmount(\n      IERC20(sellTokenAddress).balanceOf(pair),\n      celoToken.balanceOf(pair),\n      amount,\n      maxSlippage\n    );\n\n    return Math.max(minAmountPair, minimalSortedOracles);\n  }\n}\n",
  "sourcePath": "/Users/beaver/Development/temp/celo-monorepo/packages/protocol/contracts/common/UniswapFeeHandlerSeller.sol",
  "compiler": {
    "name": "solc",
    "version": "0.5.13+commit.5b0b510c.Emscripten.clang"
  },
  "schemaVersion": "3.4.13",
  "updatedAt": "2025-05-05T17:49:51.131Z",
  "devdoc": {
    "methods": {
      "calculateMinAmount(uint256,uint256,uint256,uint256)": {
        "details": "Calculates the minimum amount of tokens that should be received for the specified  amount with the given mid-price and maximum slippage.",
        "params": {
          "amount": "The amount of tokens to be exchanged.",
          "maxSlippage": "The maximum slippage percentage as a fraction of the mid-price.",
          "midPriceDenominator": "The denominator of the mid-price for the token pair.",
          "midPriceNumerator": "The numerator of the mid-price for the token pair."
        },
        "return": "The minimum amount of tokens that should be received as a uint256 value."
      },
      "constructor": {
        "params": {
          "test": "Set to true to skip implementation initialisation."
        }
      },
      "getRoutersForToken(address)": {
        "params": {
          "token": "The address of the token to query."
        },
        "return": "An array of all the allowed router."
      },
      "getVersionNumber()": {
        "return": "Storage version of the contract.Major version of the contract.Minor version of the contract.Patch version of the contract."
      },
      "isOwner()": {
        "details": "Returns true if the caller is the current owner."
      },
      "owner()": {
        "details": "Returns the address of the current owner."
      },
      "removeRouter(address,address)": {
        "params": {
          "router": "Address of the router to remove.",
          "token": "Address of the token."
        }
      },
      "renounceOwnership()": {
        "details": "Leaves the contract without owner. It will not be possible to call `onlyOwner` functions anymore. Can only be called by the current owner.     * NOTE: Renouncing ownership will leave the contract without an owner, thereby removing any functionality that is only available to the owner."
      },
      "setMinimumReports(address,uint256)": {
        "params": {
          "newMininumReports": "The new update minimum number of reports required."
        }
      },
      "setRegistry(address)": {
        "params": {
          "registryAddress": "The address of a registry contract for routing to other contracts."
        }
      },
      "setRouter(address,address)": {
        "params": {
          "router": "The new router.",
          "token": "Address of the token to set."
        }
      },
      "transfer(address,uint256,address)": {
        "params": {
          "amount": "The amount of tokens to transfer.",
          "to": "The address of the recipient to transfer the tokens to.",
          "token": "The address of the token to transfer."
        },
        "return": "A boolean indicating whether the transfer was successful or not."
      },
      "transferOwnership(address)": {
        "details": "Transfers ownership of the contract to a new account (`newOwner`). Can only be called by the current owner."
      }
    }
  },
  "userdoc": {
    "methods": {
      "constructor": "Sets initialized == true on implementation contracts.",
      "getRoutersForToken(address)": {
        "notice": "Get the list of routers for a token."
      },
      "getVersionNumber()": {
        "notice": "Returns the storage, major, minor, and patch version of the contract."
      },
      "removeRouter(address,address)": {
        "notice": "Allows owner to remove a router for a token."
      },
      "setMinimumReports(address,uint256)": {
        "notice": "Allows owner to set the minimum number of reports required."
      },
      "setRegistry(address)": {
        "notice": "Updates the address pointing to a Registry contract."
      },
      "setRouter(address,address)": {
        "notice": "Allows owner to set the router for a token."
      },
      "transfer(address,uint256,address)": {
        "notice": "Allows owner to transfer tokens of this contract. It's meant for governance to  trigger use cases not contemplated in this contract."
      }
    }
  }
}