{
  "contractName": "UsingPrecompiles",
  "abi": [
    {
      "constant": true,
      "inputs": [
        {
          "internalType": "uint256",
          "name": "aNumerator",
          "type": "uint256"
        },
        {
          "internalType": "uint256",
          "name": "aDenominator",
          "type": "uint256"
        },
        {
          "internalType": "uint256",
          "name": "bNumerator",
          "type": "uint256"
        },
        {
          "internalType": "uint256",
          "name": "bDenominator",
          "type": "uint256"
        },
        {
          "internalType": "uint256",
          "name": "exponent",
          "type": "uint256"
        },
        {
          "internalType": "uint256",
          "name": "_decimals",
          "type": "uint256"
        }
      ],
      "name": "fractionMulExp",
      "outputs": [
        {
          "internalType": "uint256",
          "name": "",
          "type": "uint256"
        },
        {
          "internalType": "uint256",
          "name": "",
          "type": "uint256"
        }
      ],
      "payable": false,
      "stateMutability": "view",
      "type": "function"
    },
    {
      "constant": true,
      "inputs": [],
      "name": "getEpochSize",
      "outputs": [
        {
          "internalType": "uint256",
          "name": "",
          "type": "uint256"
        }
      ],
      "payable": false,
      "stateMutability": "view",
      "type": "function"
    },
    {
      "constant": true,
      "inputs": [
        {
          "internalType": "uint256",
          "name": "blockNumber",
          "type": "uint256"
        }
      ],
      "name": "getEpochNumberOfBlock",
      "outputs": [
        {
          "internalType": "uint256",
          "name": "",
          "type": "uint256"
        }
      ],
      "payable": false,
      "stateMutability": "view",
      "type": "function"
    },
    {
      "constant": true,
      "inputs": [],
      "name": "getEpochNumber",
      "outputs": [
        {
          "internalType": "uint256",
          "name": "",
          "type": "uint256"
        }
      ],
      "payable": false,
      "stateMutability": "view",
      "type": "function"
    },
    {
      "constant": true,
      "inputs": [
        {
          "internalType": "uint256",
          "name": "index",
          "type": "uint256"
        }
      ],
      "name": "validatorSignerAddressFromCurrentSet",
      "outputs": [
        {
          "internalType": "address",
          "name": "",
          "type": "address"
        }
      ],
      "payable": false,
      "stateMutability": "view",
      "type": "function"
    },
    {
      "constant": true,
      "inputs": [
        {
          "internalType": "uint256",
          "name": "index",
          "type": "uint256"
        },
        {
          "internalType": "uint256",
          "name": "blockNumber",
          "type": "uint256"
        }
      ],
      "name": "validatorSignerAddressFromSet",
      "outputs": [
        {
          "internalType": "address",
          "name": "",
          "type": "address"
        }
      ],
      "payable": false,
      "stateMutability": "view",
      "type": "function"
    },
    {
      "constant": true,
      "inputs": [],
      "name": "numberValidatorsInCurrentSet",
      "outputs": [
        {
          "internalType": "uint256",
          "name": "",
          "type": "uint256"
        }
      ],
      "payable": false,
      "stateMutability": "view",
      "type": "function"
    },
    {
      "constant": true,
      "inputs": [
        {
          "internalType": "uint256",
          "name": "blockNumber",
          "type": "uint256"
        }
      ],
      "name": "numberValidatorsInSet",
      "outputs": [
        {
          "internalType": "uint256",
          "name": "",
          "type": "uint256"
        }
      ],
      "payable": false,
      "stateMutability": "view",
      "type": "function"
    },
    {
      "constant": true,
      "inputs": [
        {
          "internalType": "address",
          "name": "sender",
          "type": "address"
        },
        {
          "internalType": "bytes",
          "name": "blsKey",
          "type": "bytes"
        },
        {
          "internalType": "bytes",
          "name": "blsPop",
          "type": "bytes"
        }
      ],
      "name": "checkProofOfPossession",
      "outputs": [
        {
          "internalType": "bool",
          "name": "",
          "type": "bool"
        }
      ],
      "payable": false,
      "stateMutability": "view",
      "type": "function"
    },
    {
      "constant": true,
      "inputs": [
        {
          "internalType": "bytes",
          "name": "header",
          "type": "bytes"
        }
      ],
      "name": "getBlockNumberFromHeader",
      "outputs": [
        {
          "internalType": "uint256",
          "name": "",
          "type": "uint256"
        }
      ],
      "payable": false,
      "stateMutability": "view",
      "type": "function"
    },
    {
      "constant": true,
      "inputs": [
        {
          "internalType": "bytes",
          "name": "header",
          "type": "bytes"
        }
      ],
      "name": "hashHeader",
      "outputs": [
        {
          "internalType": "bytes32",
          "name": "",
          "type": "bytes32"
        }
      ],
      "payable": false,
      "stateMutability": "view",
      "type": "function"
    },
    {
      "constant": true,
      "inputs": [
        {
          "internalType": "uint256",
          "name": "blockNumber",
          "type": "uint256"
        }
      ],
      "name": "getParentSealBitmap",
      "outputs": [
        {
          "internalType": "bytes32",
          "name": "",
          "type": "bytes32"
        }
      ],
      "payable": false,
      "stateMutability": "view",
      "type": "function"
    },
    {
      "constant": true,
      "inputs": [
        {
          "internalType": "bytes",
          "name": "header",
          "type": "bytes"
        }
      ],
      "name": "getVerifiedSealBitmapFromHeader",
      "outputs": [
        {
          "internalType": "bytes32",
          "name": "",
          "type": "bytes32"
        }
      ],
      "payable": false,
      "stateMutability": "view",
      "type": "function"
    },
    {
      "constant": true,
      "inputs": [
        {
          "internalType": "uint256",
          "name": "blockNumber",
          "type": "uint256"
        }
      ],
      "name": "minQuorumSize",
      "outputs": [
        {
          "internalType": "uint256",
          "name": "",
          "type": "uint256"
        }
      ],
      "payable": false,
      "stateMutability": "view",
      "type": "function"
    },
    {
      "constant": true,
      "inputs": [],
      "name": "minQuorumSizeInCurrentSet",
      "outputs": [
        {
          "internalType": "uint256",
          "name": "",
          "type": "uint256"
        }
      ],
      "payable": false,
      "stateMutability": "view",
      "type": "function"
    }
  ],
  "bytecode": "0x608060405234801561001057600080fd5b50611f2c806100206000396000f3fe608060405234801561001057600080fd5b50600436106100f55760003560e01c806387ee8a0f11610097578063df4da46111610066578063df4da461146106b5578063e50e652d146106d3578063ec68307214610715578063fae8db0a14610790576100f5565b806387ee8a0f146105685780638a883626146105865780639a7b3be7146106555780639b2b592f14610673576100f5565b80634b2c2f44116100d35780634b2c2f44146103345780635d180adb1461040357806367960e911461047b5780637385e5da1461054a576100f5565b8063123633ea146100fa57806323f0ab65146101685780633b1eb4bf146102f2575b600080fd5b6101266004803603602081101561011057600080fd5b81019080803590602001909291905050506107d2565b604051808273ffffffffffffffffffffffffffffffffffffffff1673ffffffffffffffffffffffffffffffffffffffff16815260200191505060405180910390f35b6102d86004803603606081101561017e57600080fd5b81019080803573ffffffffffffffffffffffffffffffffffffffff169060200190929190803590602001906401000000008111156101bb57600080fd5b8201836020820111156101cd57600080fd5b803590602001918460018302840111640100000000831117156101ef57600080fd5b91908080601f016020809104026020016040519081016040528093929190818152602001838380828437600081840152601f19601f8201169050808301925050505050505091929192908035906020019064010000000081111561025257600080fd5b82018360208201111561026457600080fd5b8035906020019184600183028401116401000000008311171561028657600080fd5b91908080601f016020809104026020016040519081016040528093929190818152602001838380828437600081840152601f19601f82011690508083019250505050505050919291929050505061092b565b604051808215151515815260200191505060405180910390f35b61031e6004803603602081101561030857600080fd5b8101908080359060200190929190505050610aed565b6040518082815260200191505060405180910390f35b6103ed6004803603602081101561034a57600080fd5b810190808035906020019064010000000081111561036757600080fd5b82018360208201111561037957600080fd5b8035906020019184600183028401116401000000008311171561039b57600080fd5b91908080601f016020809104026020016040519081016040528093929190818152602001838380828437600081840152601f19601f820116905080830192505050505050509192919290505050610b0f565b6040518082815260200191505060405180910390f35b6104396004803603604081101561041957600080fd5b810190808035906020019092919080359060200190929190505050610cab565b604051808273ffffffffffffffffffffffffffffffffffffffff1673ffffffffffffffffffffffffffffffffffffffff16815260200191505060405180910390f35b6105346004803603602081101561049157600080fd5b81019080803590602001906401000000008111156104ae57600080fd5b8201836020820111156104c057600080fd5b803590602001918460018302840111640100000000831117156104e257600080fd5b91908080601f016020809104026020016040519081016040528093929190818152602001838380828437600081840152601f19601f820116905080830192505050505050509192919290505050610e05565b6040518082815260200191505060405180910390f35b610552610fa1565b6040518082815260200191505060405180910390f35b610570610fb9565b6040518082815260200191505060405180910390f35b61063f6004803603602081101561059c57600080fd5b81019080803590602001906401000000008111156105b957600080fd5b8201836020820111156105cb57600080fd5b803590602001918460018302840111640100000000831117156105ed57600080fd5b91908080601f016020809104026020016040519081016040528093929190818152602001838380828437600081840152601f19601f820116905080830192505050505050509192919290505050611108565b6040518082815260200191505060405180910390f35b61065d6112a4565b6040518082815260200191505060405180910390f35b61069f6004803603602081101561068957600080fd5b81019080803590602001909291905050506112bc565b6040518082815260200191505060405180910390f35b6106bd61140d565b6040518082815260200191505060405180910390f35b6106ff600480360360208110156106e957600080fd5b8101908080359060200190929190505050611564565b6040518082815260200191505060405180910390f35b610773600480360360c081101561072b57600080fd5b810190808035906020019092919080359060200190929190803590602001909291908035906020019092919080359060200190929190803590602001909291905050506115b7565b604051808381526020018281526020019250505060405180910390f35b6107bc600480360360208110156107a657600080fd5b81019080803590602001909291905050506117d3565b6040518082815260200191505060405180910390f35b60006107dc611924565b6060600060fa73ffffffffffffffffffffffffffffffffffffffff16844360405160200180838152602001828152602001925050506040516020818303038152906040526040518082805190602001908083835b602083106108535780518252602082019150602081019050602083039250610830565b6001836020036101000a038019825116818451168082178552505050505050905001915050600060405180830381855afa9150503d80600081146108b3576040519150601f19603f3d011682016040523d82523d6000602084013e6108b8565b606091505b50809350819250505080610917576040517f08c379a000000000000000000000000000000000000000000000000000000000815260040180806020018281038252603d815260200180611d3a603d913960400191505060405180910390fd5b610922826000611984565b92505050919050565b6000610935611924565b600060fb73ffffffffffffffffffffffffffffffffffffffff16858585604051602001808473ffffffffffffffffffffffffffffffffffffffff1673ffffffffffffffffffffffffffffffffffffffff1660601b815260140183805190602001908083835b602083106109bd578051825260208201915060208101905060208303925061099a565b6001836020036101000a03801982511681845116808217855250505050505090500182805190602001908083835b60208310610a0e57805182526020820191506020810190506020830392506109eb565b6001836020036101000a03801982511681845116808217855250505050505090500193505050506040516020818303038152906040526040518082805190602001908083835b60208310610a775780518252602082019150602081019050602083039250610a54565b6001836020036101000a038019825116818451168082178552505050505050905001915050600060405180830381855afa9150503d8060008114610ad7576040519150601f19603f3d011682016040523d82523d6000602084013e610adc565b606091505b505080915050809150509392505050565b6000610af7611924565b610b0882610b0361140d565b61199b565b9050919050565b6000610b19611924565b6060600060f473ffffffffffffffffffffffffffffffffffffffff16846040516020018082805190602001908083835b60208310610b6c5780518252602082019150602081019050602083039250610b49565b6001836020036101000a0380198251168184511680821785525050505050509050019150506040516020818303038152906040526040518082805190602001908083835b60208310610bd35780518252602082019150602081019050602083039250610bb0565b6001836020036101000a038019825116818451168082178552505050505050905001915050600060405180830381855afa9150503d8060008114610c33576040519150601f19603f3d011682016040523d82523d6000602084013e610c38565b606091505b50809350819250505080610c97576040517f08c379a0000000000000000000000000000000000000000000000000000000008152600401808060200182810382526038815260200180611d026038913960400191505060405180910390fd5b610ca28260006119e3565b92505050919050565b6000610cb5611924565b6060600060fa73ffffffffffffffffffffffffffffffffffffffff16858560405160200180838152602001828152602001925050506040516020818303038152906040526040518082805190602001908083835b60208310610d2c5780518252602082019150602081019050602083039250610d09565b6001836020036101000a038019825116818451168082178552505050505050905001915050600060405180830381855afa9150503d8060008114610d8c576040519150601f19603f3d011682016040523d82523d6000602084013e610d91565b606091505b50809350819250505080610df0576040517f08c379a0000000000000000000000000000000000000000000000000000000008152600401808060200182810382526036815260200180611dd56036913960400191505060405180910390fd5b610dfb826000611984565b9250505092915050565b6000610e0f611924565b6060600060f673ffffffffffffffffffffffffffffffffffffffff16846040516020018082805190602001908083835b60208310610e625780518252602082019150602081019050602083039250610e3f565b6001836020036101000a0380198251168184511680821785525050505050509050019150506040516020818303038152906040526040518082805190602001908083835b60208310610ec95780518252602082019150602081019050602083039250610ea6565b6001836020036101000a038019825116818451168082178552505050505050905001915050600060405180830381855afa9150503d8060008114610f29576040519150601f19603f3d011682016040523d82523d6000602084013e610f2e565b606091505b50809350819250505080610f8d576040517f08c379a0000000000000000000000000000000000000000000000000000000008152600401808060200182810382526023815260200180611ed56023913960400191505060405180910390fd5b610f988260006119e3565b92505050919050565b6000610fab611924565b610fb443611564565b905090565b6000610fc3611924565b6060600060f973ffffffffffffffffffffffffffffffffffffffff1643604051602001808281526020019150506040516020818303038152906040526040518082805190602001908083835b60208310611032578051825260208201915060208101905060208303925061100f565b6001836020036101000a038019825116818451168082178552505050505050905001915050600060405180830381855afa9150503d8060008114611092576040519150601f19603f3d011682016040523d82523d6000602084013e611097565b606091505b508093508192505050806110f6576040517f08c379a0000000000000000000000000000000000000000000000000000000008152600401808060200182810382526035815260200180611d776035913960400191505060405180910390fd5b611101826000611984565b9250505090565b6000611112611924565b6060600060f773ffffffffffffffffffffffffffffffffffffffff16846040516020018082805190602001908083835b602083106111655780518252602082019150602081019050602083039250611142565b6001836020036101000a0380198251168184511680821785525050505050509050019150506040516020818303038152906040526040518082805190602001908083835b602083106111cc57805182526020820191506020810190506020830392506111a9565b6001836020036101000a038019825116818451168082178552505050505050905001915050600060405180830381855afa9150503d806000811461122c576040519150601f19603f3d011682016040523d82523d6000602084013e611231565b606091505b50809350819250505080611290576040517f08c379a0000000000000000000000000000000000000000000000000000000008152600401808060200182810382526031815260200180611ea46031913960400191505060405180910390fd5b61129b826000611984565b92505050919050565b60006112ae611924565b6112b743610aed565b905090565b60006112c6611924565b6060600060f973ffffffffffffffffffffffffffffffffffffffff1684604051602001808281526020019150506040516020818303038152906040526040518082805190602001908083835b602083106113355780518252602082019150602081019050602083039250611312565b6001836020036101000a038019825116818451168082178552505050505050905001915050600060405180830381855afa9150503d8060008114611395576040519150601f19603f3d011682016040523d82523d6000602084013e61139a565b606091505b508093508192505050806113f9576040517f08c379a000000000000000000000000000000000000000000000000000000000815260040180806020018281038252602e815260200180611cd4602e913960400191505060405180910390fd5b611404826000611984565b92505050919050565b6000611417611924565b6060600060f873ffffffffffffffffffffffffffffffffffffffff16600160405160200180821515151560f81b81526001019150506040516020818303038152906040526040518082805190602001908083835b6020831061148e578051825260208201915060208101905060208303925061146b565b6001836020036101000a038019825116818451168082178552505050505050905001915050600060405180830381855afa9150503d80600081146114ee576040519150601f19603f3d011682016040523d82523d6000602084013e6114f3565b606091505b50809350819250505080611552576040517f08c379a0000000000000000000000000000000000000000000000000000000008152600401808060200182810382526025815260200180611e536025913960400191505060405180910390fd5b61155d826000611984565b9250505090565b600061156e611924565b6115b060036115a260026115946002611586886112bc565b611a8490919063ffffffff16565b611b0a90919063ffffffff16565b611b9290919063ffffffff16565b9050919050565b6000806115c2611924565b600087141580156115d4575060008514155b611646576040517f08c379a00000000000000000000000000000000000000000000000000000000081526004018080602001828103825260158152602001807f612064656e6f6d696e61746f72206973207a65726f000000000000000000000081525060200191505060405180910390fd5b6000806000606060fc73ffffffffffffffffffffffffffffffffffffffff168c8c8c8c8c8c6040516020018087815260200186815260200185815260200184815260200183815260200182815260200196505050505050506040516020818303038152906040526040518082805190602001908083835b602083106116e057805182526020820191506020810190506020830392506116bd565b6001836020036101000a038019825116818451168082178552505050505050905001915050600060405180830381855afa9150503d8060008114611740576040519150601f19603f3d011682016040523d82523d6000602084013e611745565b606091505b508092508193505050816117a4576040517f08c379a0000000000000000000000000000000000000000000000000000000008152600401808060200182810382526027815260200180611e2c6027913960400191505060405180910390fd5b6117af816000611984565b93506117bc816020611984565b925083839550955050505050965096945050505050565b60006117dd611924565b6060600060f573ffffffffffffffffffffffffffffffffffffffff1684604051602001808281526020019150506040516020818303038152906040526040518082805190602001908083835b6020831061184c5780518252602082019150602081019050602083039250611829565b6001836020036101000a038019825116818451168082178552505050505050905001915050600060405180830381855afa9150503d80600081146118ac576040519150601f19603f3d011682016040523d82523d6000602084013e6118b1565b606091505b50809350819250505080611910576040517f08c379a000000000000000000000000000000000000000000000000000000000815260040180806020018281038252602c815260200180611e78602c913960400191505060405180910390fd5b61191b8260006119e3565b92505050919050565b61192c611bdc565b15611982576040517f08c379a0000000000000000000000000000000000000000000000000000000008152600401808060200182810382526029815260200180611dac6029913960400191505060405180910390fd5b565b600061199083836119e3565b60001c905092915050565b6000808284816119a757fe5b04905060008385816119b557fe5b0614156119c557809150506119dd565b6119d9600182611b0a90919063ffffffff16565b9150505b92915050565b60006119f9602083611b0a90919063ffffffff16565b83511015611a6f576040517f08c379a00000000000000000000000000000000000000000000000000000000081526004018080602001828103825260148152602001807f736c6963696e67206f7574206f662072616e676500000000000000000000000081525060200191505060405180910390fd5b60006020830184015190508091505092915050565b600080831415611a975760009050611b04565b6000828402905082848281611aa857fe5b0414611aff576040517f08c379a0000000000000000000000000000000000000000000000000000000008152600401808060200182810382526021815260200180611e0b6021913960400191505060405180910390fd5b809150505b92915050565b600080828401905083811015611b88576040517f08c379a000000000000000000000000000000000000000000000000000000000815260040180806020018281038252601b8152602001807f536166654d6174683a206164646974696f6e206f766572666c6f77000000000081525060200191505060405180910390fd5b8091505092915050565b6000611bd483836040518060400160405280601a81526020017f536166654d6174683a206469766973696f6e206279207a65726f000000000000815250611c0d565b905092915050565b60008060007342000000000000000000000000000000000000189050803b915060008263ffffffff16119250505090565b60008083118290611cb9576040517f08c379a00000000000000000000000000000000000000000000000000000000081526004018080602001828103825283818151815260200191508051906020019080838360005b83811015611c7e578082015181840152602081019050611c63565b50505050905090810190601f168015611cab5780820380516001836020036101000a031916815260200191505b509250505060405180910390fd5b506000838581611cc557fe5b04905080915050939250505056fe6572726f722063616c6c696e67206e756d62657256616c696461746f7273496e53657420707265636f6d70696c656572726f722063616c6c696e672067657456657269666965645365616c4269746d617046726f6d48656164657220707265636f6d70696c656572726f722063616c6c696e672076616c696461746f725369676e65724164647265737346726f6d43757272656e7453657420707265636f6d70696c656572726f722063616c6c696e67206e756d62657256616c696461746f7273496e43757272656e7453657420707265636f6d70696c6554686973206d6574686f64206973206e6f206c6f6e67657220737570706f7274656420696e204c322e6572726f722063616c6c696e672076616c696461746f725369676e65724164647265737346726f6d53657420707265636f6d70696c65536166654d6174683a206d756c7469706c69636174696f6e206f766572666c6f776572726f722063616c6c696e67206672616374696f6e4d756c45787020707265636f6d70696c656572726f722063616c6c696e672067657445706f636853697a6520707265636f6d70696c656572726f722063616c6c696e6720676574506172656e745365616c4269746d617020707265636f6d70696c656572726f722063616c6c696e6720676574426c6f636b4e756d62657246726f6d48656164657220707265636f6d70696c656572726f722063616c6c696e67206861736848656164657220707265636f6d70696c65a265627a7a72315820cec43a60aa8109d2b0ee502d83b8cd2966640162a057ad3df79380324010541464736f6c634300050d0032",
  "source": "pragma solidity ^0.5.13;\n\nimport \"openzeppelin-solidity/contracts/math/SafeMath.sol\";\nimport \"../common/interfaces/ICeloVersionedContract.sol\";\nimport \"../common/interfaces/IEpochManager.sol\";\nimport \"../../contracts-0.8/common/IsL2Check.sol\";\n\ncontract UsingPrecompiles is IsL2Check {\n  using SafeMath for uint256;\n\n  address constant TRANSFER = address(0xff - 2);\n  address constant FRACTION_MUL = address(0xff - 3);\n  address constant PROOF_OF_POSSESSION = address(0xff - 4);\n  address constant GET_VALIDATOR = address(0xff - 5);\n  address constant NUMBER_VALIDATORS = address(0xff - 6);\n  address constant EPOCH_SIZE = address(0xff - 7);\n  address constant BLOCK_NUMBER_FROM_HEADER = address(0xff - 8);\n  address constant HASH_HEADER = address(0xff - 9);\n  address constant GET_PARENT_SEAL_BITMAP = address(0xff - 10);\n  address constant GET_VERIFIED_SEAL_BITMAP = address(0xff - 11);\n  uint256 constant DAY = 86400;\n\n  /**\n   * @notice calculate a * b^x for fractions a, b to `decimals` precision\n   * @param aNumerator Numerator of first fraction\n   * @param aDenominator Denominator of first fraction\n   * @param bNumerator Numerator of exponentiated fraction\n   * @param bDenominator Denominator of exponentiated fraction\n   * @param exponent exponent to raise b to\n   * @param _decimals precision\n   * @return Numerator of the computed quantity (not reduced).\n   * @return Denominator of the computed quantity (not reduced).\n   * @dev This function will be deprecated in L2.\n   */\n  function fractionMulExp(\n    uint256 aNumerator,\n    uint256 aDenominator,\n    uint256 bNumerator,\n    uint256 bDenominator,\n    uint256 exponent,\n    uint256 _decimals\n  ) public view onlyL1 returns (uint256, uint256) {\n    require(aDenominator != 0 && bDenominator != 0, \"a denominator is zero\");\n    uint256 returnNumerator;\n    uint256 returnDenominator;\n    bool success;\n    bytes memory out;\n    (success, out) = FRACTION_MUL.staticcall(\n      abi.encodePacked(aNumerator, aDenominator, bNumerator, bDenominator, exponent, _decimals)\n    );\n    require(success, \"error calling fractionMulExp precompile\");\n    returnNumerator = getUint256FromBytes(out, 0);\n    returnDenominator = getUint256FromBytes(out, 32);\n    return (returnNumerator, returnDenominator);\n  }\n\n  /**\n   * @notice Returns the current epoch size in blocks.\n   * @return The current epoch size in blocks.\n   * @dev This function will be deprecated in L2.\n   */\n  function getEpochSize() public view onlyL1 returns (uint256) {\n    bytes memory out;\n    bool success;\n    (success, out) = EPOCH_SIZE.staticcall(abi.encodePacked(true));\n    require(success, \"error calling getEpochSize precompile\");\n    return getUint256FromBytes(out, 0);\n  }\n\n  /**\n   * @notice Returns the epoch number at a block.\n   * @param blockNumber Block number where epoch number is calculated.\n   * @return Epoch number.\n   * @dev This function will be deprecated in L2.\n   */\n  function getEpochNumberOfBlock(uint256 blockNumber) public view onlyL1 returns (uint256) {\n    return epochNumberOfBlock(blockNumber, getEpochSize());\n  }\n\n  /**\n   * @notice Returns the epoch number at a block.\n   * @return Current epoch number.\n   * @dev This function will be deprecated in L2.\n   */\n  function getEpochNumber() public view onlyL1 returns (uint256) {\n    return getEpochNumberOfBlock(block.number);\n  }\n\n  /**\n   * @notice Gets a validator signer address from the current validator set.\n   * @param index Index of requested validator in the validator set.\n   * @return Address of validator signer at the requested index.\n   * @dev This function will be deprecated in L2.\n   */\n  function validatorSignerAddressFromCurrentSet(\n    uint256 index\n  ) public view onlyL1 returns (address) {\n    bytes memory out;\n    bool success;\n    (success, out) = GET_VALIDATOR.staticcall(abi.encodePacked(index, uint256(block.number)));\n    require(success, \"error calling validatorSignerAddressFromCurrentSet precompile\");\n    return address(uint160(getUint256FromBytes(out, 0)));\n  }\n\n  /**\n   * @notice Gets a validator signer address from the validator set at the given block number.\n   * @param index Index of requested validator in the validator set.\n   * @param blockNumber Block number to retrieve the validator set from.\n   * @return Address of validator signer at the requested index.\n   * @dev This function will be deprecated in L2.\n   */\n  function validatorSignerAddressFromSet(\n    uint256 index,\n    uint256 blockNumber\n  ) public view onlyL1 returns (address) {\n    bytes memory out;\n    bool success;\n    (success, out) = GET_VALIDATOR.staticcall(abi.encodePacked(index, blockNumber));\n    require(success, \"error calling validatorSignerAddressFromSet precompile\");\n    return address(uint160(getUint256FromBytes(out, 0)));\n  }\n\n  /**\n   * @notice Gets the size of the current elected validator set.\n   * @return Size of the current elected validator set.\n   * @dev This function will be deprecated in L2.\n   */\n  function numberValidatorsInCurrentSet() public view onlyL1 returns (uint256) {\n    bytes memory out;\n    bool success;\n    (success, out) = NUMBER_VALIDATORS.staticcall(abi.encodePacked(uint256(block.number)));\n    require(success, \"error calling numberValidatorsInCurrentSet precompile\");\n    return getUint256FromBytes(out, 0);\n  }\n\n  /**\n   * @notice Gets the size of the validator set that must sign the given block number.\n   * @param blockNumber Block number to retrieve the validator set from.\n   * @return Size of the validator set.\n   * @dev This function will be deprecated in L2.\n   */\n  function numberValidatorsInSet(uint256 blockNumber) public view onlyL1 returns (uint256) {\n    bytes memory out;\n    bool success;\n    (success, out) = NUMBER_VALIDATORS.staticcall(abi.encodePacked(blockNumber));\n    require(success, \"error calling numberValidatorsInSet precompile\");\n    return getUint256FromBytes(out, 0);\n  }\n\n  /**\n   * @notice Checks a BLS proof of possession.\n   * @param sender The address signed by the BLS key to generate the proof of possession.\n   * @param blsKey The BLS public key that the validator is using for consensus, should pass proof\n   *   of possession. 48 bytes.\n   * @param blsPop The BLS public key proof-of-possession, which consists of a signature on the\n   *   account address. 96 bytes.\n   * @return True upon success.\n   * @dev This function will be deprecated in L2.\n   */\n  function checkProofOfPossession(\n    address sender,\n    bytes memory blsKey,\n    bytes memory blsPop\n  ) public view onlyL1 returns (bool) {\n    bool success;\n    (success, ) = PROOF_OF_POSSESSION.staticcall(abi.encodePacked(sender, blsKey, blsPop));\n    return success;\n  }\n\n  /**\n   * @notice Parses block number out of header.\n   * @param header RLP encoded header\n   * @return Block number.\n   * @dev This function will be deprecated in L2.\n   */\n  function getBlockNumberFromHeader(bytes memory header) public view onlyL1 returns (uint256) {\n    bytes memory out;\n    bool success;\n    (success, out) = BLOCK_NUMBER_FROM_HEADER.staticcall(abi.encodePacked(header));\n    require(success, \"error calling getBlockNumberFromHeader precompile\");\n    return getUint256FromBytes(out, 0);\n  }\n\n  /**\n   * @notice Computes hash of header.\n   * @param header RLP encoded header\n   * @return Header hash.\n   * @dev This function will be deprecated in L2.\n   */\n  function hashHeader(bytes memory header) public view onlyL1 returns (bytes32) {\n    bytes memory out;\n    bool success;\n    (success, out) = HASH_HEADER.staticcall(abi.encodePacked(header));\n    require(success, \"error calling hashHeader precompile\");\n    return getBytes32FromBytes(out, 0);\n  }\n\n  /**\n   * @notice Gets the parent seal bitmap from the header at the given block number.\n   * @param blockNumber Block number to retrieve. Must be within 4 epochs of the current number.\n   * @return Bitmap parent seal with set bits at indices corresponding to signing validators.\n   * @dev This function will be deprecated in L2.\n   */\n  function getParentSealBitmap(uint256 blockNumber) public view onlyL1 returns (bytes32) {\n    bytes memory out;\n    bool success;\n    (success, out) = GET_PARENT_SEAL_BITMAP.staticcall(abi.encodePacked(blockNumber));\n    require(success, \"error calling getParentSealBitmap precompile\");\n    return getBytes32FromBytes(out, 0);\n  }\n\n  /**\n   * @notice Verifies the BLS signature on the header and returns the seal bitmap.\n   * The validator set used for verification is retrieved based on the parent hash field of the\n   * header.  If the parent hash is not in the blockchain, verification fails.\n   * @param header RLP encoded header\n   * @return Bitmap parent seal with set bits at indices correspoinding to signing validators.\n   * @dev This function will be deprecated in L2.\n   */\n  function getVerifiedSealBitmapFromHeader(\n    bytes memory header\n  ) public view onlyL1 returns (bytes32) {\n    bytes memory out;\n    bool success;\n    (success, out) = GET_VERIFIED_SEAL_BITMAP.staticcall(abi.encodePacked(header));\n    require(success, \"error calling getVerifiedSealBitmapFromHeader precompile\");\n    return getBytes32FromBytes(out, 0);\n  }\n\n  /**\n   * @notice Returns the minimum number of required signers for a given block number.\n   * @dev Computed in celo-blockchain as int(math.Ceil(float64(2*valSet.Size()) / 3))\n   * @dev This function will be deprecated in L2.\n   */\n  function minQuorumSize(uint256 blockNumber) public view onlyL1 returns (uint256) {\n    return numberValidatorsInSet(blockNumber).mul(2).add(2).div(3);\n  }\n\n  /**\n   * @notice Computes byzantine quorum from current validator set size\n   * @return Byzantine quorum of validators.\n   * @dev This function will be deprecated in L2.\n   */\n  function minQuorumSizeInCurrentSet() public view onlyL1 returns (uint256) {\n    return minQuorumSize(block.number);\n  }\n\n  /**\n   * @notice Returns the epoch number at a block.\n   * @param blockNumber Block number where epoch number is calculated.\n   * @param epochSize The epoch size in blocks.\n   * @return Epoch number.\n   */\n  function epochNumberOfBlock(\n    uint256 blockNumber,\n    uint256 epochSize\n  ) internal pure returns (uint256) {\n    // Follows GetEpochNumber from celo-blockchain/blob/master/consensus/istanbul/utils.go\n    uint256 epochNumber = blockNumber / epochSize;\n    if (blockNumber % epochSize == 0) {\n      return epochNumber;\n    } else {\n      return epochNumber.add(1);\n    }\n  }\n\n  /**\n   * @notice Converts bytes to uint256.\n   * @param bs byte[] data\n   * @param start offset into byte data to convert\n   * @return uint256 data\n   */\n  function getUint256FromBytes(bytes memory bs, uint256 start) internal pure returns (uint256) {\n    return uint256(getBytes32FromBytes(bs, start));\n  }\n\n  /**\n   * @notice Converts bytes to bytes32.\n   * @param bs byte[] data\n   * @param start offset into byte data to convert\n   * @return bytes32 data\n   */\n  function getBytes32FromBytes(bytes memory bs, uint256 start) internal pure returns (bytes32) {\n    require(bs.length >= start.add(32), \"slicing out of range\");\n    bytes32 x;\n    assembly {\n      x := mload(add(bs, add(start, 32)))\n    }\n    return x;\n  }\n}\n",
  "sourcePath": "/Users/beaver/Development/temp/celo-monorepo/packages/protocol/contracts/common/UsingPrecompiles.sol",
  "compiler": {
    "name": "solc",
    "version": "0.5.13+commit.5b0b510c.Emscripten.clang"
  },
  "schemaVersion": "3.4.13",
  "updatedAt": "2025-05-05T17:49:51.136Z",
  "devdoc": {
    "methods": {
      "checkProofOfPossession(address,bytes,bytes)": {
        "details": "This function will be deprecated in L2.",
        "params": {
          "blsKey": "The BLS public key that the validator is using for consensus, should pass proof  of possession. 48 bytes.",
          "blsPop": "The BLS public key proof-of-possession, which consists of a signature on the  account address. 96 bytes.",
          "sender": "The address signed by the BLS key to generate the proof of possession."
        },
        "return": "True upon success."
      },
      "fractionMulExp(uint256,uint256,uint256,uint256,uint256,uint256)": {
        "details": "This function will be deprecated in L2.",
        "params": {
          "_decimals": "precision",
          "aDenominator": "Denominator of first fraction",
          "aNumerator": "Numerator of first fraction",
          "bDenominator": "Denominator of exponentiated fraction",
          "bNumerator": "Numerator of exponentiated fraction",
          "exponent": "exponent to raise b to"
        },
        "return": "Numerator of the computed quantity (not reduced).Denominator of the computed quantity (not reduced)."
      },
      "getBlockNumberFromHeader(bytes)": {
        "details": "This function will be deprecated in L2.",
        "params": {
          "header": "RLP encoded header"
        },
        "return": "Block number."
      },
      "getEpochNumber()": {
        "details": "This function will be deprecated in L2.",
        "return": "Current epoch number."
      },
      "getEpochNumberOfBlock(uint256)": {
        "details": "This function will be deprecated in L2.",
        "params": {
          "blockNumber": "Block number where epoch number is calculated."
        },
        "return": "Epoch number."
      },
      "getEpochSize()": {
        "details": "This function will be deprecated in L2.",
        "return": "The current epoch size in blocks."
      },
      "getParentSealBitmap(uint256)": {
        "details": "This function will be deprecated in L2.",
        "params": {
          "blockNumber": "Block number to retrieve. Must be within 4 epochs of the current number."
        },
        "return": "Bitmap parent seal with set bits at indices corresponding to signing validators."
      },
      "getVerifiedSealBitmapFromHeader(bytes)": {
        "details": "This function will be deprecated in L2.",
        "params": {
          "header": "RLP encoded header"
        },
        "return": "Bitmap parent seal with set bits at indices correspoinding to signing validators."
      },
      "hashHeader(bytes)": {
        "details": "This function will be deprecated in L2.",
        "params": {
          "header": "RLP encoded header"
        },
        "return": "Header hash."
      },
      "minQuorumSize(uint256)": {
        "details": "Computed in celo-blockchain as int(math.Ceil(float64(2*valSet.Size()) / 3))This function will be deprecated in L2."
      },
      "minQuorumSizeInCurrentSet()": {
        "details": "This function will be deprecated in L2.",
        "return": "Byzantine quorum of validators."
      },
      "numberValidatorsInCurrentSet()": {
        "details": "This function will be deprecated in L2.",
        "return": "Size of the current elected validator set."
      },
      "numberValidatorsInSet(uint256)": {
        "details": "This function will be deprecated in L2.",
        "params": {
          "blockNumber": "Block number to retrieve the validator set from."
        },
        "return": "Size of the validator set."
      },
      "validatorSignerAddressFromCurrentSet(uint256)": {
        "details": "This function will be deprecated in L2.",
        "params": {
          "index": "Index of requested validator in the validator set."
        },
        "return": "Address of validator signer at the requested index."
      },
      "validatorSignerAddressFromSet(uint256,uint256)": {
        "details": "This function will be deprecated in L2.",
        "params": {
          "blockNumber": "Block number to retrieve the validator set from.",
          "index": "Index of requested validator in the validator set."
        },
        "return": "Address of validator signer at the requested index."
      }
    }
  },
  "userdoc": {
    "methods": {
      "checkProofOfPossession(address,bytes,bytes)": {
        "notice": "Checks a BLS proof of possession."
      },
      "fractionMulExp(uint256,uint256,uint256,uint256,uint256,uint256)": {
        "notice": "calculate a * b^x for fractions a, b to `decimals` precision"
      },
      "getBlockNumberFromHeader(bytes)": {
        "notice": "Parses block number out of header."
      },
      "getEpochNumber()": {
        "notice": "Returns the epoch number at a block."
      },
      "getEpochNumberOfBlock(uint256)": {
        "notice": "Returns the epoch number at a block."
      },
      "getEpochSize()": {
        "notice": "Returns the current epoch size in blocks."
      },
      "getParentSealBitmap(uint256)": {
        "notice": "Gets the parent seal bitmap from the header at the given block number."
      },
      "getVerifiedSealBitmapFromHeader(bytes)": {
        "notice": "Verifies the BLS signature on the header and returns the seal bitmap. The validator set used for verification is retrieved based on the parent hash field of the header.  If the parent hash is not in the blockchain, verification fails."
      },
      "hashHeader(bytes)": {
        "notice": "Computes hash of header."
      },
      "minQuorumSize(uint256)": {
        "notice": "Returns the minimum number of required signers for a given block number."
      },
      "minQuorumSizeInCurrentSet()": {
        "notice": "Computes byzantine quorum from current validator set size"
      },
      "numberValidatorsInCurrentSet()": {
        "notice": "Gets the size of the current elected validator set."
      },
      "numberValidatorsInSet(uint256)": {
        "notice": "Gets the size of the validator set that must sign the given block number."
      },
      "validatorSignerAddressFromCurrentSet(uint256)": {
        "notice": "Gets a validator signer address from the current validator set."
      },
      "validatorSignerAddressFromSet(uint256,uint256)": {
        "notice": "Gets a validator signer address from the validator set at the given block number."
      }
    }
  }
}